{
	"soljobs.sol": {
		"SolJobs": {
			"abi": [
				{
					"inputs": [],
					"stateMutability": "nonpayable",
					"type": "constructor"
				},
				{
					"anonymous": false,
					"inputs": [
						{
							"indexed": false,
							"internalType": "uint256",
							"name": "newApplicantID",
							"type": "uint256"
						}
					],
					"name": "ApplicantProfileCreated",
					"type": "event"
				},
				{
					"anonymous": false,
					"inputs": [
						{
							"indexed": false,
							"internalType": "uint256",
							"name": "applicationID",
							"type": "uint256"
						}
					],
					"name": "ApplicationSubmitted",
					"type": "event"
				},
				{
					"anonymous": false,
					"inputs": [
						{
							"indexed": false,
							"internalType": "uint256",
							"name": "newCreatorID",
							"type": "uint256"
						}
					],
					"name": "CreatorProfileCreated",
					"type": "event"
				},
				{
					"anonymous": false,
					"inputs": [
						{
							"indexed": false,
							"internalType": "uint256",
							"name": "newJobID",
							"type": "uint256"
						}
					],
					"name": "JobCreated",
					"type": "event"
				},
				{
					"inputs": [
						{
							"internalType": "address",
							"name": "",
							"type": "address"
						}
					],
					"name": "applicantProfiles",
					"outputs": [
						{
							"internalType": "uint256",
							"name": "id",
							"type": "uint256"
						},
						{
							"internalType": "address",
							"name": "applicantAddress",
							"type": "address"
						},
						{
							"internalType": "string",
							"name": "fullname",
							"type": "string"
						},
						{
							"internalType": "string",
							"name": "email",
							"type": "string"
						},
						{
							"internalType": "string",
							"name": "location",
							"type": "string"
						},
						{
							"internalType": "string",
							"name": "bio",
							"type": "string"
						},
						{
							"internalType": "enum ProfileType",
							"name": "profileType",
							"type": "uint8"
						}
					],
					"stateMutability": "view",
					"type": "function"
				},
				{
					"inputs": [
						{
							"internalType": "uint256",
							"name": "jobID",
							"type": "uint256"
						},
						{
							"internalType": "string",
							"name": "coverLetter",
							"type": "string"
						}
					],
					"name": "applyForAJob",
					"outputs": [],
					"stateMutability": "nonpayable",
					"type": "function"
				},
				{
					"inputs": [
						{
							"internalType": "string",
							"name": "_fullname",
							"type": "string"
						},
						{
							"internalType": "string",
							"name": "_email",
							"type": "string"
						},
						{
							"internalType": "string",
							"name": "_location",
							"type": "string"
						},
						{
							"internalType": "string",
							"name": "_bio",
							"type": "string"
						}
					],
					"name": "createApplicantProfile",
					"outputs": [],
					"stateMutability": "nonpayable",
					"type": "function"
				},
				{
					"inputs": [
						{
							"internalType": "string",
							"name": "_name",
							"type": "string"
						},
						{
							"internalType": "string",
							"name": "_email",
							"type": "string"
						},
						{
							"internalType": "string",
							"name": "_description",
							"type": "string"
						},
						{
							"internalType": "string",
							"name": "_tagline",
							"type": "string"
						}
					],
					"name": "createCreatorProfile",
					"outputs": [],
					"stateMutability": "nonpayable",
					"type": "function"
				},
				{
					"inputs": [
						{
							"internalType": "string",
							"name": "title",
							"type": "string"
						},
						{
							"internalType": "string",
							"name": "description",
							"type": "string"
						},
						{
							"internalType": "uint256",
							"name": "compensation",
							"type": "uint256"
						}
					],
					"name": "createJobOffer",
					"outputs": [],
					"stateMutability": "nonpayable",
					"type": "function"
				},
				{
					"inputs": [
						{
							"internalType": "address",
							"name": "",
							"type": "address"
						}
					],
					"name": "creatorProfiles",
					"outputs": [
						{
							"internalType": "uint256",
							"name": "id",
							"type": "uint256"
						},
						{
							"internalType": "string",
							"name": "email",
							"type": "string"
						},
						{
							"internalType": "string",
							"name": "name",
							"type": "string"
						},
						{
							"internalType": "string",
							"name": "tagline",
							"type": "string"
						},
						{
							"internalType": "string",
							"name": "description",
							"type": "string"
						},
						{
							"internalType": "address",
							"name": "creatorAddress",
							"type": "address"
						},
						{
							"internalType": "bool",
							"name": "verified",
							"type": "bool"
						},
						{
							"internalType": "enum ProfileType",
							"name": "profileType",
							"type": "uint8"
						}
					],
					"stateMutability": "view",
					"type": "function"
				},
				{
					"inputs": [
						{
							"internalType": "uint256",
							"name": "",
							"type": "uint256"
						}
					],
					"name": "jobApplications",
					"outputs": [
						{
							"internalType": "uint256",
							"name": "id",
							"type": "uint256"
						},
						{
							"internalType": "uint256",
							"name": "jobOfferId",
							"type": "uint256"
						},
						{
							"internalType": "string",
							"name": "coverLetter",
							"type": "string"
						},
						{
							"components": [
								{
									"internalType": "uint256",
									"name": "id",
									"type": "uint256"
								},
								{
									"internalType": "address",
									"name": "applicantAddress",
									"type": "address"
								},
								{
									"internalType": "string",
									"name": "fullname",
									"type": "string"
								},
								{
									"internalType": "string",
									"name": "email",
									"type": "string"
								},
								{
									"internalType": "string",
									"name": "location",
									"type": "string"
								},
								{
									"internalType": "string",
									"name": "bio",
									"type": "string"
								},
								{
									"internalType": "enum ProfileType",
									"name": "profileType",
									"type": "uint8"
								},
								{
									"internalType": "uint256[]",
									"name": "applicationIDs",
									"type": "uint256[]"
								}
							],
							"internalType": "struct ApplicantProfile",
							"name": "applicant",
							"type": "tuple"
						},
						{
							"internalType": "enum JobApplicationStatus",
							"name": "status",
							"type": "uint8"
						}
					],
					"stateMutability": "view",
					"type": "function"
				},
				{
					"inputs": [
						{
							"internalType": "uint256",
							"name": "",
							"type": "uint256"
						}
					],
					"name": "jobOffers",
					"outputs": [
						{
							"internalType": "uint256",
							"name": "id",
							"type": "uint256"
						},
						{
							"internalType": "string",
							"name": "title",
							"type": "string"
						},
						{
							"internalType": "string",
							"name": "description",
							"type": "string"
						},
						{
							"internalType": "uint256",
							"name": "compensation",
							"type": "uint256"
						},
						{
							"components": [
								{
									"internalType": "uint256",
									"name": "id",
									"type": "uint256"
								},
								{
									"internalType": "string",
									"name": "email",
									"type": "string"
								},
								{
									"internalType": "string",
									"name": "name",
									"type": "string"
								},
								{
									"internalType": "string",
									"name": "tagline",
									"type": "string"
								},
								{
									"internalType": "string",
									"name": "description",
									"type": "string"
								},
								{
									"internalType": "address",
									"name": "creatorAddress",
									"type": "address"
								},
								{
									"internalType": "bool",
									"name": "verified",
									"type": "bool"
								},
								{
									"internalType": "enum ProfileType",
									"name": "profileType",
									"type": "uint8"
								},
								{
									"internalType": "uint256[]",
									"name": "jobOfferIDs",
									"type": "uint256[]"
								}
							],
							"internalType": "struct CreatorProfile",
							"name": "creator",
							"type": "tuple"
						}
					],
					"stateMutability": "view",
					"type": "function"
				}
			],
			"devdoc": {
				"details": "Create, apply and award remote jobs on the blockchain",
				"kind": "dev",
				"methods": {},
				"title": "SolJobs",
				"version": 1
			},
			"evm": {
				"assembly": "    /* \"soljobs.sol\":210:4709  contract SolJobs {... */\n  mstore(0x40, 0x80)\n    /* \"soljobs.sol\":883:934  constructor() {... */\n  callvalue\n  dup1\n  iszero\n  tag_1\n  jumpi\n  revert(0x00, 0x00)\ntag_1:\n  pop\n    /* \"soljobs.sol\":917:927  msg.sender */\n  caller\n    /* \"soljobs.sol\":907:914  manager */\n  0x00\n  0x00\n    /* \"soljobs.sol\":907:927  manager = msg.sender */\n  0x0100\n  exp\n  dup2\n  sload\n  dup2\n  0xffffffffffffffffffffffffffffffffffffffff\n  mul\n  not\n  and\n  swap1\n  dup4\n  0xffffffffffffffffffffffffffffffffffffffff\n  and\n  mul\n  or\n  swap1\n  sstore\n  pop\n    /* \"soljobs.sol\":210:4709  contract SolJobs {... */\n  dataSize(sub_0)\n  dup1\n  dataOffset(sub_0)\n  0x00\n  codecopy\n  0x00\n  return\nstop\n\nsub_0: assembly {\n        /* \"soljobs.sol\":210:4709  contract SolJobs {... */\n      mstore(0x40, 0x80)\n      callvalue\n      dup1\n      iszero\n      tag_1\n      jumpi\n      revert(0x00, 0x00)\n    tag_1:\n      pop\n      jumpi(tag_2, lt(calldatasize, 0x04))\n      shr(0xe0, calldataload(0x00))\n      dup1\n      0x92b2a791\n      gt\n      tag_11\n      jumpi\n      dup1\n      0x92b2a791\n      eq\n      tag_7\n      jumpi\n      dup1\n      0x95b04be2\n      eq\n      tag_8\n      jumpi\n      dup1\n      0xd4bb7d2e\n      eq\n      tag_9\n      jumpi\n      dup1\n      0xe06f7484\n      eq\n      tag_10\n      jumpi\n      jump(tag_2)\n    tag_11:\n      dup1\n      0x2ae4bc55\n      eq\n      tag_3\n      jumpi\n      dup1\n      0x3cb50276\n      eq\n      tag_4\n      jumpi\n      dup1\n      0x699687cf\n      eq\n      tag_5\n      jumpi\n      dup1\n      0x87e6446f\n      eq\n      tag_6\n      jumpi\n    tag_2:\n      revert(0x00, 0x00)\n        /* \"soljobs.sol\":1761:2596  function createCreatorProfile(... */\n    tag_3:\n      tag_12\n      0x04\n      dup1\n      calldatasize\n      sub\n      dup2\n      add\n      swap1\n      tag_13\n      swap2\n      swap1\n      tag_14\n      jump\t// in\n    tag_13:\n      tag_15\n      jump\t// in\n    tag_12:\n      stop\n        /* \"soljobs.sol\":3432:3985  function createJobOffer(... */\n    tag_4:\n      tag_16\n      0x04\n      dup1\n      calldatasize\n      sub\n      dup2\n      add\n      swap1\n      tag_17\n      swap2\n      swap1\n      tag_18\n      jump\t// in\n    tag_17:\n      tag_19\n      jump\t// in\n    tag_16:\n      stop\n        /* \"soljobs.sol\":819:874  mapping (uint => JobApplication) public jobApplications */\n    tag_5:\n      tag_20\n      0x04\n      dup1\n      calldatasize\n      sub\n      dup2\n      add\n      swap1\n      tag_21\n      swap2\n      swap1\n      tag_22\n      jump\t// in\n    tag_21:\n      tag_23\n      jump\t// in\n    tag_20:\n      mload(0x40)\n      tag_24\n      swap6\n      swap5\n      swap4\n      swap3\n      swap2\n      swap1\n      tag_25\n      jump\t// in\n    tag_24:\n      mload(0x40)\n      dup1\n      swap2\n      sub\n      swap1\n      return\n        /* \"soljobs.sol\":2602:3426  function createApplicantProfile(... */\n    tag_6:\n      tag_26\n      0x04\n      dup1\n      calldatasize\n      sub\n      dup2\n      add\n      swap1\n      tag_27\n      swap2\n      swap1\n      tag_14\n      jump\t// in\n    tag_27:\n      tag_28\n      jump\t// in\n    tag_26:\n      stop\n        /* \"soljobs.sol\":328:390  mapping (address => ApplicantProfile) public applicantProfiles */\n    tag_7:\n      tag_29\n      0x04\n      dup1\n      calldatasize\n      sub\n      dup2\n      add\n      swap1\n      tag_30\n      swap2\n      swap1\n      tag_31\n      jump\t// in\n    tag_30:\n      tag_32\n      jump\t// in\n    tag_29:\n      mload(0x40)\n      tag_33\n      swap8\n      swap7\n      swap6\n      swap5\n      swap4\n      swap3\n      swap2\n      swap1\n      tag_34\n      jump\t// in\n    tag_33:\n      mload(0x40)\n      dup1\n      swap2\n      sub\n      swap1\n      return\n        /* \"soljobs.sol\":263:321  mapping (address => CreatorProfile) public creatorProfiles */\n    tag_8:\n      tag_35\n      0x04\n      dup1\n      calldatasize\n      sub\n      dup2\n      add\n      swap1\n      tag_36\n      swap2\n      swap1\n      tag_31\n      jump\t// in\n    tag_36:\n      tag_37\n      jump\t// in\n    tag_35:\n      mload(0x40)\n      tag_38\n      swap9\n      swap8\n      swap7\n      swap6\n      swap5\n      swap4\n      swap3\n      swap2\n      swap1\n      tag_39\n      jump\t// in\n    tag_38:\n      mload(0x40)\n      dup1\n      swap2\n      sub\n      swap1\n      return\n        /* \"soljobs.sol\":3991:4697  function applyForAJob(... */\n    tag_9:\n      tag_40\n      0x04\n      dup1\n      calldatasize\n      sub\n      dup2\n      add\n      swap1\n      tag_41\n      swap2\n      swap1\n      tag_42\n      jump\t// in\n    tag_41:\n      tag_43\n      jump\t// in\n    tag_40:\n      stop\n        /* \"soljobs.sol\":738:781  mapping (uint => JobOffer) public jobOffers */\n    tag_10:\n      tag_44\n      0x04\n      dup1\n      calldatasize\n      sub\n      dup2\n      add\n      swap1\n      tag_45\n      swap2\n      swap1\n      tag_22\n      jump\t// in\n    tag_45:\n      tag_46\n      jump\t// in\n    tag_44:\n      mload(0x40)\n      tag_47\n      swap6\n      swap5\n      swap4\n      swap3\n      swap2\n      swap1\n      tag_48\n      jump\t// in\n    tag_47:\n      mload(0x40)\n      dup1\n      swap2\n      sub\n      swap1\n      return\n        /* \"soljobs.sol\":1761:2596  function createCreatorProfile(... */\n    tag_15:\n        /* \"soljobs.sol\":1948:1954  _email */\n      dup6\n      dup6\n        /* \"soljobs.sol\":1032:1037  false */\n      0x00\n        /* \"soljobs.sol\":1007:1037  creatorEmails[_email] == false */\n      iszero\n      iszero\n        /* \"soljobs.sol\":1007:1020  creatorEmails */\n      0x05\n        /* \"soljobs.sol\":1021:1027  _email */\n      dup4\n      dup4\n        /* \"soljobs.sol\":1007:1028  creatorEmails[_email] */\n      mload(0x40)\n      tag_50\n      swap3\n      swap2\n      swap1\n      tag_51\n      jump\t// in\n    tag_50:\n      swap1\n      dup2\n      mstore\n      0x20\n      add\n      mload(0x40)\n      dup1\n      swap2\n      sub\n      swap1\n      keccak256\n      0x00\n      swap1\n      sload\n      swap1\n      0x0100\n      exp\n      swap1\n      div\n      0xff\n      and\n        /* \"soljobs.sol\":1007:1037  creatorEmails[_email] == false */\n      iszero\n      iszero\n      eq\n        /* \"soljobs.sol\":1007:1073  creatorEmails[_email] == false && applicantEmails[_email] == false */\n      dup1\n      iszero\n      tag_52\n      jumpi\n      pop\n        /* \"soljobs.sol\":1068:1073  false */\n      0x00\n        /* \"soljobs.sol\":1041:1073  applicantEmails[_email] == false */\n      iszero\n      iszero\n        /* \"soljobs.sol\":1041:1056  applicantEmails */\n      0x06\n        /* \"soljobs.sol\":1057:1063  _email */\n      dup4\n      dup4\n        /* \"soljobs.sol\":1041:1064  applicantEmails[_email] */\n      mload(0x40)\n      tag_53\n      swap3\n      swap2\n      swap1\n      tag_51\n      jump\t// in\n    tag_53:\n      swap1\n      dup2\n      mstore\n      0x20\n      add\n      mload(0x40)\n      dup1\n      swap2\n      sub\n      swap1\n      keccak256\n      0x00\n      swap1\n      sload\n      swap1\n      0x0100\n      exp\n      swap1\n      div\n      0xff\n      and\n        /* \"soljobs.sol\":1041:1073  applicantEmails[_email] == false */\n      iszero\n      iszero\n      eq\n        /* \"soljobs.sol\":1007:1073  creatorEmails[_email] == false && applicantEmails[_email] == false */\n    tag_52:\n        /* \"soljobs.sol\":1075:1096  emailAlreadyExistsMsg */\n      mload(0x40)\n      dup1\n      0x40\n      add\n      0x40\n      mstore\n      dup1\n      0x15\n      dup2\n      mstore\n      0x20\n      add\n      0x456d61696c20616c726561647920657869737473210000000000000000000000\n      dup2\n      mstore\n      pop\n        /* \"soljobs.sol\":999:1097  require(creatorEmails[_email] == false && applicantEmails[_email] == false, emailAlreadyExistsMsg) */\n      swap1\n      tag_54\n      jumpi\n      mload(0x40)\n      0x08c379a000000000000000000000000000000000000000000000000000000000\n      dup2\n      mstore\n      0x04\n      add\n      tag_55\n      swap2\n      swap1\n      tag_56\n      jump\t// in\n    tag_55:\n      mload(0x40)\n      dup1\n      swap2\n      sub\n      swap1\n      revert\n    tag_54:\n      pop\n        /* \"soljobs.sol\":1147:1152  false */\n      0x00\n        /* \"soljobs.sol\":1115:1152  creatorAddresses[msg.sender] == false */\n      iszero\n      iszero\n        /* \"soljobs.sol\":1115:1131  creatorAddresses */\n      0x07\n        /* \"soljobs.sol\":1115:1143  creatorAddresses[msg.sender] */\n      0x00\n        /* \"soljobs.sol\":1132:1142  msg.sender */\n      caller\n        /* \"soljobs.sol\":1115:1143  creatorAddresses[msg.sender] */\n      0xffffffffffffffffffffffffffffffffffffffff\n      and\n      0xffffffffffffffffffffffffffffffffffffffff\n      and\n      dup2\n      mstore\n      0x20\n      add\n      swap1\n      dup2\n      mstore\n      0x20\n      add\n      0x00\n      keccak256\n      0x00\n      swap1\n      sload\n      swap1\n      0x0100\n      exp\n      swap1\n      div\n      0xff\n      and\n        /* \"soljobs.sol\":1115:1152  creatorAddresses[msg.sender] == false */\n      iszero\n      iszero\n      eq\n        /* \"soljobs.sol\":1115:1195  creatorAddresses[msg.sender] == false && applicantAddresses[msg.sender] == false */\n      dup1\n      iszero\n      tag_57\n      jumpi\n      pop\n        /* \"soljobs.sol\":1190:1195  false */\n      0x00\n        /* \"soljobs.sol\":1156:1195  applicantAddresses[msg.sender] == false */\n      iszero\n      iszero\n        /* \"soljobs.sol\":1156:1174  applicantAddresses */\n      0x08\n        /* \"soljobs.sol\":1156:1186  applicantAddresses[msg.sender] */\n      0x00\n        /* \"soljobs.sol\":1175:1185  msg.sender */\n      caller\n        /* \"soljobs.sol\":1156:1186  applicantAddresses[msg.sender] */\n      0xffffffffffffffffffffffffffffffffffffffff\n      and\n      0xffffffffffffffffffffffffffffffffffffffff\n      and\n      dup2\n      mstore\n      0x20\n      add\n      swap1\n      dup2\n      mstore\n      0x20\n      add\n      0x00\n      keccak256\n      0x00\n      swap1\n      sload\n      swap1\n      0x0100\n      exp\n      swap1\n      div\n      0xff\n      and\n        /* \"soljobs.sol\":1156:1195  applicantAddresses[msg.sender] == false */\n      iszero\n      iszero\n      eq\n        /* \"soljobs.sol\":1115:1195  creatorAddresses[msg.sender] == false && applicantAddresses[msg.sender] == false */\n    tag_57:\n        /* \"soljobs.sol\":1197:1220  addressAlreadyExistsMsg */\n      mload(0x40)\n      dup1\n      0x40\n      add\n      0x40\n      mstore\n      dup1\n      0x17\n      dup2\n      mstore\n      0x20\n      add\n      0x4164647265737320616c72656164792065786973747321000000000000000000\n      dup2\n      mstore\n      pop\n        /* \"soljobs.sol\":1107:1221  require(creatorAddresses[msg.sender] == false && applicantAddresses[msg.sender] == false, addressAlreadyExistsMsg) */\n      swap1\n      tag_58\n      jumpi\n      mload(0x40)\n      0x08c379a000000000000000000000000000000000000000000000000000000000\n      dup2\n      mstore\n      0x04\n      add\n      tag_59\n      swap2\n      swap1\n      tag_56\n      jump\t// in\n    tag_59:\n      mload(0x40)\n      dup1\n      swap2\n      sub\n      swap1\n      revert\n    tag_58:\n      pop\n        /* \"soljobs.sol\":1975:1989  uint creatorID */\n      0x00\n        /* \"soljobs.sol\":1994:2017  numberOfCreatorProfiles */\n      0x03\n      0x00\n        /* \"soljobs.sol\":1992:2017  ++numberOfCreatorProfiles */\n      dup2\n      sload\n      tag_61\n      swap1\n      tag_62\n      jump\t// in\n    tag_61:\n      swap2\n      swap1\n      pop\n      dup2\n      swap1\n      sstore\n        /* \"soljobs.sol\":1975:2017  uint creatorID = ++numberOfCreatorProfiles */\n      swap1\n      pop\n        /* \"soljobs.sol\":2028:2058  CreatorProfile storage profile */\n      0x00\n        /* \"soljobs.sol\":2061:2076  creatorProfiles */\n      0x01\n        /* \"soljobs.sol\":2061:2088  creatorProfiles[msg.sender] */\n      0x00\n        /* \"soljobs.sol\":2077:2087  msg.sender */\n      caller\n        /* \"soljobs.sol\":2061:2088  creatorProfiles[msg.sender] */\n      0xffffffffffffffffffffffffffffffffffffffff\n      and\n      0xffffffffffffffffffffffffffffffffffffffff\n      and\n      dup2\n      mstore\n      0x20\n      add\n      swap1\n      dup2\n      mstore\n      0x20\n      add\n      0x00\n      keccak256\n        /* \"soljobs.sol\":2028:2088  CreatorProfile storage profile = creatorProfiles[msg.sender] */\n      swap1\n      pop\n        /* \"soljobs.sol\":2111:2120  creatorID */\n      dup2\n        /* \"soljobs.sol\":2098:2105  profile */\n      dup2\n        /* \"soljobs.sol\":2098:2108  profile.id */\n      0x00\n      add\n        /* \"soljobs.sol\":2098:2120  profile.id = creatorID */\n      dup2\n      swap1\n      sstore\n      pop\n        /* \"soljobs.sol\":2145:2150  _name */\n      dup12\n      dup12\n        /* \"soljobs.sol\":2130:2137  profile */\n      dup3\n        /* \"soljobs.sol\":2130:2142  profile.name */\n      0x02\n      add\n        /* \"soljobs.sol\":2130:2150  profile.name = _name */\n      swap2\n      dup3\n      tag_63\n      swap3\n      swap2\n      swap1\n      tag_64\n      jump\t// in\n    tag_63:\n      pop\n        /* \"soljobs.sol\":2176:2182  _email */\n      dup10\n      dup10\n        /* \"soljobs.sol\":2160:2167  profile */\n      dup3\n        /* \"soljobs.sol\":2160:2173  profile.email */\n      0x01\n      add\n        /* \"soljobs.sol\":2160:2182  profile.email = _email */\n      swap2\n      dup3\n      tag_65\n      swap3\n      swap2\n      swap1\n      tag_64\n      jump\t// in\n    tag_65:\n      pop\n        /* \"soljobs.sol\":2214:2226  _description */\n      dup8\n      dup8\n        /* \"soljobs.sol\":2192:2199  profile */\n      dup3\n        /* \"soljobs.sol\":2192:2211  profile.description */\n      0x04\n      add\n        /* \"soljobs.sol\":2192:2226  profile.description = _description */\n      swap2\n      dup3\n      tag_66\n      swap3\n      swap2\n      swap1\n      tag_64\n      jump\t// in\n    tag_66:\n      pop\n        /* \"soljobs.sol\":2254:2262  _tagline */\n      dup6\n      dup6\n        /* \"soljobs.sol\":2236:2243  profile */\n      dup3\n        /* \"soljobs.sol\":2236:2251  profile.tagline */\n      0x03\n      add\n        /* \"soljobs.sol\":2236:2262  profile.tagline = _tagline */\n      swap2\n      dup3\n      tag_67\n      swap3\n      swap2\n      swap1\n      tag_64\n      jump\t// in\n    tag_67:\n      pop\n        /* \"soljobs.sol\":2341:2345  true */\n      0x01\n        /* \"soljobs.sol\":2317:2330  creatorEmails */\n      0x05\n        /* \"soljobs.sol\":2331:2337  _email */\n      dup12\n      dup12\n        /* \"soljobs.sol\":2317:2338  creatorEmails[_email] */\n      mload(0x40)\n      tag_68\n      swap3\n      swap2\n      swap1\n      tag_51\n      jump\t// in\n    tag_68:\n      swap1\n      dup2\n      mstore\n      0x20\n      add\n      mload(0x40)\n      dup1\n      swap2\n      sub\n      swap1\n      keccak256\n      0x00\n        /* \"soljobs.sol\":2317:2345  creatorEmails[_email] = true */\n      0x0100\n      exp\n      dup2\n      sload\n      dup2\n      0xff\n      mul\n      not\n      and\n      swap1\n      dup4\n      iszero\n      iszero\n      mul\n      or\n      swap1\n      sstore\n      pop\n        /* \"soljobs.sol\":2386:2390  true */\n      0x01\n        /* \"soljobs.sol\":2355:2371  creatorAddresses */\n      0x07\n        /* \"soljobs.sol\":2355:2383  creatorAddresses[msg.sender] */\n      0x00\n        /* \"soljobs.sol\":2372:2382  msg.sender */\n      caller\n        /* \"soljobs.sol\":2355:2383  creatorAddresses[msg.sender] */\n      0xffffffffffffffffffffffffffffffffffffffff\n      and\n      0xffffffffffffffffffffffffffffffffffffffff\n      and\n      dup2\n      mstore\n      0x20\n      add\n      swap1\n      dup2\n      mstore\n      0x20\n      add\n      0x00\n      keccak256\n      0x00\n        /* \"soljobs.sol\":2355:2390  creatorAddresses[msg.sender] = true */\n      0x0100\n      exp\n      dup2\n      sload\n      dup2\n      0xff\n      mul\n      not\n      and\n      swap1\n      dup4\n      iszero\n      iszero\n      mul\n      or\n      swap1\n      sstore\n      pop\n        /* \"soljobs.sol\":2440:2445  false */\n      0x00\n        /* \"soljobs.sol\":2421:2428  profile */\n      dup2\n        /* \"soljobs.sol\":2421:2437  profile.verified */\n      0x05\n      add\n      0x14\n        /* \"soljobs.sol\":2421:2445  profile.verified = false */\n      0x0100\n      exp\n      dup2\n      sload\n      dup2\n      0xff\n      mul\n      not\n      and\n      swap1\n      dup4\n      iszero\n      iszero\n      mul\n      or\n      swap1\n      sstore\n      pop\n        /* \"soljobs.sol\":2477:2496  ProfileType.Creator */\n      0x00\n        /* \"soljobs.sol\":2455:2462  profile */\n      dup2\n        /* \"soljobs.sol\":2455:2474  profile.profileType */\n      0x05\n      add\n      0x15\n        /* \"soljobs.sol\":2455:2496  profile.profileType = ProfileType.Creator */\n      0x0100\n      exp\n      dup2\n      sload\n      dup2\n      0xff\n      mul\n      not\n      and\n      swap1\n      dup4\n      0x01\n      dup2\n      gt\n      iszero\n      tag_69\n      jumpi\n      tag_70\n      tag_71\n      jump\t// in\n    tag_70:\n    tag_69:\n      mul\n      or\n      swap1\n      sstore\n      pop\n        /* \"soljobs.sol\":2531:2541  msg.sender */\n      caller\n        /* \"soljobs.sol\":2506:2513  profile */\n      dup2\n        /* \"soljobs.sol\":2506:2528  profile.creatorAddress */\n      0x05\n      add\n      0x00\n        /* \"soljobs.sol\":2506:2541  profile.creatorAddress = msg.sender */\n      0x0100\n      exp\n      dup2\n      sload\n      dup2\n      0xffffffffffffffffffffffffffffffffffffffff\n      mul\n      not\n      and\n      swap1\n      dup4\n      0xffffffffffffffffffffffffffffffffffffffff\n      and\n      mul\n      or\n      swap1\n      sstore\n      pop\n        /* \"soljobs.sol\":2557:2589  CreatorProfileCreated(creatorID) */\n      0xd1a7c154123ed5a80a1f9c4596757daf4b73c53e8bc15299d58a4be0ca505814\n        /* \"soljobs.sol\":2579:2588  creatorID */\n      dup3\n        /* \"soljobs.sol\":2557:2589  CreatorProfileCreated(creatorID) */\n      mload(0x40)\n      tag_72\n      swap2\n      swap1\n      tag_73\n      jump\t// in\n    tag_72:\n      mload(0x40)\n      dup1\n      swap2\n      sub\n      swap1\n      log1\n        /* \"soljobs.sol\":1965:2596  {... */\n      pop\n      pop\n        /* \"soljobs.sol\":1761:2596  function createCreatorProfile(... */\n      pop\n      pop\n      pop\n      pop\n      pop\n      pop\n      pop\n      pop\n      pop\n      pop\n      jump\t// out\n        /* \"soljobs.sol\":3432:3985  function createJobOffer(... */\n    tag_19:\n        /* \"soljobs.sol\":3590:3600  msg.sender */\n      caller\n        /* \"soljobs.sol\":1345:1349  true */\n      0x01\n        /* \"soljobs.sol\":1315:1349  creatorAddresses[_address] == true */\n      iszero\n      iszero\n        /* \"soljobs.sol\":1315:1331  creatorAddresses */\n      0x07\n        /* \"soljobs.sol\":1315:1341  creatorAddresses[_address] */\n      0x00\n        /* \"soljobs.sol\":1332:1340  _address */\n      dup4\n        /* \"soljobs.sol\":1315:1341  creatorAddresses[_address] */\n      0xffffffffffffffffffffffffffffffffffffffff\n      and\n      0xffffffffffffffffffffffffffffffffffffffff\n      and\n      dup2\n      mstore\n      0x20\n      add\n      swap1\n      dup2\n      mstore\n      0x20\n      add\n      0x00\n      keccak256\n      0x00\n      swap1\n      sload\n      swap1\n      0x0100\n      exp\n      swap1\n      div\n      0xff\n      and\n        /* \"soljobs.sol\":1315:1349  creatorAddresses[_address] == true */\n      iszero\n      iszero\n      eq\n        /* \"soljobs.sol\":1351:1376  callerHasNoCreatorProfile */\n      mload(0x40)\n      dup1\n      0x60\n      add\n      0x40\n      mstore\n      dup1\n      0x2a\n      dup2\n      mstore\n      0x20\n      add\n      data_05dea7a4b749a72103fdaacfd8c830026d599fd95b58e235d7a5b87bda223903\n      0x2a\n      swap2\n      codecopy\n        /* \"soljobs.sol\":1307:1377  require(creatorAddresses[_address] == true, callerHasNoCreatorProfile) */\n      swap1\n      tag_75\n      jumpi\n      mload(0x40)\n      0x08c379a000000000000000000000000000000000000000000000000000000000\n      dup2\n      mstore\n      0x04\n      add\n      tag_76\n      swap2\n      swap1\n      tag_56\n      jump\t// in\n    tag_76:\n      mload(0x40)\n      dup1\n      swap2\n      sub\n      swap1\n      revert\n    tag_75:\n      pop\n        /* \"soljobs.sol\":3612:3622  uint jobID */\n      0x00\n        /* \"soljobs.sol\":3627:3646  numberOfJobsCreated */\n      0x09\n      0x00\n        /* \"soljobs.sol\":3625:3646  ++numberOfJobsCreated */\n      dup2\n      sload\n      tag_78\n      swap1\n      tag_62\n      jump\t// in\n    tag_78:\n      swap2\n      swap1\n      pop\n      dup2\n      swap1\n      sstore\n        /* \"soljobs.sol\":3612:3646  uint jobID = ++numberOfJobsCreated */\n      swap1\n      pop\n        /* \"soljobs.sol\":3656:3676  JobOffer storage job */\n      0x00\n        /* \"soljobs.sol\":3679:3688  jobOffers */\n      0x0a\n        /* \"soljobs.sol\":3679:3695  jobOffers[jobID] */\n      0x00\n        /* \"soljobs.sol\":3689:3694  jobID */\n      dup4\n        /* \"soljobs.sol\":3679:3695  jobOffers[jobID] */\n      dup2\n      mstore\n      0x20\n      add\n      swap1\n      dup2\n      mstore\n      0x20\n      add\n      0x00\n      keccak256\n        /* \"soljobs.sol\":3656:3695  JobOffer storage job = jobOffers[jobID] */\n      swap1\n      pop\n        /* \"soljobs.sol\":3714:3719  jobID */\n      dup2\n        /* \"soljobs.sol\":3705:3708  job */\n      dup2\n        /* \"soljobs.sol\":3705:3711  job.id */\n      0x00\n      add\n        /* \"soljobs.sol\":3705:3719  job.id = jobID */\n      dup2\n      swap1\n      sstore\n      pop\n        /* \"soljobs.sol\":3741:3746  title */\n      dup8\n      dup8\n        /* \"soljobs.sol\":3729:3732  job */\n      dup3\n        /* \"soljobs.sol\":3729:3738  job.title */\n      0x01\n      add\n        /* \"soljobs.sol\":3729:3746  job.title = title */\n      swap2\n      dup3\n      tag_79\n      swap3\n      swap2\n      swap1\n      tag_64\n      jump\t// in\n    tag_79:\n      pop\n        /* \"soljobs.sol\":3774:3785  description */\n      dup6\n      dup6\n        /* \"soljobs.sol\":3756:3759  job */\n      dup3\n        /* \"soljobs.sol\":3756:3771  job.description */\n      0x02\n      add\n        /* \"soljobs.sol\":3756:3785  job.description = description */\n      swap2\n      dup3\n      tag_80\n      swap3\n      swap2\n      swap1\n      tag_64\n      jump\t// in\n    tag_80:\n      pop\n        /* \"soljobs.sol\":3814:3826  compensation */\n      dup4\n        /* \"soljobs.sol\":3795:3798  job */\n      dup2\n        /* \"soljobs.sol\":3795:3811  job.compensation */\n      0x03\n      add\n        /* \"soljobs.sol\":3795:3826  job.compensation = compensation */\n      dup2\n      swap1\n      sstore\n      pop\n        /* \"soljobs.sol\":3845:3874  CreatorProfile memory creator */\n      0x00\n        /* \"soljobs.sol\":3877:3892  creatorProfiles */\n      0x01\n        /* \"soljobs.sol\":3877:3904  creatorProfiles[msg.sender] */\n      0x00\n        /* \"soljobs.sol\":3893:3903  msg.sender */\n      caller\n        /* \"soljobs.sol\":3877:3904  creatorProfiles[msg.sender] */\n      0xffffffffffffffffffffffffffffffffffffffff\n      and\n      0xffffffffffffffffffffffffffffffffffffffff\n      and\n      dup2\n      mstore\n      0x20\n      add\n      swap1\n      dup2\n      mstore\n      0x20\n      add\n      0x00\n      keccak256\n        /* \"soljobs.sol\":3845:3904  CreatorProfile memory creator = creatorProfiles[msg.sender] */\n      mload(0x40)\n      dup1\n      0x0120\n      add\n      0x40\n      mstore\n      swap1\n      dup2\n      0x00\n      dup3\n      add\n      sload\n      dup2\n      mstore\n      0x20\n      add\n      0x01\n      dup3\n      add\n      dup1\n      sload\n      tag_81\n      swap1\n      tag_82\n      jump\t// in\n    tag_81:\n      dup1\n      0x1f\n      add\n      0x20\n      dup1\n      swap2\n      div\n      mul\n      0x20\n      add\n      mload(0x40)\n      swap1\n      dup2\n      add\n      0x40\n      mstore\n      dup1\n      swap3\n      swap2\n      swap1\n      dup2\n      dup2\n      mstore\n      0x20\n      add\n      dup3\n      dup1\n      sload\n      tag_83\n      swap1\n      tag_82\n      jump\t// in\n    tag_83:\n      dup1\n      iszero\n      tag_84\n      jumpi\n      dup1\n      0x1f\n      lt\n      tag_85\n      jumpi\n      0x0100\n      dup1\n      dup4\n      sload\n      div\n      mul\n      dup4\n      mstore\n      swap2\n      0x20\n      add\n      swap2\n      jump(tag_84)\n    tag_85:\n      dup3\n      add\n      swap2\n      swap1\n      0x00\n      mstore\n      keccak256(0x00, 0x20)\n      swap1\n    tag_86:\n      dup2\n      sload\n      dup2\n      mstore\n      swap1\n      0x01\n      add\n      swap1\n      0x20\n      add\n      dup1\n      dup4\n      gt\n      tag_86\n      jumpi\n      dup3\n      swap1\n      sub\n      0x1f\n      and\n      dup3\n      add\n      swap2\n    tag_84:\n      pop\n      pop\n      pop\n      pop\n      pop\n      dup2\n      mstore\n      0x20\n      add\n      0x02\n      dup3\n      add\n      dup1\n      sload\n      tag_87\n      swap1\n      tag_82\n      jump\t// in\n    tag_87:\n      dup1\n      0x1f\n      add\n      0x20\n      dup1\n      swap2\n      div\n      mul\n      0x20\n      add\n      mload(0x40)\n      swap1\n      dup2\n      add\n      0x40\n      mstore\n      dup1\n      swap3\n      swap2\n      swap1\n      dup2\n      dup2\n      mstore\n      0x20\n      add\n      dup3\n      dup1\n      sload\n      tag_88\n      swap1\n      tag_82\n      jump\t// in\n    tag_88:\n      dup1\n      iszero\n      tag_89\n      jumpi\n      dup1\n      0x1f\n      lt\n      tag_90\n      jumpi\n      0x0100\n      dup1\n      dup4\n      sload\n      div\n      mul\n      dup4\n      mstore\n      swap2\n      0x20\n      add\n      swap2\n      jump(tag_89)\n    tag_90:\n      dup3\n      add\n      swap2\n      swap1\n      0x00\n      mstore\n      keccak256(0x00, 0x20)\n      swap1\n    tag_91:\n      dup2\n      sload\n      dup2\n      mstore\n      swap1\n      0x01\n      add\n      swap1\n      0x20\n      add\n      dup1\n      dup4\n      gt\n      tag_91\n      jumpi\n      dup3\n      swap1\n      sub\n      0x1f\n      and\n      dup3\n      add\n      swap2\n    tag_89:\n      pop\n      pop\n      pop\n      pop\n      pop\n      dup2\n      mstore\n      0x20\n      add\n      0x03\n      dup3\n      add\n      dup1\n      sload\n      tag_92\n      swap1\n      tag_82\n      jump\t// in\n    tag_92:\n      dup1\n      0x1f\n      add\n      0x20\n      dup1\n      swap2\n      div\n      mul\n      0x20\n      add\n      mload(0x40)\n      swap1\n      dup2\n      add\n      0x40\n      mstore\n      dup1\n      swap3\n      swap2\n      swap1\n      dup2\n      dup2\n      mstore\n      0x20\n      add\n      dup3\n      dup1\n      sload\n      tag_93\n      swap1\n      tag_82\n      jump\t// in\n    tag_93:\n      dup1\n      iszero\n      tag_94\n      jumpi\n      dup1\n      0x1f\n      lt\n      tag_95\n      jumpi\n      0x0100\n      dup1\n      dup4\n      sload\n      div\n      mul\n      dup4\n      mstore\n      swap2\n      0x20\n      add\n      swap2\n      jump(tag_94)\n    tag_95:\n      dup3\n      add\n      swap2\n      swap1\n      0x00\n      mstore\n      keccak256(0x00, 0x20)\n      swap1\n    tag_96:\n      dup2\n      sload\n      dup2\n      mstore\n      swap1\n      0x01\n      add\n      swap1\n      0x20\n      add\n      dup1\n      dup4\n      gt\n      tag_96\n      jumpi\n      dup3\n      swap1\n      sub\n      0x1f\n      and\n      dup3\n      add\n      swap2\n    tag_94:\n      pop\n      pop\n      pop\n      pop\n      pop\n      dup2\n      mstore\n      0x20\n      add\n      0x04\n      dup3\n      add\n      dup1\n      sload\n      tag_97\n      swap1\n      tag_82\n      jump\t// in\n    tag_97:\n      dup1\n      0x1f\n      add\n      0x20\n      dup1\n      swap2\n      div\n      mul\n      0x20\n      add\n      mload(0x40)\n      swap1\n      dup2\n      add\n      0x40\n      mstore\n      dup1\n      swap3\n      swap2\n      swap1\n      dup2\n      dup2\n      mstore\n      0x20\n      add\n      dup3\n      dup1\n      sload\n      tag_98\n      swap1\n      tag_82\n      jump\t// in\n    tag_98:\n      dup1\n      iszero\n      tag_99\n      jumpi\n      dup1\n      0x1f\n      lt\n      tag_100\n      jumpi\n      0x0100\n      dup1\n      dup4\n      sload\n      div\n      mul\n      dup4\n      mstore\n      swap2\n      0x20\n      add\n      swap2\n      jump(tag_99)\n    tag_100:\n      dup3\n      add\n      swap2\n      swap1\n      0x00\n      mstore\n      keccak256(0x00, 0x20)\n      swap1\n    tag_101:\n      dup2\n      sload\n      dup2\n      mstore\n      swap1\n      0x01\n      add\n      swap1\n      0x20\n      add\n      dup1\n      dup4\n      gt\n      tag_101\n      jumpi\n      dup3\n      swap1\n      sub\n      0x1f\n      and\n      dup3\n      add\n      swap2\n    tag_99:\n      pop\n      pop\n      pop\n      pop\n      pop\n      dup2\n      mstore\n      0x20\n      add\n      0x05\n      dup3\n      add\n      0x00\n      swap1\n      sload\n      swap1\n      0x0100\n      exp\n      swap1\n      div\n      0xffffffffffffffffffffffffffffffffffffffff\n      and\n      0xffffffffffffffffffffffffffffffffffffffff\n      and\n      0xffffffffffffffffffffffffffffffffffffffff\n      and\n      dup2\n      mstore\n      0x20\n      add\n      0x05\n      dup3\n      add\n      0x14\n      swap1\n      sload\n      swap1\n      0x0100\n      exp\n      swap1\n      div\n      0xff\n      and\n      iszero\n      iszero\n      iszero\n      iszero\n      dup2\n      mstore\n      0x20\n      add\n      0x05\n      dup3\n      add\n      0x15\n      swap1\n      sload\n      swap1\n      0x0100\n      exp\n      swap1\n      div\n      0xff\n      and\n      0x01\n      dup2\n      gt\n      iszero\n      tag_102\n      jumpi\n      tag_103\n      tag_71\n      jump\t// in\n    tag_103:\n    tag_102:\n      0x01\n      dup2\n      gt\n      iszero\n      tag_104\n      jumpi\n      tag_105\n      tag_71\n      jump\t// in\n    tag_105:\n    tag_104:\n      dup2\n      mstore\n      0x20\n      add\n      0x06\n      dup3\n      add\n      dup1\n      sload\n      dup1\n      0x20\n      mul\n      0x20\n      add\n      mload(0x40)\n      swap1\n      dup2\n      add\n      0x40\n      mstore\n      dup1\n      swap3\n      swap2\n      swap1\n      dup2\n      dup2\n      mstore\n      0x20\n      add\n      dup3\n      dup1\n      sload\n      dup1\n      iszero\n      tag_106\n      jumpi\n      0x20\n      mul\n      dup3\n      add\n      swap2\n      swap1\n      0x00\n      mstore\n      keccak256(0x00, 0x20)\n      swap1\n    tag_107:\n      dup2\n      sload\n      dup2\n      mstore\n      0x20\n      add\n      swap1\n      0x01\n      add\n      swap1\n      dup1\n      dup4\n      gt\n      tag_107\n      jumpi\n    tag_106:\n      pop\n      pop\n      pop\n      pop\n      pop\n      dup2\n      mstore\n      pop\n      pop\n      swap1\n      pop\n        /* \"soljobs.sol\":3928:3935  creator */\n      dup1\n        /* \"soljobs.sol\":3914:3917  job */\n      dup3\n        /* \"soljobs.sol\":3914:3925  job.creator */\n      0x04\n      add\n        /* \"soljobs.sol\":3914:3935  job.creator = creator */\n      0x00\n      dup3\n      add\n      mload\n      dup2\n      0x00\n      add\n      sstore\n      0x20\n      dup3\n      add\n      mload\n      dup2\n      0x01\n      add\n      swap1\n      dup2\n      tag_108\n      swap2\n      swap1\n      tag_109\n      jump\t// in\n    tag_108:\n      pop\n      0x40\n      dup3\n      add\n      mload\n      dup2\n      0x02\n      add\n      swap1\n      dup2\n      tag_110\n      swap2\n      swap1\n      tag_109\n      jump\t// in\n    tag_110:\n      pop\n      0x60\n      dup3\n      add\n      mload\n      dup2\n      0x03\n      add\n      swap1\n      dup2\n      tag_111\n      swap2\n      swap1\n      tag_109\n      jump\t// in\n    tag_111:\n      pop\n      0x80\n      dup3\n      add\n      mload\n      dup2\n      0x04\n      add\n      swap1\n      dup2\n      tag_112\n      swap2\n      swap1\n      tag_109\n      jump\t// in\n    tag_112:\n      pop\n      0xa0\n      dup3\n      add\n      mload\n      dup2\n      0x05\n      add\n      exp(0x0100, 0x00)\n      dup2\n      sload\n      dup2\n      0xffffffffffffffffffffffffffffffffffffffff\n      mul\n      not\n      and\n      swap1\n      dup4\n      0xffffffffffffffffffffffffffffffffffffffff\n      and\n      mul\n      or\n      swap1\n      sstore\n      pop\n      0xc0\n      dup3\n      add\n      mload\n      dup2\n      0x05\n      add\n      exp(0x0100, 0x14)\n      dup2\n      sload\n      dup2\n      0xff\n      mul\n      not\n      and\n      swap1\n      dup4\n      iszero\n      iszero\n      mul\n      or\n      swap1\n      sstore\n      pop\n      0xe0\n      dup3\n      add\n      mload\n      dup2\n      0x05\n      add\n      exp(0x0100, 0x15)\n      dup2\n      sload\n      dup2\n      0xff\n      mul\n      not\n      and\n      swap1\n      dup4\n      0x01\n      dup2\n      gt\n      iszero\n      tag_113\n      jumpi\n      tag_114\n      tag_71\n      jump\t// in\n    tag_114:\n    tag_113:\n      mul\n      or\n      swap1\n      sstore\n      pop\n      0x0100\n      dup3\n      add\n      mload\n      dup2\n      0x06\n      add\n      swap1\n      dup1\n      mload\n      swap1\n      0x20\n      add\n      swap1\n      tag_115\n      swap3\n      swap2\n      swap1\n      tag_116\n      jump\t// in\n    tag_115:\n      pop\n      swap1\n      pop\n      pop\n        /* \"soljobs.sol\":3961:3978  JobCreated(jobID) */\n      0x92447c6ecd808d390fb352da0dc90a05275b074c43bf302132a27fabafa6872b\n        /* \"soljobs.sol\":3972:3977  jobID */\n      dup4\n        /* \"soljobs.sol\":3961:3978  JobCreated(jobID) */\n      mload(0x40)\n      tag_117\n      swap2\n      swap1\n      tag_73\n      jump\t// in\n    tag_117:\n      mload(0x40)\n      dup1\n      swap2\n      sub\n      swap1\n      log1\n        /* \"soljobs.sol\":3602:3985  {... */\n      pop\n      pop\n      pop\n        /* \"soljobs.sol\":3432:3985  function createJobOffer(... */\n      pop\n      pop\n      pop\n      pop\n      pop\n      pop\n      jump\t// out\n        /* \"soljobs.sol\":819:874  mapping (uint => JobApplication) public jobApplications */\n    tag_23:\n      mstore(0x20, 0x0c)\n      dup1\n      0x00\n      mstore\n      keccak256(0x00, 0x40)\n      0x00\n      swap2\n      pop\n      swap1\n      pop\n      dup1\n      0x00\n      add\n      sload\n      swap1\n      dup1\n      0x01\n      add\n      sload\n      swap1\n      dup1\n      0x02\n      add\n      dup1\n      sload\n      tag_118\n      swap1\n      tag_82\n      jump\t// in\n    tag_118:\n      dup1\n      0x1f\n      add\n      0x20\n      dup1\n      swap2\n      div\n      mul\n      0x20\n      add\n      mload(0x40)\n      swap1\n      dup2\n      add\n      0x40\n      mstore\n      dup1\n      swap3\n      swap2\n      swap1\n      dup2\n      dup2\n      mstore\n      0x20\n      add\n      dup3\n      dup1\n      sload\n      tag_119\n      swap1\n      tag_82\n      jump\t// in\n    tag_119:\n      dup1\n      iszero\n      tag_120\n      jumpi\n      dup1\n      0x1f\n      lt\n      tag_121\n      jumpi\n      0x0100\n      dup1\n      dup4\n      sload\n      div\n      mul\n      dup4\n      mstore\n      swap2\n      0x20\n      add\n      swap2\n      jump(tag_120)\n    tag_121:\n      dup3\n      add\n      swap2\n      swap1\n      0x00\n      mstore\n      keccak256(0x00, 0x20)\n      swap1\n    tag_122:\n      dup2\n      sload\n      dup2\n      mstore\n      swap1\n      0x01\n      add\n      swap1\n      0x20\n      add\n      dup1\n      dup4\n      gt\n      tag_122\n      jumpi\n      dup3\n      swap1\n      sub\n      0x1f\n      and\n      dup3\n      add\n      swap2\n    tag_120:\n      pop\n      pop\n      pop\n      pop\n      pop\n      swap1\n      dup1\n      0x03\n      add\n      mload(0x40)\n      dup1\n      0x0100\n      add\n      0x40\n      mstore\n      swap1\n      dup2\n      0x00\n      dup3\n      add\n      sload\n      dup2\n      mstore\n      0x20\n      add\n      0x01\n      dup3\n      add\n      0x00\n      swap1\n      sload\n      swap1\n      0x0100\n      exp\n      swap1\n      div\n      0xffffffffffffffffffffffffffffffffffffffff\n      and\n      0xffffffffffffffffffffffffffffffffffffffff\n      and\n      0xffffffffffffffffffffffffffffffffffffffff\n      and\n      dup2\n      mstore\n      0x20\n      add\n      0x02\n      dup3\n      add\n      dup1\n      sload\n      tag_123\n      swap1\n      tag_82\n      jump\t// in\n    tag_123:\n      dup1\n      0x1f\n      add\n      0x20\n      dup1\n      swap2\n      div\n      mul\n      0x20\n      add\n      mload(0x40)\n      swap1\n      dup2\n      add\n      0x40\n      mstore\n      dup1\n      swap3\n      swap2\n      swap1\n      dup2\n      dup2\n      mstore\n      0x20\n      add\n      dup3\n      dup1\n      sload\n      tag_124\n      swap1\n      tag_82\n      jump\t// in\n    tag_124:\n      dup1\n      iszero\n      tag_125\n      jumpi\n      dup1\n      0x1f\n      lt\n      tag_126\n      jumpi\n      0x0100\n      dup1\n      dup4\n      sload\n      div\n      mul\n      dup4\n      mstore\n      swap2\n      0x20\n      add\n      swap2\n      jump(tag_125)\n    tag_126:\n      dup3\n      add\n      swap2\n      swap1\n      0x00\n      mstore\n      keccak256(0x00, 0x20)\n      swap1\n    tag_127:\n      dup2\n      sload\n      dup2\n      mstore\n      swap1\n      0x01\n      add\n      swap1\n      0x20\n      add\n      dup1\n      dup4\n      gt\n      tag_127\n      jumpi\n      dup3\n      swap1\n      sub\n      0x1f\n      and\n      dup3\n      add\n      swap2\n    tag_125:\n      pop\n      pop\n      pop\n      pop\n      pop\n      dup2\n      mstore\n      0x20\n      add\n      0x03\n      dup3\n      add\n      dup1\n      sload\n      tag_128\n      swap1\n      tag_82\n      jump\t// in\n    tag_128:\n      dup1\n      0x1f\n      add\n      0x20\n      dup1\n      swap2\n      div\n      mul\n      0x20\n      add\n      mload(0x40)\n      swap1\n      dup2\n      add\n      0x40\n      mstore\n      dup1\n      swap3\n      swap2\n      swap1\n      dup2\n      dup2\n      mstore\n      0x20\n      add\n      dup3\n      dup1\n      sload\n      tag_129\n      swap1\n      tag_82\n      jump\t// in\n    tag_129:\n      dup1\n      iszero\n      tag_130\n      jumpi\n      dup1\n      0x1f\n      lt\n      tag_131\n      jumpi\n      0x0100\n      dup1\n      dup4\n      sload\n      div\n      mul\n      dup4\n      mstore\n      swap2\n      0x20\n      add\n      swap2\n      jump(tag_130)\n    tag_131:\n      dup3\n      add\n      swap2\n      swap1\n      0x00\n      mstore\n      keccak256(0x00, 0x20)\n      swap1\n    tag_132:\n      dup2\n      sload\n      dup2\n      mstore\n      swap1\n      0x01\n      add\n      swap1\n      0x20\n      add\n      dup1\n      dup4\n      gt\n      tag_132\n      jumpi\n      dup3\n      swap1\n      sub\n      0x1f\n      and\n      dup3\n      add\n      swap2\n    tag_130:\n      pop\n      pop\n      pop\n      pop\n      pop\n      dup2\n      mstore\n      0x20\n      add\n      0x04\n      dup3\n      add\n      dup1\n      sload\n      tag_133\n      swap1\n      tag_82\n      jump\t// in\n    tag_133:\n      dup1\n      0x1f\n      add\n      0x20\n      dup1\n      swap2\n      div\n      mul\n      0x20\n      add\n      mload(0x40)\n      swap1\n      dup2\n      add\n      0x40\n      mstore\n      dup1\n      swap3\n      swap2\n      swap1\n      dup2\n      dup2\n      mstore\n      0x20\n      add\n      dup3\n      dup1\n      sload\n      tag_134\n      swap1\n      tag_82\n      jump\t// in\n    tag_134:\n      dup1\n      iszero\n      tag_135\n      jumpi\n      dup1\n      0x1f\n      lt\n      tag_136\n      jumpi\n      0x0100\n      dup1\n      dup4\n      sload\n      div\n      mul\n      dup4\n      mstore\n      swap2\n      0x20\n      add\n      swap2\n      jump(tag_135)\n    tag_136:\n      dup3\n      add\n      swap2\n      swap1\n      0x00\n      mstore\n      keccak256(0x00, 0x20)\n      swap1\n    tag_137:\n      dup2\n      sload\n      dup2\n      mstore\n      swap1\n      0x01\n      add\n      swap1\n      0x20\n      add\n      dup1\n      dup4\n      gt\n      tag_137\n      jumpi\n      dup3\n      swap1\n      sub\n      0x1f\n      and\n      dup3\n      add\n      swap2\n    tag_135:\n      pop\n      pop\n      pop\n      pop\n      pop\n      dup2\n      mstore\n      0x20\n      add\n      0x05\n      dup3\n      add\n      dup1\n      sload\n      tag_138\n      swap1\n      tag_82\n      jump\t// in\n    tag_138:\n      dup1\n      0x1f\n      add\n      0x20\n      dup1\n      swap2\n      div\n      mul\n      0x20\n      add\n      mload(0x40)\n      swap1\n      dup2\n      add\n      0x40\n      mstore\n      dup1\n      swap3\n      swap2\n      swap1\n      dup2\n      dup2\n      mstore\n      0x20\n      add\n      dup3\n      dup1\n      sload\n      tag_139\n      swap1\n      tag_82\n      jump\t// in\n    tag_139:\n      dup1\n      iszero\n      tag_140\n      jumpi\n      dup1\n      0x1f\n      lt\n      tag_141\n      jumpi\n      0x0100\n      dup1\n      dup4\n      sload\n      div\n      mul\n      dup4\n      mstore\n      swap2\n      0x20\n      add\n      swap2\n      jump(tag_140)\n    tag_141:\n      dup3\n      add\n      swap2\n      swap1\n      0x00\n      mstore\n      keccak256(0x00, 0x20)\n      swap1\n    tag_142:\n      dup2\n      sload\n      dup2\n      mstore\n      swap1\n      0x01\n      add\n      swap1\n      0x20\n      add\n      dup1\n      dup4\n      gt\n      tag_142\n      jumpi\n      dup3\n      swap1\n      sub\n      0x1f\n      and\n      dup3\n      add\n      swap2\n    tag_140:\n      pop\n      pop\n      pop\n      pop\n      pop\n      dup2\n      mstore\n      0x20\n      add\n      0x06\n      dup3\n      add\n      0x00\n      swap1\n      sload\n      swap1\n      0x0100\n      exp\n      swap1\n      div\n      0xff\n      and\n      0x01\n      dup2\n      gt\n      iszero\n      tag_143\n      jumpi\n      tag_144\n      tag_71\n      jump\t// in\n    tag_144:\n    tag_143:\n      0x01\n      dup2\n      gt\n      iszero\n      tag_145\n      jumpi\n      tag_146\n      tag_71\n      jump\t// in\n    tag_146:\n    tag_145:\n      dup2\n      mstore\n      0x20\n      add\n      0x07\n      dup3\n      add\n      dup1\n      sload\n      dup1\n      0x20\n      mul\n      0x20\n      add\n      mload(0x40)\n      swap1\n      dup2\n      add\n      0x40\n      mstore\n      dup1\n      swap3\n      swap2\n      swap1\n      dup2\n      dup2\n      mstore\n      0x20\n      add\n      dup3\n      dup1\n      sload\n      dup1\n      iszero\n      tag_147\n      jumpi\n      0x20\n      mul\n      dup3\n      add\n      swap2\n      swap1\n      0x00\n      mstore\n      keccak256(0x00, 0x20)\n      swap1\n    tag_148:\n      dup2\n      sload\n      dup2\n      mstore\n      0x20\n      add\n      swap1\n      0x01\n      add\n      swap1\n      dup1\n      dup4\n      gt\n      tag_148\n      jumpi\n    tag_147:\n      pop\n      pop\n      pop\n      pop\n      pop\n      dup2\n      mstore\n      pop\n      pop\n      swap1\n      dup1\n      0x0b\n      add\n      0x00\n      swap1\n      sload\n      swap1\n      0x0100\n      exp\n      swap1\n      div\n      0xff\n      and\n      swap1\n      pop\n      dup6\n      jump\t// out\n        /* \"soljobs.sol\":2602:3426  function createApplicantProfile(... */\n    tag_28:\n        /* \"soljobs.sol\":2797:2803  _email */\n      dup6\n      dup6\n        /* \"soljobs.sol\":1032:1037  false */\n      0x00\n        /* \"soljobs.sol\":1007:1037  creatorEmails[_email] == false */\n      iszero\n      iszero\n        /* \"soljobs.sol\":1007:1020  creatorEmails */\n      0x05\n        /* \"soljobs.sol\":1021:1027  _email */\n      dup4\n      dup4\n        /* \"soljobs.sol\":1007:1028  creatorEmails[_email] */\n      mload(0x40)\n      tag_150\n      swap3\n      swap2\n      swap1\n      tag_51\n      jump\t// in\n    tag_150:\n      swap1\n      dup2\n      mstore\n      0x20\n      add\n      mload(0x40)\n      dup1\n      swap2\n      sub\n      swap1\n      keccak256\n      0x00\n      swap1\n      sload\n      swap1\n      0x0100\n      exp\n      swap1\n      div\n      0xff\n      and\n        /* \"soljobs.sol\":1007:1037  creatorEmails[_email] == false */\n      iszero\n      iszero\n      eq\n        /* \"soljobs.sol\":1007:1073  creatorEmails[_email] == false && applicantEmails[_email] == false */\n      dup1\n      iszero\n      tag_151\n      jumpi\n      pop\n        /* \"soljobs.sol\":1068:1073  false */\n      0x00\n        /* \"soljobs.sol\":1041:1073  applicantEmails[_email] == false */\n      iszero\n      iszero\n        /* \"soljobs.sol\":1041:1056  applicantEmails */\n      0x06\n        /* \"soljobs.sol\":1057:1063  _email */\n      dup4\n      dup4\n        /* \"soljobs.sol\":1041:1064  applicantEmails[_email] */\n      mload(0x40)\n      tag_152\n      swap3\n      swap2\n      swap1\n      tag_51\n      jump\t// in\n    tag_152:\n      swap1\n      dup2\n      mstore\n      0x20\n      add\n      mload(0x40)\n      dup1\n      swap2\n      sub\n      swap1\n      keccak256\n      0x00\n      swap1\n      sload\n      swap1\n      0x0100\n      exp\n      swap1\n      div\n      0xff\n      and\n        /* \"soljobs.sol\":1041:1073  applicantEmails[_email] == false */\n      iszero\n      iszero\n      eq\n        /* \"soljobs.sol\":1007:1073  creatorEmails[_email] == false && applicantEmails[_email] == false */\n    tag_151:\n        /* \"soljobs.sol\":1075:1096  emailAlreadyExistsMsg */\n      mload(0x40)\n      dup1\n      0x40\n      add\n      0x40\n      mstore\n      dup1\n      0x15\n      dup2\n      mstore\n      0x20\n      add\n      0x456d61696c20616c726561647920657869737473210000000000000000000000\n      dup2\n      mstore\n      pop\n        /* \"soljobs.sol\":999:1097  require(creatorEmails[_email] == false && applicantEmails[_email] == false, emailAlreadyExistsMsg) */\n      swap1\n      tag_153\n      jumpi\n      mload(0x40)\n      0x08c379a000000000000000000000000000000000000000000000000000000000\n      dup2\n      mstore\n      0x04\n      add\n      tag_154\n      swap2\n      swap1\n      tag_56\n      jump\t// in\n    tag_154:\n      mload(0x40)\n      dup1\n      swap2\n      sub\n      swap1\n      revert\n    tag_153:\n      pop\n        /* \"soljobs.sol\":1147:1152  false */\n      0x00\n        /* \"soljobs.sol\":1115:1152  creatorAddresses[msg.sender] == false */\n      iszero\n      iszero\n        /* \"soljobs.sol\":1115:1131  creatorAddresses */\n      0x07\n        /* \"soljobs.sol\":1115:1143  creatorAddresses[msg.sender] */\n      0x00\n        /* \"soljobs.sol\":1132:1142  msg.sender */\n      caller\n        /* \"soljobs.sol\":1115:1143  creatorAddresses[msg.sender] */\n      0xffffffffffffffffffffffffffffffffffffffff\n      and\n      0xffffffffffffffffffffffffffffffffffffffff\n      and\n      dup2\n      mstore\n      0x20\n      add\n      swap1\n      dup2\n      mstore\n      0x20\n      add\n      0x00\n      keccak256\n      0x00\n      swap1\n      sload\n      swap1\n      0x0100\n      exp\n      swap1\n      div\n      0xff\n      and\n        /* \"soljobs.sol\":1115:1152  creatorAddresses[msg.sender] == false */\n      iszero\n      iszero\n      eq\n        /* \"soljobs.sol\":1115:1195  creatorAddresses[msg.sender] == false && applicantAddresses[msg.sender] == false */\n      dup1\n      iszero\n      tag_155\n      jumpi\n      pop\n        /* \"soljobs.sol\":1190:1195  false */\n      0x00\n        /* \"soljobs.sol\":1156:1195  applicantAddresses[msg.sender] == false */\n      iszero\n      iszero\n        /* \"soljobs.sol\":1156:1174  applicantAddresses */\n      0x08\n        /* \"soljobs.sol\":1156:1186  applicantAddresses[msg.sender] */\n      0x00\n        /* \"soljobs.sol\":1175:1185  msg.sender */\n      caller\n        /* \"soljobs.sol\":1156:1186  applicantAddresses[msg.sender] */\n      0xffffffffffffffffffffffffffffffffffffffff\n      and\n      0xffffffffffffffffffffffffffffffffffffffff\n      and\n      dup2\n      mstore\n      0x20\n      add\n      swap1\n      dup2\n      mstore\n      0x20\n      add\n      0x00\n      keccak256\n      0x00\n      swap1\n      sload\n      swap1\n      0x0100\n      exp\n      swap1\n      div\n      0xff\n      and\n        /* \"soljobs.sol\":1156:1195  applicantAddresses[msg.sender] == false */\n      iszero\n      iszero\n      eq\n        /* \"soljobs.sol\":1115:1195  creatorAddresses[msg.sender] == false && applicantAddresses[msg.sender] == false */\n    tag_155:\n        /* \"soljobs.sol\":1197:1220  addressAlreadyExistsMsg */\n      mload(0x40)\n      dup1\n      0x40\n      add\n      0x40\n      mstore\n      dup1\n      0x17\n      dup2\n      mstore\n      0x20\n      add\n      0x4164647265737320616c72656164792065786973747321000000000000000000\n      dup2\n      mstore\n      pop\n        /* \"soljobs.sol\":1107:1221  require(creatorAddresses[msg.sender] == false && applicantAddresses[msg.sender] == false, addressAlreadyExistsMsg) */\n      swap1\n      tag_156\n      jumpi\n      mload(0x40)\n      0x08c379a000000000000000000000000000000000000000000000000000000000\n      dup2\n      mstore\n      0x04\n      add\n      tag_157\n      swap2\n      swap1\n      tag_56\n      jump\t// in\n    tag_157:\n      mload(0x40)\n      dup1\n      swap2\n      sub\n      swap1\n      revert\n    tag_156:\n      pop\n        /* \"soljobs.sol\":2815:2831  uint applicantID */\n      0x00\n        /* \"soljobs.sol\":2836:2861  numberOfApplicantProfiles */\n      0x04\n      0x00\n        /* \"soljobs.sol\":2834:2861  ++numberOfApplicantProfiles */\n      dup2\n      sload\n      tag_159\n      swap1\n      tag_62\n      jump\t// in\n    tag_159:\n      swap2\n      swap1\n      pop\n      dup2\n      swap1\n      sstore\n        /* \"soljobs.sol\":2815:2861  uint applicantID = ++numberOfApplicantProfiles */\n      swap1\n      pop\n        /* \"soljobs.sol\":2872:2904  ApplicantProfile storage profile */\n      0x00\n        /* \"soljobs.sol\":2907:2924  applicantProfiles */\n      0x02\n        /* \"soljobs.sol\":2907:2936  applicantProfiles[msg.sender] */\n      0x00\n        /* \"soljobs.sol\":2925:2935  msg.sender */\n      caller\n        /* \"soljobs.sol\":2907:2936  applicantProfiles[msg.sender] */\n      0xffffffffffffffffffffffffffffffffffffffff\n      and\n      0xffffffffffffffffffffffffffffffffffffffff\n      and\n      dup2\n      mstore\n      0x20\n      add\n      swap1\n      dup2\n      mstore\n      0x20\n      add\n      0x00\n      keccak256\n        /* \"soljobs.sol\":2872:2936  ApplicantProfile storage profile = applicantProfiles[msg.sender] */\n      swap1\n      pop\n        /* \"soljobs.sol\":2959:2970  applicantID */\n      dup2\n        /* \"soljobs.sol\":2946:2953  profile */\n      dup2\n        /* \"soljobs.sol\":2946:2956  profile.id */\n      0x00\n      add\n        /* \"soljobs.sol\":2946:2970  profile.id = applicantID */\n      dup2\n      swap1\n      sstore\n      pop\n        /* \"soljobs.sol\":2999:3008  _fullname */\n      dup12\n      dup12\n        /* \"soljobs.sol\":2980:2987  profile */\n      dup3\n        /* \"soljobs.sol\":2980:2996  profile.fullname */\n      0x02\n      add\n        /* \"soljobs.sol\":2980:3008  profile.fullname = _fullname */\n      swap2\n      dup3\n      tag_160\n      swap3\n      swap2\n      swap1\n      tag_64\n      jump\t// in\n    tag_160:\n      pop\n        /* \"soljobs.sol\":3034:3040  _email */\n      dup10\n      dup10\n        /* \"soljobs.sol\":3018:3025  profile */\n      dup3\n        /* \"soljobs.sol\":3018:3031  profile.email */\n      0x03\n      add\n        /* \"soljobs.sol\":3018:3040  profile.email = _email */\n      swap2\n      dup3\n      tag_161\n      swap3\n      swap2\n      swap1\n      tag_64\n      jump\t// in\n    tag_161:\n      pop\n        /* \"soljobs.sol\":3069:3078  _location */\n      dup8\n      dup8\n        /* \"soljobs.sol\":3050:3057  profile */\n      dup3\n        /* \"soljobs.sol\":3050:3066  profile.location */\n      0x04\n      add\n        /* \"soljobs.sol\":3050:3078  profile.location = _location */\n      swap2\n      dup3\n      tag_162\n      swap3\n      swap2\n      swap1\n      tag_64\n      jump\t// in\n    tag_162:\n      pop\n        /* \"soljobs.sol\":3102:3106  _bio */\n      dup6\n      dup6\n        /* \"soljobs.sol\":3088:3095  profile */\n      dup3\n        /* \"soljobs.sol\":3088:3099  profile.bio */\n      0x05\n      add\n        /* \"soljobs.sol\":3088:3106  profile.bio = _bio */\n      swap2\n      dup3\n      tag_163\n      swap3\n      swap2\n      swap1\n      tag_64\n      jump\t// in\n    tag_163:\n      pop\n        /* \"soljobs.sol\":3195:3199  true */\n      0x01\n        /* \"soljobs.sol\":3169:3184  applicantEmails */\n      0x06\n        /* \"soljobs.sol\":3185:3191  _email */\n      dup12\n      dup12\n        /* \"soljobs.sol\":3169:3192  applicantEmails[_email] */\n      mload(0x40)\n      tag_164\n      swap3\n      swap2\n      swap1\n      tag_51\n      jump\t// in\n    tag_164:\n      swap1\n      dup2\n      mstore\n      0x20\n      add\n      mload(0x40)\n      dup1\n      swap2\n      sub\n      swap1\n      keccak256\n      0x00\n        /* \"soljobs.sol\":3169:3199  applicantEmails[_email] = true */\n      0x0100\n      exp\n      dup2\n      sload\n      dup2\n      0xff\n      mul\n      not\n      and\n      swap1\n      dup4\n      iszero\n      iszero\n      mul\n      or\n      swap1\n      sstore\n      pop\n        /* \"soljobs.sol\":3242:3246  true */\n      0x01\n        /* \"soljobs.sol\":3209:3227  applicantAddresses */\n      0x08\n        /* \"soljobs.sol\":3209:3239  applicantAddresses[msg.sender] */\n      0x00\n        /* \"soljobs.sol\":3228:3238  msg.sender */\n      caller\n        /* \"soljobs.sol\":3209:3239  applicantAddresses[msg.sender] */\n      0xffffffffffffffffffffffffffffffffffffffff\n      and\n      0xffffffffffffffffffffffffffffffffffffffff\n      and\n      dup2\n      mstore\n      0x20\n      add\n      swap1\n      dup2\n      mstore\n      0x20\n      add\n      0x00\n      keccak256\n      0x00\n        /* \"soljobs.sol\":3209:3246  applicantAddresses[msg.sender] = true */\n      0x0100\n      exp\n      dup2\n      sload\n      dup2\n      0xff\n      mul\n      not\n      and\n      swap1\n      dup4\n      iszero\n      iszero\n      mul\n      or\n      swap1\n      sstore\n      pop\n        /* \"soljobs.sol\":3299:3320  ProfileType.Applicant */\n      0x01\n        /* \"soljobs.sol\":3277:3284  profile */\n      dup2\n        /* \"soljobs.sol\":3277:3296  profile.profileType */\n      0x06\n      add\n      0x00\n        /* \"soljobs.sol\":3277:3320  profile.profileType = ProfileType.Applicant */\n      0x0100\n      exp\n      dup2\n      sload\n      dup2\n      0xff\n      mul\n      not\n      and\n      swap1\n      dup4\n      0x01\n      dup2\n      gt\n      iszero\n      tag_165\n      jumpi\n      tag_166\n      tag_71\n      jump\t// in\n    tag_166:\n    tag_165:\n      mul\n      or\n      swap1\n      sstore\n      pop\n        /* \"soljobs.sol\":3357:3367  msg.sender */\n      caller\n        /* \"soljobs.sol\":3330:3337  profile */\n      dup2\n        /* \"soljobs.sol\":3330:3354  profile.applicantAddress */\n      0x01\n      add\n      0x00\n        /* \"soljobs.sol\":3330:3367  profile.applicantAddress = msg.sender */\n      0x0100\n      exp\n      dup2\n      sload\n      dup2\n      0xffffffffffffffffffffffffffffffffffffffff\n      mul\n      not\n      and\n      swap1\n      dup4\n      0xffffffffffffffffffffffffffffffffffffffff\n      and\n      mul\n      or\n      swap1\n      sstore\n      pop\n        /* \"soljobs.sol\":3383:3419  ApplicantProfileCreated(applicantID) */\n      0x7a7674d49ab4ac57338891a3e15ebdbe5e6abbb1637fc6c5cfa506e2fa360ad0\n        /* \"soljobs.sol\":3407:3418  applicantID */\n      dup3\n        /* \"soljobs.sol\":3383:3419  ApplicantProfileCreated(applicantID) */\n      mload(0x40)\n      tag_167\n      swap2\n      swap1\n      tag_73\n      jump\t// in\n    tag_167:\n      mload(0x40)\n      dup1\n      swap2\n      sub\n      swap1\n      log1\n        /* \"soljobs.sol\":2805:3426  {... */\n      pop\n      pop\n        /* \"soljobs.sol\":2602:3426  function createApplicantProfile(... */\n      pop\n      pop\n      pop\n      pop\n      pop\n      pop\n      pop\n      pop\n      pop\n      pop\n      jump\t// out\n        /* \"soljobs.sol\":328:390  mapping (address => ApplicantProfile) public applicantProfiles */\n    tag_32:\n      mstore(0x20, 0x02)\n      dup1\n      0x00\n      mstore\n      keccak256(0x00, 0x40)\n      0x00\n      swap2\n      pop\n      swap1\n      pop\n      dup1\n      0x00\n      add\n      sload\n      swap1\n      dup1\n      0x01\n      add\n      0x00\n      swap1\n      sload\n      swap1\n      0x0100\n      exp\n      swap1\n      div\n      0xffffffffffffffffffffffffffffffffffffffff\n      and\n      swap1\n      dup1\n      0x02\n      add\n      dup1\n      sload\n      tag_168\n      swap1\n      tag_82\n      jump\t// in\n    tag_168:\n      dup1\n      0x1f\n      add\n      0x20\n      dup1\n      swap2\n      div\n      mul\n      0x20\n      add\n      mload(0x40)\n      swap1\n      dup2\n      add\n      0x40\n      mstore\n      dup1\n      swap3\n      swap2\n      swap1\n      dup2\n      dup2\n      mstore\n      0x20\n      add\n      dup3\n      dup1\n      sload\n      tag_169\n      swap1\n      tag_82\n      jump\t// in\n    tag_169:\n      dup1\n      iszero\n      tag_170\n      jumpi\n      dup1\n      0x1f\n      lt\n      tag_171\n      jumpi\n      0x0100\n      dup1\n      dup4\n      sload\n      div\n      mul\n      dup4\n      mstore\n      swap2\n      0x20\n      add\n      swap2\n      jump(tag_170)\n    tag_171:\n      dup3\n      add\n      swap2\n      swap1\n      0x00\n      mstore\n      keccak256(0x00, 0x20)\n      swap1\n    tag_172:\n      dup2\n      sload\n      dup2\n      mstore\n      swap1\n      0x01\n      add\n      swap1\n      0x20\n      add\n      dup1\n      dup4\n      gt\n      tag_172\n      jumpi\n      dup3\n      swap1\n      sub\n      0x1f\n      and\n      dup3\n      add\n      swap2\n    tag_170:\n      pop\n      pop\n      pop\n      pop\n      pop\n      swap1\n      dup1\n      0x03\n      add\n      dup1\n      sload\n      tag_173\n      swap1\n      tag_82\n      jump\t// in\n    tag_173:\n      dup1\n      0x1f\n      add\n      0x20\n      dup1\n      swap2\n      div\n      mul\n      0x20\n      add\n      mload(0x40)\n      swap1\n      dup2\n      add\n      0x40\n      mstore\n      dup1\n      swap3\n      swap2\n      swap1\n      dup2\n      dup2\n      mstore\n      0x20\n      add\n      dup3\n      dup1\n      sload\n      tag_174\n      swap1\n      tag_82\n      jump\t// in\n    tag_174:\n      dup1\n      iszero\n      tag_175\n      jumpi\n      dup1\n      0x1f\n      lt\n      tag_176\n      jumpi\n      0x0100\n      dup1\n      dup4\n      sload\n      div\n      mul\n      dup4\n      mstore\n      swap2\n      0x20\n      add\n      swap2\n      jump(tag_175)\n    tag_176:\n      dup3\n      add\n      swap2\n      swap1\n      0x00\n      mstore\n      keccak256(0x00, 0x20)\n      swap1\n    tag_177:\n      dup2\n      sload\n      dup2\n      mstore\n      swap1\n      0x01\n      add\n      swap1\n      0x20\n      add\n      dup1\n      dup4\n      gt\n      tag_177\n      jumpi\n      dup3\n      swap1\n      sub\n      0x1f\n      and\n      dup3\n      add\n      swap2\n    tag_175:\n      pop\n      pop\n      pop\n      pop\n      pop\n      swap1\n      dup1\n      0x04\n      add\n      dup1\n      sload\n      tag_178\n      swap1\n      tag_82\n      jump\t// in\n    tag_178:\n      dup1\n      0x1f\n      add\n      0x20\n      dup1\n      swap2\n      div\n      mul\n      0x20\n      add\n      mload(0x40)\n      swap1\n      dup2\n      add\n      0x40\n      mstore\n      dup1\n      swap3\n      swap2\n      swap1\n      dup2\n      dup2\n      mstore\n      0x20\n      add\n      dup3\n      dup1\n      sload\n      tag_179\n      swap1\n      tag_82\n      jump\t// in\n    tag_179:\n      dup1\n      iszero\n      tag_180\n      jumpi\n      dup1\n      0x1f\n      lt\n      tag_181\n      jumpi\n      0x0100\n      dup1\n      dup4\n      sload\n      div\n      mul\n      dup4\n      mstore\n      swap2\n      0x20\n      add\n      swap2\n      jump(tag_180)\n    tag_181:\n      dup3\n      add\n      swap2\n      swap1\n      0x00\n      mstore\n      keccak256(0x00, 0x20)\n      swap1\n    tag_182:\n      dup2\n      sload\n      dup2\n      mstore\n      swap1\n      0x01\n      add\n      swap1\n      0x20\n      add\n      dup1\n      dup4\n      gt\n      tag_182\n      jumpi\n      dup3\n      swap1\n      sub\n      0x1f\n      and\n      dup3\n      add\n      swap2\n    tag_180:\n      pop\n      pop\n      pop\n      pop\n      pop\n      swap1\n      dup1\n      0x05\n      add\n      dup1\n      sload\n      tag_183\n      swap1\n      tag_82\n      jump\t// in\n    tag_183:\n      dup1\n      0x1f\n      add\n      0x20\n      dup1\n      swap2\n      div\n      mul\n      0x20\n      add\n      mload(0x40)\n      swap1\n      dup2\n      add\n      0x40\n      mstore\n      dup1\n      swap3\n      swap2\n      swap1\n      dup2\n      dup2\n      mstore\n      0x20\n      add\n      dup3\n      dup1\n      sload\n      tag_184\n      swap1\n      tag_82\n      jump\t// in\n    tag_184:\n      dup1\n      iszero\n      tag_185\n      jumpi\n      dup1\n      0x1f\n      lt\n      tag_186\n      jumpi\n      0x0100\n      dup1\n      dup4\n      sload\n      div\n      mul\n      dup4\n      mstore\n      swap2\n      0x20\n      add\n      swap2\n      jump(tag_185)\n    tag_186:\n      dup3\n      add\n      swap2\n      swap1\n      0x00\n      mstore\n      keccak256(0x00, 0x20)\n      swap1\n    tag_187:\n      dup2\n      sload\n      dup2\n      mstore\n      swap1\n      0x01\n      add\n      swap1\n      0x20\n      add\n      dup1\n      dup4\n      gt\n      tag_187\n      jumpi\n      dup3\n      swap1\n      sub\n      0x1f\n      and\n      dup3\n      add\n      swap2\n    tag_185:\n      pop\n      pop\n      pop\n      pop\n      pop\n      swap1\n      dup1\n      0x06\n      add\n      0x00\n      swap1\n      sload\n      swap1\n      0x0100\n      exp\n      swap1\n      div\n      0xff\n      and\n      swap1\n      pop\n      dup8\n      jump\t// out\n        /* \"soljobs.sol\":263:321  mapping (address => CreatorProfile) public creatorProfiles */\n    tag_37:\n      mstore(0x20, 0x01)\n      dup1\n      0x00\n      mstore\n      keccak256(0x00, 0x40)\n      0x00\n      swap2\n      pop\n      swap1\n      pop\n      dup1\n      0x00\n      add\n      sload\n      swap1\n      dup1\n      0x01\n      add\n      dup1\n      sload\n      tag_188\n      swap1\n      tag_82\n      jump\t// in\n    tag_188:\n      dup1\n      0x1f\n      add\n      0x20\n      dup1\n      swap2\n      div\n      mul\n      0x20\n      add\n      mload(0x40)\n      swap1\n      dup2\n      add\n      0x40\n      mstore\n      dup1\n      swap3\n      swap2\n      swap1\n      dup2\n      dup2\n      mstore\n      0x20\n      add\n      dup3\n      dup1\n      sload\n      tag_189\n      swap1\n      tag_82\n      jump\t// in\n    tag_189:\n      dup1\n      iszero\n      tag_190\n      jumpi\n      dup1\n      0x1f\n      lt\n      tag_191\n      jumpi\n      0x0100\n      dup1\n      dup4\n      sload\n      div\n      mul\n      dup4\n      mstore\n      swap2\n      0x20\n      add\n      swap2\n      jump(tag_190)\n    tag_191:\n      dup3\n      add\n      swap2\n      swap1\n      0x00\n      mstore\n      keccak256(0x00, 0x20)\n      swap1\n    tag_192:\n      dup2\n      sload\n      dup2\n      mstore\n      swap1\n      0x01\n      add\n      swap1\n      0x20\n      add\n      dup1\n      dup4\n      gt\n      tag_192\n      jumpi\n      dup3\n      swap1\n      sub\n      0x1f\n      and\n      dup3\n      add\n      swap2\n    tag_190:\n      pop\n      pop\n      pop\n      pop\n      pop\n      swap1\n      dup1\n      0x02\n      add\n      dup1\n      sload\n      tag_193\n      swap1\n      tag_82\n      jump\t// in\n    tag_193:\n      dup1\n      0x1f\n      add\n      0x20\n      dup1\n      swap2\n      div\n      mul\n      0x20\n      add\n      mload(0x40)\n      swap1\n      dup2\n      add\n      0x40\n      mstore\n      dup1\n      swap3\n      swap2\n      swap1\n      dup2\n      dup2\n      mstore\n      0x20\n      add\n      dup3\n      dup1\n      sload\n      tag_194\n      swap1\n      tag_82\n      jump\t// in\n    tag_194:\n      dup1\n      iszero\n      tag_195\n      jumpi\n      dup1\n      0x1f\n      lt\n      tag_196\n      jumpi\n      0x0100\n      dup1\n      dup4\n      sload\n      div\n      mul\n      dup4\n      mstore\n      swap2\n      0x20\n      add\n      swap2\n      jump(tag_195)\n    tag_196:\n      dup3\n      add\n      swap2\n      swap1\n      0x00\n      mstore\n      keccak256(0x00, 0x20)\n      swap1\n    tag_197:\n      dup2\n      sload\n      dup2\n      mstore\n      swap1\n      0x01\n      add\n      swap1\n      0x20\n      add\n      dup1\n      dup4\n      gt\n      tag_197\n      jumpi\n      dup3\n      swap1\n      sub\n      0x1f\n      and\n      dup3\n      add\n      swap2\n    tag_195:\n      pop\n      pop\n      pop\n      pop\n      pop\n      swap1\n      dup1\n      0x03\n      add\n      dup1\n      sload\n      tag_198\n      swap1\n      tag_82\n      jump\t// in\n    tag_198:\n      dup1\n      0x1f\n      add\n      0x20\n      dup1\n      swap2\n      div\n      mul\n      0x20\n      add\n      mload(0x40)\n      swap1\n      dup2\n      add\n      0x40\n      mstore\n      dup1\n      swap3\n      swap2\n      swap1\n      dup2\n      dup2\n      mstore\n      0x20\n      add\n      dup3\n      dup1\n      sload\n      tag_199\n      swap1\n      tag_82\n      jump\t// in\n    tag_199:\n      dup1\n      iszero\n      tag_200\n      jumpi\n      dup1\n      0x1f\n      lt\n      tag_201\n      jumpi\n      0x0100\n      dup1\n      dup4\n      sload\n      div\n      mul\n      dup4\n      mstore\n      swap2\n      0x20\n      add\n      swap2\n      jump(tag_200)\n    tag_201:\n      dup3\n      add\n      swap2\n      swap1\n      0x00\n      mstore\n      keccak256(0x00, 0x20)\n      swap1\n    tag_202:\n      dup2\n      sload\n      dup2\n      mstore\n      swap1\n      0x01\n      add\n      swap1\n      0x20\n      add\n      dup1\n      dup4\n      gt\n      tag_202\n      jumpi\n      dup3\n      swap1\n      sub\n      0x1f\n      and\n      dup3\n      add\n      swap2\n    tag_200:\n      pop\n      pop\n      pop\n      pop\n      pop\n      swap1\n      dup1\n      0x04\n      add\n      dup1\n      sload\n      tag_203\n      swap1\n      tag_82\n      jump\t// in\n    tag_203:\n      dup1\n      0x1f\n      add\n      0x20\n      dup1\n      swap2\n      div\n      mul\n      0x20\n      add\n      mload(0x40)\n      swap1\n      dup2\n      add\n      0x40\n      mstore\n      dup1\n      swap3\n      swap2\n      swap1\n      dup2\n      dup2\n      mstore\n      0x20\n      add\n      dup3\n      dup1\n      sload\n      tag_204\n      swap1\n      tag_82\n      jump\t// in\n    tag_204:\n      dup1\n      iszero\n      tag_205\n      jumpi\n      dup1\n      0x1f\n      lt\n      tag_206\n      jumpi\n      0x0100\n      dup1\n      dup4\n      sload\n      div\n      mul\n      dup4\n      mstore\n      swap2\n      0x20\n      add\n      swap2\n      jump(tag_205)\n    tag_206:\n      dup3\n      add\n      swap2\n      swap1\n      0x00\n      mstore\n      keccak256(0x00, 0x20)\n      swap1\n    tag_207:\n      dup2\n      sload\n      dup2\n      mstore\n      swap1\n      0x01\n      add\n      swap1\n      0x20\n      add\n      dup1\n      dup4\n      gt\n      tag_207\n      jumpi\n      dup3\n      swap1\n      sub\n      0x1f\n      and\n      dup3\n      add\n      swap2\n    tag_205:\n      pop\n      pop\n      pop\n      pop\n      pop\n      swap1\n      dup1\n      0x05\n      add\n      0x00\n      swap1\n      sload\n      swap1\n      0x0100\n      exp\n      swap1\n      div\n      0xffffffffffffffffffffffffffffffffffffffff\n      and\n      swap1\n      dup1\n      0x05\n      add\n      0x14\n      swap1\n      sload\n      swap1\n      0x0100\n      exp\n      swap1\n      div\n      0xff\n      and\n      swap1\n      dup1\n      0x05\n      add\n      0x15\n      swap1\n      sload\n      swap1\n      0x0100\n      exp\n      swap1\n      div\n      0xff\n      and\n      swap1\n      pop\n      dup9\n      jump\t// out\n        /* \"soljobs.sol\":3991:4697  function applyForAJob(... */\n    tag_43:\n        /* \"soljobs.sol\":4111:4121  msg.sender */\n      caller\n        /* \"soljobs.sol\":1504:1508  true */\n      0x01\n        /* \"soljobs.sol\":1472:1508  applicantAddresses[_address] == true */\n      iszero\n      iszero\n        /* \"soljobs.sol\":1472:1490  applicantAddresses */\n      0x08\n        /* \"soljobs.sol\":1472:1500  applicantAddresses[_address] */\n      0x00\n        /* \"soljobs.sol\":1491:1499  _address */\n      dup4\n        /* \"soljobs.sol\":1472:1500  applicantAddresses[_address] */\n      0xffffffffffffffffffffffffffffffffffffffff\n      and\n      0xffffffffffffffffffffffffffffffffffffffff\n      and\n      dup2\n      mstore\n      0x20\n      add\n      swap1\n      dup2\n      mstore\n      0x20\n      add\n      0x00\n      keccak256\n      0x00\n      swap1\n      sload\n      swap1\n      0x0100\n      exp\n      swap1\n      div\n      0xff\n      and\n        /* \"soljobs.sol\":1472:1508  applicantAddresses[_address] == true */\n      iszero\n      iszero\n      eq\n        /* \"soljobs.sol\":1510:1537  callerHasNoApplicantProfile */\n      mload(0x40)\n      dup1\n      0x60\n      add\n      0x40\n      mstore\n      dup1\n      0x2d\n      dup2\n      mstore\n      0x20\n      add\n      data_9755ada8cad867ffa51d229fac4adc70eea3cdc0842b0add29f0fba8b4558158\n      0x2d\n      swap2\n      codecopy\n        /* \"soljobs.sol\":1464:1538  require(applicantAddresses[_address] == true, callerHasNoApplicantProfile) */\n      swap1\n      tag_209\n      jumpi\n      mload(0x40)\n      0x08c379a000000000000000000000000000000000000000000000000000000000\n      dup2\n      mstore\n      0x04\n      add\n      tag_210\n      swap2\n      swap1\n      tag_56\n      jump\t// in\n    tag_210:\n      mload(0x40)\n      dup1\n      swap2\n      sub\n      swap1\n      revert\n    tag_209:\n      pop\n        /* \"soljobs.sol\":4133:4151  uint applicationID */\n      0x00\n        /* \"soljobs.sol\":4156:4176  numberOfApplications */\n      0x0b\n      0x00\n        /* \"soljobs.sol\":4154:4176  ++numberOfApplications */\n      dup2\n      sload\n      tag_212\n      swap1\n      tag_62\n      jump\t// in\n    tag_212:\n      swap2\n      swap1\n      pop\n      dup2\n      swap1\n      sstore\n        /* \"soljobs.sol\":4133:4176  uint applicationID = ++numberOfApplications */\n      swap1\n      pop\n        /* \"soljobs.sol\":4187:4212  JobOffer storage jobOffer */\n      0x00\n        /* \"soljobs.sol\":4215:4224  jobOffers */\n      0x0a\n        /* \"soljobs.sol\":4215:4231  jobOffers[jobID] */\n      0x00\n        /* \"soljobs.sol\":4225:4230  jobID */\n      dup8\n        /* \"soljobs.sol\":4215:4231  jobOffers[jobID] */\n      dup2\n      mstore\n      0x20\n      add\n      swap1\n      dup2\n      mstore\n      0x20\n      add\n      0x00\n      keccak256\n        /* \"soljobs.sol\":4187:4231  JobOffer storage jobOffer = jobOffers[jobID] */\n      swap1\n      pop\n        /* \"soljobs.sol\":4242:4279  JobApplication storage jobApplication */\n      0x00\n        /* \"soljobs.sol\":4282:4297  jobApplications */\n      0x0c\n        /* \"soljobs.sol\":4282:4312  jobApplications[applicationID] */\n      0x00\n        /* \"soljobs.sol\":4298:4311  applicationID */\n      dup5\n        /* \"soljobs.sol\":4282:4312  jobApplications[applicationID] */\n      dup2\n      mstore\n      0x20\n      add\n      swap1\n      dup2\n      mstore\n      0x20\n      add\n      0x00\n      keccak256\n        /* \"soljobs.sol\":4242:4312  JobApplication storage jobApplication = jobApplications[applicationID] */\n      swap1\n      pop\n        /* \"soljobs.sol\":4342:4355  applicationID */\n      dup3\n        /* \"soljobs.sol\":4322:4336  jobApplication */\n      dup2\n        /* \"soljobs.sol\":4322:4339  jobApplication.id */\n      0x00\n      add\n        /* \"soljobs.sol\":4322:4355  jobApplication.id = applicationID */\n      dup2\n      swap1\n      sstore\n      pop\n        /* \"soljobs.sol\":4393:4398  jobID */\n      dup7\n        /* \"soljobs.sol\":4365:4379  jobApplication */\n      dup2\n        /* \"soljobs.sol\":4365:4390  jobApplication.jobOfferId */\n      0x01\n      add\n        /* \"soljobs.sol\":4365:4398  jobApplication.jobOfferId = jobID */\n      dup2\n      swap1\n      sstore\n      pop\n        /* \"soljobs.sol\":4437:4448  coverLetter */\n      dup6\n      dup6\n        /* \"soljobs.sol\":4408:4422  jobApplication */\n      dup3\n        /* \"soljobs.sol\":4408:4434  jobApplication.coverLetter */\n      0x02\n      add\n        /* \"soljobs.sol\":4408:4448  jobApplication.coverLetter = coverLetter */\n      swap2\n      dup3\n      tag_213\n      swap3\n      swap2\n      swap1\n      tag_64\n      jump\t// in\n    tag_213:\n      pop\n        /* \"soljobs.sol\":4485:4502  applicantProfiles */\n      0x02\n        /* \"soljobs.sol\":4485:4514  applicantProfiles[msg.sender] */\n      0x00\n        /* \"soljobs.sol\":4503:4513  msg.sender */\n      caller\n        /* \"soljobs.sol\":4485:4514  applicantProfiles[msg.sender] */\n      0xffffffffffffffffffffffffffffffffffffffff\n      and\n      0xffffffffffffffffffffffffffffffffffffffff\n      and\n      dup2\n      mstore\n      0x20\n      add\n      swap1\n      dup2\n      mstore\n      0x20\n      add\n      0x00\n      keccak256\n        /* \"soljobs.sol\":4458:4472  jobApplication */\n      dup2\n        /* \"soljobs.sol\":4458:4482  jobApplication.applicant */\n      0x03\n      add\n        /* \"soljobs.sol\":4458:4514  jobApplication.applicant = applicantProfiles[msg.sender] */\n      0x00\n      dup3\n      add\n      sload\n      dup2\n      0x00\n      add\n      sstore\n      0x01\n      dup3\n      add\n      0x00\n      swap1\n      sload\n      swap1\n      0x0100\n      exp\n      swap1\n      div\n      0xffffffffffffffffffffffffffffffffffffffff\n      and\n      dup2\n      0x01\n      add\n      exp(0x0100, 0x00)\n      dup2\n      sload\n      dup2\n      0xffffffffffffffffffffffffffffffffffffffff\n      mul\n      not\n      and\n      swap1\n      dup4\n      0xffffffffffffffffffffffffffffffffffffffff\n      and\n      mul\n      or\n      swap1\n      sstore\n      pop\n      0x02\n      dup3\n      add\n      dup2\n      0x02\n      add\n      swap1\n      dup2\n      tag_214\n      swap2\n      swap1\n      tag_215\n      jump\t// in\n    tag_214:\n      pop\n      0x03\n      dup3\n      add\n      dup2\n      0x03\n      add\n      swap1\n      dup2\n      tag_216\n      swap2\n      swap1\n      tag_215\n      jump\t// in\n    tag_216:\n      pop\n      0x04\n      dup3\n      add\n      dup2\n      0x04\n      add\n      swap1\n      dup2\n      tag_217\n      swap2\n      swap1\n      tag_215\n      jump\t// in\n    tag_217:\n      pop\n      0x05\n      dup3\n      add\n      dup2\n      0x05\n      add\n      swap1\n      dup2\n      tag_218\n      swap2\n      swap1\n      tag_215\n      jump\t// in\n    tag_218:\n      pop\n      0x06\n      dup3\n      add\n      0x00\n      swap1\n      sload\n      swap1\n      0x0100\n      exp\n      swap1\n      div\n      0xff\n      and\n      dup2\n      0x06\n      add\n      exp(0x0100, 0x00)\n      dup2\n      sload\n      dup2\n      0xff\n      mul\n      not\n      and\n      swap1\n      dup4\n      0x01\n      dup2\n      gt\n      iszero\n      tag_219\n      jumpi\n      tag_220\n      tag_71\n      jump\t// in\n    tag_220:\n    tag_219:\n      mul\n      or\n      swap1\n      sstore\n      pop\n      0x07\n      dup3\n      add\n      dup2\n      0x07\n      add\n      swap1\n      dup1\n      sload\n      tag_221\n      swap3\n      swap2\n      swap1\n      tag_222\n      jump\t// in\n    tag_221:\n      pop\n      swap1\n      pop\n      pop\n        /* \"soljobs.sol\":4548:4576  JobApplicationStatus.Pending */\n      0x00\n        /* \"soljobs.sol\":4524:4538  jobApplication */\n      dup2\n        /* \"soljobs.sol\":4524:4545  jobApplication.status */\n      0x0b\n      add\n      0x00\n        /* \"soljobs.sol\":4524:4576  jobApplication.status = JobApplicationStatus.Pending */\n      0x0100\n      exp\n      dup2\n      sload\n      dup2\n      0xff\n      mul\n      not\n      and\n      swap1\n      dup4\n      0x02\n      dup2\n      gt\n      iszero\n      tag_223\n      jumpi\n      tag_224\n      tag_71\n      jump\t// in\n    tag_224:\n    tag_223:\n      mul\n      or\n      swap1\n      sstore\n      pop\n        /* \"soljobs.sol\":4587:4595  jobOffer */\n      dup2\n        /* \"soljobs.sol\":4587:4608  jobOffer.applications */\n      0x0b\n      add\n        /* \"soljobs.sol\":4614:4628  jobApplication */\n      dup2\n        /* \"soljobs.sol\":4587:4629  jobOffer.applications.push(jobApplication) */\n      swap1\n      dup1\n      0x01\n      dup2\n      sload\n      add\n      dup1\n      dup3\n      sstore\n      dup1\n      swap2\n      pop\n      pop\n      0x01\n      swap1\n      sub\n      swap1\n      0x00\n      mstore\n      keccak256(0x00, 0x20)\n      swap1\n      0x0c\n      mul\n      add\n      0x00\n      swap1\n      swap2\n      swap1\n      swap2\n      swap1\n      swap2\n      pop\n      0x00\n      dup3\n      add\n      sload\n      dup2\n      0x00\n      add\n      sstore\n      0x01\n      dup3\n      add\n      sload\n      dup2\n      0x01\n      add\n      sstore\n      0x02\n      dup3\n      add\n      dup2\n      0x02\n      add\n      swap1\n      dup2\n      tag_226\n      swap2\n      swap1\n      tag_215\n      jump\t// in\n    tag_226:\n      pop\n      0x03\n      dup3\n      add\n      dup2\n      0x03\n      add\n      0x00\n      dup3\n      add\n      sload\n      dup2\n      0x00\n      add\n      sstore\n      0x01\n      dup3\n      add\n      0x00\n      swap1\n      sload\n      swap1\n      0x0100\n      exp\n      swap1\n      div\n      0xffffffffffffffffffffffffffffffffffffffff\n      and\n      dup2\n      0x01\n      add\n      exp(0x0100, 0x00)\n      dup2\n      sload\n      dup2\n      0xffffffffffffffffffffffffffffffffffffffff\n      mul\n      not\n      and\n      swap1\n      dup4\n      0xffffffffffffffffffffffffffffffffffffffff\n      and\n      mul\n      or\n      swap1\n      sstore\n      pop\n      0x02\n      dup3\n      add\n      dup2\n      0x02\n      add\n      swap1\n      dup2\n      tag_227\n      swap2\n      swap1\n      tag_215\n      jump\t// in\n    tag_227:\n      pop\n      0x03\n      dup3\n      add\n      dup2\n      0x03\n      add\n      swap1\n      dup2\n      tag_228\n      swap2\n      swap1\n      tag_215\n      jump\t// in\n    tag_228:\n      pop\n      0x04\n      dup3\n      add\n      dup2\n      0x04\n      add\n      swap1\n      dup2\n      tag_229\n      swap2\n      swap1\n      tag_215\n      jump\t// in\n    tag_229:\n      pop\n      0x05\n      dup3\n      add\n      dup2\n      0x05\n      add\n      swap1\n      dup2\n      tag_230\n      swap2\n      swap1\n      tag_215\n      jump\t// in\n    tag_230:\n      pop\n      0x06\n      dup3\n      add\n      0x00\n      swap1\n      sload\n      swap1\n      0x0100\n      exp\n      swap1\n      div\n      0xff\n      and\n      dup2\n      0x06\n      add\n      exp(0x0100, 0x00)\n      dup2\n      sload\n      dup2\n      0xff\n      mul\n      not\n      and\n      swap1\n      dup4\n      0x01\n      dup2\n      gt\n      iszero\n      tag_231\n      jumpi\n      tag_232\n      tag_71\n      jump\t// in\n    tag_232:\n    tag_231:\n      mul\n      or\n      swap1\n      sstore\n      pop\n      0x07\n      dup3\n      add\n      dup2\n      0x07\n      add\n      swap1\n      dup1\n      sload\n      tag_233\n      swap3\n      swap2\n      swap1\n      tag_222\n      jump\t// in\n    tag_233:\n      pop\n      pop\n      pop\n      0x0b\n      dup3\n      add\n      0x00\n      swap1\n      sload\n      swap1\n      0x0100\n      exp\n      swap1\n      div\n      0xff\n      and\n      dup2\n      0x0b\n      add\n      exp(0x0100, 0x00)\n      dup2\n      sload\n      dup2\n      0xff\n      mul\n      not\n      and\n      swap1\n      dup4\n      0x02\n      dup2\n      gt\n      iszero\n      tag_234\n      jumpi\n      tag_235\n      tag_71\n      jump\t// in\n    tag_235:\n    tag_234:\n      mul\n      or\n      swap1\n      sstore\n      pop\n      pop\n      pop\n        /* \"soljobs.sol\":4653:4688  ApplicationSubmitted(applicationID) */\n      0x4b6126472f7a5c1a21fe858797a6bb6ed361c62b74d480965163d30d68576d4f\n        /* \"soljobs.sol\":4674:4687  applicationID */\n      dup4\n        /* \"soljobs.sol\":4653:4688  ApplicationSubmitted(applicationID) */\n      mload(0x40)\n      tag_236\n      swap2\n      swap1\n      tag_73\n      jump\t// in\n    tag_236:\n      mload(0x40)\n      dup1\n      swap2\n      sub\n      swap1\n      log1\n        /* \"soljobs.sol\":4123:4697  {... */\n      pop\n      pop\n      pop\n        /* \"soljobs.sol\":3991:4697  function applyForAJob(... */\n      pop\n      pop\n      pop\n      pop\n      jump\t// out\n        /* \"soljobs.sol\":738:781  mapping (uint => JobOffer) public jobOffers */\n    tag_46:\n      mstore(0x20, 0x0a)\n      dup1\n      0x00\n      mstore\n      keccak256(0x00, 0x40)\n      0x00\n      swap2\n      pop\n      swap1\n      pop\n      dup1\n      0x00\n      add\n      sload\n      swap1\n      dup1\n      0x01\n      add\n      dup1\n      sload\n      tag_237\n      swap1\n      tag_82\n      jump\t// in\n    tag_237:\n      dup1\n      0x1f\n      add\n      0x20\n      dup1\n      swap2\n      div\n      mul\n      0x20\n      add\n      mload(0x40)\n      swap1\n      dup2\n      add\n      0x40\n      mstore\n      dup1\n      swap3\n      swap2\n      swap1\n      dup2\n      dup2\n      mstore\n      0x20\n      add\n      dup3\n      dup1\n      sload\n      tag_238\n      swap1\n      tag_82\n      jump\t// in\n    tag_238:\n      dup1\n      iszero\n      tag_239\n      jumpi\n      dup1\n      0x1f\n      lt\n      tag_240\n      jumpi\n      0x0100\n      dup1\n      dup4\n      sload\n      div\n      mul\n      dup4\n      mstore\n      swap2\n      0x20\n      add\n      swap2\n      jump(tag_239)\n    tag_240:\n      dup3\n      add\n      swap2\n      swap1\n      0x00\n      mstore\n      keccak256(0x00, 0x20)\n      swap1\n    tag_241:\n      dup2\n      sload\n      dup2\n      mstore\n      swap1\n      0x01\n      add\n      swap1\n      0x20\n      add\n      dup1\n      dup4\n      gt\n      tag_241\n      jumpi\n      dup3\n      swap1\n      sub\n      0x1f\n      and\n      dup3\n      add\n      swap2\n    tag_239:\n      pop\n      pop\n      pop\n      pop\n      pop\n      swap1\n      dup1\n      0x02\n      add\n      dup1\n      sload\n      tag_242\n      swap1\n      tag_82\n      jump\t// in\n    tag_242:\n      dup1\n      0x1f\n      add\n      0x20\n      dup1\n      swap2\n      div\n      mul\n      0x20\n      add\n      mload(0x40)\n      swap1\n      dup2\n      add\n      0x40\n      mstore\n      dup1\n      swap3\n      swap2\n      swap1\n      dup2\n      dup2\n      mstore\n      0x20\n      add\n      dup3\n      dup1\n      sload\n      tag_243\n      swap1\n      tag_82\n      jump\t// in\n    tag_243:\n      dup1\n      iszero\n      tag_244\n      jumpi\n      dup1\n      0x1f\n      lt\n      tag_245\n      jumpi\n      0x0100\n      dup1\n      dup4\n      sload\n      div\n      mul\n      dup4\n      mstore\n      swap2\n      0x20\n      add\n      swap2\n      jump(tag_244)\n    tag_245:\n      dup3\n      add\n      swap2\n      swap1\n      0x00\n      mstore\n      keccak256(0x00, 0x20)\n      swap1\n    tag_246:\n      dup2\n      sload\n      dup2\n      mstore\n      swap1\n      0x01\n      add\n      swap1\n      0x20\n      add\n      dup1\n      dup4\n      gt\n      tag_246\n      jumpi\n      dup3\n      swap1\n      sub\n      0x1f\n      and\n      dup3\n      add\n      swap2\n    tag_244:\n      pop\n      pop\n      pop\n      pop\n      pop\n      swap1\n      dup1\n      0x03\n      add\n      sload\n      swap1\n      dup1\n      0x04\n      add\n      mload(0x40)\n      dup1\n      0x0120\n      add\n      0x40\n      mstore\n      swap1\n      dup2\n      0x00\n      dup3\n      add\n      sload\n      dup2\n      mstore\n      0x20\n      add\n      0x01\n      dup3\n      add\n      dup1\n      sload\n      tag_247\n      swap1\n      tag_82\n      jump\t// in\n    tag_247:\n      dup1\n      0x1f\n      add\n      0x20\n      dup1\n      swap2\n      div\n      mul\n      0x20\n      add\n      mload(0x40)\n      swap1\n      dup2\n      add\n      0x40\n      mstore\n      dup1\n      swap3\n      swap2\n      swap1\n      dup2\n      dup2\n      mstore\n      0x20\n      add\n      dup3\n      dup1\n      sload\n      tag_248\n      swap1\n      tag_82\n      jump\t// in\n    tag_248:\n      dup1\n      iszero\n      tag_249\n      jumpi\n      dup1\n      0x1f\n      lt\n      tag_250\n      jumpi\n      0x0100\n      dup1\n      dup4\n      sload\n      div\n      mul\n      dup4\n      mstore\n      swap2\n      0x20\n      add\n      swap2\n      jump(tag_249)\n    tag_250:\n      dup3\n      add\n      swap2\n      swap1\n      0x00\n      mstore\n      keccak256(0x00, 0x20)\n      swap1\n    tag_251:\n      dup2\n      sload\n      dup2\n      mstore\n      swap1\n      0x01\n      add\n      swap1\n      0x20\n      add\n      dup1\n      dup4\n      gt\n      tag_251\n      jumpi\n      dup3\n      swap1\n      sub\n      0x1f\n      and\n      dup3\n      add\n      swap2\n    tag_249:\n      pop\n      pop\n      pop\n      pop\n      pop\n      dup2\n      mstore\n      0x20\n      add\n      0x02\n      dup3\n      add\n      dup1\n      sload\n      tag_252\n      swap1\n      tag_82\n      jump\t// in\n    tag_252:\n      dup1\n      0x1f\n      add\n      0x20\n      dup1\n      swap2\n      div\n      mul\n      0x20\n      add\n      mload(0x40)\n      swap1\n      dup2\n      add\n      0x40\n      mstore\n      dup1\n      swap3\n      swap2\n      swap1\n      dup2\n      dup2\n      mstore\n      0x20\n      add\n      dup3\n      dup1\n      sload\n      tag_253\n      swap1\n      tag_82\n      jump\t// in\n    tag_253:\n      dup1\n      iszero\n      tag_254\n      jumpi\n      dup1\n      0x1f\n      lt\n      tag_255\n      jumpi\n      0x0100\n      dup1\n      dup4\n      sload\n      div\n      mul\n      dup4\n      mstore\n      swap2\n      0x20\n      add\n      swap2\n      jump(tag_254)\n    tag_255:\n      dup3\n      add\n      swap2\n      swap1\n      0x00\n      mstore\n      keccak256(0x00, 0x20)\n      swap1\n    tag_256:\n      dup2\n      sload\n      dup2\n      mstore\n      swap1\n      0x01\n      add\n      swap1\n      0x20\n      add\n      dup1\n      dup4\n      gt\n      tag_256\n      jumpi\n      dup3\n      swap1\n      sub\n      0x1f\n      and\n      dup3\n      add\n      swap2\n    tag_254:\n      pop\n      pop\n      pop\n      pop\n      pop\n      dup2\n      mstore\n      0x20\n      add\n      0x03\n      dup3\n      add\n      dup1\n      sload\n      tag_257\n      swap1\n      tag_82\n      jump\t// in\n    tag_257:\n      dup1\n      0x1f\n      add\n      0x20\n      dup1\n      swap2\n      div\n      mul\n      0x20\n      add\n      mload(0x40)\n      swap1\n      dup2\n      add\n      0x40\n      mstore\n      dup1\n      swap3\n      swap2\n      swap1\n      dup2\n      dup2\n      mstore\n      0x20\n      add\n      dup3\n      dup1\n      sload\n      tag_258\n      swap1\n      tag_82\n      jump\t// in\n    tag_258:\n      dup1\n      iszero\n      tag_259\n      jumpi\n      dup1\n      0x1f\n      lt\n      tag_260\n      jumpi\n      0x0100\n      dup1\n      dup4\n      sload\n      div\n      mul\n      dup4\n      mstore\n      swap2\n      0x20\n      add\n      swap2\n      jump(tag_259)\n    tag_260:\n      dup3\n      add\n      swap2\n      swap1\n      0x00\n      mstore\n      keccak256(0x00, 0x20)\n      swap1\n    tag_261:\n      dup2\n      sload\n      dup2\n      mstore\n      swap1\n      0x01\n      add\n      swap1\n      0x20\n      add\n      dup1\n      dup4\n      gt\n      tag_261\n      jumpi\n      dup3\n      swap1\n      sub\n      0x1f\n      and\n      dup3\n      add\n      swap2\n    tag_259:\n      pop\n      pop\n      pop\n      pop\n      pop\n      dup2\n      mstore\n      0x20\n      add\n      0x04\n      dup3\n      add\n      dup1\n      sload\n      tag_262\n      swap1\n      tag_82\n      jump\t// in\n    tag_262:\n      dup1\n      0x1f\n      add\n      0x20\n      dup1\n      swap2\n      div\n      mul\n      0x20\n      add\n      mload(0x40)\n      swap1\n      dup2\n      add\n      0x40\n      mstore\n      dup1\n      swap3\n      swap2\n      swap1\n      dup2\n      dup2\n      mstore\n      0x20\n      add\n      dup3\n      dup1\n      sload\n      tag_263\n      swap1\n      tag_82\n      jump\t// in\n    tag_263:\n      dup1\n      iszero\n      tag_264\n      jumpi\n      dup1\n      0x1f\n      lt\n      tag_265\n      jumpi\n      0x0100\n      dup1\n      dup4\n      sload\n      div\n      mul\n      dup4\n      mstore\n      swap2\n      0x20\n      add\n      swap2\n      jump(tag_264)\n    tag_265:\n      dup3\n      add\n      swap2\n      swap1\n      0x00\n      mstore\n      keccak256(0x00, 0x20)\n      swap1\n    tag_266:\n      dup2\n      sload\n      dup2\n      mstore\n      swap1\n      0x01\n      add\n      swap1\n      0x20\n      add\n      dup1\n      dup4\n      gt\n      tag_266\n      jumpi\n      dup3\n      swap1\n      sub\n      0x1f\n      and\n      dup3\n      add\n      swap2\n    tag_264:\n      pop\n      pop\n      pop\n      pop\n      pop\n      dup2\n      mstore\n      0x20\n      add\n      0x05\n      dup3\n      add\n      0x00\n      swap1\n      sload\n      swap1\n      0x0100\n      exp\n      swap1\n      div\n      0xffffffffffffffffffffffffffffffffffffffff\n      and\n      0xffffffffffffffffffffffffffffffffffffffff\n      and\n      0xffffffffffffffffffffffffffffffffffffffff\n      and\n      dup2\n      mstore\n      0x20\n      add\n      0x05\n      dup3\n      add\n      0x14\n      swap1\n      sload\n      swap1\n      0x0100\n      exp\n      swap1\n      div\n      0xff\n      and\n      iszero\n      iszero\n      iszero\n      iszero\n      dup2\n      mstore\n      0x20\n      add\n      0x05\n      dup3\n      add\n      0x15\n      swap1\n      sload\n      swap1\n      0x0100\n      exp\n      swap1\n      div\n      0xff\n      and\n      0x01\n      dup2\n      gt\n      iszero\n      tag_267\n      jumpi\n      tag_268\n      tag_71\n      jump\t// in\n    tag_268:\n    tag_267:\n      0x01\n      dup2\n      gt\n      iszero\n      tag_269\n      jumpi\n      tag_270\n      tag_71\n      jump\t// in\n    tag_270:\n    tag_269:\n      dup2\n      mstore\n      0x20\n      add\n      0x06\n      dup3\n      add\n      dup1\n      sload\n      dup1\n      0x20\n      mul\n      0x20\n      add\n      mload(0x40)\n      swap1\n      dup2\n      add\n      0x40\n      mstore\n      dup1\n      swap3\n      swap2\n      swap1\n      dup2\n      dup2\n      mstore\n      0x20\n      add\n      dup3\n      dup1\n      sload\n      dup1\n      iszero\n      tag_271\n      jumpi\n      0x20\n      mul\n      dup3\n      add\n      swap2\n      swap1\n      0x00\n      mstore\n      keccak256(0x00, 0x20)\n      swap1\n    tag_272:\n      dup2\n      sload\n      dup2\n      mstore\n      0x20\n      add\n      swap1\n      0x01\n      add\n      swap1\n      dup1\n      dup4\n      gt\n      tag_272\n      jumpi\n    tag_271:\n      pop\n      pop\n      pop\n      pop\n      pop\n      dup2\n      mstore\n      pop\n      pop\n      swap1\n      pop\n      dup6\n      jump\t// out\n    tag_116:\n      dup3\n      dup1\n      sload\n      dup3\n      dup3\n      sstore\n      swap1\n      0x00\n      mstore\n      keccak256(0x00, 0x20)\n      swap1\n      dup2\n      add\n      swap3\n      dup3\n      iszero\n      tag_273\n      jumpi\n      swap2\n      0x20\n      mul\n      dup3\n      add\n    tag_274:\n      dup3\n      dup2\n      gt\n      iszero\n      tag_275\n      jumpi\n      dup3\n      mload\n      dup3\n      sstore\n      swap2\n      0x20\n      add\n      swap2\n      swap1\n      0x01\n      add\n      swap1\n      jump(tag_274)\n    tag_275:\n    tag_273:\n      pop\n      swap1\n      pop\n      tag_276\n      swap2\n      swap1\n      tag_277\n      jump\t// in\n    tag_276:\n      pop\n      swap1\n      jump\t// out\n    tag_222:\n      dup3\n      dup1\n      sload\n      dup3\n      dup3\n      sstore\n      swap1\n      0x00\n      mstore\n      keccak256(0x00, 0x20)\n      swap1\n      dup2\n      add\n      swap3\n      dup3\n      iszero\n      tag_278\n      jumpi\n      0x00\n      mstore\n      keccak256(0x00, 0x20)\n      swap2\n      dup3\n      add\n    tag_279:\n      dup3\n      dup2\n      gt\n      iszero\n      tag_280\n      jumpi\n      dup3\n      sload\n      dup3\n      sstore\n      swap2\n      0x01\n      add\n      swap2\n      swap1\n      0x01\n      add\n      swap1\n      jump(tag_279)\n    tag_280:\n    tag_278:\n      pop\n      swap1\n      pop\n      tag_281\n      swap2\n      swap1\n      tag_277\n      jump\t// in\n    tag_281:\n      pop\n      swap1\n      jump\t// out\n    tag_277:\n    tag_282:\n      dup1\n      dup3\n      gt\n      iszero\n      tag_283\n      jumpi\n      0x00\n      dup2\n      0x00\n      swap1\n      sstore\n      pop\n      0x01\n      add\n      jump(tag_282)\n    tag_283:\n      pop\n      swap1\n      jump\t// out\n        /* \"#utility.yul\":88:205   */\n    tag_285:\n        /* \"#utility.yul\":197:198   */\n      0x00\n        /* \"#utility.yul\":194:195   */\n      0x00\n        /* \"#utility.yul\":187:199   */\n      revert\n        /* \"#utility.yul\":211:328   */\n    tag_286:\n        /* \"#utility.yul\":320:321   */\n      0x00\n        /* \"#utility.yul\":317:318   */\n      0x00\n        /* \"#utility.yul\":310:322   */\n      revert\n        /* \"#utility.yul\":334:451   */\n    tag_287:\n        /* \"#utility.yul\":443:444   */\n      0x00\n        /* \"#utility.yul\":440:441   */\n      0x00\n        /* \"#utility.yul\":433:445   */\n      revert\n        /* \"#utility.yul\":457:574   */\n    tag_288:\n        /* \"#utility.yul\":566:567   */\n      0x00\n        /* \"#utility.yul\":563:564   */\n      0x00\n        /* \"#utility.yul\":556:568   */\n      revert\n        /* \"#utility.yul\":580:697   */\n    tag_289:\n        /* \"#utility.yul\":689:690   */\n      0x00\n        /* \"#utility.yul\":686:687   */\n      0x00\n        /* \"#utility.yul\":679:691   */\n      revert\n        /* \"#utility.yul\":717:1270   */\n    tag_290:\n        /* \"#utility.yul\":775:783   */\n      0x00\n        /* \"#utility.yul\":785:791   */\n      0x00\n        /* \"#utility.yul\":835:838   */\n      dup4\n        /* \"#utility.yul\":828:832   */\n      0x1f\n        /* \"#utility.yul\":820:826   */\n      dup5\n        /* \"#utility.yul\":816:833   */\n      add\n        /* \"#utility.yul\":812:839   */\n      slt\n        /* \"#utility.yul\":802:924   */\n      tag_360\n      jumpi\n        /* \"#utility.yul\":843:922   */\n      tag_361\n      tag_287\n      jump\t// in\n    tag_361:\n        /* \"#utility.yul\":802:924   */\n    tag_360:\n        /* \"#utility.yul\":956:962   */\n      dup3\n        /* \"#utility.yul\":943:963   */\n      calldataload\n        /* \"#utility.yul\":933:963   */\n      swap1\n      pop\n        /* \"#utility.yul\":986:1004   */\n      0xffffffffffffffff\n        /* \"#utility.yul\":978:984   */\n      dup2\n        /* \"#utility.yul\":975:1005   */\n      gt\n        /* \"#utility.yul\":972:1089   */\n      iszero\n      tag_362\n      jumpi\n        /* \"#utility.yul\":1008:1087   */\n      tag_363\n      tag_288\n      jump\t// in\n    tag_363:\n        /* \"#utility.yul\":972:1089   */\n    tag_362:\n        /* \"#utility.yul\":1122:1126   */\n      0x20\n        /* \"#utility.yul\":1114:1120   */\n      dup4\n        /* \"#utility.yul\":1110:1127   */\n      add\n        /* \"#utility.yul\":1098:1127   */\n      swap2\n      pop\n        /* \"#utility.yul\":1176:1179   */\n      dup4\n        /* \"#utility.yul\":1168:1172   */\n      0x01\n        /* \"#utility.yul\":1160:1166   */\n      dup3\n        /* \"#utility.yul\":1156:1173   */\n      mul\n        /* \"#utility.yul\":1146:1154   */\n      dup4\n        /* \"#utility.yul\":1142:1174   */\n      add\n        /* \"#utility.yul\":1139:1180   */\n      gt\n        /* \"#utility.yul\":1136:1264   */\n      iszero\n      tag_364\n      jumpi\n        /* \"#utility.yul\":1183:1262   */\n      tag_365\n      tag_289\n      jump\t// in\n    tag_365:\n        /* \"#utility.yul\":1136:1264   */\n    tag_364:\n        /* \"#utility.yul\":717:1270   */\n      swap3\n      pop\n      swap3\n      swap1\n      pop\n      jump\t// out\n        /* \"#utility.yul\":1276:2841   */\n    tag_14:\n        /* \"#utility.yul\":1410:1416   */\n      0x00\n        /* \"#utility.yul\":1418:1424   */\n      0x00\n        /* \"#utility.yul\":1426:1432   */\n      0x00\n        /* \"#utility.yul\":1434:1440   */\n      0x00\n        /* \"#utility.yul\":1442:1448   */\n      0x00\n        /* \"#utility.yul\":1450:1456   */\n      0x00\n        /* \"#utility.yul\":1458:1464   */\n      0x00\n        /* \"#utility.yul\":1466:1472   */\n      0x00\n        /* \"#utility.yul\":1515:1518   */\n      0x80\n        /* \"#utility.yul\":1503:1512   */\n      dup10\n        /* \"#utility.yul\":1494:1501   */\n      dup12\n        /* \"#utility.yul\":1490:1513   */\n      sub\n        /* \"#utility.yul\":1486:1519   */\n      slt\n        /* \"#utility.yul\":1483:1603   */\n      iszero\n      tag_367\n      jumpi\n        /* \"#utility.yul\":1522:1601   */\n      tag_368\n      tag_285\n      jump\t// in\n    tag_368:\n        /* \"#utility.yul\":1483:1603   */\n    tag_367:\n        /* \"#utility.yul\":1670:1671   */\n      0x00\n        /* \"#utility.yul\":1659:1668   */\n      dup10\n        /* \"#utility.yul\":1655:1672   */\n      add\n        /* \"#utility.yul\":1642:1673   */\n      calldataload\n        /* \"#utility.yul\":1700:1718   */\n      0xffffffffffffffff\n        /* \"#utility.yul\":1692:1698   */\n      dup2\n        /* \"#utility.yul\":1689:1719   */\n      gt\n        /* \"#utility.yul\":1686:1803   */\n      iszero\n      tag_369\n      jumpi\n        /* \"#utility.yul\":1722:1801   */\n      tag_370\n      tag_286\n      jump\t// in\n    tag_370:\n        /* \"#utility.yul\":1686:1803   */\n    tag_369:\n        /* \"#utility.yul\":1835:1900   */\n      tag_371\n        /* \"#utility.yul\":1892:1899   */\n      dup12\n        /* \"#utility.yul\":1883:1889   */\n      dup3\n        /* \"#utility.yul\":1872:1881   */\n      dup13\n        /* \"#utility.yul\":1868:1890   */\n      add\n        /* \"#utility.yul\":1835:1900   */\n      tag_290\n      jump\t// in\n    tag_371:\n        /* \"#utility.yul\":1817:1900   */\n      swap9\n      pop\n      swap9\n      pop\n        /* \"#utility.yul\":1613:1910   */\n      pop\n        /* \"#utility.yul\":1977:1979   */\n      0x20\n        /* \"#utility.yul\":1966:1975   */\n      dup10\n        /* \"#utility.yul\":1962:1980   */\n      add\n        /* \"#utility.yul\":1949:1981   */\n      calldataload\n        /* \"#utility.yul\":2008:2026   */\n      0xffffffffffffffff\n        /* \"#utility.yul\":2000:2006   */\n      dup2\n        /* \"#utility.yul\":1997:2027   */\n      gt\n        /* \"#utility.yul\":1994:2111   */\n      iszero\n      tag_372\n      jumpi\n        /* \"#utility.yul\":2030:2109   */\n      tag_373\n      tag_286\n      jump\t// in\n    tag_373:\n        /* \"#utility.yul\":1994:2111   */\n    tag_372:\n        /* \"#utility.yul\":2143:2208   */\n      tag_374\n        /* \"#utility.yul\":2200:2207   */\n      dup12\n        /* \"#utility.yul\":2191:2197   */\n      dup3\n        /* \"#utility.yul\":2180:2189   */\n      dup13\n        /* \"#utility.yul\":2176:2198   */\n      add\n        /* \"#utility.yul\":2143:2208   */\n      tag_290\n      jump\t// in\n    tag_374:\n        /* \"#utility.yul\":2125:2208   */\n      swap7\n      pop\n      swap7\n      pop\n        /* \"#utility.yul\":1920:2218   */\n      pop\n        /* \"#utility.yul\":2285:2287   */\n      0x40\n        /* \"#utility.yul\":2274:2283   */\n      dup10\n        /* \"#utility.yul\":2270:2288   */\n      add\n        /* \"#utility.yul\":2257:2289   */\n      calldataload\n        /* \"#utility.yul\":2316:2334   */\n      0xffffffffffffffff\n        /* \"#utility.yul\":2308:2314   */\n      dup2\n        /* \"#utility.yul\":2305:2335   */\n      gt\n        /* \"#utility.yul\":2302:2419   */\n      iszero\n      tag_375\n      jumpi\n        /* \"#utility.yul\":2338:2417   */\n      tag_376\n      tag_286\n      jump\t// in\n    tag_376:\n        /* \"#utility.yul\":2302:2419   */\n    tag_375:\n        /* \"#utility.yul\":2451:2516   */\n      tag_377\n        /* \"#utility.yul\":2508:2515   */\n      dup12\n        /* \"#utility.yul\":2499:2505   */\n      dup3\n        /* \"#utility.yul\":2488:2497   */\n      dup13\n        /* \"#utility.yul\":2484:2506   */\n      add\n        /* \"#utility.yul\":2451:2516   */\n      tag_290\n      jump\t// in\n    tag_377:\n        /* \"#utility.yul\":2433:2516   */\n      swap5\n      pop\n      swap5\n      pop\n        /* \"#utility.yul\":2228:2526   */\n      pop\n        /* \"#utility.yul\":2593:2595   */\n      0x60\n        /* \"#utility.yul\":2582:2591   */\n      dup10\n        /* \"#utility.yul\":2578:2596   */\n      add\n        /* \"#utility.yul\":2565:2597   */\n      calldataload\n        /* \"#utility.yul\":2624:2642   */\n      0xffffffffffffffff\n        /* \"#utility.yul\":2616:2622   */\n      dup2\n        /* \"#utility.yul\":2613:2643   */\n      gt\n        /* \"#utility.yul\":2610:2727   */\n      iszero\n      tag_378\n      jumpi\n        /* \"#utility.yul\":2646:2725   */\n      tag_379\n      tag_286\n      jump\t// in\n    tag_379:\n        /* \"#utility.yul\":2610:2727   */\n    tag_378:\n        /* \"#utility.yul\":2759:2824   */\n      tag_380\n        /* \"#utility.yul\":2816:2823   */\n      dup12\n        /* \"#utility.yul\":2807:2813   */\n      dup3\n        /* \"#utility.yul\":2796:2805   */\n      dup13\n        /* \"#utility.yul\":2792:2814   */\n      add\n        /* \"#utility.yul\":2759:2824   */\n      tag_290\n      jump\t// in\n    tag_380:\n        /* \"#utility.yul\":2741:2824   */\n      swap3\n      pop\n      swap3\n      pop\n        /* \"#utility.yul\":2536:2834   */\n      pop\n        /* \"#utility.yul\":1276:2841   */\n      swap3\n      swap6\n      swap9\n      pop\n      swap3\n      swap6\n      swap9\n      swap1\n      swap4\n      swap7\n      pop\n      jump\t// out\n        /* \"#utility.yul\":2847:2924   */\n    tag_291:\n        /* \"#utility.yul\":2884:2891   */\n      0x00\n        /* \"#utility.yul\":2913:2918   */\n      dup2\n        /* \"#utility.yul\":2902:2918   */\n      swap1\n      pop\n        /* \"#utility.yul\":2847:2924   */\n      swap2\n      swap1\n      pop\n      jump\t// out\n        /* \"#utility.yul\":2930:3052   */\n    tag_292:\n        /* \"#utility.yul\":3003:3027   */\n      tag_383\n        /* \"#utility.yul\":3021:3026   */\n      dup2\n        /* \"#utility.yul\":3003:3027   */\n      tag_291\n      jump\t// in\n    tag_383:\n        /* \"#utility.yul\":2996:3001   */\n      dup2\n        /* \"#utility.yul\":2993:3028   */\n      eq\n        /* \"#utility.yul\":2983:3046   */\n      tag_384\n      jumpi\n        /* \"#utility.yul\":3042:3043   */\n      0x00\n        /* \"#utility.yul\":3039:3040   */\n      0x00\n        /* \"#utility.yul\":3032:3044   */\n      revert\n        /* \"#utility.yul\":2983:3046   */\n    tag_384:\n        /* \"#utility.yul\":2930:3052   */\n      pop\n      jump\t// out\n        /* \"#utility.yul\":3058:3197   */\n    tag_293:\n        /* \"#utility.yul\":3104:3109   */\n      0x00\n        /* \"#utility.yul\":3142:3148   */\n      dup2\n        /* \"#utility.yul\":3129:3149   */\n      calldataload\n        /* \"#utility.yul\":3120:3149   */\n      swap1\n      pop\n        /* \"#utility.yul\":3158:3191   */\n      tag_386\n        /* \"#utility.yul\":3185:3190   */\n      dup2\n        /* \"#utility.yul\":3158:3191   */\n      tag_292\n      jump\t// in\n    tag_386:\n        /* \"#utility.yul\":3058:3197   */\n      swap3\n      swap2\n      pop\n      pop\n      jump\t// out\n        /* \"#utility.yul\":3203:4222   */\n    tag_18:\n        /* \"#utility.yul\":3304:3310   */\n      0x00\n        /* \"#utility.yul\":3312:3318   */\n      0x00\n        /* \"#utility.yul\":3320:3326   */\n      0x00\n        /* \"#utility.yul\":3328:3334   */\n      0x00\n        /* \"#utility.yul\":3336:3342   */\n      0x00\n        /* \"#utility.yul\":3385:3387   */\n      0x60\n        /* \"#utility.yul\":3373:3382   */\n      dup7\n        /* \"#utility.yul\":3364:3371   */\n      dup9\n        /* \"#utility.yul\":3360:3383   */\n      sub\n        /* \"#utility.yul\":3356:3388   */\n      slt\n        /* \"#utility.yul\":3353:3472   */\n      iszero\n      tag_388\n      jumpi\n        /* \"#utility.yul\":3391:3470   */\n      tag_389\n      tag_285\n      jump\t// in\n    tag_389:\n        /* \"#utility.yul\":3353:3472   */\n    tag_388:\n        /* \"#utility.yul\":3539:3540   */\n      0x00\n        /* \"#utility.yul\":3528:3537   */\n      dup7\n        /* \"#utility.yul\":3524:3541   */\n      add\n        /* \"#utility.yul\":3511:3542   */\n      calldataload\n        /* \"#utility.yul\":3569:3587   */\n      0xffffffffffffffff\n        /* \"#utility.yul\":3561:3567   */\n      dup2\n        /* \"#utility.yul\":3558:3588   */\n      gt\n        /* \"#utility.yul\":3555:3672   */\n      iszero\n      tag_390\n      jumpi\n        /* \"#utility.yul\":3591:3670   */\n      tag_391\n      tag_286\n      jump\t// in\n    tag_391:\n        /* \"#utility.yul\":3555:3672   */\n    tag_390:\n        /* \"#utility.yul\":3704:3769   */\n      tag_392\n        /* \"#utility.yul\":3761:3768   */\n      dup9\n        /* \"#utility.yul\":3752:3758   */\n      dup3\n        /* \"#utility.yul\":3741:3750   */\n      dup10\n        /* \"#utility.yul\":3737:3759   */\n      add\n        /* \"#utility.yul\":3704:3769   */\n      tag_290\n      jump\t// in\n    tag_392:\n        /* \"#utility.yul\":3686:3769   */\n      swap6\n      pop\n      swap6\n      pop\n        /* \"#utility.yul\":3482:3779   */\n      pop\n        /* \"#utility.yul\":3846:3848   */\n      0x20\n        /* \"#utility.yul\":3835:3844   */\n      dup7\n        /* \"#utility.yul\":3831:3849   */\n      add\n        /* \"#utility.yul\":3818:3850   */\n      calldataload\n        /* \"#utility.yul\":3877:3895   */\n      0xffffffffffffffff\n        /* \"#utility.yul\":3869:3875   */\n      dup2\n        /* \"#utility.yul\":3866:3896   */\n      gt\n        /* \"#utility.yul\":3863:3980   */\n      iszero\n      tag_393\n      jumpi\n        /* \"#utility.yul\":3899:3978   */\n      tag_394\n      tag_286\n      jump\t// in\n    tag_394:\n        /* \"#utility.yul\":3863:3980   */\n    tag_393:\n        /* \"#utility.yul\":4012:4077   */\n      tag_395\n        /* \"#utility.yul\":4069:4076   */\n      dup9\n        /* \"#utility.yul\":4060:4066   */\n      dup3\n        /* \"#utility.yul\":4049:4058   */\n      dup10\n        /* \"#utility.yul\":4045:4067   */\n      add\n        /* \"#utility.yul\":4012:4077   */\n      tag_290\n      jump\t// in\n    tag_395:\n        /* \"#utility.yul\":3994:4077   */\n      swap4\n      pop\n      swap4\n      pop\n        /* \"#utility.yul\":3789:4087   */\n      pop\n        /* \"#utility.yul\":4126:4128   */\n      0x40\n        /* \"#utility.yul\":4152:4205   */\n      tag_396\n        /* \"#utility.yul\":4197:4204   */\n      dup9\n        /* \"#utility.yul\":4188:4194   */\n      dup3\n        /* \"#utility.yul\":4177:4186   */\n      dup10\n        /* \"#utility.yul\":4173:4195   */\n      add\n        /* \"#utility.yul\":4152:4205   */\n      tag_293\n      jump\t// in\n    tag_396:\n        /* \"#utility.yul\":4142:4205   */\n      swap2\n      pop\n        /* \"#utility.yul\":4097:4215   */\n      pop\n        /* \"#utility.yul\":3203:4222   */\n      swap3\n      swap6\n      pop\n      swap3\n      swap6\n      swap1\n      swap4\n      pop\n      jump\t// out\n        /* \"#utility.yul\":4228:4557   */\n    tag_22:\n        /* \"#utility.yul\":4287:4293   */\n      0x00\n        /* \"#utility.yul\":4336:4338   */\n      0x20\n        /* \"#utility.yul\":4324:4333   */\n      dup3\n        /* \"#utility.yul\":4315:4322   */\n      dup5\n        /* \"#utility.yul\":4311:4334   */\n      sub\n        /* \"#utility.yul\":4307:4339   */\n      slt\n        /* \"#utility.yul\":4304:4423   */\n      iszero\n      tag_398\n      jumpi\n        /* \"#utility.yul\":4342:4421   */\n      tag_399\n      tag_285\n      jump\t// in\n    tag_399:\n        /* \"#utility.yul\":4304:4423   */\n    tag_398:\n        /* \"#utility.yul\":4462:4463   */\n      0x00\n        /* \"#utility.yul\":4487:4540   */\n      tag_400\n        /* \"#utility.yul\":4532:4539   */\n      dup5\n        /* \"#utility.yul\":4523:4529   */\n      dup3\n        /* \"#utility.yul\":4512:4521   */\n      dup6\n        /* \"#utility.yul\":4508:4530   */\n      add\n        /* \"#utility.yul\":4487:4540   */\n      tag_293\n      jump\t// in\n    tag_400:\n        /* \"#utility.yul\":4477:4540   */\n      swap2\n      pop\n        /* \"#utility.yul\":4433:4550   */\n      pop\n        /* \"#utility.yul\":4228:4557   */\n      swap3\n      swap2\n      pop\n      pop\n      jump\t// out\n        /* \"#utility.yul\":4563:4681   */\n    tag_294:\n        /* \"#utility.yul\":4650:4674   */\n      tag_402\n        /* \"#utility.yul\":4668:4673   */\n      dup2\n        /* \"#utility.yul\":4650:4674   */\n      tag_291\n      jump\t// in\n    tag_402:\n        /* \"#utility.yul\":4645:4648   */\n      dup3\n        /* \"#utility.yul\":4638:4675   */\n      mstore\n        /* \"#utility.yul\":4563:4681   */\n      pop\n      pop\n      jump\t// out\n        /* \"#utility.yul\":4687:4786   */\n    tag_295:\n        /* \"#utility.yul\":4739:4745   */\n      0x00\n        /* \"#utility.yul\":4773:4778   */\n      dup2\n        /* \"#utility.yul\":4767:4779   */\n      mload\n        /* \"#utility.yul\":4757:4779   */\n      swap1\n      pop\n        /* \"#utility.yul\":4687:4786   */\n      swap2\n      swap1\n      pop\n      jump\t// out\n        /* \"#utility.yul\":4792:4961   */\n    tag_296:\n        /* \"#utility.yul\":4876:4887   */\n      0x00\n        /* \"#utility.yul\":4910:4916   */\n      dup3\n        /* \"#utility.yul\":4905:4908   */\n      dup3\n        /* \"#utility.yul\":4898:4917   */\n      mstore\n        /* \"#utility.yul\":4950:4954   */\n      0x20\n        /* \"#utility.yul\":4945:4948   */\n      dup3\n        /* \"#utility.yul\":4941:4955   */\n      add\n        /* \"#utility.yul\":4926:4955   */\n      swap1\n      pop\n        /* \"#utility.yul\":4792:4961   */\n      swap3\n      swap2\n      pop\n      pop\n      jump\t// out\n        /* \"#utility.yul\":4967:5106   */\n    tag_297:\n        /* \"#utility.yul\":5056:5062   */\n      dup3\n        /* \"#utility.yul\":5051:5054   */\n      dup2\n        /* \"#utility.yul\":5046:5049   */\n      dup4\n        /* \"#utility.yul\":5040:5063   */\n      mcopy\n        /* \"#utility.yul\":5097:5098   */\n      0x00\n        /* \"#utility.yul\":5088:5094   */\n      dup4\n        /* \"#utility.yul\":5083:5086   */\n      dup4\n        /* \"#utility.yul\":5079:5095   */\n      add\n        /* \"#utility.yul\":5072:5099   */\n      mstore\n        /* \"#utility.yul\":4967:5106   */\n      pop\n      pop\n      pop\n      jump\t// out\n        /* \"#utility.yul\":5112:5214   */\n    tag_298:\n        /* \"#utility.yul\":5153:5159   */\n      0x00\n        /* \"#utility.yul\":5204:5206   */\n      0x1f\n        /* \"#utility.yul\":5200:5207   */\n      not\n        /* \"#utility.yul\":5195:5197   */\n      0x1f\n        /* \"#utility.yul\":5188:5193   */\n      dup4\n        /* \"#utility.yul\":5184:5198   */\n      add\n        /* \"#utility.yul\":5180:5208   */\n      and\n        /* \"#utility.yul\":5170:5208   */\n      swap1\n      pop\n        /* \"#utility.yul\":5112:5214   */\n      swap2\n      swap1\n      pop\n      jump\t// out\n        /* \"#utility.yul\":5220:5597   */\n    tag_299:\n        /* \"#utility.yul\":5308:5311   */\n      0x00\n        /* \"#utility.yul\":5336:5375   */\n      tag_408\n        /* \"#utility.yul\":5369:5374   */\n      dup3\n        /* \"#utility.yul\":5336:5375   */\n      tag_295\n      jump\t// in\n    tag_408:\n        /* \"#utility.yul\":5391:5462   */\n      tag_409\n        /* \"#utility.yul\":5455:5461   */\n      dup2\n        /* \"#utility.yul\":5450:5453   */\n      dup6\n        /* \"#utility.yul\":5391:5462   */\n      tag_296\n      jump\t// in\n    tag_409:\n        /* \"#utility.yul\":5384:5462   */\n      swap4\n      pop\n        /* \"#utility.yul\":5471:5536   */\n      tag_410\n        /* \"#utility.yul\":5529:5535   */\n      dup2\n        /* \"#utility.yul\":5524:5527   */\n      dup6\n        /* \"#utility.yul\":5517:5521   */\n      0x20\n        /* \"#utility.yul\":5510:5515   */\n      dup7\n        /* \"#utility.yul\":5506:5522   */\n      add\n        /* \"#utility.yul\":5471:5536   */\n      tag_297\n      jump\t// in\n    tag_410:\n        /* \"#utility.yul\":5561:5590   */\n      tag_411\n        /* \"#utility.yul\":5583:5589   */\n      dup2\n        /* \"#utility.yul\":5561:5590   */\n      tag_298\n      jump\t// in\n    tag_411:\n        /* \"#utility.yul\":5556:5559   */\n      dup5\n        /* \"#utility.yul\":5552:5591   */\n      add\n        /* \"#utility.yul\":5545:5591   */\n      swap2\n      pop\n        /* \"#utility.yul\":5312:5597   */\n      pop\n        /* \"#utility.yul\":5220:5597   */\n      swap3\n      swap2\n      pop\n      pop\n      jump\t// out\n        /* \"#utility.yul\":5603:5711   */\n    tag_300:\n        /* \"#utility.yul\":5680:5704   */\n      tag_413\n        /* \"#utility.yul\":5698:5703   */\n      dup2\n        /* \"#utility.yul\":5680:5704   */\n      tag_291\n      jump\t// in\n    tag_413:\n        /* \"#utility.yul\":5675:5678   */\n      dup3\n        /* \"#utility.yul\":5668:5705   */\n      mstore\n        /* \"#utility.yul\":5603:5711   */\n      pop\n      pop\n      jump\t// out\n        /* \"#utility.yul\":5717:5843   */\n    tag_301:\n        /* \"#utility.yul\":5754:5761   */\n      0x00\n        /* \"#utility.yul\":5794:5836   */\n      0xffffffffffffffffffffffffffffffffffffffff\n        /* \"#utility.yul\":5787:5792   */\n      dup3\n        /* \"#utility.yul\":5783:5837   */\n      and\n        /* \"#utility.yul\":5772:5837   */\n      swap1\n      pop\n        /* \"#utility.yul\":5717:5843   */\n      swap2\n      swap1\n      pop\n      jump\t// out\n        /* \"#utility.yul\":5849:5945   */\n    tag_302:\n        /* \"#utility.yul\":5886:5893   */\n      0x00\n        /* \"#utility.yul\":5915:5939   */\n      tag_416\n        /* \"#utility.yul\":5933:5938   */\n      dup3\n        /* \"#utility.yul\":5915:5939   */\n      tag_301\n      jump\t// in\n    tag_416:\n        /* \"#utility.yul\":5904:5939   */\n      swap1\n      pop\n        /* \"#utility.yul\":5849:5945   */\n      swap2\n      swap1\n      pop\n      jump\t// out\n        /* \"#utility.yul\":5951:6059   */\n    tag_303:\n        /* \"#utility.yul\":6028:6052   */\n      tag_418\n        /* \"#utility.yul\":6046:6051   */\n      dup2\n        /* \"#utility.yul\":6028:6052   */\n      tag_302\n      jump\t// in\n    tag_418:\n        /* \"#utility.yul\":6023:6026   */\n      dup3\n        /* \"#utility.yul\":6016:6053   */\n      mstore\n        /* \"#utility.yul\":5951:6059   */\n      pop\n      pop\n      jump\t// out\n        /* \"#utility.yul\":6065:6224   */\n    tag_304:\n        /* \"#utility.yul\":6139:6150   */\n      0x00\n        /* \"#utility.yul\":6173:6179   */\n      dup3\n        /* \"#utility.yul\":6168:6171   */\n      dup3\n        /* \"#utility.yul\":6161:6180   */\n      mstore\n        /* \"#utility.yul\":6213:6217   */\n      0x20\n        /* \"#utility.yul\":6208:6211   */\n      dup3\n        /* \"#utility.yul\":6204:6218   */\n      add\n        /* \"#utility.yul\":6189:6218   */\n      swap1\n      pop\n        /* \"#utility.yul\":6065:6224   */\n      swap3\n      swap2\n      pop\n      pop\n      jump\t// out\n        /* \"#utility.yul\":6230:6587   */\n    tag_305:\n        /* \"#utility.yul\":6308:6311   */\n      0x00\n        /* \"#utility.yul\":6336:6375   */\n      tag_421\n        /* \"#utility.yul\":6369:6374   */\n      dup3\n        /* \"#utility.yul\":6336:6375   */\n      tag_295\n      jump\t// in\n    tag_421:\n        /* \"#utility.yul\":6391:6452   */\n      tag_422\n        /* \"#utility.yul\":6445:6451   */\n      dup2\n        /* \"#utility.yul\":6440:6443   */\n      dup6\n        /* \"#utility.yul\":6391:6452   */\n      tag_304\n      jump\t// in\n    tag_422:\n        /* \"#utility.yul\":6384:6452   */\n      swap4\n      pop\n        /* \"#utility.yul\":6461:6526   */\n      tag_423\n        /* \"#utility.yul\":6519:6525   */\n      dup2\n        /* \"#utility.yul\":6514:6517   */\n      dup6\n        /* \"#utility.yul\":6507:6511   */\n      0x20\n        /* \"#utility.yul\":6500:6505   */\n      dup7\n        /* \"#utility.yul\":6496:6512   */\n      add\n        /* \"#utility.yul\":6461:6526   */\n      tag_297\n      jump\t// in\n    tag_423:\n        /* \"#utility.yul\":6551:6580   */\n      tag_424\n        /* \"#utility.yul\":6573:6579   */\n      dup2\n        /* \"#utility.yul\":6551:6580   */\n      tag_298\n      jump\t// in\n    tag_424:\n        /* \"#utility.yul\":6546:6549   */\n      dup5\n        /* \"#utility.yul\":6542:6581   */\n      add\n        /* \"#utility.yul\":6535:6581   */\n      swap2\n      pop\n        /* \"#utility.yul\":6312:6587   */\n      pop\n        /* \"#utility.yul\":6230:6587   */\n      swap3\n      swap2\n      pop\n      pop\n      jump\t// out\n        /* \"#utility.yul\":6593:6773   */\n    tag_71:\n        /* \"#utility.yul\":6641:6718   */\n      0x4e487b7100000000000000000000000000000000000000000000000000000000\n        /* \"#utility.yul\":6638:6639   */\n      0x00\n        /* \"#utility.yul\":6631:6719   */\n      mstore\n        /* \"#utility.yul\":6738:6742   */\n      0x21\n        /* \"#utility.yul\":6735:6736   */\n      0x04\n        /* \"#utility.yul\":6728:6743   */\n      mstore\n        /* \"#utility.yul\":6762:6766   */\n      0x24\n        /* \"#utility.yul\":6759:6760   */\n      0x00\n        /* \"#utility.yul\":6752:6767   */\n      revert\n        /* \"#utility.yul\":6779:6898   */\n    tag_306:\n        /* \"#utility.yul\":6866:6867   */\n      0x02\n        /* \"#utility.yul\":6859:6864   */\n      dup2\n        /* \"#utility.yul\":6856:6868   */\n      lt\n        /* \"#utility.yul\":6846:6892   */\n      tag_427\n      jumpi\n        /* \"#utility.yul\":6872:6890   */\n      tag_428\n      tag_71\n      jump\t// in\n    tag_428:\n        /* \"#utility.yul\":6846:6892   */\n    tag_427:\n        /* \"#utility.yul\":6779:6898   */\n      pop\n      jump\t// out\n        /* \"#utility.yul\":6904:7043   */\n    tag_307:\n        /* \"#utility.yul\":6955:6962   */\n      0x00\n        /* \"#utility.yul\":6984:6989   */\n      dup2\n        /* \"#utility.yul\":6973:6989   */\n      swap1\n      pop\n        /* \"#utility.yul\":6990:7037   */\n      tag_430\n        /* \"#utility.yul\":7031:7036   */\n      dup3\n        /* \"#utility.yul\":6990:7037   */\n      tag_306\n      jump\t// in\n    tag_430:\n        /* \"#utility.yul\":6904:7043   */\n      swap2\n      swap1\n      pop\n      jump\t// out\n        /* \"#utility.yul\":7049:7188   */\n    tag_308:\n        /* \"#utility.yul\":7111:7120   */\n      0x00\n        /* \"#utility.yul\":7144:7182   */\n      tag_432\n        /* \"#utility.yul\":7176:7181   */\n      dup3\n        /* \"#utility.yul\":7144:7182   */\n      tag_307\n      jump\t// in\n    tag_432:\n        /* \"#utility.yul\":7131:7182   */\n      swap1\n      pop\n        /* \"#utility.yul\":7049:7188   */\n      swap2\n      swap1\n      pop\n      jump\t// out\n        /* \"#utility.yul\":7194:7339   */\n    tag_309:\n        /* \"#utility.yul\":7283:7332   */\n      tag_434\n        /* \"#utility.yul\":7326:7331   */\n      dup2\n        /* \"#utility.yul\":7283:7332   */\n      tag_308\n      jump\t// in\n    tag_434:\n        /* \"#utility.yul\":7278:7281   */\n      dup3\n        /* \"#utility.yul\":7271:7333   */\n      mstore\n        /* \"#utility.yul\":7194:7339   */\n      pop\n      pop\n      jump\t// out\n        /* \"#utility.yul\":7345:7459   */\n    tag_310:\n        /* \"#utility.yul\":7412:7418   */\n      0x00\n        /* \"#utility.yul\":7446:7451   */\n      dup2\n        /* \"#utility.yul\":7440:7452   */\n      mload\n        /* \"#utility.yul\":7430:7452   */\n      swap1\n      pop\n        /* \"#utility.yul\":7345:7459   */\n      swap2\n      swap1\n      pop\n      jump\t// out\n        /* \"#utility.yul\":7465:7639   */\n    tag_311:\n        /* \"#utility.yul\":7554:7565   */\n      0x00\n        /* \"#utility.yul\":7588:7594   */\n      dup3\n        /* \"#utility.yul\":7583:7586   */\n      dup3\n        /* \"#utility.yul\":7576:7595   */\n      mstore\n        /* \"#utility.yul\":7628:7632   */\n      0x20\n        /* \"#utility.yul\":7623:7626   */\n      dup3\n        /* \"#utility.yul\":7619:7633   */\n      add\n        /* \"#utility.yul\":7604:7633   */\n      swap1\n      pop\n        /* \"#utility.yul\":7465:7639   */\n      swap3\n      swap2\n      pop\n      pop\n      jump\t// out\n        /* \"#utility.yul\":7645:7777   */\n    tag_312:\n        /* \"#utility.yul\":7712:7716   */\n      0x00\n        /* \"#utility.yul\":7735:7738   */\n      dup2\n        /* \"#utility.yul\":7727:7738   */\n      swap1\n      pop\n        /* \"#utility.yul\":7765:7769   */\n      0x20\n        /* \"#utility.yul\":7760:7763   */\n      dup3\n        /* \"#utility.yul\":7756:7770   */\n      add\n        /* \"#utility.yul\":7748:7770   */\n      swap1\n      pop\n        /* \"#utility.yul\":7645:7777   */\n      swap2\n      swap1\n      pop\n      jump\t// out\n        /* \"#utility.yul\":7783:7962   */\n    tag_313:\n        /* \"#utility.yul\":7852:7862   */\n      0x00\n        /* \"#utility.yul\":7873:7919   */\n      tag_439\n        /* \"#utility.yul\":7915:7918   */\n      dup4\n        /* \"#utility.yul\":7907:7913   */\n      dup4\n        /* \"#utility.yul\":7873:7919   */\n      tag_300\n      jump\t// in\n    tag_439:\n        /* \"#utility.yul\":7951:7955   */\n      0x20\n        /* \"#utility.yul\":7946:7949   */\n      dup4\n        /* \"#utility.yul\":7942:7956   */\n      add\n        /* \"#utility.yul\":7928:7956   */\n      swap1\n      pop\n        /* \"#utility.yul\":7783:7962   */\n      swap3\n      swap2\n      pop\n      pop\n      jump\t// out\n        /* \"#utility.yul\":7968:8081   */\n    tag_314:\n        /* \"#utility.yul\":8038:8042   */\n      0x00\n        /* \"#utility.yul\":8070:8074   */\n      0x20\n        /* \"#utility.yul\":8065:8068   */\n      dup3\n        /* \"#utility.yul\":8061:8075   */\n      add\n        /* \"#utility.yul\":8053:8075   */\n      swap1\n      pop\n        /* \"#utility.yul\":7968:8081   */\n      swap2\n      swap1\n      pop\n      jump\t// out\n        /* \"#utility.yul\":8117:8829   */\n    tag_315:\n        /* \"#utility.yul\":8226:8229   */\n      0x00\n        /* \"#utility.yul\":8255:8309   */\n      tag_442\n        /* \"#utility.yul\":8303:8308   */\n      dup3\n        /* \"#utility.yul\":8255:8309   */\n      tag_310\n      jump\t// in\n    tag_442:\n        /* \"#utility.yul\":8325:8401   */\n      tag_443\n        /* \"#utility.yul\":8394:8400   */\n      dup2\n        /* \"#utility.yul\":8389:8392   */\n      dup6\n        /* \"#utility.yul\":8325:8401   */\n      tag_311\n      jump\t// in\n    tag_443:\n        /* \"#utility.yul\":8318:8401   */\n      swap4\n      pop\n        /* \"#utility.yul\":8425:8481   */\n      tag_444\n        /* \"#utility.yul\":8475:8480   */\n      dup4\n        /* \"#utility.yul\":8425:8481   */\n      tag_312\n      jump\t// in\n    tag_444:\n        /* \"#utility.yul\":8504:8511   */\n      dup1\n        /* \"#utility.yul\":8535:8536   */\n      0x00\n        /* \"#utility.yul\":8520:8804   */\n    tag_445:\n        /* \"#utility.yul\":8545:8551   */\n      dup4\n        /* \"#utility.yul\":8542:8543   */\n      dup2\n        /* \"#utility.yul\":8539:8552   */\n      lt\n        /* \"#utility.yul\":8520:8804   */\n      iszero\n      tag_447\n      jumpi\n        /* \"#utility.yul\":8621:8627   */\n      dup2\n        /* \"#utility.yul\":8615:8628   */\n      mload\n        /* \"#utility.yul\":8648:8711   */\n      tag_448\n        /* \"#utility.yul\":8707:8710   */\n      dup9\n        /* \"#utility.yul\":8692:8705   */\n      dup3\n        /* \"#utility.yul\":8648:8711   */\n      tag_313\n      jump\t// in\n    tag_448:\n        /* \"#utility.yul\":8641:8711   */\n      swap8\n      pop\n        /* \"#utility.yul\":8734:8794   */\n      tag_449\n        /* \"#utility.yul\":8787:8793   */\n      dup4\n        /* \"#utility.yul\":8734:8794   */\n      tag_314\n      jump\t// in\n    tag_449:\n        /* \"#utility.yul\":8724:8794   */\n      swap3\n      pop\n        /* \"#utility.yul\":8580:8804   */\n      pop\n        /* \"#utility.yul\":8567:8568   */\n      0x01\n        /* \"#utility.yul\":8564:8565   */\n      dup2\n        /* \"#utility.yul\":8560:8569   */\n      add\n        /* \"#utility.yul\":8555:8569   */\n      swap1\n      pop\n        /* \"#utility.yul\":8520:8804   */\n      jump(tag_445)\n    tag_447:\n        /* \"#utility.yul\":8524:8538   */\n      pop\n        /* \"#utility.yul\":8820:8823   */\n      dup6\n        /* \"#utility.yul\":8813:8823   */\n      swap4\n      pop\n        /* \"#utility.yul\":8231:8829   */\n      pop\n      pop\n      pop\n        /* \"#utility.yul\":8117:8829   */\n      swap3\n      swap2\n      pop\n      pop\n      jump\t// out\n        /* \"#utility.yul\":8893:10922   */\n    tag_316:\n        /* \"#utility.yul\":9028:9031   */\n      0x00\n        /* \"#utility.yul\":9064:9070   */\n      0x0100\n        /* \"#utility.yul\":9059:9062   */\n      dup4\n        /* \"#utility.yul\":9055:9071   */\n      add\n        /* \"#utility.yul\":9151:9155   */\n      0x00\n        /* \"#utility.yul\":9144:9149   */\n      dup4\n        /* \"#utility.yul\":9140:9156   */\n      add\n        /* \"#utility.yul\":9134:9157   */\n      mload\n        /* \"#utility.yul\":9170:9233   */\n      tag_451\n        /* \"#utility.yul\":9227:9231   */\n      0x00\n        /* \"#utility.yul\":9222:9225   */\n      dup7\n        /* \"#utility.yul\":9218:9232   */\n      add\n        /* \"#utility.yul\":9204:9216   */\n      dup3\n        /* \"#utility.yul\":9170:9233   */\n      tag_300\n      jump\t// in\n    tag_451:\n        /* \"#utility.yul\":9081:9243   */\n      pop\n        /* \"#utility.yul\":9337:9341   */\n      0x20\n        /* \"#utility.yul\":9330:9335   */\n      dup4\n        /* \"#utility.yul\":9326:9342   */\n      add\n        /* \"#utility.yul\":9320:9343   */\n      mload\n        /* \"#utility.yul\":9356:9419   */\n      tag_452\n        /* \"#utility.yul\":9413:9417   */\n      0x20\n        /* \"#utility.yul\":9408:9411   */\n      dup7\n        /* \"#utility.yul\":9404:9418   */\n      add\n        /* \"#utility.yul\":9390:9402   */\n      dup3\n        /* \"#utility.yul\":9356:9419   */\n      tag_303\n      jump\t// in\n    tag_452:\n        /* \"#utility.yul\":9253:9429   */\n      pop\n        /* \"#utility.yul\":9515:9519   */\n      0x40\n        /* \"#utility.yul\":9508:9513   */\n      dup4\n        /* \"#utility.yul\":9504:9520   */\n      add\n        /* \"#utility.yul\":9498:9521   */\n      mload\n        /* \"#utility.yul\":9568:9571   */\n      dup5\n        /* \"#utility.yul\":9562:9566   */\n      dup3\n        /* \"#utility.yul\":9558:9572   */\n      sub\n        /* \"#utility.yul\":9551:9555   */\n      0x40\n        /* \"#utility.yul\":9546:9549   */\n      dup7\n        /* \"#utility.yul\":9542:9556   */\n      add\n        /* \"#utility.yul\":9535:9573   */\n      mstore\n        /* \"#utility.yul\":9594:9667   */\n      tag_453\n        /* \"#utility.yul\":9662:9666   */\n      dup3\n        /* \"#utility.yul\":9648:9660   */\n      dup3\n        /* \"#utility.yul\":9594:9667   */\n      tag_305\n      jump\t// in\n    tag_453:\n        /* \"#utility.yul\":9586:9667   */\n      swap2\n      pop\n        /* \"#utility.yul\":9439:9678   */\n      pop\n        /* \"#utility.yul\":9761:9765   */\n      0x60\n        /* \"#utility.yul\":9754:9759   */\n      dup4\n        /* \"#utility.yul\":9750:9766   */\n      add\n        /* \"#utility.yul\":9744:9767   */\n      mload\n        /* \"#utility.yul\":9814:9817   */\n      dup5\n        /* \"#utility.yul\":9808:9812   */\n      dup3\n        /* \"#utility.yul\":9804:9818   */\n      sub\n        /* \"#utility.yul\":9797:9801   */\n      0x60\n        /* \"#utility.yul\":9792:9795   */\n      dup7\n        /* \"#utility.yul\":9788:9802   */\n      add\n        /* \"#utility.yul\":9781:9819   */\n      mstore\n        /* \"#utility.yul\":9840:9913   */\n      tag_454\n        /* \"#utility.yul\":9908:9912   */\n      dup3\n        /* \"#utility.yul\":9894:9906   */\n      dup3\n        /* \"#utility.yul\":9840:9913   */\n      tag_305\n      jump\t// in\n    tag_454:\n        /* \"#utility.yul\":9832:9913   */\n      swap2\n      pop\n        /* \"#utility.yul\":9688:9924   */\n      pop\n        /* \"#utility.yul\":10010:10014   */\n      0x80\n        /* \"#utility.yul\":10003:10008   */\n      dup4\n        /* \"#utility.yul\":9999:10015   */\n      add\n        /* \"#utility.yul\":9993:10016   */\n      mload\n        /* \"#utility.yul\":10063:10066   */\n      dup5\n        /* \"#utility.yul\":10057:10061   */\n      dup3\n        /* \"#utility.yul\":10053:10067   */\n      sub\n        /* \"#utility.yul\":10046:10050   */\n      0x80\n        /* \"#utility.yul\":10041:10044   */\n      dup7\n        /* \"#utility.yul\":10037:10051   */\n      add\n        /* \"#utility.yul\":10030:10068   */\n      mstore\n        /* \"#utility.yul\":10089:10162   */\n      tag_455\n        /* \"#utility.yul\":10157:10161   */\n      dup3\n        /* \"#utility.yul\":10143:10155   */\n      dup3\n        /* \"#utility.yul\":10089:10162   */\n      tag_305\n      jump\t// in\n    tag_455:\n        /* \"#utility.yul\":10081:10162   */\n      swap2\n      pop\n        /* \"#utility.yul\":9934:10173   */\n      pop\n        /* \"#utility.yul\":10254:10258   */\n      0xa0\n        /* \"#utility.yul\":10247:10252   */\n      dup4\n        /* \"#utility.yul\":10243:10259   */\n      add\n        /* \"#utility.yul\":10237:10260   */\n      mload\n        /* \"#utility.yul\":10307:10310   */\n      dup5\n        /* \"#utility.yul\":10301:10305   */\n      dup3\n        /* \"#utility.yul\":10297:10311   */\n      sub\n        /* \"#utility.yul\":10290:10294   */\n      0xa0\n        /* \"#utility.yul\":10285:10288   */\n      dup7\n        /* \"#utility.yul\":10281:10295   */\n      add\n        /* \"#utility.yul\":10274:10312   */\n      mstore\n        /* \"#utility.yul\":10333:10406   */\n      tag_456\n        /* \"#utility.yul\":10401:10405   */\n      dup3\n        /* \"#utility.yul\":10387:10399   */\n      dup3\n        /* \"#utility.yul\":10333:10406   */\n      tag_305\n      jump\t// in\n    tag_456:\n        /* \"#utility.yul\":10325:10406   */\n      swap2\n      pop\n        /* \"#utility.yul\":10183:10417   */\n      pop\n        /* \"#utility.yul\":10506:10510   */\n      0xc0\n        /* \"#utility.yul\":10499:10504   */\n      dup4\n        /* \"#utility.yul\":10495:10511   */\n      add\n        /* \"#utility.yul\":10489:10512   */\n      mload\n        /* \"#utility.yul\":10525:10600   */\n      tag_457\n        /* \"#utility.yul\":10594:10598   */\n      0xc0\n        /* \"#utility.yul\":10589:10592   */\n      dup7\n        /* \"#utility.yul\":10585:10599   */\n      add\n        /* \"#utility.yul\":10571:10583   */\n      dup3\n        /* \"#utility.yul\":10525:10600   */\n      tag_309\n      jump\t// in\n    tag_457:\n        /* \"#utility.yul\":10427:10610   */\n      pop\n        /* \"#utility.yul\":10702:10706   */\n      0xe0\n        /* \"#utility.yul\":10695:10700   */\n      dup4\n        /* \"#utility.yul\":10691:10707   */\n      add\n        /* \"#utility.yul\":10685:10708   */\n      mload\n        /* \"#utility.yul\":10755:10758   */\n      dup5\n        /* \"#utility.yul\":10749:10753   */\n      dup3\n        /* \"#utility.yul\":10745:10759   */\n      sub\n        /* \"#utility.yul\":10738:10742   */\n      0xe0\n        /* \"#utility.yul\":10733:10736   */\n      dup7\n        /* \"#utility.yul\":10729:10743   */\n      add\n        /* \"#utility.yul\":10722:10760   */\n      mstore\n        /* \"#utility.yul\":10781:10884   */\n      tag_458\n        /* \"#utility.yul\":10879:10883   */\n      dup3\n        /* \"#utility.yul\":10865:10877   */\n      dup3\n        /* \"#utility.yul\":10781:10884   */\n      tag_315\n      jump\t// in\n    tag_458:\n        /* \"#utility.yul\":10773:10884   */\n      swap2\n      pop\n        /* \"#utility.yul\":10620:10895   */\n      pop\n        /* \"#utility.yul\":10912:10916   */\n      dup1\n        /* \"#utility.yul\":10905:10916   */\n      swap2\n      pop\n        /* \"#utility.yul\":9033:10922   */\n      pop\n        /* \"#utility.yul\":8893:10922   */\n      swap3\n      swap2\n      pop\n      pop\n      jump\t// out\n        /* \"#utility.yul\":10928:11056   */\n    tag_317:\n        /* \"#utility.yul\":11024:11025   */\n      0x03\n        /* \"#utility.yul\":11017:11022   */\n      dup2\n        /* \"#utility.yul\":11014:11026   */\n      lt\n        /* \"#utility.yul\":11004:11050   */\n      tag_460\n      jumpi\n        /* \"#utility.yul\":11030:11048   */\n      tag_461\n      tag_71\n      jump\t// in\n    tag_461:\n        /* \"#utility.yul\":11004:11050   */\n    tag_460:\n        /* \"#utility.yul\":10928:11056   */\n      pop\n      jump\t// out\n        /* \"#utility.yul\":11062:11219   */\n    tag_318:\n        /* \"#utility.yul\":11122:11129   */\n      0x00\n        /* \"#utility.yul\":11151:11156   */\n      dup2\n        /* \"#utility.yul\":11140:11156   */\n      swap1\n      pop\n        /* \"#utility.yul\":11157:11213   */\n      tag_463\n        /* \"#utility.yul\":11207:11212   */\n      dup3\n        /* \"#utility.yul\":11157:11213   */\n      tag_317\n      jump\t// in\n    tag_463:\n        /* \"#utility.yul\":11062:11219   */\n      swap2\n      swap1\n      pop\n      jump\t// out\n        /* \"#utility.yul\":11225:11382   */\n    tag_319:\n        /* \"#utility.yul\":11296:11305   */\n      0x00\n        /* \"#utility.yul\":11329:11376   */\n      tag_465\n        /* \"#utility.yul\":11370:11375   */\n      dup3\n        /* \"#utility.yul\":11329:11376   */\n      tag_318\n      jump\t// in\n    tag_465:\n        /* \"#utility.yul\":11316:11376   */\n      swap1\n      pop\n        /* \"#utility.yul\":11225:11382   */\n      swap2\n      swap1\n      pop\n      jump\t// out\n        /* \"#utility.yul\":11388:11561   */\n    tag_320:\n        /* \"#utility.yul\":11496:11554   */\n      tag_467\n        /* \"#utility.yul\":11548:11553   */\n      dup2\n        /* \"#utility.yul\":11496:11554   */\n      tag_319\n      jump\t// in\n    tag_467:\n        /* \"#utility.yul\":11491:11494   */\n      dup3\n        /* \"#utility.yul\":11484:11555   */\n      mstore\n        /* \"#utility.yul\":11388:11561   */\n      pop\n      pop\n      jump\t// out\n        /* \"#utility.yul\":11567:12547   */\n    tag_25:\n        /* \"#utility.yul\":11879:11883   */\n      0x00\n        /* \"#utility.yul\":11917:11920   */\n      0xa0\n        /* \"#utility.yul\":11906:11915   */\n      dup3\n        /* \"#utility.yul\":11902:11921   */\n      add\n        /* \"#utility.yul\":11894:11921   */\n      swap1\n      pop\n        /* \"#utility.yul\":11931:12002   */\n      tag_469\n        /* \"#utility.yul\":11999:12000   */\n      0x00\n        /* \"#utility.yul\":11988:11997   */\n      dup4\n        /* \"#utility.yul\":11984:12001   */\n      add\n        /* \"#utility.yul\":11975:11981   */\n      dup9\n        /* \"#utility.yul\":11931:12002   */\n      tag_294\n      jump\t// in\n    tag_469:\n        /* \"#utility.yul\":12012:12084   */\n      tag_470\n        /* \"#utility.yul\":12080:12082   */\n      0x20\n        /* \"#utility.yul\":12069:12078   */\n      dup4\n        /* \"#utility.yul\":12065:12083   */\n      add\n        /* \"#utility.yul\":12056:12062   */\n      dup8\n        /* \"#utility.yul\":12012:12084   */\n      tag_294\n      jump\t// in\n    tag_470:\n        /* \"#utility.yul\":12131:12140   */\n      dup2\n        /* \"#utility.yul\":12125:12129   */\n      dup2\n        /* \"#utility.yul\":12121:12141   */\n      sub\n        /* \"#utility.yul\":12116:12118   */\n      0x40\n        /* \"#utility.yul\":12105:12114   */\n      dup4\n        /* \"#utility.yul\":12101:12119   */\n      add\n        /* \"#utility.yul\":12094:12142   */\n      mstore\n        /* \"#utility.yul\":12159:12237   */\n      tag_471\n        /* \"#utility.yul\":12232:12236   */\n      dup2\n        /* \"#utility.yul\":12223:12229   */\n      dup7\n        /* \"#utility.yul\":12159:12237   */\n      tag_299\n      jump\t// in\n    tag_471:\n        /* \"#utility.yul\":12151:12237   */\n      swap1\n      pop\n        /* \"#utility.yul\":12284:12293   */\n      dup2\n        /* \"#utility.yul\":12278:12282   */\n      dup2\n        /* \"#utility.yul\":12274:12294   */\n      sub\n        /* \"#utility.yul\":12269:12271   */\n      0x60\n        /* \"#utility.yul\":12258:12267   */\n      dup4\n        /* \"#utility.yul\":12254:12272   */\n      add\n        /* \"#utility.yul\":12247:12295   */\n      mstore\n        /* \"#utility.yul\":12312:12436   */\n      tag_472\n        /* \"#utility.yul\":12431:12435   */\n      dup2\n        /* \"#utility.yul\":12422:12428   */\n      dup6\n        /* \"#utility.yul\":12312:12436   */\n      tag_316\n      jump\t// in\n    tag_472:\n        /* \"#utility.yul\":12304:12436   */\n      swap1\n      pop\n        /* \"#utility.yul\":12446:12540   */\n      tag_473\n        /* \"#utility.yul\":12535:12538   */\n      0x80\n        /* \"#utility.yul\":12524:12533   */\n      dup4\n        /* \"#utility.yul\":12520:12539   */\n      add\n        /* \"#utility.yul\":12511:12517   */\n      dup5\n        /* \"#utility.yul\":12446:12540   */\n      tag_320\n      jump\t// in\n    tag_473:\n        /* \"#utility.yul\":11567:12547   */\n      swap7\n      swap6\n      pop\n      pop\n      pop\n      pop\n      pop\n      pop\n      jump\t// out\n        /* \"#utility.yul\":12553:12675   */\n    tag_321:\n        /* \"#utility.yul\":12626:12650   */\n      tag_475\n        /* \"#utility.yul\":12644:12649   */\n      dup2\n        /* \"#utility.yul\":12626:12650   */\n      tag_302\n      jump\t// in\n    tag_475:\n        /* \"#utility.yul\":12619:12624   */\n      dup2\n        /* \"#utility.yul\":12616:12651   */\n      eq\n        /* \"#utility.yul\":12606:12669   */\n      tag_476\n      jumpi\n        /* \"#utility.yul\":12665:12666   */\n      0x00\n        /* \"#utility.yul\":12662:12663   */\n      0x00\n        /* \"#utility.yul\":12655:12667   */\n      revert\n        /* \"#utility.yul\":12606:12669   */\n    tag_476:\n        /* \"#utility.yul\":12553:12675   */\n      pop\n      jump\t// out\n        /* \"#utility.yul\":12681:12820   */\n    tag_322:\n        /* \"#utility.yul\":12727:12732   */\n      0x00\n        /* \"#utility.yul\":12765:12771   */\n      dup2\n        /* \"#utility.yul\":12752:12772   */\n      calldataload\n        /* \"#utility.yul\":12743:12772   */\n      swap1\n      pop\n        /* \"#utility.yul\":12781:12814   */\n      tag_478\n        /* \"#utility.yul\":12808:12813   */\n      dup2\n        /* \"#utility.yul\":12781:12814   */\n      tag_321\n      jump\t// in\n    tag_478:\n        /* \"#utility.yul\":12681:12820   */\n      swap3\n      swap2\n      pop\n      pop\n      jump\t// out\n        /* \"#utility.yul\":12826:13155   */\n    tag_31:\n        /* \"#utility.yul\":12885:12891   */\n      0x00\n        /* \"#utility.yul\":12934:12936   */\n      0x20\n        /* \"#utility.yul\":12922:12931   */\n      dup3\n        /* \"#utility.yul\":12913:12920   */\n      dup5\n        /* \"#utility.yul\":12909:12932   */\n      sub\n        /* \"#utility.yul\":12905:12937   */\n      slt\n        /* \"#utility.yul\":12902:13021   */\n      iszero\n      tag_480\n      jumpi\n        /* \"#utility.yul\":12940:13019   */\n      tag_481\n      tag_285\n      jump\t// in\n    tag_481:\n        /* \"#utility.yul\":12902:13021   */\n    tag_480:\n        /* \"#utility.yul\":13060:13061   */\n      0x00\n        /* \"#utility.yul\":13085:13138   */\n      tag_482\n        /* \"#utility.yul\":13130:13137   */\n      dup5\n        /* \"#utility.yul\":13121:13127   */\n      dup3\n        /* \"#utility.yul\":13110:13119   */\n      dup6\n        /* \"#utility.yul\":13106:13128   */\n      add\n        /* \"#utility.yul\":13085:13138   */\n      tag_322\n      jump\t// in\n    tag_482:\n        /* \"#utility.yul\":13075:13138   */\n      swap2\n      pop\n        /* \"#utility.yul\":13031:13148   */\n      pop\n        /* \"#utility.yul\":12826:13155   */\n      swap3\n      swap2\n      pop\n      pop\n      jump\t// out\n        /* \"#utility.yul\":13161:13279   */\n    tag_323:\n        /* \"#utility.yul\":13248:13272   */\n      tag_484\n        /* \"#utility.yul\":13266:13271   */\n      dup2\n        /* \"#utility.yul\":13248:13272   */\n      tag_302\n      jump\t// in\n    tag_484:\n        /* \"#utility.yul\":13243:13246   */\n      dup3\n        /* \"#utility.yul\":13236:13273   */\n      mstore\n        /* \"#utility.yul\":13161:13279   */\n      pop\n      pop\n      jump\t// out\n        /* \"#utility.yul\":13285:13440   */\n    tag_324:\n        /* \"#utility.yul\":13384:13433   */\n      tag_486\n        /* \"#utility.yul\":13427:13432   */\n      dup2\n        /* \"#utility.yul\":13384:13433   */\n      tag_308\n      jump\t// in\n    tag_486:\n        /* \"#utility.yul\":13379:13382   */\n      dup3\n        /* \"#utility.yul\":13372:13434   */\n      mstore\n        /* \"#utility.yul\":13285:13440   */\n      pop\n      pop\n      jump\t// out\n        /* \"#utility.yul\":13446:14720   */\n    tag_34:\n        /* \"#utility.yul\":13799:13803   */\n      0x00\n        /* \"#utility.yul\":13837:13840   */\n      0xe0\n        /* \"#utility.yul\":13826:13835   */\n      dup3\n        /* \"#utility.yul\":13822:13841   */\n      add\n        /* \"#utility.yul\":13814:13841   */\n      swap1\n      pop\n        /* \"#utility.yul\":13851:13922   */\n      tag_488\n        /* \"#utility.yul\":13919:13920   */\n      0x00\n        /* \"#utility.yul\":13908:13917   */\n      dup4\n        /* \"#utility.yul\":13904:13921   */\n      add\n        /* \"#utility.yul\":13895:13901   */\n      dup11\n        /* \"#utility.yul\":13851:13922   */\n      tag_294\n      jump\t// in\n    tag_488:\n        /* \"#utility.yul\":13932:14004   */\n      tag_489\n        /* \"#utility.yul\":14000:14002   */\n      0x20\n        /* \"#utility.yul\":13989:13998   */\n      dup4\n        /* \"#utility.yul\":13985:14003   */\n      add\n        /* \"#utility.yul\":13976:13982   */\n      dup10\n        /* \"#utility.yul\":13932:14004   */\n      tag_323\n      jump\t// in\n    tag_489:\n        /* \"#utility.yul\":14051:14060   */\n      dup2\n        /* \"#utility.yul\":14045:14049   */\n      dup2\n        /* \"#utility.yul\":14041:14061   */\n      sub\n        /* \"#utility.yul\":14036:14038   */\n      0x40\n        /* \"#utility.yul\":14025:14034   */\n      dup4\n        /* \"#utility.yul\":14021:14039   */\n      add\n        /* \"#utility.yul\":14014:14062   */\n      mstore\n        /* \"#utility.yul\":14079:14157   */\n      tag_490\n        /* \"#utility.yul\":14152:14156   */\n      dup2\n        /* \"#utility.yul\":14143:14149   */\n      dup9\n        /* \"#utility.yul\":14079:14157   */\n      tag_299\n      jump\t// in\n    tag_490:\n        /* \"#utility.yul\":14071:14157   */\n      swap1\n      pop\n        /* \"#utility.yul\":14204:14213   */\n      dup2\n        /* \"#utility.yul\":14198:14202   */\n      dup2\n        /* \"#utility.yul\":14194:14214   */\n      sub\n        /* \"#utility.yul\":14189:14191   */\n      0x60\n        /* \"#utility.yul\":14178:14187   */\n      dup4\n        /* \"#utility.yul\":14174:14192   */\n      add\n        /* \"#utility.yul\":14167:14215   */\n      mstore\n        /* \"#utility.yul\":14232:14310   */\n      tag_491\n        /* \"#utility.yul\":14305:14309   */\n      dup2\n        /* \"#utility.yul\":14296:14302   */\n      dup8\n        /* \"#utility.yul\":14232:14310   */\n      tag_299\n      jump\t// in\n    tag_491:\n        /* \"#utility.yul\":14224:14310   */\n      swap1\n      pop\n        /* \"#utility.yul\":14358:14367   */\n      dup2\n        /* \"#utility.yul\":14352:14356   */\n      dup2\n        /* \"#utility.yul\":14348:14368   */\n      sub\n        /* \"#utility.yul\":14342:14345   */\n      0x80\n        /* \"#utility.yul\":14331:14340   */\n      dup4\n        /* \"#utility.yul\":14327:14346   */\n      add\n        /* \"#utility.yul\":14320:14369   */\n      mstore\n        /* \"#utility.yul\":14386:14464   */\n      tag_492\n        /* \"#utility.yul\":14459:14463   */\n      dup2\n        /* \"#utility.yul\":14450:14456   */\n      dup7\n        /* \"#utility.yul\":14386:14464   */\n      tag_299\n      jump\t// in\n    tag_492:\n        /* \"#utility.yul\":14378:14464   */\n      swap1\n      pop\n        /* \"#utility.yul\":14512:14521   */\n      dup2\n        /* \"#utility.yul\":14506:14510   */\n      dup2\n        /* \"#utility.yul\":14502:14522   */\n      sub\n        /* \"#utility.yul\":14496:14499   */\n      0xa0\n        /* \"#utility.yul\":14485:14494   */\n      dup4\n        /* \"#utility.yul\":14481:14500   */\n      add\n        /* \"#utility.yul\":14474:14523   */\n      mstore\n        /* \"#utility.yul\":14540:14618   */\n      tag_493\n        /* \"#utility.yul\":14613:14617   */\n      dup2\n        /* \"#utility.yul\":14604:14610   */\n      dup6\n        /* \"#utility.yul\":14540:14618   */\n      tag_299\n      jump\t// in\n    tag_493:\n        /* \"#utility.yul\":14532:14618   */\n      swap1\n      pop\n        /* \"#utility.yul\":14628:14713   */\n      tag_494\n        /* \"#utility.yul\":14708:14711   */\n      0xc0\n        /* \"#utility.yul\":14697:14706   */\n      dup4\n        /* \"#utility.yul\":14693:14712   */\n      add\n        /* \"#utility.yul\":14684:14690   */\n      dup5\n        /* \"#utility.yul\":14628:14713   */\n      tag_324\n      jump\t// in\n    tag_494:\n        /* \"#utility.yul\":13446:14720   */\n      swap9\n      swap8\n      pop\n      pop\n      pop\n      pop\n      pop\n      pop\n      pop\n      pop\n      jump\t// out\n        /* \"#utility.yul\":14726:14816   */\n    tag_325:\n        /* \"#utility.yul\":14760:14767   */\n      0x00\n        /* \"#utility.yul\":14803:14808   */\n      dup2\n        /* \"#utility.yul\":14796:14809   */\n      iszero\n        /* \"#utility.yul\":14789:14810   */\n      iszero\n        /* \"#utility.yul\":14778:14810   */\n      swap1\n      pop\n        /* \"#utility.yul\":14726:14816   */\n      swap2\n      swap1\n      pop\n      jump\t// out\n        /* \"#utility.yul\":14822:14931   */\n    tag_326:\n        /* \"#utility.yul\":14903:14924   */\n      tag_497\n        /* \"#utility.yul\":14918:14923   */\n      dup2\n        /* \"#utility.yul\":14903:14924   */\n      tag_325\n      jump\t// in\n    tag_497:\n        /* \"#utility.yul\":14898:14901   */\n      dup3\n        /* \"#utility.yul\":14891:14925   */\n      mstore\n        /* \"#utility.yul\":14822:14931   */\n      pop\n      pop\n      jump\t// out\n        /* \"#utility.yul\":14937:16310   */\n    tag_39:\n        /* \"#utility.yul\":15312:15316   */\n      0x00\n        /* \"#utility.yul\":15350:15353   */\n      0x0100\n        /* \"#utility.yul\":15339:15348   */\n      dup3\n        /* \"#utility.yul\":15335:15354   */\n      add\n        /* \"#utility.yul\":15327:15354   */\n      swap1\n      pop\n        /* \"#utility.yul\":15364:15435   */\n      tag_499\n        /* \"#utility.yul\":15432:15433   */\n      0x00\n        /* \"#utility.yul\":15421:15430   */\n      dup4\n        /* \"#utility.yul\":15417:15434   */\n      add\n        /* \"#utility.yul\":15408:15414   */\n      dup12\n        /* \"#utility.yul\":15364:15435   */\n      tag_294\n      jump\t// in\n    tag_499:\n        /* \"#utility.yul\":15482:15491   */\n      dup2\n        /* \"#utility.yul\":15476:15480   */\n      dup2\n        /* \"#utility.yul\":15472:15492   */\n      sub\n        /* \"#utility.yul\":15467:15469   */\n      0x20\n        /* \"#utility.yul\":15456:15465   */\n      dup4\n        /* \"#utility.yul\":15452:15470   */\n      add\n        /* \"#utility.yul\":15445:15493   */\n      mstore\n        /* \"#utility.yul\":15510:15588   */\n      tag_500\n        /* \"#utility.yul\":15583:15587   */\n      dup2\n        /* \"#utility.yul\":15574:15580   */\n      dup11\n        /* \"#utility.yul\":15510:15588   */\n      tag_299\n      jump\t// in\n    tag_500:\n        /* \"#utility.yul\":15502:15588   */\n      swap1\n      pop\n        /* \"#utility.yul\":15635:15644   */\n      dup2\n        /* \"#utility.yul\":15629:15633   */\n      dup2\n        /* \"#utility.yul\":15625:15645   */\n      sub\n        /* \"#utility.yul\":15620:15622   */\n      0x40\n        /* \"#utility.yul\":15609:15618   */\n      dup4\n        /* \"#utility.yul\":15605:15623   */\n      add\n        /* \"#utility.yul\":15598:15646   */\n      mstore\n        /* \"#utility.yul\":15663:15741   */\n      tag_501\n        /* \"#utility.yul\":15736:15740   */\n      dup2\n        /* \"#utility.yul\":15727:15733   */\n      dup10\n        /* \"#utility.yul\":15663:15741   */\n      tag_299\n      jump\t// in\n    tag_501:\n        /* \"#utility.yul\":15655:15741   */\n      swap1\n      pop\n        /* \"#utility.yul\":15788:15797   */\n      dup2\n        /* \"#utility.yul\":15782:15786   */\n      dup2\n        /* \"#utility.yul\":15778:15798   */\n      sub\n        /* \"#utility.yul\":15773:15775   */\n      0x60\n        /* \"#utility.yul\":15762:15771   */\n      dup4\n        /* \"#utility.yul\":15758:15776   */\n      add\n        /* \"#utility.yul\":15751:15799   */\n      mstore\n        /* \"#utility.yul\":15816:15894   */\n      tag_502\n        /* \"#utility.yul\":15889:15893   */\n      dup2\n        /* \"#utility.yul\":15880:15886   */\n      dup9\n        /* \"#utility.yul\":15816:15894   */\n      tag_299\n      jump\t// in\n    tag_502:\n        /* \"#utility.yul\":15808:15894   */\n      swap1\n      pop\n        /* \"#utility.yul\":15942:15951   */\n      dup2\n        /* \"#utility.yul\":15936:15940   */\n      dup2\n        /* \"#utility.yul\":15932:15952   */\n      sub\n        /* \"#utility.yul\":15926:15929   */\n      0x80\n        /* \"#utility.yul\":15915:15924   */\n      dup4\n        /* \"#utility.yul\":15911:15930   */\n      add\n        /* \"#utility.yul\":15904:15953   */\n      mstore\n        /* \"#utility.yul\":15970:16048   */\n      tag_503\n        /* \"#utility.yul\":16043:16047   */\n      dup2\n        /* \"#utility.yul\":16034:16040   */\n      dup8\n        /* \"#utility.yul\":15970:16048   */\n      tag_299\n      jump\t// in\n    tag_503:\n        /* \"#utility.yul\":15962:16048   */\n      swap1\n      pop\n        /* \"#utility.yul\":16058:16131   */\n      tag_504\n        /* \"#utility.yul\":16126:16129   */\n      0xa0\n        /* \"#utility.yul\":16115:16124   */\n      dup4\n        /* \"#utility.yul\":16111:16130   */\n      add\n        /* \"#utility.yul\":16102:16108   */\n      dup7\n        /* \"#utility.yul\":16058:16131   */\n      tag_323\n      jump\t// in\n    tag_504:\n        /* \"#utility.yul\":16141:16208   */\n      tag_505\n        /* \"#utility.yul\":16203:16206   */\n      0xc0\n        /* \"#utility.yul\":16192:16201   */\n      dup4\n        /* \"#utility.yul\":16188:16207   */\n      add\n        /* \"#utility.yul\":16179:16185   */\n      dup6\n        /* \"#utility.yul\":16141:16208   */\n      tag_326\n      jump\t// in\n    tag_505:\n        /* \"#utility.yul\":16218:16303   */\n      tag_506\n        /* \"#utility.yul\":16298:16301   */\n      0xe0\n        /* \"#utility.yul\":16287:16296   */\n      dup4\n        /* \"#utility.yul\":16283:16302   */\n      add\n        /* \"#utility.yul\":16274:16280   */\n      dup5\n        /* \"#utility.yul\":16218:16303   */\n      tag_324\n      jump\t// in\n    tag_506:\n        /* \"#utility.yul\":14937:16310   */\n      swap10\n      swap9\n      pop\n      pop\n      pop\n      pop\n      pop\n      pop\n      pop\n      pop\n      pop\n      jump\t// out\n        /* \"#utility.yul\":16316:16990   */\n    tag_42:\n        /* \"#utility.yul\":16396:16402   */\n      0x00\n        /* \"#utility.yul\":16404:16410   */\n      0x00\n        /* \"#utility.yul\":16412:16418   */\n      0x00\n        /* \"#utility.yul\":16461:16463   */\n      0x40\n        /* \"#utility.yul\":16449:16458   */\n      dup5\n        /* \"#utility.yul\":16440:16447   */\n      dup7\n        /* \"#utility.yul\":16436:16459   */\n      sub\n        /* \"#utility.yul\":16432:16464   */\n      slt\n        /* \"#utility.yul\":16429:16548   */\n      iszero\n      tag_508\n      jumpi\n        /* \"#utility.yul\":16467:16546   */\n      tag_509\n      tag_285\n      jump\t// in\n    tag_509:\n        /* \"#utility.yul\":16429:16548   */\n    tag_508:\n        /* \"#utility.yul\":16587:16588   */\n      0x00\n        /* \"#utility.yul\":16612:16665   */\n      tag_510\n        /* \"#utility.yul\":16657:16664   */\n      dup7\n        /* \"#utility.yul\":16648:16654   */\n      dup3\n        /* \"#utility.yul\":16637:16646   */\n      dup8\n        /* \"#utility.yul\":16633:16655   */\n      add\n        /* \"#utility.yul\":16612:16665   */\n      tag_293\n      jump\t// in\n    tag_510:\n        /* \"#utility.yul\":16602:16665   */\n      swap4\n      pop\n        /* \"#utility.yul\":16558:16675   */\n      pop\n        /* \"#utility.yul\":16742:16744   */\n      0x20\n        /* \"#utility.yul\":16731:16740   */\n      dup5\n        /* \"#utility.yul\":16727:16745   */\n      add\n        /* \"#utility.yul\":16714:16746   */\n      calldataload\n        /* \"#utility.yul\":16773:16791   */\n      0xffffffffffffffff\n        /* \"#utility.yul\":16765:16771   */\n      dup2\n        /* \"#utility.yul\":16762:16792   */\n      gt\n        /* \"#utility.yul\":16759:16876   */\n      iszero\n      tag_511\n      jumpi\n        /* \"#utility.yul\":16795:16874   */\n      tag_512\n      tag_286\n      jump\t// in\n    tag_512:\n        /* \"#utility.yul\":16759:16876   */\n    tag_511:\n        /* \"#utility.yul\":16908:16973   */\n      tag_513\n        /* \"#utility.yul\":16965:16972   */\n      dup7\n        /* \"#utility.yul\":16956:16962   */\n      dup3\n        /* \"#utility.yul\":16945:16954   */\n      dup8\n        /* \"#utility.yul\":16941:16963   */\n      add\n        /* \"#utility.yul\":16908:16973   */\n      tag_290\n      jump\t// in\n    tag_513:\n        /* \"#utility.yul\":16890:16973   */\n      swap3\n      pop\n      swap3\n      pop\n        /* \"#utility.yul\":16685:16983   */\n      pop\n        /* \"#utility.yul\":16316:16990   */\n      swap3\n      pop\n      swap3\n      pop\n      swap3\n      jump\t// out\n        /* \"#utility.yul\":16996:17095   */\n    tag_327:\n        /* \"#utility.yul\":17067:17088   */\n      tag_515\n        /* \"#utility.yul\":17082:17087   */\n      dup2\n        /* \"#utility.yul\":17067:17088   */\n      tag_325\n      jump\t// in\n    tag_515:\n        /* \"#utility.yul\":17062:17065   */\n      dup3\n        /* \"#utility.yul\":17055:17089   */\n      mstore\n        /* \"#utility.yul\":16996:17095   */\n      pop\n      pop\n      jump\t// out\n        /* \"#utility.yul\":17155:19354   */\n    tag_328:\n        /* \"#utility.yul\":17286:17289   */\n      0x00\n        /* \"#utility.yul\":17322:17328   */\n      0x0120\n        /* \"#utility.yul\":17317:17320   */\n      dup4\n        /* \"#utility.yul\":17313:17329   */\n      add\n        /* \"#utility.yul\":17409:17413   */\n      0x00\n        /* \"#utility.yul\":17402:17407   */\n      dup4\n        /* \"#utility.yul\":17398:17414   */\n      add\n        /* \"#utility.yul\":17392:17415   */\n      mload\n        /* \"#utility.yul\":17428:17491   */\n      tag_517\n        /* \"#utility.yul\":17485:17489   */\n      0x00\n        /* \"#utility.yul\":17480:17483   */\n      dup7\n        /* \"#utility.yul\":17476:17490   */\n      add\n        /* \"#utility.yul\":17462:17474   */\n      dup3\n        /* \"#utility.yul\":17428:17491   */\n      tag_300\n      jump\t// in\n    tag_517:\n        /* \"#utility.yul\":17339:17501   */\n      pop\n        /* \"#utility.yul\":17584:17588   */\n      0x20\n        /* \"#utility.yul\":17577:17582   */\n      dup4\n        /* \"#utility.yul\":17573:17589   */\n      add\n        /* \"#utility.yul\":17567:17590   */\n      mload\n        /* \"#utility.yul\":17637:17640   */\n      dup5\n        /* \"#utility.yul\":17631:17635   */\n      dup3\n        /* \"#utility.yul\":17627:17641   */\n      sub\n        /* \"#utility.yul\":17620:17624   */\n      0x20\n        /* \"#utility.yul\":17615:17618   */\n      dup7\n        /* \"#utility.yul\":17611:17625   */\n      add\n        /* \"#utility.yul\":17604:17642   */\n      mstore\n        /* \"#utility.yul\":17663:17736   */\n      tag_518\n        /* \"#utility.yul\":17731:17735   */\n      dup3\n        /* \"#utility.yul\":17717:17729   */\n      dup3\n        /* \"#utility.yul\":17663:17736   */\n      tag_305\n      jump\t// in\n    tag_518:\n        /* \"#utility.yul\":17655:17736   */\n      swap2\n      pop\n        /* \"#utility.yul\":17511:17747   */\n      pop\n        /* \"#utility.yul\":17829:17833   */\n      0x40\n        /* \"#utility.yul\":17822:17827   */\n      dup4\n        /* \"#utility.yul\":17818:17834   */\n      add\n        /* \"#utility.yul\":17812:17835   */\n      mload\n        /* \"#utility.yul\":17882:17885   */\n      dup5\n        /* \"#utility.yul\":17876:17880   */\n      dup3\n        /* \"#utility.yul\":17872:17886   */\n      sub\n        /* \"#utility.yul\":17865:17869   */\n      0x40\n        /* \"#utility.yul\":17860:17863   */\n      dup7\n        /* \"#utility.yul\":17856:17870   */\n      add\n        /* \"#utility.yul\":17849:17887   */\n      mstore\n        /* \"#utility.yul\":17908:17981   */\n      tag_519\n        /* \"#utility.yul\":17976:17980   */\n      dup3\n        /* \"#utility.yul\":17962:17974   */\n      dup3\n        /* \"#utility.yul\":17908:17981   */\n      tag_305\n      jump\t// in\n    tag_519:\n        /* \"#utility.yul\":17900:17981   */\n      swap2\n      pop\n        /* \"#utility.yul\":17757:17992   */\n      pop\n        /* \"#utility.yul\":18077:18081   */\n      0x60\n        /* \"#utility.yul\":18070:18075   */\n      dup4\n        /* \"#utility.yul\":18066:18082   */\n      add\n        /* \"#utility.yul\":18060:18083   */\n      mload\n        /* \"#utility.yul\":18130:18133   */\n      dup5\n        /* \"#utility.yul\":18124:18128   */\n      dup3\n        /* \"#utility.yul\":18120:18134   */\n      sub\n        /* \"#utility.yul\":18113:18117   */\n      0x60\n        /* \"#utility.yul\":18108:18111   */\n      dup7\n        /* \"#utility.yul\":18104:18118   */\n      add\n        /* \"#utility.yul\":18097:18135   */\n      mstore\n        /* \"#utility.yul\":18156:18229   */\n      tag_520\n        /* \"#utility.yul\":18224:18228   */\n      dup3\n        /* \"#utility.yul\":18210:18222   */\n      dup3\n        /* \"#utility.yul\":18156:18229   */\n      tag_305\n      jump\t// in\n    tag_520:\n        /* \"#utility.yul\":18148:18229   */\n      swap2\n      pop\n        /* \"#utility.yul\":18002:18240   */\n      pop\n        /* \"#utility.yul\":18329:18333   */\n      0x80\n        /* \"#utility.yul\":18322:18327   */\n      dup4\n        /* \"#utility.yul\":18318:18334   */\n      add\n        /* \"#utility.yul\":18312:18335   */\n      mload\n        /* \"#utility.yul\":18382:18385   */\n      dup5\n        /* \"#utility.yul\":18376:18380   */\n      dup3\n        /* \"#utility.yul\":18372:18386   */\n      sub\n        /* \"#utility.yul\":18365:18369   */\n      0x80\n        /* \"#utility.yul\":18360:18363   */\n      dup7\n        /* \"#utility.yul\":18356:18370   */\n      add\n        /* \"#utility.yul\":18349:18387   */\n      mstore\n        /* \"#utility.yul\":18408:18481   */\n      tag_521\n        /* \"#utility.yul\":18476:18480   */\n      dup3\n        /* \"#utility.yul\":18462:18474   */\n      dup3\n        /* \"#utility.yul\":18408:18481   */\n      tag_305\n      jump\t// in\n    tag_521:\n        /* \"#utility.yul\":18400:18481   */\n      swap2\n      pop\n        /* \"#utility.yul\":18250:18492   */\n      pop\n        /* \"#utility.yul\":18584:18588   */\n      0xa0\n        /* \"#utility.yul\":18577:18582   */\n      dup4\n        /* \"#utility.yul\":18573:18589   */\n      add\n        /* \"#utility.yul\":18567:18590   */\n      mload\n        /* \"#utility.yul\":18603:18666   */\n      tag_522\n        /* \"#utility.yul\":18660:18664   */\n      0xa0\n        /* \"#utility.yul\":18655:18658   */\n      dup7\n        /* \"#utility.yul\":18651:18665   */\n      add\n        /* \"#utility.yul\":18637:18649   */\n      dup3\n        /* \"#utility.yul\":18603:18666   */\n      tag_303\n      jump\t// in\n    tag_522:\n        /* \"#utility.yul\":18502:18676   */\n      pop\n        /* \"#utility.yul\":18762:18766   */\n      0xc0\n        /* \"#utility.yul\":18755:18760   */\n      dup4\n        /* \"#utility.yul\":18751:18767   */\n      add\n        /* \"#utility.yul\":18745:18768   */\n      mload\n        /* \"#utility.yul\":18781:18838   */\n      tag_523\n        /* \"#utility.yul\":18832:18836   */\n      0xc0\n        /* \"#utility.yul\":18827:18830   */\n      dup7\n        /* \"#utility.yul\":18823:18837   */\n      add\n        /* \"#utility.yul\":18809:18821   */\n      dup3\n        /* \"#utility.yul\":18781:18838   */\n      tag_327\n      jump\t// in\n    tag_523:\n        /* \"#utility.yul\":18686:18848   */\n      pop\n        /* \"#utility.yul\":18937:18941   */\n      0xe0\n        /* \"#utility.yul\":18930:18935   */\n      dup4\n        /* \"#utility.yul\":18926:18942   */\n      add\n        /* \"#utility.yul\":18920:18943   */\n      mload\n        /* \"#utility.yul\":18956:19031   */\n      tag_524\n        /* \"#utility.yul\":19025:19029   */\n      0xe0\n        /* \"#utility.yul\":19020:19023   */\n      dup7\n        /* \"#utility.yul\":19016:19030   */\n      add\n        /* \"#utility.yul\":19002:19014   */\n      dup3\n        /* \"#utility.yul\":18956:19031   */\n      tag_309\n      jump\t// in\n    tag_524:\n        /* \"#utility.yul\":18858:19041   */\n      pop\n        /* \"#utility.yul\":19130:19136   */\n      0x0100\n        /* \"#utility.yul\":19123:19128   */\n      dup4\n        /* \"#utility.yul\":19119:19137   */\n      add\n        /* \"#utility.yul\":19113:19138   */\n      mload\n        /* \"#utility.yul\":19187:19190   */\n      dup5\n        /* \"#utility.yul\":19181:19185   */\n      dup3\n        /* \"#utility.yul\":19177:19191   */\n      sub\n        /* \"#utility.yul\":19168:19174   */\n      0x0100\n        /* \"#utility.yul\":19163:19166   */\n      dup7\n        /* \"#utility.yul\":19159:19175   */\n      add\n        /* \"#utility.yul\":19152:19192   */\n      mstore\n        /* \"#utility.yul\":19213:19316   */\n      tag_525\n        /* \"#utility.yul\":19311:19315   */\n      dup3\n        /* \"#utility.yul\":19297:19309   */\n      dup3\n        /* \"#utility.yul\":19213:19316   */\n      tag_315\n      jump\t// in\n    tag_525:\n        /* \"#utility.yul\":19205:19316   */\n      swap2\n      pop\n        /* \"#utility.yul\":19051:19327   */\n      pop\n        /* \"#utility.yul\":19344:19348   */\n      dup1\n        /* \"#utility.yul\":19337:19348   */\n      swap2\n      pop\n        /* \"#utility.yul\":17291:19354   */\n      pop\n        /* \"#utility.yul\":17155:19354   */\n      swap3\n      swap2\n      pop\n      pop\n      jump\t// out\n        /* \"#utility.yul\":19360:20381   */\n    tag_48:\n        /* \"#utility.yul\":19667:19671   */\n      0x00\n        /* \"#utility.yul\":19705:19708   */\n      0xa0\n        /* \"#utility.yul\":19694:19703   */\n      dup3\n        /* \"#utility.yul\":19690:19709   */\n      add\n        /* \"#utility.yul\":19682:19709   */\n      swap1\n      pop\n        /* \"#utility.yul\":19719:19790   */\n      tag_527\n        /* \"#utility.yul\":19787:19788   */\n      0x00\n        /* \"#utility.yul\":19776:19785   */\n      dup4\n        /* \"#utility.yul\":19772:19789   */\n      add\n        /* \"#utility.yul\":19763:19769   */\n      dup9\n        /* \"#utility.yul\":19719:19790   */\n      tag_294\n      jump\t// in\n    tag_527:\n        /* \"#utility.yul\":19837:19846   */\n      dup2\n        /* \"#utility.yul\":19831:19835   */\n      dup2\n        /* \"#utility.yul\":19827:19847   */\n      sub\n        /* \"#utility.yul\":19822:19824   */\n      0x20\n        /* \"#utility.yul\":19811:19820   */\n      dup4\n        /* \"#utility.yul\":19807:19825   */\n      add\n        /* \"#utility.yul\":19800:19848   */\n      mstore\n        /* \"#utility.yul\":19865:19943   */\n      tag_528\n        /* \"#utility.yul\":19938:19942   */\n      dup2\n        /* \"#utility.yul\":19929:19935   */\n      dup8\n        /* \"#utility.yul\":19865:19943   */\n      tag_299\n      jump\t// in\n    tag_528:\n        /* \"#utility.yul\":19857:19943   */\n      swap1\n      pop\n        /* \"#utility.yul\":19990:19999   */\n      dup2\n        /* \"#utility.yul\":19984:19988   */\n      dup2\n        /* \"#utility.yul\":19980:20000   */\n      sub\n        /* \"#utility.yul\":19975:19977   */\n      0x40\n        /* \"#utility.yul\":19964:19973   */\n      dup4\n        /* \"#utility.yul\":19960:19978   */\n      add\n        /* \"#utility.yul\":19953:20001   */\n      mstore\n        /* \"#utility.yul\":20018:20096   */\n      tag_529\n        /* \"#utility.yul\":20091:20095   */\n      dup2\n        /* \"#utility.yul\":20082:20088   */\n      dup7\n        /* \"#utility.yul\":20018:20096   */\n      tag_299\n      jump\t// in\n    tag_529:\n        /* \"#utility.yul\":20010:20096   */\n      swap1\n      pop\n        /* \"#utility.yul\":20106:20178   */\n      tag_530\n        /* \"#utility.yul\":20174:20176   */\n      0x60\n        /* \"#utility.yul\":20163:20172   */\n      dup4\n        /* \"#utility.yul\":20159:20177   */\n      add\n        /* \"#utility.yul\":20150:20156   */\n      dup6\n        /* \"#utility.yul\":20106:20178   */\n      tag_294\n      jump\t// in\n    tag_530:\n        /* \"#utility.yul\":20226:20235   */\n      dup2\n        /* \"#utility.yul\":20220:20224   */\n      dup2\n        /* \"#utility.yul\":20216:20236   */\n      sub\n        /* \"#utility.yul\":20210:20213   */\n      0x80\n        /* \"#utility.yul\":20199:20208   */\n      dup4\n        /* \"#utility.yul\":20195:20214   */\n      add\n        /* \"#utility.yul\":20188:20237   */\n      mstore\n        /* \"#utility.yul\":20254:20374   */\n      tag_531\n        /* \"#utility.yul\":20369:20373   */\n      dup2\n        /* \"#utility.yul\":20360:20366   */\n      dup5\n        /* \"#utility.yul\":20254:20374   */\n      tag_328\n      jump\t// in\n    tag_531:\n        /* \"#utility.yul\":20246:20374   */\n      swap1\n      pop\n        /* \"#utility.yul\":19360:20381   */\n      swap7\n      swap6\n      pop\n      pop\n      pop\n      pop\n      pop\n      pop\n      jump\t// out\n        /* \"#utility.yul\":20387:20535   */\n    tag_329:\n        /* \"#utility.yul\":20489:20500   */\n      0x00\n        /* \"#utility.yul\":20526:20529   */\n      dup2\n        /* \"#utility.yul\":20511:20529   */\n      swap1\n      pop\n        /* \"#utility.yul\":20387:20535   */\n      swap3\n      swap2\n      pop\n      pop\n      jump\t// out\n        /* \"#utility.yul\":20541:20689   */\n    tag_330:\n        /* \"#utility.yul\":20639:20645   */\n      dup3\n        /* \"#utility.yul\":20634:20637   */\n      dup2\n        /* \"#utility.yul\":20629:20632   */\n      dup4\n        /* \"#utility.yul\":20616:20646   */\n      calldatacopy\n        /* \"#utility.yul\":20680:20681   */\n      0x00\n        /* \"#utility.yul\":20671:20677   */\n      dup4\n        /* \"#utility.yul\":20666:20669   */\n      dup4\n        /* \"#utility.yul\":20662:20678   */\n      add\n        /* \"#utility.yul\":20655:20682   */\n      mstore\n        /* \"#utility.yul\":20541:20689   */\n      pop\n      pop\n      pop\n      jump\t// out\n        /* \"#utility.yul\":20719:21049   */\n    tag_331:\n        /* \"#utility.yul\":20835:20838   */\n      0x00\n        /* \"#utility.yul\":20856:20945   */\n      tag_535\n        /* \"#utility.yul\":20938:20944   */\n      dup4\n        /* \"#utility.yul\":20933:20936   */\n      dup6\n        /* \"#utility.yul\":20856:20945   */\n      tag_329\n      jump\t// in\n    tag_535:\n        /* \"#utility.yul\":20849:20945   */\n      swap4\n      pop\n        /* \"#utility.yul\":20955:21011   */\n      tag_536\n        /* \"#utility.yul\":21004:21010   */\n      dup4\n        /* \"#utility.yul\":20999:21002   */\n      dup6\n        /* \"#utility.yul\":20992:20997   */\n      dup5\n        /* \"#utility.yul\":20955:21011   */\n      tag_330\n      jump\t// in\n    tag_536:\n        /* \"#utility.yul\":21036:21042   */\n      dup3\n        /* \"#utility.yul\":21031:21034   */\n      dup5\n        /* \"#utility.yul\":21027:21043   */\n      add\n        /* \"#utility.yul\":21020:21043   */\n      swap1\n      pop\n        /* \"#utility.yul\":20719:21049   */\n      swap4\n      swap3\n      pop\n      pop\n      pop\n      jump\t// out\n        /* \"#utility.yul\":21055:21350   */\n    tag_51:\n        /* \"#utility.yul\":21197:21200   */\n      0x00\n        /* \"#utility.yul\":21219:21324   */\n      tag_538\n        /* \"#utility.yul\":21320:21323   */\n      dup3\n        /* \"#utility.yul\":21311:21317   */\n      dup5\n        /* \"#utility.yul\":21303:21309   */\n      dup7\n        /* \"#utility.yul\":21219:21324   */\n      tag_331\n      jump\t// in\n    tag_538:\n        /* \"#utility.yul\":21212:21324   */\n      swap2\n      pop\n        /* \"#utility.yul\":21341:21344   */\n      dup2\n        /* \"#utility.yul\":21334:21344   */\n      swap1\n      pop\n        /* \"#utility.yul\":21055:21350   */\n      swap4\n      swap3\n      pop\n      pop\n      pop\n      jump\t// out\n        /* \"#utility.yul\":21356:21669   */\n    tag_56:\n        /* \"#utility.yul\":21469:21473   */\n      0x00\n        /* \"#utility.yul\":21507:21509   */\n      0x20\n        /* \"#utility.yul\":21496:21505   */\n      dup3\n        /* \"#utility.yul\":21492:21510   */\n      add\n        /* \"#utility.yul\":21484:21510   */\n      swap1\n      pop\n        /* \"#utility.yul\":21556:21565   */\n      dup2\n        /* \"#utility.yul\":21550:21554   */\n      dup2\n        /* \"#utility.yul\":21546:21566   */\n      sub\n        /* \"#utility.yul\":21542:21543   */\n      0x00\n        /* \"#utility.yul\":21531:21540   */\n      dup4\n        /* \"#utility.yul\":21527:21544   */\n      add\n        /* \"#utility.yul\":21520:21567   */\n      mstore\n        /* \"#utility.yul\":21584:21662   */\n      tag_540\n        /* \"#utility.yul\":21657:21661   */\n      dup2\n        /* \"#utility.yul\":21648:21654   */\n      dup5\n        /* \"#utility.yul\":21584:21662   */\n      tag_299\n      jump\t// in\n    tag_540:\n        /* \"#utility.yul\":21576:21662   */\n      swap1\n      pop\n        /* \"#utility.yul\":21356:21669   */\n      swap3\n      swap2\n      pop\n      pop\n      jump\t// out\n        /* \"#utility.yul\":21675:21855   */\n    tag_332:\n        /* \"#utility.yul\":21723:21800   */\n      0x4e487b7100000000000000000000000000000000000000000000000000000000\n        /* \"#utility.yul\":21720:21721   */\n      0x00\n        /* \"#utility.yul\":21713:21801   */\n      mstore\n        /* \"#utility.yul\":21820:21824   */\n      0x11\n        /* \"#utility.yul\":21817:21818   */\n      0x04\n        /* \"#utility.yul\":21810:21825   */\n      mstore\n        /* \"#utility.yul\":21844:21848   */\n      0x24\n        /* \"#utility.yul\":21841:21842   */\n      0x00\n        /* \"#utility.yul\":21834:21849   */\n      revert\n        /* \"#utility.yul\":21861:22094   */\n    tag_62:\n        /* \"#utility.yul\":21900:21903   */\n      0x00\n        /* \"#utility.yul\":21923:21947   */\n      tag_543\n        /* \"#utility.yul\":21941:21946   */\n      dup3\n        /* \"#utility.yul\":21923:21947   */\n      tag_291\n      jump\t// in\n    tag_543:\n        /* \"#utility.yul\":21914:21947   */\n      swap2\n      pop\n        /* \"#utility.yul\":21969:22035   */\n      0xffffffffffffffffffffffffffffffffffffffffffffffffffffffffffffffff\n        /* \"#utility.yul\":21962:21967   */\n      dup3\n        /* \"#utility.yul\":21959:22036   */\n      sub\n        /* \"#utility.yul\":21956:22059   */\n      tag_544\n      jumpi\n        /* \"#utility.yul\":22039:22057   */\n      tag_545\n      tag_332\n      jump\t// in\n    tag_545:\n        /* \"#utility.yul\":21956:22059   */\n    tag_544:\n        /* \"#utility.yul\":22086:22087   */\n      0x01\n        /* \"#utility.yul\":22079:22084   */\n      dup3\n        /* \"#utility.yul\":22075:22088   */\n      add\n        /* \"#utility.yul\":22068:22088   */\n      swap1\n      pop\n        /* \"#utility.yul\":21861:22094   */\n      swap2\n      swap1\n      pop\n      jump\t// out\n        /* \"#utility.yul\":22100:22197   */\n    tag_333:\n        /* \"#utility.yul\":22159:22165   */\n      0x00\n        /* \"#utility.yul\":22187:22190   */\n      dup3\n        /* \"#utility.yul\":22177:22190   */\n      swap1\n      pop\n        /* \"#utility.yul\":22100:22197   */\n      swap3\n      swap2\n      pop\n      pop\n      jump\t// out\n        /* \"#utility.yul\":22203:22383   */\n    tag_334:\n        /* \"#utility.yul\":22251:22328   */\n      0x4e487b7100000000000000000000000000000000000000000000000000000000\n        /* \"#utility.yul\":22248:22249   */\n      0x00\n        /* \"#utility.yul\":22241:22329   */\n      mstore\n        /* \"#utility.yul\":22348:22352   */\n      0x41\n        /* \"#utility.yul\":22345:22346   */\n      0x04\n        /* \"#utility.yul\":22338:22353   */\n      mstore\n        /* \"#utility.yul\":22372:22376   */\n      0x24\n        /* \"#utility.yul\":22369:22370   */\n      0x00\n        /* \"#utility.yul\":22362:22377   */\n      revert\n        /* \"#utility.yul\":22389:22569   */\n    tag_335:\n        /* \"#utility.yul\":22437:22514   */\n      0x4e487b7100000000000000000000000000000000000000000000000000000000\n        /* \"#utility.yul\":22434:22435   */\n      0x00\n        /* \"#utility.yul\":22427:22515   */\n      mstore\n        /* \"#utility.yul\":22534:22538   */\n      0x22\n        /* \"#utility.yul\":22531:22532   */\n      0x04\n        /* \"#utility.yul\":22524:22539   */\n      mstore\n        /* \"#utility.yul\":22558:22562   */\n      0x24\n        /* \"#utility.yul\":22555:22556   */\n      0x00\n        /* \"#utility.yul\":22548:22563   */\n      revert\n        /* \"#utility.yul\":22575:22895   */\n    tag_82:\n        /* \"#utility.yul\":22619:22625   */\n      0x00\n        /* \"#utility.yul\":22656:22657   */\n      0x02\n        /* \"#utility.yul\":22650:22654   */\n      dup3\n        /* \"#utility.yul\":22646:22658   */\n      div\n        /* \"#utility.yul\":22636:22658   */\n      swap1\n      pop\n        /* \"#utility.yul\":22703:22704   */\n      0x01\n        /* \"#utility.yul\":22697:22701   */\n      dup3\n        /* \"#utility.yul\":22693:22705   */\n      and\n        /* \"#utility.yul\":22724:22742   */\n      dup1\n        /* \"#utility.yul\":22714:22795   */\n      tag_550\n      jumpi\n        /* \"#utility.yul\":22780:22784   */\n      0x7f\n        /* \"#utility.yul\":22772:22778   */\n      dup3\n        /* \"#utility.yul\":22768:22785   */\n      and\n        /* \"#utility.yul\":22758:22785   */\n      swap2\n      pop\n        /* \"#utility.yul\":22714:22795   */\n    tag_550:\n        /* \"#utility.yul\":22842:22844   */\n      0x20\n        /* \"#utility.yul\":22834:22840   */\n      dup3\n        /* \"#utility.yul\":22831:22845   */\n      lt\n        /* \"#utility.yul\":22811:22829   */\n      dup2\n        /* \"#utility.yul\":22808:22846   */\n      sub\n        /* \"#utility.yul\":22805:22889   */\n      tag_551\n      jumpi\n        /* \"#utility.yul\":22861:22879   */\n      tag_552\n      tag_335\n      jump\t// in\n    tag_552:\n        /* \"#utility.yul\":22805:22889   */\n    tag_551:\n        /* \"#utility.yul\":22626:22895   */\n      pop\n        /* \"#utility.yul\":22575:22895   */\n      swap2\n      swap1\n      pop\n      jump\t// out\n        /* \"#utility.yul\":22901:23042   */\n    tag_336:\n        /* \"#utility.yul\":22950:22954   */\n      0x00\n        /* \"#utility.yul\":22973:22976   */\n      dup2\n        /* \"#utility.yul\":22965:22976   */\n      swap1\n      pop\n        /* \"#utility.yul\":22996:22999   */\n      dup2\n        /* \"#utility.yul\":22993:22994   */\n      0x00\n        /* \"#utility.yul\":22986:23000   */\n      mstore\n        /* \"#utility.yul\":23030:23034   */\n      0x20\n        /* \"#utility.yul\":23027:23028   */\n      0x00\n        /* \"#utility.yul\":23017:23035   */\n      keccak256\n        /* \"#utility.yul\":23009:23035   */\n      swap1\n      pop\n        /* \"#utility.yul\":22901:23042   */\n      swap2\n      swap1\n      pop\n      jump\t// out\n        /* \"#utility.yul\":23048:23141   */\n    tag_337:\n        /* \"#utility.yul\":23085:23091   */\n      0x00\n        /* \"#utility.yul\":23132:23134   */\n      0x20\n        /* \"#utility.yul\":23127:23129   */\n      0x1f\n        /* \"#utility.yul\":23120:23125   */\n      dup4\n        /* \"#utility.yul\":23116:23130   */\n      add\n        /* \"#utility.yul\":23112:23135   */\n      div\n        /* \"#utility.yul\":23102:23135   */\n      swap1\n      pop\n        /* \"#utility.yul\":23048:23141   */\n      swap2\n      swap1\n      pop\n      jump\t// out\n        /* \"#utility.yul\":23147:23254   */\n    tag_338:\n        /* \"#utility.yul\":23191:23199   */\n      0x00\n        /* \"#utility.yul\":23241:23246   */\n      dup3\n        /* \"#utility.yul\":23235:23239   */\n      dup3\n        /* \"#utility.yul\":23231:23247   */\n      shl\n        /* \"#utility.yul\":23210:23247   */\n      swap1\n      pop\n        /* \"#utility.yul\":23147:23254   */\n      swap3\n      swap2\n      pop\n      pop\n      jump\t// out\n        /* \"#utility.yul\":23260:23653   */\n    tag_339:\n        /* \"#utility.yul\":23329:23335   */\n      0x00\n        /* \"#utility.yul\":23379:23380   */\n      0x08\n        /* \"#utility.yul\":23367:23377   */\n      dup4\n        /* \"#utility.yul\":23363:23381   */\n      mul\n        /* \"#utility.yul\":23402:23499   */\n      tag_557\n        /* \"#utility.yul\":23432:23498   */\n      0xffffffffffffffffffffffffffffffffffffffffffffffffffffffffffffffff\n        /* \"#utility.yul\":23421:23430   */\n      dup3\n        /* \"#utility.yul\":23402:23499   */\n      tag_338\n      jump\t// in\n    tag_557:\n        /* \"#utility.yul\":23520:23559   */\n      tag_558\n        /* \"#utility.yul\":23550:23558   */\n      dup7\n        /* \"#utility.yul\":23539:23548   */\n      dup4\n        /* \"#utility.yul\":23520:23559   */\n      tag_338\n      jump\t// in\n    tag_558:\n        /* \"#utility.yul\":23508:23559   */\n      swap6\n      pop\n        /* \"#utility.yul\":23592:23596   */\n      dup1\n        /* \"#utility.yul\":23588:23597   */\n      not\n        /* \"#utility.yul\":23581:23586   */\n      dup5\n        /* \"#utility.yul\":23577:23598   */\n      and\n        /* \"#utility.yul\":23568:23598   */\n      swap4\n      pop\n        /* \"#utility.yul\":23641:23645   */\n      dup1\n        /* \"#utility.yul\":23631:23639   */\n      dup7\n        /* \"#utility.yul\":23627:23646   */\n      and\n        /* \"#utility.yul\":23620:23625   */\n      dup5\n        /* \"#utility.yul\":23617:23647   */\n      or\n        /* \"#utility.yul\":23607:23647   */\n      swap3\n      pop\n        /* \"#utility.yul\":23336:23653   */\n      pop\n      pop\n        /* \"#utility.yul\":23260:23653   */\n      swap4\n      swap3\n      pop\n      pop\n      pop\n      jump\t// out\n        /* \"#utility.yul\":23659:23719   */\n    tag_340:\n        /* \"#utility.yul\":23687:23690   */\n      0x00\n        /* \"#utility.yul\":23708:23713   */\n      dup2\n        /* \"#utility.yul\":23701:23713   */\n      swap1\n      pop\n        /* \"#utility.yul\":23659:23719   */\n      swap2\n      swap1\n      pop\n      jump\t// out\n        /* \"#utility.yul\":23725:23867   */\n    tag_341:\n        /* \"#utility.yul\":23775:23784   */\n      0x00\n        /* \"#utility.yul\":23808:23861   */\n      tag_561\n        /* \"#utility.yul\":23826:23860   */\n      tag_562\n        /* \"#utility.yul\":23835:23859   */\n      tag_563\n        /* \"#utility.yul\":23853:23858   */\n      dup5\n        /* \"#utility.yul\":23835:23859   */\n      tag_291\n      jump\t// in\n    tag_563:\n        /* \"#utility.yul\":23826:23860   */\n      tag_340\n      jump\t// in\n    tag_562:\n        /* \"#utility.yul\":23808:23861   */\n      tag_291\n      jump\t// in\n    tag_561:\n        /* \"#utility.yul\":23795:23861   */\n      swap1\n      pop\n        /* \"#utility.yul\":23725:23867   */\n      swap2\n      swap1\n      pop\n      jump\t// out\n        /* \"#utility.yul\":23873:23948   */\n    tag_342:\n        /* \"#utility.yul\":23916:23919   */\n      0x00\n        /* \"#utility.yul\":23937:23942   */\n      dup2\n        /* \"#utility.yul\":23930:23942   */\n      swap1\n      pop\n        /* \"#utility.yul\":23873:23948   */\n      swap2\n      swap1\n      pop\n      jump\t// out\n        /* \"#utility.yul\":23954:24223   */\n    tag_343:\n        /* \"#utility.yul\":24064:24103   */\n      tag_566\n        /* \"#utility.yul\":24095:24102   */\n      dup4\n        /* \"#utility.yul\":24064:24103   */\n      tag_341\n      jump\t// in\n    tag_566:\n        /* \"#utility.yul\":24125:24216   */\n      tag_567\n        /* \"#utility.yul\":24174:24215   */\n      tag_568\n        /* \"#utility.yul\":24198:24214   */\n      dup3\n        /* \"#utility.yul\":24174:24215   */\n      tag_342\n      jump\t// in\n    tag_568:\n        /* \"#utility.yul\":24166:24172   */\n      dup5\n        /* \"#utility.yul\":24159:24163   */\n      dup5\n        /* \"#utility.yul\":24153:24164   */\n      sload\n        /* \"#utility.yul\":24125:24216   */\n      tag_339\n      jump\t// in\n    tag_567:\n        /* \"#utility.yul\":24119:24123   */\n      dup3\n        /* \"#utility.yul\":24112:24217   */\n      sstore\n        /* \"#utility.yul\":24030:24223   */\n      pop\n        /* \"#utility.yul\":23954:24223   */\n      pop\n      pop\n      pop\n      jump\t// out\n        /* \"#utility.yul\":24229:24302   */\n    tag_344:\n        /* \"#utility.yul\":24274:24277   */\n      0x00\n        /* \"#utility.yul\":24295:24296   */\n      0x00\n        /* \"#utility.yul\":24288:24296   */\n      swap1\n      pop\n        /* \"#utility.yul\":24229:24302   */\n      swap1\n      jump\t// out\n        /* \"#utility.yul\":24308:24497   */\n    tag_345:\n        /* \"#utility.yul\":24385:24417   */\n      tag_571\n      tag_344\n      jump\t// in\n    tag_571:\n        /* \"#utility.yul\":24426:24491   */\n      tag_572\n        /* \"#utility.yul\":24484:24490   */\n      dup2\n        /* \"#utility.yul\":24476:24482   */\n      dup5\n        /* \"#utility.yul\":24470:24474   */\n      dup5\n        /* \"#utility.yul\":24426:24491   */\n      tag_343\n      jump\t// in\n    tag_572:\n        /* \"#utility.yul\":24361:24497   */\n      pop\n        /* \"#utility.yul\":24308:24497   */\n      pop\n      pop\n      jump\t// out\n        /* \"#utility.yul\":24503:24689   */\n    tag_346:\n        /* \"#utility.yul\":24563:24683   */\n    tag_574:\n        /* \"#utility.yul\":24580:24583   */\n      dup2\n        /* \"#utility.yul\":24573:24578   */\n      dup2\n        /* \"#utility.yul\":24570:24584   */\n      lt\n        /* \"#utility.yul\":24563:24683   */\n      iszero\n      tag_576\n      jumpi\n        /* \"#utility.yul\":24634:24673   */\n      tag_577\n        /* \"#utility.yul\":24671:24672   */\n      0x00\n        /* \"#utility.yul\":24664:24669   */\n      dup3\n        /* \"#utility.yul\":24634:24673   */\n      tag_345\n      jump\t// in\n    tag_577:\n        /* \"#utility.yul\":24607:24608   */\n      0x01\n        /* \"#utility.yul\":24600:24605   */\n      dup2\n        /* \"#utility.yul\":24596:24609   */\n      add\n        /* \"#utility.yul\":24587:24609   */\n      swap1\n      pop\n        /* \"#utility.yul\":24563:24683   */\n      jump(tag_574)\n    tag_576:\n        /* \"#utility.yul\":24503:24689   */\n      pop\n      pop\n      jump\t// out\n        /* \"#utility.yul\":24695:25238   */\n    tag_347:\n        /* \"#utility.yul\":24796:24798   */\n      0x1f\n        /* \"#utility.yul\":24791:24794   */\n      dup3\n        /* \"#utility.yul\":24788:24799   */\n      gt\n        /* \"#utility.yul\":24785:25231   */\n      iszero\n      tag_579\n      jumpi\n        /* \"#utility.yul\":24830:24868   */\n      tag_580\n        /* \"#utility.yul\":24862:24867   */\n      dup2\n        /* \"#utility.yul\":24830:24868   */\n      tag_336\n      jump\t// in\n    tag_580:\n        /* \"#utility.yul\":24914:24943   */\n      tag_581\n        /* \"#utility.yul\":24932:24942   */\n      dup5\n        /* \"#utility.yul\":24914:24943   */\n      tag_337\n      jump\t// in\n    tag_581:\n        /* \"#utility.yul\":24904:24912   */\n      dup2\n        /* \"#utility.yul\":24900:24944   */\n      add\n        /* \"#utility.yul\":25097:25099   */\n      0x20\n        /* \"#utility.yul\":25085:25095   */\n      dup6\n        /* \"#utility.yul\":25082:25100   */\n      lt\n        /* \"#utility.yul\":25079:25128   */\n      iszero\n      tag_582\n      jumpi\n        /* \"#utility.yul\":25118:25126   */\n      dup2\n        /* \"#utility.yul\":25103:25126   */\n      swap1\n      pop\n        /* \"#utility.yul\":25079:25128   */\n    tag_582:\n        /* \"#utility.yul\":25141:25221   */\n      tag_583\n        /* \"#utility.yul\":25197:25219   */\n      tag_584\n        /* \"#utility.yul\":25215:25218   */\n      dup6\n        /* \"#utility.yul\":25197:25219   */\n      tag_337\n      jump\t// in\n    tag_584:\n        /* \"#utility.yul\":25187:25195   */\n      dup4\n        /* \"#utility.yul\":25183:25220   */\n      add\n        /* \"#utility.yul\":25170:25181   */\n      dup3\n        /* \"#utility.yul\":25141:25221   */\n      tag_346\n      jump\t// in\n    tag_583:\n        /* \"#utility.yul\":24800:25231   */\n      pop\n      pop\n        /* \"#utility.yul\":24785:25231   */\n    tag_579:\n        /* \"#utility.yul\":24695:25238   */\n      pop\n      pop\n      pop\n      jump\t// out\n        /* \"#utility.yul\":25244:25361   */\n    tag_348:\n        /* \"#utility.yul\":25298:25306   */\n      0x00\n        /* \"#utility.yul\":25348:25353   */\n      dup3\n        /* \"#utility.yul\":25342:25346   */\n      dup3\n        /* \"#utility.yul\":25338:25354   */\n      shr\n        /* \"#utility.yul\":25317:25354   */\n      swap1\n      pop\n        /* \"#utility.yul\":25244:25361   */\n      swap3\n      swap2\n      pop\n      pop\n      jump\t// out\n        /* \"#utility.yul\":25367:25536   */\n    tag_349:\n        /* \"#utility.yul\":25411:25417   */\n      0x00\n        /* \"#utility.yul\":25444:25495   */\n      tag_587\n        /* \"#utility.yul\":25492:25493   */\n      0x00\n        /* \"#utility.yul\":25488:25494   */\n      not\n        /* \"#utility.yul\":25480:25485   */\n      dup5\n        /* \"#utility.yul\":25477:25478   */\n      0x08\n        /* \"#utility.yul\":25473:25486   */\n      mul\n        /* \"#utility.yul\":25444:25495   */\n      tag_348\n      jump\t// in\n    tag_587:\n        /* \"#utility.yul\":25440:25496   */\n      not\n        /* \"#utility.yul\":25525:25529   */\n      dup1\n        /* \"#utility.yul\":25519:25523   */\n      dup4\n        /* \"#utility.yul\":25515:25530   */\n      and\n        /* \"#utility.yul\":25505:25530   */\n      swap2\n      pop\n        /* \"#utility.yul\":25418:25536   */\n      pop\n        /* \"#utility.yul\":25367:25536   */\n      swap3\n      swap2\n      pop\n      pop\n      jump\t// out\n        /* \"#utility.yul\":25541:25836   */\n    tag_350:\n        /* \"#utility.yul\":25617:25621   */\n      0x00\n        /* \"#utility.yul\":25763:25792   */\n      tag_589\n        /* \"#utility.yul\":25788:25791   */\n      dup4\n        /* \"#utility.yul\":25782:25786   */\n      dup4\n        /* \"#utility.yul\":25763:25792   */\n      tag_349\n      jump\t// in\n    tag_589:\n        /* \"#utility.yul\":25755:25792   */\n      swap2\n      pop\n        /* \"#utility.yul\":25825:25828   */\n      dup3\n        /* \"#utility.yul\":25822:25823   */\n      0x02\n        /* \"#utility.yul\":25818:25829   */\n      mul\n        /* \"#utility.yul\":25812:25816   */\n      dup3\n        /* \"#utility.yul\":25809:25830   */\n      or\n        /* \"#utility.yul\":25801:25830   */\n      swap1\n      pop\n        /* \"#utility.yul\":25541:25836   */\n      swap3\n      swap2\n      pop\n      pop\n      jump\t// out\n        /* \"#utility.yul\":25841:27244   */\n    tag_64:\n        /* \"#utility.yul\":25965:26009   */\n      tag_591\n        /* \"#utility.yul\":26005:26008   */\n      dup4\n        /* \"#utility.yul\":26000:26003   */\n      dup4\n        /* \"#utility.yul\":25965:26009   */\n      tag_333\n      jump\t// in\n    tag_591:\n        /* \"#utility.yul\":26074:26092   */\n      0xffffffffffffffff\n        /* \"#utility.yul\":26066:26072   */\n      dup2\n        /* \"#utility.yul\":26063:26093   */\n      gt\n        /* \"#utility.yul\":26060:26116   */\n      iszero\n      tag_592\n      jumpi\n        /* \"#utility.yul\":26096:26114   */\n      tag_593\n      tag_334\n      jump\t// in\n    tag_593:\n        /* \"#utility.yul\":26060:26116   */\n    tag_592:\n        /* \"#utility.yul\":26140:26178   */\n      tag_594\n        /* \"#utility.yul\":26172:26176   */\n      dup3\n        /* \"#utility.yul\":26166:26177   */\n      sload\n        /* \"#utility.yul\":26140:26178   */\n      tag_82\n      jump\t// in\n    tag_594:\n        /* \"#utility.yul\":26225:26292   */\n      tag_595\n        /* \"#utility.yul\":26285:26291   */\n      dup3\n        /* \"#utility.yul\":26277:26283   */\n      dup3\n        /* \"#utility.yul\":26271:26275   */\n      dup6\n        /* \"#utility.yul\":26225:26292   */\n      tag_347\n      jump\t// in\n    tag_595:\n        /* \"#utility.yul\":26319:26320   */\n      0x00\n        /* \"#utility.yul\":26348:26350   */\n      0x1f\n        /* \"#utility.yul\":26340:26346   */\n      dup4\n        /* \"#utility.yul\":26337:26351   */\n      gt\n        /* \"#utility.yul\":26365:26366   */\n      0x01\n        /* \"#utility.yul\":26360:26992   */\n      dup2\n      eq\n      tag_597\n      jumpi\n        /* \"#utility.yul\":27036:27037   */\n      0x00\n        /* \"#utility.yul\":27053:27059   */\n      dup5\n        /* \"#utility.yul\":27050:27134   */\n      iszero\n      tag_598\n      jumpi\n        /* \"#utility.yul\":27109:27118   */\n      dup3\n        /* \"#utility.yul\":27104:27107   */\n      dup8\n        /* \"#utility.yul\":27100:27119   */\n      add\n        /* \"#utility.yul\":27087:27120   */\n      calldataload\n        /* \"#utility.yul\":27078:27120   */\n      swap1\n      pop\n        /* \"#utility.yul\":27050:27134   */\n    tag_598:\n        /* \"#utility.yul\":27160:27227   */\n      tag_599\n        /* \"#utility.yul\":27220:27226   */\n      dup6\n        /* \"#utility.yul\":27213:27218   */\n      dup3\n        /* \"#utility.yul\":27160:27227   */\n      tag_350\n      jump\t// in\n    tag_599:\n        /* \"#utility.yul\":27154:27158   */\n      dup7\n        /* \"#utility.yul\":27147:27228   */\n      sstore\n        /* \"#utility.yul\":27009:27238   */\n      pop\n        /* \"#utility.yul\":26330:27238   */\n      jump(tag_596)\n        /* \"#utility.yul\":26360:26992   */\n    tag_597:\n        /* \"#utility.yul\":26412:26416   */\n      0x1f\n        /* \"#utility.yul\":26408:26417   */\n      not\n        /* \"#utility.yul\":26400:26406   */\n      dup5\n        /* \"#utility.yul\":26396:26418   */\n      and\n        /* \"#utility.yul\":26446:26483   */\n      tag_600\n        /* \"#utility.yul\":26478:26482   */\n      dup7\n        /* \"#utility.yul\":26446:26483   */\n      tag_336\n      jump\t// in\n    tag_600:\n        /* \"#utility.yul\":26505:26506   */\n      0x00\n        /* \"#utility.yul\":26519:26734   */\n    tag_601:\n        /* \"#utility.yul\":26533:26540   */\n      dup3\n        /* \"#utility.yul\":26530:26531   */\n      dup2\n        /* \"#utility.yul\":26527:26541   */\n      lt\n        /* \"#utility.yul\":26519:26734   */\n      iszero\n      tag_603\n      jumpi\n        /* \"#utility.yul\":26619:26628   */\n      dup5\n        /* \"#utility.yul\":26614:26617   */\n      dup10\n        /* \"#utility.yul\":26610:26629   */\n      add\n        /* \"#utility.yul\":26597:26630   */\n      calldataload\n        /* \"#utility.yul\":26589:26595   */\n      dup3\n        /* \"#utility.yul\":26582:26631   */\n      sstore\n        /* \"#utility.yul\":26670:26671   */\n      0x01\n        /* \"#utility.yul\":26662:26668   */\n      dup3\n        /* \"#utility.yul\":26658:26672   */\n      add\n        /* \"#utility.yul\":26648:26672   */\n      swap2\n      pop\n        /* \"#utility.yul\":26717:26719   */\n      0x20\n        /* \"#utility.yul\":26706:26715   */\n      dup6\n        /* \"#utility.yul\":26702:26720   */\n      add\n        /* \"#utility.yul\":26689:26720   */\n      swap5\n      pop\n        /* \"#utility.yul\":26556:26560   */\n      0x20\n        /* \"#utility.yul\":26553:26554   */\n      dup2\n        /* \"#utility.yul\":26549:26561   */\n      add\n        /* \"#utility.yul\":26544:26561   */\n      swap1\n      pop\n        /* \"#utility.yul\":26519:26734   */\n      jump(tag_601)\n    tag_603:\n        /* \"#utility.yul\":26762:26768   */\n      dup7\n        /* \"#utility.yul\":26753:26760   */\n      dup4\n        /* \"#utility.yul\":26750:26769   */\n      lt\n        /* \"#utility.yul\":26747:26933   */\n      iszero\n      tag_604\n      jumpi\n        /* \"#utility.yul\":26827:26836   */\n      dup5\n        /* \"#utility.yul\":26822:26825   */\n      dup10\n        /* \"#utility.yul\":26818:26837   */\n      add\n        /* \"#utility.yul\":26805:26838   */\n      calldataload\n        /* \"#utility.yul\":26870:26918   */\n      tag_605\n        /* \"#utility.yul\":26912:26916   */\n      0x1f\n        /* \"#utility.yul\":26904:26910   */\n      dup10\n        /* \"#utility.yul\":26900:26917   */\n      and\n        /* \"#utility.yul\":26889:26898   */\n      dup3\n        /* \"#utility.yul\":26870:26918   */\n      tag_349\n      jump\t// in\n    tag_605:\n        /* \"#utility.yul\":26862:26868   */\n      dup4\n        /* \"#utility.yul\":26855:26919   */\n      sstore\n        /* \"#utility.yul\":26770:26933   */\n      pop\n        /* \"#utility.yul\":26747:26933   */\n    tag_604:\n        /* \"#utility.yul\":26979:26980   */\n      0x01\n        /* \"#utility.yul\":26975:26976   */\n      0x02\n        /* \"#utility.yul\":26967:26973   */\n      dup9\n        /* \"#utility.yul\":26963:26977   */\n      mul\n        /* \"#utility.yul\":26959:26981   */\n      add\n        /* \"#utility.yul\":26953:26957   */\n      dup9\n        /* \"#utility.yul\":26946:26982   */\n      sstore\n        /* \"#utility.yul\":26367:26992   */\n      pop\n      pop\n      pop\n        /* \"#utility.yul\":26330:27238   */\n    tag_596:\n      pop\n        /* \"#utility.yul\":25940:27244   */\n      pop\n      pop\n      pop\n        /* \"#utility.yul\":25841:27244   */\n      pop\n      pop\n      pop\n      jump\t// out\n        /* \"#utility.yul\":27250:27472   */\n    tag_73:\n        /* \"#utility.yul\":27343:27347   */\n      0x00\n        /* \"#utility.yul\":27381:27383   */\n      0x20\n        /* \"#utility.yul\":27370:27379   */\n      dup3\n        /* \"#utility.yul\":27366:27384   */\n      add\n        /* \"#utility.yul\":27358:27384   */\n      swap1\n      pop\n        /* \"#utility.yul\":27394:27465   */\n      tag_607\n        /* \"#utility.yul\":27462:27463   */\n      0x00\n        /* \"#utility.yul\":27451:27460   */\n      dup4\n        /* \"#utility.yul\":27447:27464   */\n      add\n        /* \"#utility.yul\":27438:27444   */\n      dup5\n        /* \"#utility.yul\":27394:27465   */\n      tag_294\n      jump\t// in\n    tag_607:\n        /* \"#utility.yul\":27250:27472   */\n      swap3\n      swap2\n      pop\n      pop\n      jump\t// out\n        /* \"#utility.yul\":27478:28873   */\n    tag_109:\n        /* \"#utility.yul\":27595:27632   */\n      tag_609\n        /* \"#utility.yul\":27628:27631   */\n      dup3\n        /* \"#utility.yul\":27595:27632   */\n      tag_295\n      jump\t// in\n    tag_609:\n        /* \"#utility.yul\":27697:27715   */\n      0xffffffffffffffff\n        /* \"#utility.yul\":27689:27695   */\n      dup2\n        /* \"#utility.yul\":27686:27716   */\n      gt\n        /* \"#utility.yul\":27683:27739   */\n      iszero\n      tag_610\n      jumpi\n        /* \"#utility.yul\":27719:27737   */\n      tag_611\n      tag_334\n      jump\t// in\n    tag_611:\n        /* \"#utility.yul\":27683:27739   */\n    tag_610:\n        /* \"#utility.yul\":27763:27801   */\n      tag_612\n        /* \"#utility.yul\":27795:27799   */\n      dup3\n        /* \"#utility.yul\":27789:27800   */\n      sload\n        /* \"#utility.yul\":27763:27801   */\n      tag_82\n      jump\t// in\n    tag_612:\n        /* \"#utility.yul\":27848:27915   */\n      tag_613\n        /* \"#utility.yul\":27908:27914   */\n      dup3\n        /* \"#utility.yul\":27900:27906   */\n      dup3\n        /* \"#utility.yul\":27894:27898   */\n      dup6\n        /* \"#utility.yul\":27848:27915   */\n      tag_347\n      jump\t// in\n    tag_613:\n        /* \"#utility.yul\":27942:27943   */\n      0x00\n        /* \"#utility.yul\":27966:27970   */\n      0x20\n        /* \"#utility.yul\":27953:27970   */\n      swap1\n      pop\n        /* \"#utility.yul\":27998:28000   */\n      0x1f\n        /* \"#utility.yul\":27990:27996   */\n      dup4\n        /* \"#utility.yul\":27987:28001   */\n      gt\n        /* \"#utility.yul\":28015:28016   */\n      0x01\n        /* \"#utility.yul\":28010:28628   */\n      dup2\n      eq\n      tag_615\n      jumpi\n        /* \"#utility.yul\":28672:28673   */\n      0x00\n        /* \"#utility.yul\":28689:28695   */\n      dup5\n        /* \"#utility.yul\":28686:28763   */\n      iszero\n      tag_616\n      jumpi\n        /* \"#utility.yul\":28738:28747   */\n      dup3\n        /* \"#utility.yul\":28733:28736   */\n      dup8\n        /* \"#utility.yul\":28729:28748   */\n      add\n        /* \"#utility.yul\":28723:28749   */\n      mload\n        /* \"#utility.yul\":28714:28749   */\n      swap1\n      pop\n        /* \"#utility.yul\":28686:28763   */\n    tag_616:\n        /* \"#utility.yul\":28789:28856   */\n      tag_617\n        /* \"#utility.yul\":28849:28855   */\n      dup6\n        /* \"#utility.yul\":28842:28847   */\n      dup3\n        /* \"#utility.yul\":28789:28856   */\n      tag_350\n      jump\t// in\n    tag_617:\n        /* \"#utility.yul\":28783:28787   */\n      dup7\n        /* \"#utility.yul\":28776:28857   */\n      sstore\n        /* \"#utility.yul\":28645:28867   */\n      pop\n        /* \"#utility.yul\":27980:28867   */\n      jump(tag_614)\n        /* \"#utility.yul\":28010:28628   */\n    tag_615:\n        /* \"#utility.yul\":28062:28066   */\n      0x1f\n        /* \"#utility.yul\":28058:28067   */\n      not\n        /* \"#utility.yul\":28050:28056   */\n      dup5\n        /* \"#utility.yul\":28046:28068   */\n      and\n        /* \"#utility.yul\":28096:28133   */\n      tag_618\n        /* \"#utility.yul\":28128:28132   */\n      dup7\n        /* \"#utility.yul\":28096:28133   */\n      tag_336\n      jump\t// in\n    tag_618:\n        /* \"#utility.yul\":28155:28156   */\n      0x00\n        /* \"#utility.yul\":28169:28377   */\n    tag_619:\n        /* \"#utility.yul\":28183:28190   */\n      dup3\n        /* \"#utility.yul\":28180:28181   */\n      dup2\n        /* \"#utility.yul\":28177:28191   */\n      lt\n        /* \"#utility.yul\":28169:28377   */\n      iszero\n      tag_621\n      jumpi\n        /* \"#utility.yul\":28262:28271   */\n      dup5\n        /* \"#utility.yul\":28257:28260   */\n      dup10\n        /* \"#utility.yul\":28253:28272   */\n      add\n        /* \"#utility.yul\":28247:28273   */\n      mload\n        /* \"#utility.yul\":28239:28245   */\n      dup3\n        /* \"#utility.yul\":28232:28274   */\n      sstore\n        /* \"#utility.yul\":28313:28314   */\n      0x01\n        /* \"#utility.yul\":28305:28311   */\n      dup3\n        /* \"#utility.yul\":28301:28315   */\n      add\n        /* \"#utility.yul\":28291:28315   */\n      swap2\n      pop\n        /* \"#utility.yul\":28360:28362   */\n      0x20\n        /* \"#utility.yul\":28349:28358   */\n      dup6\n        /* \"#utility.yul\":28345:28363   */\n      add\n        /* \"#utility.yul\":28332:28363   */\n      swap5\n      pop\n        /* \"#utility.yul\":28206:28210   */\n      0x20\n        /* \"#utility.yul\":28203:28204   */\n      dup2\n        /* \"#utility.yul\":28199:28211   */\n      add\n        /* \"#utility.yul\":28194:28211   */\n      swap1\n      pop\n        /* \"#utility.yul\":28169:28377   */\n      jump(tag_619)\n    tag_621:\n        /* \"#utility.yul\":28405:28411   */\n      dup7\n        /* \"#utility.yul\":28396:28403   */\n      dup4\n        /* \"#utility.yul\":28393:28412   */\n      lt\n        /* \"#utility.yul\":28390:28569   */\n      iszero\n      tag_622\n      jumpi\n        /* \"#utility.yul\":28463:28472   */\n      dup5\n        /* \"#utility.yul\":28458:28461   */\n      dup10\n        /* \"#utility.yul\":28454:28473   */\n      add\n        /* \"#utility.yul\":28448:28474   */\n      mload\n        /* \"#utility.yul\":28506:28554   */\n      tag_623\n        /* \"#utility.yul\":28548:28552   */\n      0x1f\n        /* \"#utility.yul\":28540:28546   */\n      dup10\n        /* \"#utility.yul\":28536:28553   */\n      and\n        /* \"#utility.yul\":28525:28534   */\n      dup3\n        /* \"#utility.yul\":28506:28554   */\n      tag_349\n      jump\t// in\n    tag_623:\n        /* \"#utility.yul\":28498:28504   */\n      dup4\n        /* \"#utility.yul\":28491:28555   */\n      sstore\n        /* \"#utility.yul\":28413:28569   */\n      pop\n        /* \"#utility.yul\":28390:28569   */\n    tag_622:\n        /* \"#utility.yul\":28615:28616   */\n      0x01\n        /* \"#utility.yul\":28611:28612   */\n      0x02\n        /* \"#utility.yul\":28603:28609   */\n      dup9\n        /* \"#utility.yul\":28599:28613   */\n      mul\n        /* \"#utility.yul\":28595:28617   */\n      add\n        /* \"#utility.yul\":28589:28593   */\n      dup9\n        /* \"#utility.yul\":28582:28618   */\n      sstore\n        /* \"#utility.yul\":28017:28628   */\n      pop\n      pop\n      pop\n        /* \"#utility.yul\":27980:28867   */\n    tag_614:\n      pop\n        /* \"#utility.yul\":27570:28873   */\n      pop\n      pop\n      pop\n        /* \"#utility.yul\":27478:28873   */\n      pop\n      pop\n      jump\t// out\n        /* \"#utility.yul\":28879:29028   */\n    tag_351:\n        /* \"#utility.yul\":28928:28934   */\n      0x00\n        /* \"#utility.yul\":28962:28967   */\n      dup2\n        /* \"#utility.yul\":28956:28968   */\n      sload\n        /* \"#utility.yul\":28946:28968   */\n      swap1\n      pop\n        /* \"#utility.yul\":28988:29021   */\n      tag_625\n        /* \"#utility.yul\":29014:29020   */\n      dup2\n        /* \"#utility.yul\":28988:29021   */\n      tag_82\n      jump\t// in\n    tag_625:\n        /* \"#utility.yul\":28978:29021   */\n      swap1\n      pop\n        /* \"#utility.yul\":28879:29028   */\n      swap2\n      swap1\n      pop\n      jump\t// out\n        /* \"#utility.yul\":29034:30485   */\n    tag_215:\n        /* \"#utility.yul\":29145:29148   */\n      dup2\n        /* \"#utility.yul\":29139:29143   */\n      dup2\n        /* \"#utility.yul\":29136:29149   */\n      sub\n        /* \"#utility.yul\":29133:29159   */\n      tag_627\n      jumpi\n        /* \"#utility.yul\":29152:29157   */\n      pop\n      pop\n      jump(tag_626)\n        /* \"#utility.yul\":29133:29159   */\n    tag_627:\n        /* \"#utility.yul\":29183:29217   */\n      tag_628\n        /* \"#utility.yul\":29213:29216   */\n      dup3\n        /* \"#utility.yul\":29183:29217   */\n      tag_351\n      jump\t// in\n    tag_628:\n        /* \"#utility.yul\":29282:29300   */\n      0xffffffffffffffff\n        /* \"#utility.yul\":29274:29280   */\n      dup2\n        /* \"#utility.yul\":29271:29301   */\n      gt\n        /* \"#utility.yul\":29268:29324   */\n      iszero\n      tag_629\n      jumpi\n        /* \"#utility.yul\":29304:29322   */\n      tag_630\n      tag_334\n      jump\t// in\n    tag_630:\n        /* \"#utility.yul\":29268:29324   */\n    tag_629:\n        /* \"#utility.yul\":29348:29386   */\n      tag_631\n        /* \"#utility.yul\":29380:29384   */\n      dup3\n        /* \"#utility.yul\":29374:29385   */\n      sload\n        /* \"#utility.yul\":29348:29386   */\n      tag_82\n      jump\t// in\n    tag_631:\n        /* \"#utility.yul\":29433:29500   */\n      tag_632\n        /* \"#utility.yul\":29493:29499   */\n      dup3\n        /* \"#utility.yul\":29485:29491   */\n      dup3\n        /* \"#utility.yul\":29479:29483   */\n      dup6\n        /* \"#utility.yul\":29433:29500   */\n      tag_347\n      jump\t// in\n    tag_632:\n        /* \"#utility.yul\":29527:29528   */\n      0x00\n        /* \"#utility.yul\":29556:29558   */\n      0x1f\n        /* \"#utility.yul\":29548:29554   */\n      dup4\n        /* \"#utility.yul\":29545:29559   */\n      gt\n        /* \"#utility.yul\":29573:29574   */\n      0x01\n        /* \"#utility.yul\":29568:30240   */\n      dup2\n      eq\n      tag_634\n      jumpi\n        /* \"#utility.yul\":30284:30285   */\n      0x00\n        /* \"#utility.yul\":30301:30307   */\n      dup5\n        /* \"#utility.yul\":30298:30375   */\n      iszero\n      tag_635\n      jumpi\n        /* \"#utility.yul\":30350:30359   */\n      dup3\n        /* \"#utility.yul\":30345:30348   */\n      dup8\n        /* \"#utility.yul\":30341:30360   */\n      add\n        /* \"#utility.yul\":30335:30361   */\n      sload\n        /* \"#utility.yul\":30326:30361   */\n      swap1\n      pop\n        /* \"#utility.yul\":30298:30375   */\n    tag_635:\n        /* \"#utility.yul\":30401:30468   */\n      tag_636\n        /* \"#utility.yul\":30461:30467   */\n      dup6\n        /* \"#utility.yul\":30454:30459   */\n      dup3\n        /* \"#utility.yul\":30401:30468   */\n      tag_350\n      jump\t// in\n    tag_636:\n        /* \"#utility.yul\":30395:30399   */\n      dup7\n        /* \"#utility.yul\":30388:30469   */\n      sstore\n        /* \"#utility.yul\":30257:30479   */\n      pop\n        /* \"#utility.yul\":29538:30479   */\n      jump(tag_633)\n        /* \"#utility.yul\":29568:30240   */\n    tag_634:\n        /* \"#utility.yul\":29620:29624   */\n      0x1f\n        /* \"#utility.yul\":29616:29625   */\n      not\n        /* \"#utility.yul\":29608:29614   */\n      dup5\n        /* \"#utility.yul\":29604:29626   */\n      and\n        /* \"#utility.yul\":29646:29682   */\n      tag_637\n        /* \"#utility.yul\":29678:29681   */\n      dup8\n        /* \"#utility.yul\":29646:29682   */\n      tag_336\n      jump\t// in\n    tag_637:\n        /* \"#utility.yul\":29639:29682   */\n      swap7\n      pop\n        /* \"#utility.yul\":29709:29746   */\n      tag_638\n        /* \"#utility.yul\":29741:29745   */\n      dup7\n        /* \"#utility.yul\":29709:29746   */\n      tag_336\n      jump\t// in\n    tag_638:\n        /* \"#utility.yul\":29768:29769   */\n      0x00\n        /* \"#utility.yul\":29782:29989   */\n    tag_639:\n        /* \"#utility.yul\":29796:29803   */\n      dup3\n        /* \"#utility.yul\":29793:29794   */\n      dup2\n        /* \"#utility.yul\":29790:29804   */\n      lt\n        /* \"#utility.yul\":29782:29989   */\n      iszero\n      tag_641\n      jumpi\n        /* \"#utility.yul\":29875:29884   */\n      dup5\n        /* \"#utility.yul\":29870:29873   */\n      dup10\n        /* \"#utility.yul\":29866:29885   */\n      add\n        /* \"#utility.yul\":29860:29886   */\n      sload\n        /* \"#utility.yul\":29852:29858   */\n      dup3\n        /* \"#utility.yul\":29845:29887   */\n      sstore\n        /* \"#utility.yul\":29926:29927   */\n      0x01\n        /* \"#utility.yul\":29918:29924   */\n      dup3\n        /* \"#utility.yul\":29914:29928   */\n      add\n        /* \"#utility.yul\":29904:29928   */\n      swap2\n      pop\n        /* \"#utility.yul\":29973:29974   */\n      0x01\n        /* \"#utility.yul\":29962:29971   */\n      dup6\n        /* \"#utility.yul\":29958:29975   */\n      add\n        /* \"#utility.yul\":29945:29975   */\n      swap5\n      pop\n        /* \"#utility.yul\":29819:29823   */\n      0x20\n        /* \"#utility.yul\":29816:29817   */\n      dup2\n        /* \"#utility.yul\":29812:29824   */\n      add\n        /* \"#utility.yul\":29807:29824   */\n      swap1\n      pop\n        /* \"#utility.yul\":29782:29989   */\n      jump(tag_639)\n    tag_641:\n        /* \"#utility.yul\":30017:30023   */\n      dup7\n        /* \"#utility.yul\":30008:30015   */\n      dup4\n        /* \"#utility.yul\":30005:30024   */\n      lt\n        /* \"#utility.yul\":30002:30181   */\n      iszero\n      tag_642\n      jumpi\n        /* \"#utility.yul\":30075:30084   */\n      dup5\n        /* \"#utility.yul\":30070:30073   */\n      dup10\n        /* \"#utility.yul\":30066:30085   */\n      add\n        /* \"#utility.yul\":30060:30086   */\n      sload\n        /* \"#utility.yul\":30118:30166   */\n      tag_643\n        /* \"#utility.yul\":30160:30164   */\n      0x1f\n        /* \"#utility.yul\":30152:30158   */\n      dup10\n        /* \"#utility.yul\":30148:30165   */\n      and\n        /* \"#utility.yul\":30137:30146   */\n      dup3\n        /* \"#utility.yul\":30118:30166   */\n      tag_349\n      jump\t// in\n    tag_643:\n        /* \"#utility.yul\":30110:30116   */\n      dup4\n        /* \"#utility.yul\":30103:30167   */\n      sstore\n        /* \"#utility.yul\":30025:30181   */\n      pop\n        /* \"#utility.yul\":30002:30181   */\n    tag_642:\n        /* \"#utility.yul\":30227:30228   */\n      0x01\n        /* \"#utility.yul\":30223:30224   */\n      0x02\n        /* \"#utility.yul\":30215:30221   */\n      dup9\n        /* \"#utility.yul\":30211:30225   */\n      mul\n        /* \"#utility.yul\":30207:30229   */\n      add\n        /* \"#utility.yul\":30201:30205   */\n      dup9\n        /* \"#utility.yul\":30194:30230   */\n      sstore\n        /* \"#utility.yul\":29575:30240   */\n      pop\n      pop\n      pop\n        /* \"#utility.yul\":29538:30479   */\n    tag_633:\n      pop\n        /* \"#utility.yul\":29123:30485   */\n      pop\n      pop\n      pop\n        /* \"#utility.yul\":29034:30485   */\n      pop\n      pop\n    tag_626:\n      jump\t// out\n    stop\n    data_05dea7a4b749a72103fdaacfd8c830026d599fd95b58e235d7a5b87bda223903 5468652063616c6c657220646f6573206e6f74206861766520612063726561746f722070726f66696c65\n    data_9755ada8cad867ffa51d229fac4adc70eea3cdc0842b0add29f0fba8b4558158 5468652063616c6c657220646f6573206e6f74206861766520616e206170706c6963616e742070726f66696c65\n\n    auxdata: 0xa2646970667358221220df20adc97ad0dc15f758859c487b20222b3fb6118d1c2f15653efeea8e29cbcb64736f6c634300081e0033\n}\n",
				"bytecode": {
					"linkReferences": {},
					"object": "6080604052348015600e575f5ffd5b50335f5f6101000a81548173ffffffffffffffffffffffffffffffffffffffff021916908373ffffffffffffffffffffffffffffffffffffffff1602179055506132478061005b5f395ff3fe608060405234801561000f575f5ffd5b5060043610610086575f3560e01c806392b2a7911161005957806392b2a7911461011257806395b04be214610148578063d4bb7d2e1461017f578063e06f74841461019b57610086565b80632ae4bc551461008a5780633cb50276146100a6578063699687cf146100c257806387e6446f146100f6575b5f5ffd5b6100a4600480360381019061009f9190612320565b6101cf565b005b6100c060048036038101906100bb9190612437565b6105e2565b005b6100dc60048036038101906100d791906124c8565b610be7565b6040516100ed959493929190612832565b60405180910390f35b610110600480360381019061010b9190612320565b610fe4565b005b61012c600480360381019061012791906128bb565b6113db565b60405161013f9796959493929190612904565b60405180910390f35b610162600480360381019061015d91906128bb565b61165c565b6040516101769897969594939291906129a7565b60405180910390f35b61019960048036038101906101949190612a3f565b6118f1565b005b6101b560048036038101906101b091906124c8565b611d70565b6040516101c6959493929190612b89565b60405180910390f35b85855f1515600583836040516101e6929190612c2b565b90815260200160405180910390205f9054906101000a900460ff16151514801561023f57505f151560068383604051610220929190612c2b565b90815260200160405180910390205f9054906101000a900460ff161515145b6040518060400160405280601581526020017f456d61696c20616c726561647920657869737473210000000000000000000000815250906102b6576040517f08c379a00000000000000000000000000000000000000000000000000000000081526004016102ad9190612c43565b60405180910390fd5b505f151560075f3373ffffffffffffffffffffffffffffffffffffffff1673ffffffffffffffffffffffffffffffffffffffff1681526020019081526020015f205f9054906101000a900460ff16151514801561035f57505f151560085f3373ffffffffffffffffffffffffffffffffffffffff1673ffffffffffffffffffffffffffffffffffffffff1681526020019081526020015f205f9054906101000a900460ff161515145b6040518060400160405280601781526020017f4164647265737320616c72656164792065786973747321000000000000000000815250906103d6576040517f08c379a00000000000000000000000000000000000000000000000000000000081526004016103cd9190612c43565b60405180910390fd5b505f60035f81546103e690612c90565b91905081905590505f60015f3373ffffffffffffffffffffffffffffffffffffffff1673ffffffffffffffffffffffffffffffffffffffff1681526020019081526020015f20905081815f01819055508b8b826002019182610449929190612f0b565b50898982600101918261045d929190612f0b565b508787826004019182610471929190612f0b565b508585826003019182610485929190612f0b565b50600160058b8b60405161049a929190612c2b565b90815260200160405180910390205f6101000a81548160ff021916908315150217905550600160075f3373ffffffffffffffffffffffffffffffffffffffff1673ffffffffffffffffffffffffffffffffffffffff1681526020019081526020015f205f6101000a81548160ff0219169083151502179055505f8160050160146101000a81548160ff0219169083151502179055505f8160050160156101000a81548160ff0219169083600181111561055657610555612608565b5b021790555033816005015f6101000a81548173ffffffffffffffffffffffffffffffffffffffff021916908373ffffffffffffffffffffffffffffffffffffffff1602179055507fd1a7c154123ed5a80a1f9c4596757daf4b73c53e8bc15299d58a4be0ca505814826040516105cc9190612fd8565b60405180910390a1505050505050505050505050565b336001151560075f8373ffffffffffffffffffffffffffffffffffffffff1673ffffffffffffffffffffffffffffffffffffffff1681526020019081526020015f205f9054906101000a900460ff161515146040518060600160405280602a81526020016131bb602a91399061068e576040517f08c379a00000000000000000000000000000000000000000000000000000000081526004016106859190612c43565b60405180910390fd5b505f60095f815461069e90612c90565b91905081905590505f600a5f8381526020019081526020015f20905081815f018190555087878260010191826106d5929190612f0b565b5085858260020191826106e9929190612f0b565b508381600301819055505f60015f3373ffffffffffffffffffffffffffffffffffffffff1673ffffffffffffffffffffffffffffffffffffffff1681526020019081526020015f20604051806101200160405290815f820154815260200160018201805461075690612d3b565b80601f016020809104026020016040519081016040528092919081815260200182805461078290612d3b565b80156107cd5780601f106107a4576101008083540402835291602001916107cd565b820191905f5260205f20905b8154815290600101906020018083116107b057829003601f168201915b505050505081526020016002820180546107e690612d3b565b80601f016020809104026020016040519081016040528092919081815260200182805461081290612d3b565b801561085d5780601f106108345761010080835404028352916020019161085d565b820191905f5260205f20905b81548152906001019060200180831161084057829003601f168201915b5050505050815260200160038201805461087690612d3b565b80601f01602080910402602001604051908101604052809291908181526020018280546108a290612d3b565b80156108ed5780601f106108c4576101008083540402835291602001916108ed565b820191905f5260205f20905b8154815290600101906020018083116108d057829003601f168201915b5050505050815260200160048201805461090690612d3b565b80601f016020809104026020016040519081016040528092919081815260200182805461093290612d3b565b801561097d5780601f106109545761010080835404028352916020019161097d565b820191905f5260205f20905b81548152906001019060200180831161096057829003601f168201915b50505050508152602001600582015f9054906101000a900473ffffffffffffffffffffffffffffffffffffffff1673ffffffffffffffffffffffffffffffffffffffff1673ffffffffffffffffffffffffffffffffffffffff1681526020016005820160149054906101000a900460ff161515151581526020016005820160159054906101000a900460ff166001811115610a1b57610a1a612608565b5b6001811115610a2d57610a2c612608565b5b815260200160068201805480602002602001604051908101604052809291908181526020018280548015610a7e57602002820191905f5260205f20905b815481526020019060010190808311610a6a575b505050505081525050905080826004015f820151815f01556020820151816001019081610aab9190612ff1565b506040820151816002019081610ac19190612ff1565b506060820151816003019081610ad79190612ff1565b506080820151816004019081610aed9190612ff1565b5060a0820151816005015f6101000a81548173ffffffffffffffffffffffffffffffffffffffff021916908373ffffffffffffffffffffffffffffffffffffffff16021790555060c08201518160050160146101000a81548160ff02191690831515021790555060e08201518160050160156101000a81548160ff02191690836001811115610b7f57610b7e612608565b5b0217905550610100820151816006019080519060200190610ba1929190612203565b509050507f92447c6ecd808d390fb352da0dc90a05275b074c43bf302132a27fabafa6872b83604051610bd49190612fd8565b60405180910390a1505050505050505050565b600c602052805f5260405f205f91509050805f015490806001015490806002018054610c1290612d3b565b80601f0160208091040260200160405190810160405280929190818152602001828054610c3e90612d3b565b8015610c895780601f10610c6057610100808354040283529160200191610c89565b820191905f5260205f20905b815481529060010190602001808311610c6c57829003601f168201915b50505050509080600301604051806101000160405290815f8201548152602001600182015f9054906101000a900473ffffffffffffffffffffffffffffffffffffffff1673ffffffffffffffffffffffffffffffffffffffff1673ffffffffffffffffffffffffffffffffffffffff168152602001600282018054610d0d90612d3b565b80601f0160208091040260200160405190810160405280929190818152602001828054610d3990612d3b565b8015610d845780601f10610d5b57610100808354040283529160200191610d84565b820191905f5260205f20905b815481529060010190602001808311610d6757829003601f168201915b50505050508152602001600382018054610d9d90612d3b565b80601f0160208091040260200160405190810160405280929190818152602001828054610dc990612d3b565b8015610e145780601f10610deb57610100808354040283529160200191610e14565b820191905f5260205f20905b815481529060010190602001808311610df757829003601f168201915b50505050508152602001600482018054610e2d90612d3b565b80601f0160208091040260200160405190810160405280929190818152602001828054610e5990612d3b565b8015610ea45780601f10610e7b57610100808354040283529160200191610ea4565b820191905f5260205f20905b815481529060010190602001808311610e8757829003601f168201915b50505050508152602001600582018054610ebd90612d3b565b80601f0160208091040260200160405190810160405280929190818152602001828054610ee990612d3b565b8015610f345780601f10610f0b57610100808354040283529160200191610f34565b820191905f5260205f20905b815481529060010190602001808311610f1757829003601f168201915b50505050508152602001600682015f9054906101000a900460ff166001811115610f6157610f60612608565b5b6001811115610f7357610f72612608565b5b815260200160078201805480602002602001604051908101604052809291908181526020018280548015610fc457602002820191905f5260205f20905b815481526020019060010190808311610fb0575b5050505050815250509080600b015f9054906101000a900460ff16905085565b85855f151560058383604051610ffb929190612c2b565b90815260200160405180910390205f9054906101000a900460ff16151514801561105457505f151560068383604051611035929190612c2b565b90815260200160405180910390205f9054906101000a900460ff161515145b6040518060400160405280601581526020017f456d61696c20616c726561647920657869737473210000000000000000000000815250906110cb576040517f08c379a00000000000000000000000000000000000000000000000000000000081526004016110c29190612c43565b60405180910390fd5b505f151560075f3373ffffffffffffffffffffffffffffffffffffffff1673ffffffffffffffffffffffffffffffffffffffff1681526020019081526020015f205f9054906101000a900460ff16151514801561117457505f151560085f3373ffffffffffffffffffffffffffffffffffffffff1673ffffffffffffffffffffffffffffffffffffffff1681526020019081526020015f205f9054906101000a900460ff161515145b6040518060400160405280601781526020017f4164647265737320616c72656164792065786973747321000000000000000000815250906111eb576040517f08c379a00000000000000000000000000000000000000000000000000000000081526004016111e29190612c43565b60405180910390fd5b505f60045f81546111fb90612c90565b91905081905590505f60025f3373ffffffffffffffffffffffffffffffffffffffff1673ffffffffffffffffffffffffffffffffffffffff1681526020019081526020015f20905081815f01819055508b8b82600201918261125e929190612f0b565b508989826003019182611272929190612f0b565b508787826004019182611286929190612f0b565b50858582600501918261129a929190612f0b565b50600160068b8b6040516112af929190612c2b565b90815260200160405180910390205f6101000a81548160ff021916908315150217905550600160085f3373ffffffffffffffffffffffffffffffffffffffff1673ffffffffffffffffffffffffffffffffffffffff1681526020019081526020015f205f6101000a81548160ff0219169083151502179055506001816006015f6101000a81548160ff0219169083600181111561134f5761134e612608565b5b021790555033816001015f6101000a81548173ffffffffffffffffffffffffffffffffffffffff021916908373ffffffffffffffffffffffffffffffffffffffff1602179055507f7a7674d49ab4ac57338891a3e15ebdbe5e6abbb1637fc6c5cfa506e2fa360ad0826040516113c59190612fd8565b60405180910390a1505050505050505050505050565b6002602052805f5260405f205f91509050805f015490806001015f9054906101000a900473ffffffffffffffffffffffffffffffffffffffff169080600201805461142590612d3b565b80601f016020809104026020016040519081016040528092919081815260200182805461145190612d3b565b801561149c5780601f106114735761010080835404028352916020019161149c565b820191905f5260205f20905b81548152906001019060200180831161147f57829003601f168201915b5050505050908060030180546114b190612d3b565b80601f01602080910402602001604051908101604052809291908181526020018280546114dd90612d3b565b80156115285780601f106114ff57610100808354040283529160200191611528565b820191905f5260205f20905b81548152906001019060200180831161150b57829003601f168201915b50505050509080600401805461153d90612d3b565b80601f016020809104026020016040519081016040528092919081815260200182805461156990612d3b565b80156115b45780601f1061158b576101008083540402835291602001916115b4565b820191905f5260205f20905b81548152906001019060200180831161159757829003601f168201915b5050505050908060050180546115c990612d3b565b80601f01602080910402602001604051908101604052809291908181526020018280546115f590612d3b565b80156116405780601f1061161757610100808354040283529160200191611640565b820191905f5260205f20905b81548152906001019060200180831161162357829003601f168201915b505050505090806006015f9054906101000a900460ff16905087565b6001602052805f5260405f205f91509050805f01549080600101805461168190612d3b565b80601f01602080910402602001604051908101604052809291908181526020018280546116ad90612d3b565b80156116f85780601f106116cf576101008083540402835291602001916116f8565b820191905f5260205f20905b8154815290600101906020018083116116db57829003601f168201915b50505050509080600201805461170d90612d3b565b80601f016020809104026020016040519081016040528092919081815260200182805461173990612d3b565b80156117845780601f1061175b57610100808354040283529160200191611784565b820191905f5260205f20905b81548152906001019060200180831161176757829003601f168201915b50505050509080600301805461179990612d3b565b80601f01602080910402602001604051908101604052809291908181526020018280546117c590612d3b565b80156118105780601f106117e757610100808354040283529160200191611810565b820191905f5260205f20905b8154815290600101906020018083116117f357829003601f168201915b50505050509080600401805461182590612d3b565b80601f016020809104026020016040519081016040528092919081815260200182805461185190612d3b565b801561189c5780601f106118735761010080835404028352916020019161189c565b820191905f5260205f20905b81548152906001019060200180831161187f57829003601f168201915b505050505090806005015f9054906101000a900473ffffffffffffffffffffffffffffffffffffffff16908060050160149054906101000a900460ff16908060050160159054906101000a900460ff16905088565b336001151560085f8373ffffffffffffffffffffffffffffffffffffffff1673ffffffffffffffffffffffffffffffffffffffff1681526020019081526020015f205f9054906101000a900460ff161515146040518060600160405280602d81526020016131e5602d91399061199d576040517f08c379a00000000000000000000000000000000000000000000000000000000081526004016119949190612c43565b60405180910390fd5b505f600b5f81546119ad90612c90565b91905081905590505f600a5f8781526020019081526020015f2090505f600c5f8481526020019081526020015f20905082815f01819055508681600101819055508585826002019182611a01929190612f0b565b5060025f3373ffffffffffffffffffffffffffffffffffffffff1673ffffffffffffffffffffffffffffffffffffffff1681526020019081526020015f20816003015f820154815f0155600182015f9054906101000a900473ffffffffffffffffffffffffffffffffffffffff16816001015f6101000a81548173ffffffffffffffffffffffffffffffffffffffff021916908373ffffffffffffffffffffffffffffffffffffffff16021790555060028201816002019081611ac491906130d5565b5060038201816003019081611ad991906130d5565b5060048201816004019081611aee91906130d5565b5060058201816005019081611b0391906130d5565b50600682015f9054906101000a900460ff16816006015f6101000a81548160ff02191690836001811115611b3a57611b39612608565b5b02179055506007820181600701908054611b5592919061224e565b509050505f81600b015f6101000a81548160ff02191690836002811115611b7f57611b7e612608565b5b021790555081600b0181908060018154018082558091505060019003905f5260205f2090600c02015f909190919091505f820154815f01556001820154816001015560028201816002019081611bd591906130d5565b5060038201816003015f820154815f0155600182015f9054906101000a900473ffffffffffffffffffffffffffffffffffffffff16816001015f6101000a81548173ffffffffffffffffffffffffffffffffffffffff021916908373ffffffffffffffffffffffffffffffffffffffff16021790555060028201816002019081611c5f91906130d5565b5060038201816003019081611c7491906130d5565b5060048201816004019081611c8991906130d5565b5060058201816005019081611c9e91906130d5565b50600682015f9054906101000a900460ff16816006015f6101000a81548160ff02191690836001811115611cd557611cd4612608565b5b02179055506007820181600701908054611cf092919061224e565b505050600b82015f9054906101000a900460ff1681600b015f6101000a81548160ff02191690836002811115611d2957611d28612608565b5b021790555050507f4b6126472f7a5c1a21fe858797a6bb6ed361c62b74d480965163d30d68576d4f83604051611d5f9190612fd8565b60405180910390a150505050505050565b600a602052805f5260405f205f91509050805f015490806001018054611d9590612d3b565b80601f0160208091040260200160405190810160405280929190818152602001828054611dc190612d3b565b8015611e0c5780601f10611de357610100808354040283529160200191611e0c565b820191905f5260205f20905b815481529060010190602001808311611def57829003601f168201915b505050505090806002018054611e2190612d3b565b80601f0160208091040260200160405190810160405280929190818152602001828054611e4d90612d3b565b8015611e985780601f10611e6f57610100808354040283529160200191611e98565b820191905f5260205f20905b815481529060010190602001808311611e7b57829003601f168201915b50505050509080600301549080600401604051806101200160405290815f8201548152602001600182018054611ecd90612d3b565b80601f0160208091040260200160405190810160405280929190818152602001828054611ef990612d3b565b8015611f445780601f10611f1b57610100808354040283529160200191611f44565b820191905f5260205f20905b815481529060010190602001808311611f2757829003601f168201915b50505050508152602001600282018054611f5d90612d3b565b80601f0160208091040260200160405190810160405280929190818152602001828054611f8990612d3b565b8015611fd45780601f10611fab57610100808354040283529160200191611fd4565b820191905f5260205f20905b815481529060010190602001808311611fb757829003601f168201915b50505050508152602001600382018054611fed90612d3b565b80601f016020809104026020016040519081016040528092919081815260200182805461201990612d3b565b80156120645780601f1061203b57610100808354040283529160200191612064565b820191905f5260205f20905b81548152906001019060200180831161204757829003601f168201915b5050505050815260200160048201805461207d90612d3b565b80601f01602080910402602001604051908101604052809291908181526020018280546120a990612d3b565b80156120f45780601f106120cb576101008083540402835291602001916120f4565b820191905f5260205f20905b8154815290600101906020018083116120d757829003601f168201915b50505050508152602001600582015f9054906101000a900473ffffffffffffffffffffffffffffffffffffffff1673ffffffffffffffffffffffffffffffffffffffff1673ffffffffffffffffffffffffffffffffffffffff1681526020016005820160149054906101000a900460ff161515151581526020016005820160159054906101000a900460ff16600181111561219257612191612608565b5b60018111156121a4576121a3612608565b5b8152602001600682018054806020026020016040519081016040528092919081815260200182805480156121f557602002820191905f5260205f20905b8154815260200190600101908083116121e1575b505050505081525050905085565b828054828255905f5260205f2090810192821561223d579160200282015b8281111561223c578251825591602001919060010190612221565b5b50905061224a919061229c565b5090565b828054828255905f5260205f2090810192821561228b575f5260205f209182015b8281111561228a57825482559160010191906001019061226f565b5b509050612298919061229c565b5090565b5b808211156122b3575f815f90555060010161229d565b5090565b5f5ffd5b5f5ffd5b5f5ffd5b5f5ffd5b5f5ffd5b5f5f83601f8401126122e0576122df6122bf565b5b8235905067ffffffffffffffff8111156122fd576122fc6122c3565b5b602083019150836001820283011115612319576123186122c7565b5b9250929050565b5f5f5f5f5f5f5f5f6080898b03121561233c5761233b6122b7565b5b5f89013567ffffffffffffffff811115612359576123586122bb565b5b6123658b828c016122cb565b9850985050602089013567ffffffffffffffff811115612388576123876122bb565b5b6123948b828c016122cb565b9650965050604089013567ffffffffffffffff8111156123b7576123b66122bb565b5b6123c38b828c016122cb565b9450945050606089013567ffffffffffffffff8111156123e6576123e56122bb565b5b6123f28b828c016122cb565b92509250509295985092959890939650565b5f819050919050565b61241681612404565b8114612420575f5ffd5b50565b5f813590506124318161240d565b92915050565b5f5f5f5f5f606086880312156124505761244f6122b7565b5b5f86013567ffffffffffffffff81111561246d5761246c6122bb565b5b612479888289016122cb565b9550955050602086013567ffffffffffffffff81111561249c5761249b6122bb565b5b6124a8888289016122cb565b935093505060406124bb88828901612423565b9150509295509295909350565b5f602082840312156124dd576124dc6122b7565b5b5f6124ea84828501612423565b91505092915050565b6124fc81612404565b82525050565b5f81519050919050565b5f82825260208201905092915050565b8281835e5f83830152505050565b5f601f19601f8301169050919050565b5f61254482612502565b61254e818561250c565b935061255e81856020860161251c565b6125678161252a565b840191505092915050565b61257b81612404565b82525050565b5f73ffffffffffffffffffffffffffffffffffffffff82169050919050565b5f6125aa82612581565b9050919050565b6125ba816125a0565b82525050565b5f82825260208201905092915050565b5f6125da82612502565b6125e481856125c0565b93506125f481856020860161251c565b6125fd8161252a565b840191505092915050565b7f4e487b71000000000000000000000000000000000000000000000000000000005f52602160045260245ffd5b6002811061264657612645612608565b5b50565b5f81905061265682612635565b919050565b5f61266582612649565b9050919050565b6126758161265b565b82525050565b5f81519050919050565b5f82825260208201905092915050565b5f819050602082019050919050565b5f6126af8383612572565b60208301905092915050565b5f602082019050919050565b5f6126d18261267b565b6126db8185612685565b93506126e683612695565b805f5b838110156127165781516126fd88826126a4565b9750612708836126bb565b9250506001810190506126e9565b5085935050505092915050565b5f61010083015f8301516127395f860182612572565b50602083015161274c60208601826125b1565b506040830151848203604086015261276482826125d0565b9150506060830151848203606086015261277e82826125d0565b9150506080830151848203608086015261279882826125d0565b91505060a083015184820360a08601526127b282826125d0565b91505060c08301516127c760c086018261266c565b5060e083015184820360e08601526127df82826126c7565b9150508091505092915050565b600381106127fd576127fc612608565b5b50565b5f81905061280d826127ec565b919050565b5f61281c82612800565b9050919050565b61282c81612812565b82525050565b5f60a0820190506128455f8301886124f3565b61285260208301876124f3565b8181036040830152612864818661253a565b905081810360608301526128788185612723565b90506128876080830184612823565b9695505050505050565b61289a816125a0565b81146128a4575f5ffd5b50565b5f813590506128b581612891565b92915050565b5f602082840312156128d0576128cf6122b7565b5b5f6128dd848285016128a7565b91505092915050565b6128ef816125a0565b82525050565b6128fe8161265b565b82525050565b5f60e0820190506129175f83018a6124f3565b61292460208301896128e6565b8181036040830152612936818861253a565b9050818103606083015261294a818761253a565b9050818103608083015261295e818661253a565b905081810360a0830152612972818561253a565b905061298160c08301846128f5565b98975050505050505050565b5f8115159050919050565b6129a18161298d565b82525050565b5f610100820190506129bb5f83018b6124f3565b81810360208301526129cd818a61253a565b905081810360408301526129e1818961253a565b905081810360608301526129f5818861253a565b90508181036080830152612a09818761253a565b9050612a1860a08301866128e6565b612a2560c0830185612998565b612a3260e08301846128f5565b9998505050505050505050565b5f5f5f60408486031215612a5657612a556122b7565b5b5f612a6386828701612423565b935050602084013567ffffffffffffffff811115612a8457612a836122bb565b5b612a90868287016122cb565b92509250509250925092565b612aa58161298d565b82525050565b5f61012083015f830151612ac15f860182612572565b5060208301518482036020860152612ad982826125d0565b91505060408301518482036040860152612af382826125d0565b91505060608301518482036060860152612b0d82826125d0565b91505060808301518482036080860152612b2782826125d0565b91505060a0830151612b3c60a08601826125b1565b5060c0830151612b4f60c0860182612a9c565b5060e0830151612b6260e086018261266c565b50610100830151848203610100860152612b7c82826126c7565b9150508091505092915050565b5f60a082019050612b9c5f8301886124f3565b8181036020830152612bae818761253a565b90508181036040830152612bc2818661253a565b9050612bd160608301856124f3565b8181036080830152612be38184612aab565b90509695505050505050565b5f81905092915050565b828183375f83830152505050565b5f612c128385612bef565b9350612c1f838584612bf9565b82840190509392505050565b5f612c37828486612c07565b91508190509392505050565b5f6020820190508181035f830152612c5b818461253a565b905092915050565b7f4e487b71000000000000000000000000000000000000000000000000000000005f52601160045260245ffd5b5f612c9a82612404565b91507fffffffffffffffffffffffffffffffffffffffffffffffffffffffffffffffff8203612ccc57612ccb612c63565b5b600182019050919050565b5f82905092915050565b7f4e487b71000000000000000000000000000000000000000000000000000000005f52604160045260245ffd5b7f4e487b71000000000000000000000000000000000000000000000000000000005f52602260045260245ffd5b5f6002820490506001821680612d5257607f821691505b602082108103612d6557612d64612d0e565b5b50919050565b5f819050815f5260205f209050919050565b5f6020601f8301049050919050565b5f82821b905092915050565b5f60088302612dc77fffffffffffffffffffffffffffffffffffffffffffffffffffffffffffffffff82612d8c565b612dd18683612d8c565b95508019841693508086168417925050509392505050565b5f819050919050565b5f612e0c612e07612e0284612404565b612de9565b612404565b9050919050565b5f819050919050565b612e2583612df2565b612e39612e3182612e13565b848454612d98565b825550505050565b5f5f905090565b612e50612e41565b612e5b818484612e1c565b505050565b5b81811015612e7e57612e735f82612e48565b600181019050612e61565b5050565b601f821115612ec357612e9481612d6b565b612e9d84612d7d565b81016020851015612eac578190505b612ec0612eb885612d7d565b830182612e60565b50505b505050565b5f82821c905092915050565b5f612ee35f1984600802612ec8565b1980831691505092915050565b5f612efb8383612ed4565b9150826002028217905092915050565b612f158383612cd7565b67ffffffffffffffff811115612f2e57612f2d612ce1565b5b612f388254612d3b565b612f43828285612e82565b5f601f831160018114612f70575f8415612f5e578287013590505b612f688582612ef0565b865550612fcf565b601f198416612f7e86612d6b565b5f5b82811015612fa557848901358255600182019150602085019450602081019050612f80565b86831015612fc25784890135612fbe601f891682612ed4565b8355505b6001600288020188555050505b50505050505050565b5f602082019050612feb5f8301846124f3565b92915050565b612ffa82612502565b67ffffffffffffffff81111561301357613012612ce1565b5b61301d8254612d3b565b613028828285612e82565b5f60209050601f831160018114613059575f8415613047578287015190505b6130518582612ef0565b8655506130b8565b601f19841661306786612d6b565b5f5b8281101561308e57848901518255600182019150602085019450602081019050613069565b868310156130ab57848901516130a7601f891682612ed4565b8355505b6001600288020188555050505b505050505050565b5f815490506130ce81612d3b565b9050919050565b8181036130e35750506131b8565b6130ec826130c0565b67ffffffffffffffff81111561310557613104612ce1565b5b61310f8254612d3b565b61311a828285612e82565b5f601f831160018114613147575f8415613135578287015490505b61313f8582612ef0565b8655506131b1565b601f19841661315587612d6b565b965061316086612d6b565b5f5b8281101561318757848901548255600182019150600185019450602081019050613162565b868310156131a457848901546131a0601f891682612ed4565b8355505b6001600288020188555050505b5050505050505b56fe5468652063616c6c657220646f6573206e6f74206861766520612063726561746f722070726f66696c655468652063616c6c657220646f6573206e6f74206861766520616e206170706c6963616e742070726f66696c65a2646970667358221220df20adc97ad0dc15f758859c487b20222b3fb6118d1c2f15653efeea8e29cbcb64736f6c634300081e0033",
					"opcodes": "PUSH1 0x80 PUSH1 0x40 MSTORE CALLVALUE DUP1 ISZERO PUSH1 0xE JUMPI PUSH0 PUSH0 REVERT JUMPDEST POP CALLER PUSH0 PUSH0 PUSH2 0x100 EXP DUP2 SLOAD DUP2 PUSH20 0xFFFFFFFFFFFFFFFFFFFFFFFFFFFFFFFFFFFFFFFF MUL NOT AND SWAP1 DUP4 PUSH20 0xFFFFFFFFFFFFFFFFFFFFFFFFFFFFFFFFFFFFFFFF AND MUL OR SWAP1 SSTORE POP PUSH2 0x3247 DUP1 PUSH2 0x5B PUSH0 CODECOPY PUSH0 RETURN INVALID PUSH1 0x80 PUSH1 0x40 MSTORE CALLVALUE DUP1 ISZERO PUSH2 0xF JUMPI PUSH0 PUSH0 REVERT JUMPDEST POP PUSH1 0x4 CALLDATASIZE LT PUSH2 0x86 JUMPI PUSH0 CALLDATALOAD PUSH1 0xE0 SHR DUP1 PUSH4 0x92B2A791 GT PUSH2 0x59 JUMPI DUP1 PUSH4 0x92B2A791 EQ PUSH2 0x112 JUMPI DUP1 PUSH4 0x95B04BE2 EQ PUSH2 0x148 JUMPI DUP1 PUSH4 0xD4BB7D2E EQ PUSH2 0x17F JUMPI DUP1 PUSH4 0xE06F7484 EQ PUSH2 0x19B JUMPI PUSH2 0x86 JUMP JUMPDEST DUP1 PUSH4 0x2AE4BC55 EQ PUSH2 0x8A JUMPI DUP1 PUSH4 0x3CB50276 EQ PUSH2 0xA6 JUMPI DUP1 PUSH4 0x699687CF EQ PUSH2 0xC2 JUMPI DUP1 PUSH4 0x87E6446F EQ PUSH2 0xF6 JUMPI JUMPDEST PUSH0 PUSH0 REVERT JUMPDEST PUSH2 0xA4 PUSH1 0x4 DUP1 CALLDATASIZE SUB DUP2 ADD SWAP1 PUSH2 0x9F SWAP2 SWAP1 PUSH2 0x2320 JUMP JUMPDEST PUSH2 0x1CF JUMP JUMPDEST STOP JUMPDEST PUSH2 0xC0 PUSH1 0x4 DUP1 CALLDATASIZE SUB DUP2 ADD SWAP1 PUSH2 0xBB SWAP2 SWAP1 PUSH2 0x2437 JUMP JUMPDEST PUSH2 0x5E2 JUMP JUMPDEST STOP JUMPDEST PUSH2 0xDC PUSH1 0x4 DUP1 CALLDATASIZE SUB DUP2 ADD SWAP1 PUSH2 0xD7 SWAP2 SWAP1 PUSH2 0x24C8 JUMP JUMPDEST PUSH2 0xBE7 JUMP JUMPDEST PUSH1 0x40 MLOAD PUSH2 0xED SWAP6 SWAP5 SWAP4 SWAP3 SWAP2 SWAP1 PUSH2 0x2832 JUMP JUMPDEST PUSH1 0x40 MLOAD DUP1 SWAP2 SUB SWAP1 RETURN JUMPDEST PUSH2 0x110 PUSH1 0x4 DUP1 CALLDATASIZE SUB DUP2 ADD SWAP1 PUSH2 0x10B SWAP2 SWAP1 PUSH2 0x2320 JUMP JUMPDEST PUSH2 0xFE4 JUMP JUMPDEST STOP JUMPDEST PUSH2 0x12C PUSH1 0x4 DUP1 CALLDATASIZE SUB DUP2 ADD SWAP1 PUSH2 0x127 SWAP2 SWAP1 PUSH2 0x28BB JUMP JUMPDEST PUSH2 0x13DB JUMP JUMPDEST PUSH1 0x40 MLOAD PUSH2 0x13F SWAP8 SWAP7 SWAP6 SWAP5 SWAP4 SWAP3 SWAP2 SWAP1 PUSH2 0x2904 JUMP JUMPDEST PUSH1 0x40 MLOAD DUP1 SWAP2 SUB SWAP1 RETURN JUMPDEST PUSH2 0x162 PUSH1 0x4 DUP1 CALLDATASIZE SUB DUP2 ADD SWAP1 PUSH2 0x15D SWAP2 SWAP1 PUSH2 0x28BB JUMP JUMPDEST PUSH2 0x165C JUMP JUMPDEST PUSH1 0x40 MLOAD PUSH2 0x176 SWAP9 SWAP8 SWAP7 SWAP6 SWAP5 SWAP4 SWAP3 SWAP2 SWAP1 PUSH2 0x29A7 JUMP JUMPDEST PUSH1 0x40 MLOAD DUP1 SWAP2 SUB SWAP1 RETURN JUMPDEST PUSH2 0x199 PUSH1 0x4 DUP1 CALLDATASIZE SUB DUP2 ADD SWAP1 PUSH2 0x194 SWAP2 SWAP1 PUSH2 0x2A3F JUMP JUMPDEST PUSH2 0x18F1 JUMP JUMPDEST STOP JUMPDEST PUSH2 0x1B5 PUSH1 0x4 DUP1 CALLDATASIZE SUB DUP2 ADD SWAP1 PUSH2 0x1B0 SWAP2 SWAP1 PUSH2 0x24C8 JUMP JUMPDEST PUSH2 0x1D70 JUMP JUMPDEST PUSH1 0x40 MLOAD PUSH2 0x1C6 SWAP6 SWAP5 SWAP4 SWAP3 SWAP2 SWAP1 PUSH2 0x2B89 JUMP JUMPDEST PUSH1 0x40 MLOAD DUP1 SWAP2 SUB SWAP1 RETURN JUMPDEST DUP6 DUP6 PUSH0 ISZERO ISZERO PUSH1 0x5 DUP4 DUP4 PUSH1 0x40 MLOAD PUSH2 0x1E6 SWAP3 SWAP2 SWAP1 PUSH2 0x2C2B JUMP JUMPDEST SWAP1 DUP2 MSTORE PUSH1 0x20 ADD PUSH1 0x40 MLOAD DUP1 SWAP2 SUB SWAP1 KECCAK256 PUSH0 SWAP1 SLOAD SWAP1 PUSH2 0x100 EXP SWAP1 DIV PUSH1 0xFF AND ISZERO ISZERO EQ DUP1 ISZERO PUSH2 0x23F JUMPI POP PUSH0 ISZERO ISZERO PUSH1 0x6 DUP4 DUP4 PUSH1 0x40 MLOAD PUSH2 0x220 SWAP3 SWAP2 SWAP1 PUSH2 0x2C2B JUMP JUMPDEST SWAP1 DUP2 MSTORE PUSH1 0x20 ADD PUSH1 0x40 MLOAD DUP1 SWAP2 SUB SWAP1 KECCAK256 PUSH0 SWAP1 SLOAD SWAP1 PUSH2 0x100 EXP SWAP1 DIV PUSH1 0xFF AND ISZERO ISZERO EQ JUMPDEST PUSH1 0x40 MLOAD DUP1 PUSH1 0x40 ADD PUSH1 0x40 MSTORE DUP1 PUSH1 0x15 DUP2 MSTORE PUSH1 0x20 ADD PUSH32 0x456D61696C20616C726561647920657869737473210000000000000000000000 DUP2 MSTORE POP SWAP1 PUSH2 0x2B6 JUMPI PUSH1 0x40 MLOAD PUSH32 0x8C379A000000000000000000000000000000000000000000000000000000000 DUP2 MSTORE PUSH1 0x4 ADD PUSH2 0x2AD SWAP2 SWAP1 PUSH2 0x2C43 JUMP JUMPDEST PUSH1 0x40 MLOAD DUP1 SWAP2 SUB SWAP1 REVERT JUMPDEST POP PUSH0 ISZERO ISZERO PUSH1 0x7 PUSH0 CALLER PUSH20 0xFFFFFFFFFFFFFFFFFFFFFFFFFFFFFFFFFFFFFFFF AND PUSH20 0xFFFFFFFFFFFFFFFFFFFFFFFFFFFFFFFFFFFFFFFF AND DUP2 MSTORE PUSH1 0x20 ADD SWAP1 DUP2 MSTORE PUSH1 0x20 ADD PUSH0 KECCAK256 PUSH0 SWAP1 SLOAD SWAP1 PUSH2 0x100 EXP SWAP1 DIV PUSH1 0xFF AND ISZERO ISZERO EQ DUP1 ISZERO PUSH2 0x35F JUMPI POP PUSH0 ISZERO ISZERO PUSH1 0x8 PUSH0 CALLER PUSH20 0xFFFFFFFFFFFFFFFFFFFFFFFFFFFFFFFFFFFFFFFF AND PUSH20 0xFFFFFFFFFFFFFFFFFFFFFFFFFFFFFFFFFFFFFFFF AND DUP2 MSTORE PUSH1 0x20 ADD SWAP1 DUP2 MSTORE PUSH1 0x20 ADD PUSH0 KECCAK256 PUSH0 SWAP1 SLOAD SWAP1 PUSH2 0x100 EXP SWAP1 DIV PUSH1 0xFF AND ISZERO ISZERO EQ JUMPDEST PUSH1 0x40 MLOAD DUP1 PUSH1 0x40 ADD PUSH1 0x40 MSTORE DUP1 PUSH1 0x17 DUP2 MSTORE PUSH1 0x20 ADD PUSH32 0x4164647265737320616C72656164792065786973747321000000000000000000 DUP2 MSTORE POP SWAP1 PUSH2 0x3D6 JUMPI PUSH1 0x40 MLOAD PUSH32 0x8C379A000000000000000000000000000000000000000000000000000000000 DUP2 MSTORE PUSH1 0x4 ADD PUSH2 0x3CD SWAP2 SWAP1 PUSH2 0x2C43 JUMP JUMPDEST PUSH1 0x40 MLOAD DUP1 SWAP2 SUB SWAP1 REVERT JUMPDEST POP PUSH0 PUSH1 0x3 PUSH0 DUP2 SLOAD PUSH2 0x3E6 SWAP1 PUSH2 0x2C90 JUMP JUMPDEST SWAP2 SWAP1 POP DUP2 SWAP1 SSTORE SWAP1 POP PUSH0 PUSH1 0x1 PUSH0 CALLER PUSH20 0xFFFFFFFFFFFFFFFFFFFFFFFFFFFFFFFFFFFFFFFF AND PUSH20 0xFFFFFFFFFFFFFFFFFFFFFFFFFFFFFFFFFFFFFFFF AND DUP2 MSTORE PUSH1 0x20 ADD SWAP1 DUP2 MSTORE PUSH1 0x20 ADD PUSH0 KECCAK256 SWAP1 POP DUP2 DUP2 PUSH0 ADD DUP2 SWAP1 SSTORE POP DUP12 DUP12 DUP3 PUSH1 0x2 ADD SWAP2 DUP3 PUSH2 0x449 SWAP3 SWAP2 SWAP1 PUSH2 0x2F0B JUMP JUMPDEST POP DUP10 DUP10 DUP3 PUSH1 0x1 ADD SWAP2 DUP3 PUSH2 0x45D SWAP3 SWAP2 SWAP1 PUSH2 0x2F0B JUMP JUMPDEST POP DUP8 DUP8 DUP3 PUSH1 0x4 ADD SWAP2 DUP3 PUSH2 0x471 SWAP3 SWAP2 SWAP1 PUSH2 0x2F0B JUMP JUMPDEST POP DUP6 DUP6 DUP3 PUSH1 0x3 ADD SWAP2 DUP3 PUSH2 0x485 SWAP3 SWAP2 SWAP1 PUSH2 0x2F0B JUMP JUMPDEST POP PUSH1 0x1 PUSH1 0x5 DUP12 DUP12 PUSH1 0x40 MLOAD PUSH2 0x49A SWAP3 SWAP2 SWAP1 PUSH2 0x2C2B JUMP JUMPDEST SWAP1 DUP2 MSTORE PUSH1 0x20 ADD PUSH1 0x40 MLOAD DUP1 SWAP2 SUB SWAP1 KECCAK256 PUSH0 PUSH2 0x100 EXP DUP2 SLOAD DUP2 PUSH1 0xFF MUL NOT AND SWAP1 DUP4 ISZERO ISZERO MUL OR SWAP1 SSTORE POP PUSH1 0x1 PUSH1 0x7 PUSH0 CALLER PUSH20 0xFFFFFFFFFFFFFFFFFFFFFFFFFFFFFFFFFFFFFFFF AND PUSH20 0xFFFFFFFFFFFFFFFFFFFFFFFFFFFFFFFFFFFFFFFF AND DUP2 MSTORE PUSH1 0x20 ADD SWAP1 DUP2 MSTORE PUSH1 0x20 ADD PUSH0 KECCAK256 PUSH0 PUSH2 0x100 EXP DUP2 SLOAD DUP2 PUSH1 0xFF MUL NOT AND SWAP1 DUP4 ISZERO ISZERO MUL OR SWAP1 SSTORE POP PUSH0 DUP2 PUSH1 0x5 ADD PUSH1 0x14 PUSH2 0x100 EXP DUP2 SLOAD DUP2 PUSH1 0xFF MUL NOT AND SWAP1 DUP4 ISZERO ISZERO MUL OR SWAP1 SSTORE POP PUSH0 DUP2 PUSH1 0x5 ADD PUSH1 0x15 PUSH2 0x100 EXP DUP2 SLOAD DUP2 PUSH1 0xFF MUL NOT AND SWAP1 DUP4 PUSH1 0x1 DUP2 GT ISZERO PUSH2 0x556 JUMPI PUSH2 0x555 PUSH2 0x2608 JUMP JUMPDEST JUMPDEST MUL OR SWAP1 SSTORE POP CALLER DUP2 PUSH1 0x5 ADD PUSH0 PUSH2 0x100 EXP DUP2 SLOAD DUP2 PUSH20 0xFFFFFFFFFFFFFFFFFFFFFFFFFFFFFFFFFFFFFFFF MUL NOT AND SWAP1 DUP4 PUSH20 0xFFFFFFFFFFFFFFFFFFFFFFFFFFFFFFFFFFFFFFFF AND MUL OR SWAP1 SSTORE POP PUSH32 0xD1A7C154123ED5A80A1F9C4596757DAF4B73C53E8BC15299D58A4BE0CA505814 DUP3 PUSH1 0x40 MLOAD PUSH2 0x5CC SWAP2 SWAP1 PUSH2 0x2FD8 JUMP JUMPDEST PUSH1 0x40 MLOAD DUP1 SWAP2 SUB SWAP1 LOG1 POP POP POP POP POP POP POP POP POP POP POP POP JUMP JUMPDEST CALLER PUSH1 0x1 ISZERO ISZERO PUSH1 0x7 PUSH0 DUP4 PUSH20 0xFFFFFFFFFFFFFFFFFFFFFFFFFFFFFFFFFFFFFFFF AND PUSH20 0xFFFFFFFFFFFFFFFFFFFFFFFFFFFFFFFFFFFFFFFF AND DUP2 MSTORE PUSH1 0x20 ADD SWAP1 DUP2 MSTORE PUSH1 0x20 ADD PUSH0 KECCAK256 PUSH0 SWAP1 SLOAD SWAP1 PUSH2 0x100 EXP SWAP1 DIV PUSH1 0xFF AND ISZERO ISZERO EQ PUSH1 0x40 MLOAD DUP1 PUSH1 0x60 ADD PUSH1 0x40 MSTORE DUP1 PUSH1 0x2A DUP2 MSTORE PUSH1 0x20 ADD PUSH2 0x31BB PUSH1 0x2A SWAP2 CODECOPY SWAP1 PUSH2 0x68E JUMPI PUSH1 0x40 MLOAD PUSH32 0x8C379A000000000000000000000000000000000000000000000000000000000 DUP2 MSTORE PUSH1 0x4 ADD PUSH2 0x685 SWAP2 SWAP1 PUSH2 0x2C43 JUMP JUMPDEST PUSH1 0x40 MLOAD DUP1 SWAP2 SUB SWAP1 REVERT JUMPDEST POP PUSH0 PUSH1 0x9 PUSH0 DUP2 SLOAD PUSH2 0x69E SWAP1 PUSH2 0x2C90 JUMP JUMPDEST SWAP2 SWAP1 POP DUP2 SWAP1 SSTORE SWAP1 POP PUSH0 PUSH1 0xA PUSH0 DUP4 DUP2 MSTORE PUSH1 0x20 ADD SWAP1 DUP2 MSTORE PUSH1 0x20 ADD PUSH0 KECCAK256 SWAP1 POP DUP2 DUP2 PUSH0 ADD DUP2 SWAP1 SSTORE POP DUP8 DUP8 DUP3 PUSH1 0x1 ADD SWAP2 DUP3 PUSH2 0x6D5 SWAP3 SWAP2 SWAP1 PUSH2 0x2F0B JUMP JUMPDEST POP DUP6 DUP6 DUP3 PUSH1 0x2 ADD SWAP2 DUP3 PUSH2 0x6E9 SWAP3 SWAP2 SWAP1 PUSH2 0x2F0B JUMP JUMPDEST POP DUP4 DUP2 PUSH1 0x3 ADD DUP2 SWAP1 SSTORE POP PUSH0 PUSH1 0x1 PUSH0 CALLER PUSH20 0xFFFFFFFFFFFFFFFFFFFFFFFFFFFFFFFFFFFFFFFF AND PUSH20 0xFFFFFFFFFFFFFFFFFFFFFFFFFFFFFFFFFFFFFFFF AND DUP2 MSTORE PUSH1 0x20 ADD SWAP1 DUP2 MSTORE PUSH1 0x20 ADD PUSH0 KECCAK256 PUSH1 0x40 MLOAD DUP1 PUSH2 0x120 ADD PUSH1 0x40 MSTORE SWAP1 DUP2 PUSH0 DUP3 ADD SLOAD DUP2 MSTORE PUSH1 0x20 ADD PUSH1 0x1 DUP3 ADD DUP1 SLOAD PUSH2 0x756 SWAP1 PUSH2 0x2D3B JUMP JUMPDEST DUP1 PUSH1 0x1F ADD PUSH1 0x20 DUP1 SWAP2 DIV MUL PUSH1 0x20 ADD PUSH1 0x40 MLOAD SWAP1 DUP2 ADD PUSH1 0x40 MSTORE DUP1 SWAP3 SWAP2 SWAP1 DUP2 DUP2 MSTORE PUSH1 0x20 ADD DUP3 DUP1 SLOAD PUSH2 0x782 SWAP1 PUSH2 0x2D3B JUMP JUMPDEST DUP1 ISZERO PUSH2 0x7CD JUMPI DUP1 PUSH1 0x1F LT PUSH2 0x7A4 JUMPI PUSH2 0x100 DUP1 DUP4 SLOAD DIV MUL DUP4 MSTORE SWAP2 PUSH1 0x20 ADD SWAP2 PUSH2 0x7CD JUMP JUMPDEST DUP3 ADD SWAP2 SWAP1 PUSH0 MSTORE PUSH1 0x20 PUSH0 KECCAK256 SWAP1 JUMPDEST DUP2 SLOAD DUP2 MSTORE SWAP1 PUSH1 0x1 ADD SWAP1 PUSH1 0x20 ADD DUP1 DUP4 GT PUSH2 0x7B0 JUMPI DUP3 SWAP1 SUB PUSH1 0x1F AND DUP3 ADD SWAP2 JUMPDEST POP POP POP POP POP DUP2 MSTORE PUSH1 0x20 ADD PUSH1 0x2 DUP3 ADD DUP1 SLOAD PUSH2 0x7E6 SWAP1 PUSH2 0x2D3B JUMP JUMPDEST DUP1 PUSH1 0x1F ADD PUSH1 0x20 DUP1 SWAP2 DIV MUL PUSH1 0x20 ADD PUSH1 0x40 MLOAD SWAP1 DUP2 ADD PUSH1 0x40 MSTORE DUP1 SWAP3 SWAP2 SWAP1 DUP2 DUP2 MSTORE PUSH1 0x20 ADD DUP3 DUP1 SLOAD PUSH2 0x812 SWAP1 PUSH2 0x2D3B JUMP JUMPDEST DUP1 ISZERO PUSH2 0x85D JUMPI DUP1 PUSH1 0x1F LT PUSH2 0x834 JUMPI PUSH2 0x100 DUP1 DUP4 SLOAD DIV MUL DUP4 MSTORE SWAP2 PUSH1 0x20 ADD SWAP2 PUSH2 0x85D JUMP JUMPDEST DUP3 ADD SWAP2 SWAP1 PUSH0 MSTORE PUSH1 0x20 PUSH0 KECCAK256 SWAP1 JUMPDEST DUP2 SLOAD DUP2 MSTORE SWAP1 PUSH1 0x1 ADD SWAP1 PUSH1 0x20 ADD DUP1 DUP4 GT PUSH2 0x840 JUMPI DUP3 SWAP1 SUB PUSH1 0x1F AND DUP3 ADD SWAP2 JUMPDEST POP POP POP POP POP DUP2 MSTORE PUSH1 0x20 ADD PUSH1 0x3 DUP3 ADD DUP1 SLOAD PUSH2 0x876 SWAP1 PUSH2 0x2D3B JUMP JUMPDEST DUP1 PUSH1 0x1F ADD PUSH1 0x20 DUP1 SWAP2 DIV MUL PUSH1 0x20 ADD PUSH1 0x40 MLOAD SWAP1 DUP2 ADD PUSH1 0x40 MSTORE DUP1 SWAP3 SWAP2 SWAP1 DUP2 DUP2 MSTORE PUSH1 0x20 ADD DUP3 DUP1 SLOAD PUSH2 0x8A2 SWAP1 PUSH2 0x2D3B JUMP JUMPDEST DUP1 ISZERO PUSH2 0x8ED JUMPI DUP1 PUSH1 0x1F LT PUSH2 0x8C4 JUMPI PUSH2 0x100 DUP1 DUP4 SLOAD DIV MUL DUP4 MSTORE SWAP2 PUSH1 0x20 ADD SWAP2 PUSH2 0x8ED JUMP JUMPDEST DUP3 ADD SWAP2 SWAP1 PUSH0 MSTORE PUSH1 0x20 PUSH0 KECCAK256 SWAP1 JUMPDEST DUP2 SLOAD DUP2 MSTORE SWAP1 PUSH1 0x1 ADD SWAP1 PUSH1 0x20 ADD DUP1 DUP4 GT PUSH2 0x8D0 JUMPI DUP3 SWAP1 SUB PUSH1 0x1F AND DUP3 ADD SWAP2 JUMPDEST POP POP POP POP POP DUP2 MSTORE PUSH1 0x20 ADD PUSH1 0x4 DUP3 ADD DUP1 SLOAD PUSH2 0x906 SWAP1 PUSH2 0x2D3B JUMP JUMPDEST DUP1 PUSH1 0x1F ADD PUSH1 0x20 DUP1 SWAP2 DIV MUL PUSH1 0x20 ADD PUSH1 0x40 MLOAD SWAP1 DUP2 ADD PUSH1 0x40 MSTORE DUP1 SWAP3 SWAP2 SWAP1 DUP2 DUP2 MSTORE PUSH1 0x20 ADD DUP3 DUP1 SLOAD PUSH2 0x932 SWAP1 PUSH2 0x2D3B JUMP JUMPDEST DUP1 ISZERO PUSH2 0x97D JUMPI DUP1 PUSH1 0x1F LT PUSH2 0x954 JUMPI PUSH2 0x100 DUP1 DUP4 SLOAD DIV MUL DUP4 MSTORE SWAP2 PUSH1 0x20 ADD SWAP2 PUSH2 0x97D JUMP JUMPDEST DUP3 ADD SWAP2 SWAP1 PUSH0 MSTORE PUSH1 0x20 PUSH0 KECCAK256 SWAP1 JUMPDEST DUP2 SLOAD DUP2 MSTORE SWAP1 PUSH1 0x1 ADD SWAP1 PUSH1 0x20 ADD DUP1 DUP4 GT PUSH2 0x960 JUMPI DUP3 SWAP1 SUB PUSH1 0x1F AND DUP3 ADD SWAP2 JUMPDEST POP POP POP POP POP DUP2 MSTORE PUSH1 0x20 ADD PUSH1 0x5 DUP3 ADD PUSH0 SWAP1 SLOAD SWAP1 PUSH2 0x100 EXP SWAP1 DIV PUSH20 0xFFFFFFFFFFFFFFFFFFFFFFFFFFFFFFFFFFFFFFFF AND PUSH20 0xFFFFFFFFFFFFFFFFFFFFFFFFFFFFFFFFFFFFFFFF AND PUSH20 0xFFFFFFFFFFFFFFFFFFFFFFFFFFFFFFFFFFFFFFFF AND DUP2 MSTORE PUSH1 0x20 ADD PUSH1 0x5 DUP3 ADD PUSH1 0x14 SWAP1 SLOAD SWAP1 PUSH2 0x100 EXP SWAP1 DIV PUSH1 0xFF AND ISZERO ISZERO ISZERO ISZERO DUP2 MSTORE PUSH1 0x20 ADD PUSH1 0x5 DUP3 ADD PUSH1 0x15 SWAP1 SLOAD SWAP1 PUSH2 0x100 EXP SWAP1 DIV PUSH1 0xFF AND PUSH1 0x1 DUP2 GT ISZERO PUSH2 0xA1B JUMPI PUSH2 0xA1A PUSH2 0x2608 JUMP JUMPDEST JUMPDEST PUSH1 0x1 DUP2 GT ISZERO PUSH2 0xA2D JUMPI PUSH2 0xA2C PUSH2 0x2608 JUMP JUMPDEST JUMPDEST DUP2 MSTORE PUSH1 0x20 ADD PUSH1 0x6 DUP3 ADD DUP1 SLOAD DUP1 PUSH1 0x20 MUL PUSH1 0x20 ADD PUSH1 0x40 MLOAD SWAP1 DUP2 ADD PUSH1 0x40 MSTORE DUP1 SWAP3 SWAP2 SWAP1 DUP2 DUP2 MSTORE PUSH1 0x20 ADD DUP3 DUP1 SLOAD DUP1 ISZERO PUSH2 0xA7E JUMPI PUSH1 0x20 MUL DUP3 ADD SWAP2 SWAP1 PUSH0 MSTORE PUSH1 0x20 PUSH0 KECCAK256 SWAP1 JUMPDEST DUP2 SLOAD DUP2 MSTORE PUSH1 0x20 ADD SWAP1 PUSH1 0x1 ADD SWAP1 DUP1 DUP4 GT PUSH2 0xA6A JUMPI JUMPDEST POP POP POP POP POP DUP2 MSTORE POP POP SWAP1 POP DUP1 DUP3 PUSH1 0x4 ADD PUSH0 DUP3 ADD MLOAD DUP2 PUSH0 ADD SSTORE PUSH1 0x20 DUP3 ADD MLOAD DUP2 PUSH1 0x1 ADD SWAP1 DUP2 PUSH2 0xAAB SWAP2 SWAP1 PUSH2 0x2FF1 JUMP JUMPDEST POP PUSH1 0x40 DUP3 ADD MLOAD DUP2 PUSH1 0x2 ADD SWAP1 DUP2 PUSH2 0xAC1 SWAP2 SWAP1 PUSH2 0x2FF1 JUMP JUMPDEST POP PUSH1 0x60 DUP3 ADD MLOAD DUP2 PUSH1 0x3 ADD SWAP1 DUP2 PUSH2 0xAD7 SWAP2 SWAP1 PUSH2 0x2FF1 JUMP JUMPDEST POP PUSH1 0x80 DUP3 ADD MLOAD DUP2 PUSH1 0x4 ADD SWAP1 DUP2 PUSH2 0xAED SWAP2 SWAP1 PUSH2 0x2FF1 JUMP JUMPDEST POP PUSH1 0xA0 DUP3 ADD MLOAD DUP2 PUSH1 0x5 ADD PUSH0 PUSH2 0x100 EXP DUP2 SLOAD DUP2 PUSH20 0xFFFFFFFFFFFFFFFFFFFFFFFFFFFFFFFFFFFFFFFF MUL NOT AND SWAP1 DUP4 PUSH20 0xFFFFFFFFFFFFFFFFFFFFFFFFFFFFFFFFFFFFFFFF AND MUL OR SWAP1 SSTORE POP PUSH1 0xC0 DUP3 ADD MLOAD DUP2 PUSH1 0x5 ADD PUSH1 0x14 PUSH2 0x100 EXP DUP2 SLOAD DUP2 PUSH1 0xFF MUL NOT AND SWAP1 DUP4 ISZERO ISZERO MUL OR SWAP1 SSTORE POP PUSH1 0xE0 DUP3 ADD MLOAD DUP2 PUSH1 0x5 ADD PUSH1 0x15 PUSH2 0x100 EXP DUP2 SLOAD DUP2 PUSH1 0xFF MUL NOT AND SWAP1 DUP4 PUSH1 0x1 DUP2 GT ISZERO PUSH2 0xB7F JUMPI PUSH2 0xB7E PUSH2 0x2608 JUMP JUMPDEST JUMPDEST MUL OR SWAP1 SSTORE POP PUSH2 0x100 DUP3 ADD MLOAD DUP2 PUSH1 0x6 ADD SWAP1 DUP1 MLOAD SWAP1 PUSH1 0x20 ADD SWAP1 PUSH2 0xBA1 SWAP3 SWAP2 SWAP1 PUSH2 0x2203 JUMP JUMPDEST POP SWAP1 POP POP PUSH32 0x92447C6ECD808D390FB352DA0DC90A05275B074C43BF302132A27FABAFA6872B DUP4 PUSH1 0x40 MLOAD PUSH2 0xBD4 SWAP2 SWAP1 PUSH2 0x2FD8 JUMP JUMPDEST PUSH1 0x40 MLOAD DUP1 SWAP2 SUB SWAP1 LOG1 POP POP POP POP POP POP POP POP POP JUMP JUMPDEST PUSH1 0xC PUSH1 0x20 MSTORE DUP1 PUSH0 MSTORE PUSH1 0x40 PUSH0 KECCAK256 PUSH0 SWAP2 POP SWAP1 POP DUP1 PUSH0 ADD SLOAD SWAP1 DUP1 PUSH1 0x1 ADD SLOAD SWAP1 DUP1 PUSH1 0x2 ADD DUP1 SLOAD PUSH2 0xC12 SWAP1 PUSH2 0x2D3B JUMP JUMPDEST DUP1 PUSH1 0x1F ADD PUSH1 0x20 DUP1 SWAP2 DIV MUL PUSH1 0x20 ADD PUSH1 0x40 MLOAD SWAP1 DUP2 ADD PUSH1 0x40 MSTORE DUP1 SWAP3 SWAP2 SWAP1 DUP2 DUP2 MSTORE PUSH1 0x20 ADD DUP3 DUP1 SLOAD PUSH2 0xC3E SWAP1 PUSH2 0x2D3B JUMP JUMPDEST DUP1 ISZERO PUSH2 0xC89 JUMPI DUP1 PUSH1 0x1F LT PUSH2 0xC60 JUMPI PUSH2 0x100 DUP1 DUP4 SLOAD DIV MUL DUP4 MSTORE SWAP2 PUSH1 0x20 ADD SWAP2 PUSH2 0xC89 JUMP JUMPDEST DUP3 ADD SWAP2 SWAP1 PUSH0 MSTORE PUSH1 0x20 PUSH0 KECCAK256 SWAP1 JUMPDEST DUP2 SLOAD DUP2 MSTORE SWAP1 PUSH1 0x1 ADD SWAP1 PUSH1 0x20 ADD DUP1 DUP4 GT PUSH2 0xC6C JUMPI DUP3 SWAP1 SUB PUSH1 0x1F AND DUP3 ADD SWAP2 JUMPDEST POP POP POP POP POP SWAP1 DUP1 PUSH1 0x3 ADD PUSH1 0x40 MLOAD DUP1 PUSH2 0x100 ADD PUSH1 0x40 MSTORE SWAP1 DUP2 PUSH0 DUP3 ADD SLOAD DUP2 MSTORE PUSH1 0x20 ADD PUSH1 0x1 DUP3 ADD PUSH0 SWAP1 SLOAD SWAP1 PUSH2 0x100 EXP SWAP1 DIV PUSH20 0xFFFFFFFFFFFFFFFFFFFFFFFFFFFFFFFFFFFFFFFF AND PUSH20 0xFFFFFFFFFFFFFFFFFFFFFFFFFFFFFFFFFFFFFFFF AND PUSH20 0xFFFFFFFFFFFFFFFFFFFFFFFFFFFFFFFFFFFFFFFF AND DUP2 MSTORE PUSH1 0x20 ADD PUSH1 0x2 DUP3 ADD DUP1 SLOAD PUSH2 0xD0D SWAP1 PUSH2 0x2D3B JUMP JUMPDEST DUP1 PUSH1 0x1F ADD PUSH1 0x20 DUP1 SWAP2 DIV MUL PUSH1 0x20 ADD PUSH1 0x40 MLOAD SWAP1 DUP2 ADD PUSH1 0x40 MSTORE DUP1 SWAP3 SWAP2 SWAP1 DUP2 DUP2 MSTORE PUSH1 0x20 ADD DUP3 DUP1 SLOAD PUSH2 0xD39 SWAP1 PUSH2 0x2D3B JUMP JUMPDEST DUP1 ISZERO PUSH2 0xD84 JUMPI DUP1 PUSH1 0x1F LT PUSH2 0xD5B JUMPI PUSH2 0x100 DUP1 DUP4 SLOAD DIV MUL DUP4 MSTORE SWAP2 PUSH1 0x20 ADD SWAP2 PUSH2 0xD84 JUMP JUMPDEST DUP3 ADD SWAP2 SWAP1 PUSH0 MSTORE PUSH1 0x20 PUSH0 KECCAK256 SWAP1 JUMPDEST DUP2 SLOAD DUP2 MSTORE SWAP1 PUSH1 0x1 ADD SWAP1 PUSH1 0x20 ADD DUP1 DUP4 GT PUSH2 0xD67 JUMPI DUP3 SWAP1 SUB PUSH1 0x1F AND DUP3 ADD SWAP2 JUMPDEST POP POP POP POP POP DUP2 MSTORE PUSH1 0x20 ADD PUSH1 0x3 DUP3 ADD DUP1 SLOAD PUSH2 0xD9D SWAP1 PUSH2 0x2D3B JUMP JUMPDEST DUP1 PUSH1 0x1F ADD PUSH1 0x20 DUP1 SWAP2 DIV MUL PUSH1 0x20 ADD PUSH1 0x40 MLOAD SWAP1 DUP2 ADD PUSH1 0x40 MSTORE DUP1 SWAP3 SWAP2 SWAP1 DUP2 DUP2 MSTORE PUSH1 0x20 ADD DUP3 DUP1 SLOAD PUSH2 0xDC9 SWAP1 PUSH2 0x2D3B JUMP JUMPDEST DUP1 ISZERO PUSH2 0xE14 JUMPI DUP1 PUSH1 0x1F LT PUSH2 0xDEB JUMPI PUSH2 0x100 DUP1 DUP4 SLOAD DIV MUL DUP4 MSTORE SWAP2 PUSH1 0x20 ADD SWAP2 PUSH2 0xE14 JUMP JUMPDEST DUP3 ADD SWAP2 SWAP1 PUSH0 MSTORE PUSH1 0x20 PUSH0 KECCAK256 SWAP1 JUMPDEST DUP2 SLOAD DUP2 MSTORE SWAP1 PUSH1 0x1 ADD SWAP1 PUSH1 0x20 ADD DUP1 DUP4 GT PUSH2 0xDF7 JUMPI DUP3 SWAP1 SUB PUSH1 0x1F AND DUP3 ADD SWAP2 JUMPDEST POP POP POP POP POP DUP2 MSTORE PUSH1 0x20 ADD PUSH1 0x4 DUP3 ADD DUP1 SLOAD PUSH2 0xE2D SWAP1 PUSH2 0x2D3B JUMP JUMPDEST DUP1 PUSH1 0x1F ADD PUSH1 0x20 DUP1 SWAP2 DIV MUL PUSH1 0x20 ADD PUSH1 0x40 MLOAD SWAP1 DUP2 ADD PUSH1 0x40 MSTORE DUP1 SWAP3 SWAP2 SWAP1 DUP2 DUP2 MSTORE PUSH1 0x20 ADD DUP3 DUP1 SLOAD PUSH2 0xE59 SWAP1 PUSH2 0x2D3B JUMP JUMPDEST DUP1 ISZERO PUSH2 0xEA4 JUMPI DUP1 PUSH1 0x1F LT PUSH2 0xE7B JUMPI PUSH2 0x100 DUP1 DUP4 SLOAD DIV MUL DUP4 MSTORE SWAP2 PUSH1 0x20 ADD SWAP2 PUSH2 0xEA4 JUMP JUMPDEST DUP3 ADD SWAP2 SWAP1 PUSH0 MSTORE PUSH1 0x20 PUSH0 KECCAK256 SWAP1 JUMPDEST DUP2 SLOAD DUP2 MSTORE SWAP1 PUSH1 0x1 ADD SWAP1 PUSH1 0x20 ADD DUP1 DUP4 GT PUSH2 0xE87 JUMPI DUP3 SWAP1 SUB PUSH1 0x1F AND DUP3 ADD SWAP2 JUMPDEST POP POP POP POP POP DUP2 MSTORE PUSH1 0x20 ADD PUSH1 0x5 DUP3 ADD DUP1 SLOAD PUSH2 0xEBD SWAP1 PUSH2 0x2D3B JUMP JUMPDEST DUP1 PUSH1 0x1F ADD PUSH1 0x20 DUP1 SWAP2 DIV MUL PUSH1 0x20 ADD PUSH1 0x40 MLOAD SWAP1 DUP2 ADD PUSH1 0x40 MSTORE DUP1 SWAP3 SWAP2 SWAP1 DUP2 DUP2 MSTORE PUSH1 0x20 ADD DUP3 DUP1 SLOAD PUSH2 0xEE9 SWAP1 PUSH2 0x2D3B JUMP JUMPDEST DUP1 ISZERO PUSH2 0xF34 JUMPI DUP1 PUSH1 0x1F LT PUSH2 0xF0B JUMPI PUSH2 0x100 DUP1 DUP4 SLOAD DIV MUL DUP4 MSTORE SWAP2 PUSH1 0x20 ADD SWAP2 PUSH2 0xF34 JUMP JUMPDEST DUP3 ADD SWAP2 SWAP1 PUSH0 MSTORE PUSH1 0x20 PUSH0 KECCAK256 SWAP1 JUMPDEST DUP2 SLOAD DUP2 MSTORE SWAP1 PUSH1 0x1 ADD SWAP1 PUSH1 0x20 ADD DUP1 DUP4 GT PUSH2 0xF17 JUMPI DUP3 SWAP1 SUB PUSH1 0x1F AND DUP3 ADD SWAP2 JUMPDEST POP POP POP POP POP DUP2 MSTORE PUSH1 0x20 ADD PUSH1 0x6 DUP3 ADD PUSH0 SWAP1 SLOAD SWAP1 PUSH2 0x100 EXP SWAP1 DIV PUSH1 0xFF AND PUSH1 0x1 DUP2 GT ISZERO PUSH2 0xF61 JUMPI PUSH2 0xF60 PUSH2 0x2608 JUMP JUMPDEST JUMPDEST PUSH1 0x1 DUP2 GT ISZERO PUSH2 0xF73 JUMPI PUSH2 0xF72 PUSH2 0x2608 JUMP JUMPDEST JUMPDEST DUP2 MSTORE PUSH1 0x20 ADD PUSH1 0x7 DUP3 ADD DUP1 SLOAD DUP1 PUSH1 0x20 MUL PUSH1 0x20 ADD PUSH1 0x40 MLOAD SWAP1 DUP2 ADD PUSH1 0x40 MSTORE DUP1 SWAP3 SWAP2 SWAP1 DUP2 DUP2 MSTORE PUSH1 0x20 ADD DUP3 DUP1 SLOAD DUP1 ISZERO PUSH2 0xFC4 JUMPI PUSH1 0x20 MUL DUP3 ADD SWAP2 SWAP1 PUSH0 MSTORE PUSH1 0x20 PUSH0 KECCAK256 SWAP1 JUMPDEST DUP2 SLOAD DUP2 MSTORE PUSH1 0x20 ADD SWAP1 PUSH1 0x1 ADD SWAP1 DUP1 DUP4 GT PUSH2 0xFB0 JUMPI JUMPDEST POP POP POP POP POP DUP2 MSTORE POP POP SWAP1 DUP1 PUSH1 0xB ADD PUSH0 SWAP1 SLOAD SWAP1 PUSH2 0x100 EXP SWAP1 DIV PUSH1 0xFF AND SWAP1 POP DUP6 JUMP JUMPDEST DUP6 DUP6 PUSH0 ISZERO ISZERO PUSH1 0x5 DUP4 DUP4 PUSH1 0x40 MLOAD PUSH2 0xFFB SWAP3 SWAP2 SWAP1 PUSH2 0x2C2B JUMP JUMPDEST SWAP1 DUP2 MSTORE PUSH1 0x20 ADD PUSH1 0x40 MLOAD DUP1 SWAP2 SUB SWAP1 KECCAK256 PUSH0 SWAP1 SLOAD SWAP1 PUSH2 0x100 EXP SWAP1 DIV PUSH1 0xFF AND ISZERO ISZERO EQ DUP1 ISZERO PUSH2 0x1054 JUMPI POP PUSH0 ISZERO ISZERO PUSH1 0x6 DUP4 DUP4 PUSH1 0x40 MLOAD PUSH2 0x1035 SWAP3 SWAP2 SWAP1 PUSH2 0x2C2B JUMP JUMPDEST SWAP1 DUP2 MSTORE PUSH1 0x20 ADD PUSH1 0x40 MLOAD DUP1 SWAP2 SUB SWAP1 KECCAK256 PUSH0 SWAP1 SLOAD SWAP1 PUSH2 0x100 EXP SWAP1 DIV PUSH1 0xFF AND ISZERO ISZERO EQ JUMPDEST PUSH1 0x40 MLOAD DUP1 PUSH1 0x40 ADD PUSH1 0x40 MSTORE DUP1 PUSH1 0x15 DUP2 MSTORE PUSH1 0x20 ADD PUSH32 0x456D61696C20616C726561647920657869737473210000000000000000000000 DUP2 MSTORE POP SWAP1 PUSH2 0x10CB JUMPI PUSH1 0x40 MLOAD PUSH32 0x8C379A000000000000000000000000000000000000000000000000000000000 DUP2 MSTORE PUSH1 0x4 ADD PUSH2 0x10C2 SWAP2 SWAP1 PUSH2 0x2C43 JUMP JUMPDEST PUSH1 0x40 MLOAD DUP1 SWAP2 SUB SWAP1 REVERT JUMPDEST POP PUSH0 ISZERO ISZERO PUSH1 0x7 PUSH0 CALLER PUSH20 0xFFFFFFFFFFFFFFFFFFFFFFFFFFFFFFFFFFFFFFFF AND PUSH20 0xFFFFFFFFFFFFFFFFFFFFFFFFFFFFFFFFFFFFFFFF AND DUP2 MSTORE PUSH1 0x20 ADD SWAP1 DUP2 MSTORE PUSH1 0x20 ADD PUSH0 KECCAK256 PUSH0 SWAP1 SLOAD SWAP1 PUSH2 0x100 EXP SWAP1 DIV PUSH1 0xFF AND ISZERO ISZERO EQ DUP1 ISZERO PUSH2 0x1174 JUMPI POP PUSH0 ISZERO ISZERO PUSH1 0x8 PUSH0 CALLER PUSH20 0xFFFFFFFFFFFFFFFFFFFFFFFFFFFFFFFFFFFFFFFF AND PUSH20 0xFFFFFFFFFFFFFFFFFFFFFFFFFFFFFFFFFFFFFFFF AND DUP2 MSTORE PUSH1 0x20 ADD SWAP1 DUP2 MSTORE PUSH1 0x20 ADD PUSH0 KECCAK256 PUSH0 SWAP1 SLOAD SWAP1 PUSH2 0x100 EXP SWAP1 DIV PUSH1 0xFF AND ISZERO ISZERO EQ JUMPDEST PUSH1 0x40 MLOAD DUP1 PUSH1 0x40 ADD PUSH1 0x40 MSTORE DUP1 PUSH1 0x17 DUP2 MSTORE PUSH1 0x20 ADD PUSH32 0x4164647265737320616C72656164792065786973747321000000000000000000 DUP2 MSTORE POP SWAP1 PUSH2 0x11EB JUMPI PUSH1 0x40 MLOAD PUSH32 0x8C379A000000000000000000000000000000000000000000000000000000000 DUP2 MSTORE PUSH1 0x4 ADD PUSH2 0x11E2 SWAP2 SWAP1 PUSH2 0x2C43 JUMP JUMPDEST PUSH1 0x40 MLOAD DUP1 SWAP2 SUB SWAP1 REVERT JUMPDEST POP PUSH0 PUSH1 0x4 PUSH0 DUP2 SLOAD PUSH2 0x11FB SWAP1 PUSH2 0x2C90 JUMP JUMPDEST SWAP2 SWAP1 POP DUP2 SWAP1 SSTORE SWAP1 POP PUSH0 PUSH1 0x2 PUSH0 CALLER PUSH20 0xFFFFFFFFFFFFFFFFFFFFFFFFFFFFFFFFFFFFFFFF AND PUSH20 0xFFFFFFFFFFFFFFFFFFFFFFFFFFFFFFFFFFFFFFFF AND DUP2 MSTORE PUSH1 0x20 ADD SWAP1 DUP2 MSTORE PUSH1 0x20 ADD PUSH0 KECCAK256 SWAP1 POP DUP2 DUP2 PUSH0 ADD DUP2 SWAP1 SSTORE POP DUP12 DUP12 DUP3 PUSH1 0x2 ADD SWAP2 DUP3 PUSH2 0x125E SWAP3 SWAP2 SWAP1 PUSH2 0x2F0B JUMP JUMPDEST POP DUP10 DUP10 DUP3 PUSH1 0x3 ADD SWAP2 DUP3 PUSH2 0x1272 SWAP3 SWAP2 SWAP1 PUSH2 0x2F0B JUMP JUMPDEST POP DUP8 DUP8 DUP3 PUSH1 0x4 ADD SWAP2 DUP3 PUSH2 0x1286 SWAP3 SWAP2 SWAP1 PUSH2 0x2F0B JUMP JUMPDEST POP DUP6 DUP6 DUP3 PUSH1 0x5 ADD SWAP2 DUP3 PUSH2 0x129A SWAP3 SWAP2 SWAP1 PUSH2 0x2F0B JUMP JUMPDEST POP PUSH1 0x1 PUSH1 0x6 DUP12 DUP12 PUSH1 0x40 MLOAD PUSH2 0x12AF SWAP3 SWAP2 SWAP1 PUSH2 0x2C2B JUMP JUMPDEST SWAP1 DUP2 MSTORE PUSH1 0x20 ADD PUSH1 0x40 MLOAD DUP1 SWAP2 SUB SWAP1 KECCAK256 PUSH0 PUSH2 0x100 EXP DUP2 SLOAD DUP2 PUSH1 0xFF MUL NOT AND SWAP1 DUP4 ISZERO ISZERO MUL OR SWAP1 SSTORE POP PUSH1 0x1 PUSH1 0x8 PUSH0 CALLER PUSH20 0xFFFFFFFFFFFFFFFFFFFFFFFFFFFFFFFFFFFFFFFF AND PUSH20 0xFFFFFFFFFFFFFFFFFFFFFFFFFFFFFFFFFFFFFFFF AND DUP2 MSTORE PUSH1 0x20 ADD SWAP1 DUP2 MSTORE PUSH1 0x20 ADD PUSH0 KECCAK256 PUSH0 PUSH2 0x100 EXP DUP2 SLOAD DUP2 PUSH1 0xFF MUL NOT AND SWAP1 DUP4 ISZERO ISZERO MUL OR SWAP1 SSTORE POP PUSH1 0x1 DUP2 PUSH1 0x6 ADD PUSH0 PUSH2 0x100 EXP DUP2 SLOAD DUP2 PUSH1 0xFF MUL NOT AND SWAP1 DUP4 PUSH1 0x1 DUP2 GT ISZERO PUSH2 0x134F JUMPI PUSH2 0x134E PUSH2 0x2608 JUMP JUMPDEST JUMPDEST MUL OR SWAP1 SSTORE POP CALLER DUP2 PUSH1 0x1 ADD PUSH0 PUSH2 0x100 EXP DUP2 SLOAD DUP2 PUSH20 0xFFFFFFFFFFFFFFFFFFFFFFFFFFFFFFFFFFFFFFFF MUL NOT AND SWAP1 DUP4 PUSH20 0xFFFFFFFFFFFFFFFFFFFFFFFFFFFFFFFFFFFFFFFF AND MUL OR SWAP1 SSTORE POP PUSH32 0x7A7674D49AB4AC57338891A3E15EBDBE5E6ABBB1637FC6C5CFA506E2FA360AD0 DUP3 PUSH1 0x40 MLOAD PUSH2 0x13C5 SWAP2 SWAP1 PUSH2 0x2FD8 JUMP JUMPDEST PUSH1 0x40 MLOAD DUP1 SWAP2 SUB SWAP1 LOG1 POP POP POP POP POP POP POP POP POP POP POP POP JUMP JUMPDEST PUSH1 0x2 PUSH1 0x20 MSTORE DUP1 PUSH0 MSTORE PUSH1 0x40 PUSH0 KECCAK256 PUSH0 SWAP2 POP SWAP1 POP DUP1 PUSH0 ADD SLOAD SWAP1 DUP1 PUSH1 0x1 ADD PUSH0 SWAP1 SLOAD SWAP1 PUSH2 0x100 EXP SWAP1 DIV PUSH20 0xFFFFFFFFFFFFFFFFFFFFFFFFFFFFFFFFFFFFFFFF AND SWAP1 DUP1 PUSH1 0x2 ADD DUP1 SLOAD PUSH2 0x1425 SWAP1 PUSH2 0x2D3B JUMP JUMPDEST DUP1 PUSH1 0x1F ADD PUSH1 0x20 DUP1 SWAP2 DIV MUL PUSH1 0x20 ADD PUSH1 0x40 MLOAD SWAP1 DUP2 ADD PUSH1 0x40 MSTORE DUP1 SWAP3 SWAP2 SWAP1 DUP2 DUP2 MSTORE PUSH1 0x20 ADD DUP3 DUP1 SLOAD PUSH2 0x1451 SWAP1 PUSH2 0x2D3B JUMP JUMPDEST DUP1 ISZERO PUSH2 0x149C JUMPI DUP1 PUSH1 0x1F LT PUSH2 0x1473 JUMPI PUSH2 0x100 DUP1 DUP4 SLOAD DIV MUL DUP4 MSTORE SWAP2 PUSH1 0x20 ADD SWAP2 PUSH2 0x149C JUMP JUMPDEST DUP3 ADD SWAP2 SWAP1 PUSH0 MSTORE PUSH1 0x20 PUSH0 KECCAK256 SWAP1 JUMPDEST DUP2 SLOAD DUP2 MSTORE SWAP1 PUSH1 0x1 ADD SWAP1 PUSH1 0x20 ADD DUP1 DUP4 GT PUSH2 0x147F JUMPI DUP3 SWAP1 SUB PUSH1 0x1F AND DUP3 ADD SWAP2 JUMPDEST POP POP POP POP POP SWAP1 DUP1 PUSH1 0x3 ADD DUP1 SLOAD PUSH2 0x14B1 SWAP1 PUSH2 0x2D3B JUMP JUMPDEST DUP1 PUSH1 0x1F ADD PUSH1 0x20 DUP1 SWAP2 DIV MUL PUSH1 0x20 ADD PUSH1 0x40 MLOAD SWAP1 DUP2 ADD PUSH1 0x40 MSTORE DUP1 SWAP3 SWAP2 SWAP1 DUP2 DUP2 MSTORE PUSH1 0x20 ADD DUP3 DUP1 SLOAD PUSH2 0x14DD SWAP1 PUSH2 0x2D3B JUMP JUMPDEST DUP1 ISZERO PUSH2 0x1528 JUMPI DUP1 PUSH1 0x1F LT PUSH2 0x14FF JUMPI PUSH2 0x100 DUP1 DUP4 SLOAD DIV MUL DUP4 MSTORE SWAP2 PUSH1 0x20 ADD SWAP2 PUSH2 0x1528 JUMP JUMPDEST DUP3 ADD SWAP2 SWAP1 PUSH0 MSTORE PUSH1 0x20 PUSH0 KECCAK256 SWAP1 JUMPDEST DUP2 SLOAD DUP2 MSTORE SWAP1 PUSH1 0x1 ADD SWAP1 PUSH1 0x20 ADD DUP1 DUP4 GT PUSH2 0x150B JUMPI DUP3 SWAP1 SUB PUSH1 0x1F AND DUP3 ADD SWAP2 JUMPDEST POP POP POP POP POP SWAP1 DUP1 PUSH1 0x4 ADD DUP1 SLOAD PUSH2 0x153D SWAP1 PUSH2 0x2D3B JUMP JUMPDEST DUP1 PUSH1 0x1F ADD PUSH1 0x20 DUP1 SWAP2 DIV MUL PUSH1 0x20 ADD PUSH1 0x40 MLOAD SWAP1 DUP2 ADD PUSH1 0x40 MSTORE DUP1 SWAP3 SWAP2 SWAP1 DUP2 DUP2 MSTORE PUSH1 0x20 ADD DUP3 DUP1 SLOAD PUSH2 0x1569 SWAP1 PUSH2 0x2D3B JUMP JUMPDEST DUP1 ISZERO PUSH2 0x15B4 JUMPI DUP1 PUSH1 0x1F LT PUSH2 0x158B JUMPI PUSH2 0x100 DUP1 DUP4 SLOAD DIV MUL DUP4 MSTORE SWAP2 PUSH1 0x20 ADD SWAP2 PUSH2 0x15B4 JUMP JUMPDEST DUP3 ADD SWAP2 SWAP1 PUSH0 MSTORE PUSH1 0x20 PUSH0 KECCAK256 SWAP1 JUMPDEST DUP2 SLOAD DUP2 MSTORE SWAP1 PUSH1 0x1 ADD SWAP1 PUSH1 0x20 ADD DUP1 DUP4 GT PUSH2 0x1597 JUMPI DUP3 SWAP1 SUB PUSH1 0x1F AND DUP3 ADD SWAP2 JUMPDEST POP POP POP POP POP SWAP1 DUP1 PUSH1 0x5 ADD DUP1 SLOAD PUSH2 0x15C9 SWAP1 PUSH2 0x2D3B JUMP JUMPDEST DUP1 PUSH1 0x1F ADD PUSH1 0x20 DUP1 SWAP2 DIV MUL PUSH1 0x20 ADD PUSH1 0x40 MLOAD SWAP1 DUP2 ADD PUSH1 0x40 MSTORE DUP1 SWAP3 SWAP2 SWAP1 DUP2 DUP2 MSTORE PUSH1 0x20 ADD DUP3 DUP1 SLOAD PUSH2 0x15F5 SWAP1 PUSH2 0x2D3B JUMP JUMPDEST DUP1 ISZERO PUSH2 0x1640 JUMPI DUP1 PUSH1 0x1F LT PUSH2 0x1617 JUMPI PUSH2 0x100 DUP1 DUP4 SLOAD DIV MUL DUP4 MSTORE SWAP2 PUSH1 0x20 ADD SWAP2 PUSH2 0x1640 JUMP JUMPDEST DUP3 ADD SWAP2 SWAP1 PUSH0 MSTORE PUSH1 0x20 PUSH0 KECCAK256 SWAP1 JUMPDEST DUP2 SLOAD DUP2 MSTORE SWAP1 PUSH1 0x1 ADD SWAP1 PUSH1 0x20 ADD DUP1 DUP4 GT PUSH2 0x1623 JUMPI DUP3 SWAP1 SUB PUSH1 0x1F AND DUP3 ADD SWAP2 JUMPDEST POP POP POP POP POP SWAP1 DUP1 PUSH1 0x6 ADD PUSH0 SWAP1 SLOAD SWAP1 PUSH2 0x100 EXP SWAP1 DIV PUSH1 0xFF AND SWAP1 POP DUP8 JUMP JUMPDEST PUSH1 0x1 PUSH1 0x20 MSTORE DUP1 PUSH0 MSTORE PUSH1 0x40 PUSH0 KECCAK256 PUSH0 SWAP2 POP SWAP1 POP DUP1 PUSH0 ADD SLOAD SWAP1 DUP1 PUSH1 0x1 ADD DUP1 SLOAD PUSH2 0x1681 SWAP1 PUSH2 0x2D3B JUMP JUMPDEST DUP1 PUSH1 0x1F ADD PUSH1 0x20 DUP1 SWAP2 DIV MUL PUSH1 0x20 ADD PUSH1 0x40 MLOAD SWAP1 DUP2 ADD PUSH1 0x40 MSTORE DUP1 SWAP3 SWAP2 SWAP1 DUP2 DUP2 MSTORE PUSH1 0x20 ADD DUP3 DUP1 SLOAD PUSH2 0x16AD SWAP1 PUSH2 0x2D3B JUMP JUMPDEST DUP1 ISZERO PUSH2 0x16F8 JUMPI DUP1 PUSH1 0x1F LT PUSH2 0x16CF JUMPI PUSH2 0x100 DUP1 DUP4 SLOAD DIV MUL DUP4 MSTORE SWAP2 PUSH1 0x20 ADD SWAP2 PUSH2 0x16F8 JUMP JUMPDEST DUP3 ADD SWAP2 SWAP1 PUSH0 MSTORE PUSH1 0x20 PUSH0 KECCAK256 SWAP1 JUMPDEST DUP2 SLOAD DUP2 MSTORE SWAP1 PUSH1 0x1 ADD SWAP1 PUSH1 0x20 ADD DUP1 DUP4 GT PUSH2 0x16DB JUMPI DUP3 SWAP1 SUB PUSH1 0x1F AND DUP3 ADD SWAP2 JUMPDEST POP POP POP POP POP SWAP1 DUP1 PUSH1 0x2 ADD DUP1 SLOAD PUSH2 0x170D SWAP1 PUSH2 0x2D3B JUMP JUMPDEST DUP1 PUSH1 0x1F ADD PUSH1 0x20 DUP1 SWAP2 DIV MUL PUSH1 0x20 ADD PUSH1 0x40 MLOAD SWAP1 DUP2 ADD PUSH1 0x40 MSTORE DUP1 SWAP3 SWAP2 SWAP1 DUP2 DUP2 MSTORE PUSH1 0x20 ADD DUP3 DUP1 SLOAD PUSH2 0x1739 SWAP1 PUSH2 0x2D3B JUMP JUMPDEST DUP1 ISZERO PUSH2 0x1784 JUMPI DUP1 PUSH1 0x1F LT PUSH2 0x175B JUMPI PUSH2 0x100 DUP1 DUP4 SLOAD DIV MUL DUP4 MSTORE SWAP2 PUSH1 0x20 ADD SWAP2 PUSH2 0x1784 JUMP JUMPDEST DUP3 ADD SWAP2 SWAP1 PUSH0 MSTORE PUSH1 0x20 PUSH0 KECCAK256 SWAP1 JUMPDEST DUP2 SLOAD DUP2 MSTORE SWAP1 PUSH1 0x1 ADD SWAP1 PUSH1 0x20 ADD DUP1 DUP4 GT PUSH2 0x1767 JUMPI DUP3 SWAP1 SUB PUSH1 0x1F AND DUP3 ADD SWAP2 JUMPDEST POP POP POP POP POP SWAP1 DUP1 PUSH1 0x3 ADD DUP1 SLOAD PUSH2 0x1799 SWAP1 PUSH2 0x2D3B JUMP JUMPDEST DUP1 PUSH1 0x1F ADD PUSH1 0x20 DUP1 SWAP2 DIV MUL PUSH1 0x20 ADD PUSH1 0x40 MLOAD SWAP1 DUP2 ADD PUSH1 0x40 MSTORE DUP1 SWAP3 SWAP2 SWAP1 DUP2 DUP2 MSTORE PUSH1 0x20 ADD DUP3 DUP1 SLOAD PUSH2 0x17C5 SWAP1 PUSH2 0x2D3B JUMP JUMPDEST DUP1 ISZERO PUSH2 0x1810 JUMPI DUP1 PUSH1 0x1F LT PUSH2 0x17E7 JUMPI PUSH2 0x100 DUP1 DUP4 SLOAD DIV MUL DUP4 MSTORE SWAP2 PUSH1 0x20 ADD SWAP2 PUSH2 0x1810 JUMP JUMPDEST DUP3 ADD SWAP2 SWAP1 PUSH0 MSTORE PUSH1 0x20 PUSH0 KECCAK256 SWAP1 JUMPDEST DUP2 SLOAD DUP2 MSTORE SWAP1 PUSH1 0x1 ADD SWAP1 PUSH1 0x20 ADD DUP1 DUP4 GT PUSH2 0x17F3 JUMPI DUP3 SWAP1 SUB PUSH1 0x1F AND DUP3 ADD SWAP2 JUMPDEST POP POP POP POP POP SWAP1 DUP1 PUSH1 0x4 ADD DUP1 SLOAD PUSH2 0x1825 SWAP1 PUSH2 0x2D3B JUMP JUMPDEST DUP1 PUSH1 0x1F ADD PUSH1 0x20 DUP1 SWAP2 DIV MUL PUSH1 0x20 ADD PUSH1 0x40 MLOAD SWAP1 DUP2 ADD PUSH1 0x40 MSTORE DUP1 SWAP3 SWAP2 SWAP1 DUP2 DUP2 MSTORE PUSH1 0x20 ADD DUP3 DUP1 SLOAD PUSH2 0x1851 SWAP1 PUSH2 0x2D3B JUMP JUMPDEST DUP1 ISZERO PUSH2 0x189C JUMPI DUP1 PUSH1 0x1F LT PUSH2 0x1873 JUMPI PUSH2 0x100 DUP1 DUP4 SLOAD DIV MUL DUP4 MSTORE SWAP2 PUSH1 0x20 ADD SWAP2 PUSH2 0x189C JUMP JUMPDEST DUP3 ADD SWAP2 SWAP1 PUSH0 MSTORE PUSH1 0x20 PUSH0 KECCAK256 SWAP1 JUMPDEST DUP2 SLOAD DUP2 MSTORE SWAP1 PUSH1 0x1 ADD SWAP1 PUSH1 0x20 ADD DUP1 DUP4 GT PUSH2 0x187F JUMPI DUP3 SWAP1 SUB PUSH1 0x1F AND DUP3 ADD SWAP2 JUMPDEST POP POP POP POP POP SWAP1 DUP1 PUSH1 0x5 ADD PUSH0 SWAP1 SLOAD SWAP1 PUSH2 0x100 EXP SWAP1 DIV PUSH20 0xFFFFFFFFFFFFFFFFFFFFFFFFFFFFFFFFFFFFFFFF AND SWAP1 DUP1 PUSH1 0x5 ADD PUSH1 0x14 SWAP1 SLOAD SWAP1 PUSH2 0x100 EXP SWAP1 DIV PUSH1 0xFF AND SWAP1 DUP1 PUSH1 0x5 ADD PUSH1 0x15 SWAP1 SLOAD SWAP1 PUSH2 0x100 EXP SWAP1 DIV PUSH1 0xFF AND SWAP1 POP DUP9 JUMP JUMPDEST CALLER PUSH1 0x1 ISZERO ISZERO PUSH1 0x8 PUSH0 DUP4 PUSH20 0xFFFFFFFFFFFFFFFFFFFFFFFFFFFFFFFFFFFFFFFF AND PUSH20 0xFFFFFFFFFFFFFFFFFFFFFFFFFFFFFFFFFFFFFFFF AND DUP2 MSTORE PUSH1 0x20 ADD SWAP1 DUP2 MSTORE PUSH1 0x20 ADD PUSH0 KECCAK256 PUSH0 SWAP1 SLOAD SWAP1 PUSH2 0x100 EXP SWAP1 DIV PUSH1 0xFF AND ISZERO ISZERO EQ PUSH1 0x40 MLOAD DUP1 PUSH1 0x60 ADD PUSH1 0x40 MSTORE DUP1 PUSH1 0x2D DUP2 MSTORE PUSH1 0x20 ADD PUSH2 0x31E5 PUSH1 0x2D SWAP2 CODECOPY SWAP1 PUSH2 0x199D JUMPI PUSH1 0x40 MLOAD PUSH32 0x8C379A000000000000000000000000000000000000000000000000000000000 DUP2 MSTORE PUSH1 0x4 ADD PUSH2 0x1994 SWAP2 SWAP1 PUSH2 0x2C43 JUMP JUMPDEST PUSH1 0x40 MLOAD DUP1 SWAP2 SUB SWAP1 REVERT JUMPDEST POP PUSH0 PUSH1 0xB PUSH0 DUP2 SLOAD PUSH2 0x19AD SWAP1 PUSH2 0x2C90 JUMP JUMPDEST SWAP2 SWAP1 POP DUP2 SWAP1 SSTORE SWAP1 POP PUSH0 PUSH1 0xA PUSH0 DUP8 DUP2 MSTORE PUSH1 0x20 ADD SWAP1 DUP2 MSTORE PUSH1 0x20 ADD PUSH0 KECCAK256 SWAP1 POP PUSH0 PUSH1 0xC PUSH0 DUP5 DUP2 MSTORE PUSH1 0x20 ADD SWAP1 DUP2 MSTORE PUSH1 0x20 ADD PUSH0 KECCAK256 SWAP1 POP DUP3 DUP2 PUSH0 ADD DUP2 SWAP1 SSTORE POP DUP7 DUP2 PUSH1 0x1 ADD DUP2 SWAP1 SSTORE POP DUP6 DUP6 DUP3 PUSH1 0x2 ADD SWAP2 DUP3 PUSH2 0x1A01 SWAP3 SWAP2 SWAP1 PUSH2 0x2F0B JUMP JUMPDEST POP PUSH1 0x2 PUSH0 CALLER PUSH20 0xFFFFFFFFFFFFFFFFFFFFFFFFFFFFFFFFFFFFFFFF AND PUSH20 0xFFFFFFFFFFFFFFFFFFFFFFFFFFFFFFFFFFFFFFFF AND DUP2 MSTORE PUSH1 0x20 ADD SWAP1 DUP2 MSTORE PUSH1 0x20 ADD PUSH0 KECCAK256 DUP2 PUSH1 0x3 ADD PUSH0 DUP3 ADD SLOAD DUP2 PUSH0 ADD SSTORE PUSH1 0x1 DUP3 ADD PUSH0 SWAP1 SLOAD SWAP1 PUSH2 0x100 EXP SWAP1 DIV PUSH20 0xFFFFFFFFFFFFFFFFFFFFFFFFFFFFFFFFFFFFFFFF AND DUP2 PUSH1 0x1 ADD PUSH0 PUSH2 0x100 EXP DUP2 SLOAD DUP2 PUSH20 0xFFFFFFFFFFFFFFFFFFFFFFFFFFFFFFFFFFFFFFFF MUL NOT AND SWAP1 DUP4 PUSH20 0xFFFFFFFFFFFFFFFFFFFFFFFFFFFFFFFFFFFFFFFF AND MUL OR SWAP1 SSTORE POP PUSH1 0x2 DUP3 ADD DUP2 PUSH1 0x2 ADD SWAP1 DUP2 PUSH2 0x1AC4 SWAP2 SWAP1 PUSH2 0x30D5 JUMP JUMPDEST POP PUSH1 0x3 DUP3 ADD DUP2 PUSH1 0x3 ADD SWAP1 DUP2 PUSH2 0x1AD9 SWAP2 SWAP1 PUSH2 0x30D5 JUMP JUMPDEST POP PUSH1 0x4 DUP3 ADD DUP2 PUSH1 0x4 ADD SWAP1 DUP2 PUSH2 0x1AEE SWAP2 SWAP1 PUSH2 0x30D5 JUMP JUMPDEST POP PUSH1 0x5 DUP3 ADD DUP2 PUSH1 0x5 ADD SWAP1 DUP2 PUSH2 0x1B03 SWAP2 SWAP1 PUSH2 0x30D5 JUMP JUMPDEST POP PUSH1 0x6 DUP3 ADD PUSH0 SWAP1 SLOAD SWAP1 PUSH2 0x100 EXP SWAP1 DIV PUSH1 0xFF AND DUP2 PUSH1 0x6 ADD PUSH0 PUSH2 0x100 EXP DUP2 SLOAD DUP2 PUSH1 0xFF MUL NOT AND SWAP1 DUP4 PUSH1 0x1 DUP2 GT ISZERO PUSH2 0x1B3A JUMPI PUSH2 0x1B39 PUSH2 0x2608 JUMP JUMPDEST JUMPDEST MUL OR SWAP1 SSTORE POP PUSH1 0x7 DUP3 ADD DUP2 PUSH1 0x7 ADD SWAP1 DUP1 SLOAD PUSH2 0x1B55 SWAP3 SWAP2 SWAP1 PUSH2 0x224E JUMP JUMPDEST POP SWAP1 POP POP PUSH0 DUP2 PUSH1 0xB ADD PUSH0 PUSH2 0x100 EXP DUP2 SLOAD DUP2 PUSH1 0xFF MUL NOT AND SWAP1 DUP4 PUSH1 0x2 DUP2 GT ISZERO PUSH2 0x1B7F JUMPI PUSH2 0x1B7E PUSH2 0x2608 JUMP JUMPDEST JUMPDEST MUL OR SWAP1 SSTORE POP DUP2 PUSH1 0xB ADD DUP2 SWAP1 DUP1 PUSH1 0x1 DUP2 SLOAD ADD DUP1 DUP3 SSTORE DUP1 SWAP2 POP POP PUSH1 0x1 SWAP1 SUB SWAP1 PUSH0 MSTORE PUSH1 0x20 PUSH0 KECCAK256 SWAP1 PUSH1 0xC MUL ADD PUSH0 SWAP1 SWAP2 SWAP1 SWAP2 SWAP1 SWAP2 POP PUSH0 DUP3 ADD SLOAD DUP2 PUSH0 ADD SSTORE PUSH1 0x1 DUP3 ADD SLOAD DUP2 PUSH1 0x1 ADD SSTORE PUSH1 0x2 DUP3 ADD DUP2 PUSH1 0x2 ADD SWAP1 DUP2 PUSH2 0x1BD5 SWAP2 SWAP1 PUSH2 0x30D5 JUMP JUMPDEST POP PUSH1 0x3 DUP3 ADD DUP2 PUSH1 0x3 ADD PUSH0 DUP3 ADD SLOAD DUP2 PUSH0 ADD SSTORE PUSH1 0x1 DUP3 ADD PUSH0 SWAP1 SLOAD SWAP1 PUSH2 0x100 EXP SWAP1 DIV PUSH20 0xFFFFFFFFFFFFFFFFFFFFFFFFFFFFFFFFFFFFFFFF AND DUP2 PUSH1 0x1 ADD PUSH0 PUSH2 0x100 EXP DUP2 SLOAD DUP2 PUSH20 0xFFFFFFFFFFFFFFFFFFFFFFFFFFFFFFFFFFFFFFFF MUL NOT AND SWAP1 DUP4 PUSH20 0xFFFFFFFFFFFFFFFFFFFFFFFFFFFFFFFFFFFFFFFF AND MUL OR SWAP1 SSTORE POP PUSH1 0x2 DUP3 ADD DUP2 PUSH1 0x2 ADD SWAP1 DUP2 PUSH2 0x1C5F SWAP2 SWAP1 PUSH2 0x30D5 JUMP JUMPDEST POP PUSH1 0x3 DUP3 ADD DUP2 PUSH1 0x3 ADD SWAP1 DUP2 PUSH2 0x1C74 SWAP2 SWAP1 PUSH2 0x30D5 JUMP JUMPDEST POP PUSH1 0x4 DUP3 ADD DUP2 PUSH1 0x4 ADD SWAP1 DUP2 PUSH2 0x1C89 SWAP2 SWAP1 PUSH2 0x30D5 JUMP JUMPDEST POP PUSH1 0x5 DUP3 ADD DUP2 PUSH1 0x5 ADD SWAP1 DUP2 PUSH2 0x1C9E SWAP2 SWAP1 PUSH2 0x30D5 JUMP JUMPDEST POP PUSH1 0x6 DUP3 ADD PUSH0 SWAP1 SLOAD SWAP1 PUSH2 0x100 EXP SWAP1 DIV PUSH1 0xFF AND DUP2 PUSH1 0x6 ADD PUSH0 PUSH2 0x100 EXP DUP2 SLOAD DUP2 PUSH1 0xFF MUL NOT AND SWAP1 DUP4 PUSH1 0x1 DUP2 GT ISZERO PUSH2 0x1CD5 JUMPI PUSH2 0x1CD4 PUSH2 0x2608 JUMP JUMPDEST JUMPDEST MUL OR SWAP1 SSTORE POP PUSH1 0x7 DUP3 ADD DUP2 PUSH1 0x7 ADD SWAP1 DUP1 SLOAD PUSH2 0x1CF0 SWAP3 SWAP2 SWAP1 PUSH2 0x224E JUMP JUMPDEST POP POP POP PUSH1 0xB DUP3 ADD PUSH0 SWAP1 SLOAD SWAP1 PUSH2 0x100 EXP SWAP1 DIV PUSH1 0xFF AND DUP2 PUSH1 0xB ADD PUSH0 PUSH2 0x100 EXP DUP2 SLOAD DUP2 PUSH1 0xFF MUL NOT AND SWAP1 DUP4 PUSH1 0x2 DUP2 GT ISZERO PUSH2 0x1D29 JUMPI PUSH2 0x1D28 PUSH2 0x2608 JUMP JUMPDEST JUMPDEST MUL OR SWAP1 SSTORE POP POP POP PUSH32 0x4B6126472F7A5C1A21FE858797A6BB6ED361C62B74D480965163D30D68576D4F DUP4 PUSH1 0x40 MLOAD PUSH2 0x1D5F SWAP2 SWAP1 PUSH2 0x2FD8 JUMP JUMPDEST PUSH1 0x40 MLOAD DUP1 SWAP2 SUB SWAP1 LOG1 POP POP POP POP POP POP POP JUMP JUMPDEST PUSH1 0xA PUSH1 0x20 MSTORE DUP1 PUSH0 MSTORE PUSH1 0x40 PUSH0 KECCAK256 PUSH0 SWAP2 POP SWAP1 POP DUP1 PUSH0 ADD SLOAD SWAP1 DUP1 PUSH1 0x1 ADD DUP1 SLOAD PUSH2 0x1D95 SWAP1 PUSH2 0x2D3B JUMP JUMPDEST DUP1 PUSH1 0x1F ADD PUSH1 0x20 DUP1 SWAP2 DIV MUL PUSH1 0x20 ADD PUSH1 0x40 MLOAD SWAP1 DUP2 ADD PUSH1 0x40 MSTORE DUP1 SWAP3 SWAP2 SWAP1 DUP2 DUP2 MSTORE PUSH1 0x20 ADD DUP3 DUP1 SLOAD PUSH2 0x1DC1 SWAP1 PUSH2 0x2D3B JUMP JUMPDEST DUP1 ISZERO PUSH2 0x1E0C JUMPI DUP1 PUSH1 0x1F LT PUSH2 0x1DE3 JUMPI PUSH2 0x100 DUP1 DUP4 SLOAD DIV MUL DUP4 MSTORE SWAP2 PUSH1 0x20 ADD SWAP2 PUSH2 0x1E0C JUMP JUMPDEST DUP3 ADD SWAP2 SWAP1 PUSH0 MSTORE PUSH1 0x20 PUSH0 KECCAK256 SWAP1 JUMPDEST DUP2 SLOAD DUP2 MSTORE SWAP1 PUSH1 0x1 ADD SWAP1 PUSH1 0x20 ADD DUP1 DUP4 GT PUSH2 0x1DEF JUMPI DUP3 SWAP1 SUB PUSH1 0x1F AND DUP3 ADD SWAP2 JUMPDEST POP POP POP POP POP SWAP1 DUP1 PUSH1 0x2 ADD DUP1 SLOAD PUSH2 0x1E21 SWAP1 PUSH2 0x2D3B JUMP JUMPDEST DUP1 PUSH1 0x1F ADD PUSH1 0x20 DUP1 SWAP2 DIV MUL PUSH1 0x20 ADD PUSH1 0x40 MLOAD SWAP1 DUP2 ADD PUSH1 0x40 MSTORE DUP1 SWAP3 SWAP2 SWAP1 DUP2 DUP2 MSTORE PUSH1 0x20 ADD DUP3 DUP1 SLOAD PUSH2 0x1E4D SWAP1 PUSH2 0x2D3B JUMP JUMPDEST DUP1 ISZERO PUSH2 0x1E98 JUMPI DUP1 PUSH1 0x1F LT PUSH2 0x1E6F JUMPI PUSH2 0x100 DUP1 DUP4 SLOAD DIV MUL DUP4 MSTORE SWAP2 PUSH1 0x20 ADD SWAP2 PUSH2 0x1E98 JUMP JUMPDEST DUP3 ADD SWAP2 SWAP1 PUSH0 MSTORE PUSH1 0x20 PUSH0 KECCAK256 SWAP1 JUMPDEST DUP2 SLOAD DUP2 MSTORE SWAP1 PUSH1 0x1 ADD SWAP1 PUSH1 0x20 ADD DUP1 DUP4 GT PUSH2 0x1E7B JUMPI DUP3 SWAP1 SUB PUSH1 0x1F AND DUP3 ADD SWAP2 JUMPDEST POP POP POP POP POP SWAP1 DUP1 PUSH1 0x3 ADD SLOAD SWAP1 DUP1 PUSH1 0x4 ADD PUSH1 0x40 MLOAD DUP1 PUSH2 0x120 ADD PUSH1 0x40 MSTORE SWAP1 DUP2 PUSH0 DUP3 ADD SLOAD DUP2 MSTORE PUSH1 0x20 ADD PUSH1 0x1 DUP3 ADD DUP1 SLOAD PUSH2 0x1ECD SWAP1 PUSH2 0x2D3B JUMP JUMPDEST DUP1 PUSH1 0x1F ADD PUSH1 0x20 DUP1 SWAP2 DIV MUL PUSH1 0x20 ADD PUSH1 0x40 MLOAD SWAP1 DUP2 ADD PUSH1 0x40 MSTORE DUP1 SWAP3 SWAP2 SWAP1 DUP2 DUP2 MSTORE PUSH1 0x20 ADD DUP3 DUP1 SLOAD PUSH2 0x1EF9 SWAP1 PUSH2 0x2D3B JUMP JUMPDEST DUP1 ISZERO PUSH2 0x1F44 JUMPI DUP1 PUSH1 0x1F LT PUSH2 0x1F1B JUMPI PUSH2 0x100 DUP1 DUP4 SLOAD DIV MUL DUP4 MSTORE SWAP2 PUSH1 0x20 ADD SWAP2 PUSH2 0x1F44 JUMP JUMPDEST DUP3 ADD SWAP2 SWAP1 PUSH0 MSTORE PUSH1 0x20 PUSH0 KECCAK256 SWAP1 JUMPDEST DUP2 SLOAD DUP2 MSTORE SWAP1 PUSH1 0x1 ADD SWAP1 PUSH1 0x20 ADD DUP1 DUP4 GT PUSH2 0x1F27 JUMPI DUP3 SWAP1 SUB PUSH1 0x1F AND DUP3 ADD SWAP2 JUMPDEST POP POP POP POP POP DUP2 MSTORE PUSH1 0x20 ADD PUSH1 0x2 DUP3 ADD DUP1 SLOAD PUSH2 0x1F5D SWAP1 PUSH2 0x2D3B JUMP JUMPDEST DUP1 PUSH1 0x1F ADD PUSH1 0x20 DUP1 SWAP2 DIV MUL PUSH1 0x20 ADD PUSH1 0x40 MLOAD SWAP1 DUP2 ADD PUSH1 0x40 MSTORE DUP1 SWAP3 SWAP2 SWAP1 DUP2 DUP2 MSTORE PUSH1 0x20 ADD DUP3 DUP1 SLOAD PUSH2 0x1F89 SWAP1 PUSH2 0x2D3B JUMP JUMPDEST DUP1 ISZERO PUSH2 0x1FD4 JUMPI DUP1 PUSH1 0x1F LT PUSH2 0x1FAB JUMPI PUSH2 0x100 DUP1 DUP4 SLOAD DIV MUL DUP4 MSTORE SWAP2 PUSH1 0x20 ADD SWAP2 PUSH2 0x1FD4 JUMP JUMPDEST DUP3 ADD SWAP2 SWAP1 PUSH0 MSTORE PUSH1 0x20 PUSH0 KECCAK256 SWAP1 JUMPDEST DUP2 SLOAD DUP2 MSTORE SWAP1 PUSH1 0x1 ADD SWAP1 PUSH1 0x20 ADD DUP1 DUP4 GT PUSH2 0x1FB7 JUMPI DUP3 SWAP1 SUB PUSH1 0x1F AND DUP3 ADD SWAP2 JUMPDEST POP POP POP POP POP DUP2 MSTORE PUSH1 0x20 ADD PUSH1 0x3 DUP3 ADD DUP1 SLOAD PUSH2 0x1FED SWAP1 PUSH2 0x2D3B JUMP JUMPDEST DUP1 PUSH1 0x1F ADD PUSH1 0x20 DUP1 SWAP2 DIV MUL PUSH1 0x20 ADD PUSH1 0x40 MLOAD SWAP1 DUP2 ADD PUSH1 0x40 MSTORE DUP1 SWAP3 SWAP2 SWAP1 DUP2 DUP2 MSTORE PUSH1 0x20 ADD DUP3 DUP1 SLOAD PUSH2 0x2019 SWAP1 PUSH2 0x2D3B JUMP JUMPDEST DUP1 ISZERO PUSH2 0x2064 JUMPI DUP1 PUSH1 0x1F LT PUSH2 0x203B JUMPI PUSH2 0x100 DUP1 DUP4 SLOAD DIV MUL DUP4 MSTORE SWAP2 PUSH1 0x20 ADD SWAP2 PUSH2 0x2064 JUMP JUMPDEST DUP3 ADD SWAP2 SWAP1 PUSH0 MSTORE PUSH1 0x20 PUSH0 KECCAK256 SWAP1 JUMPDEST DUP2 SLOAD DUP2 MSTORE SWAP1 PUSH1 0x1 ADD SWAP1 PUSH1 0x20 ADD DUP1 DUP4 GT PUSH2 0x2047 JUMPI DUP3 SWAP1 SUB PUSH1 0x1F AND DUP3 ADD SWAP2 JUMPDEST POP POP POP POP POP DUP2 MSTORE PUSH1 0x20 ADD PUSH1 0x4 DUP3 ADD DUP1 SLOAD PUSH2 0x207D SWAP1 PUSH2 0x2D3B JUMP JUMPDEST DUP1 PUSH1 0x1F ADD PUSH1 0x20 DUP1 SWAP2 DIV MUL PUSH1 0x20 ADD PUSH1 0x40 MLOAD SWAP1 DUP2 ADD PUSH1 0x40 MSTORE DUP1 SWAP3 SWAP2 SWAP1 DUP2 DUP2 MSTORE PUSH1 0x20 ADD DUP3 DUP1 SLOAD PUSH2 0x20A9 SWAP1 PUSH2 0x2D3B JUMP JUMPDEST DUP1 ISZERO PUSH2 0x20F4 JUMPI DUP1 PUSH1 0x1F LT PUSH2 0x20CB JUMPI PUSH2 0x100 DUP1 DUP4 SLOAD DIV MUL DUP4 MSTORE SWAP2 PUSH1 0x20 ADD SWAP2 PUSH2 0x20F4 JUMP JUMPDEST DUP3 ADD SWAP2 SWAP1 PUSH0 MSTORE PUSH1 0x20 PUSH0 KECCAK256 SWAP1 JUMPDEST DUP2 SLOAD DUP2 MSTORE SWAP1 PUSH1 0x1 ADD SWAP1 PUSH1 0x20 ADD DUP1 DUP4 GT PUSH2 0x20D7 JUMPI DUP3 SWAP1 SUB PUSH1 0x1F AND DUP3 ADD SWAP2 JUMPDEST POP POP POP POP POP DUP2 MSTORE PUSH1 0x20 ADD PUSH1 0x5 DUP3 ADD PUSH0 SWAP1 SLOAD SWAP1 PUSH2 0x100 EXP SWAP1 DIV PUSH20 0xFFFFFFFFFFFFFFFFFFFFFFFFFFFFFFFFFFFFFFFF AND PUSH20 0xFFFFFFFFFFFFFFFFFFFFFFFFFFFFFFFFFFFFFFFF AND PUSH20 0xFFFFFFFFFFFFFFFFFFFFFFFFFFFFFFFFFFFFFFFF AND DUP2 MSTORE PUSH1 0x20 ADD PUSH1 0x5 DUP3 ADD PUSH1 0x14 SWAP1 SLOAD SWAP1 PUSH2 0x100 EXP SWAP1 DIV PUSH1 0xFF AND ISZERO ISZERO ISZERO ISZERO DUP2 MSTORE PUSH1 0x20 ADD PUSH1 0x5 DUP3 ADD PUSH1 0x15 SWAP1 SLOAD SWAP1 PUSH2 0x100 EXP SWAP1 DIV PUSH1 0xFF AND PUSH1 0x1 DUP2 GT ISZERO PUSH2 0x2192 JUMPI PUSH2 0x2191 PUSH2 0x2608 JUMP JUMPDEST JUMPDEST PUSH1 0x1 DUP2 GT ISZERO PUSH2 0x21A4 JUMPI PUSH2 0x21A3 PUSH2 0x2608 JUMP JUMPDEST JUMPDEST DUP2 MSTORE PUSH1 0x20 ADD PUSH1 0x6 DUP3 ADD DUP1 SLOAD DUP1 PUSH1 0x20 MUL PUSH1 0x20 ADD PUSH1 0x40 MLOAD SWAP1 DUP2 ADD PUSH1 0x40 MSTORE DUP1 SWAP3 SWAP2 SWAP1 DUP2 DUP2 MSTORE PUSH1 0x20 ADD DUP3 DUP1 SLOAD DUP1 ISZERO PUSH2 0x21F5 JUMPI PUSH1 0x20 MUL DUP3 ADD SWAP2 SWAP1 PUSH0 MSTORE PUSH1 0x20 PUSH0 KECCAK256 SWAP1 JUMPDEST DUP2 SLOAD DUP2 MSTORE PUSH1 0x20 ADD SWAP1 PUSH1 0x1 ADD SWAP1 DUP1 DUP4 GT PUSH2 0x21E1 JUMPI JUMPDEST POP POP POP POP POP DUP2 MSTORE POP POP SWAP1 POP DUP6 JUMP JUMPDEST DUP3 DUP1 SLOAD DUP3 DUP3 SSTORE SWAP1 PUSH0 MSTORE PUSH1 0x20 PUSH0 KECCAK256 SWAP1 DUP2 ADD SWAP3 DUP3 ISZERO PUSH2 0x223D JUMPI SWAP2 PUSH1 0x20 MUL DUP3 ADD JUMPDEST DUP3 DUP2 GT ISZERO PUSH2 0x223C JUMPI DUP3 MLOAD DUP3 SSTORE SWAP2 PUSH1 0x20 ADD SWAP2 SWAP1 PUSH1 0x1 ADD SWAP1 PUSH2 0x2221 JUMP JUMPDEST JUMPDEST POP SWAP1 POP PUSH2 0x224A SWAP2 SWAP1 PUSH2 0x229C JUMP JUMPDEST POP SWAP1 JUMP JUMPDEST DUP3 DUP1 SLOAD DUP3 DUP3 SSTORE SWAP1 PUSH0 MSTORE PUSH1 0x20 PUSH0 KECCAK256 SWAP1 DUP2 ADD SWAP3 DUP3 ISZERO PUSH2 0x228B JUMPI PUSH0 MSTORE PUSH1 0x20 PUSH0 KECCAK256 SWAP2 DUP3 ADD JUMPDEST DUP3 DUP2 GT ISZERO PUSH2 0x228A JUMPI DUP3 SLOAD DUP3 SSTORE SWAP2 PUSH1 0x1 ADD SWAP2 SWAP1 PUSH1 0x1 ADD SWAP1 PUSH2 0x226F JUMP JUMPDEST JUMPDEST POP SWAP1 POP PUSH2 0x2298 SWAP2 SWAP1 PUSH2 0x229C JUMP JUMPDEST POP SWAP1 JUMP JUMPDEST JUMPDEST DUP1 DUP3 GT ISZERO PUSH2 0x22B3 JUMPI PUSH0 DUP2 PUSH0 SWAP1 SSTORE POP PUSH1 0x1 ADD PUSH2 0x229D JUMP JUMPDEST POP SWAP1 JUMP JUMPDEST PUSH0 PUSH0 REVERT JUMPDEST PUSH0 PUSH0 REVERT JUMPDEST PUSH0 PUSH0 REVERT JUMPDEST PUSH0 PUSH0 REVERT JUMPDEST PUSH0 PUSH0 REVERT JUMPDEST PUSH0 PUSH0 DUP4 PUSH1 0x1F DUP5 ADD SLT PUSH2 0x22E0 JUMPI PUSH2 0x22DF PUSH2 0x22BF JUMP JUMPDEST JUMPDEST DUP3 CALLDATALOAD SWAP1 POP PUSH8 0xFFFFFFFFFFFFFFFF DUP2 GT ISZERO PUSH2 0x22FD JUMPI PUSH2 0x22FC PUSH2 0x22C3 JUMP JUMPDEST JUMPDEST PUSH1 0x20 DUP4 ADD SWAP2 POP DUP4 PUSH1 0x1 DUP3 MUL DUP4 ADD GT ISZERO PUSH2 0x2319 JUMPI PUSH2 0x2318 PUSH2 0x22C7 JUMP JUMPDEST JUMPDEST SWAP3 POP SWAP3 SWAP1 POP JUMP JUMPDEST PUSH0 PUSH0 PUSH0 PUSH0 PUSH0 PUSH0 PUSH0 PUSH0 PUSH1 0x80 DUP10 DUP12 SUB SLT ISZERO PUSH2 0x233C JUMPI PUSH2 0x233B PUSH2 0x22B7 JUMP JUMPDEST JUMPDEST PUSH0 DUP10 ADD CALLDATALOAD PUSH8 0xFFFFFFFFFFFFFFFF DUP2 GT ISZERO PUSH2 0x2359 JUMPI PUSH2 0x2358 PUSH2 0x22BB JUMP JUMPDEST JUMPDEST PUSH2 0x2365 DUP12 DUP3 DUP13 ADD PUSH2 0x22CB JUMP JUMPDEST SWAP9 POP SWAP9 POP POP PUSH1 0x20 DUP10 ADD CALLDATALOAD PUSH8 0xFFFFFFFFFFFFFFFF DUP2 GT ISZERO PUSH2 0x2388 JUMPI PUSH2 0x2387 PUSH2 0x22BB JUMP JUMPDEST JUMPDEST PUSH2 0x2394 DUP12 DUP3 DUP13 ADD PUSH2 0x22CB JUMP JUMPDEST SWAP7 POP SWAP7 POP POP PUSH1 0x40 DUP10 ADD CALLDATALOAD PUSH8 0xFFFFFFFFFFFFFFFF DUP2 GT ISZERO PUSH2 0x23B7 JUMPI PUSH2 0x23B6 PUSH2 0x22BB JUMP JUMPDEST JUMPDEST PUSH2 0x23C3 DUP12 DUP3 DUP13 ADD PUSH2 0x22CB JUMP JUMPDEST SWAP5 POP SWAP5 POP POP PUSH1 0x60 DUP10 ADD CALLDATALOAD PUSH8 0xFFFFFFFFFFFFFFFF DUP2 GT ISZERO PUSH2 0x23E6 JUMPI PUSH2 0x23E5 PUSH2 0x22BB JUMP JUMPDEST JUMPDEST PUSH2 0x23F2 DUP12 DUP3 DUP13 ADD PUSH2 0x22CB JUMP JUMPDEST SWAP3 POP SWAP3 POP POP SWAP3 SWAP6 SWAP9 POP SWAP3 SWAP6 SWAP9 SWAP1 SWAP4 SWAP7 POP JUMP JUMPDEST PUSH0 DUP2 SWAP1 POP SWAP2 SWAP1 POP JUMP JUMPDEST PUSH2 0x2416 DUP2 PUSH2 0x2404 JUMP JUMPDEST DUP2 EQ PUSH2 0x2420 JUMPI PUSH0 PUSH0 REVERT JUMPDEST POP JUMP JUMPDEST PUSH0 DUP2 CALLDATALOAD SWAP1 POP PUSH2 0x2431 DUP2 PUSH2 0x240D JUMP JUMPDEST SWAP3 SWAP2 POP POP JUMP JUMPDEST PUSH0 PUSH0 PUSH0 PUSH0 PUSH0 PUSH1 0x60 DUP7 DUP9 SUB SLT ISZERO PUSH2 0x2450 JUMPI PUSH2 0x244F PUSH2 0x22B7 JUMP JUMPDEST JUMPDEST PUSH0 DUP7 ADD CALLDATALOAD PUSH8 0xFFFFFFFFFFFFFFFF DUP2 GT ISZERO PUSH2 0x246D JUMPI PUSH2 0x246C PUSH2 0x22BB JUMP JUMPDEST JUMPDEST PUSH2 0x2479 DUP9 DUP3 DUP10 ADD PUSH2 0x22CB JUMP JUMPDEST SWAP6 POP SWAP6 POP POP PUSH1 0x20 DUP7 ADD CALLDATALOAD PUSH8 0xFFFFFFFFFFFFFFFF DUP2 GT ISZERO PUSH2 0x249C JUMPI PUSH2 0x249B PUSH2 0x22BB JUMP JUMPDEST JUMPDEST PUSH2 0x24A8 DUP9 DUP3 DUP10 ADD PUSH2 0x22CB JUMP JUMPDEST SWAP4 POP SWAP4 POP POP PUSH1 0x40 PUSH2 0x24BB DUP9 DUP3 DUP10 ADD PUSH2 0x2423 JUMP JUMPDEST SWAP2 POP POP SWAP3 SWAP6 POP SWAP3 SWAP6 SWAP1 SWAP4 POP JUMP JUMPDEST PUSH0 PUSH1 0x20 DUP3 DUP5 SUB SLT ISZERO PUSH2 0x24DD JUMPI PUSH2 0x24DC PUSH2 0x22B7 JUMP JUMPDEST JUMPDEST PUSH0 PUSH2 0x24EA DUP5 DUP3 DUP6 ADD PUSH2 0x2423 JUMP JUMPDEST SWAP2 POP POP SWAP3 SWAP2 POP POP JUMP JUMPDEST PUSH2 0x24FC DUP2 PUSH2 0x2404 JUMP JUMPDEST DUP3 MSTORE POP POP JUMP JUMPDEST PUSH0 DUP2 MLOAD SWAP1 POP SWAP2 SWAP1 POP JUMP JUMPDEST PUSH0 DUP3 DUP3 MSTORE PUSH1 0x20 DUP3 ADD SWAP1 POP SWAP3 SWAP2 POP POP JUMP JUMPDEST DUP3 DUP2 DUP4 MCOPY PUSH0 DUP4 DUP4 ADD MSTORE POP POP POP JUMP JUMPDEST PUSH0 PUSH1 0x1F NOT PUSH1 0x1F DUP4 ADD AND SWAP1 POP SWAP2 SWAP1 POP JUMP JUMPDEST PUSH0 PUSH2 0x2544 DUP3 PUSH2 0x2502 JUMP JUMPDEST PUSH2 0x254E DUP2 DUP6 PUSH2 0x250C JUMP JUMPDEST SWAP4 POP PUSH2 0x255E DUP2 DUP6 PUSH1 0x20 DUP7 ADD PUSH2 0x251C JUMP JUMPDEST PUSH2 0x2567 DUP2 PUSH2 0x252A JUMP JUMPDEST DUP5 ADD SWAP2 POP POP SWAP3 SWAP2 POP POP JUMP JUMPDEST PUSH2 0x257B DUP2 PUSH2 0x2404 JUMP JUMPDEST DUP3 MSTORE POP POP JUMP JUMPDEST PUSH0 PUSH20 0xFFFFFFFFFFFFFFFFFFFFFFFFFFFFFFFFFFFFFFFF DUP3 AND SWAP1 POP SWAP2 SWAP1 POP JUMP JUMPDEST PUSH0 PUSH2 0x25AA DUP3 PUSH2 0x2581 JUMP JUMPDEST SWAP1 POP SWAP2 SWAP1 POP JUMP JUMPDEST PUSH2 0x25BA DUP2 PUSH2 0x25A0 JUMP JUMPDEST DUP3 MSTORE POP POP JUMP JUMPDEST PUSH0 DUP3 DUP3 MSTORE PUSH1 0x20 DUP3 ADD SWAP1 POP SWAP3 SWAP2 POP POP JUMP JUMPDEST PUSH0 PUSH2 0x25DA DUP3 PUSH2 0x2502 JUMP JUMPDEST PUSH2 0x25E4 DUP2 DUP6 PUSH2 0x25C0 JUMP JUMPDEST SWAP4 POP PUSH2 0x25F4 DUP2 DUP6 PUSH1 0x20 DUP7 ADD PUSH2 0x251C JUMP JUMPDEST PUSH2 0x25FD DUP2 PUSH2 0x252A JUMP JUMPDEST DUP5 ADD SWAP2 POP POP SWAP3 SWAP2 POP POP JUMP JUMPDEST PUSH32 0x4E487B7100000000000000000000000000000000000000000000000000000000 PUSH0 MSTORE PUSH1 0x21 PUSH1 0x4 MSTORE PUSH1 0x24 PUSH0 REVERT JUMPDEST PUSH1 0x2 DUP2 LT PUSH2 0x2646 JUMPI PUSH2 0x2645 PUSH2 0x2608 JUMP JUMPDEST JUMPDEST POP JUMP JUMPDEST PUSH0 DUP2 SWAP1 POP PUSH2 0x2656 DUP3 PUSH2 0x2635 JUMP JUMPDEST SWAP2 SWAP1 POP JUMP JUMPDEST PUSH0 PUSH2 0x2665 DUP3 PUSH2 0x2649 JUMP JUMPDEST SWAP1 POP SWAP2 SWAP1 POP JUMP JUMPDEST PUSH2 0x2675 DUP2 PUSH2 0x265B JUMP JUMPDEST DUP3 MSTORE POP POP JUMP JUMPDEST PUSH0 DUP2 MLOAD SWAP1 POP SWAP2 SWAP1 POP JUMP JUMPDEST PUSH0 DUP3 DUP3 MSTORE PUSH1 0x20 DUP3 ADD SWAP1 POP SWAP3 SWAP2 POP POP JUMP JUMPDEST PUSH0 DUP2 SWAP1 POP PUSH1 0x20 DUP3 ADD SWAP1 POP SWAP2 SWAP1 POP JUMP JUMPDEST PUSH0 PUSH2 0x26AF DUP4 DUP4 PUSH2 0x2572 JUMP JUMPDEST PUSH1 0x20 DUP4 ADD SWAP1 POP SWAP3 SWAP2 POP POP JUMP JUMPDEST PUSH0 PUSH1 0x20 DUP3 ADD SWAP1 POP SWAP2 SWAP1 POP JUMP JUMPDEST PUSH0 PUSH2 0x26D1 DUP3 PUSH2 0x267B JUMP JUMPDEST PUSH2 0x26DB DUP2 DUP6 PUSH2 0x2685 JUMP JUMPDEST SWAP4 POP PUSH2 0x26E6 DUP4 PUSH2 0x2695 JUMP JUMPDEST DUP1 PUSH0 JUMPDEST DUP4 DUP2 LT ISZERO PUSH2 0x2716 JUMPI DUP2 MLOAD PUSH2 0x26FD DUP9 DUP3 PUSH2 0x26A4 JUMP JUMPDEST SWAP8 POP PUSH2 0x2708 DUP4 PUSH2 0x26BB JUMP JUMPDEST SWAP3 POP POP PUSH1 0x1 DUP2 ADD SWAP1 POP PUSH2 0x26E9 JUMP JUMPDEST POP DUP6 SWAP4 POP POP POP POP SWAP3 SWAP2 POP POP JUMP JUMPDEST PUSH0 PUSH2 0x100 DUP4 ADD PUSH0 DUP4 ADD MLOAD PUSH2 0x2739 PUSH0 DUP7 ADD DUP3 PUSH2 0x2572 JUMP JUMPDEST POP PUSH1 0x20 DUP4 ADD MLOAD PUSH2 0x274C PUSH1 0x20 DUP7 ADD DUP3 PUSH2 0x25B1 JUMP JUMPDEST POP PUSH1 0x40 DUP4 ADD MLOAD DUP5 DUP3 SUB PUSH1 0x40 DUP7 ADD MSTORE PUSH2 0x2764 DUP3 DUP3 PUSH2 0x25D0 JUMP JUMPDEST SWAP2 POP POP PUSH1 0x60 DUP4 ADD MLOAD DUP5 DUP3 SUB PUSH1 0x60 DUP7 ADD MSTORE PUSH2 0x277E DUP3 DUP3 PUSH2 0x25D0 JUMP JUMPDEST SWAP2 POP POP PUSH1 0x80 DUP4 ADD MLOAD DUP5 DUP3 SUB PUSH1 0x80 DUP7 ADD MSTORE PUSH2 0x2798 DUP3 DUP3 PUSH2 0x25D0 JUMP JUMPDEST SWAP2 POP POP PUSH1 0xA0 DUP4 ADD MLOAD DUP5 DUP3 SUB PUSH1 0xA0 DUP7 ADD MSTORE PUSH2 0x27B2 DUP3 DUP3 PUSH2 0x25D0 JUMP JUMPDEST SWAP2 POP POP PUSH1 0xC0 DUP4 ADD MLOAD PUSH2 0x27C7 PUSH1 0xC0 DUP7 ADD DUP3 PUSH2 0x266C JUMP JUMPDEST POP PUSH1 0xE0 DUP4 ADD MLOAD DUP5 DUP3 SUB PUSH1 0xE0 DUP7 ADD MSTORE PUSH2 0x27DF DUP3 DUP3 PUSH2 0x26C7 JUMP JUMPDEST SWAP2 POP POP DUP1 SWAP2 POP POP SWAP3 SWAP2 POP POP JUMP JUMPDEST PUSH1 0x3 DUP2 LT PUSH2 0x27FD JUMPI PUSH2 0x27FC PUSH2 0x2608 JUMP JUMPDEST JUMPDEST POP JUMP JUMPDEST PUSH0 DUP2 SWAP1 POP PUSH2 0x280D DUP3 PUSH2 0x27EC JUMP JUMPDEST SWAP2 SWAP1 POP JUMP JUMPDEST PUSH0 PUSH2 0x281C DUP3 PUSH2 0x2800 JUMP JUMPDEST SWAP1 POP SWAP2 SWAP1 POP JUMP JUMPDEST PUSH2 0x282C DUP2 PUSH2 0x2812 JUMP JUMPDEST DUP3 MSTORE POP POP JUMP JUMPDEST PUSH0 PUSH1 0xA0 DUP3 ADD SWAP1 POP PUSH2 0x2845 PUSH0 DUP4 ADD DUP9 PUSH2 0x24F3 JUMP JUMPDEST PUSH2 0x2852 PUSH1 0x20 DUP4 ADD DUP8 PUSH2 0x24F3 JUMP JUMPDEST DUP2 DUP2 SUB PUSH1 0x40 DUP4 ADD MSTORE PUSH2 0x2864 DUP2 DUP7 PUSH2 0x253A JUMP JUMPDEST SWAP1 POP DUP2 DUP2 SUB PUSH1 0x60 DUP4 ADD MSTORE PUSH2 0x2878 DUP2 DUP6 PUSH2 0x2723 JUMP JUMPDEST SWAP1 POP PUSH2 0x2887 PUSH1 0x80 DUP4 ADD DUP5 PUSH2 0x2823 JUMP JUMPDEST SWAP7 SWAP6 POP POP POP POP POP POP JUMP JUMPDEST PUSH2 0x289A DUP2 PUSH2 0x25A0 JUMP JUMPDEST DUP2 EQ PUSH2 0x28A4 JUMPI PUSH0 PUSH0 REVERT JUMPDEST POP JUMP JUMPDEST PUSH0 DUP2 CALLDATALOAD SWAP1 POP PUSH2 0x28B5 DUP2 PUSH2 0x2891 JUMP JUMPDEST SWAP3 SWAP2 POP POP JUMP JUMPDEST PUSH0 PUSH1 0x20 DUP3 DUP5 SUB SLT ISZERO PUSH2 0x28D0 JUMPI PUSH2 0x28CF PUSH2 0x22B7 JUMP JUMPDEST JUMPDEST PUSH0 PUSH2 0x28DD DUP5 DUP3 DUP6 ADD PUSH2 0x28A7 JUMP JUMPDEST SWAP2 POP POP SWAP3 SWAP2 POP POP JUMP JUMPDEST PUSH2 0x28EF DUP2 PUSH2 0x25A0 JUMP JUMPDEST DUP3 MSTORE POP POP JUMP JUMPDEST PUSH2 0x28FE DUP2 PUSH2 0x265B JUMP JUMPDEST DUP3 MSTORE POP POP JUMP JUMPDEST PUSH0 PUSH1 0xE0 DUP3 ADD SWAP1 POP PUSH2 0x2917 PUSH0 DUP4 ADD DUP11 PUSH2 0x24F3 JUMP JUMPDEST PUSH2 0x2924 PUSH1 0x20 DUP4 ADD DUP10 PUSH2 0x28E6 JUMP JUMPDEST DUP2 DUP2 SUB PUSH1 0x40 DUP4 ADD MSTORE PUSH2 0x2936 DUP2 DUP9 PUSH2 0x253A JUMP JUMPDEST SWAP1 POP DUP2 DUP2 SUB PUSH1 0x60 DUP4 ADD MSTORE PUSH2 0x294A DUP2 DUP8 PUSH2 0x253A JUMP JUMPDEST SWAP1 POP DUP2 DUP2 SUB PUSH1 0x80 DUP4 ADD MSTORE PUSH2 0x295E DUP2 DUP7 PUSH2 0x253A JUMP JUMPDEST SWAP1 POP DUP2 DUP2 SUB PUSH1 0xA0 DUP4 ADD MSTORE PUSH2 0x2972 DUP2 DUP6 PUSH2 0x253A JUMP JUMPDEST SWAP1 POP PUSH2 0x2981 PUSH1 0xC0 DUP4 ADD DUP5 PUSH2 0x28F5 JUMP JUMPDEST SWAP9 SWAP8 POP POP POP POP POP POP POP POP JUMP JUMPDEST PUSH0 DUP2 ISZERO ISZERO SWAP1 POP SWAP2 SWAP1 POP JUMP JUMPDEST PUSH2 0x29A1 DUP2 PUSH2 0x298D JUMP JUMPDEST DUP3 MSTORE POP POP JUMP JUMPDEST PUSH0 PUSH2 0x100 DUP3 ADD SWAP1 POP PUSH2 0x29BB PUSH0 DUP4 ADD DUP12 PUSH2 0x24F3 JUMP JUMPDEST DUP2 DUP2 SUB PUSH1 0x20 DUP4 ADD MSTORE PUSH2 0x29CD DUP2 DUP11 PUSH2 0x253A JUMP JUMPDEST SWAP1 POP DUP2 DUP2 SUB PUSH1 0x40 DUP4 ADD MSTORE PUSH2 0x29E1 DUP2 DUP10 PUSH2 0x253A JUMP JUMPDEST SWAP1 POP DUP2 DUP2 SUB PUSH1 0x60 DUP4 ADD MSTORE PUSH2 0x29F5 DUP2 DUP9 PUSH2 0x253A JUMP JUMPDEST SWAP1 POP DUP2 DUP2 SUB PUSH1 0x80 DUP4 ADD MSTORE PUSH2 0x2A09 DUP2 DUP8 PUSH2 0x253A JUMP JUMPDEST SWAP1 POP PUSH2 0x2A18 PUSH1 0xA0 DUP4 ADD DUP7 PUSH2 0x28E6 JUMP JUMPDEST PUSH2 0x2A25 PUSH1 0xC0 DUP4 ADD DUP6 PUSH2 0x2998 JUMP JUMPDEST PUSH2 0x2A32 PUSH1 0xE0 DUP4 ADD DUP5 PUSH2 0x28F5 JUMP JUMPDEST SWAP10 SWAP9 POP POP POP POP POP POP POP POP POP JUMP JUMPDEST PUSH0 PUSH0 PUSH0 PUSH1 0x40 DUP5 DUP7 SUB SLT ISZERO PUSH2 0x2A56 JUMPI PUSH2 0x2A55 PUSH2 0x22B7 JUMP JUMPDEST JUMPDEST PUSH0 PUSH2 0x2A63 DUP7 DUP3 DUP8 ADD PUSH2 0x2423 JUMP JUMPDEST SWAP4 POP POP PUSH1 0x20 DUP5 ADD CALLDATALOAD PUSH8 0xFFFFFFFFFFFFFFFF DUP2 GT ISZERO PUSH2 0x2A84 JUMPI PUSH2 0x2A83 PUSH2 0x22BB JUMP JUMPDEST JUMPDEST PUSH2 0x2A90 DUP7 DUP3 DUP8 ADD PUSH2 0x22CB JUMP JUMPDEST SWAP3 POP SWAP3 POP POP SWAP3 POP SWAP3 POP SWAP3 JUMP JUMPDEST PUSH2 0x2AA5 DUP2 PUSH2 0x298D JUMP JUMPDEST DUP3 MSTORE POP POP JUMP JUMPDEST PUSH0 PUSH2 0x120 DUP4 ADD PUSH0 DUP4 ADD MLOAD PUSH2 0x2AC1 PUSH0 DUP7 ADD DUP3 PUSH2 0x2572 JUMP JUMPDEST POP PUSH1 0x20 DUP4 ADD MLOAD DUP5 DUP3 SUB PUSH1 0x20 DUP7 ADD MSTORE PUSH2 0x2AD9 DUP3 DUP3 PUSH2 0x25D0 JUMP JUMPDEST SWAP2 POP POP PUSH1 0x40 DUP4 ADD MLOAD DUP5 DUP3 SUB PUSH1 0x40 DUP7 ADD MSTORE PUSH2 0x2AF3 DUP3 DUP3 PUSH2 0x25D0 JUMP JUMPDEST SWAP2 POP POP PUSH1 0x60 DUP4 ADD MLOAD DUP5 DUP3 SUB PUSH1 0x60 DUP7 ADD MSTORE PUSH2 0x2B0D DUP3 DUP3 PUSH2 0x25D0 JUMP JUMPDEST SWAP2 POP POP PUSH1 0x80 DUP4 ADD MLOAD DUP5 DUP3 SUB PUSH1 0x80 DUP7 ADD MSTORE PUSH2 0x2B27 DUP3 DUP3 PUSH2 0x25D0 JUMP JUMPDEST SWAP2 POP POP PUSH1 0xA0 DUP4 ADD MLOAD PUSH2 0x2B3C PUSH1 0xA0 DUP7 ADD DUP3 PUSH2 0x25B1 JUMP JUMPDEST POP PUSH1 0xC0 DUP4 ADD MLOAD PUSH2 0x2B4F PUSH1 0xC0 DUP7 ADD DUP3 PUSH2 0x2A9C JUMP JUMPDEST POP PUSH1 0xE0 DUP4 ADD MLOAD PUSH2 0x2B62 PUSH1 0xE0 DUP7 ADD DUP3 PUSH2 0x266C JUMP JUMPDEST POP PUSH2 0x100 DUP4 ADD MLOAD DUP5 DUP3 SUB PUSH2 0x100 DUP7 ADD MSTORE PUSH2 0x2B7C DUP3 DUP3 PUSH2 0x26C7 JUMP JUMPDEST SWAP2 POP POP DUP1 SWAP2 POP POP SWAP3 SWAP2 POP POP JUMP JUMPDEST PUSH0 PUSH1 0xA0 DUP3 ADD SWAP1 POP PUSH2 0x2B9C PUSH0 DUP4 ADD DUP9 PUSH2 0x24F3 JUMP JUMPDEST DUP2 DUP2 SUB PUSH1 0x20 DUP4 ADD MSTORE PUSH2 0x2BAE DUP2 DUP8 PUSH2 0x253A JUMP JUMPDEST SWAP1 POP DUP2 DUP2 SUB PUSH1 0x40 DUP4 ADD MSTORE PUSH2 0x2BC2 DUP2 DUP7 PUSH2 0x253A JUMP JUMPDEST SWAP1 POP PUSH2 0x2BD1 PUSH1 0x60 DUP4 ADD DUP6 PUSH2 0x24F3 JUMP JUMPDEST DUP2 DUP2 SUB PUSH1 0x80 DUP4 ADD MSTORE PUSH2 0x2BE3 DUP2 DUP5 PUSH2 0x2AAB JUMP JUMPDEST SWAP1 POP SWAP7 SWAP6 POP POP POP POP POP POP JUMP JUMPDEST PUSH0 DUP2 SWAP1 POP SWAP3 SWAP2 POP POP JUMP JUMPDEST DUP3 DUP2 DUP4 CALLDATACOPY PUSH0 DUP4 DUP4 ADD MSTORE POP POP POP JUMP JUMPDEST PUSH0 PUSH2 0x2C12 DUP4 DUP6 PUSH2 0x2BEF JUMP JUMPDEST SWAP4 POP PUSH2 0x2C1F DUP4 DUP6 DUP5 PUSH2 0x2BF9 JUMP JUMPDEST DUP3 DUP5 ADD SWAP1 POP SWAP4 SWAP3 POP POP POP JUMP JUMPDEST PUSH0 PUSH2 0x2C37 DUP3 DUP5 DUP7 PUSH2 0x2C07 JUMP JUMPDEST SWAP2 POP DUP2 SWAP1 POP SWAP4 SWAP3 POP POP POP JUMP JUMPDEST PUSH0 PUSH1 0x20 DUP3 ADD SWAP1 POP DUP2 DUP2 SUB PUSH0 DUP4 ADD MSTORE PUSH2 0x2C5B DUP2 DUP5 PUSH2 0x253A JUMP JUMPDEST SWAP1 POP SWAP3 SWAP2 POP POP JUMP JUMPDEST PUSH32 0x4E487B7100000000000000000000000000000000000000000000000000000000 PUSH0 MSTORE PUSH1 0x11 PUSH1 0x4 MSTORE PUSH1 0x24 PUSH0 REVERT JUMPDEST PUSH0 PUSH2 0x2C9A DUP3 PUSH2 0x2404 JUMP JUMPDEST SWAP2 POP PUSH32 0xFFFFFFFFFFFFFFFFFFFFFFFFFFFFFFFFFFFFFFFFFFFFFFFFFFFFFFFFFFFFFFFF DUP3 SUB PUSH2 0x2CCC JUMPI PUSH2 0x2CCB PUSH2 0x2C63 JUMP JUMPDEST JUMPDEST PUSH1 0x1 DUP3 ADD SWAP1 POP SWAP2 SWAP1 POP JUMP JUMPDEST PUSH0 DUP3 SWAP1 POP SWAP3 SWAP2 POP POP JUMP JUMPDEST PUSH32 0x4E487B7100000000000000000000000000000000000000000000000000000000 PUSH0 MSTORE PUSH1 0x41 PUSH1 0x4 MSTORE PUSH1 0x24 PUSH0 REVERT JUMPDEST PUSH32 0x4E487B7100000000000000000000000000000000000000000000000000000000 PUSH0 MSTORE PUSH1 0x22 PUSH1 0x4 MSTORE PUSH1 0x24 PUSH0 REVERT JUMPDEST PUSH0 PUSH1 0x2 DUP3 DIV SWAP1 POP PUSH1 0x1 DUP3 AND DUP1 PUSH2 0x2D52 JUMPI PUSH1 0x7F DUP3 AND SWAP2 POP JUMPDEST PUSH1 0x20 DUP3 LT DUP2 SUB PUSH2 0x2D65 JUMPI PUSH2 0x2D64 PUSH2 0x2D0E JUMP JUMPDEST JUMPDEST POP SWAP2 SWAP1 POP JUMP JUMPDEST PUSH0 DUP2 SWAP1 POP DUP2 PUSH0 MSTORE PUSH1 0x20 PUSH0 KECCAK256 SWAP1 POP SWAP2 SWAP1 POP JUMP JUMPDEST PUSH0 PUSH1 0x20 PUSH1 0x1F DUP4 ADD DIV SWAP1 POP SWAP2 SWAP1 POP JUMP JUMPDEST PUSH0 DUP3 DUP3 SHL SWAP1 POP SWAP3 SWAP2 POP POP JUMP JUMPDEST PUSH0 PUSH1 0x8 DUP4 MUL PUSH2 0x2DC7 PUSH32 0xFFFFFFFFFFFFFFFFFFFFFFFFFFFFFFFFFFFFFFFFFFFFFFFFFFFFFFFFFFFFFFFF DUP3 PUSH2 0x2D8C JUMP JUMPDEST PUSH2 0x2DD1 DUP7 DUP4 PUSH2 0x2D8C JUMP JUMPDEST SWAP6 POP DUP1 NOT DUP5 AND SWAP4 POP DUP1 DUP7 AND DUP5 OR SWAP3 POP POP POP SWAP4 SWAP3 POP POP POP JUMP JUMPDEST PUSH0 DUP2 SWAP1 POP SWAP2 SWAP1 POP JUMP JUMPDEST PUSH0 PUSH2 0x2E0C PUSH2 0x2E07 PUSH2 0x2E02 DUP5 PUSH2 0x2404 JUMP JUMPDEST PUSH2 0x2DE9 JUMP JUMPDEST PUSH2 0x2404 JUMP JUMPDEST SWAP1 POP SWAP2 SWAP1 POP JUMP JUMPDEST PUSH0 DUP2 SWAP1 POP SWAP2 SWAP1 POP JUMP JUMPDEST PUSH2 0x2E25 DUP4 PUSH2 0x2DF2 JUMP JUMPDEST PUSH2 0x2E39 PUSH2 0x2E31 DUP3 PUSH2 0x2E13 JUMP JUMPDEST DUP5 DUP5 SLOAD PUSH2 0x2D98 JUMP JUMPDEST DUP3 SSTORE POP POP POP POP JUMP JUMPDEST PUSH0 PUSH0 SWAP1 POP SWAP1 JUMP JUMPDEST PUSH2 0x2E50 PUSH2 0x2E41 JUMP JUMPDEST PUSH2 0x2E5B DUP2 DUP5 DUP5 PUSH2 0x2E1C JUMP JUMPDEST POP POP POP JUMP JUMPDEST JUMPDEST DUP2 DUP2 LT ISZERO PUSH2 0x2E7E JUMPI PUSH2 0x2E73 PUSH0 DUP3 PUSH2 0x2E48 JUMP JUMPDEST PUSH1 0x1 DUP2 ADD SWAP1 POP PUSH2 0x2E61 JUMP JUMPDEST POP POP JUMP JUMPDEST PUSH1 0x1F DUP3 GT ISZERO PUSH2 0x2EC3 JUMPI PUSH2 0x2E94 DUP2 PUSH2 0x2D6B JUMP JUMPDEST PUSH2 0x2E9D DUP5 PUSH2 0x2D7D JUMP JUMPDEST DUP2 ADD PUSH1 0x20 DUP6 LT ISZERO PUSH2 0x2EAC JUMPI DUP2 SWAP1 POP JUMPDEST PUSH2 0x2EC0 PUSH2 0x2EB8 DUP6 PUSH2 0x2D7D JUMP JUMPDEST DUP4 ADD DUP3 PUSH2 0x2E60 JUMP JUMPDEST POP POP JUMPDEST POP POP POP JUMP JUMPDEST PUSH0 DUP3 DUP3 SHR SWAP1 POP SWAP3 SWAP2 POP POP JUMP JUMPDEST PUSH0 PUSH2 0x2EE3 PUSH0 NOT DUP5 PUSH1 0x8 MUL PUSH2 0x2EC8 JUMP JUMPDEST NOT DUP1 DUP4 AND SWAP2 POP POP SWAP3 SWAP2 POP POP JUMP JUMPDEST PUSH0 PUSH2 0x2EFB DUP4 DUP4 PUSH2 0x2ED4 JUMP JUMPDEST SWAP2 POP DUP3 PUSH1 0x2 MUL DUP3 OR SWAP1 POP SWAP3 SWAP2 POP POP JUMP JUMPDEST PUSH2 0x2F15 DUP4 DUP4 PUSH2 0x2CD7 JUMP JUMPDEST PUSH8 0xFFFFFFFFFFFFFFFF DUP2 GT ISZERO PUSH2 0x2F2E JUMPI PUSH2 0x2F2D PUSH2 0x2CE1 JUMP JUMPDEST JUMPDEST PUSH2 0x2F38 DUP3 SLOAD PUSH2 0x2D3B JUMP JUMPDEST PUSH2 0x2F43 DUP3 DUP3 DUP6 PUSH2 0x2E82 JUMP JUMPDEST PUSH0 PUSH1 0x1F DUP4 GT PUSH1 0x1 DUP2 EQ PUSH2 0x2F70 JUMPI PUSH0 DUP5 ISZERO PUSH2 0x2F5E JUMPI DUP3 DUP8 ADD CALLDATALOAD SWAP1 POP JUMPDEST PUSH2 0x2F68 DUP6 DUP3 PUSH2 0x2EF0 JUMP JUMPDEST DUP7 SSTORE POP PUSH2 0x2FCF JUMP JUMPDEST PUSH1 0x1F NOT DUP5 AND PUSH2 0x2F7E DUP7 PUSH2 0x2D6B JUMP JUMPDEST PUSH0 JUMPDEST DUP3 DUP2 LT ISZERO PUSH2 0x2FA5 JUMPI DUP5 DUP10 ADD CALLDATALOAD DUP3 SSTORE PUSH1 0x1 DUP3 ADD SWAP2 POP PUSH1 0x20 DUP6 ADD SWAP5 POP PUSH1 0x20 DUP2 ADD SWAP1 POP PUSH2 0x2F80 JUMP JUMPDEST DUP7 DUP4 LT ISZERO PUSH2 0x2FC2 JUMPI DUP5 DUP10 ADD CALLDATALOAD PUSH2 0x2FBE PUSH1 0x1F DUP10 AND DUP3 PUSH2 0x2ED4 JUMP JUMPDEST DUP4 SSTORE POP JUMPDEST PUSH1 0x1 PUSH1 0x2 DUP9 MUL ADD DUP9 SSTORE POP POP POP JUMPDEST POP POP POP POP POP POP POP JUMP JUMPDEST PUSH0 PUSH1 0x20 DUP3 ADD SWAP1 POP PUSH2 0x2FEB PUSH0 DUP4 ADD DUP5 PUSH2 0x24F3 JUMP JUMPDEST SWAP3 SWAP2 POP POP JUMP JUMPDEST PUSH2 0x2FFA DUP3 PUSH2 0x2502 JUMP JUMPDEST PUSH8 0xFFFFFFFFFFFFFFFF DUP2 GT ISZERO PUSH2 0x3013 JUMPI PUSH2 0x3012 PUSH2 0x2CE1 JUMP JUMPDEST JUMPDEST PUSH2 0x301D DUP3 SLOAD PUSH2 0x2D3B JUMP JUMPDEST PUSH2 0x3028 DUP3 DUP3 DUP6 PUSH2 0x2E82 JUMP JUMPDEST PUSH0 PUSH1 0x20 SWAP1 POP PUSH1 0x1F DUP4 GT PUSH1 0x1 DUP2 EQ PUSH2 0x3059 JUMPI PUSH0 DUP5 ISZERO PUSH2 0x3047 JUMPI DUP3 DUP8 ADD MLOAD SWAP1 POP JUMPDEST PUSH2 0x3051 DUP6 DUP3 PUSH2 0x2EF0 JUMP JUMPDEST DUP7 SSTORE POP PUSH2 0x30B8 JUMP JUMPDEST PUSH1 0x1F NOT DUP5 AND PUSH2 0x3067 DUP7 PUSH2 0x2D6B JUMP JUMPDEST PUSH0 JUMPDEST DUP3 DUP2 LT ISZERO PUSH2 0x308E JUMPI DUP5 DUP10 ADD MLOAD DUP3 SSTORE PUSH1 0x1 DUP3 ADD SWAP2 POP PUSH1 0x20 DUP6 ADD SWAP5 POP PUSH1 0x20 DUP2 ADD SWAP1 POP PUSH2 0x3069 JUMP JUMPDEST DUP7 DUP4 LT ISZERO PUSH2 0x30AB JUMPI DUP5 DUP10 ADD MLOAD PUSH2 0x30A7 PUSH1 0x1F DUP10 AND DUP3 PUSH2 0x2ED4 JUMP JUMPDEST DUP4 SSTORE POP JUMPDEST PUSH1 0x1 PUSH1 0x2 DUP9 MUL ADD DUP9 SSTORE POP POP POP JUMPDEST POP POP POP POP POP POP JUMP JUMPDEST PUSH0 DUP2 SLOAD SWAP1 POP PUSH2 0x30CE DUP2 PUSH2 0x2D3B JUMP JUMPDEST SWAP1 POP SWAP2 SWAP1 POP JUMP JUMPDEST DUP2 DUP2 SUB PUSH2 0x30E3 JUMPI POP POP PUSH2 0x31B8 JUMP JUMPDEST PUSH2 0x30EC DUP3 PUSH2 0x30C0 JUMP JUMPDEST PUSH8 0xFFFFFFFFFFFFFFFF DUP2 GT ISZERO PUSH2 0x3105 JUMPI PUSH2 0x3104 PUSH2 0x2CE1 JUMP JUMPDEST JUMPDEST PUSH2 0x310F DUP3 SLOAD PUSH2 0x2D3B JUMP JUMPDEST PUSH2 0x311A DUP3 DUP3 DUP6 PUSH2 0x2E82 JUMP JUMPDEST PUSH0 PUSH1 0x1F DUP4 GT PUSH1 0x1 DUP2 EQ PUSH2 0x3147 JUMPI PUSH0 DUP5 ISZERO PUSH2 0x3135 JUMPI DUP3 DUP8 ADD SLOAD SWAP1 POP JUMPDEST PUSH2 0x313F DUP6 DUP3 PUSH2 0x2EF0 JUMP JUMPDEST DUP7 SSTORE POP PUSH2 0x31B1 JUMP JUMPDEST PUSH1 0x1F NOT DUP5 AND PUSH2 0x3155 DUP8 PUSH2 0x2D6B JUMP JUMPDEST SWAP7 POP PUSH2 0x3160 DUP7 PUSH2 0x2D6B JUMP JUMPDEST PUSH0 JUMPDEST DUP3 DUP2 LT ISZERO PUSH2 0x3187 JUMPI DUP5 DUP10 ADD SLOAD DUP3 SSTORE PUSH1 0x1 DUP3 ADD SWAP2 POP PUSH1 0x1 DUP6 ADD SWAP5 POP PUSH1 0x20 DUP2 ADD SWAP1 POP PUSH2 0x3162 JUMP JUMPDEST DUP7 DUP4 LT ISZERO PUSH2 0x31A4 JUMPI DUP5 DUP10 ADD SLOAD PUSH2 0x31A0 PUSH1 0x1F DUP10 AND DUP3 PUSH2 0x2ED4 JUMP JUMPDEST DUP4 SSTORE POP JUMPDEST PUSH1 0x1 PUSH1 0x2 DUP9 MUL ADD DUP9 SSTORE POP POP POP JUMPDEST POP POP POP POP POP POP JUMPDEST JUMP INVALID SLOAD PUSH9 0x652063616C6C657220 PUSH5 0x6F6573206E PUSH16 0x74206861766520612063726561746F72 KECCAK256 PUSH17 0x726F66696C655468652063616C6C657220 PUSH5 0x6F6573206E PUSH16 0x74206861766520616E206170706C6963 PUSH2 0x6E74 KECCAK256 PUSH17 0x726F66696C65A2646970667358221220DF KECCAK256 0xAD 0xC9 PUSH27 0xD0DC15F758859C487B20222B3FB6118D1C2F15653EFEEA8E29CBCB PUSH5 0x736F6C6343 STOP ADDMOD 0x1E STOP CALLER "
				},
				"gasEstimates": {
					"creation": {
						"codeDepositCost": "2574200",
						"executionCost": "27048",
						"totalCost": "2601248"
					},
					"external": {
						"applicantProfiles(address)": "infinite",
						"applyForAJob(uint256,string)": "infinite",
						"createApplicantProfile(string,string,string,string)": "infinite",
						"createCreatorProfile(string,string,string,string)": "infinite",
						"createJobOffer(string,string,uint256)": "infinite",
						"creatorProfiles(address)": "infinite",
						"jobApplications(uint256)": "infinite",
						"jobOffers(uint256)": "infinite"
					}
				},
				"methodIdentifiers": {
					"applicantProfiles(address)": "92b2a791",
					"applyForAJob(uint256,string)": "d4bb7d2e",
					"createApplicantProfile(string,string,string,string)": "87e6446f",
					"createCreatorProfile(string,string,string,string)": "2ae4bc55",
					"createJobOffer(string,string,uint256)": "3cb50276",
					"creatorProfiles(address)": "95b04be2",
					"jobApplications(uint256)": "699687cf",
					"jobOffers(uint256)": "e06f7484"
				}
			},
			"storageLayout": {
				"storage": [
					{
						"astId": 29,
						"contract": "soljobs.sol:SolJobs",
						"label": "manager",
						"offset": 0,
						"slot": "0",
						"type": "t_address"
					},
					{
						"astId": 34,
						"contract": "soljobs.sol:SolJobs",
						"label": "creatorProfiles",
						"offset": 0,
						"slot": "1",
						"type": "t_mapping(t_address,t_struct(CreatorProfile)520_storage)"
					},
					{
						"astId": 39,
						"contract": "soljobs.sol:SolJobs",
						"label": "applicantProfiles",
						"offset": 0,
						"slot": "2",
						"type": "t_mapping(t_address,t_struct(ApplicantProfile)539_storage)"
					},
					{
						"astId": 41,
						"contract": "soljobs.sol:SolJobs",
						"label": "numberOfCreatorProfiles",
						"offset": 0,
						"slot": "3",
						"type": "t_uint256"
					},
					{
						"astId": 43,
						"contract": "soljobs.sol:SolJobs",
						"label": "numberOfApplicantProfiles",
						"offset": 0,
						"slot": "4",
						"type": "t_uint256"
					},
					{
						"astId": 47,
						"contract": "soljobs.sol:SolJobs",
						"label": "creatorEmails",
						"offset": 0,
						"slot": "5",
						"type": "t_mapping(t_string_memory_ptr,t_bool)"
					},
					{
						"astId": 51,
						"contract": "soljobs.sol:SolJobs",
						"label": "applicantEmails",
						"offset": 0,
						"slot": "6",
						"type": "t_mapping(t_string_memory_ptr,t_bool)"
					},
					{
						"astId": 55,
						"contract": "soljobs.sol:SolJobs",
						"label": "creatorAddresses",
						"offset": 0,
						"slot": "7",
						"type": "t_mapping(t_address,t_bool)"
					},
					{
						"astId": 59,
						"contract": "soljobs.sol:SolJobs",
						"label": "applicantAddresses",
						"offset": 0,
						"slot": "8",
						"type": "t_mapping(t_address,t_bool)"
					},
					{
						"astId": 61,
						"contract": "soljobs.sol:SolJobs",
						"label": "numberOfJobsCreated",
						"offset": 0,
						"slot": "9",
						"type": "t_uint256"
					},
					{
						"astId": 66,
						"contract": "soljobs.sol:SolJobs",
						"label": "jobOffers",
						"offset": 0,
						"slot": "10",
						"type": "t_mapping(t_uint256,t_struct(JobOffer)555_storage)"
					},
					{
						"astId": 68,
						"contract": "soljobs.sol:SolJobs",
						"label": "numberOfApplications",
						"offset": 0,
						"slot": "11",
						"type": "t_uint256"
					},
					{
						"astId": 73,
						"contract": "soljobs.sol:SolJobs",
						"label": "jobApplications",
						"offset": 0,
						"slot": "12",
						"type": "t_mapping(t_uint256,t_struct(JobApplication)568_storage)"
					}
				],
				"types": {
					"t_address": {
						"encoding": "inplace",
						"label": "address",
						"numberOfBytes": "20"
					},
					"t_array(t_struct(JobApplication)568_storage)dyn_storage": {
						"base": "t_struct(JobApplication)568_storage",
						"encoding": "dynamic_array",
						"label": "struct JobApplication[]",
						"numberOfBytes": "32"
					},
					"t_array(t_uint256)dyn_storage": {
						"base": "t_uint256",
						"encoding": "dynamic_array",
						"label": "uint256[]",
						"numberOfBytes": "32"
					},
					"t_bool": {
						"encoding": "inplace",
						"label": "bool",
						"numberOfBytes": "1"
					},
					"t_enum(JobApplicationStatus)22": {
						"encoding": "inplace",
						"label": "enum JobApplicationStatus",
						"numberOfBytes": "1"
					},
					"t_enum(ProfileType)18": {
						"encoding": "inplace",
						"label": "enum ProfileType",
						"numberOfBytes": "1"
					},
					"t_mapping(t_address,t_bool)": {
						"encoding": "mapping",
						"key": "t_address",
						"label": "mapping(address => bool)",
						"numberOfBytes": "32",
						"value": "t_bool"
					},
					"t_mapping(t_address,t_struct(ApplicantProfile)539_storage)": {
						"encoding": "mapping",
						"key": "t_address",
						"label": "mapping(address => struct ApplicantProfile)",
						"numberOfBytes": "32",
						"value": "t_struct(ApplicantProfile)539_storage"
					},
					"t_mapping(t_address,t_struct(CreatorProfile)520_storage)": {
						"encoding": "mapping",
						"key": "t_address",
						"label": "mapping(address => struct CreatorProfile)",
						"numberOfBytes": "32",
						"value": "t_struct(CreatorProfile)520_storage"
					},
					"t_mapping(t_string_memory_ptr,t_bool)": {
						"encoding": "mapping",
						"key": "t_string_memory_ptr",
						"label": "mapping(string => bool)",
						"numberOfBytes": "32",
						"value": "t_bool"
					},
					"t_mapping(t_uint256,t_struct(JobApplication)568_storage)": {
						"encoding": "mapping",
						"key": "t_uint256",
						"label": "mapping(uint256 => struct JobApplication)",
						"numberOfBytes": "32",
						"value": "t_struct(JobApplication)568_storage"
					},
					"t_mapping(t_uint256,t_struct(JobOffer)555_storage)": {
						"encoding": "mapping",
						"key": "t_uint256",
						"label": "mapping(uint256 => struct JobOffer)",
						"numberOfBytes": "32",
						"value": "t_struct(JobOffer)555_storage"
					},
					"t_string_memory_ptr": {
						"encoding": "bytes",
						"label": "string",
						"numberOfBytes": "32"
					},
					"t_string_storage": {
						"encoding": "bytes",
						"label": "string",
						"numberOfBytes": "32"
					},
					"t_struct(ApplicantProfile)539_storage": {
						"encoding": "inplace",
						"label": "struct ApplicantProfile",
						"members": [
							{
								"astId": 522,
								"contract": "soljobs.sol:SolJobs",
								"label": "id",
								"offset": 0,
								"slot": "0",
								"type": "t_uint256"
							},
							{
								"astId": 524,
								"contract": "soljobs.sol:SolJobs",
								"label": "applicantAddress",
								"offset": 0,
								"slot": "1",
								"type": "t_address"
							},
							{
								"astId": 526,
								"contract": "soljobs.sol:SolJobs",
								"label": "fullname",
								"offset": 0,
								"slot": "2",
								"type": "t_string_storage"
							},
							{
								"astId": 528,
								"contract": "soljobs.sol:SolJobs",
								"label": "email",
								"offset": 0,
								"slot": "3",
								"type": "t_string_storage"
							},
							{
								"astId": 530,
								"contract": "soljobs.sol:SolJobs",
								"label": "location",
								"offset": 0,
								"slot": "4",
								"type": "t_string_storage"
							},
							{
								"astId": 532,
								"contract": "soljobs.sol:SolJobs",
								"label": "bio",
								"offset": 0,
								"slot": "5",
								"type": "t_string_storage"
							},
							{
								"astId": 535,
								"contract": "soljobs.sol:SolJobs",
								"label": "profileType",
								"offset": 0,
								"slot": "6",
								"type": "t_enum(ProfileType)18"
							},
							{
								"astId": 538,
								"contract": "soljobs.sol:SolJobs",
								"label": "applicationIDs",
								"offset": 0,
								"slot": "7",
								"type": "t_array(t_uint256)dyn_storage"
							}
						],
						"numberOfBytes": "256"
					},
					"t_struct(CreatorProfile)520_storage": {
						"encoding": "inplace",
						"label": "struct CreatorProfile",
						"members": [
							{
								"astId": 501,
								"contract": "soljobs.sol:SolJobs",
								"label": "id",
								"offset": 0,
								"slot": "0",
								"type": "t_uint256"
							},
							{
								"astId": 503,
								"contract": "soljobs.sol:SolJobs",
								"label": "email",
								"offset": 0,
								"slot": "1",
								"type": "t_string_storage"
							},
							{
								"astId": 505,
								"contract": "soljobs.sol:SolJobs",
								"label": "name",
								"offset": 0,
								"slot": "2",
								"type": "t_string_storage"
							},
							{
								"astId": 507,
								"contract": "soljobs.sol:SolJobs",
								"label": "tagline",
								"offset": 0,
								"slot": "3",
								"type": "t_string_storage"
							},
							{
								"astId": 509,
								"contract": "soljobs.sol:SolJobs",
								"label": "description",
								"offset": 0,
								"slot": "4",
								"type": "t_string_storage"
							},
							{
								"astId": 511,
								"contract": "soljobs.sol:SolJobs",
								"label": "creatorAddress",
								"offset": 0,
								"slot": "5",
								"type": "t_address"
							},
							{
								"astId": 513,
								"contract": "soljobs.sol:SolJobs",
								"label": "verified",
								"offset": 20,
								"slot": "5",
								"type": "t_bool"
							},
							{
								"astId": 516,
								"contract": "soljobs.sol:SolJobs",
								"label": "profileType",
								"offset": 21,
								"slot": "5",
								"type": "t_enum(ProfileType)18"
							},
							{
								"astId": 519,
								"contract": "soljobs.sol:SolJobs",
								"label": "jobOfferIDs",
								"offset": 0,
								"slot": "6",
								"type": "t_array(t_uint256)dyn_storage"
							}
						],
						"numberOfBytes": "224"
					},
					"t_struct(JobApplication)568_storage": {
						"encoding": "inplace",
						"label": "struct JobApplication",
						"members": [
							{
								"astId": 557,
								"contract": "soljobs.sol:SolJobs",
								"label": "id",
								"offset": 0,
								"slot": "0",
								"type": "t_uint256"
							},
							{
								"astId": 559,
								"contract": "soljobs.sol:SolJobs",
								"label": "jobOfferId",
								"offset": 0,
								"slot": "1",
								"type": "t_uint256"
							},
							{
								"astId": 561,
								"contract": "soljobs.sol:SolJobs",
								"label": "coverLetter",
								"offset": 0,
								"slot": "2",
								"type": "t_string_storage"
							},
							{
								"astId": 564,
								"contract": "soljobs.sol:SolJobs",
								"label": "applicant",
								"offset": 0,
								"slot": "3",
								"type": "t_struct(ApplicantProfile)539_storage"
							},
							{
								"astId": 567,
								"contract": "soljobs.sol:SolJobs",
								"label": "status",
								"offset": 0,
								"slot": "11",
								"type": "t_enum(JobApplicationStatus)22"
							}
						],
						"numberOfBytes": "384"
					},
					"t_struct(JobOffer)555_storage": {
						"encoding": "inplace",
						"label": "struct JobOffer",
						"members": [
							{
								"astId": 541,
								"contract": "soljobs.sol:SolJobs",
								"label": "id",
								"offset": 0,
								"slot": "0",
								"type": "t_uint256"
							},
							{
								"astId": 543,
								"contract": "soljobs.sol:SolJobs",
								"label": "title",
								"offset": 0,
								"slot": "1",
								"type": "t_string_storage"
							},
							{
								"astId": 545,
								"contract": "soljobs.sol:SolJobs",
								"label": "description",
								"offset": 0,
								"slot": "2",
								"type": "t_string_storage"
							},
							{
								"astId": 547,
								"contract": "soljobs.sol:SolJobs",
								"label": "compensation",
								"offset": 0,
								"slot": "3",
								"type": "t_uint256"
							},
							{
								"astId": 550,
								"contract": "soljobs.sol:SolJobs",
								"label": "creator",
								"offset": 0,
								"slot": "4",
								"type": "t_struct(CreatorProfile)520_storage"
							},
							{
								"astId": 554,
								"contract": "soljobs.sol:SolJobs",
								"label": "applications",
								"offset": 0,
								"slot": "11",
								"type": "t_array(t_struct(JobApplication)568_storage)dyn_storage"
							}
						],
						"numberOfBytes": "384"
					},
					"t_uint256": {
						"encoding": "inplace",
						"label": "uint256",
						"numberOfBytes": "32"
					}
				}
			},
			"userdoc": {
				"kind": "user",
				"methods": {},
				"version": 1
			}
		}
	}
}