{
	"soljobs.sol": {
		"SolJobs": {
			"abi": [
				{
					"inputs": [],
					"stateMutability": "nonpayable",
					"type": "constructor"
				},
				{
					"anonymous": false,
					"inputs": [
						{
							"indexed": false,
							"internalType": "uint256",
							"name": "newApplicantID",
							"type": "uint256"
						}
					],
					"name": "ApplicantProfileCreated",
					"type": "event"
				},
				{
					"anonymous": false,
					"inputs": [
						{
							"indexed": false,
							"internalType": "uint256",
							"name": "newCreatorID",
							"type": "uint256"
						}
					],
					"name": "CreatorProfileCreated",
					"type": "event"
				},
				{
					"inputs": [
						{
							"internalType": "address",
							"name": "",
							"type": "address"
						}
					],
					"name": "applicantProfiles",
					"outputs": [
						{
							"internalType": "uint256",
							"name": "id",
							"type": "uint256"
						},
						{
							"internalType": "address",
							"name": "applicantAddress",
							"type": "address"
						},
						{
							"internalType": "string",
							"name": "fullname",
							"type": "string"
						},
						{
							"internalType": "string",
							"name": "email",
							"type": "string"
						},
						{
							"internalType": "string",
							"name": "location",
							"type": "string"
						},
						{
							"internalType": "string",
							"name": "bio",
							"type": "string"
						},
						{
							"internalType": "enum ProfileType",
							"name": "profileType",
							"type": "uint8"
						}
					],
					"stateMutability": "view",
					"type": "function"
				},
				{
					"inputs": [
						{
							"internalType": "string",
							"name": "_fullname",
							"type": "string"
						},
						{
							"internalType": "string",
							"name": "_email",
							"type": "string"
						},
						{
							"internalType": "string",
							"name": "_location",
							"type": "string"
						},
						{
							"internalType": "string",
							"name": "_bio",
							"type": "string"
						}
					],
					"name": "createApplicantProfile",
					"outputs": [],
					"stateMutability": "nonpayable",
					"type": "function"
				},
				{
					"inputs": [
						{
							"internalType": "string",
							"name": "_name",
							"type": "string"
						},
						{
							"internalType": "string",
							"name": "_email",
							"type": "string"
						},
						{
							"internalType": "string",
							"name": "_description",
							"type": "string"
						},
						{
							"internalType": "string",
							"name": "_tagline",
							"type": "string"
						}
					],
					"name": "createCreatorProfile",
					"outputs": [],
					"stateMutability": "nonpayable",
					"type": "function"
				},
				{
					"inputs": [
						{
							"internalType": "address",
							"name": "",
							"type": "address"
						}
					],
					"name": "creatorProfiles",
					"outputs": [
						{
							"internalType": "uint256",
							"name": "id",
							"type": "uint256"
						},
						{
							"internalType": "string",
							"name": "email",
							"type": "string"
						},
						{
							"internalType": "string",
							"name": "name",
							"type": "string"
						},
						{
							"internalType": "string",
							"name": "tagline",
							"type": "string"
						},
						{
							"internalType": "string",
							"name": "description",
							"type": "string"
						},
						{
							"internalType": "address",
							"name": "creatorAddress",
							"type": "address"
						},
						{
							"internalType": "bool",
							"name": "verified",
							"type": "bool"
						},
						{
							"internalType": "enum ProfileType",
							"name": "profileType",
							"type": "uint8"
						}
					],
					"stateMutability": "view",
					"type": "function"
				}
			],
			"devdoc": {
				"details": "Create, apply and award remote jobs on the blockchain",
				"kind": "dev",
				"methods": {},
				"title": "SolJobs",
				"version": 1
			},
			"evm": {
				"assembly": "    /* \"soljobs.sol\":210:2847  contract SolJobs {... */\n  mstore(0x40, 0x80)\n    /* \"soljobs.sol\":708:759  constructor() {... */\n  callvalue\n  dup1\n  iszero\n  tag_1\n  jumpi\n  revert(0x00, 0x00)\ntag_1:\n  pop\n    /* \"soljobs.sol\":742:752  msg.sender */\n  caller\n    /* \"soljobs.sol\":732:739  manager */\n  0x00\n  0x00\n    /* \"soljobs.sol\":732:752  manager = msg.sender */\n  0x0100\n  exp\n  dup2\n  sload\n  dup2\n  0xffffffffffffffffffffffffffffffffffffffff\n  mul\n  not\n  and\n  swap1\n  dup4\n  0xffffffffffffffffffffffffffffffffffffffff\n  and\n  mul\n  or\n  swap1\n  sstore\n  pop\n    /* \"soljobs.sol\":210:2847  contract SolJobs {... */\n  dataSize(sub_0)\n  dup1\n  dataOffset(sub_0)\n  0x00\n  codecopy\n  0x00\n  return\nstop\n\nsub_0: assembly {\n        /* \"soljobs.sol\":210:2847  contract SolJobs {... */\n      mstore(0x40, 0x80)\n      callvalue\n      dup1\n      iszero\n      tag_1\n      jumpi\n      revert(0x00, 0x00)\n    tag_1:\n      pop\n      jumpi(tag_2, lt(calldatasize, 0x04))\n      shr(0xe0, calldataload(0x00))\n      dup1\n      0x2ae4bc55\n      eq\n      tag_3\n      jumpi\n      dup1\n      0x87e6446f\n      eq\n      tag_4\n      jumpi\n      dup1\n      0x92b2a791\n      eq\n      tag_5\n      jumpi\n      dup1\n      0x95b04be2\n      eq\n      tag_6\n      jumpi\n    tag_2:\n      revert(0x00, 0x00)\n        /* \"soljobs.sol\":1180:2015  function createCreatorProfile(... */\n    tag_3:\n      tag_7\n      0x04\n      dup1\n      calldatasize\n      sub\n      dup2\n      add\n      swap1\n      tag_8\n      swap2\n      swap1\n      tag_9\n      jump\t// in\n    tag_8:\n      tag_10\n      jump\t// in\n    tag_7:\n      stop\n        /* \"soljobs.sol\":2021:2845  function createApplicantProfile(... */\n    tag_4:\n      tag_11\n      0x04\n      dup1\n      calldatasize\n      sub\n      dup2\n      add\n      swap1\n      tag_12\n      swap2\n      swap1\n      tag_9\n      jump\t// in\n    tag_12:\n      tag_13\n      jump\t// in\n    tag_11:\n      stop\n        /* \"soljobs.sol\":328:390  mapping (address => ApplicantProfile) public applicantProfiles */\n    tag_5:\n      tag_14\n      0x04\n      dup1\n      calldatasize\n      sub\n      dup2\n      add\n      swap1\n      tag_15\n      swap2\n      swap1\n      tag_16\n      jump\t// in\n    tag_15:\n      tag_17\n      jump\t// in\n    tag_14:\n      mload(0x40)\n      tag_18\n      swap8\n      swap7\n      swap6\n      swap5\n      swap4\n      swap3\n      swap2\n      swap1\n      tag_19\n      jump\t// in\n    tag_18:\n      mload(0x40)\n      dup1\n      swap2\n      sub\n      swap1\n      return\n        /* \"soljobs.sol\":263:321  mapping (address => CreatorProfile) public creatorProfiles */\n    tag_6:\n      tag_20\n      0x04\n      dup1\n      calldatasize\n      sub\n      dup2\n      add\n      swap1\n      tag_21\n      swap2\n      swap1\n      tag_16\n      jump\t// in\n    tag_21:\n      tag_22\n      jump\t// in\n    tag_20:\n      mload(0x40)\n      tag_23\n      swap9\n      swap8\n      swap7\n      swap6\n      swap5\n      swap4\n      swap3\n      swap2\n      swap1\n      tag_24\n      jump\t// in\n    tag_23:\n      mload(0x40)\n      dup1\n      swap2\n      sub\n      swap1\n      return\n        /* \"soljobs.sol\":1180:2015  function createCreatorProfile(... */\n    tag_10:\n        /* \"soljobs.sol\":1367:1373  _email */\n      dup6\n      dup6\n        /* \"soljobs.sol\":857:862  false */\n      0x00\n        /* \"soljobs.sol\":832:862  creatorEmails[_email] == false */\n      iszero\n      iszero\n        /* \"soljobs.sol\":832:845  creatorEmails */\n      0x05\n        /* \"soljobs.sol\":846:852  _email */\n      dup4\n      dup4\n        /* \"soljobs.sol\":832:853  creatorEmails[_email] */\n      mload(0x40)\n      tag_26\n      swap3\n      swap2\n      swap1\n      tag_27\n      jump\t// in\n    tag_26:\n      swap1\n      dup2\n      mstore\n      0x20\n      add\n      mload(0x40)\n      dup1\n      swap2\n      sub\n      swap1\n      keccak256\n      0x00\n      swap1\n      sload\n      swap1\n      0x0100\n      exp\n      swap1\n      div\n      0xff\n      and\n        /* \"soljobs.sol\":832:862  creatorEmails[_email] == false */\n      iszero\n      iszero\n      eq\n        /* \"soljobs.sol\":832:898  creatorEmails[_email] == false && applicantEmails[_email] == false */\n      dup1\n      iszero\n      tag_28\n      jumpi\n      pop\n        /* \"soljobs.sol\":893:898  false */\n      0x00\n        /* \"soljobs.sol\":866:898  applicantEmails[_email] == false */\n      iszero\n      iszero\n        /* \"soljobs.sol\":866:881  applicantEmails */\n      0x06\n        /* \"soljobs.sol\":882:888  _email */\n      dup4\n      dup4\n        /* \"soljobs.sol\":866:889  applicantEmails[_email] */\n      mload(0x40)\n      tag_29\n      swap3\n      swap2\n      swap1\n      tag_27\n      jump\t// in\n    tag_29:\n      swap1\n      dup2\n      mstore\n      0x20\n      add\n      mload(0x40)\n      dup1\n      swap2\n      sub\n      swap1\n      keccak256\n      0x00\n      swap1\n      sload\n      swap1\n      0x0100\n      exp\n      swap1\n      div\n      0xff\n      and\n        /* \"soljobs.sol\":866:898  applicantEmails[_email] == false */\n      iszero\n      iszero\n      eq\n        /* \"soljobs.sol\":832:898  creatorEmails[_email] == false && applicantEmails[_email] == false */\n    tag_28:\n        /* \"soljobs.sol\":900:921  emailAlreadyExistsMsg */\n      mload(0x40)\n      dup1\n      0x40\n      add\n      0x40\n      mstore\n      dup1\n      0x15\n      dup2\n      mstore\n      0x20\n      add\n      0x456d61696c20616c726561647920657869737473210000000000000000000000\n      dup2\n      mstore\n      pop\n        /* \"soljobs.sol\":824:922  require(creatorEmails[_email] == false && applicantEmails[_email] == false, emailAlreadyExistsMsg) */\n      swap1\n      tag_30\n      jumpi\n      mload(0x40)\n      0x08c379a000000000000000000000000000000000000000000000000000000000\n      dup2\n      mstore\n      0x04\n      add\n      tag_31\n      swap2\n      swap1\n      tag_32\n      jump\t// in\n    tag_31:\n      mload(0x40)\n      dup1\n      swap2\n      sub\n      swap1\n      revert\n    tag_30:\n      pop\n        /* \"soljobs.sol\":972:977  false */\n      0x00\n        /* \"soljobs.sol\":940:977  creatorAddresses[msg.sender] == false */\n      iszero\n      iszero\n        /* \"soljobs.sol\":940:956  creatorAddresses */\n      0x07\n        /* \"soljobs.sol\":940:968  creatorAddresses[msg.sender] */\n      0x00\n        /* \"soljobs.sol\":957:967  msg.sender */\n      caller\n        /* \"soljobs.sol\":940:968  creatorAddresses[msg.sender] */\n      0xffffffffffffffffffffffffffffffffffffffff\n      and\n      0xffffffffffffffffffffffffffffffffffffffff\n      and\n      dup2\n      mstore\n      0x20\n      add\n      swap1\n      dup2\n      mstore\n      0x20\n      add\n      0x00\n      keccak256\n      0x00\n      swap1\n      sload\n      swap1\n      0x0100\n      exp\n      swap1\n      div\n      0xff\n      and\n        /* \"soljobs.sol\":940:977  creatorAddresses[msg.sender] == false */\n      iszero\n      iszero\n      eq\n        /* \"soljobs.sol\":940:1020  creatorAddresses[msg.sender] == false && applicantAddresses[msg.sender] == false */\n      dup1\n      iszero\n      tag_33\n      jumpi\n      pop\n        /* \"soljobs.sol\":1015:1020  false */\n      0x00\n        /* \"soljobs.sol\":981:1020  applicantAddresses[msg.sender] == false */\n      iszero\n      iszero\n        /* \"soljobs.sol\":981:999  applicantAddresses */\n      0x08\n        /* \"soljobs.sol\":981:1011  applicantAddresses[msg.sender] */\n      0x00\n        /* \"soljobs.sol\":1000:1010  msg.sender */\n      caller\n        /* \"soljobs.sol\":981:1011  applicantAddresses[msg.sender] */\n      0xffffffffffffffffffffffffffffffffffffffff\n      and\n      0xffffffffffffffffffffffffffffffffffffffff\n      and\n      dup2\n      mstore\n      0x20\n      add\n      swap1\n      dup2\n      mstore\n      0x20\n      add\n      0x00\n      keccak256\n      0x00\n      swap1\n      sload\n      swap1\n      0x0100\n      exp\n      swap1\n      div\n      0xff\n      and\n        /* \"soljobs.sol\":981:1020  applicantAddresses[msg.sender] == false */\n      iszero\n      iszero\n      eq\n        /* \"soljobs.sol\":940:1020  creatorAddresses[msg.sender] == false && applicantAddresses[msg.sender] == false */\n    tag_33:\n        /* \"soljobs.sol\":1022:1045  addressAlreadyExistsMsg */\n      mload(0x40)\n      dup1\n      0x40\n      add\n      0x40\n      mstore\n      dup1\n      0x17\n      dup2\n      mstore\n      0x20\n      add\n      0x4164647265737320616c72656164792065786973747321000000000000000000\n      dup2\n      mstore\n      pop\n        /* \"soljobs.sol\":932:1046  require(creatorAddresses[msg.sender] == false && applicantAddresses[msg.sender] == false, addressAlreadyExistsMsg) */\n      swap1\n      tag_34\n      jumpi\n      mload(0x40)\n      0x08c379a000000000000000000000000000000000000000000000000000000000\n      dup2\n      mstore\n      0x04\n      add\n      tag_35\n      swap2\n      swap1\n      tag_32\n      jump\t// in\n    tag_35:\n      mload(0x40)\n      dup1\n      swap2\n      sub\n      swap1\n      revert\n    tag_34:\n      pop\n        /* \"soljobs.sol\":1394:1408  uint creatorID */\n      0x00\n        /* \"soljobs.sol\":1413:1436  numberOfCreatorProfiles */\n      0x03\n      0x00\n        /* \"soljobs.sol\":1411:1436  ++numberOfCreatorProfiles */\n      dup2\n      sload\n      tag_37\n      swap1\n      tag_38\n      jump\t// in\n    tag_37:\n      swap2\n      swap1\n      pop\n      dup2\n      swap1\n      sstore\n        /* \"soljobs.sol\":1394:1436  uint creatorID = ++numberOfCreatorProfiles */\n      swap1\n      pop\n        /* \"soljobs.sol\":1447:1477  CreatorProfile storage profile */\n      0x00\n        /* \"soljobs.sol\":1480:1495  creatorProfiles */\n      0x01\n        /* \"soljobs.sol\":1480:1507  creatorProfiles[msg.sender] */\n      0x00\n        /* \"soljobs.sol\":1496:1506  msg.sender */\n      caller\n        /* \"soljobs.sol\":1480:1507  creatorProfiles[msg.sender] */\n      0xffffffffffffffffffffffffffffffffffffffff\n      and\n      0xffffffffffffffffffffffffffffffffffffffff\n      and\n      dup2\n      mstore\n      0x20\n      add\n      swap1\n      dup2\n      mstore\n      0x20\n      add\n      0x00\n      keccak256\n        /* \"soljobs.sol\":1447:1507  CreatorProfile storage profile = creatorProfiles[msg.sender] */\n      swap1\n      pop\n        /* \"soljobs.sol\":1530:1539  creatorID */\n      dup2\n        /* \"soljobs.sol\":1517:1524  profile */\n      dup2\n        /* \"soljobs.sol\":1517:1527  profile.id */\n      0x00\n      add\n        /* \"soljobs.sol\":1517:1539  profile.id = creatorID */\n      dup2\n      swap1\n      sstore\n      pop\n        /* \"soljobs.sol\":1564:1569  _name */\n      dup12\n      dup12\n        /* \"soljobs.sol\":1549:1556  profile */\n      dup3\n        /* \"soljobs.sol\":1549:1561  profile.name */\n      0x02\n      add\n        /* \"soljobs.sol\":1549:1569  profile.name = _name */\n      swap2\n      dup3\n      tag_39\n      swap3\n      swap2\n      swap1\n      tag_40\n      jump\t// in\n    tag_39:\n      pop\n        /* \"soljobs.sol\":1595:1601  _email */\n      dup10\n      dup10\n        /* \"soljobs.sol\":1579:1586  profile */\n      dup3\n        /* \"soljobs.sol\":1579:1592  profile.email */\n      0x01\n      add\n        /* \"soljobs.sol\":1579:1601  profile.email = _email */\n      swap2\n      dup3\n      tag_41\n      swap3\n      swap2\n      swap1\n      tag_40\n      jump\t// in\n    tag_41:\n      pop\n        /* \"soljobs.sol\":1633:1645  _description */\n      dup8\n      dup8\n        /* \"soljobs.sol\":1611:1618  profile */\n      dup3\n        /* \"soljobs.sol\":1611:1630  profile.description */\n      0x04\n      add\n        /* \"soljobs.sol\":1611:1645  profile.description = _description */\n      swap2\n      dup3\n      tag_42\n      swap3\n      swap2\n      swap1\n      tag_40\n      jump\t// in\n    tag_42:\n      pop\n        /* \"soljobs.sol\":1673:1681  _tagline */\n      dup6\n      dup6\n        /* \"soljobs.sol\":1655:1662  profile */\n      dup3\n        /* \"soljobs.sol\":1655:1670  profile.tagline */\n      0x03\n      add\n        /* \"soljobs.sol\":1655:1681  profile.tagline = _tagline */\n      swap2\n      dup3\n      tag_43\n      swap3\n      swap2\n      swap1\n      tag_40\n      jump\t// in\n    tag_43:\n      pop\n        /* \"soljobs.sol\":1760:1764  true */\n      0x01\n        /* \"soljobs.sol\":1736:1749  creatorEmails */\n      0x05\n        /* \"soljobs.sol\":1750:1756  _email */\n      dup12\n      dup12\n        /* \"soljobs.sol\":1736:1757  creatorEmails[_email] */\n      mload(0x40)\n      tag_44\n      swap3\n      swap2\n      swap1\n      tag_27\n      jump\t// in\n    tag_44:\n      swap1\n      dup2\n      mstore\n      0x20\n      add\n      mload(0x40)\n      dup1\n      swap2\n      sub\n      swap1\n      keccak256\n      0x00\n        /* \"soljobs.sol\":1736:1764  creatorEmails[_email] = true */\n      0x0100\n      exp\n      dup2\n      sload\n      dup2\n      0xff\n      mul\n      not\n      and\n      swap1\n      dup4\n      iszero\n      iszero\n      mul\n      or\n      swap1\n      sstore\n      pop\n        /* \"soljobs.sol\":1805:1809  true */\n      0x01\n        /* \"soljobs.sol\":1774:1790  creatorAddresses */\n      0x07\n        /* \"soljobs.sol\":1774:1802  creatorAddresses[msg.sender] */\n      0x00\n        /* \"soljobs.sol\":1791:1801  msg.sender */\n      caller\n        /* \"soljobs.sol\":1774:1802  creatorAddresses[msg.sender] */\n      0xffffffffffffffffffffffffffffffffffffffff\n      and\n      0xffffffffffffffffffffffffffffffffffffffff\n      and\n      dup2\n      mstore\n      0x20\n      add\n      swap1\n      dup2\n      mstore\n      0x20\n      add\n      0x00\n      keccak256\n      0x00\n        /* \"soljobs.sol\":1774:1809  creatorAddresses[msg.sender] = true */\n      0x0100\n      exp\n      dup2\n      sload\n      dup2\n      0xff\n      mul\n      not\n      and\n      swap1\n      dup4\n      iszero\n      iszero\n      mul\n      or\n      swap1\n      sstore\n      pop\n        /* \"soljobs.sol\":1859:1864  false */\n      0x00\n        /* \"soljobs.sol\":1840:1847  profile */\n      dup2\n        /* \"soljobs.sol\":1840:1856  profile.verified */\n      0x05\n      add\n      0x14\n        /* \"soljobs.sol\":1840:1864  profile.verified = false */\n      0x0100\n      exp\n      dup2\n      sload\n      dup2\n      0xff\n      mul\n      not\n      and\n      swap1\n      dup4\n      iszero\n      iszero\n      mul\n      or\n      swap1\n      sstore\n      pop\n        /* \"soljobs.sol\":1896:1915  ProfileType.Creator */\n      0x00\n        /* \"soljobs.sol\":1874:1881  profile */\n      dup2\n        /* \"soljobs.sol\":1874:1893  profile.profileType */\n      0x05\n      add\n      0x15\n        /* \"soljobs.sol\":1874:1915  profile.profileType = ProfileType.Creator */\n      0x0100\n      exp\n      dup2\n      sload\n      dup2\n      0xff\n      mul\n      not\n      and\n      swap1\n      dup4\n      0x01\n      dup2\n      gt\n      iszero\n      tag_45\n      jumpi\n      tag_46\n      tag_47\n      jump\t// in\n    tag_46:\n    tag_45:\n      mul\n      or\n      swap1\n      sstore\n      pop\n        /* \"soljobs.sol\":1950:1960  msg.sender */\n      caller\n        /* \"soljobs.sol\":1925:1932  profile */\n      dup2\n        /* \"soljobs.sol\":1925:1947  profile.creatorAddress */\n      0x05\n      add\n      0x00\n        /* \"soljobs.sol\":1925:1960  profile.creatorAddress = msg.sender */\n      0x0100\n      exp\n      dup2\n      sload\n      dup2\n      0xffffffffffffffffffffffffffffffffffffffff\n      mul\n      not\n      and\n      swap1\n      dup4\n      0xffffffffffffffffffffffffffffffffffffffff\n      and\n      mul\n      or\n      swap1\n      sstore\n      pop\n        /* \"soljobs.sol\":1976:2008  CreatorProfileCreated(creatorID) */\n      0xd1a7c154123ed5a80a1f9c4596757daf4b73c53e8bc15299d58a4be0ca505814\n        /* \"soljobs.sol\":1998:2007  creatorID */\n      dup3\n        /* \"soljobs.sol\":1976:2008  CreatorProfileCreated(creatorID) */\n      mload(0x40)\n      tag_48\n      swap2\n      swap1\n      tag_49\n      jump\t// in\n    tag_48:\n      mload(0x40)\n      dup1\n      swap2\n      sub\n      swap1\n      log1\n        /* \"soljobs.sol\":1384:2015  {... */\n      pop\n      pop\n        /* \"soljobs.sol\":1180:2015  function createCreatorProfile(... */\n      pop\n      pop\n      pop\n      pop\n      pop\n      pop\n      pop\n      pop\n      pop\n      pop\n      jump\t// out\n        /* \"soljobs.sol\":2021:2845  function createApplicantProfile(... */\n    tag_13:\n        /* \"soljobs.sol\":2216:2222  _email */\n      dup6\n      dup6\n        /* \"soljobs.sol\":857:862  false */\n      0x00\n        /* \"soljobs.sol\":832:862  creatorEmails[_email] == false */\n      iszero\n      iszero\n        /* \"soljobs.sol\":832:845  creatorEmails */\n      0x05\n        /* \"soljobs.sol\":846:852  _email */\n      dup4\n      dup4\n        /* \"soljobs.sol\":832:853  creatorEmails[_email] */\n      mload(0x40)\n      tag_51\n      swap3\n      swap2\n      swap1\n      tag_27\n      jump\t// in\n    tag_51:\n      swap1\n      dup2\n      mstore\n      0x20\n      add\n      mload(0x40)\n      dup1\n      swap2\n      sub\n      swap1\n      keccak256\n      0x00\n      swap1\n      sload\n      swap1\n      0x0100\n      exp\n      swap1\n      div\n      0xff\n      and\n        /* \"soljobs.sol\":832:862  creatorEmails[_email] == false */\n      iszero\n      iszero\n      eq\n        /* \"soljobs.sol\":832:898  creatorEmails[_email] == false && applicantEmails[_email] == false */\n      dup1\n      iszero\n      tag_52\n      jumpi\n      pop\n        /* \"soljobs.sol\":893:898  false */\n      0x00\n        /* \"soljobs.sol\":866:898  applicantEmails[_email] == false */\n      iszero\n      iszero\n        /* \"soljobs.sol\":866:881  applicantEmails */\n      0x06\n        /* \"soljobs.sol\":882:888  _email */\n      dup4\n      dup4\n        /* \"soljobs.sol\":866:889  applicantEmails[_email] */\n      mload(0x40)\n      tag_53\n      swap3\n      swap2\n      swap1\n      tag_27\n      jump\t// in\n    tag_53:\n      swap1\n      dup2\n      mstore\n      0x20\n      add\n      mload(0x40)\n      dup1\n      swap2\n      sub\n      swap1\n      keccak256\n      0x00\n      swap1\n      sload\n      swap1\n      0x0100\n      exp\n      swap1\n      div\n      0xff\n      and\n        /* \"soljobs.sol\":866:898  applicantEmails[_email] == false */\n      iszero\n      iszero\n      eq\n        /* \"soljobs.sol\":832:898  creatorEmails[_email] == false && applicantEmails[_email] == false */\n    tag_52:\n        /* \"soljobs.sol\":900:921  emailAlreadyExistsMsg */\n      mload(0x40)\n      dup1\n      0x40\n      add\n      0x40\n      mstore\n      dup1\n      0x15\n      dup2\n      mstore\n      0x20\n      add\n      0x456d61696c20616c726561647920657869737473210000000000000000000000\n      dup2\n      mstore\n      pop\n        /* \"soljobs.sol\":824:922  require(creatorEmails[_email] == false && applicantEmails[_email] == false, emailAlreadyExistsMsg) */\n      swap1\n      tag_54\n      jumpi\n      mload(0x40)\n      0x08c379a000000000000000000000000000000000000000000000000000000000\n      dup2\n      mstore\n      0x04\n      add\n      tag_55\n      swap2\n      swap1\n      tag_32\n      jump\t// in\n    tag_55:\n      mload(0x40)\n      dup1\n      swap2\n      sub\n      swap1\n      revert\n    tag_54:\n      pop\n        /* \"soljobs.sol\":972:977  false */\n      0x00\n        /* \"soljobs.sol\":940:977  creatorAddresses[msg.sender] == false */\n      iszero\n      iszero\n        /* \"soljobs.sol\":940:956  creatorAddresses */\n      0x07\n        /* \"soljobs.sol\":940:968  creatorAddresses[msg.sender] */\n      0x00\n        /* \"soljobs.sol\":957:967  msg.sender */\n      caller\n        /* \"soljobs.sol\":940:968  creatorAddresses[msg.sender] */\n      0xffffffffffffffffffffffffffffffffffffffff\n      and\n      0xffffffffffffffffffffffffffffffffffffffff\n      and\n      dup2\n      mstore\n      0x20\n      add\n      swap1\n      dup2\n      mstore\n      0x20\n      add\n      0x00\n      keccak256\n      0x00\n      swap1\n      sload\n      swap1\n      0x0100\n      exp\n      swap1\n      div\n      0xff\n      and\n        /* \"soljobs.sol\":940:977  creatorAddresses[msg.sender] == false */\n      iszero\n      iszero\n      eq\n        /* \"soljobs.sol\":940:1020  creatorAddresses[msg.sender] == false && applicantAddresses[msg.sender] == false */\n      dup1\n      iszero\n      tag_56\n      jumpi\n      pop\n        /* \"soljobs.sol\":1015:1020  false */\n      0x00\n        /* \"soljobs.sol\":981:1020  applicantAddresses[msg.sender] == false */\n      iszero\n      iszero\n        /* \"soljobs.sol\":981:999  applicantAddresses */\n      0x08\n        /* \"soljobs.sol\":981:1011  applicantAddresses[msg.sender] */\n      0x00\n        /* \"soljobs.sol\":1000:1010  msg.sender */\n      caller\n        /* \"soljobs.sol\":981:1011  applicantAddresses[msg.sender] */\n      0xffffffffffffffffffffffffffffffffffffffff\n      and\n      0xffffffffffffffffffffffffffffffffffffffff\n      and\n      dup2\n      mstore\n      0x20\n      add\n      swap1\n      dup2\n      mstore\n      0x20\n      add\n      0x00\n      keccak256\n      0x00\n      swap1\n      sload\n      swap1\n      0x0100\n      exp\n      swap1\n      div\n      0xff\n      and\n        /* \"soljobs.sol\":981:1020  applicantAddresses[msg.sender] == false */\n      iszero\n      iszero\n      eq\n        /* \"soljobs.sol\":940:1020  creatorAddresses[msg.sender] == false && applicantAddresses[msg.sender] == false */\n    tag_56:\n        /* \"soljobs.sol\":1022:1045  addressAlreadyExistsMsg */\n      mload(0x40)\n      dup1\n      0x40\n      add\n      0x40\n      mstore\n      dup1\n      0x17\n      dup2\n      mstore\n      0x20\n      add\n      0x4164647265737320616c72656164792065786973747321000000000000000000\n      dup2\n      mstore\n      pop\n        /* \"soljobs.sol\":932:1046  require(creatorAddresses[msg.sender] == false && applicantAddresses[msg.sender] == false, addressAlreadyExistsMsg) */\n      swap1\n      tag_57\n      jumpi\n      mload(0x40)\n      0x08c379a000000000000000000000000000000000000000000000000000000000\n      dup2\n      mstore\n      0x04\n      add\n      tag_58\n      swap2\n      swap1\n      tag_32\n      jump\t// in\n    tag_58:\n      mload(0x40)\n      dup1\n      swap2\n      sub\n      swap1\n      revert\n    tag_57:\n      pop\n        /* \"soljobs.sol\":2234:2250  uint applicantID */\n      0x00\n        /* \"soljobs.sol\":2255:2280  numberOfApplicantProfiles */\n      0x04\n      0x00\n        /* \"soljobs.sol\":2253:2280  ++numberOfApplicantProfiles */\n      dup2\n      sload\n      tag_60\n      swap1\n      tag_38\n      jump\t// in\n    tag_60:\n      swap2\n      swap1\n      pop\n      dup2\n      swap1\n      sstore\n        /* \"soljobs.sol\":2234:2280  uint applicantID = ++numberOfApplicantProfiles */\n      swap1\n      pop\n        /* \"soljobs.sol\":2291:2323  ApplicantProfile storage profile */\n      0x00\n        /* \"soljobs.sol\":2326:2343  applicantProfiles */\n      0x02\n        /* \"soljobs.sol\":2326:2355  applicantProfiles[msg.sender] */\n      0x00\n        /* \"soljobs.sol\":2344:2354  msg.sender */\n      caller\n        /* \"soljobs.sol\":2326:2355  applicantProfiles[msg.sender] */\n      0xffffffffffffffffffffffffffffffffffffffff\n      and\n      0xffffffffffffffffffffffffffffffffffffffff\n      and\n      dup2\n      mstore\n      0x20\n      add\n      swap1\n      dup2\n      mstore\n      0x20\n      add\n      0x00\n      keccak256\n        /* \"soljobs.sol\":2291:2355  ApplicantProfile storage profile = applicantProfiles[msg.sender] */\n      swap1\n      pop\n        /* \"soljobs.sol\":2378:2389  applicantID */\n      dup2\n        /* \"soljobs.sol\":2365:2372  profile */\n      dup2\n        /* \"soljobs.sol\":2365:2375  profile.id */\n      0x00\n      add\n        /* \"soljobs.sol\":2365:2389  profile.id = applicantID */\n      dup2\n      swap1\n      sstore\n      pop\n        /* \"soljobs.sol\":2418:2427  _fullname */\n      dup12\n      dup12\n        /* \"soljobs.sol\":2399:2406  profile */\n      dup3\n        /* \"soljobs.sol\":2399:2415  profile.fullname */\n      0x02\n      add\n        /* \"soljobs.sol\":2399:2427  profile.fullname = _fullname */\n      swap2\n      dup3\n      tag_61\n      swap3\n      swap2\n      swap1\n      tag_40\n      jump\t// in\n    tag_61:\n      pop\n        /* \"soljobs.sol\":2453:2459  _email */\n      dup10\n      dup10\n        /* \"soljobs.sol\":2437:2444  profile */\n      dup3\n        /* \"soljobs.sol\":2437:2450  profile.email */\n      0x03\n      add\n        /* \"soljobs.sol\":2437:2459  profile.email = _email */\n      swap2\n      dup3\n      tag_62\n      swap3\n      swap2\n      swap1\n      tag_40\n      jump\t// in\n    tag_62:\n      pop\n        /* \"soljobs.sol\":2488:2497  _location */\n      dup8\n      dup8\n        /* \"soljobs.sol\":2469:2476  profile */\n      dup3\n        /* \"soljobs.sol\":2469:2485  profile.location */\n      0x04\n      add\n        /* \"soljobs.sol\":2469:2497  profile.location = _location */\n      swap2\n      dup3\n      tag_63\n      swap3\n      swap2\n      swap1\n      tag_40\n      jump\t// in\n    tag_63:\n      pop\n        /* \"soljobs.sol\":2521:2525  _bio */\n      dup6\n      dup6\n        /* \"soljobs.sol\":2507:2514  profile */\n      dup3\n        /* \"soljobs.sol\":2507:2518  profile.bio */\n      0x05\n      add\n        /* \"soljobs.sol\":2507:2525  profile.bio = _bio */\n      swap2\n      dup3\n      tag_64\n      swap3\n      swap2\n      swap1\n      tag_40\n      jump\t// in\n    tag_64:\n      pop\n        /* \"soljobs.sol\":2614:2618  true */\n      0x01\n        /* \"soljobs.sol\":2588:2603  applicantEmails */\n      0x06\n        /* \"soljobs.sol\":2604:2610  _email */\n      dup12\n      dup12\n        /* \"soljobs.sol\":2588:2611  applicantEmails[_email] */\n      mload(0x40)\n      tag_65\n      swap3\n      swap2\n      swap1\n      tag_27\n      jump\t// in\n    tag_65:\n      swap1\n      dup2\n      mstore\n      0x20\n      add\n      mload(0x40)\n      dup1\n      swap2\n      sub\n      swap1\n      keccak256\n      0x00\n        /* \"soljobs.sol\":2588:2618  applicantEmails[_email] = true */\n      0x0100\n      exp\n      dup2\n      sload\n      dup2\n      0xff\n      mul\n      not\n      and\n      swap1\n      dup4\n      iszero\n      iszero\n      mul\n      or\n      swap1\n      sstore\n      pop\n        /* \"soljobs.sol\":2661:2665  true */\n      0x01\n        /* \"soljobs.sol\":2628:2646  applicantAddresses */\n      0x08\n        /* \"soljobs.sol\":2628:2658  applicantAddresses[msg.sender] */\n      0x00\n        /* \"soljobs.sol\":2647:2657  msg.sender */\n      caller\n        /* \"soljobs.sol\":2628:2658  applicantAddresses[msg.sender] */\n      0xffffffffffffffffffffffffffffffffffffffff\n      and\n      0xffffffffffffffffffffffffffffffffffffffff\n      and\n      dup2\n      mstore\n      0x20\n      add\n      swap1\n      dup2\n      mstore\n      0x20\n      add\n      0x00\n      keccak256\n      0x00\n        /* \"soljobs.sol\":2628:2665  applicantAddresses[msg.sender] = true */\n      0x0100\n      exp\n      dup2\n      sload\n      dup2\n      0xff\n      mul\n      not\n      and\n      swap1\n      dup4\n      iszero\n      iszero\n      mul\n      or\n      swap1\n      sstore\n      pop\n        /* \"soljobs.sol\":2718:2739  ProfileType.Applicant */\n      0x01\n        /* \"soljobs.sol\":2696:2703  profile */\n      dup2\n        /* \"soljobs.sol\":2696:2715  profile.profileType */\n      0x06\n      add\n      0x00\n        /* \"soljobs.sol\":2696:2739  profile.profileType = ProfileType.Applicant */\n      0x0100\n      exp\n      dup2\n      sload\n      dup2\n      0xff\n      mul\n      not\n      and\n      swap1\n      dup4\n      0x01\n      dup2\n      gt\n      iszero\n      tag_66\n      jumpi\n      tag_67\n      tag_47\n      jump\t// in\n    tag_67:\n    tag_66:\n      mul\n      or\n      swap1\n      sstore\n      pop\n        /* \"soljobs.sol\":2776:2786  msg.sender */\n      caller\n        /* \"soljobs.sol\":2749:2756  profile */\n      dup2\n        /* \"soljobs.sol\":2749:2773  profile.applicantAddress */\n      0x01\n      add\n      0x00\n        /* \"soljobs.sol\":2749:2786  profile.applicantAddress = msg.sender */\n      0x0100\n      exp\n      dup2\n      sload\n      dup2\n      0xffffffffffffffffffffffffffffffffffffffff\n      mul\n      not\n      and\n      swap1\n      dup4\n      0xffffffffffffffffffffffffffffffffffffffff\n      and\n      mul\n      or\n      swap1\n      sstore\n      pop\n        /* \"soljobs.sol\":2802:2838  ApplicantProfileCreated(applicantID) */\n      0x7a7674d49ab4ac57338891a3e15ebdbe5e6abbb1637fc6c5cfa506e2fa360ad0\n        /* \"soljobs.sol\":2826:2837  applicantID */\n      dup3\n        /* \"soljobs.sol\":2802:2838  ApplicantProfileCreated(applicantID) */\n      mload(0x40)\n      tag_68\n      swap2\n      swap1\n      tag_49\n      jump\t// in\n    tag_68:\n      mload(0x40)\n      dup1\n      swap2\n      sub\n      swap1\n      log1\n        /* \"soljobs.sol\":2224:2845  {... */\n      pop\n      pop\n        /* \"soljobs.sol\":2021:2845  function createApplicantProfile(... */\n      pop\n      pop\n      pop\n      pop\n      pop\n      pop\n      pop\n      pop\n      pop\n      pop\n      jump\t// out\n        /* \"soljobs.sol\":328:390  mapping (address => ApplicantProfile) public applicantProfiles */\n    tag_17:\n      mstore(0x20, 0x02)\n      dup1\n      0x00\n      mstore\n      keccak256(0x00, 0x40)\n      0x00\n      swap2\n      pop\n      swap1\n      pop\n      dup1\n      0x00\n      add\n      sload\n      swap1\n      dup1\n      0x01\n      add\n      0x00\n      swap1\n      sload\n      swap1\n      0x0100\n      exp\n      swap1\n      div\n      0xffffffffffffffffffffffffffffffffffffffff\n      and\n      swap1\n      dup1\n      0x02\n      add\n      dup1\n      sload\n      tag_69\n      swap1\n      tag_70\n      jump\t// in\n    tag_69:\n      dup1\n      0x1f\n      add\n      0x20\n      dup1\n      swap2\n      div\n      mul\n      0x20\n      add\n      mload(0x40)\n      swap1\n      dup2\n      add\n      0x40\n      mstore\n      dup1\n      swap3\n      swap2\n      swap1\n      dup2\n      dup2\n      mstore\n      0x20\n      add\n      dup3\n      dup1\n      sload\n      tag_71\n      swap1\n      tag_70\n      jump\t// in\n    tag_71:\n      dup1\n      iszero\n      tag_72\n      jumpi\n      dup1\n      0x1f\n      lt\n      tag_73\n      jumpi\n      0x0100\n      dup1\n      dup4\n      sload\n      div\n      mul\n      dup4\n      mstore\n      swap2\n      0x20\n      add\n      swap2\n      jump(tag_72)\n    tag_73:\n      dup3\n      add\n      swap2\n      swap1\n      0x00\n      mstore\n      keccak256(0x00, 0x20)\n      swap1\n    tag_74:\n      dup2\n      sload\n      dup2\n      mstore\n      swap1\n      0x01\n      add\n      swap1\n      0x20\n      add\n      dup1\n      dup4\n      gt\n      tag_74\n      jumpi\n      dup3\n      swap1\n      sub\n      0x1f\n      and\n      dup3\n      add\n      swap2\n    tag_72:\n      pop\n      pop\n      pop\n      pop\n      pop\n      swap1\n      dup1\n      0x03\n      add\n      dup1\n      sload\n      tag_75\n      swap1\n      tag_70\n      jump\t// in\n    tag_75:\n      dup1\n      0x1f\n      add\n      0x20\n      dup1\n      swap2\n      div\n      mul\n      0x20\n      add\n      mload(0x40)\n      swap1\n      dup2\n      add\n      0x40\n      mstore\n      dup1\n      swap3\n      swap2\n      swap1\n      dup2\n      dup2\n      mstore\n      0x20\n      add\n      dup3\n      dup1\n      sload\n      tag_76\n      swap1\n      tag_70\n      jump\t// in\n    tag_76:\n      dup1\n      iszero\n      tag_77\n      jumpi\n      dup1\n      0x1f\n      lt\n      tag_78\n      jumpi\n      0x0100\n      dup1\n      dup4\n      sload\n      div\n      mul\n      dup4\n      mstore\n      swap2\n      0x20\n      add\n      swap2\n      jump(tag_77)\n    tag_78:\n      dup3\n      add\n      swap2\n      swap1\n      0x00\n      mstore\n      keccak256(0x00, 0x20)\n      swap1\n    tag_79:\n      dup2\n      sload\n      dup2\n      mstore\n      swap1\n      0x01\n      add\n      swap1\n      0x20\n      add\n      dup1\n      dup4\n      gt\n      tag_79\n      jumpi\n      dup3\n      swap1\n      sub\n      0x1f\n      and\n      dup3\n      add\n      swap2\n    tag_77:\n      pop\n      pop\n      pop\n      pop\n      pop\n      swap1\n      dup1\n      0x04\n      add\n      dup1\n      sload\n      tag_80\n      swap1\n      tag_70\n      jump\t// in\n    tag_80:\n      dup1\n      0x1f\n      add\n      0x20\n      dup1\n      swap2\n      div\n      mul\n      0x20\n      add\n      mload(0x40)\n      swap1\n      dup2\n      add\n      0x40\n      mstore\n      dup1\n      swap3\n      swap2\n      swap1\n      dup2\n      dup2\n      mstore\n      0x20\n      add\n      dup3\n      dup1\n      sload\n      tag_81\n      swap1\n      tag_70\n      jump\t// in\n    tag_81:\n      dup1\n      iszero\n      tag_82\n      jumpi\n      dup1\n      0x1f\n      lt\n      tag_83\n      jumpi\n      0x0100\n      dup1\n      dup4\n      sload\n      div\n      mul\n      dup4\n      mstore\n      swap2\n      0x20\n      add\n      swap2\n      jump(tag_82)\n    tag_83:\n      dup3\n      add\n      swap2\n      swap1\n      0x00\n      mstore\n      keccak256(0x00, 0x20)\n      swap1\n    tag_84:\n      dup2\n      sload\n      dup2\n      mstore\n      swap1\n      0x01\n      add\n      swap1\n      0x20\n      add\n      dup1\n      dup4\n      gt\n      tag_84\n      jumpi\n      dup3\n      swap1\n      sub\n      0x1f\n      and\n      dup3\n      add\n      swap2\n    tag_82:\n      pop\n      pop\n      pop\n      pop\n      pop\n      swap1\n      dup1\n      0x05\n      add\n      dup1\n      sload\n      tag_85\n      swap1\n      tag_70\n      jump\t// in\n    tag_85:\n      dup1\n      0x1f\n      add\n      0x20\n      dup1\n      swap2\n      div\n      mul\n      0x20\n      add\n      mload(0x40)\n      swap1\n      dup2\n      add\n      0x40\n      mstore\n      dup1\n      swap3\n      swap2\n      swap1\n      dup2\n      dup2\n      mstore\n      0x20\n      add\n      dup3\n      dup1\n      sload\n      tag_86\n      swap1\n      tag_70\n      jump\t// in\n    tag_86:\n      dup1\n      iszero\n      tag_87\n      jumpi\n      dup1\n      0x1f\n      lt\n      tag_88\n      jumpi\n      0x0100\n      dup1\n      dup4\n      sload\n      div\n      mul\n      dup4\n      mstore\n      swap2\n      0x20\n      add\n      swap2\n      jump(tag_87)\n    tag_88:\n      dup3\n      add\n      swap2\n      swap1\n      0x00\n      mstore\n      keccak256(0x00, 0x20)\n      swap1\n    tag_89:\n      dup2\n      sload\n      dup2\n      mstore\n      swap1\n      0x01\n      add\n      swap1\n      0x20\n      add\n      dup1\n      dup4\n      gt\n      tag_89\n      jumpi\n      dup3\n      swap1\n      sub\n      0x1f\n      and\n      dup3\n      add\n      swap2\n    tag_87:\n      pop\n      pop\n      pop\n      pop\n      pop\n      swap1\n      dup1\n      0x06\n      add\n      0x00\n      swap1\n      sload\n      swap1\n      0x0100\n      exp\n      swap1\n      div\n      0xff\n      and\n      swap1\n      pop\n      dup8\n      jump\t// out\n        /* \"soljobs.sol\":263:321  mapping (address => CreatorProfile) public creatorProfiles */\n    tag_22:\n      mstore(0x20, 0x01)\n      dup1\n      0x00\n      mstore\n      keccak256(0x00, 0x40)\n      0x00\n      swap2\n      pop\n      swap1\n      pop\n      dup1\n      0x00\n      add\n      sload\n      swap1\n      dup1\n      0x01\n      add\n      dup1\n      sload\n      tag_90\n      swap1\n      tag_70\n      jump\t// in\n    tag_90:\n      dup1\n      0x1f\n      add\n      0x20\n      dup1\n      swap2\n      div\n      mul\n      0x20\n      add\n      mload(0x40)\n      swap1\n      dup2\n      add\n      0x40\n      mstore\n      dup1\n      swap3\n      swap2\n      swap1\n      dup2\n      dup2\n      mstore\n      0x20\n      add\n      dup3\n      dup1\n      sload\n      tag_91\n      swap1\n      tag_70\n      jump\t// in\n    tag_91:\n      dup1\n      iszero\n      tag_92\n      jumpi\n      dup1\n      0x1f\n      lt\n      tag_93\n      jumpi\n      0x0100\n      dup1\n      dup4\n      sload\n      div\n      mul\n      dup4\n      mstore\n      swap2\n      0x20\n      add\n      swap2\n      jump(tag_92)\n    tag_93:\n      dup3\n      add\n      swap2\n      swap1\n      0x00\n      mstore\n      keccak256(0x00, 0x20)\n      swap1\n    tag_94:\n      dup2\n      sload\n      dup2\n      mstore\n      swap1\n      0x01\n      add\n      swap1\n      0x20\n      add\n      dup1\n      dup4\n      gt\n      tag_94\n      jumpi\n      dup3\n      swap1\n      sub\n      0x1f\n      and\n      dup3\n      add\n      swap2\n    tag_92:\n      pop\n      pop\n      pop\n      pop\n      pop\n      swap1\n      dup1\n      0x02\n      add\n      dup1\n      sload\n      tag_95\n      swap1\n      tag_70\n      jump\t// in\n    tag_95:\n      dup1\n      0x1f\n      add\n      0x20\n      dup1\n      swap2\n      div\n      mul\n      0x20\n      add\n      mload(0x40)\n      swap1\n      dup2\n      add\n      0x40\n      mstore\n      dup1\n      swap3\n      swap2\n      swap1\n      dup2\n      dup2\n      mstore\n      0x20\n      add\n      dup3\n      dup1\n      sload\n      tag_96\n      swap1\n      tag_70\n      jump\t// in\n    tag_96:\n      dup1\n      iszero\n      tag_97\n      jumpi\n      dup1\n      0x1f\n      lt\n      tag_98\n      jumpi\n      0x0100\n      dup1\n      dup4\n      sload\n      div\n      mul\n      dup4\n      mstore\n      swap2\n      0x20\n      add\n      swap2\n      jump(tag_97)\n    tag_98:\n      dup3\n      add\n      swap2\n      swap1\n      0x00\n      mstore\n      keccak256(0x00, 0x20)\n      swap1\n    tag_99:\n      dup2\n      sload\n      dup2\n      mstore\n      swap1\n      0x01\n      add\n      swap1\n      0x20\n      add\n      dup1\n      dup4\n      gt\n      tag_99\n      jumpi\n      dup3\n      swap1\n      sub\n      0x1f\n      and\n      dup3\n      add\n      swap2\n    tag_97:\n      pop\n      pop\n      pop\n      pop\n      pop\n      swap1\n      dup1\n      0x03\n      add\n      dup1\n      sload\n      tag_100\n      swap1\n      tag_70\n      jump\t// in\n    tag_100:\n      dup1\n      0x1f\n      add\n      0x20\n      dup1\n      swap2\n      div\n      mul\n      0x20\n      add\n      mload(0x40)\n      swap1\n      dup2\n      add\n      0x40\n      mstore\n      dup1\n      swap3\n      swap2\n      swap1\n      dup2\n      dup2\n      mstore\n      0x20\n      add\n      dup3\n      dup1\n      sload\n      tag_101\n      swap1\n      tag_70\n      jump\t// in\n    tag_101:\n      dup1\n      iszero\n      tag_102\n      jumpi\n      dup1\n      0x1f\n      lt\n      tag_103\n      jumpi\n      0x0100\n      dup1\n      dup4\n      sload\n      div\n      mul\n      dup4\n      mstore\n      swap2\n      0x20\n      add\n      swap2\n      jump(tag_102)\n    tag_103:\n      dup3\n      add\n      swap2\n      swap1\n      0x00\n      mstore\n      keccak256(0x00, 0x20)\n      swap1\n    tag_104:\n      dup2\n      sload\n      dup2\n      mstore\n      swap1\n      0x01\n      add\n      swap1\n      0x20\n      add\n      dup1\n      dup4\n      gt\n      tag_104\n      jumpi\n      dup3\n      swap1\n      sub\n      0x1f\n      and\n      dup3\n      add\n      swap2\n    tag_102:\n      pop\n      pop\n      pop\n      pop\n      pop\n      swap1\n      dup1\n      0x04\n      add\n      dup1\n      sload\n      tag_105\n      swap1\n      tag_70\n      jump\t// in\n    tag_105:\n      dup1\n      0x1f\n      add\n      0x20\n      dup1\n      swap2\n      div\n      mul\n      0x20\n      add\n      mload(0x40)\n      swap1\n      dup2\n      add\n      0x40\n      mstore\n      dup1\n      swap3\n      swap2\n      swap1\n      dup2\n      dup2\n      mstore\n      0x20\n      add\n      dup3\n      dup1\n      sload\n      tag_106\n      swap1\n      tag_70\n      jump\t// in\n    tag_106:\n      dup1\n      iszero\n      tag_107\n      jumpi\n      dup1\n      0x1f\n      lt\n      tag_108\n      jumpi\n      0x0100\n      dup1\n      dup4\n      sload\n      div\n      mul\n      dup4\n      mstore\n      swap2\n      0x20\n      add\n      swap2\n      jump(tag_107)\n    tag_108:\n      dup3\n      add\n      swap2\n      swap1\n      0x00\n      mstore\n      keccak256(0x00, 0x20)\n      swap1\n    tag_109:\n      dup2\n      sload\n      dup2\n      mstore\n      swap1\n      0x01\n      add\n      swap1\n      0x20\n      add\n      dup1\n      dup4\n      gt\n      tag_109\n      jumpi\n      dup3\n      swap1\n      sub\n      0x1f\n      and\n      dup3\n      add\n      swap2\n    tag_107:\n      pop\n      pop\n      pop\n      pop\n      pop\n      swap1\n      dup1\n      0x05\n      add\n      0x00\n      swap1\n      sload\n      swap1\n      0x0100\n      exp\n      swap1\n      div\n      0xffffffffffffffffffffffffffffffffffffffff\n      and\n      swap1\n      dup1\n      0x05\n      add\n      0x14\n      swap1\n      sload\n      swap1\n      0x0100\n      exp\n      swap1\n      div\n      0xff\n      and\n      swap1\n      dup1\n      0x05\n      add\n      0x15\n      swap1\n      sload\n      swap1\n      0x0100\n      exp\n      swap1\n      div\n      0xff\n      and\n      swap1\n      pop\n      dup9\n      jump\t// out\n        /* \"#utility.yul\":88:205   */\n    tag_111:\n        /* \"#utility.yul\":197:198   */\n      0x00\n        /* \"#utility.yul\":194:195   */\n      0x00\n        /* \"#utility.yul\":187:199   */\n      revert\n        /* \"#utility.yul\":211:328   */\n    tag_112:\n        /* \"#utility.yul\":320:321   */\n      0x00\n        /* \"#utility.yul\":317:318   */\n      0x00\n        /* \"#utility.yul\":310:322   */\n      revert\n        /* \"#utility.yul\":334:451   */\n    tag_113:\n        /* \"#utility.yul\":443:444   */\n      0x00\n        /* \"#utility.yul\":440:441   */\n      0x00\n        /* \"#utility.yul\":433:445   */\n      revert\n        /* \"#utility.yul\":457:574   */\n    tag_114:\n        /* \"#utility.yul\":566:567   */\n      0x00\n        /* \"#utility.yul\":563:564   */\n      0x00\n        /* \"#utility.yul\":556:568   */\n      revert\n        /* \"#utility.yul\":580:697   */\n    tag_115:\n        /* \"#utility.yul\":689:690   */\n      0x00\n        /* \"#utility.yul\":686:687   */\n      0x00\n        /* \"#utility.yul\":679:691   */\n      revert\n        /* \"#utility.yul\":717:1270   */\n    tag_116:\n        /* \"#utility.yul\":775:783   */\n      0x00\n        /* \"#utility.yul\":785:791   */\n      0x00\n        /* \"#utility.yul\":835:838   */\n      dup4\n        /* \"#utility.yul\":828:832   */\n      0x1f\n        /* \"#utility.yul\":820:826   */\n      dup5\n        /* \"#utility.yul\":816:833   */\n      add\n        /* \"#utility.yul\":812:839   */\n      slt\n        /* \"#utility.yul\":802:924   */\n      tag_165\n      jumpi\n        /* \"#utility.yul\":843:922   */\n      tag_166\n      tag_113\n      jump\t// in\n    tag_166:\n        /* \"#utility.yul\":802:924   */\n    tag_165:\n        /* \"#utility.yul\":956:962   */\n      dup3\n        /* \"#utility.yul\":943:963   */\n      calldataload\n        /* \"#utility.yul\":933:963   */\n      swap1\n      pop\n        /* \"#utility.yul\":986:1004   */\n      0xffffffffffffffff\n        /* \"#utility.yul\":978:984   */\n      dup2\n        /* \"#utility.yul\":975:1005   */\n      gt\n        /* \"#utility.yul\":972:1089   */\n      iszero\n      tag_167\n      jumpi\n        /* \"#utility.yul\":1008:1087   */\n      tag_168\n      tag_114\n      jump\t// in\n    tag_168:\n        /* \"#utility.yul\":972:1089   */\n    tag_167:\n        /* \"#utility.yul\":1122:1126   */\n      0x20\n        /* \"#utility.yul\":1114:1120   */\n      dup4\n        /* \"#utility.yul\":1110:1127   */\n      add\n        /* \"#utility.yul\":1098:1127   */\n      swap2\n      pop\n        /* \"#utility.yul\":1176:1179   */\n      dup4\n        /* \"#utility.yul\":1168:1172   */\n      0x01\n        /* \"#utility.yul\":1160:1166   */\n      dup3\n        /* \"#utility.yul\":1156:1173   */\n      mul\n        /* \"#utility.yul\":1146:1154   */\n      dup4\n        /* \"#utility.yul\":1142:1174   */\n      add\n        /* \"#utility.yul\":1139:1180   */\n      gt\n        /* \"#utility.yul\":1136:1264   */\n      iszero\n      tag_169\n      jumpi\n        /* \"#utility.yul\":1183:1262   */\n      tag_170\n      tag_115\n      jump\t// in\n    tag_170:\n        /* \"#utility.yul\":1136:1264   */\n    tag_169:\n        /* \"#utility.yul\":717:1270   */\n      swap3\n      pop\n      swap3\n      swap1\n      pop\n      jump\t// out\n        /* \"#utility.yul\":1276:2841   */\n    tag_9:\n        /* \"#utility.yul\":1410:1416   */\n      0x00\n        /* \"#utility.yul\":1418:1424   */\n      0x00\n        /* \"#utility.yul\":1426:1432   */\n      0x00\n        /* \"#utility.yul\":1434:1440   */\n      0x00\n        /* \"#utility.yul\":1442:1448   */\n      0x00\n        /* \"#utility.yul\":1450:1456   */\n      0x00\n        /* \"#utility.yul\":1458:1464   */\n      0x00\n        /* \"#utility.yul\":1466:1472   */\n      0x00\n        /* \"#utility.yul\":1515:1518   */\n      0x80\n        /* \"#utility.yul\":1503:1512   */\n      dup10\n        /* \"#utility.yul\":1494:1501   */\n      dup12\n        /* \"#utility.yul\":1490:1513   */\n      sub\n        /* \"#utility.yul\":1486:1519   */\n      slt\n        /* \"#utility.yul\":1483:1603   */\n      iszero\n      tag_172\n      jumpi\n        /* \"#utility.yul\":1522:1601   */\n      tag_173\n      tag_111\n      jump\t// in\n    tag_173:\n        /* \"#utility.yul\":1483:1603   */\n    tag_172:\n        /* \"#utility.yul\":1670:1671   */\n      0x00\n        /* \"#utility.yul\":1659:1668   */\n      dup10\n        /* \"#utility.yul\":1655:1672   */\n      add\n        /* \"#utility.yul\":1642:1673   */\n      calldataload\n        /* \"#utility.yul\":1700:1718   */\n      0xffffffffffffffff\n        /* \"#utility.yul\":1692:1698   */\n      dup2\n        /* \"#utility.yul\":1689:1719   */\n      gt\n        /* \"#utility.yul\":1686:1803   */\n      iszero\n      tag_174\n      jumpi\n        /* \"#utility.yul\":1722:1801   */\n      tag_175\n      tag_112\n      jump\t// in\n    tag_175:\n        /* \"#utility.yul\":1686:1803   */\n    tag_174:\n        /* \"#utility.yul\":1835:1900   */\n      tag_176\n        /* \"#utility.yul\":1892:1899   */\n      dup12\n        /* \"#utility.yul\":1883:1889   */\n      dup3\n        /* \"#utility.yul\":1872:1881   */\n      dup13\n        /* \"#utility.yul\":1868:1890   */\n      add\n        /* \"#utility.yul\":1835:1900   */\n      tag_116\n      jump\t// in\n    tag_176:\n        /* \"#utility.yul\":1817:1900   */\n      swap9\n      pop\n      swap9\n      pop\n        /* \"#utility.yul\":1613:1910   */\n      pop\n        /* \"#utility.yul\":1977:1979   */\n      0x20\n        /* \"#utility.yul\":1966:1975   */\n      dup10\n        /* \"#utility.yul\":1962:1980   */\n      add\n        /* \"#utility.yul\":1949:1981   */\n      calldataload\n        /* \"#utility.yul\":2008:2026   */\n      0xffffffffffffffff\n        /* \"#utility.yul\":2000:2006   */\n      dup2\n        /* \"#utility.yul\":1997:2027   */\n      gt\n        /* \"#utility.yul\":1994:2111   */\n      iszero\n      tag_177\n      jumpi\n        /* \"#utility.yul\":2030:2109   */\n      tag_178\n      tag_112\n      jump\t// in\n    tag_178:\n        /* \"#utility.yul\":1994:2111   */\n    tag_177:\n        /* \"#utility.yul\":2143:2208   */\n      tag_179\n        /* \"#utility.yul\":2200:2207   */\n      dup12\n        /* \"#utility.yul\":2191:2197   */\n      dup3\n        /* \"#utility.yul\":2180:2189   */\n      dup13\n        /* \"#utility.yul\":2176:2198   */\n      add\n        /* \"#utility.yul\":2143:2208   */\n      tag_116\n      jump\t// in\n    tag_179:\n        /* \"#utility.yul\":2125:2208   */\n      swap7\n      pop\n      swap7\n      pop\n        /* \"#utility.yul\":1920:2218   */\n      pop\n        /* \"#utility.yul\":2285:2287   */\n      0x40\n        /* \"#utility.yul\":2274:2283   */\n      dup10\n        /* \"#utility.yul\":2270:2288   */\n      add\n        /* \"#utility.yul\":2257:2289   */\n      calldataload\n        /* \"#utility.yul\":2316:2334   */\n      0xffffffffffffffff\n        /* \"#utility.yul\":2308:2314   */\n      dup2\n        /* \"#utility.yul\":2305:2335   */\n      gt\n        /* \"#utility.yul\":2302:2419   */\n      iszero\n      tag_180\n      jumpi\n        /* \"#utility.yul\":2338:2417   */\n      tag_181\n      tag_112\n      jump\t// in\n    tag_181:\n        /* \"#utility.yul\":2302:2419   */\n    tag_180:\n        /* \"#utility.yul\":2451:2516   */\n      tag_182\n        /* \"#utility.yul\":2508:2515   */\n      dup12\n        /* \"#utility.yul\":2499:2505   */\n      dup3\n        /* \"#utility.yul\":2488:2497   */\n      dup13\n        /* \"#utility.yul\":2484:2506   */\n      add\n        /* \"#utility.yul\":2451:2516   */\n      tag_116\n      jump\t// in\n    tag_182:\n        /* \"#utility.yul\":2433:2516   */\n      swap5\n      pop\n      swap5\n      pop\n        /* \"#utility.yul\":2228:2526   */\n      pop\n        /* \"#utility.yul\":2593:2595   */\n      0x60\n        /* \"#utility.yul\":2582:2591   */\n      dup10\n        /* \"#utility.yul\":2578:2596   */\n      add\n        /* \"#utility.yul\":2565:2597   */\n      calldataload\n        /* \"#utility.yul\":2624:2642   */\n      0xffffffffffffffff\n        /* \"#utility.yul\":2616:2622   */\n      dup2\n        /* \"#utility.yul\":2613:2643   */\n      gt\n        /* \"#utility.yul\":2610:2727   */\n      iszero\n      tag_183\n      jumpi\n        /* \"#utility.yul\":2646:2725   */\n      tag_184\n      tag_112\n      jump\t// in\n    tag_184:\n        /* \"#utility.yul\":2610:2727   */\n    tag_183:\n        /* \"#utility.yul\":2759:2824   */\n      tag_185\n        /* \"#utility.yul\":2816:2823   */\n      dup12\n        /* \"#utility.yul\":2807:2813   */\n      dup3\n        /* \"#utility.yul\":2796:2805   */\n      dup13\n        /* \"#utility.yul\":2792:2814   */\n      add\n        /* \"#utility.yul\":2759:2824   */\n      tag_116\n      jump\t// in\n    tag_185:\n        /* \"#utility.yul\":2741:2824   */\n      swap3\n      pop\n      swap3\n      pop\n        /* \"#utility.yul\":2536:2834   */\n      pop\n        /* \"#utility.yul\":1276:2841   */\n      swap3\n      swap6\n      swap9\n      pop\n      swap3\n      swap6\n      swap9\n      swap1\n      swap4\n      swap7\n      pop\n      jump\t// out\n        /* \"#utility.yul\":2847:2973   */\n    tag_117:\n        /* \"#utility.yul\":2884:2891   */\n      0x00\n        /* \"#utility.yul\":2924:2966   */\n      0xffffffffffffffffffffffffffffffffffffffff\n        /* \"#utility.yul\":2917:2922   */\n      dup3\n        /* \"#utility.yul\":2913:2967   */\n      and\n        /* \"#utility.yul\":2902:2967   */\n      swap1\n      pop\n        /* \"#utility.yul\":2847:2973   */\n      swap2\n      swap1\n      pop\n      jump\t// out\n        /* \"#utility.yul\":2979:3075   */\n    tag_118:\n        /* \"#utility.yul\":3016:3023   */\n      0x00\n        /* \"#utility.yul\":3045:3069   */\n      tag_188\n        /* \"#utility.yul\":3063:3068   */\n      dup3\n        /* \"#utility.yul\":3045:3069   */\n      tag_117\n      jump\t// in\n    tag_188:\n        /* \"#utility.yul\":3034:3069   */\n      swap1\n      pop\n        /* \"#utility.yul\":2979:3075   */\n      swap2\n      swap1\n      pop\n      jump\t// out\n        /* \"#utility.yul\":3081:3203   */\n    tag_119:\n        /* \"#utility.yul\":3154:3178   */\n      tag_190\n        /* \"#utility.yul\":3172:3177   */\n      dup2\n        /* \"#utility.yul\":3154:3178   */\n      tag_118\n      jump\t// in\n    tag_190:\n        /* \"#utility.yul\":3147:3152   */\n      dup2\n        /* \"#utility.yul\":3144:3179   */\n      eq\n        /* \"#utility.yul\":3134:3197   */\n      tag_191\n      jumpi\n        /* \"#utility.yul\":3193:3194   */\n      0x00\n        /* \"#utility.yul\":3190:3191   */\n      0x00\n        /* \"#utility.yul\":3183:3195   */\n      revert\n        /* \"#utility.yul\":3134:3197   */\n    tag_191:\n        /* \"#utility.yul\":3081:3203   */\n      pop\n      jump\t// out\n        /* \"#utility.yul\":3209:3348   */\n    tag_120:\n        /* \"#utility.yul\":3255:3260   */\n      0x00\n        /* \"#utility.yul\":3293:3299   */\n      dup2\n        /* \"#utility.yul\":3280:3300   */\n      calldataload\n        /* \"#utility.yul\":3271:3300   */\n      swap1\n      pop\n        /* \"#utility.yul\":3309:3342   */\n      tag_193\n        /* \"#utility.yul\":3336:3341   */\n      dup2\n        /* \"#utility.yul\":3309:3342   */\n      tag_119\n      jump\t// in\n    tag_193:\n        /* \"#utility.yul\":3209:3348   */\n      swap3\n      swap2\n      pop\n      pop\n      jump\t// out\n        /* \"#utility.yul\":3354:3683   */\n    tag_16:\n        /* \"#utility.yul\":3413:3419   */\n      0x00\n        /* \"#utility.yul\":3462:3464   */\n      0x20\n        /* \"#utility.yul\":3450:3459   */\n      dup3\n        /* \"#utility.yul\":3441:3448   */\n      dup5\n        /* \"#utility.yul\":3437:3460   */\n      sub\n        /* \"#utility.yul\":3433:3465   */\n      slt\n        /* \"#utility.yul\":3430:3549   */\n      iszero\n      tag_195\n      jumpi\n        /* \"#utility.yul\":3468:3547   */\n      tag_196\n      tag_111\n      jump\t// in\n    tag_196:\n        /* \"#utility.yul\":3430:3549   */\n    tag_195:\n        /* \"#utility.yul\":3588:3589   */\n      0x00\n        /* \"#utility.yul\":3613:3666   */\n      tag_197\n        /* \"#utility.yul\":3658:3665   */\n      dup5\n        /* \"#utility.yul\":3649:3655   */\n      dup3\n        /* \"#utility.yul\":3638:3647   */\n      dup6\n        /* \"#utility.yul\":3634:3656   */\n      add\n        /* \"#utility.yul\":3613:3666   */\n      tag_120\n      jump\t// in\n    tag_197:\n        /* \"#utility.yul\":3603:3666   */\n      swap2\n      pop\n        /* \"#utility.yul\":3559:3676   */\n      pop\n        /* \"#utility.yul\":3354:3683   */\n      swap3\n      swap2\n      pop\n      pop\n      jump\t// out\n        /* \"#utility.yul\":3689:3766   */\n    tag_121:\n        /* \"#utility.yul\":3726:3733   */\n      0x00\n        /* \"#utility.yul\":3755:3760   */\n      dup2\n        /* \"#utility.yul\":3744:3760   */\n      swap1\n      pop\n        /* \"#utility.yul\":3689:3766   */\n      swap2\n      swap1\n      pop\n      jump\t// out\n        /* \"#utility.yul\":3772:3890   */\n    tag_122:\n        /* \"#utility.yul\":3859:3883   */\n      tag_200\n        /* \"#utility.yul\":3877:3882   */\n      dup2\n        /* \"#utility.yul\":3859:3883   */\n      tag_121\n      jump\t// in\n    tag_200:\n        /* \"#utility.yul\":3854:3857   */\n      dup3\n        /* \"#utility.yul\":3847:3884   */\n      mstore\n        /* \"#utility.yul\":3772:3890   */\n      pop\n      pop\n      jump\t// out\n        /* \"#utility.yul\":3896:4014   */\n    tag_123:\n        /* \"#utility.yul\":3983:4007   */\n      tag_202\n        /* \"#utility.yul\":4001:4006   */\n      dup2\n        /* \"#utility.yul\":3983:4007   */\n      tag_118\n      jump\t// in\n    tag_202:\n        /* \"#utility.yul\":3978:3981   */\n      dup3\n        /* \"#utility.yul\":3971:4008   */\n      mstore\n        /* \"#utility.yul\":3896:4014   */\n      pop\n      pop\n      jump\t// out\n        /* \"#utility.yul\":4020:4119   */\n    tag_124:\n        /* \"#utility.yul\":4072:4078   */\n      0x00\n        /* \"#utility.yul\":4106:4111   */\n      dup2\n        /* \"#utility.yul\":4100:4112   */\n      mload\n        /* \"#utility.yul\":4090:4112   */\n      swap1\n      pop\n        /* \"#utility.yul\":4020:4119   */\n      swap2\n      swap1\n      pop\n      jump\t// out\n        /* \"#utility.yul\":4125:4294   */\n    tag_125:\n        /* \"#utility.yul\":4209:4220   */\n      0x00\n        /* \"#utility.yul\":4243:4249   */\n      dup3\n        /* \"#utility.yul\":4238:4241   */\n      dup3\n        /* \"#utility.yul\":4231:4250   */\n      mstore\n        /* \"#utility.yul\":4283:4287   */\n      0x20\n        /* \"#utility.yul\":4278:4281   */\n      dup3\n        /* \"#utility.yul\":4274:4288   */\n      add\n        /* \"#utility.yul\":4259:4288   */\n      swap1\n      pop\n        /* \"#utility.yul\":4125:4294   */\n      swap3\n      swap2\n      pop\n      pop\n      jump\t// out\n        /* \"#utility.yul\":4300:4439   */\n    tag_126:\n        /* \"#utility.yul\":4389:4395   */\n      dup3\n        /* \"#utility.yul\":4384:4387   */\n      dup2\n        /* \"#utility.yul\":4379:4382   */\n      dup4\n        /* \"#utility.yul\":4373:4396   */\n      mcopy\n        /* \"#utility.yul\":4430:4431   */\n      0x00\n        /* \"#utility.yul\":4421:4427   */\n      dup4\n        /* \"#utility.yul\":4416:4419   */\n      dup4\n        /* \"#utility.yul\":4412:4428   */\n      add\n        /* \"#utility.yul\":4405:4432   */\n      mstore\n        /* \"#utility.yul\":4300:4439   */\n      pop\n      pop\n      pop\n      jump\t// out\n        /* \"#utility.yul\":4445:4547   */\n    tag_127:\n        /* \"#utility.yul\":4486:4492   */\n      0x00\n        /* \"#utility.yul\":4537:4539   */\n      0x1f\n        /* \"#utility.yul\":4533:4540   */\n      not\n        /* \"#utility.yul\":4528:4530   */\n      0x1f\n        /* \"#utility.yul\":4521:4526   */\n      dup4\n        /* \"#utility.yul\":4517:4531   */\n      add\n        /* \"#utility.yul\":4513:4541   */\n      and\n        /* \"#utility.yul\":4503:4541   */\n      swap1\n      pop\n        /* \"#utility.yul\":4445:4547   */\n      swap2\n      swap1\n      pop\n      jump\t// out\n        /* \"#utility.yul\":4553:4930   */\n    tag_128:\n        /* \"#utility.yul\":4641:4644   */\n      0x00\n        /* \"#utility.yul\":4669:4708   */\n      tag_208\n        /* \"#utility.yul\":4702:4707   */\n      dup3\n        /* \"#utility.yul\":4669:4708   */\n      tag_124\n      jump\t// in\n    tag_208:\n        /* \"#utility.yul\":4724:4795   */\n      tag_209\n        /* \"#utility.yul\":4788:4794   */\n      dup2\n        /* \"#utility.yul\":4783:4786   */\n      dup6\n        /* \"#utility.yul\":4724:4795   */\n      tag_125\n      jump\t// in\n    tag_209:\n        /* \"#utility.yul\":4717:4795   */\n      swap4\n      pop\n        /* \"#utility.yul\":4804:4869   */\n      tag_210\n        /* \"#utility.yul\":4862:4868   */\n      dup2\n        /* \"#utility.yul\":4857:4860   */\n      dup6\n        /* \"#utility.yul\":4850:4854   */\n      0x20\n        /* \"#utility.yul\":4843:4848   */\n      dup7\n        /* \"#utility.yul\":4839:4855   */\n      add\n        /* \"#utility.yul\":4804:4869   */\n      tag_126\n      jump\t// in\n    tag_210:\n        /* \"#utility.yul\":4894:4923   */\n      tag_211\n        /* \"#utility.yul\":4916:4922   */\n      dup2\n        /* \"#utility.yul\":4894:4923   */\n      tag_127\n      jump\t// in\n    tag_211:\n        /* \"#utility.yul\":4889:4892   */\n      dup5\n        /* \"#utility.yul\":4885:4924   */\n      add\n        /* \"#utility.yul\":4878:4924   */\n      swap2\n      pop\n        /* \"#utility.yul\":4645:4930   */\n      pop\n        /* \"#utility.yul\":4553:4930   */\n      swap3\n      swap2\n      pop\n      pop\n      jump\t// out\n        /* \"#utility.yul\":4936:5116   */\n    tag_47:\n        /* \"#utility.yul\":4984:5061   */\n      0x4e487b7100000000000000000000000000000000000000000000000000000000\n        /* \"#utility.yul\":4981:4982   */\n      0x00\n        /* \"#utility.yul\":4974:5062   */\n      mstore\n        /* \"#utility.yul\":5081:5085   */\n      0x21\n        /* \"#utility.yul\":5078:5079   */\n      0x04\n        /* \"#utility.yul\":5071:5086   */\n      mstore\n        /* \"#utility.yul\":5105:5109   */\n      0x24\n        /* \"#utility.yul\":5102:5103   */\n      0x00\n        /* \"#utility.yul\":5095:5110   */\n      revert\n        /* \"#utility.yul\":5122:5241   */\n    tag_129:\n        /* \"#utility.yul\":5209:5210   */\n      0x02\n        /* \"#utility.yul\":5202:5207   */\n      dup2\n        /* \"#utility.yul\":5199:5211   */\n      lt\n        /* \"#utility.yul\":5189:5235   */\n      tag_214\n      jumpi\n        /* \"#utility.yul\":5215:5233   */\n      tag_215\n      tag_47\n      jump\t// in\n    tag_215:\n        /* \"#utility.yul\":5189:5235   */\n    tag_214:\n        /* \"#utility.yul\":5122:5241   */\n      pop\n      jump\t// out\n        /* \"#utility.yul\":5247:5386   */\n    tag_130:\n        /* \"#utility.yul\":5298:5305   */\n      0x00\n        /* \"#utility.yul\":5327:5332   */\n      dup2\n        /* \"#utility.yul\":5316:5332   */\n      swap1\n      pop\n        /* \"#utility.yul\":5333:5380   */\n      tag_217\n        /* \"#utility.yul\":5374:5379   */\n      dup3\n        /* \"#utility.yul\":5333:5380   */\n      tag_129\n      jump\t// in\n    tag_217:\n        /* \"#utility.yul\":5247:5386   */\n      swap2\n      swap1\n      pop\n      jump\t// out\n        /* \"#utility.yul\":5392:5531   */\n    tag_131:\n        /* \"#utility.yul\":5454:5463   */\n      0x00\n        /* \"#utility.yul\":5487:5525   */\n      tag_219\n        /* \"#utility.yul\":5519:5524   */\n      dup3\n        /* \"#utility.yul\":5487:5525   */\n      tag_130\n      jump\t// in\n    tag_219:\n        /* \"#utility.yul\":5474:5525   */\n      swap1\n      pop\n        /* \"#utility.yul\":5392:5531   */\n      swap2\n      swap1\n      pop\n      jump\t// out\n        /* \"#utility.yul\":5537:5692   */\n    tag_132:\n        /* \"#utility.yul\":5636:5685   */\n      tag_221\n        /* \"#utility.yul\":5679:5684   */\n      dup2\n        /* \"#utility.yul\":5636:5685   */\n      tag_131\n      jump\t// in\n    tag_221:\n        /* \"#utility.yul\":5631:5634   */\n      dup3\n        /* \"#utility.yul\":5624:5686   */\n      mstore\n        /* \"#utility.yul\":5537:5692   */\n      pop\n      pop\n      jump\t// out\n        /* \"#utility.yul\":5698:6972   */\n    tag_19:\n        /* \"#utility.yul\":6051:6055   */\n      0x00\n        /* \"#utility.yul\":6089:6092   */\n      0xe0\n        /* \"#utility.yul\":6078:6087   */\n      dup3\n        /* \"#utility.yul\":6074:6093   */\n      add\n        /* \"#utility.yul\":6066:6093   */\n      swap1\n      pop\n        /* \"#utility.yul\":6103:6174   */\n      tag_223\n        /* \"#utility.yul\":6171:6172   */\n      0x00\n        /* \"#utility.yul\":6160:6169   */\n      dup4\n        /* \"#utility.yul\":6156:6173   */\n      add\n        /* \"#utility.yul\":6147:6153   */\n      dup11\n        /* \"#utility.yul\":6103:6174   */\n      tag_122\n      jump\t// in\n    tag_223:\n        /* \"#utility.yul\":6184:6256   */\n      tag_224\n        /* \"#utility.yul\":6252:6254   */\n      0x20\n        /* \"#utility.yul\":6241:6250   */\n      dup4\n        /* \"#utility.yul\":6237:6255   */\n      add\n        /* \"#utility.yul\":6228:6234   */\n      dup10\n        /* \"#utility.yul\":6184:6256   */\n      tag_123\n      jump\t// in\n    tag_224:\n        /* \"#utility.yul\":6303:6312   */\n      dup2\n        /* \"#utility.yul\":6297:6301   */\n      dup2\n        /* \"#utility.yul\":6293:6313   */\n      sub\n        /* \"#utility.yul\":6288:6290   */\n      0x40\n        /* \"#utility.yul\":6277:6286   */\n      dup4\n        /* \"#utility.yul\":6273:6291   */\n      add\n        /* \"#utility.yul\":6266:6314   */\n      mstore\n        /* \"#utility.yul\":6331:6409   */\n      tag_225\n        /* \"#utility.yul\":6404:6408   */\n      dup2\n        /* \"#utility.yul\":6395:6401   */\n      dup9\n        /* \"#utility.yul\":6331:6409   */\n      tag_128\n      jump\t// in\n    tag_225:\n        /* \"#utility.yul\":6323:6409   */\n      swap1\n      pop\n        /* \"#utility.yul\":6456:6465   */\n      dup2\n        /* \"#utility.yul\":6450:6454   */\n      dup2\n        /* \"#utility.yul\":6446:6466   */\n      sub\n        /* \"#utility.yul\":6441:6443   */\n      0x60\n        /* \"#utility.yul\":6430:6439   */\n      dup4\n        /* \"#utility.yul\":6426:6444   */\n      add\n        /* \"#utility.yul\":6419:6467   */\n      mstore\n        /* \"#utility.yul\":6484:6562   */\n      tag_226\n        /* \"#utility.yul\":6557:6561   */\n      dup2\n        /* \"#utility.yul\":6548:6554   */\n      dup8\n        /* \"#utility.yul\":6484:6562   */\n      tag_128\n      jump\t// in\n    tag_226:\n        /* \"#utility.yul\":6476:6562   */\n      swap1\n      pop\n        /* \"#utility.yul\":6610:6619   */\n      dup2\n        /* \"#utility.yul\":6604:6608   */\n      dup2\n        /* \"#utility.yul\":6600:6620   */\n      sub\n        /* \"#utility.yul\":6594:6597   */\n      0x80\n        /* \"#utility.yul\":6583:6592   */\n      dup4\n        /* \"#utility.yul\":6579:6598   */\n      add\n        /* \"#utility.yul\":6572:6621   */\n      mstore\n        /* \"#utility.yul\":6638:6716   */\n      tag_227\n        /* \"#utility.yul\":6711:6715   */\n      dup2\n        /* \"#utility.yul\":6702:6708   */\n      dup7\n        /* \"#utility.yul\":6638:6716   */\n      tag_128\n      jump\t// in\n    tag_227:\n        /* \"#utility.yul\":6630:6716   */\n      swap1\n      pop\n        /* \"#utility.yul\":6764:6773   */\n      dup2\n        /* \"#utility.yul\":6758:6762   */\n      dup2\n        /* \"#utility.yul\":6754:6774   */\n      sub\n        /* \"#utility.yul\":6748:6751   */\n      0xa0\n        /* \"#utility.yul\":6737:6746   */\n      dup4\n        /* \"#utility.yul\":6733:6752   */\n      add\n        /* \"#utility.yul\":6726:6775   */\n      mstore\n        /* \"#utility.yul\":6792:6870   */\n      tag_228\n        /* \"#utility.yul\":6865:6869   */\n      dup2\n        /* \"#utility.yul\":6856:6862   */\n      dup6\n        /* \"#utility.yul\":6792:6870   */\n      tag_128\n      jump\t// in\n    tag_228:\n        /* \"#utility.yul\":6784:6870   */\n      swap1\n      pop\n        /* \"#utility.yul\":6880:6965   */\n      tag_229\n        /* \"#utility.yul\":6960:6963   */\n      0xc0\n        /* \"#utility.yul\":6949:6958   */\n      dup4\n        /* \"#utility.yul\":6945:6964   */\n      add\n        /* \"#utility.yul\":6936:6942   */\n      dup5\n        /* \"#utility.yul\":6880:6965   */\n      tag_132\n      jump\t// in\n    tag_229:\n        /* \"#utility.yul\":5698:6972   */\n      swap9\n      swap8\n      pop\n      pop\n      pop\n      pop\n      pop\n      pop\n      pop\n      pop\n      jump\t// out\n        /* \"#utility.yul\":6978:7068   */\n    tag_133:\n        /* \"#utility.yul\":7012:7019   */\n      0x00\n        /* \"#utility.yul\":7055:7060   */\n      dup2\n        /* \"#utility.yul\":7048:7061   */\n      iszero\n        /* \"#utility.yul\":7041:7062   */\n      iszero\n        /* \"#utility.yul\":7030:7062   */\n      swap1\n      pop\n        /* \"#utility.yul\":6978:7068   */\n      swap2\n      swap1\n      pop\n      jump\t// out\n        /* \"#utility.yul\":7074:7183   */\n    tag_134:\n        /* \"#utility.yul\":7155:7176   */\n      tag_232\n        /* \"#utility.yul\":7170:7175   */\n      dup2\n        /* \"#utility.yul\":7155:7176   */\n      tag_133\n      jump\t// in\n    tag_232:\n        /* \"#utility.yul\":7150:7153   */\n      dup3\n        /* \"#utility.yul\":7143:7177   */\n      mstore\n        /* \"#utility.yul\":7074:7183   */\n      pop\n      pop\n      jump\t// out\n        /* \"#utility.yul\":7189:8562   */\n    tag_24:\n        /* \"#utility.yul\":7564:7568   */\n      0x00\n        /* \"#utility.yul\":7602:7605   */\n      0x0100\n        /* \"#utility.yul\":7591:7600   */\n      dup3\n        /* \"#utility.yul\":7587:7606   */\n      add\n        /* \"#utility.yul\":7579:7606   */\n      swap1\n      pop\n        /* \"#utility.yul\":7616:7687   */\n      tag_234\n        /* \"#utility.yul\":7684:7685   */\n      0x00\n        /* \"#utility.yul\":7673:7682   */\n      dup4\n        /* \"#utility.yul\":7669:7686   */\n      add\n        /* \"#utility.yul\":7660:7666   */\n      dup12\n        /* \"#utility.yul\":7616:7687   */\n      tag_122\n      jump\t// in\n    tag_234:\n        /* \"#utility.yul\":7734:7743   */\n      dup2\n        /* \"#utility.yul\":7728:7732   */\n      dup2\n        /* \"#utility.yul\":7724:7744   */\n      sub\n        /* \"#utility.yul\":7719:7721   */\n      0x20\n        /* \"#utility.yul\":7708:7717   */\n      dup4\n        /* \"#utility.yul\":7704:7722   */\n      add\n        /* \"#utility.yul\":7697:7745   */\n      mstore\n        /* \"#utility.yul\":7762:7840   */\n      tag_235\n        /* \"#utility.yul\":7835:7839   */\n      dup2\n        /* \"#utility.yul\":7826:7832   */\n      dup11\n        /* \"#utility.yul\":7762:7840   */\n      tag_128\n      jump\t// in\n    tag_235:\n        /* \"#utility.yul\":7754:7840   */\n      swap1\n      pop\n        /* \"#utility.yul\":7887:7896   */\n      dup2\n        /* \"#utility.yul\":7881:7885   */\n      dup2\n        /* \"#utility.yul\":7877:7897   */\n      sub\n        /* \"#utility.yul\":7872:7874   */\n      0x40\n        /* \"#utility.yul\":7861:7870   */\n      dup4\n        /* \"#utility.yul\":7857:7875   */\n      add\n        /* \"#utility.yul\":7850:7898   */\n      mstore\n        /* \"#utility.yul\":7915:7993   */\n      tag_236\n        /* \"#utility.yul\":7988:7992   */\n      dup2\n        /* \"#utility.yul\":7979:7985   */\n      dup10\n        /* \"#utility.yul\":7915:7993   */\n      tag_128\n      jump\t// in\n    tag_236:\n        /* \"#utility.yul\":7907:7993   */\n      swap1\n      pop\n        /* \"#utility.yul\":8040:8049   */\n      dup2\n        /* \"#utility.yul\":8034:8038   */\n      dup2\n        /* \"#utility.yul\":8030:8050   */\n      sub\n        /* \"#utility.yul\":8025:8027   */\n      0x60\n        /* \"#utility.yul\":8014:8023   */\n      dup4\n        /* \"#utility.yul\":8010:8028   */\n      add\n        /* \"#utility.yul\":8003:8051   */\n      mstore\n        /* \"#utility.yul\":8068:8146   */\n      tag_237\n        /* \"#utility.yul\":8141:8145   */\n      dup2\n        /* \"#utility.yul\":8132:8138   */\n      dup9\n        /* \"#utility.yul\":8068:8146   */\n      tag_128\n      jump\t// in\n    tag_237:\n        /* \"#utility.yul\":8060:8146   */\n      swap1\n      pop\n        /* \"#utility.yul\":8194:8203   */\n      dup2\n        /* \"#utility.yul\":8188:8192   */\n      dup2\n        /* \"#utility.yul\":8184:8204   */\n      sub\n        /* \"#utility.yul\":8178:8181   */\n      0x80\n        /* \"#utility.yul\":8167:8176   */\n      dup4\n        /* \"#utility.yul\":8163:8182   */\n      add\n        /* \"#utility.yul\":8156:8205   */\n      mstore\n        /* \"#utility.yul\":8222:8300   */\n      tag_238\n        /* \"#utility.yul\":8295:8299   */\n      dup2\n        /* \"#utility.yul\":8286:8292   */\n      dup8\n        /* \"#utility.yul\":8222:8300   */\n      tag_128\n      jump\t// in\n    tag_238:\n        /* \"#utility.yul\":8214:8300   */\n      swap1\n      pop\n        /* \"#utility.yul\":8310:8383   */\n      tag_239\n        /* \"#utility.yul\":8378:8381   */\n      0xa0\n        /* \"#utility.yul\":8367:8376   */\n      dup4\n        /* \"#utility.yul\":8363:8382   */\n      add\n        /* \"#utility.yul\":8354:8360   */\n      dup7\n        /* \"#utility.yul\":8310:8383   */\n      tag_123\n      jump\t// in\n    tag_239:\n        /* \"#utility.yul\":8393:8460   */\n      tag_240\n        /* \"#utility.yul\":8455:8458   */\n      0xc0\n        /* \"#utility.yul\":8444:8453   */\n      dup4\n        /* \"#utility.yul\":8440:8459   */\n      add\n        /* \"#utility.yul\":8431:8437   */\n      dup6\n        /* \"#utility.yul\":8393:8460   */\n      tag_134\n      jump\t// in\n    tag_240:\n        /* \"#utility.yul\":8470:8555   */\n      tag_241\n        /* \"#utility.yul\":8550:8553   */\n      0xe0\n        /* \"#utility.yul\":8539:8548   */\n      dup4\n        /* \"#utility.yul\":8535:8554   */\n      add\n        /* \"#utility.yul\":8526:8532   */\n      dup5\n        /* \"#utility.yul\":8470:8555   */\n      tag_132\n      jump\t// in\n    tag_241:\n        /* \"#utility.yul\":7189:8562   */\n      swap10\n      swap9\n      pop\n      pop\n      pop\n      pop\n      pop\n      pop\n      pop\n      pop\n      pop\n      jump\t// out\n        /* \"#utility.yul\":8568:8716   */\n    tag_135:\n        /* \"#utility.yul\":8670:8681   */\n      0x00\n        /* \"#utility.yul\":8707:8710   */\n      dup2\n        /* \"#utility.yul\":8692:8710   */\n      swap1\n      pop\n        /* \"#utility.yul\":8568:8716   */\n      swap3\n      swap2\n      pop\n      pop\n      jump\t// out\n        /* \"#utility.yul\":8722:8870   */\n    tag_136:\n        /* \"#utility.yul\":8820:8826   */\n      dup3\n        /* \"#utility.yul\":8815:8818   */\n      dup2\n        /* \"#utility.yul\":8810:8813   */\n      dup4\n        /* \"#utility.yul\":8797:8827   */\n      calldatacopy\n        /* \"#utility.yul\":8861:8862   */\n      0x00\n        /* \"#utility.yul\":8852:8858   */\n      dup4\n        /* \"#utility.yul\":8847:8850   */\n      dup4\n        /* \"#utility.yul\":8843:8859   */\n      add\n        /* \"#utility.yul\":8836:8863   */\n      mstore\n        /* \"#utility.yul\":8722:8870   */\n      pop\n      pop\n      pop\n      jump\t// out\n        /* \"#utility.yul\":8900:9230   */\n    tag_137:\n        /* \"#utility.yul\":9016:9019   */\n      0x00\n        /* \"#utility.yul\":9037:9126   */\n      tag_245\n        /* \"#utility.yul\":9119:9125   */\n      dup4\n        /* \"#utility.yul\":9114:9117   */\n      dup6\n        /* \"#utility.yul\":9037:9126   */\n      tag_135\n      jump\t// in\n    tag_245:\n        /* \"#utility.yul\":9030:9126   */\n      swap4\n      pop\n        /* \"#utility.yul\":9136:9192   */\n      tag_246\n        /* \"#utility.yul\":9185:9191   */\n      dup4\n        /* \"#utility.yul\":9180:9183   */\n      dup6\n        /* \"#utility.yul\":9173:9178   */\n      dup5\n        /* \"#utility.yul\":9136:9192   */\n      tag_136\n      jump\t// in\n    tag_246:\n        /* \"#utility.yul\":9217:9223   */\n      dup3\n        /* \"#utility.yul\":9212:9215   */\n      dup5\n        /* \"#utility.yul\":9208:9224   */\n      add\n        /* \"#utility.yul\":9201:9224   */\n      swap1\n      pop\n        /* \"#utility.yul\":8900:9230   */\n      swap4\n      swap3\n      pop\n      pop\n      pop\n      jump\t// out\n        /* \"#utility.yul\":9236:9531   */\n    tag_27:\n        /* \"#utility.yul\":9378:9381   */\n      0x00\n        /* \"#utility.yul\":9400:9505   */\n      tag_248\n        /* \"#utility.yul\":9501:9504   */\n      dup3\n        /* \"#utility.yul\":9492:9498   */\n      dup5\n        /* \"#utility.yul\":9484:9490   */\n      dup7\n        /* \"#utility.yul\":9400:9505   */\n      tag_137\n      jump\t// in\n    tag_248:\n        /* \"#utility.yul\":9393:9505   */\n      swap2\n      pop\n        /* \"#utility.yul\":9522:9525   */\n      dup2\n        /* \"#utility.yul\":9515:9525   */\n      swap1\n      pop\n        /* \"#utility.yul\":9236:9531   */\n      swap4\n      swap3\n      pop\n      pop\n      pop\n      jump\t// out\n        /* \"#utility.yul\":9537:9850   */\n    tag_32:\n        /* \"#utility.yul\":9650:9654   */\n      0x00\n        /* \"#utility.yul\":9688:9690   */\n      0x20\n        /* \"#utility.yul\":9677:9686   */\n      dup3\n        /* \"#utility.yul\":9673:9691   */\n      add\n        /* \"#utility.yul\":9665:9691   */\n      swap1\n      pop\n        /* \"#utility.yul\":9737:9746   */\n      dup2\n        /* \"#utility.yul\":9731:9735   */\n      dup2\n        /* \"#utility.yul\":9727:9747   */\n      sub\n        /* \"#utility.yul\":9723:9724   */\n      0x00\n        /* \"#utility.yul\":9712:9721   */\n      dup4\n        /* \"#utility.yul\":9708:9725   */\n      add\n        /* \"#utility.yul\":9701:9748   */\n      mstore\n        /* \"#utility.yul\":9765:9843   */\n      tag_250\n        /* \"#utility.yul\":9838:9842   */\n      dup2\n        /* \"#utility.yul\":9829:9835   */\n      dup5\n        /* \"#utility.yul\":9765:9843   */\n      tag_128\n      jump\t// in\n    tag_250:\n        /* \"#utility.yul\":9757:9843   */\n      swap1\n      pop\n        /* \"#utility.yul\":9537:9850   */\n      swap3\n      swap2\n      pop\n      pop\n      jump\t// out\n        /* \"#utility.yul\":9856:10036   */\n    tag_138:\n        /* \"#utility.yul\":9904:9981   */\n      0x4e487b7100000000000000000000000000000000000000000000000000000000\n        /* \"#utility.yul\":9901:9902   */\n      0x00\n        /* \"#utility.yul\":9894:9982   */\n      mstore\n        /* \"#utility.yul\":10001:10005   */\n      0x11\n        /* \"#utility.yul\":9998:9999   */\n      0x04\n        /* \"#utility.yul\":9991:10006   */\n      mstore\n        /* \"#utility.yul\":10025:10029   */\n      0x24\n        /* \"#utility.yul\":10022:10023   */\n      0x00\n        /* \"#utility.yul\":10015:10030   */\n      revert\n        /* \"#utility.yul\":10042:10275   */\n    tag_38:\n        /* \"#utility.yul\":10081:10084   */\n      0x00\n        /* \"#utility.yul\":10104:10128   */\n      tag_253\n        /* \"#utility.yul\":10122:10127   */\n      dup3\n        /* \"#utility.yul\":10104:10128   */\n      tag_121\n      jump\t// in\n    tag_253:\n        /* \"#utility.yul\":10095:10128   */\n      swap2\n      pop\n        /* \"#utility.yul\":10150:10216   */\n      0xffffffffffffffffffffffffffffffffffffffffffffffffffffffffffffffff\n        /* \"#utility.yul\":10143:10148   */\n      dup3\n        /* \"#utility.yul\":10140:10217   */\n      sub\n        /* \"#utility.yul\":10137:10240   */\n      tag_254\n      jumpi\n        /* \"#utility.yul\":10220:10238   */\n      tag_255\n      tag_138\n      jump\t// in\n    tag_255:\n        /* \"#utility.yul\":10137:10240   */\n    tag_254:\n        /* \"#utility.yul\":10267:10268   */\n      0x01\n        /* \"#utility.yul\":10260:10265   */\n      dup3\n        /* \"#utility.yul\":10256:10269   */\n      add\n        /* \"#utility.yul\":10249:10269   */\n      swap1\n      pop\n        /* \"#utility.yul\":10042:10275   */\n      swap2\n      swap1\n      pop\n      jump\t// out\n        /* \"#utility.yul\":10281:10378   */\n    tag_139:\n        /* \"#utility.yul\":10340:10346   */\n      0x00\n        /* \"#utility.yul\":10368:10371   */\n      dup3\n        /* \"#utility.yul\":10358:10371   */\n      swap1\n      pop\n        /* \"#utility.yul\":10281:10378   */\n      swap3\n      swap2\n      pop\n      pop\n      jump\t// out\n        /* \"#utility.yul\":10384:10564   */\n    tag_140:\n        /* \"#utility.yul\":10432:10509   */\n      0x4e487b7100000000000000000000000000000000000000000000000000000000\n        /* \"#utility.yul\":10429:10430   */\n      0x00\n        /* \"#utility.yul\":10422:10510   */\n      mstore\n        /* \"#utility.yul\":10529:10533   */\n      0x41\n        /* \"#utility.yul\":10526:10527   */\n      0x04\n        /* \"#utility.yul\":10519:10534   */\n      mstore\n        /* \"#utility.yul\":10553:10557   */\n      0x24\n        /* \"#utility.yul\":10550:10551   */\n      0x00\n        /* \"#utility.yul\":10543:10558   */\n      revert\n        /* \"#utility.yul\":10570:10750   */\n    tag_141:\n        /* \"#utility.yul\":10618:10695   */\n      0x4e487b7100000000000000000000000000000000000000000000000000000000\n        /* \"#utility.yul\":10615:10616   */\n      0x00\n        /* \"#utility.yul\":10608:10696   */\n      mstore\n        /* \"#utility.yul\":10715:10719   */\n      0x22\n        /* \"#utility.yul\":10712:10713   */\n      0x04\n        /* \"#utility.yul\":10705:10720   */\n      mstore\n        /* \"#utility.yul\":10739:10743   */\n      0x24\n        /* \"#utility.yul\":10736:10737   */\n      0x00\n        /* \"#utility.yul\":10729:10744   */\n      revert\n        /* \"#utility.yul\":10756:11076   */\n    tag_70:\n        /* \"#utility.yul\":10800:10806   */\n      0x00\n        /* \"#utility.yul\":10837:10838   */\n      0x02\n        /* \"#utility.yul\":10831:10835   */\n      dup3\n        /* \"#utility.yul\":10827:10839   */\n      div\n        /* \"#utility.yul\":10817:10839   */\n      swap1\n      pop\n        /* \"#utility.yul\":10884:10885   */\n      0x01\n        /* \"#utility.yul\":10878:10882   */\n      dup3\n        /* \"#utility.yul\":10874:10886   */\n      and\n        /* \"#utility.yul\":10905:10923   */\n      dup1\n        /* \"#utility.yul\":10895:10976   */\n      tag_260\n      jumpi\n        /* \"#utility.yul\":10961:10965   */\n      0x7f\n        /* \"#utility.yul\":10953:10959   */\n      dup3\n        /* \"#utility.yul\":10949:10966   */\n      and\n        /* \"#utility.yul\":10939:10966   */\n      swap2\n      pop\n        /* \"#utility.yul\":10895:10976   */\n    tag_260:\n        /* \"#utility.yul\":11023:11025   */\n      0x20\n        /* \"#utility.yul\":11015:11021   */\n      dup3\n        /* \"#utility.yul\":11012:11026   */\n      lt\n        /* \"#utility.yul\":10992:11010   */\n      dup2\n        /* \"#utility.yul\":10989:11027   */\n      sub\n        /* \"#utility.yul\":10986:11070   */\n      tag_261\n      jumpi\n        /* \"#utility.yul\":11042:11060   */\n      tag_262\n      tag_141\n      jump\t// in\n    tag_262:\n        /* \"#utility.yul\":10986:11070   */\n    tag_261:\n        /* \"#utility.yul\":10807:11076   */\n      pop\n        /* \"#utility.yul\":10756:11076   */\n      swap2\n      swap1\n      pop\n      jump\t// out\n        /* \"#utility.yul\":11082:11223   */\n    tag_142:\n        /* \"#utility.yul\":11131:11135   */\n      0x00\n        /* \"#utility.yul\":11154:11157   */\n      dup2\n        /* \"#utility.yul\":11146:11157   */\n      swap1\n      pop\n        /* \"#utility.yul\":11177:11180   */\n      dup2\n        /* \"#utility.yul\":11174:11175   */\n      0x00\n        /* \"#utility.yul\":11167:11181   */\n      mstore\n        /* \"#utility.yul\":11211:11215   */\n      0x20\n        /* \"#utility.yul\":11208:11209   */\n      0x00\n        /* \"#utility.yul\":11198:11216   */\n      keccak256\n        /* \"#utility.yul\":11190:11216   */\n      swap1\n      pop\n        /* \"#utility.yul\":11082:11223   */\n      swap2\n      swap1\n      pop\n      jump\t// out\n        /* \"#utility.yul\":11229:11322   */\n    tag_143:\n        /* \"#utility.yul\":11266:11272   */\n      0x00\n        /* \"#utility.yul\":11313:11315   */\n      0x20\n        /* \"#utility.yul\":11308:11310   */\n      0x1f\n        /* \"#utility.yul\":11301:11306   */\n      dup4\n        /* \"#utility.yul\":11297:11311   */\n      add\n        /* \"#utility.yul\":11293:11316   */\n      div\n        /* \"#utility.yul\":11283:11316   */\n      swap1\n      pop\n        /* \"#utility.yul\":11229:11322   */\n      swap2\n      swap1\n      pop\n      jump\t// out\n        /* \"#utility.yul\":11328:11435   */\n    tag_144:\n        /* \"#utility.yul\":11372:11380   */\n      0x00\n        /* \"#utility.yul\":11422:11427   */\n      dup3\n        /* \"#utility.yul\":11416:11420   */\n      dup3\n        /* \"#utility.yul\":11412:11428   */\n      shl\n        /* \"#utility.yul\":11391:11428   */\n      swap1\n      pop\n        /* \"#utility.yul\":11328:11435   */\n      swap3\n      swap2\n      pop\n      pop\n      jump\t// out\n        /* \"#utility.yul\":11441:11834   */\n    tag_145:\n        /* \"#utility.yul\":11510:11516   */\n      0x00\n        /* \"#utility.yul\":11560:11561   */\n      0x08\n        /* \"#utility.yul\":11548:11558   */\n      dup4\n        /* \"#utility.yul\":11544:11562   */\n      mul\n        /* \"#utility.yul\":11583:11680   */\n      tag_267\n        /* \"#utility.yul\":11613:11679   */\n      0xffffffffffffffffffffffffffffffffffffffffffffffffffffffffffffffff\n        /* \"#utility.yul\":11602:11611   */\n      dup3\n        /* \"#utility.yul\":11583:11680   */\n      tag_144\n      jump\t// in\n    tag_267:\n        /* \"#utility.yul\":11701:11740   */\n      tag_268\n        /* \"#utility.yul\":11731:11739   */\n      dup7\n        /* \"#utility.yul\":11720:11729   */\n      dup4\n        /* \"#utility.yul\":11701:11740   */\n      tag_144\n      jump\t// in\n    tag_268:\n        /* \"#utility.yul\":11689:11740   */\n      swap6\n      pop\n        /* \"#utility.yul\":11773:11777   */\n      dup1\n        /* \"#utility.yul\":11769:11778   */\n      not\n        /* \"#utility.yul\":11762:11767   */\n      dup5\n        /* \"#utility.yul\":11758:11779   */\n      and\n        /* \"#utility.yul\":11749:11779   */\n      swap4\n      pop\n        /* \"#utility.yul\":11822:11826   */\n      dup1\n        /* \"#utility.yul\":11812:11820   */\n      dup7\n        /* \"#utility.yul\":11808:11827   */\n      and\n        /* \"#utility.yul\":11801:11806   */\n      dup5\n        /* \"#utility.yul\":11798:11828   */\n      or\n        /* \"#utility.yul\":11788:11828   */\n      swap3\n      pop\n        /* \"#utility.yul\":11517:11834   */\n      pop\n      pop\n        /* \"#utility.yul\":11441:11834   */\n      swap4\n      swap3\n      pop\n      pop\n      pop\n      jump\t// out\n        /* \"#utility.yul\":11840:11900   */\n    tag_146:\n        /* \"#utility.yul\":11868:11871   */\n      0x00\n        /* \"#utility.yul\":11889:11894   */\n      dup2\n        /* \"#utility.yul\":11882:11894   */\n      swap1\n      pop\n        /* \"#utility.yul\":11840:11900   */\n      swap2\n      swap1\n      pop\n      jump\t// out\n        /* \"#utility.yul\":11906:12048   */\n    tag_147:\n        /* \"#utility.yul\":11956:11965   */\n      0x00\n        /* \"#utility.yul\":11989:12042   */\n      tag_271\n        /* \"#utility.yul\":12007:12041   */\n      tag_272\n        /* \"#utility.yul\":12016:12040   */\n      tag_273\n        /* \"#utility.yul\":12034:12039   */\n      dup5\n        /* \"#utility.yul\":12016:12040   */\n      tag_121\n      jump\t// in\n    tag_273:\n        /* \"#utility.yul\":12007:12041   */\n      tag_146\n      jump\t// in\n    tag_272:\n        /* \"#utility.yul\":11989:12042   */\n      tag_121\n      jump\t// in\n    tag_271:\n        /* \"#utility.yul\":11976:12042   */\n      swap1\n      pop\n        /* \"#utility.yul\":11906:12048   */\n      swap2\n      swap1\n      pop\n      jump\t// out\n        /* \"#utility.yul\":12054:12129   */\n    tag_148:\n        /* \"#utility.yul\":12097:12100   */\n      0x00\n        /* \"#utility.yul\":12118:12123   */\n      dup2\n        /* \"#utility.yul\":12111:12123   */\n      swap1\n      pop\n        /* \"#utility.yul\":12054:12129   */\n      swap2\n      swap1\n      pop\n      jump\t// out\n        /* \"#utility.yul\":12135:12404   */\n    tag_149:\n        /* \"#utility.yul\":12245:12284   */\n      tag_276\n        /* \"#utility.yul\":12276:12283   */\n      dup4\n        /* \"#utility.yul\":12245:12284   */\n      tag_147\n      jump\t// in\n    tag_276:\n        /* \"#utility.yul\":12306:12397   */\n      tag_277\n        /* \"#utility.yul\":12355:12396   */\n      tag_278\n        /* \"#utility.yul\":12379:12395   */\n      dup3\n        /* \"#utility.yul\":12355:12396   */\n      tag_148\n      jump\t// in\n    tag_278:\n        /* \"#utility.yul\":12347:12353   */\n      dup5\n        /* \"#utility.yul\":12340:12344   */\n      dup5\n        /* \"#utility.yul\":12334:12345   */\n      sload\n        /* \"#utility.yul\":12306:12397   */\n      tag_145\n      jump\t// in\n    tag_277:\n        /* \"#utility.yul\":12300:12304   */\n      dup3\n        /* \"#utility.yul\":12293:12398   */\n      sstore\n        /* \"#utility.yul\":12211:12404   */\n      pop\n        /* \"#utility.yul\":12135:12404   */\n      pop\n      pop\n      pop\n      jump\t// out\n        /* \"#utility.yul\":12410:12483   */\n    tag_150:\n        /* \"#utility.yul\":12455:12458   */\n      0x00\n        /* \"#utility.yul\":12476:12477   */\n      0x00\n        /* \"#utility.yul\":12469:12477   */\n      swap1\n      pop\n        /* \"#utility.yul\":12410:12483   */\n      swap1\n      jump\t// out\n        /* \"#utility.yul\":12489:12678   */\n    tag_151:\n        /* \"#utility.yul\":12566:12598   */\n      tag_281\n      tag_150\n      jump\t// in\n    tag_281:\n        /* \"#utility.yul\":12607:12672   */\n      tag_282\n        /* \"#utility.yul\":12665:12671   */\n      dup2\n        /* \"#utility.yul\":12657:12663   */\n      dup5\n        /* \"#utility.yul\":12651:12655   */\n      dup5\n        /* \"#utility.yul\":12607:12672   */\n      tag_149\n      jump\t// in\n    tag_282:\n        /* \"#utility.yul\":12542:12678   */\n      pop\n        /* \"#utility.yul\":12489:12678   */\n      pop\n      pop\n      jump\t// out\n        /* \"#utility.yul\":12684:12870   */\n    tag_152:\n        /* \"#utility.yul\":12744:12864   */\n    tag_284:\n        /* \"#utility.yul\":12761:12764   */\n      dup2\n        /* \"#utility.yul\":12754:12759   */\n      dup2\n        /* \"#utility.yul\":12751:12765   */\n      lt\n        /* \"#utility.yul\":12744:12864   */\n      iszero\n      tag_286\n      jumpi\n        /* \"#utility.yul\":12815:12854   */\n      tag_287\n        /* \"#utility.yul\":12852:12853   */\n      0x00\n        /* \"#utility.yul\":12845:12850   */\n      dup3\n        /* \"#utility.yul\":12815:12854   */\n      tag_151\n      jump\t// in\n    tag_287:\n        /* \"#utility.yul\":12788:12789   */\n      0x01\n        /* \"#utility.yul\":12781:12786   */\n      dup2\n        /* \"#utility.yul\":12777:12790   */\n      add\n        /* \"#utility.yul\":12768:12790   */\n      swap1\n      pop\n        /* \"#utility.yul\":12744:12864   */\n      jump(tag_284)\n    tag_286:\n        /* \"#utility.yul\":12684:12870   */\n      pop\n      pop\n      jump\t// out\n        /* \"#utility.yul\":12876:13419   */\n    tag_153:\n        /* \"#utility.yul\":12977:12979   */\n      0x1f\n        /* \"#utility.yul\":12972:12975   */\n      dup3\n        /* \"#utility.yul\":12969:12980   */\n      gt\n        /* \"#utility.yul\":12966:13412   */\n      iszero\n      tag_289\n      jumpi\n        /* \"#utility.yul\":13011:13049   */\n      tag_290\n        /* \"#utility.yul\":13043:13048   */\n      dup2\n        /* \"#utility.yul\":13011:13049   */\n      tag_142\n      jump\t// in\n    tag_290:\n        /* \"#utility.yul\":13095:13124   */\n      tag_291\n        /* \"#utility.yul\":13113:13123   */\n      dup5\n        /* \"#utility.yul\":13095:13124   */\n      tag_143\n      jump\t// in\n    tag_291:\n        /* \"#utility.yul\":13085:13093   */\n      dup2\n        /* \"#utility.yul\":13081:13125   */\n      add\n        /* \"#utility.yul\":13278:13280   */\n      0x20\n        /* \"#utility.yul\":13266:13276   */\n      dup6\n        /* \"#utility.yul\":13263:13281   */\n      lt\n        /* \"#utility.yul\":13260:13309   */\n      iszero\n      tag_292\n      jumpi\n        /* \"#utility.yul\":13299:13307   */\n      dup2\n        /* \"#utility.yul\":13284:13307   */\n      swap1\n      pop\n        /* \"#utility.yul\":13260:13309   */\n    tag_292:\n        /* \"#utility.yul\":13322:13402   */\n      tag_293\n        /* \"#utility.yul\":13378:13400   */\n      tag_294\n        /* \"#utility.yul\":13396:13399   */\n      dup6\n        /* \"#utility.yul\":13378:13400   */\n      tag_143\n      jump\t// in\n    tag_294:\n        /* \"#utility.yul\":13368:13376   */\n      dup4\n        /* \"#utility.yul\":13364:13401   */\n      add\n        /* \"#utility.yul\":13351:13362   */\n      dup3\n        /* \"#utility.yul\":13322:13402   */\n      tag_152\n      jump\t// in\n    tag_293:\n        /* \"#utility.yul\":12981:13412   */\n      pop\n      pop\n        /* \"#utility.yul\":12966:13412   */\n    tag_289:\n        /* \"#utility.yul\":12876:13419   */\n      pop\n      pop\n      pop\n      jump\t// out\n        /* \"#utility.yul\":13425:13542   */\n    tag_154:\n        /* \"#utility.yul\":13479:13487   */\n      0x00\n        /* \"#utility.yul\":13529:13534   */\n      dup3\n        /* \"#utility.yul\":13523:13527   */\n      dup3\n        /* \"#utility.yul\":13519:13535   */\n      shr\n        /* \"#utility.yul\":13498:13535   */\n      swap1\n      pop\n        /* \"#utility.yul\":13425:13542   */\n      swap3\n      swap2\n      pop\n      pop\n      jump\t// out\n        /* \"#utility.yul\":13548:13717   */\n    tag_155:\n        /* \"#utility.yul\":13592:13598   */\n      0x00\n        /* \"#utility.yul\":13625:13676   */\n      tag_297\n        /* \"#utility.yul\":13673:13674   */\n      0x00\n        /* \"#utility.yul\":13669:13675   */\n      not\n        /* \"#utility.yul\":13661:13666   */\n      dup5\n        /* \"#utility.yul\":13658:13659   */\n      0x08\n        /* \"#utility.yul\":13654:13667   */\n      mul\n        /* \"#utility.yul\":13625:13676   */\n      tag_154\n      jump\t// in\n    tag_297:\n        /* \"#utility.yul\":13621:13677   */\n      not\n        /* \"#utility.yul\":13706:13710   */\n      dup1\n        /* \"#utility.yul\":13700:13704   */\n      dup4\n        /* \"#utility.yul\":13696:13711   */\n      and\n        /* \"#utility.yul\":13686:13711   */\n      swap2\n      pop\n        /* \"#utility.yul\":13599:13717   */\n      pop\n        /* \"#utility.yul\":13548:13717   */\n      swap3\n      swap2\n      pop\n      pop\n      jump\t// out\n        /* \"#utility.yul\":13722:14017   */\n    tag_156:\n        /* \"#utility.yul\":13798:13802   */\n      0x00\n        /* \"#utility.yul\":13944:13973   */\n      tag_299\n        /* \"#utility.yul\":13969:13972   */\n      dup4\n        /* \"#utility.yul\":13963:13967   */\n      dup4\n        /* \"#utility.yul\":13944:13973   */\n      tag_155\n      jump\t// in\n    tag_299:\n        /* \"#utility.yul\":13936:13973   */\n      swap2\n      pop\n        /* \"#utility.yul\":14006:14009   */\n      dup3\n        /* \"#utility.yul\":14003:14004   */\n      0x02\n        /* \"#utility.yul\":13999:14010   */\n      mul\n        /* \"#utility.yul\":13993:13997   */\n      dup3\n        /* \"#utility.yul\":13990:14011   */\n      or\n        /* \"#utility.yul\":13982:14011   */\n      swap1\n      pop\n        /* \"#utility.yul\":13722:14017   */\n      swap3\n      swap2\n      pop\n      pop\n      jump\t// out\n        /* \"#utility.yul\":14022:15425   */\n    tag_40:\n        /* \"#utility.yul\":14146:14190   */\n      tag_301\n        /* \"#utility.yul\":14186:14189   */\n      dup4\n        /* \"#utility.yul\":14181:14184   */\n      dup4\n        /* \"#utility.yul\":14146:14190   */\n      tag_139\n      jump\t// in\n    tag_301:\n        /* \"#utility.yul\":14255:14273   */\n      0xffffffffffffffff\n        /* \"#utility.yul\":14247:14253   */\n      dup2\n        /* \"#utility.yul\":14244:14274   */\n      gt\n        /* \"#utility.yul\":14241:14297   */\n      iszero\n      tag_302\n      jumpi\n        /* \"#utility.yul\":14277:14295   */\n      tag_303\n      tag_140\n      jump\t// in\n    tag_303:\n        /* \"#utility.yul\":14241:14297   */\n    tag_302:\n        /* \"#utility.yul\":14321:14359   */\n      tag_304\n        /* \"#utility.yul\":14353:14357   */\n      dup3\n        /* \"#utility.yul\":14347:14358   */\n      sload\n        /* \"#utility.yul\":14321:14359   */\n      tag_70\n      jump\t// in\n    tag_304:\n        /* \"#utility.yul\":14406:14473   */\n      tag_305\n        /* \"#utility.yul\":14466:14472   */\n      dup3\n        /* \"#utility.yul\":14458:14464   */\n      dup3\n        /* \"#utility.yul\":14452:14456   */\n      dup6\n        /* \"#utility.yul\":14406:14473   */\n      tag_153\n      jump\t// in\n    tag_305:\n        /* \"#utility.yul\":14500:14501   */\n      0x00\n        /* \"#utility.yul\":14529:14531   */\n      0x1f\n        /* \"#utility.yul\":14521:14527   */\n      dup4\n        /* \"#utility.yul\":14518:14532   */\n      gt\n        /* \"#utility.yul\":14546:14547   */\n      0x01\n        /* \"#utility.yul\":14541:15173   */\n      dup2\n      eq\n      tag_307\n      jumpi\n        /* \"#utility.yul\":15217:15218   */\n      0x00\n        /* \"#utility.yul\":15234:15240   */\n      dup5\n        /* \"#utility.yul\":15231:15315   */\n      iszero\n      tag_308\n      jumpi\n        /* \"#utility.yul\":15290:15299   */\n      dup3\n        /* \"#utility.yul\":15285:15288   */\n      dup8\n        /* \"#utility.yul\":15281:15300   */\n      add\n        /* \"#utility.yul\":15268:15301   */\n      calldataload\n        /* \"#utility.yul\":15259:15301   */\n      swap1\n      pop\n        /* \"#utility.yul\":15231:15315   */\n    tag_308:\n        /* \"#utility.yul\":15341:15408   */\n      tag_309\n        /* \"#utility.yul\":15401:15407   */\n      dup6\n        /* \"#utility.yul\":15394:15399   */\n      dup3\n        /* \"#utility.yul\":15341:15408   */\n      tag_156\n      jump\t// in\n    tag_309:\n        /* \"#utility.yul\":15335:15339   */\n      dup7\n        /* \"#utility.yul\":15328:15409   */\n      sstore\n        /* \"#utility.yul\":15190:15419   */\n      pop\n        /* \"#utility.yul\":14511:15419   */\n      jump(tag_306)\n        /* \"#utility.yul\":14541:15173   */\n    tag_307:\n        /* \"#utility.yul\":14593:14597   */\n      0x1f\n        /* \"#utility.yul\":14589:14598   */\n      not\n        /* \"#utility.yul\":14581:14587   */\n      dup5\n        /* \"#utility.yul\":14577:14599   */\n      and\n        /* \"#utility.yul\":14627:14664   */\n      tag_310\n        /* \"#utility.yul\":14659:14663   */\n      dup7\n        /* \"#utility.yul\":14627:14664   */\n      tag_142\n      jump\t// in\n    tag_310:\n        /* \"#utility.yul\":14686:14687   */\n      0x00\n        /* \"#utility.yul\":14700:14915   */\n    tag_311:\n        /* \"#utility.yul\":14714:14721   */\n      dup3\n        /* \"#utility.yul\":14711:14712   */\n      dup2\n        /* \"#utility.yul\":14708:14722   */\n      lt\n        /* \"#utility.yul\":14700:14915   */\n      iszero\n      tag_313\n      jumpi\n        /* \"#utility.yul\":14800:14809   */\n      dup5\n        /* \"#utility.yul\":14795:14798   */\n      dup10\n        /* \"#utility.yul\":14791:14810   */\n      add\n        /* \"#utility.yul\":14778:14811   */\n      calldataload\n        /* \"#utility.yul\":14770:14776   */\n      dup3\n        /* \"#utility.yul\":14763:14812   */\n      sstore\n        /* \"#utility.yul\":14851:14852   */\n      0x01\n        /* \"#utility.yul\":14843:14849   */\n      dup3\n        /* \"#utility.yul\":14839:14853   */\n      add\n        /* \"#utility.yul\":14829:14853   */\n      swap2\n      pop\n        /* \"#utility.yul\":14898:14900   */\n      0x20\n        /* \"#utility.yul\":14887:14896   */\n      dup6\n        /* \"#utility.yul\":14883:14901   */\n      add\n        /* \"#utility.yul\":14870:14901   */\n      swap5\n      pop\n        /* \"#utility.yul\":14737:14741   */\n      0x20\n        /* \"#utility.yul\":14734:14735   */\n      dup2\n        /* \"#utility.yul\":14730:14742   */\n      add\n        /* \"#utility.yul\":14725:14742   */\n      swap1\n      pop\n        /* \"#utility.yul\":14700:14915   */\n      jump(tag_311)\n    tag_313:\n        /* \"#utility.yul\":14943:14949   */\n      dup7\n        /* \"#utility.yul\":14934:14941   */\n      dup4\n        /* \"#utility.yul\":14931:14950   */\n      lt\n        /* \"#utility.yul\":14928:15114   */\n      iszero\n      tag_314\n      jumpi\n        /* \"#utility.yul\":15008:15017   */\n      dup5\n        /* \"#utility.yul\":15003:15006   */\n      dup10\n        /* \"#utility.yul\":14999:15018   */\n      add\n        /* \"#utility.yul\":14986:15019   */\n      calldataload\n        /* \"#utility.yul\":15051:15099   */\n      tag_315\n        /* \"#utility.yul\":15093:15097   */\n      0x1f\n        /* \"#utility.yul\":15085:15091   */\n      dup10\n        /* \"#utility.yul\":15081:15098   */\n      and\n        /* \"#utility.yul\":15070:15079   */\n      dup3\n        /* \"#utility.yul\":15051:15099   */\n      tag_155\n      jump\t// in\n    tag_315:\n        /* \"#utility.yul\":15043:15049   */\n      dup4\n        /* \"#utility.yul\":15036:15100   */\n      sstore\n        /* \"#utility.yul\":14951:15114   */\n      pop\n        /* \"#utility.yul\":14928:15114   */\n    tag_314:\n        /* \"#utility.yul\":15160:15161   */\n      0x01\n        /* \"#utility.yul\":15156:15157   */\n      0x02\n        /* \"#utility.yul\":15148:15154   */\n      dup9\n        /* \"#utility.yul\":15144:15158   */\n      mul\n        /* \"#utility.yul\":15140:15162   */\n      add\n        /* \"#utility.yul\":15134:15138   */\n      dup9\n        /* \"#utility.yul\":15127:15163   */\n      sstore\n        /* \"#utility.yul\":14548:15173   */\n      pop\n      pop\n      pop\n        /* \"#utility.yul\":14511:15419   */\n    tag_306:\n      pop\n        /* \"#utility.yul\":14121:15425   */\n      pop\n      pop\n      pop\n        /* \"#utility.yul\":14022:15425   */\n      pop\n      pop\n      pop\n      jump\t// out\n        /* \"#utility.yul\":15431:15653   */\n    tag_49:\n        /* \"#utility.yul\":15524:15528   */\n      0x00\n        /* \"#utility.yul\":15562:15564   */\n      0x20\n        /* \"#utility.yul\":15551:15560   */\n      dup3\n        /* \"#utility.yul\":15547:15565   */\n      add\n        /* \"#utility.yul\":15539:15565   */\n      swap1\n      pop\n        /* \"#utility.yul\":15575:15646   */\n      tag_317\n        /* \"#utility.yul\":15643:15644   */\n      0x00\n        /* \"#utility.yul\":15632:15641   */\n      dup4\n        /* \"#utility.yul\":15628:15645   */\n      add\n        /* \"#utility.yul\":15619:15625   */\n      dup5\n        /* \"#utility.yul\":15575:15646   */\n      tag_122\n      jump\t// in\n    tag_317:\n        /* \"#utility.yul\":15431:15653   */\n      swap3\n      swap2\n      pop\n      pop\n      jump\t// out\n\n    auxdata: 0xa2646970667358221220f4c76d70f183d5fd4fb133a61ae555b44d6d3c3301377f1f29cf0e1dcd01b7bc64736f6c634300081e0033\n}\n",
				"bytecode": {
					"linkReferences": {},
					"object": "6080604052348015600e575f5ffd5b50335f5f6101000a81548173ffffffffffffffffffffffffffffffffffffffff021916908373ffffffffffffffffffffffffffffffffffffffff1602179055506116628061005b5f395ff3fe608060405234801561000f575f5ffd5b506004361061004a575f3560e01c80632ae4bc551461004e57806387e6446f1461006a57806392b2a7911461008657806395b04be2146100bc575b5f5ffd5b61006860048036038101906100639190610e7c565b6100f3565b005b610084600480360381019061007f9190610e7c565b610506565b005b6100a0600480360381019061009b9190610fba565b6108fd565b6040516100b397969594939291906110ef565b60405180910390f35b6100d660048036038101906100d19190610fba565b610b7e565b6040516100ea989796959493929190611192565b60405180910390f35b85855f15156005838360405161010a929190611266565b90815260200160405180910390205f9054906101000a900460ff16151514801561016357505f151560068383604051610144929190611266565b90815260200160405180910390205f9054906101000a900460ff161515145b6040518060400160405280601581526020017f456d61696c20616c726561647920657869737473210000000000000000000000815250906101da576040517f08c379a00000000000000000000000000000000000000000000000000000000081526004016101d1919061127e565b60405180910390fd5b505f151560075f3373ffffffffffffffffffffffffffffffffffffffff1673ffffffffffffffffffffffffffffffffffffffff1681526020019081526020015f205f9054906101000a900460ff16151514801561028357505f151560085f3373ffffffffffffffffffffffffffffffffffffffff1673ffffffffffffffffffffffffffffffffffffffff1681526020019081526020015f205f9054906101000a900460ff161515145b6040518060400160405280601781526020017f4164647265737320616c72656164792065786973747321000000000000000000815250906102fa576040517f08c379a00000000000000000000000000000000000000000000000000000000081526004016102f1919061127e565b60405180910390fd5b505f60035f815461030a906112cb565b91905081905590505f60015f3373ffffffffffffffffffffffffffffffffffffffff1673ffffffffffffffffffffffffffffffffffffffff1681526020019081526020015f20905081815f01819055508b8b82600201918261036d929190611546565b508989826001019182610381929190611546565b508787826004019182610395929190611546565b5085858260030191826103a9929190611546565b50600160058b8b6040516103be929190611266565b90815260200160405180910390205f6101000a81548160ff021916908315150217905550600160075f3373ffffffffffffffffffffffffffffffffffffffff1673ffffffffffffffffffffffffffffffffffffffff1681526020019081526020015f205f6101000a81548160ff0219169083151502179055505f8160050160146101000a81548160ff0219169083151502179055505f8160050160156101000a81548160ff0219169083600181111561047a5761047961107c565b5b021790555033816005015f6101000a81548173ffffffffffffffffffffffffffffffffffffffff021916908373ffffffffffffffffffffffffffffffffffffffff1602179055507fd1a7c154123ed5a80a1f9c4596757daf4b73c53e8bc15299d58a4be0ca505814826040516104f09190611613565b60405180910390a1505050505050505050505050565b85855f15156005838360405161051d929190611266565b90815260200160405180910390205f9054906101000a900460ff16151514801561057657505f151560068383604051610557929190611266565b90815260200160405180910390205f9054906101000a900460ff161515145b6040518060400160405280601581526020017f456d61696c20616c726561647920657869737473210000000000000000000000815250906105ed576040517f08c379a00000000000000000000000000000000000000000000000000000000081526004016105e4919061127e565b60405180910390fd5b505f151560075f3373ffffffffffffffffffffffffffffffffffffffff1673ffffffffffffffffffffffffffffffffffffffff1681526020019081526020015f205f9054906101000a900460ff16151514801561069657505f151560085f3373ffffffffffffffffffffffffffffffffffffffff1673ffffffffffffffffffffffffffffffffffffffff1681526020019081526020015f205f9054906101000a900460ff161515145b6040518060400160405280601781526020017f4164647265737320616c726561647920657869737473210000000000000000008152509061070d576040517f08c379a0000000000000000000000000000000000000000000000000000000008152600401610704919061127e565b60405180910390fd5b505f60045f815461071d906112cb565b91905081905590505f60025f3373ffffffffffffffffffffffffffffffffffffffff1673ffffffffffffffffffffffffffffffffffffffff1681526020019081526020015f20905081815f01819055508b8b826002019182610780929190611546565b508989826003019182610794929190611546565b5087878260040191826107a8929190611546565b5085858260050191826107bc929190611546565b50600160068b8b6040516107d1929190611266565b90815260200160405180910390205f6101000a81548160ff021916908315150217905550600160085f3373ffffffffffffffffffffffffffffffffffffffff1673ffffffffffffffffffffffffffffffffffffffff1681526020019081526020015f205f6101000a81548160ff0219169083151502179055506001816006015f6101000a81548160ff021916908360018111156108715761087061107c565b5b021790555033816001015f6101000a81548173ffffffffffffffffffffffffffffffffffffffff021916908373ffffffffffffffffffffffffffffffffffffffff1602179055507f7a7674d49ab4ac57338891a3e15ebdbe5e6abbb1637fc6c5cfa506e2fa360ad0826040516108e79190611613565b60405180910390a1505050505050505050505050565b6002602052805f5260405f205f91509050805f015490806001015f9054906101000a900473ffffffffffffffffffffffffffffffffffffffff169080600201805461094790611376565b80601f016020809104026020016040519081016040528092919081815260200182805461097390611376565b80156109be5780601f10610995576101008083540402835291602001916109be565b820191905f5260205f20905b8154815290600101906020018083116109a157829003601f168201915b5050505050908060030180546109d390611376565b80601f01602080910402602001604051908101604052809291908181526020018280546109ff90611376565b8015610a4a5780601f10610a2157610100808354040283529160200191610a4a565b820191905f5260205f20905b815481529060010190602001808311610a2d57829003601f168201915b505050505090806004018054610a5f90611376565b80601f0160208091040260200160405190810160405280929190818152602001828054610a8b90611376565b8015610ad65780601f10610aad57610100808354040283529160200191610ad6565b820191905f5260205f20905b815481529060010190602001808311610ab957829003601f168201915b505050505090806005018054610aeb90611376565b80601f0160208091040260200160405190810160405280929190818152602001828054610b1790611376565b8015610b625780601f10610b3957610100808354040283529160200191610b62565b820191905f5260205f20905b815481529060010190602001808311610b4557829003601f168201915b505050505090806006015f9054906101000a900460ff16905087565b6001602052805f5260405f205f91509050805f015490806001018054610ba390611376565b80601f0160208091040260200160405190810160405280929190818152602001828054610bcf90611376565b8015610c1a5780601f10610bf157610100808354040283529160200191610c1a565b820191905f5260205f20905b815481529060010190602001808311610bfd57829003601f168201915b505050505090806002018054610c2f90611376565b80601f0160208091040260200160405190810160405280929190818152602001828054610c5b90611376565b8015610ca65780601f10610c7d57610100808354040283529160200191610ca6565b820191905f5260205f20905b815481529060010190602001808311610c8957829003601f168201915b505050505090806003018054610cbb90611376565b80601f0160208091040260200160405190810160405280929190818152602001828054610ce790611376565b8015610d325780601f10610d0957610100808354040283529160200191610d32565b820191905f5260205f20905b815481529060010190602001808311610d1557829003601f168201915b505050505090806004018054610d4790611376565b80601f0160208091040260200160405190810160405280929190818152602001828054610d7390611376565b8015610dbe5780601f10610d9557610100808354040283529160200191610dbe565b820191905f5260205f20905b815481529060010190602001808311610da157829003601f168201915b505050505090806005015f9054906101000a900473ffffffffffffffffffffffffffffffffffffffff16908060050160149054906101000a900460ff16908060050160159054906101000a900460ff16905088565b5f5ffd5b5f5ffd5b5f5ffd5b5f5ffd5b5f5ffd5b5f5f83601f840112610e3c57610e3b610e1b565b5b8235905067ffffffffffffffff811115610e5957610e58610e1f565b5b602083019150836001820283011115610e7557610e74610e23565b5b9250929050565b5f5f5f5f5f5f5f5f6080898b031215610e9857610e97610e13565b5b5f89013567ffffffffffffffff811115610eb557610eb4610e17565b5b610ec18b828c01610e27565b9850985050602089013567ffffffffffffffff811115610ee457610ee3610e17565b5b610ef08b828c01610e27565b9650965050604089013567ffffffffffffffff811115610f1357610f12610e17565b5b610f1f8b828c01610e27565b9450945050606089013567ffffffffffffffff811115610f4257610f41610e17565b5b610f4e8b828c01610e27565b92509250509295985092959890939650565b5f73ffffffffffffffffffffffffffffffffffffffff82169050919050565b5f610f8982610f60565b9050919050565b610f9981610f7f565b8114610fa3575f5ffd5b50565b5f81359050610fb481610f90565b92915050565b5f60208284031215610fcf57610fce610e13565b5b5f610fdc84828501610fa6565b91505092915050565b5f819050919050565b610ff781610fe5565b82525050565b61100681610f7f565b82525050565b5f81519050919050565b5f82825260208201905092915050565b8281835e5f83830152505050565b5f601f19601f8301169050919050565b5f61104e8261100c565b6110588185611016565b9350611068818560208601611026565b61107181611034565b840191505092915050565b7f4e487b71000000000000000000000000000000000000000000000000000000005f52602160045260245ffd5b600281106110ba576110b961107c565b5b50565b5f8190506110ca826110a9565b919050565b5f6110d9826110bd565b9050919050565b6110e9816110cf565b82525050565b5f60e0820190506111025f83018a610fee565b61110f6020830189610ffd565b81810360408301526111218188611044565b905081810360608301526111358187611044565b905081810360808301526111498186611044565b905081810360a083015261115d8185611044565b905061116c60c08301846110e0565b98975050505050505050565b5f8115159050919050565b61118c81611178565b82525050565b5f610100820190506111a65f83018b610fee565b81810360208301526111b8818a611044565b905081810360408301526111cc8189611044565b905081810360608301526111e08188611044565b905081810360808301526111f48187611044565b905061120360a0830186610ffd565b61121060c0830185611183565b61121d60e08301846110e0565b9998505050505050505050565b5f81905092915050565b828183375f83830152505050565b5f61124d838561122a565b935061125a838584611234565b82840190509392505050565b5f611272828486611242565b91508190509392505050565b5f6020820190508181035f8301526112968184611044565b905092915050565b7f4e487b71000000000000000000000000000000000000000000000000000000005f52601160045260245ffd5b5f6112d582610fe5565b91507fffffffffffffffffffffffffffffffffffffffffffffffffffffffffffffffff82036113075761130661129e565b5b600182019050919050565b5f82905092915050565b7f4e487b71000000000000000000000000000000000000000000000000000000005f52604160045260245ffd5b7f4e487b71000000000000000000000000000000000000000000000000000000005f52602260045260245ffd5b5f600282049050600182168061138d57607f821691505b6020821081036113a05761139f611349565b5b50919050565b5f819050815f5260205f209050919050565b5f6020601f8301049050919050565b5f82821b905092915050565b5f600883026114027fffffffffffffffffffffffffffffffffffffffffffffffffffffffffffffffff826113c7565b61140c86836113c7565b95508019841693508086168417925050509392505050565b5f819050919050565b5f61144761144261143d84610fe5565b611424565b610fe5565b9050919050565b5f819050919050565b6114608361142d565b61147461146c8261144e565b8484546113d3565b825550505050565b5f5f905090565b61148b61147c565b611496818484611457565b505050565b5b818110156114b9576114ae5f82611483565b60018101905061149c565b5050565b601f8211156114fe576114cf816113a6565b6114d8846113b8565b810160208510156114e7578190505b6114fb6114f3856113b8565b83018261149b565b50505b505050565b5f82821c905092915050565b5f61151e5f1984600802611503565b1980831691505092915050565b5f611536838361150f565b9150826002028217905092915050565b6115508383611312565b67ffffffffffffffff8111156115695761156861131c565b5b6115738254611376565b61157e8282856114bd565b5f601f8311600181146115ab575f8415611599578287013590505b6115a3858261152b565b86555061160a565b601f1984166115b9866113a6565b5f5b828110156115e0578489013582556001820191506020850194506020810190506115bb565b868310156115fd57848901356115f9601f89168261150f565b8355505b6001600288020188555050505b50505050505050565b5f6020820190506116265f830184610fee565b9291505056fea2646970667358221220f4c76d70f183d5fd4fb133a61ae555b44d6d3c3301377f1f29cf0e1dcd01b7bc64736f6c634300081e0033",
					"opcodes": "PUSH1 0x80 PUSH1 0x40 MSTORE CALLVALUE DUP1 ISZERO PUSH1 0xE JUMPI PUSH0 PUSH0 REVERT JUMPDEST POP CALLER PUSH0 PUSH0 PUSH2 0x100 EXP DUP2 SLOAD DUP2 PUSH20 0xFFFFFFFFFFFFFFFFFFFFFFFFFFFFFFFFFFFFFFFF MUL NOT AND SWAP1 DUP4 PUSH20 0xFFFFFFFFFFFFFFFFFFFFFFFFFFFFFFFFFFFFFFFF AND MUL OR SWAP1 SSTORE POP PUSH2 0x1662 DUP1 PUSH2 0x5B PUSH0 CODECOPY PUSH0 RETURN INVALID PUSH1 0x80 PUSH1 0x40 MSTORE CALLVALUE DUP1 ISZERO PUSH2 0xF JUMPI PUSH0 PUSH0 REVERT JUMPDEST POP PUSH1 0x4 CALLDATASIZE LT PUSH2 0x4A JUMPI PUSH0 CALLDATALOAD PUSH1 0xE0 SHR DUP1 PUSH4 0x2AE4BC55 EQ PUSH2 0x4E JUMPI DUP1 PUSH4 0x87E6446F EQ PUSH2 0x6A JUMPI DUP1 PUSH4 0x92B2A791 EQ PUSH2 0x86 JUMPI DUP1 PUSH4 0x95B04BE2 EQ PUSH2 0xBC JUMPI JUMPDEST PUSH0 PUSH0 REVERT JUMPDEST PUSH2 0x68 PUSH1 0x4 DUP1 CALLDATASIZE SUB DUP2 ADD SWAP1 PUSH2 0x63 SWAP2 SWAP1 PUSH2 0xE7C JUMP JUMPDEST PUSH2 0xF3 JUMP JUMPDEST STOP JUMPDEST PUSH2 0x84 PUSH1 0x4 DUP1 CALLDATASIZE SUB DUP2 ADD SWAP1 PUSH2 0x7F SWAP2 SWAP1 PUSH2 0xE7C JUMP JUMPDEST PUSH2 0x506 JUMP JUMPDEST STOP JUMPDEST PUSH2 0xA0 PUSH1 0x4 DUP1 CALLDATASIZE SUB DUP2 ADD SWAP1 PUSH2 0x9B SWAP2 SWAP1 PUSH2 0xFBA JUMP JUMPDEST PUSH2 0x8FD JUMP JUMPDEST PUSH1 0x40 MLOAD PUSH2 0xB3 SWAP8 SWAP7 SWAP6 SWAP5 SWAP4 SWAP3 SWAP2 SWAP1 PUSH2 0x10EF JUMP JUMPDEST PUSH1 0x40 MLOAD DUP1 SWAP2 SUB SWAP1 RETURN JUMPDEST PUSH2 0xD6 PUSH1 0x4 DUP1 CALLDATASIZE SUB DUP2 ADD SWAP1 PUSH2 0xD1 SWAP2 SWAP1 PUSH2 0xFBA JUMP JUMPDEST PUSH2 0xB7E JUMP JUMPDEST PUSH1 0x40 MLOAD PUSH2 0xEA SWAP9 SWAP8 SWAP7 SWAP6 SWAP5 SWAP4 SWAP3 SWAP2 SWAP1 PUSH2 0x1192 JUMP JUMPDEST PUSH1 0x40 MLOAD DUP1 SWAP2 SUB SWAP1 RETURN JUMPDEST DUP6 DUP6 PUSH0 ISZERO ISZERO PUSH1 0x5 DUP4 DUP4 PUSH1 0x40 MLOAD PUSH2 0x10A SWAP3 SWAP2 SWAP1 PUSH2 0x1266 JUMP JUMPDEST SWAP1 DUP2 MSTORE PUSH1 0x20 ADD PUSH1 0x40 MLOAD DUP1 SWAP2 SUB SWAP1 KECCAK256 PUSH0 SWAP1 SLOAD SWAP1 PUSH2 0x100 EXP SWAP1 DIV PUSH1 0xFF AND ISZERO ISZERO EQ DUP1 ISZERO PUSH2 0x163 JUMPI POP PUSH0 ISZERO ISZERO PUSH1 0x6 DUP4 DUP4 PUSH1 0x40 MLOAD PUSH2 0x144 SWAP3 SWAP2 SWAP1 PUSH2 0x1266 JUMP JUMPDEST SWAP1 DUP2 MSTORE PUSH1 0x20 ADD PUSH1 0x40 MLOAD DUP1 SWAP2 SUB SWAP1 KECCAK256 PUSH0 SWAP1 SLOAD SWAP1 PUSH2 0x100 EXP SWAP1 DIV PUSH1 0xFF AND ISZERO ISZERO EQ JUMPDEST PUSH1 0x40 MLOAD DUP1 PUSH1 0x40 ADD PUSH1 0x40 MSTORE DUP1 PUSH1 0x15 DUP2 MSTORE PUSH1 0x20 ADD PUSH32 0x456D61696C20616C726561647920657869737473210000000000000000000000 DUP2 MSTORE POP SWAP1 PUSH2 0x1DA JUMPI PUSH1 0x40 MLOAD PUSH32 0x8C379A000000000000000000000000000000000000000000000000000000000 DUP2 MSTORE PUSH1 0x4 ADD PUSH2 0x1D1 SWAP2 SWAP1 PUSH2 0x127E JUMP JUMPDEST PUSH1 0x40 MLOAD DUP1 SWAP2 SUB SWAP1 REVERT JUMPDEST POP PUSH0 ISZERO ISZERO PUSH1 0x7 PUSH0 CALLER PUSH20 0xFFFFFFFFFFFFFFFFFFFFFFFFFFFFFFFFFFFFFFFF AND PUSH20 0xFFFFFFFFFFFFFFFFFFFFFFFFFFFFFFFFFFFFFFFF AND DUP2 MSTORE PUSH1 0x20 ADD SWAP1 DUP2 MSTORE PUSH1 0x20 ADD PUSH0 KECCAK256 PUSH0 SWAP1 SLOAD SWAP1 PUSH2 0x100 EXP SWAP1 DIV PUSH1 0xFF AND ISZERO ISZERO EQ DUP1 ISZERO PUSH2 0x283 JUMPI POP PUSH0 ISZERO ISZERO PUSH1 0x8 PUSH0 CALLER PUSH20 0xFFFFFFFFFFFFFFFFFFFFFFFFFFFFFFFFFFFFFFFF AND PUSH20 0xFFFFFFFFFFFFFFFFFFFFFFFFFFFFFFFFFFFFFFFF AND DUP2 MSTORE PUSH1 0x20 ADD SWAP1 DUP2 MSTORE PUSH1 0x20 ADD PUSH0 KECCAK256 PUSH0 SWAP1 SLOAD SWAP1 PUSH2 0x100 EXP SWAP1 DIV PUSH1 0xFF AND ISZERO ISZERO EQ JUMPDEST PUSH1 0x40 MLOAD DUP1 PUSH1 0x40 ADD PUSH1 0x40 MSTORE DUP1 PUSH1 0x17 DUP2 MSTORE PUSH1 0x20 ADD PUSH32 0x4164647265737320616C72656164792065786973747321000000000000000000 DUP2 MSTORE POP SWAP1 PUSH2 0x2FA JUMPI PUSH1 0x40 MLOAD PUSH32 0x8C379A000000000000000000000000000000000000000000000000000000000 DUP2 MSTORE PUSH1 0x4 ADD PUSH2 0x2F1 SWAP2 SWAP1 PUSH2 0x127E JUMP JUMPDEST PUSH1 0x40 MLOAD DUP1 SWAP2 SUB SWAP1 REVERT JUMPDEST POP PUSH0 PUSH1 0x3 PUSH0 DUP2 SLOAD PUSH2 0x30A SWAP1 PUSH2 0x12CB JUMP JUMPDEST SWAP2 SWAP1 POP DUP2 SWAP1 SSTORE SWAP1 POP PUSH0 PUSH1 0x1 PUSH0 CALLER PUSH20 0xFFFFFFFFFFFFFFFFFFFFFFFFFFFFFFFFFFFFFFFF AND PUSH20 0xFFFFFFFFFFFFFFFFFFFFFFFFFFFFFFFFFFFFFFFF AND DUP2 MSTORE PUSH1 0x20 ADD SWAP1 DUP2 MSTORE PUSH1 0x20 ADD PUSH0 KECCAK256 SWAP1 POP DUP2 DUP2 PUSH0 ADD DUP2 SWAP1 SSTORE POP DUP12 DUP12 DUP3 PUSH1 0x2 ADD SWAP2 DUP3 PUSH2 0x36D SWAP3 SWAP2 SWAP1 PUSH2 0x1546 JUMP JUMPDEST POP DUP10 DUP10 DUP3 PUSH1 0x1 ADD SWAP2 DUP3 PUSH2 0x381 SWAP3 SWAP2 SWAP1 PUSH2 0x1546 JUMP JUMPDEST POP DUP8 DUP8 DUP3 PUSH1 0x4 ADD SWAP2 DUP3 PUSH2 0x395 SWAP3 SWAP2 SWAP1 PUSH2 0x1546 JUMP JUMPDEST POP DUP6 DUP6 DUP3 PUSH1 0x3 ADD SWAP2 DUP3 PUSH2 0x3A9 SWAP3 SWAP2 SWAP1 PUSH2 0x1546 JUMP JUMPDEST POP PUSH1 0x1 PUSH1 0x5 DUP12 DUP12 PUSH1 0x40 MLOAD PUSH2 0x3BE SWAP3 SWAP2 SWAP1 PUSH2 0x1266 JUMP JUMPDEST SWAP1 DUP2 MSTORE PUSH1 0x20 ADD PUSH1 0x40 MLOAD DUP1 SWAP2 SUB SWAP1 KECCAK256 PUSH0 PUSH2 0x100 EXP DUP2 SLOAD DUP2 PUSH1 0xFF MUL NOT AND SWAP1 DUP4 ISZERO ISZERO MUL OR SWAP1 SSTORE POP PUSH1 0x1 PUSH1 0x7 PUSH0 CALLER PUSH20 0xFFFFFFFFFFFFFFFFFFFFFFFFFFFFFFFFFFFFFFFF AND PUSH20 0xFFFFFFFFFFFFFFFFFFFFFFFFFFFFFFFFFFFFFFFF AND DUP2 MSTORE PUSH1 0x20 ADD SWAP1 DUP2 MSTORE PUSH1 0x20 ADD PUSH0 KECCAK256 PUSH0 PUSH2 0x100 EXP DUP2 SLOAD DUP2 PUSH1 0xFF MUL NOT AND SWAP1 DUP4 ISZERO ISZERO MUL OR SWAP1 SSTORE POP PUSH0 DUP2 PUSH1 0x5 ADD PUSH1 0x14 PUSH2 0x100 EXP DUP2 SLOAD DUP2 PUSH1 0xFF MUL NOT AND SWAP1 DUP4 ISZERO ISZERO MUL OR SWAP1 SSTORE POP PUSH0 DUP2 PUSH1 0x5 ADD PUSH1 0x15 PUSH2 0x100 EXP DUP2 SLOAD DUP2 PUSH1 0xFF MUL NOT AND SWAP1 DUP4 PUSH1 0x1 DUP2 GT ISZERO PUSH2 0x47A JUMPI PUSH2 0x479 PUSH2 0x107C JUMP JUMPDEST JUMPDEST MUL OR SWAP1 SSTORE POP CALLER DUP2 PUSH1 0x5 ADD PUSH0 PUSH2 0x100 EXP DUP2 SLOAD DUP2 PUSH20 0xFFFFFFFFFFFFFFFFFFFFFFFFFFFFFFFFFFFFFFFF MUL NOT AND SWAP1 DUP4 PUSH20 0xFFFFFFFFFFFFFFFFFFFFFFFFFFFFFFFFFFFFFFFF AND MUL OR SWAP1 SSTORE POP PUSH32 0xD1A7C154123ED5A80A1F9C4596757DAF4B73C53E8BC15299D58A4BE0CA505814 DUP3 PUSH1 0x40 MLOAD PUSH2 0x4F0 SWAP2 SWAP1 PUSH2 0x1613 JUMP JUMPDEST PUSH1 0x40 MLOAD DUP1 SWAP2 SUB SWAP1 LOG1 POP POP POP POP POP POP POP POP POP POP POP POP JUMP JUMPDEST DUP6 DUP6 PUSH0 ISZERO ISZERO PUSH1 0x5 DUP4 DUP4 PUSH1 0x40 MLOAD PUSH2 0x51D SWAP3 SWAP2 SWAP1 PUSH2 0x1266 JUMP JUMPDEST SWAP1 DUP2 MSTORE PUSH1 0x20 ADD PUSH1 0x40 MLOAD DUP1 SWAP2 SUB SWAP1 KECCAK256 PUSH0 SWAP1 SLOAD SWAP1 PUSH2 0x100 EXP SWAP1 DIV PUSH1 0xFF AND ISZERO ISZERO EQ DUP1 ISZERO PUSH2 0x576 JUMPI POP PUSH0 ISZERO ISZERO PUSH1 0x6 DUP4 DUP4 PUSH1 0x40 MLOAD PUSH2 0x557 SWAP3 SWAP2 SWAP1 PUSH2 0x1266 JUMP JUMPDEST SWAP1 DUP2 MSTORE PUSH1 0x20 ADD PUSH1 0x40 MLOAD DUP1 SWAP2 SUB SWAP1 KECCAK256 PUSH0 SWAP1 SLOAD SWAP1 PUSH2 0x100 EXP SWAP1 DIV PUSH1 0xFF AND ISZERO ISZERO EQ JUMPDEST PUSH1 0x40 MLOAD DUP1 PUSH1 0x40 ADD PUSH1 0x40 MSTORE DUP1 PUSH1 0x15 DUP2 MSTORE PUSH1 0x20 ADD PUSH32 0x456D61696C20616C726561647920657869737473210000000000000000000000 DUP2 MSTORE POP SWAP1 PUSH2 0x5ED JUMPI PUSH1 0x40 MLOAD PUSH32 0x8C379A000000000000000000000000000000000000000000000000000000000 DUP2 MSTORE PUSH1 0x4 ADD PUSH2 0x5E4 SWAP2 SWAP1 PUSH2 0x127E JUMP JUMPDEST PUSH1 0x40 MLOAD DUP1 SWAP2 SUB SWAP1 REVERT JUMPDEST POP PUSH0 ISZERO ISZERO PUSH1 0x7 PUSH0 CALLER PUSH20 0xFFFFFFFFFFFFFFFFFFFFFFFFFFFFFFFFFFFFFFFF AND PUSH20 0xFFFFFFFFFFFFFFFFFFFFFFFFFFFFFFFFFFFFFFFF AND DUP2 MSTORE PUSH1 0x20 ADD SWAP1 DUP2 MSTORE PUSH1 0x20 ADD PUSH0 KECCAK256 PUSH0 SWAP1 SLOAD SWAP1 PUSH2 0x100 EXP SWAP1 DIV PUSH1 0xFF AND ISZERO ISZERO EQ DUP1 ISZERO PUSH2 0x696 JUMPI POP PUSH0 ISZERO ISZERO PUSH1 0x8 PUSH0 CALLER PUSH20 0xFFFFFFFFFFFFFFFFFFFFFFFFFFFFFFFFFFFFFFFF AND PUSH20 0xFFFFFFFFFFFFFFFFFFFFFFFFFFFFFFFFFFFFFFFF AND DUP2 MSTORE PUSH1 0x20 ADD SWAP1 DUP2 MSTORE PUSH1 0x20 ADD PUSH0 KECCAK256 PUSH0 SWAP1 SLOAD SWAP1 PUSH2 0x100 EXP SWAP1 DIV PUSH1 0xFF AND ISZERO ISZERO EQ JUMPDEST PUSH1 0x40 MLOAD DUP1 PUSH1 0x40 ADD PUSH1 0x40 MSTORE DUP1 PUSH1 0x17 DUP2 MSTORE PUSH1 0x20 ADD PUSH32 0x4164647265737320616C72656164792065786973747321000000000000000000 DUP2 MSTORE POP SWAP1 PUSH2 0x70D JUMPI PUSH1 0x40 MLOAD PUSH32 0x8C379A000000000000000000000000000000000000000000000000000000000 DUP2 MSTORE PUSH1 0x4 ADD PUSH2 0x704 SWAP2 SWAP1 PUSH2 0x127E JUMP JUMPDEST PUSH1 0x40 MLOAD DUP1 SWAP2 SUB SWAP1 REVERT JUMPDEST POP PUSH0 PUSH1 0x4 PUSH0 DUP2 SLOAD PUSH2 0x71D SWAP1 PUSH2 0x12CB JUMP JUMPDEST SWAP2 SWAP1 POP DUP2 SWAP1 SSTORE SWAP1 POP PUSH0 PUSH1 0x2 PUSH0 CALLER PUSH20 0xFFFFFFFFFFFFFFFFFFFFFFFFFFFFFFFFFFFFFFFF AND PUSH20 0xFFFFFFFFFFFFFFFFFFFFFFFFFFFFFFFFFFFFFFFF AND DUP2 MSTORE PUSH1 0x20 ADD SWAP1 DUP2 MSTORE PUSH1 0x20 ADD PUSH0 KECCAK256 SWAP1 POP DUP2 DUP2 PUSH0 ADD DUP2 SWAP1 SSTORE POP DUP12 DUP12 DUP3 PUSH1 0x2 ADD SWAP2 DUP3 PUSH2 0x780 SWAP3 SWAP2 SWAP1 PUSH2 0x1546 JUMP JUMPDEST POP DUP10 DUP10 DUP3 PUSH1 0x3 ADD SWAP2 DUP3 PUSH2 0x794 SWAP3 SWAP2 SWAP1 PUSH2 0x1546 JUMP JUMPDEST POP DUP8 DUP8 DUP3 PUSH1 0x4 ADD SWAP2 DUP3 PUSH2 0x7A8 SWAP3 SWAP2 SWAP1 PUSH2 0x1546 JUMP JUMPDEST POP DUP6 DUP6 DUP3 PUSH1 0x5 ADD SWAP2 DUP3 PUSH2 0x7BC SWAP3 SWAP2 SWAP1 PUSH2 0x1546 JUMP JUMPDEST POP PUSH1 0x1 PUSH1 0x6 DUP12 DUP12 PUSH1 0x40 MLOAD PUSH2 0x7D1 SWAP3 SWAP2 SWAP1 PUSH2 0x1266 JUMP JUMPDEST SWAP1 DUP2 MSTORE PUSH1 0x20 ADD PUSH1 0x40 MLOAD DUP1 SWAP2 SUB SWAP1 KECCAK256 PUSH0 PUSH2 0x100 EXP DUP2 SLOAD DUP2 PUSH1 0xFF MUL NOT AND SWAP1 DUP4 ISZERO ISZERO MUL OR SWAP1 SSTORE POP PUSH1 0x1 PUSH1 0x8 PUSH0 CALLER PUSH20 0xFFFFFFFFFFFFFFFFFFFFFFFFFFFFFFFFFFFFFFFF AND PUSH20 0xFFFFFFFFFFFFFFFFFFFFFFFFFFFFFFFFFFFFFFFF AND DUP2 MSTORE PUSH1 0x20 ADD SWAP1 DUP2 MSTORE PUSH1 0x20 ADD PUSH0 KECCAK256 PUSH0 PUSH2 0x100 EXP DUP2 SLOAD DUP2 PUSH1 0xFF MUL NOT AND SWAP1 DUP4 ISZERO ISZERO MUL OR SWAP1 SSTORE POP PUSH1 0x1 DUP2 PUSH1 0x6 ADD PUSH0 PUSH2 0x100 EXP DUP2 SLOAD DUP2 PUSH1 0xFF MUL NOT AND SWAP1 DUP4 PUSH1 0x1 DUP2 GT ISZERO PUSH2 0x871 JUMPI PUSH2 0x870 PUSH2 0x107C JUMP JUMPDEST JUMPDEST MUL OR SWAP1 SSTORE POP CALLER DUP2 PUSH1 0x1 ADD PUSH0 PUSH2 0x100 EXP DUP2 SLOAD DUP2 PUSH20 0xFFFFFFFFFFFFFFFFFFFFFFFFFFFFFFFFFFFFFFFF MUL NOT AND SWAP1 DUP4 PUSH20 0xFFFFFFFFFFFFFFFFFFFFFFFFFFFFFFFFFFFFFFFF AND MUL OR SWAP1 SSTORE POP PUSH32 0x7A7674D49AB4AC57338891A3E15EBDBE5E6ABBB1637FC6C5CFA506E2FA360AD0 DUP3 PUSH1 0x40 MLOAD PUSH2 0x8E7 SWAP2 SWAP1 PUSH2 0x1613 JUMP JUMPDEST PUSH1 0x40 MLOAD DUP1 SWAP2 SUB SWAP1 LOG1 POP POP POP POP POP POP POP POP POP POP POP POP JUMP JUMPDEST PUSH1 0x2 PUSH1 0x20 MSTORE DUP1 PUSH0 MSTORE PUSH1 0x40 PUSH0 KECCAK256 PUSH0 SWAP2 POP SWAP1 POP DUP1 PUSH0 ADD SLOAD SWAP1 DUP1 PUSH1 0x1 ADD PUSH0 SWAP1 SLOAD SWAP1 PUSH2 0x100 EXP SWAP1 DIV PUSH20 0xFFFFFFFFFFFFFFFFFFFFFFFFFFFFFFFFFFFFFFFF AND SWAP1 DUP1 PUSH1 0x2 ADD DUP1 SLOAD PUSH2 0x947 SWAP1 PUSH2 0x1376 JUMP JUMPDEST DUP1 PUSH1 0x1F ADD PUSH1 0x20 DUP1 SWAP2 DIV MUL PUSH1 0x20 ADD PUSH1 0x40 MLOAD SWAP1 DUP2 ADD PUSH1 0x40 MSTORE DUP1 SWAP3 SWAP2 SWAP1 DUP2 DUP2 MSTORE PUSH1 0x20 ADD DUP3 DUP1 SLOAD PUSH2 0x973 SWAP1 PUSH2 0x1376 JUMP JUMPDEST DUP1 ISZERO PUSH2 0x9BE JUMPI DUP1 PUSH1 0x1F LT PUSH2 0x995 JUMPI PUSH2 0x100 DUP1 DUP4 SLOAD DIV MUL DUP4 MSTORE SWAP2 PUSH1 0x20 ADD SWAP2 PUSH2 0x9BE JUMP JUMPDEST DUP3 ADD SWAP2 SWAP1 PUSH0 MSTORE PUSH1 0x20 PUSH0 KECCAK256 SWAP1 JUMPDEST DUP2 SLOAD DUP2 MSTORE SWAP1 PUSH1 0x1 ADD SWAP1 PUSH1 0x20 ADD DUP1 DUP4 GT PUSH2 0x9A1 JUMPI DUP3 SWAP1 SUB PUSH1 0x1F AND DUP3 ADD SWAP2 JUMPDEST POP POP POP POP POP SWAP1 DUP1 PUSH1 0x3 ADD DUP1 SLOAD PUSH2 0x9D3 SWAP1 PUSH2 0x1376 JUMP JUMPDEST DUP1 PUSH1 0x1F ADD PUSH1 0x20 DUP1 SWAP2 DIV MUL PUSH1 0x20 ADD PUSH1 0x40 MLOAD SWAP1 DUP2 ADD PUSH1 0x40 MSTORE DUP1 SWAP3 SWAP2 SWAP1 DUP2 DUP2 MSTORE PUSH1 0x20 ADD DUP3 DUP1 SLOAD PUSH2 0x9FF SWAP1 PUSH2 0x1376 JUMP JUMPDEST DUP1 ISZERO PUSH2 0xA4A JUMPI DUP1 PUSH1 0x1F LT PUSH2 0xA21 JUMPI PUSH2 0x100 DUP1 DUP4 SLOAD DIV MUL DUP4 MSTORE SWAP2 PUSH1 0x20 ADD SWAP2 PUSH2 0xA4A JUMP JUMPDEST DUP3 ADD SWAP2 SWAP1 PUSH0 MSTORE PUSH1 0x20 PUSH0 KECCAK256 SWAP1 JUMPDEST DUP2 SLOAD DUP2 MSTORE SWAP1 PUSH1 0x1 ADD SWAP1 PUSH1 0x20 ADD DUP1 DUP4 GT PUSH2 0xA2D JUMPI DUP3 SWAP1 SUB PUSH1 0x1F AND DUP3 ADD SWAP2 JUMPDEST POP POP POP POP POP SWAP1 DUP1 PUSH1 0x4 ADD DUP1 SLOAD PUSH2 0xA5F SWAP1 PUSH2 0x1376 JUMP JUMPDEST DUP1 PUSH1 0x1F ADD PUSH1 0x20 DUP1 SWAP2 DIV MUL PUSH1 0x20 ADD PUSH1 0x40 MLOAD SWAP1 DUP2 ADD PUSH1 0x40 MSTORE DUP1 SWAP3 SWAP2 SWAP1 DUP2 DUP2 MSTORE PUSH1 0x20 ADD DUP3 DUP1 SLOAD PUSH2 0xA8B SWAP1 PUSH2 0x1376 JUMP JUMPDEST DUP1 ISZERO PUSH2 0xAD6 JUMPI DUP1 PUSH1 0x1F LT PUSH2 0xAAD JUMPI PUSH2 0x100 DUP1 DUP4 SLOAD DIV MUL DUP4 MSTORE SWAP2 PUSH1 0x20 ADD SWAP2 PUSH2 0xAD6 JUMP JUMPDEST DUP3 ADD SWAP2 SWAP1 PUSH0 MSTORE PUSH1 0x20 PUSH0 KECCAK256 SWAP1 JUMPDEST DUP2 SLOAD DUP2 MSTORE SWAP1 PUSH1 0x1 ADD SWAP1 PUSH1 0x20 ADD DUP1 DUP4 GT PUSH2 0xAB9 JUMPI DUP3 SWAP1 SUB PUSH1 0x1F AND DUP3 ADD SWAP2 JUMPDEST POP POP POP POP POP SWAP1 DUP1 PUSH1 0x5 ADD DUP1 SLOAD PUSH2 0xAEB SWAP1 PUSH2 0x1376 JUMP JUMPDEST DUP1 PUSH1 0x1F ADD PUSH1 0x20 DUP1 SWAP2 DIV MUL PUSH1 0x20 ADD PUSH1 0x40 MLOAD SWAP1 DUP2 ADD PUSH1 0x40 MSTORE DUP1 SWAP3 SWAP2 SWAP1 DUP2 DUP2 MSTORE PUSH1 0x20 ADD DUP3 DUP1 SLOAD PUSH2 0xB17 SWAP1 PUSH2 0x1376 JUMP JUMPDEST DUP1 ISZERO PUSH2 0xB62 JUMPI DUP1 PUSH1 0x1F LT PUSH2 0xB39 JUMPI PUSH2 0x100 DUP1 DUP4 SLOAD DIV MUL DUP4 MSTORE SWAP2 PUSH1 0x20 ADD SWAP2 PUSH2 0xB62 JUMP JUMPDEST DUP3 ADD SWAP2 SWAP1 PUSH0 MSTORE PUSH1 0x20 PUSH0 KECCAK256 SWAP1 JUMPDEST DUP2 SLOAD DUP2 MSTORE SWAP1 PUSH1 0x1 ADD SWAP1 PUSH1 0x20 ADD DUP1 DUP4 GT PUSH2 0xB45 JUMPI DUP3 SWAP1 SUB PUSH1 0x1F AND DUP3 ADD SWAP2 JUMPDEST POP POP POP POP POP SWAP1 DUP1 PUSH1 0x6 ADD PUSH0 SWAP1 SLOAD SWAP1 PUSH2 0x100 EXP SWAP1 DIV PUSH1 0xFF AND SWAP1 POP DUP8 JUMP JUMPDEST PUSH1 0x1 PUSH1 0x20 MSTORE DUP1 PUSH0 MSTORE PUSH1 0x40 PUSH0 KECCAK256 PUSH0 SWAP2 POP SWAP1 POP DUP1 PUSH0 ADD SLOAD SWAP1 DUP1 PUSH1 0x1 ADD DUP1 SLOAD PUSH2 0xBA3 SWAP1 PUSH2 0x1376 JUMP JUMPDEST DUP1 PUSH1 0x1F ADD PUSH1 0x20 DUP1 SWAP2 DIV MUL PUSH1 0x20 ADD PUSH1 0x40 MLOAD SWAP1 DUP2 ADD PUSH1 0x40 MSTORE DUP1 SWAP3 SWAP2 SWAP1 DUP2 DUP2 MSTORE PUSH1 0x20 ADD DUP3 DUP1 SLOAD PUSH2 0xBCF SWAP1 PUSH2 0x1376 JUMP JUMPDEST DUP1 ISZERO PUSH2 0xC1A JUMPI DUP1 PUSH1 0x1F LT PUSH2 0xBF1 JUMPI PUSH2 0x100 DUP1 DUP4 SLOAD DIV MUL DUP4 MSTORE SWAP2 PUSH1 0x20 ADD SWAP2 PUSH2 0xC1A JUMP JUMPDEST DUP3 ADD SWAP2 SWAP1 PUSH0 MSTORE PUSH1 0x20 PUSH0 KECCAK256 SWAP1 JUMPDEST DUP2 SLOAD DUP2 MSTORE SWAP1 PUSH1 0x1 ADD SWAP1 PUSH1 0x20 ADD DUP1 DUP4 GT PUSH2 0xBFD JUMPI DUP3 SWAP1 SUB PUSH1 0x1F AND DUP3 ADD SWAP2 JUMPDEST POP POP POP POP POP SWAP1 DUP1 PUSH1 0x2 ADD DUP1 SLOAD PUSH2 0xC2F SWAP1 PUSH2 0x1376 JUMP JUMPDEST DUP1 PUSH1 0x1F ADD PUSH1 0x20 DUP1 SWAP2 DIV MUL PUSH1 0x20 ADD PUSH1 0x40 MLOAD SWAP1 DUP2 ADD PUSH1 0x40 MSTORE DUP1 SWAP3 SWAP2 SWAP1 DUP2 DUP2 MSTORE PUSH1 0x20 ADD DUP3 DUP1 SLOAD PUSH2 0xC5B SWAP1 PUSH2 0x1376 JUMP JUMPDEST DUP1 ISZERO PUSH2 0xCA6 JUMPI DUP1 PUSH1 0x1F LT PUSH2 0xC7D JUMPI PUSH2 0x100 DUP1 DUP4 SLOAD DIV MUL DUP4 MSTORE SWAP2 PUSH1 0x20 ADD SWAP2 PUSH2 0xCA6 JUMP JUMPDEST DUP3 ADD SWAP2 SWAP1 PUSH0 MSTORE PUSH1 0x20 PUSH0 KECCAK256 SWAP1 JUMPDEST DUP2 SLOAD DUP2 MSTORE SWAP1 PUSH1 0x1 ADD SWAP1 PUSH1 0x20 ADD DUP1 DUP4 GT PUSH2 0xC89 JUMPI DUP3 SWAP1 SUB PUSH1 0x1F AND DUP3 ADD SWAP2 JUMPDEST POP POP POP POP POP SWAP1 DUP1 PUSH1 0x3 ADD DUP1 SLOAD PUSH2 0xCBB SWAP1 PUSH2 0x1376 JUMP JUMPDEST DUP1 PUSH1 0x1F ADD PUSH1 0x20 DUP1 SWAP2 DIV MUL PUSH1 0x20 ADD PUSH1 0x40 MLOAD SWAP1 DUP2 ADD PUSH1 0x40 MSTORE DUP1 SWAP3 SWAP2 SWAP1 DUP2 DUP2 MSTORE PUSH1 0x20 ADD DUP3 DUP1 SLOAD PUSH2 0xCE7 SWAP1 PUSH2 0x1376 JUMP JUMPDEST DUP1 ISZERO PUSH2 0xD32 JUMPI DUP1 PUSH1 0x1F LT PUSH2 0xD09 JUMPI PUSH2 0x100 DUP1 DUP4 SLOAD DIV MUL DUP4 MSTORE SWAP2 PUSH1 0x20 ADD SWAP2 PUSH2 0xD32 JUMP JUMPDEST DUP3 ADD SWAP2 SWAP1 PUSH0 MSTORE PUSH1 0x20 PUSH0 KECCAK256 SWAP1 JUMPDEST DUP2 SLOAD DUP2 MSTORE SWAP1 PUSH1 0x1 ADD SWAP1 PUSH1 0x20 ADD DUP1 DUP4 GT PUSH2 0xD15 JUMPI DUP3 SWAP1 SUB PUSH1 0x1F AND DUP3 ADD SWAP2 JUMPDEST POP POP POP POP POP SWAP1 DUP1 PUSH1 0x4 ADD DUP1 SLOAD PUSH2 0xD47 SWAP1 PUSH2 0x1376 JUMP JUMPDEST DUP1 PUSH1 0x1F ADD PUSH1 0x20 DUP1 SWAP2 DIV MUL PUSH1 0x20 ADD PUSH1 0x40 MLOAD SWAP1 DUP2 ADD PUSH1 0x40 MSTORE DUP1 SWAP3 SWAP2 SWAP1 DUP2 DUP2 MSTORE PUSH1 0x20 ADD DUP3 DUP1 SLOAD PUSH2 0xD73 SWAP1 PUSH2 0x1376 JUMP JUMPDEST DUP1 ISZERO PUSH2 0xDBE JUMPI DUP1 PUSH1 0x1F LT PUSH2 0xD95 JUMPI PUSH2 0x100 DUP1 DUP4 SLOAD DIV MUL DUP4 MSTORE SWAP2 PUSH1 0x20 ADD SWAP2 PUSH2 0xDBE JUMP JUMPDEST DUP3 ADD SWAP2 SWAP1 PUSH0 MSTORE PUSH1 0x20 PUSH0 KECCAK256 SWAP1 JUMPDEST DUP2 SLOAD DUP2 MSTORE SWAP1 PUSH1 0x1 ADD SWAP1 PUSH1 0x20 ADD DUP1 DUP4 GT PUSH2 0xDA1 JUMPI DUP3 SWAP1 SUB PUSH1 0x1F AND DUP3 ADD SWAP2 JUMPDEST POP POP POP POP POP SWAP1 DUP1 PUSH1 0x5 ADD PUSH0 SWAP1 SLOAD SWAP1 PUSH2 0x100 EXP SWAP1 DIV PUSH20 0xFFFFFFFFFFFFFFFFFFFFFFFFFFFFFFFFFFFFFFFF AND SWAP1 DUP1 PUSH1 0x5 ADD PUSH1 0x14 SWAP1 SLOAD SWAP1 PUSH2 0x100 EXP SWAP1 DIV PUSH1 0xFF AND SWAP1 DUP1 PUSH1 0x5 ADD PUSH1 0x15 SWAP1 SLOAD SWAP1 PUSH2 0x100 EXP SWAP1 DIV PUSH1 0xFF AND SWAP1 POP DUP9 JUMP JUMPDEST PUSH0 PUSH0 REVERT JUMPDEST PUSH0 PUSH0 REVERT JUMPDEST PUSH0 PUSH0 REVERT JUMPDEST PUSH0 PUSH0 REVERT JUMPDEST PUSH0 PUSH0 REVERT JUMPDEST PUSH0 PUSH0 DUP4 PUSH1 0x1F DUP5 ADD SLT PUSH2 0xE3C JUMPI PUSH2 0xE3B PUSH2 0xE1B JUMP JUMPDEST JUMPDEST DUP3 CALLDATALOAD SWAP1 POP PUSH8 0xFFFFFFFFFFFFFFFF DUP2 GT ISZERO PUSH2 0xE59 JUMPI PUSH2 0xE58 PUSH2 0xE1F JUMP JUMPDEST JUMPDEST PUSH1 0x20 DUP4 ADD SWAP2 POP DUP4 PUSH1 0x1 DUP3 MUL DUP4 ADD GT ISZERO PUSH2 0xE75 JUMPI PUSH2 0xE74 PUSH2 0xE23 JUMP JUMPDEST JUMPDEST SWAP3 POP SWAP3 SWAP1 POP JUMP JUMPDEST PUSH0 PUSH0 PUSH0 PUSH0 PUSH0 PUSH0 PUSH0 PUSH0 PUSH1 0x80 DUP10 DUP12 SUB SLT ISZERO PUSH2 0xE98 JUMPI PUSH2 0xE97 PUSH2 0xE13 JUMP JUMPDEST JUMPDEST PUSH0 DUP10 ADD CALLDATALOAD PUSH8 0xFFFFFFFFFFFFFFFF DUP2 GT ISZERO PUSH2 0xEB5 JUMPI PUSH2 0xEB4 PUSH2 0xE17 JUMP JUMPDEST JUMPDEST PUSH2 0xEC1 DUP12 DUP3 DUP13 ADD PUSH2 0xE27 JUMP JUMPDEST SWAP9 POP SWAP9 POP POP PUSH1 0x20 DUP10 ADD CALLDATALOAD PUSH8 0xFFFFFFFFFFFFFFFF DUP2 GT ISZERO PUSH2 0xEE4 JUMPI PUSH2 0xEE3 PUSH2 0xE17 JUMP JUMPDEST JUMPDEST PUSH2 0xEF0 DUP12 DUP3 DUP13 ADD PUSH2 0xE27 JUMP JUMPDEST SWAP7 POP SWAP7 POP POP PUSH1 0x40 DUP10 ADD CALLDATALOAD PUSH8 0xFFFFFFFFFFFFFFFF DUP2 GT ISZERO PUSH2 0xF13 JUMPI PUSH2 0xF12 PUSH2 0xE17 JUMP JUMPDEST JUMPDEST PUSH2 0xF1F DUP12 DUP3 DUP13 ADD PUSH2 0xE27 JUMP JUMPDEST SWAP5 POP SWAP5 POP POP PUSH1 0x60 DUP10 ADD CALLDATALOAD PUSH8 0xFFFFFFFFFFFFFFFF DUP2 GT ISZERO PUSH2 0xF42 JUMPI PUSH2 0xF41 PUSH2 0xE17 JUMP JUMPDEST JUMPDEST PUSH2 0xF4E DUP12 DUP3 DUP13 ADD PUSH2 0xE27 JUMP JUMPDEST SWAP3 POP SWAP3 POP POP SWAP3 SWAP6 SWAP9 POP SWAP3 SWAP6 SWAP9 SWAP1 SWAP4 SWAP7 POP JUMP JUMPDEST PUSH0 PUSH20 0xFFFFFFFFFFFFFFFFFFFFFFFFFFFFFFFFFFFFFFFF DUP3 AND SWAP1 POP SWAP2 SWAP1 POP JUMP JUMPDEST PUSH0 PUSH2 0xF89 DUP3 PUSH2 0xF60 JUMP JUMPDEST SWAP1 POP SWAP2 SWAP1 POP JUMP JUMPDEST PUSH2 0xF99 DUP2 PUSH2 0xF7F JUMP JUMPDEST DUP2 EQ PUSH2 0xFA3 JUMPI PUSH0 PUSH0 REVERT JUMPDEST POP JUMP JUMPDEST PUSH0 DUP2 CALLDATALOAD SWAP1 POP PUSH2 0xFB4 DUP2 PUSH2 0xF90 JUMP JUMPDEST SWAP3 SWAP2 POP POP JUMP JUMPDEST PUSH0 PUSH1 0x20 DUP3 DUP5 SUB SLT ISZERO PUSH2 0xFCF JUMPI PUSH2 0xFCE PUSH2 0xE13 JUMP JUMPDEST JUMPDEST PUSH0 PUSH2 0xFDC DUP5 DUP3 DUP6 ADD PUSH2 0xFA6 JUMP JUMPDEST SWAP2 POP POP SWAP3 SWAP2 POP POP JUMP JUMPDEST PUSH0 DUP2 SWAP1 POP SWAP2 SWAP1 POP JUMP JUMPDEST PUSH2 0xFF7 DUP2 PUSH2 0xFE5 JUMP JUMPDEST DUP3 MSTORE POP POP JUMP JUMPDEST PUSH2 0x1006 DUP2 PUSH2 0xF7F JUMP JUMPDEST DUP3 MSTORE POP POP JUMP JUMPDEST PUSH0 DUP2 MLOAD SWAP1 POP SWAP2 SWAP1 POP JUMP JUMPDEST PUSH0 DUP3 DUP3 MSTORE PUSH1 0x20 DUP3 ADD SWAP1 POP SWAP3 SWAP2 POP POP JUMP JUMPDEST DUP3 DUP2 DUP4 MCOPY PUSH0 DUP4 DUP4 ADD MSTORE POP POP POP JUMP JUMPDEST PUSH0 PUSH1 0x1F NOT PUSH1 0x1F DUP4 ADD AND SWAP1 POP SWAP2 SWAP1 POP JUMP JUMPDEST PUSH0 PUSH2 0x104E DUP3 PUSH2 0x100C JUMP JUMPDEST PUSH2 0x1058 DUP2 DUP6 PUSH2 0x1016 JUMP JUMPDEST SWAP4 POP PUSH2 0x1068 DUP2 DUP6 PUSH1 0x20 DUP7 ADD PUSH2 0x1026 JUMP JUMPDEST PUSH2 0x1071 DUP2 PUSH2 0x1034 JUMP JUMPDEST DUP5 ADD SWAP2 POP POP SWAP3 SWAP2 POP POP JUMP JUMPDEST PUSH32 0x4E487B7100000000000000000000000000000000000000000000000000000000 PUSH0 MSTORE PUSH1 0x21 PUSH1 0x4 MSTORE PUSH1 0x24 PUSH0 REVERT JUMPDEST PUSH1 0x2 DUP2 LT PUSH2 0x10BA JUMPI PUSH2 0x10B9 PUSH2 0x107C JUMP JUMPDEST JUMPDEST POP JUMP JUMPDEST PUSH0 DUP2 SWAP1 POP PUSH2 0x10CA DUP3 PUSH2 0x10A9 JUMP JUMPDEST SWAP2 SWAP1 POP JUMP JUMPDEST PUSH0 PUSH2 0x10D9 DUP3 PUSH2 0x10BD JUMP JUMPDEST SWAP1 POP SWAP2 SWAP1 POP JUMP JUMPDEST PUSH2 0x10E9 DUP2 PUSH2 0x10CF JUMP JUMPDEST DUP3 MSTORE POP POP JUMP JUMPDEST PUSH0 PUSH1 0xE0 DUP3 ADD SWAP1 POP PUSH2 0x1102 PUSH0 DUP4 ADD DUP11 PUSH2 0xFEE JUMP JUMPDEST PUSH2 0x110F PUSH1 0x20 DUP4 ADD DUP10 PUSH2 0xFFD JUMP JUMPDEST DUP2 DUP2 SUB PUSH1 0x40 DUP4 ADD MSTORE PUSH2 0x1121 DUP2 DUP9 PUSH2 0x1044 JUMP JUMPDEST SWAP1 POP DUP2 DUP2 SUB PUSH1 0x60 DUP4 ADD MSTORE PUSH2 0x1135 DUP2 DUP8 PUSH2 0x1044 JUMP JUMPDEST SWAP1 POP DUP2 DUP2 SUB PUSH1 0x80 DUP4 ADD MSTORE PUSH2 0x1149 DUP2 DUP7 PUSH2 0x1044 JUMP JUMPDEST SWAP1 POP DUP2 DUP2 SUB PUSH1 0xA0 DUP4 ADD MSTORE PUSH2 0x115D DUP2 DUP6 PUSH2 0x1044 JUMP JUMPDEST SWAP1 POP PUSH2 0x116C PUSH1 0xC0 DUP4 ADD DUP5 PUSH2 0x10E0 JUMP JUMPDEST SWAP9 SWAP8 POP POP POP POP POP POP POP POP JUMP JUMPDEST PUSH0 DUP2 ISZERO ISZERO SWAP1 POP SWAP2 SWAP1 POP JUMP JUMPDEST PUSH2 0x118C DUP2 PUSH2 0x1178 JUMP JUMPDEST DUP3 MSTORE POP POP JUMP JUMPDEST PUSH0 PUSH2 0x100 DUP3 ADD SWAP1 POP PUSH2 0x11A6 PUSH0 DUP4 ADD DUP12 PUSH2 0xFEE JUMP JUMPDEST DUP2 DUP2 SUB PUSH1 0x20 DUP4 ADD MSTORE PUSH2 0x11B8 DUP2 DUP11 PUSH2 0x1044 JUMP JUMPDEST SWAP1 POP DUP2 DUP2 SUB PUSH1 0x40 DUP4 ADD MSTORE PUSH2 0x11CC DUP2 DUP10 PUSH2 0x1044 JUMP JUMPDEST SWAP1 POP DUP2 DUP2 SUB PUSH1 0x60 DUP4 ADD MSTORE PUSH2 0x11E0 DUP2 DUP9 PUSH2 0x1044 JUMP JUMPDEST SWAP1 POP DUP2 DUP2 SUB PUSH1 0x80 DUP4 ADD MSTORE PUSH2 0x11F4 DUP2 DUP8 PUSH2 0x1044 JUMP JUMPDEST SWAP1 POP PUSH2 0x1203 PUSH1 0xA0 DUP4 ADD DUP7 PUSH2 0xFFD JUMP JUMPDEST PUSH2 0x1210 PUSH1 0xC0 DUP4 ADD DUP6 PUSH2 0x1183 JUMP JUMPDEST PUSH2 0x121D PUSH1 0xE0 DUP4 ADD DUP5 PUSH2 0x10E0 JUMP JUMPDEST SWAP10 SWAP9 POP POP POP POP POP POP POP POP POP JUMP JUMPDEST PUSH0 DUP2 SWAP1 POP SWAP3 SWAP2 POP POP JUMP JUMPDEST DUP3 DUP2 DUP4 CALLDATACOPY PUSH0 DUP4 DUP4 ADD MSTORE POP POP POP JUMP JUMPDEST PUSH0 PUSH2 0x124D DUP4 DUP6 PUSH2 0x122A JUMP JUMPDEST SWAP4 POP PUSH2 0x125A DUP4 DUP6 DUP5 PUSH2 0x1234 JUMP JUMPDEST DUP3 DUP5 ADD SWAP1 POP SWAP4 SWAP3 POP POP POP JUMP JUMPDEST PUSH0 PUSH2 0x1272 DUP3 DUP5 DUP7 PUSH2 0x1242 JUMP JUMPDEST SWAP2 POP DUP2 SWAP1 POP SWAP4 SWAP3 POP POP POP JUMP JUMPDEST PUSH0 PUSH1 0x20 DUP3 ADD SWAP1 POP DUP2 DUP2 SUB PUSH0 DUP4 ADD MSTORE PUSH2 0x1296 DUP2 DUP5 PUSH2 0x1044 JUMP JUMPDEST SWAP1 POP SWAP3 SWAP2 POP POP JUMP JUMPDEST PUSH32 0x4E487B7100000000000000000000000000000000000000000000000000000000 PUSH0 MSTORE PUSH1 0x11 PUSH1 0x4 MSTORE PUSH1 0x24 PUSH0 REVERT JUMPDEST PUSH0 PUSH2 0x12D5 DUP3 PUSH2 0xFE5 JUMP JUMPDEST SWAP2 POP PUSH32 0xFFFFFFFFFFFFFFFFFFFFFFFFFFFFFFFFFFFFFFFFFFFFFFFFFFFFFFFFFFFFFFFF DUP3 SUB PUSH2 0x1307 JUMPI PUSH2 0x1306 PUSH2 0x129E JUMP JUMPDEST JUMPDEST PUSH1 0x1 DUP3 ADD SWAP1 POP SWAP2 SWAP1 POP JUMP JUMPDEST PUSH0 DUP3 SWAP1 POP SWAP3 SWAP2 POP POP JUMP JUMPDEST PUSH32 0x4E487B7100000000000000000000000000000000000000000000000000000000 PUSH0 MSTORE PUSH1 0x41 PUSH1 0x4 MSTORE PUSH1 0x24 PUSH0 REVERT JUMPDEST PUSH32 0x4E487B7100000000000000000000000000000000000000000000000000000000 PUSH0 MSTORE PUSH1 0x22 PUSH1 0x4 MSTORE PUSH1 0x24 PUSH0 REVERT JUMPDEST PUSH0 PUSH1 0x2 DUP3 DIV SWAP1 POP PUSH1 0x1 DUP3 AND DUP1 PUSH2 0x138D JUMPI PUSH1 0x7F DUP3 AND SWAP2 POP JUMPDEST PUSH1 0x20 DUP3 LT DUP2 SUB PUSH2 0x13A0 JUMPI PUSH2 0x139F PUSH2 0x1349 JUMP JUMPDEST JUMPDEST POP SWAP2 SWAP1 POP JUMP JUMPDEST PUSH0 DUP2 SWAP1 POP DUP2 PUSH0 MSTORE PUSH1 0x20 PUSH0 KECCAK256 SWAP1 POP SWAP2 SWAP1 POP JUMP JUMPDEST PUSH0 PUSH1 0x20 PUSH1 0x1F DUP4 ADD DIV SWAP1 POP SWAP2 SWAP1 POP JUMP JUMPDEST PUSH0 DUP3 DUP3 SHL SWAP1 POP SWAP3 SWAP2 POP POP JUMP JUMPDEST PUSH0 PUSH1 0x8 DUP4 MUL PUSH2 0x1402 PUSH32 0xFFFFFFFFFFFFFFFFFFFFFFFFFFFFFFFFFFFFFFFFFFFFFFFFFFFFFFFFFFFFFFFF DUP3 PUSH2 0x13C7 JUMP JUMPDEST PUSH2 0x140C DUP7 DUP4 PUSH2 0x13C7 JUMP JUMPDEST SWAP6 POP DUP1 NOT DUP5 AND SWAP4 POP DUP1 DUP7 AND DUP5 OR SWAP3 POP POP POP SWAP4 SWAP3 POP POP POP JUMP JUMPDEST PUSH0 DUP2 SWAP1 POP SWAP2 SWAP1 POP JUMP JUMPDEST PUSH0 PUSH2 0x1447 PUSH2 0x1442 PUSH2 0x143D DUP5 PUSH2 0xFE5 JUMP JUMPDEST PUSH2 0x1424 JUMP JUMPDEST PUSH2 0xFE5 JUMP JUMPDEST SWAP1 POP SWAP2 SWAP1 POP JUMP JUMPDEST PUSH0 DUP2 SWAP1 POP SWAP2 SWAP1 POP JUMP JUMPDEST PUSH2 0x1460 DUP4 PUSH2 0x142D JUMP JUMPDEST PUSH2 0x1474 PUSH2 0x146C DUP3 PUSH2 0x144E JUMP JUMPDEST DUP5 DUP5 SLOAD PUSH2 0x13D3 JUMP JUMPDEST DUP3 SSTORE POP POP POP POP JUMP JUMPDEST PUSH0 PUSH0 SWAP1 POP SWAP1 JUMP JUMPDEST PUSH2 0x148B PUSH2 0x147C JUMP JUMPDEST PUSH2 0x1496 DUP2 DUP5 DUP5 PUSH2 0x1457 JUMP JUMPDEST POP POP POP JUMP JUMPDEST JUMPDEST DUP2 DUP2 LT ISZERO PUSH2 0x14B9 JUMPI PUSH2 0x14AE PUSH0 DUP3 PUSH2 0x1483 JUMP JUMPDEST PUSH1 0x1 DUP2 ADD SWAP1 POP PUSH2 0x149C JUMP JUMPDEST POP POP JUMP JUMPDEST PUSH1 0x1F DUP3 GT ISZERO PUSH2 0x14FE JUMPI PUSH2 0x14CF DUP2 PUSH2 0x13A6 JUMP JUMPDEST PUSH2 0x14D8 DUP5 PUSH2 0x13B8 JUMP JUMPDEST DUP2 ADD PUSH1 0x20 DUP6 LT ISZERO PUSH2 0x14E7 JUMPI DUP2 SWAP1 POP JUMPDEST PUSH2 0x14FB PUSH2 0x14F3 DUP6 PUSH2 0x13B8 JUMP JUMPDEST DUP4 ADD DUP3 PUSH2 0x149B JUMP JUMPDEST POP POP JUMPDEST POP POP POP JUMP JUMPDEST PUSH0 DUP3 DUP3 SHR SWAP1 POP SWAP3 SWAP2 POP POP JUMP JUMPDEST PUSH0 PUSH2 0x151E PUSH0 NOT DUP5 PUSH1 0x8 MUL PUSH2 0x1503 JUMP JUMPDEST NOT DUP1 DUP4 AND SWAP2 POP POP SWAP3 SWAP2 POP POP JUMP JUMPDEST PUSH0 PUSH2 0x1536 DUP4 DUP4 PUSH2 0x150F JUMP JUMPDEST SWAP2 POP DUP3 PUSH1 0x2 MUL DUP3 OR SWAP1 POP SWAP3 SWAP2 POP POP JUMP JUMPDEST PUSH2 0x1550 DUP4 DUP4 PUSH2 0x1312 JUMP JUMPDEST PUSH8 0xFFFFFFFFFFFFFFFF DUP2 GT ISZERO PUSH2 0x1569 JUMPI PUSH2 0x1568 PUSH2 0x131C JUMP JUMPDEST JUMPDEST PUSH2 0x1573 DUP3 SLOAD PUSH2 0x1376 JUMP JUMPDEST PUSH2 0x157E DUP3 DUP3 DUP6 PUSH2 0x14BD JUMP JUMPDEST PUSH0 PUSH1 0x1F DUP4 GT PUSH1 0x1 DUP2 EQ PUSH2 0x15AB JUMPI PUSH0 DUP5 ISZERO PUSH2 0x1599 JUMPI DUP3 DUP8 ADD CALLDATALOAD SWAP1 POP JUMPDEST PUSH2 0x15A3 DUP6 DUP3 PUSH2 0x152B JUMP JUMPDEST DUP7 SSTORE POP PUSH2 0x160A JUMP JUMPDEST PUSH1 0x1F NOT DUP5 AND PUSH2 0x15B9 DUP7 PUSH2 0x13A6 JUMP JUMPDEST PUSH0 JUMPDEST DUP3 DUP2 LT ISZERO PUSH2 0x15E0 JUMPI DUP5 DUP10 ADD CALLDATALOAD DUP3 SSTORE PUSH1 0x1 DUP3 ADD SWAP2 POP PUSH1 0x20 DUP6 ADD SWAP5 POP PUSH1 0x20 DUP2 ADD SWAP1 POP PUSH2 0x15BB JUMP JUMPDEST DUP7 DUP4 LT ISZERO PUSH2 0x15FD JUMPI DUP5 DUP10 ADD CALLDATALOAD PUSH2 0x15F9 PUSH1 0x1F DUP10 AND DUP3 PUSH2 0x150F JUMP JUMPDEST DUP4 SSTORE POP JUMPDEST PUSH1 0x1 PUSH1 0x2 DUP9 MUL ADD DUP9 SSTORE POP POP POP JUMPDEST POP POP POP POP POP POP POP JUMP JUMPDEST PUSH0 PUSH1 0x20 DUP3 ADD SWAP1 POP PUSH2 0x1626 PUSH0 DUP4 ADD DUP5 PUSH2 0xFEE JUMP JUMPDEST SWAP3 SWAP2 POP POP JUMP INVALID LOG2 PUSH5 0x6970667358 0x22 SLT KECCAK256 DELEGATECALL 0xC7 PUSH14 0x70F183D5FD4FB133A61AE555B44D PUSH14 0x3C3301377F1F29CF0E1DCD01B7BC PUSH5 0x736F6C6343 STOP ADDMOD 0x1E STOP CALLER "
				},
				"gasEstimates": {
					"creation": {
						"codeDepositCost": "1146000",
						"executionCost": "25456",
						"totalCost": "1171456"
					},
					"external": {
						"applicantProfiles(address)": "infinite",
						"createApplicantProfile(string,string,string,string)": "infinite",
						"createCreatorProfile(string,string,string,string)": "infinite",
						"creatorProfiles(address)": "infinite"
					}
				},
				"methodIdentifiers": {
					"applicantProfiles(address)": "92b2a791",
					"createApplicantProfile(string,string,string,string)": "87e6446f",
					"createCreatorProfile(string,string,string,string)": "2ae4bc55",
					"creatorProfiles(address)": "95b04be2"
				}
			},
			"storageLayout": {
				"storage": [
					{
						"astId": 19,
						"contract": "soljobs.sol:SolJobs",
						"label": "manager",
						"offset": 0,
						"slot": "0",
						"type": "t_address"
					},
					{
						"astId": 24,
						"contract": "soljobs.sol:SolJobs",
						"label": "creatorProfiles",
						"offset": 0,
						"slot": "1",
						"type": "t_mapping(t_address,t_struct(CreatorProfile)313_storage)"
					},
					{
						"astId": 29,
						"contract": "soljobs.sol:SolJobs",
						"label": "applicantProfiles",
						"offset": 0,
						"slot": "2",
						"type": "t_mapping(t_address,t_struct(ApplicantProfile)332_storage)"
					},
					{
						"astId": 31,
						"contract": "soljobs.sol:SolJobs",
						"label": "numberOfCreatorProfiles",
						"offset": 0,
						"slot": "3",
						"type": "t_uint256"
					},
					{
						"astId": 33,
						"contract": "soljobs.sol:SolJobs",
						"label": "numberOfApplicantProfiles",
						"offset": 0,
						"slot": "4",
						"type": "t_uint256"
					},
					{
						"astId": 37,
						"contract": "soljobs.sol:SolJobs",
						"label": "creatorEmails",
						"offset": 0,
						"slot": "5",
						"type": "t_mapping(t_string_memory_ptr,t_bool)"
					},
					{
						"astId": 41,
						"contract": "soljobs.sol:SolJobs",
						"label": "applicantEmails",
						"offset": 0,
						"slot": "6",
						"type": "t_mapping(t_string_memory_ptr,t_bool)"
					},
					{
						"astId": 45,
						"contract": "soljobs.sol:SolJobs",
						"label": "creatorAddresses",
						"offset": 0,
						"slot": "7",
						"type": "t_mapping(t_address,t_bool)"
					},
					{
						"astId": 49,
						"contract": "soljobs.sol:SolJobs",
						"label": "applicantAddresses",
						"offset": 0,
						"slot": "8",
						"type": "t_mapping(t_address,t_bool)"
					}
				],
				"types": {
					"t_address": {
						"encoding": "inplace",
						"label": "address",
						"numberOfBytes": "20"
					},
					"t_array(t_uint256)dyn_storage": {
						"base": "t_uint256",
						"encoding": "dynamic_array",
						"label": "uint256[]",
						"numberOfBytes": "32"
					},
					"t_bool": {
						"encoding": "inplace",
						"label": "bool",
						"numberOfBytes": "1"
					},
					"t_enum(ProfileType)12": {
						"encoding": "inplace",
						"label": "enum ProfileType",
						"numberOfBytes": "1"
					},
					"t_mapping(t_address,t_bool)": {
						"encoding": "mapping",
						"key": "t_address",
						"label": "mapping(address => bool)",
						"numberOfBytes": "32",
						"value": "t_bool"
					},
					"t_mapping(t_address,t_struct(ApplicantProfile)332_storage)": {
						"encoding": "mapping",
						"key": "t_address",
						"label": "mapping(address => struct ApplicantProfile)",
						"numberOfBytes": "32",
						"value": "t_struct(ApplicantProfile)332_storage"
					},
					"t_mapping(t_address,t_struct(CreatorProfile)313_storage)": {
						"encoding": "mapping",
						"key": "t_address",
						"label": "mapping(address => struct CreatorProfile)",
						"numberOfBytes": "32",
						"value": "t_struct(CreatorProfile)313_storage"
					},
					"t_mapping(t_string_memory_ptr,t_bool)": {
						"encoding": "mapping",
						"key": "t_string_memory_ptr",
						"label": "mapping(string => bool)",
						"numberOfBytes": "32",
						"value": "t_bool"
					},
					"t_string_memory_ptr": {
						"encoding": "bytes",
						"label": "string",
						"numberOfBytes": "32"
					},
					"t_string_storage": {
						"encoding": "bytes",
						"label": "string",
						"numberOfBytes": "32"
					},
					"t_struct(ApplicantProfile)332_storage": {
						"encoding": "inplace",
						"label": "struct ApplicantProfile",
						"members": [
							{
								"astId": 315,
								"contract": "soljobs.sol:SolJobs",
								"label": "id",
								"offset": 0,
								"slot": "0",
								"type": "t_uint256"
							},
							{
								"astId": 317,
								"contract": "soljobs.sol:SolJobs",
								"label": "applicantAddress",
								"offset": 0,
								"slot": "1",
								"type": "t_address"
							},
							{
								"astId": 319,
								"contract": "soljobs.sol:SolJobs",
								"label": "fullname",
								"offset": 0,
								"slot": "2",
								"type": "t_string_storage"
							},
							{
								"astId": 321,
								"contract": "soljobs.sol:SolJobs",
								"label": "email",
								"offset": 0,
								"slot": "3",
								"type": "t_string_storage"
							},
							{
								"astId": 323,
								"contract": "soljobs.sol:SolJobs",
								"label": "location",
								"offset": 0,
								"slot": "4",
								"type": "t_string_storage"
							},
							{
								"astId": 325,
								"contract": "soljobs.sol:SolJobs",
								"label": "bio",
								"offset": 0,
								"slot": "5",
								"type": "t_string_storage"
							},
							{
								"astId": 328,
								"contract": "soljobs.sol:SolJobs",
								"label": "profileType",
								"offset": 0,
								"slot": "6",
								"type": "t_enum(ProfileType)12"
							},
							{
								"astId": 331,
								"contract": "soljobs.sol:SolJobs",
								"label": "applicationIDs",
								"offset": 0,
								"slot": "7",
								"type": "t_array(t_uint256)dyn_storage"
							}
						],
						"numberOfBytes": "256"
					},
					"t_struct(CreatorProfile)313_storage": {
						"encoding": "inplace",
						"label": "struct CreatorProfile",
						"members": [
							{
								"astId": 294,
								"contract": "soljobs.sol:SolJobs",
								"label": "id",
								"offset": 0,
								"slot": "0",
								"type": "t_uint256"
							},
							{
								"astId": 296,
								"contract": "soljobs.sol:SolJobs",
								"label": "email",
								"offset": 0,
								"slot": "1",
								"type": "t_string_storage"
							},
							{
								"astId": 298,
								"contract": "soljobs.sol:SolJobs",
								"label": "name",
								"offset": 0,
								"slot": "2",
								"type": "t_string_storage"
							},
							{
								"astId": 300,
								"contract": "soljobs.sol:SolJobs",
								"label": "tagline",
								"offset": 0,
								"slot": "3",
								"type": "t_string_storage"
							},
							{
								"astId": 302,
								"contract": "soljobs.sol:SolJobs",
								"label": "description",
								"offset": 0,
								"slot": "4",
								"type": "t_string_storage"
							},
							{
								"astId": 304,
								"contract": "soljobs.sol:SolJobs",
								"label": "creatorAddress",
								"offset": 0,
								"slot": "5",
								"type": "t_address"
							},
							{
								"astId": 306,
								"contract": "soljobs.sol:SolJobs",
								"label": "verified",
								"offset": 20,
								"slot": "5",
								"type": "t_bool"
							},
							{
								"astId": 309,
								"contract": "soljobs.sol:SolJobs",
								"label": "profileType",
								"offset": 21,
								"slot": "5",
								"type": "t_enum(ProfileType)12"
							},
							{
								"astId": 312,
								"contract": "soljobs.sol:SolJobs",
								"label": "jobOfferIDs",
								"offset": 0,
								"slot": "6",
								"type": "t_array(t_uint256)dyn_storage"
							}
						],
						"numberOfBytes": "224"
					},
					"t_uint256": {
						"encoding": "inplace",
						"label": "uint256",
						"numberOfBytes": "32"
					}
				}
			},
			"userdoc": {
				"kind": "user",
				"methods": {},
				"version": 1
			}
		}
	}
}