{
	"soljobs.sol": {
		"SolJobs": {
			"abi": [
				{
					"inputs": [],
					"stateMutability": "nonpayable",
					"type": "constructor"
				},
				{
					"anonymous": false,
					"inputs": [
						{
							"indexed": false,
							"internalType": "uint256",
							"name": "newApplicantID",
							"type": "uint256"
						}
					],
					"name": "ApplicantProfileCreated",
					"type": "event"
				},
				{
					"anonymous": false,
					"inputs": [
						{
							"indexed": false,
							"internalType": "uint256",
							"name": "applicationID",
							"type": "uint256"
						}
					],
					"name": "ApplicationSubmitted",
					"type": "event"
				},
				{
					"anonymous": false,
					"inputs": [
						{
							"indexed": false,
							"internalType": "uint256",
							"name": "newCreatorID",
							"type": "uint256"
						}
					],
					"name": "CreatorProfileCreated",
					"type": "event"
				},
				{
					"anonymous": false,
					"inputs": [
						{
							"indexed": false,
							"internalType": "uint256",
							"name": "newJobID",
							"type": "uint256"
						}
					],
					"name": "JobCreated",
					"type": "event"
				},
				{
					"inputs": [
						{
							"internalType": "address",
							"name": "",
							"type": "address"
						}
					],
					"name": "applicantProfiles",
					"outputs": [
						{
							"internalType": "uint256",
							"name": "id",
							"type": "uint256"
						},
						{
							"internalType": "address",
							"name": "applicantAddress",
							"type": "address"
						},
						{
							"internalType": "string",
							"name": "fullname",
							"type": "string"
						},
						{
							"internalType": "string",
							"name": "email",
							"type": "string"
						},
						{
							"internalType": "string",
							"name": "location",
							"type": "string"
						},
						{
							"internalType": "string",
							"name": "bio",
							"type": "string"
						},
						{
							"internalType": "enum ProfileType",
							"name": "profileType",
							"type": "uint8"
						}
					],
					"stateMutability": "view",
					"type": "function"
				},
				{
					"inputs": [
						{
							"internalType": "uint256",
							"name": "jobID",
							"type": "uint256"
						},
						{
							"internalType": "string",
							"name": "coverLetter",
							"type": "string"
						}
					],
					"name": "applyForAJob",
					"outputs": [],
					"stateMutability": "nonpayable",
					"type": "function"
				},
				{
					"inputs": [
						{
							"internalType": "uint256",
							"name": "applicationID",
							"type": "uint256"
						}
					],
					"name": "approveApplication",
					"outputs": [],
					"stateMutability": "nonpayable",
					"type": "function"
				},
				{
					"inputs": [
						{
							"internalType": "string",
							"name": "_fullname",
							"type": "string"
						},
						{
							"internalType": "string",
							"name": "_email",
							"type": "string"
						},
						{
							"internalType": "string",
							"name": "_location",
							"type": "string"
						},
						{
							"internalType": "string",
							"name": "_bio",
							"type": "string"
						}
					],
					"name": "createApplicantProfile",
					"outputs": [],
					"stateMutability": "nonpayable",
					"type": "function"
				},
				{
					"inputs": [
						{
							"internalType": "string",
							"name": "_name",
							"type": "string"
						},
						{
							"internalType": "string",
							"name": "_email",
							"type": "string"
						},
						{
							"internalType": "string",
							"name": "_description",
							"type": "string"
						},
						{
							"internalType": "string",
							"name": "_tagline",
							"type": "string"
						}
					],
					"name": "createCreatorProfile",
					"outputs": [],
					"stateMutability": "nonpayable",
					"type": "function"
				},
				{
					"inputs": [
						{
							"internalType": "string",
							"name": "title",
							"type": "string"
						},
						{
							"internalType": "string",
							"name": "description",
							"type": "string"
						},
						{
							"internalType": "uint256",
							"name": "compensation",
							"type": "uint256"
						},
						{
							"internalType": "uint256",
							"name": "numberOfMaxHires",
							"type": "uint256"
						}
					],
					"name": "createJobOffer",
					"outputs": [],
					"stateMutability": "nonpayable",
					"type": "function"
				},
				{
					"inputs": [
						{
							"internalType": "address",
							"name": "",
							"type": "address"
						}
					],
					"name": "creatorProfiles",
					"outputs": [
						{
							"internalType": "uint256",
							"name": "id",
							"type": "uint256"
						},
						{
							"internalType": "string",
							"name": "email",
							"type": "string"
						},
						{
							"internalType": "string",
							"name": "name",
							"type": "string"
						},
						{
							"internalType": "string",
							"name": "tagline",
							"type": "string"
						},
						{
							"internalType": "string",
							"name": "description",
							"type": "string"
						},
						{
							"internalType": "address",
							"name": "creatorAddress",
							"type": "address"
						},
						{
							"internalType": "bool",
							"name": "verified",
							"type": "bool"
						},
						{
							"internalType": "enum ProfileType",
							"name": "profileType",
							"type": "uint8"
						}
					],
					"stateMutability": "view",
					"type": "function"
				},
				{
					"inputs": [
						{
							"internalType": "uint256",
							"name": "",
							"type": "uint256"
						}
					],
					"name": "jobApplications",
					"outputs": [
						{
							"internalType": "uint256",
							"name": "id",
							"type": "uint256"
						},
						{
							"internalType": "uint256",
							"name": "jobOfferId",
							"type": "uint256"
						},
						{
							"internalType": "string",
							"name": "coverLetter",
							"type": "string"
						},
						{
							"components": [
								{
									"internalType": "uint256",
									"name": "id",
									"type": "uint256"
								},
								{
									"internalType": "address",
									"name": "applicantAddress",
									"type": "address"
								},
								{
									"internalType": "string",
									"name": "fullname",
									"type": "string"
								},
								{
									"internalType": "string",
									"name": "email",
									"type": "string"
								},
								{
									"internalType": "string",
									"name": "location",
									"type": "string"
								},
								{
									"internalType": "string",
									"name": "bio",
									"type": "string"
								},
								{
									"internalType": "enum ProfileType",
									"name": "profileType",
									"type": "uint8"
								},
								{
									"internalType": "uint256[]",
									"name": "applicationIDs",
									"type": "uint256[]"
								}
							],
							"internalType": "struct ApplicantProfile",
							"name": "applicant",
							"type": "tuple"
						},
						{
							"internalType": "enum JobApplicationStatus",
							"name": "status",
							"type": "uint8"
						}
					],
					"stateMutability": "view",
					"type": "function"
				},
				{
					"inputs": [
						{
							"internalType": "uint256",
							"name": "",
							"type": "uint256"
						}
					],
					"name": "jobOffers",
					"outputs": [
						{
							"internalType": "uint256",
							"name": "id",
							"type": "uint256"
						},
						{
							"internalType": "string",
							"name": "title",
							"type": "string"
						},
						{
							"internalType": "string",
							"name": "description",
							"type": "string"
						},
						{
							"internalType": "uint256",
							"name": "compensation",
							"type": "uint256"
						},
						{
							"components": [
								{
									"internalType": "uint256",
									"name": "id",
									"type": "uint256"
								},
								{
									"internalType": "string",
									"name": "email",
									"type": "string"
								},
								{
									"internalType": "string",
									"name": "name",
									"type": "string"
								},
								{
									"internalType": "string",
									"name": "tagline",
									"type": "string"
								},
								{
									"internalType": "string",
									"name": "description",
									"type": "string"
								},
								{
									"internalType": "address",
									"name": "creatorAddress",
									"type": "address"
								},
								{
									"internalType": "bool",
									"name": "verified",
									"type": "bool"
								},
								{
									"internalType": "enum ProfileType",
									"name": "profileType",
									"type": "uint8"
								},
								{
									"internalType": "uint256[]",
									"name": "jobOfferIDs",
									"type": "uint256[]"
								}
							],
							"internalType": "struct CreatorProfile",
							"name": "creator",
							"type": "tuple"
						},
						{
							"internalType": "enum JobOfferStatus",
							"name": "status",
							"type": "uint8"
						},
						{
							"internalType": "uint256",
							"name": "numberOfMaxHires",
							"type": "uint256"
						},
						{
							"internalType": "uint256",
							"name": "numberHired",
							"type": "uint256"
						}
					],
					"stateMutability": "view",
					"type": "function"
				},
				{
					"inputs": [
						{
							"internalType": "uint256",
							"name": "applicationID",
							"type": "uint256"
						}
					],
					"name": "rejectApplication",
					"outputs": [],
					"stateMutability": "nonpayable",
					"type": "function"
				}
			],
			"devdoc": {
				"details": "Create, apply and award remote jobs on the blockchain",
				"kind": "dev",
				"methods": {},
				"title": "SolJobs",
				"version": 1
			},
			"evm": {
				"assembly": "    /* \"soljobs.sol\":210:6086  contract SolJobs {... */\n  mstore(0x40, 0x80)\n    /* \"soljobs.sol\":883:934  constructor() {... */\n  callvalue\n  dup1\n  iszero\n  tag_1\n  jumpi\n  revert(0x00, 0x00)\ntag_1:\n  pop\n    /* \"soljobs.sol\":917:927  msg.sender */\n  caller\n    /* \"soljobs.sol\":907:914  manager */\n  0x00\n  0x00\n    /* \"soljobs.sol\":907:927  manager = msg.sender */\n  0x0100\n  exp\n  dup2\n  sload\n  dup2\n  0xffffffffffffffffffffffffffffffffffffffff\n  mul\n  not\n  and\n  swap1\n  dup4\n  0xffffffffffffffffffffffffffffffffffffffff\n  and\n  mul\n  or\n  swap1\n  sstore\n  pop\n    /* \"soljobs.sol\":210:6086  contract SolJobs {... */\n  dataSize(sub_0)\n  dup1\n  dataOffset(sub_0)\n  0x00\n  codecopy\n  0x00\n  return\nstop\n\nsub_0: assembly {\n        /* \"soljobs.sol\":210:6086  contract SolJobs {... */\n      mstore(0x40, 0x80)\n      callvalue\n      dup1\n      iszero\n      tag_1\n      jumpi\n      revert(0x00, 0x00)\n    tag_1:\n      pop\n      jumpi(tag_2, lt(calldatasize, 0x04))\n      shr(0xe0, calldataload(0x00))\n      dup1\n      0x95b04be2\n      gt\n      tag_13\n      jumpi\n      dup1\n      0x95b04be2\n      eq\n      tag_8\n      jumpi\n      dup1\n      0xa7f718a0\n      eq\n      tag_9\n      jumpi\n      dup1\n      0xc5e83e97\n      eq\n      tag_10\n      jumpi\n      dup1\n      0xd4bb7d2e\n      eq\n      tag_11\n      jumpi\n      dup1\n      0xe06f7484\n      eq\n      tag_12\n      jumpi\n      jump(tag_2)\n    tag_13:\n      dup1\n      0x213fbf1b\n      eq\n      tag_3\n      jumpi\n      dup1\n      0x2ae4bc55\n      eq\n      tag_4\n      jumpi\n      dup1\n      0x699687cf\n      eq\n      tag_5\n      jumpi\n      dup1\n      0x87e6446f\n      eq\n      tag_6\n      jumpi\n      dup1\n      0x92b2a791\n      eq\n      tag_7\n      jumpi\n    tag_2:\n      revert(0x00, 0x00)\n        /* \"soljobs.sol\":5067:5791  function approveApplication(uint applicationID) external callerHasCreatorProfile(msg.sender) isJobStillOpen(jobApplications[applicationID].jobOfferId) {... */\n    tag_3:\n      tag_14\n      0x04\n      dup1\n      calldatasize\n      sub\n      dup2\n      add\n      swap1\n      tag_15\n      swap2\n      swap1\n      tag_16\n      jump\t// in\n    tag_15:\n      tag_17\n      jump\t// in\n    tag_14:\n      stop\n        /* \"soljobs.sol\":1952:2787  function createCreatorProfile(... */\n    tag_4:\n      tag_18\n      0x04\n      dup1\n      calldatasize\n      sub\n      dup2\n      add\n      swap1\n      tag_19\n      swap2\n      swap1\n      tag_20\n      jump\t// in\n    tag_19:\n      tag_21\n      jump\t// in\n    tag_18:\n      stop\n        /* \"soljobs.sol\":819:874  mapping (uint => JobApplication) public jobApplications */\n    tag_5:\n      tag_22\n      0x04\n      dup1\n      calldatasize\n      sub\n      dup2\n      add\n      swap1\n      tag_23\n      swap2\n      swap1\n      tag_16\n      jump\t// in\n    tag_23:\n      tag_24\n      jump\t// in\n    tag_22:\n      mload(0x40)\n      tag_25\n      swap6\n      swap5\n      swap4\n      swap3\n      swap2\n      swap1\n      tag_26\n      jump\t// in\n    tag_25:\n      mload(0x40)\n      dup1\n      swap2\n      sub\n      swap1\n      return\n        /* \"soljobs.sol\":2793:3617  function createApplicantProfile(... */\n    tag_6:\n      tag_27\n      0x04\n      dup1\n      calldatasize\n      sub\n      dup2\n      add\n      swap1\n      tag_28\n      swap2\n      swap1\n      tag_20\n      jump\t// in\n    tag_28:\n      tag_29\n      jump\t// in\n    tag_27:\n      stop\n        /* \"soljobs.sol\":328:390  mapping (address => ApplicantProfile) public applicantProfiles */\n    tag_7:\n      tag_30\n      0x04\n      dup1\n      calldatasize\n      sub\n      dup2\n      add\n      swap1\n      tag_31\n      swap2\n      swap1\n      tag_32\n      jump\t// in\n    tag_31:\n      tag_33\n      jump\t// in\n    tag_30:\n      mload(0x40)\n      tag_34\n      swap8\n      swap7\n      swap6\n      swap5\n      swap4\n      swap3\n      swap2\n      swap1\n      tag_35\n      jump\t// in\n    tag_34:\n      mload(0x40)\n      dup1\n      swap2\n      sub\n      swap1\n      return\n        /* \"soljobs.sol\":263:321  mapping (address => CreatorProfile) public creatorProfiles */\n    tag_8:\n      tag_36\n      0x04\n      dup1\n      calldatasize\n      sub\n      dup2\n      add\n      swap1\n      tag_37\n      swap2\n      swap1\n      tag_32\n      jump\t// in\n    tag_37:\n      tag_38\n      jump\t// in\n    tag_36:\n      mload(0x40)\n      tag_39\n      swap9\n      swap8\n      swap7\n      swap6\n      swap5\n      swap4\n      swap3\n      swap2\n      swap1\n      tag_40\n      jump\t// in\n    tag_39:\n      mload(0x40)\n      dup1\n      swap2\n      sub\n      swap1\n      return\n        /* \"soljobs.sol\":3623:4327  function createJobOffer(... */\n    tag_9:\n      tag_41\n      0x04\n      dup1\n      calldatasize\n      sub\n      dup2\n      add\n      swap1\n      tag_42\n      swap2\n      swap1\n      tag_43\n      jump\t// in\n    tag_42:\n      tag_44\n      jump\t// in\n    tag_41:\n      stop\n        /* \"soljobs.sol\":5797:6074  function rejectApplication(uint applicationID) external callerHasCreatorProfile(msg.sender) {... */\n    tag_10:\n      tag_45\n      0x04\n      dup1\n      calldatasize\n      sub\n      dup2\n      add\n      swap1\n      tag_46\n      swap2\n      swap1\n      tag_16\n      jump\t// in\n    tag_46:\n      tag_47\n      jump\t// in\n    tag_45:\n      stop\n        /* \"soljobs.sol\":4333:5061  function applyForAJob(... */\n    tag_11:\n      tag_48\n      0x04\n      dup1\n      calldatasize\n      sub\n      dup2\n      add\n      swap1\n      tag_49\n      swap2\n      swap1\n      tag_50\n      jump\t// in\n    tag_49:\n      tag_51\n      jump\t// in\n    tag_48:\n      stop\n        /* \"soljobs.sol\":738:781  mapping (uint => JobOffer) public jobOffers */\n    tag_12:\n      tag_52\n      0x04\n      dup1\n      calldatasize\n      sub\n      dup2\n      add\n      swap1\n      tag_53\n      swap2\n      swap1\n      tag_16\n      jump\t// in\n    tag_53:\n      tag_54\n      jump\t// in\n    tag_52:\n      mload(0x40)\n      tag_55\n      swap9\n      swap8\n      swap7\n      swap6\n      swap5\n      swap4\n      swap3\n      swap2\n      swap1\n      tag_56\n      jump\t// in\n    tag_55:\n      mload(0x40)\n      dup1\n      swap2\n      sub\n      swap1\n      return\n        /* \"soljobs.sol\":5067:5791  function approveApplication(uint applicationID) external callerHasCreatorProfile(msg.sender) isJobStillOpen(jobApplications[applicationID].jobOfferId) {... */\n    tag_17:\n        /* \"soljobs.sol\":5148:5158  msg.sender */\n      caller\n        /* \"soljobs.sol\":1345:1349  true */\n      0x01\n        /* \"soljobs.sol\":1315:1349  creatorAddresses[_address] == true */\n      iszero\n      iszero\n        /* \"soljobs.sol\":1315:1331  creatorAddresses */\n      0x07\n        /* \"soljobs.sol\":1315:1341  creatorAddresses[_address] */\n      0x00\n        /* \"soljobs.sol\":1332:1340  _address */\n      dup4\n        /* \"soljobs.sol\":1315:1341  creatorAddresses[_address] */\n      0xffffffffffffffffffffffffffffffffffffffff\n      and\n      0xffffffffffffffffffffffffffffffffffffffff\n      and\n      dup2\n      mstore\n      0x20\n      add\n      swap1\n      dup2\n      mstore\n      0x20\n      add\n      0x00\n      keccak256\n      0x00\n      swap1\n      sload\n      swap1\n      0x0100\n      exp\n      swap1\n      div\n      0xff\n      and\n        /* \"soljobs.sol\":1315:1349  creatorAddresses[_address] == true */\n      iszero\n      iszero\n      eq\n        /* \"soljobs.sol\":1351:1376  callerHasNoCreatorProfile */\n      mload(0x40)\n      dup1\n      0x60\n      add\n      0x40\n      mstore\n      dup1\n      0x2a\n      dup2\n      mstore\n      0x20\n      add\n      data_05dea7a4b749a72103fdaacfd8c830026d599fd95b58e235d7a5b87bda223903\n      0x2a\n      swap2\n      codecopy\n        /* \"soljobs.sol\":1307:1377  require(creatorAddresses[_address] == true, callerHasNoCreatorProfile) */\n      swap1\n      tag_58\n      jumpi\n      mload(0x40)\n      0x08c379a000000000000000000000000000000000000000000000000000000000\n      dup2\n      mstore\n      0x04\n      add\n      tag_59\n      swap2\n      swap1\n      tag_60\n      jump\t// in\n    tag_59:\n      mload(0x40)\n      dup1\n      swap2\n      sub\n      swap1\n      revert\n    tag_58:\n      pop\n        /* \"soljobs.sol\":5175:5190  jobApplications */\n      0x0c\n        /* \"soljobs.sol\":5175:5205  jobApplications[applicationID] */\n      0x00\n        /* \"soljobs.sol\":5191:5204  applicationID */\n      dup4\n        /* \"soljobs.sol\":5175:5205  jobApplications[applicationID] */\n      dup2\n      mstore\n      0x20\n      add\n      swap1\n      dup2\n      mstore\n      0x20\n      add\n      0x00\n      keccak256\n        /* \"soljobs.sol\":5175:5216  jobApplications[applicationID].jobOfferId */\n      0x01\n      add\n      sload\n        /* \"soljobs.sol\":1613:1633  JobOffer storage job */\n      0x00\n        /* \"soljobs.sol\":1637:1646  jobOffers */\n      0x0a\n        /* \"soljobs.sol\":1637:1658  jobOffers[jobOfferID] */\n      0x00\n        /* \"soljobs.sol\":1647:1657  jobOfferID */\n      dup4\n        /* \"soljobs.sol\":1637:1658  jobOffers[jobOfferID] */\n      dup2\n      mstore\n      0x20\n      add\n      swap1\n      dup2\n      mstore\n      0x20\n      add\n      0x00\n      keccak256\n        /* \"soljobs.sol\":1613:1658  JobOffer storage job  = jobOffers[jobOfferID] */\n      swap1\n      pop\n        /* \"soljobs.sol\":1690:1709  JobOfferStatus.Open */\n      0x00\n        /* \"soljobs.sol\":1676:1709  job.status == JobOfferStatus.Open */\n      0x02\n      dup2\n      gt\n      iszero\n      tag_62\n      jumpi\n      tag_63\n      tag_64\n      jump\t// in\n    tag_63:\n    tag_62:\n        /* \"soljobs.sol\":1676:1679  job */\n      dup2\n        /* \"soljobs.sol\":1676:1686  job.status */\n      0x0c\n      add\n      0x00\n      swap1\n      sload\n      swap1\n      0x0100\n      exp\n      swap1\n      div\n      0xff\n      and\n        /* \"soljobs.sol\":1676:1709  job.status == JobOfferStatus.Open */\n      0x02\n      dup2\n      gt\n      iszero\n      tag_65\n      jumpi\n      tag_66\n      tag_64\n      jump\t// in\n    tag_66:\n    tag_65:\n      eq\n        /* \"soljobs.sol\":1711:1728  jobIsNoLongerOpen */\n      mload(0x40)\n      dup1\n      0x60\n      add\n      0x40\n      mstore\n      dup1\n      0x31\n      dup2\n      mstore\n      0x20\n      add\n      data_a3605fa09f1c5c7279bc358c171f0da9ae269353595c63c3961d947ae51550d5\n      0x31\n      swap2\n      codecopy\n        /* \"soljobs.sol\":1668:1729  require(job.status == JobOfferStatus.Open, jobIsNoLongerOpen) */\n      swap1\n      tag_67\n      jumpi\n      mload(0x40)\n      0x08c379a000000000000000000000000000000000000000000000000000000000\n      dup2\n      mstore\n      0x04\n      add\n      tag_68\n      swap2\n      swap1\n      tag_60\n      jump\t// in\n    tag_68:\n      mload(0x40)\n      dup1\n      swap2\n      sub\n      swap1\n      revert\n    tag_67:\n      pop\n        /* \"soljobs.sol\":5237:5274  JobApplication storage jobApplication */\n      0x00\n        /* \"soljobs.sol\":5277:5292  jobApplications */\n      0x0c\n        /* \"soljobs.sol\":5277:5307  jobApplications[applicationID] */\n      0x00\n        /* \"soljobs.sol\":5293:5306  applicationID */\n      dup7\n        /* \"soljobs.sol\":5277:5307  jobApplications[applicationID] */\n      dup2\n      mstore\n      0x20\n      add\n      swap1\n      dup2\n      mstore\n      0x20\n      add\n      0x00\n      keccak256\n        /* \"soljobs.sol\":5237:5307  JobApplication storage jobApplication = jobApplications[applicationID] */\n      swap1\n      pop\n        /* \"soljobs.sol\":5317:5342  JobOffer storage jobOffer */\n      0x00\n        /* \"soljobs.sol\":5345:5354  jobOffers */\n      0x0a\n        /* \"soljobs.sol\":5345:5381  jobOffers[jobApplication.jobOfferId] */\n      0x00\n        /* \"soljobs.sol\":5355:5369  jobApplication */\n      dup4\n        /* \"soljobs.sol\":5355:5380  jobApplication.jobOfferId */\n      0x01\n      add\n      sload\n        /* \"soljobs.sol\":5345:5381  jobOffers[jobApplication.jobOfferId] */\n      dup2\n      mstore\n      0x20\n      add\n      swap1\n      dup2\n      mstore\n      0x20\n      add\n      0x00\n      keccak256\n        /* \"soljobs.sol\":5317:5381  JobOffer storage jobOffer = jobOffers[jobApplication.jobOfferId] */\n      swap1\n      pop\n        /* \"soljobs.sol\":5423:5431  jobOffer */\n      dup1\n        /* \"soljobs.sol\":5423:5448  jobOffer.numberOfMaxHires */\n      0x0d\n      add\n      sload\n        /* \"soljobs.sol\":5400:5408  jobOffer */\n      dup2\n        /* \"soljobs.sol\":5400:5420  jobOffer.numberHired */\n      0x0e\n      add\n      sload\n        /* \"soljobs.sol\":5400:5448  jobOffer.numberHired < jobOffer.numberOfMaxHires */\n      lt\n        /* \"soljobs.sol\":5450:5466  jobMaxedOutHires */\n      mload(0x40)\n      dup1\n      0x60\n      add\n      0x40\n      mstore\n      dup1\n      0x35\n      dup2\n      mstore\n      0x20\n      add\n      data_fe2a88889d6dd3ff780a2cd9ed26142d2f7b31e1e6b76f2312861d399975bc4f\n      0x35\n      swap2\n      codecopy\n        /* \"soljobs.sol\":5392:5467  require(jobOffer.numberHired < jobOffer.numberOfMaxHires, jobMaxedOutHires) */\n      swap1\n      tag_70\n      jumpi\n      mload(0x40)\n      0x08c379a000000000000000000000000000000000000000000000000000000000\n      dup2\n      mstore\n      0x04\n      add\n      tag_71\n      swap2\n      swap1\n      tag_60\n      jump\t// in\n    tag_71:\n      mload(0x40)\n      dup1\n      swap2\n      sub\n      swap1\n      revert\n    tag_70:\n      pop\n        /* \"soljobs.sol\":5510:5538  JobApplicationStatus.Pending */\n      0x00\n        /* \"soljobs.sol\":5485:5538  jobApplication.status == JobApplicationStatus.Pending */\n      0x02\n      dup2\n      gt\n      iszero\n      tag_72\n      jumpi\n      tag_73\n      tag_64\n      jump\t// in\n    tag_73:\n    tag_72:\n        /* \"soljobs.sol\":5485:5499  jobApplication */\n      dup3\n        /* \"soljobs.sol\":5485:5506  jobApplication.status */\n      0x0b\n      add\n      0x00\n      swap1\n      sload\n      swap1\n      0x0100\n      exp\n      swap1\n      div\n      0xff\n      and\n        /* \"soljobs.sol\":5485:5538  jobApplication.status == JobApplicationStatus.Pending */\n      0x02\n      dup2\n      gt\n      iszero\n      tag_74\n      jumpi\n      tag_75\n      tag_64\n      jump\t// in\n    tag_75:\n    tag_74:\n      eq\n        /* \"soljobs.sol\":5540:5558  applicationNotOpen */\n      mload(0x40)\n      dup1\n      0x40\n      add\n      0x40\n      mstore\n      dup1\n      0x1b\n      dup2\n      mstore\n      0x20\n      add\n      0x546865206170706c69636174696f6e206973206e6f74206f70656e0000000000\n      dup2\n      mstore\n      pop\n        /* \"soljobs.sol\":5477:5559  require(jobApplication.status == JobApplicationStatus.Pending, applicationNotOpen) */\n      swap1\n      tag_76\n      jumpi\n      mload(0x40)\n      0x08c379a000000000000000000000000000000000000000000000000000000000\n      dup2\n      mstore\n      0x04\n      add\n      tag_77\n      swap2\n      swap1\n      tag_60\n      jump\t// in\n    tag_77:\n      mload(0x40)\n      dup1\n      swap2\n      sub\n      swap1\n      revert\n    tag_76:\n      pop\n        /* \"soljobs.sol\":5594:5623  JobApplicationStatus.Approved */\n      0x01\n        /* \"soljobs.sol\":5570:5584  jobApplication */\n      dup3\n        /* \"soljobs.sol\":5570:5591  jobApplication.status */\n      0x0b\n      add\n      0x00\n        /* \"soljobs.sol\":5570:5623  jobApplication.status = JobApplicationStatus.Approved */\n      0x0100\n      exp\n      dup2\n      sload\n      dup2\n      0xff\n      mul\n      not\n      and\n      swap1\n      dup4\n      0x02\n      dup2\n      gt\n      iszero\n      tag_78\n      jumpi\n      tag_79\n      tag_64\n      jump\t// in\n    tag_79:\n    tag_78:\n      mul\n      or\n      swap1\n      sstore\n      pop\n        /* \"soljobs.sol\":5633:5641  jobOffer */\n      dup1\n        /* \"soljobs.sol\":5633:5653  jobOffer.numberHired */\n      0x0e\n      add\n      0x00\n        /* \"soljobs.sol\":5633:5655  jobOffer.numberHired++ */\n      dup2\n      sload\n      dup1\n      swap3\n      swap2\n      swap1\n      tag_80\n      swap1\n      tag_81\n      jump\t// in\n    tag_80:\n      swap2\n      swap1\n      pop\n      sstore\n      pop\n        /* \"soljobs.sol\":5694:5702  jobOffer */\n      dup1\n        /* \"soljobs.sol\":5694:5719  jobOffer.numberOfMaxHires */\n      0x0d\n      add\n      sload\n        /* \"soljobs.sol\":5670:5678  jobOffer */\n      dup2\n        /* \"soljobs.sol\":5670:5690  jobOffer.numberHired */\n      0x0e\n      add\n      sload\n        /* \"soljobs.sol\":5670:5719  jobOffer.numberHired == jobOffer.numberOfMaxHires */\n      sub\n        /* \"soljobs.sol\":5666:5785  if (jobOffer.numberHired == jobOffer.numberOfMaxHires) {... */\n      tag_82\n      jumpi\n        /* \"soljobs.sol\":5753:5774  JobOfferStatus.Closed */\n      0x02\n        /* \"soljobs.sol\":5735:5743  jobOffer */\n      dup2\n        /* \"soljobs.sol\":5735:5750  jobOffer.status */\n      0x0c\n      add\n      0x00\n        /* \"soljobs.sol\":5735:5774  jobOffer.status = JobOfferStatus.Closed */\n      0x0100\n      exp\n      dup2\n      sload\n      dup2\n      0xff\n      mul\n      not\n      and\n      swap1\n      dup4\n      0x02\n      dup2\n      gt\n      iszero\n      tag_83\n      jumpi\n      tag_84\n      tag_64\n      jump\t// in\n    tag_84:\n    tag_83:\n      mul\n      or\n      swap1\n      sstore\n      pop\n        /* \"soljobs.sol\":5666:5785  if (jobOffer.numberHired == jobOffer.numberOfMaxHires) {... */\n    tag_82:\n        /* \"soljobs.sol\":5218:5791  {... */\n      pop\n      pop\n        /* \"soljobs.sol\":1603:1747  {... */\n      pop\n        /* \"soljobs.sol\":1387:1388  _ */\n      pop\n        /* \"soljobs.sol\":5067:5791  function approveApplication(uint applicationID) external callerHasCreatorProfile(msg.sender) isJobStillOpen(jobApplications[applicationID].jobOfferId) {... */\n      pop\n      pop\n      jump\t// out\n        /* \"soljobs.sol\":1952:2787  function createCreatorProfile(... */\n    tag_21:\n        /* \"soljobs.sol\":2139:2145  _email */\n      dup6\n      dup6\n        /* \"soljobs.sol\":1032:1037  false */\n      0x00\n        /* \"soljobs.sol\":1007:1037  creatorEmails[_email] == false */\n      iszero\n      iszero\n        /* \"soljobs.sol\":1007:1020  creatorEmails */\n      0x05\n        /* \"soljobs.sol\":1021:1027  _email */\n      dup4\n      dup4\n        /* \"soljobs.sol\":1007:1028  creatorEmails[_email] */\n      mload(0x40)\n      tag_86\n      swap3\n      swap2\n      swap1\n      tag_87\n      jump\t// in\n    tag_86:\n      swap1\n      dup2\n      mstore\n      0x20\n      add\n      mload(0x40)\n      dup1\n      swap2\n      sub\n      swap1\n      keccak256\n      0x00\n      swap1\n      sload\n      swap1\n      0x0100\n      exp\n      swap1\n      div\n      0xff\n      and\n        /* \"soljobs.sol\":1007:1037  creatorEmails[_email] == false */\n      iszero\n      iszero\n      eq\n        /* \"soljobs.sol\":1007:1073  creatorEmails[_email] == false && applicantEmails[_email] == false */\n      dup1\n      iszero\n      tag_88\n      jumpi\n      pop\n        /* \"soljobs.sol\":1068:1073  false */\n      0x00\n        /* \"soljobs.sol\":1041:1073  applicantEmails[_email] == false */\n      iszero\n      iszero\n        /* \"soljobs.sol\":1041:1056  applicantEmails */\n      0x06\n        /* \"soljobs.sol\":1057:1063  _email */\n      dup4\n      dup4\n        /* \"soljobs.sol\":1041:1064  applicantEmails[_email] */\n      mload(0x40)\n      tag_89\n      swap3\n      swap2\n      swap1\n      tag_87\n      jump\t// in\n    tag_89:\n      swap1\n      dup2\n      mstore\n      0x20\n      add\n      mload(0x40)\n      dup1\n      swap2\n      sub\n      swap1\n      keccak256\n      0x00\n      swap1\n      sload\n      swap1\n      0x0100\n      exp\n      swap1\n      div\n      0xff\n      and\n        /* \"soljobs.sol\":1041:1073  applicantEmails[_email] == false */\n      iszero\n      iszero\n      eq\n        /* \"soljobs.sol\":1007:1073  creatorEmails[_email] == false && applicantEmails[_email] == false */\n    tag_88:\n        /* \"soljobs.sol\":1075:1096  emailAlreadyExistsMsg */\n      mload(0x40)\n      dup1\n      0x40\n      add\n      0x40\n      mstore\n      dup1\n      0x15\n      dup2\n      mstore\n      0x20\n      add\n      0x456d61696c20616c726561647920657869737473210000000000000000000000\n      dup2\n      mstore\n      pop\n        /* \"soljobs.sol\":999:1097  require(creatorEmails[_email] == false && applicantEmails[_email] == false, emailAlreadyExistsMsg) */\n      swap1\n      tag_90\n      jumpi\n      mload(0x40)\n      0x08c379a000000000000000000000000000000000000000000000000000000000\n      dup2\n      mstore\n      0x04\n      add\n      tag_91\n      swap2\n      swap1\n      tag_60\n      jump\t// in\n    tag_91:\n      mload(0x40)\n      dup1\n      swap2\n      sub\n      swap1\n      revert\n    tag_90:\n      pop\n        /* \"soljobs.sol\":1147:1152  false */\n      0x00\n        /* \"soljobs.sol\":1115:1152  creatorAddresses[msg.sender] == false */\n      iszero\n      iszero\n        /* \"soljobs.sol\":1115:1131  creatorAddresses */\n      0x07\n        /* \"soljobs.sol\":1115:1143  creatorAddresses[msg.sender] */\n      0x00\n        /* \"soljobs.sol\":1132:1142  msg.sender */\n      caller\n        /* \"soljobs.sol\":1115:1143  creatorAddresses[msg.sender] */\n      0xffffffffffffffffffffffffffffffffffffffff\n      and\n      0xffffffffffffffffffffffffffffffffffffffff\n      and\n      dup2\n      mstore\n      0x20\n      add\n      swap1\n      dup2\n      mstore\n      0x20\n      add\n      0x00\n      keccak256\n      0x00\n      swap1\n      sload\n      swap1\n      0x0100\n      exp\n      swap1\n      div\n      0xff\n      and\n        /* \"soljobs.sol\":1115:1152  creatorAddresses[msg.sender] == false */\n      iszero\n      iszero\n      eq\n        /* \"soljobs.sol\":1115:1195  creatorAddresses[msg.sender] == false && applicantAddresses[msg.sender] == false */\n      dup1\n      iszero\n      tag_92\n      jumpi\n      pop\n        /* \"soljobs.sol\":1190:1195  false */\n      0x00\n        /* \"soljobs.sol\":1156:1195  applicantAddresses[msg.sender] == false */\n      iszero\n      iszero\n        /* \"soljobs.sol\":1156:1174  applicantAddresses */\n      0x08\n        /* \"soljobs.sol\":1156:1186  applicantAddresses[msg.sender] */\n      0x00\n        /* \"soljobs.sol\":1175:1185  msg.sender */\n      caller\n        /* \"soljobs.sol\":1156:1186  applicantAddresses[msg.sender] */\n      0xffffffffffffffffffffffffffffffffffffffff\n      and\n      0xffffffffffffffffffffffffffffffffffffffff\n      and\n      dup2\n      mstore\n      0x20\n      add\n      swap1\n      dup2\n      mstore\n      0x20\n      add\n      0x00\n      keccak256\n      0x00\n      swap1\n      sload\n      swap1\n      0x0100\n      exp\n      swap1\n      div\n      0xff\n      and\n        /* \"soljobs.sol\":1156:1195  applicantAddresses[msg.sender] == false */\n      iszero\n      iszero\n      eq\n        /* \"soljobs.sol\":1115:1195  creatorAddresses[msg.sender] == false && applicantAddresses[msg.sender] == false */\n    tag_92:\n        /* \"soljobs.sol\":1197:1220  addressAlreadyExistsMsg */\n      mload(0x40)\n      dup1\n      0x40\n      add\n      0x40\n      mstore\n      dup1\n      0x17\n      dup2\n      mstore\n      0x20\n      add\n      0x4164647265737320616c72656164792065786973747321000000000000000000\n      dup2\n      mstore\n      pop\n        /* \"soljobs.sol\":1107:1221  require(creatorAddresses[msg.sender] == false && applicantAddresses[msg.sender] == false, addressAlreadyExistsMsg) */\n      swap1\n      tag_93\n      jumpi\n      mload(0x40)\n      0x08c379a000000000000000000000000000000000000000000000000000000000\n      dup2\n      mstore\n      0x04\n      add\n      tag_94\n      swap2\n      swap1\n      tag_60\n      jump\t// in\n    tag_94:\n      mload(0x40)\n      dup1\n      swap2\n      sub\n      swap1\n      revert\n    tag_93:\n      pop\n        /* \"soljobs.sol\":2166:2180  uint creatorID */\n      0x00\n        /* \"soljobs.sol\":2185:2208  numberOfCreatorProfiles */\n      0x03\n      0x00\n        /* \"soljobs.sol\":2183:2208  ++numberOfCreatorProfiles */\n      dup2\n      sload\n      tag_96\n      swap1\n      tag_81\n      jump\t// in\n    tag_96:\n      swap2\n      swap1\n      pop\n      dup2\n      swap1\n      sstore\n        /* \"soljobs.sol\":2166:2208  uint creatorID = ++numberOfCreatorProfiles */\n      swap1\n      pop\n        /* \"soljobs.sol\":2219:2249  CreatorProfile storage profile */\n      0x00\n        /* \"soljobs.sol\":2252:2267  creatorProfiles */\n      0x01\n        /* \"soljobs.sol\":2252:2279  creatorProfiles[msg.sender] */\n      0x00\n        /* \"soljobs.sol\":2268:2278  msg.sender */\n      caller\n        /* \"soljobs.sol\":2252:2279  creatorProfiles[msg.sender] */\n      0xffffffffffffffffffffffffffffffffffffffff\n      and\n      0xffffffffffffffffffffffffffffffffffffffff\n      and\n      dup2\n      mstore\n      0x20\n      add\n      swap1\n      dup2\n      mstore\n      0x20\n      add\n      0x00\n      keccak256\n        /* \"soljobs.sol\":2219:2279  CreatorProfile storage profile = creatorProfiles[msg.sender] */\n      swap1\n      pop\n        /* \"soljobs.sol\":2302:2311  creatorID */\n      dup2\n        /* \"soljobs.sol\":2289:2296  profile */\n      dup2\n        /* \"soljobs.sol\":2289:2299  profile.id */\n      0x00\n      add\n        /* \"soljobs.sol\":2289:2311  profile.id = creatorID */\n      dup2\n      swap1\n      sstore\n      pop\n        /* \"soljobs.sol\":2336:2341  _name */\n      dup12\n      dup12\n        /* \"soljobs.sol\":2321:2328  profile */\n      dup3\n        /* \"soljobs.sol\":2321:2333  profile.name */\n      0x02\n      add\n        /* \"soljobs.sol\":2321:2341  profile.name = _name */\n      swap2\n      dup3\n      tag_97\n      swap3\n      swap2\n      swap1\n      tag_98\n      jump\t// in\n    tag_97:\n      pop\n        /* \"soljobs.sol\":2367:2373  _email */\n      dup10\n      dup10\n        /* \"soljobs.sol\":2351:2358  profile */\n      dup3\n        /* \"soljobs.sol\":2351:2364  profile.email */\n      0x01\n      add\n        /* \"soljobs.sol\":2351:2373  profile.email = _email */\n      swap2\n      dup3\n      tag_99\n      swap3\n      swap2\n      swap1\n      tag_98\n      jump\t// in\n    tag_99:\n      pop\n        /* \"soljobs.sol\":2405:2417  _description */\n      dup8\n      dup8\n        /* \"soljobs.sol\":2383:2390  profile */\n      dup3\n        /* \"soljobs.sol\":2383:2402  profile.description */\n      0x04\n      add\n        /* \"soljobs.sol\":2383:2417  profile.description = _description */\n      swap2\n      dup3\n      tag_100\n      swap3\n      swap2\n      swap1\n      tag_98\n      jump\t// in\n    tag_100:\n      pop\n        /* \"soljobs.sol\":2445:2453  _tagline */\n      dup6\n      dup6\n        /* \"soljobs.sol\":2427:2434  profile */\n      dup3\n        /* \"soljobs.sol\":2427:2442  profile.tagline */\n      0x03\n      add\n        /* \"soljobs.sol\":2427:2453  profile.tagline = _tagline */\n      swap2\n      dup3\n      tag_101\n      swap3\n      swap2\n      swap1\n      tag_98\n      jump\t// in\n    tag_101:\n      pop\n        /* \"soljobs.sol\":2532:2536  true */\n      0x01\n        /* \"soljobs.sol\":2508:2521  creatorEmails */\n      0x05\n        /* \"soljobs.sol\":2522:2528  _email */\n      dup12\n      dup12\n        /* \"soljobs.sol\":2508:2529  creatorEmails[_email] */\n      mload(0x40)\n      tag_102\n      swap3\n      swap2\n      swap1\n      tag_87\n      jump\t// in\n    tag_102:\n      swap1\n      dup2\n      mstore\n      0x20\n      add\n      mload(0x40)\n      dup1\n      swap2\n      sub\n      swap1\n      keccak256\n      0x00\n        /* \"soljobs.sol\":2508:2536  creatorEmails[_email] = true */\n      0x0100\n      exp\n      dup2\n      sload\n      dup2\n      0xff\n      mul\n      not\n      and\n      swap1\n      dup4\n      iszero\n      iszero\n      mul\n      or\n      swap1\n      sstore\n      pop\n        /* \"soljobs.sol\":2577:2581  true */\n      0x01\n        /* \"soljobs.sol\":2546:2562  creatorAddresses */\n      0x07\n        /* \"soljobs.sol\":2546:2574  creatorAddresses[msg.sender] */\n      0x00\n        /* \"soljobs.sol\":2563:2573  msg.sender */\n      caller\n        /* \"soljobs.sol\":2546:2574  creatorAddresses[msg.sender] */\n      0xffffffffffffffffffffffffffffffffffffffff\n      and\n      0xffffffffffffffffffffffffffffffffffffffff\n      and\n      dup2\n      mstore\n      0x20\n      add\n      swap1\n      dup2\n      mstore\n      0x20\n      add\n      0x00\n      keccak256\n      0x00\n        /* \"soljobs.sol\":2546:2581  creatorAddresses[msg.sender] = true */\n      0x0100\n      exp\n      dup2\n      sload\n      dup2\n      0xff\n      mul\n      not\n      and\n      swap1\n      dup4\n      iszero\n      iszero\n      mul\n      or\n      swap1\n      sstore\n      pop\n        /* \"soljobs.sol\":2631:2636  false */\n      0x00\n        /* \"soljobs.sol\":2612:2619  profile */\n      dup2\n        /* \"soljobs.sol\":2612:2628  profile.verified */\n      0x05\n      add\n      0x14\n        /* \"soljobs.sol\":2612:2636  profile.verified = false */\n      0x0100\n      exp\n      dup2\n      sload\n      dup2\n      0xff\n      mul\n      not\n      and\n      swap1\n      dup4\n      iszero\n      iszero\n      mul\n      or\n      swap1\n      sstore\n      pop\n        /* \"soljobs.sol\":2668:2687  ProfileType.Creator */\n      0x00\n        /* \"soljobs.sol\":2646:2653  profile */\n      dup2\n        /* \"soljobs.sol\":2646:2665  profile.profileType */\n      0x05\n      add\n      0x15\n        /* \"soljobs.sol\":2646:2687  profile.profileType = ProfileType.Creator */\n      0x0100\n      exp\n      dup2\n      sload\n      dup2\n      0xff\n      mul\n      not\n      and\n      swap1\n      dup4\n      0x01\n      dup2\n      gt\n      iszero\n      tag_103\n      jumpi\n      tag_104\n      tag_64\n      jump\t// in\n    tag_104:\n    tag_103:\n      mul\n      or\n      swap1\n      sstore\n      pop\n        /* \"soljobs.sol\":2722:2732  msg.sender */\n      caller\n        /* \"soljobs.sol\":2697:2704  profile */\n      dup2\n        /* \"soljobs.sol\":2697:2719  profile.creatorAddress */\n      0x05\n      add\n      0x00\n        /* \"soljobs.sol\":2697:2732  profile.creatorAddress = msg.sender */\n      0x0100\n      exp\n      dup2\n      sload\n      dup2\n      0xffffffffffffffffffffffffffffffffffffffff\n      mul\n      not\n      and\n      swap1\n      dup4\n      0xffffffffffffffffffffffffffffffffffffffff\n      and\n      mul\n      or\n      swap1\n      sstore\n      pop\n        /* \"soljobs.sol\":2748:2780  CreatorProfileCreated(creatorID) */\n      0xd1a7c154123ed5a80a1f9c4596757daf4b73c53e8bc15299d58a4be0ca505814\n        /* \"soljobs.sol\":2770:2779  creatorID */\n      dup3\n        /* \"soljobs.sol\":2748:2780  CreatorProfileCreated(creatorID) */\n      mload(0x40)\n      tag_105\n      swap2\n      swap1\n      tag_106\n      jump\t// in\n    tag_105:\n      mload(0x40)\n      dup1\n      swap2\n      sub\n      swap1\n      log1\n        /* \"soljobs.sol\":2156:2787  {... */\n      pop\n      pop\n        /* \"soljobs.sol\":1952:2787  function createCreatorProfile(... */\n      pop\n      pop\n      pop\n      pop\n      pop\n      pop\n      pop\n      pop\n      pop\n      pop\n      jump\t// out\n        /* \"soljobs.sol\":819:874  mapping (uint => JobApplication) public jobApplications */\n    tag_24:\n      mstore(0x20, 0x0c)\n      dup1\n      0x00\n      mstore\n      keccak256(0x00, 0x40)\n      0x00\n      swap2\n      pop\n      swap1\n      pop\n      dup1\n      0x00\n      add\n      sload\n      swap1\n      dup1\n      0x01\n      add\n      sload\n      swap1\n      dup1\n      0x02\n      add\n      dup1\n      sload\n      tag_107\n      swap1\n      tag_108\n      jump\t// in\n    tag_107:\n      dup1\n      0x1f\n      add\n      0x20\n      dup1\n      swap2\n      div\n      mul\n      0x20\n      add\n      mload(0x40)\n      swap1\n      dup2\n      add\n      0x40\n      mstore\n      dup1\n      swap3\n      swap2\n      swap1\n      dup2\n      dup2\n      mstore\n      0x20\n      add\n      dup3\n      dup1\n      sload\n      tag_109\n      swap1\n      tag_108\n      jump\t// in\n    tag_109:\n      dup1\n      iszero\n      tag_110\n      jumpi\n      dup1\n      0x1f\n      lt\n      tag_111\n      jumpi\n      0x0100\n      dup1\n      dup4\n      sload\n      div\n      mul\n      dup4\n      mstore\n      swap2\n      0x20\n      add\n      swap2\n      jump(tag_110)\n    tag_111:\n      dup3\n      add\n      swap2\n      swap1\n      0x00\n      mstore\n      keccak256(0x00, 0x20)\n      swap1\n    tag_112:\n      dup2\n      sload\n      dup2\n      mstore\n      swap1\n      0x01\n      add\n      swap1\n      0x20\n      add\n      dup1\n      dup4\n      gt\n      tag_112\n      jumpi\n      dup3\n      swap1\n      sub\n      0x1f\n      and\n      dup3\n      add\n      swap2\n    tag_110:\n      pop\n      pop\n      pop\n      pop\n      pop\n      swap1\n      dup1\n      0x03\n      add\n      mload(0x40)\n      dup1\n      0x0100\n      add\n      0x40\n      mstore\n      swap1\n      dup2\n      0x00\n      dup3\n      add\n      sload\n      dup2\n      mstore\n      0x20\n      add\n      0x01\n      dup3\n      add\n      0x00\n      swap1\n      sload\n      swap1\n      0x0100\n      exp\n      swap1\n      div\n      0xffffffffffffffffffffffffffffffffffffffff\n      and\n      0xffffffffffffffffffffffffffffffffffffffff\n      and\n      0xffffffffffffffffffffffffffffffffffffffff\n      and\n      dup2\n      mstore\n      0x20\n      add\n      0x02\n      dup3\n      add\n      dup1\n      sload\n      tag_113\n      swap1\n      tag_108\n      jump\t// in\n    tag_113:\n      dup1\n      0x1f\n      add\n      0x20\n      dup1\n      swap2\n      div\n      mul\n      0x20\n      add\n      mload(0x40)\n      swap1\n      dup2\n      add\n      0x40\n      mstore\n      dup1\n      swap3\n      swap2\n      swap1\n      dup2\n      dup2\n      mstore\n      0x20\n      add\n      dup3\n      dup1\n      sload\n      tag_114\n      swap1\n      tag_108\n      jump\t// in\n    tag_114:\n      dup1\n      iszero\n      tag_115\n      jumpi\n      dup1\n      0x1f\n      lt\n      tag_116\n      jumpi\n      0x0100\n      dup1\n      dup4\n      sload\n      div\n      mul\n      dup4\n      mstore\n      swap2\n      0x20\n      add\n      swap2\n      jump(tag_115)\n    tag_116:\n      dup3\n      add\n      swap2\n      swap1\n      0x00\n      mstore\n      keccak256(0x00, 0x20)\n      swap1\n    tag_117:\n      dup2\n      sload\n      dup2\n      mstore\n      swap1\n      0x01\n      add\n      swap1\n      0x20\n      add\n      dup1\n      dup4\n      gt\n      tag_117\n      jumpi\n      dup3\n      swap1\n      sub\n      0x1f\n      and\n      dup3\n      add\n      swap2\n    tag_115:\n      pop\n      pop\n      pop\n      pop\n      pop\n      dup2\n      mstore\n      0x20\n      add\n      0x03\n      dup3\n      add\n      dup1\n      sload\n      tag_118\n      swap1\n      tag_108\n      jump\t// in\n    tag_118:\n      dup1\n      0x1f\n      add\n      0x20\n      dup1\n      swap2\n      div\n      mul\n      0x20\n      add\n      mload(0x40)\n      swap1\n      dup2\n      add\n      0x40\n      mstore\n      dup1\n      swap3\n      swap2\n      swap1\n      dup2\n      dup2\n      mstore\n      0x20\n      add\n      dup3\n      dup1\n      sload\n      tag_119\n      swap1\n      tag_108\n      jump\t// in\n    tag_119:\n      dup1\n      iszero\n      tag_120\n      jumpi\n      dup1\n      0x1f\n      lt\n      tag_121\n      jumpi\n      0x0100\n      dup1\n      dup4\n      sload\n      div\n      mul\n      dup4\n      mstore\n      swap2\n      0x20\n      add\n      swap2\n      jump(tag_120)\n    tag_121:\n      dup3\n      add\n      swap2\n      swap1\n      0x00\n      mstore\n      keccak256(0x00, 0x20)\n      swap1\n    tag_122:\n      dup2\n      sload\n      dup2\n      mstore\n      swap1\n      0x01\n      add\n      swap1\n      0x20\n      add\n      dup1\n      dup4\n      gt\n      tag_122\n      jumpi\n      dup3\n      swap1\n      sub\n      0x1f\n      and\n      dup3\n      add\n      swap2\n    tag_120:\n      pop\n      pop\n      pop\n      pop\n      pop\n      dup2\n      mstore\n      0x20\n      add\n      0x04\n      dup3\n      add\n      dup1\n      sload\n      tag_123\n      swap1\n      tag_108\n      jump\t// in\n    tag_123:\n      dup1\n      0x1f\n      add\n      0x20\n      dup1\n      swap2\n      div\n      mul\n      0x20\n      add\n      mload(0x40)\n      swap1\n      dup2\n      add\n      0x40\n      mstore\n      dup1\n      swap3\n      swap2\n      swap1\n      dup2\n      dup2\n      mstore\n      0x20\n      add\n      dup3\n      dup1\n      sload\n      tag_124\n      swap1\n      tag_108\n      jump\t// in\n    tag_124:\n      dup1\n      iszero\n      tag_125\n      jumpi\n      dup1\n      0x1f\n      lt\n      tag_126\n      jumpi\n      0x0100\n      dup1\n      dup4\n      sload\n      div\n      mul\n      dup4\n      mstore\n      swap2\n      0x20\n      add\n      swap2\n      jump(tag_125)\n    tag_126:\n      dup3\n      add\n      swap2\n      swap1\n      0x00\n      mstore\n      keccak256(0x00, 0x20)\n      swap1\n    tag_127:\n      dup2\n      sload\n      dup2\n      mstore\n      swap1\n      0x01\n      add\n      swap1\n      0x20\n      add\n      dup1\n      dup4\n      gt\n      tag_127\n      jumpi\n      dup3\n      swap1\n      sub\n      0x1f\n      and\n      dup3\n      add\n      swap2\n    tag_125:\n      pop\n      pop\n      pop\n      pop\n      pop\n      dup2\n      mstore\n      0x20\n      add\n      0x05\n      dup3\n      add\n      dup1\n      sload\n      tag_128\n      swap1\n      tag_108\n      jump\t// in\n    tag_128:\n      dup1\n      0x1f\n      add\n      0x20\n      dup1\n      swap2\n      div\n      mul\n      0x20\n      add\n      mload(0x40)\n      swap1\n      dup2\n      add\n      0x40\n      mstore\n      dup1\n      swap3\n      swap2\n      swap1\n      dup2\n      dup2\n      mstore\n      0x20\n      add\n      dup3\n      dup1\n      sload\n      tag_129\n      swap1\n      tag_108\n      jump\t// in\n    tag_129:\n      dup1\n      iszero\n      tag_130\n      jumpi\n      dup1\n      0x1f\n      lt\n      tag_131\n      jumpi\n      0x0100\n      dup1\n      dup4\n      sload\n      div\n      mul\n      dup4\n      mstore\n      swap2\n      0x20\n      add\n      swap2\n      jump(tag_130)\n    tag_131:\n      dup3\n      add\n      swap2\n      swap1\n      0x00\n      mstore\n      keccak256(0x00, 0x20)\n      swap1\n    tag_132:\n      dup2\n      sload\n      dup2\n      mstore\n      swap1\n      0x01\n      add\n      swap1\n      0x20\n      add\n      dup1\n      dup4\n      gt\n      tag_132\n      jumpi\n      dup3\n      swap1\n      sub\n      0x1f\n      and\n      dup3\n      add\n      swap2\n    tag_130:\n      pop\n      pop\n      pop\n      pop\n      pop\n      dup2\n      mstore\n      0x20\n      add\n      0x06\n      dup3\n      add\n      0x00\n      swap1\n      sload\n      swap1\n      0x0100\n      exp\n      swap1\n      div\n      0xff\n      and\n      0x01\n      dup2\n      gt\n      iszero\n      tag_133\n      jumpi\n      tag_134\n      tag_64\n      jump\t// in\n    tag_134:\n    tag_133:\n      0x01\n      dup2\n      gt\n      iszero\n      tag_135\n      jumpi\n      tag_136\n      tag_64\n      jump\t// in\n    tag_136:\n    tag_135:\n      dup2\n      mstore\n      0x20\n      add\n      0x07\n      dup3\n      add\n      dup1\n      sload\n      dup1\n      0x20\n      mul\n      0x20\n      add\n      mload(0x40)\n      swap1\n      dup2\n      add\n      0x40\n      mstore\n      dup1\n      swap3\n      swap2\n      swap1\n      dup2\n      dup2\n      mstore\n      0x20\n      add\n      dup3\n      dup1\n      sload\n      dup1\n      iszero\n      tag_137\n      jumpi\n      0x20\n      mul\n      dup3\n      add\n      swap2\n      swap1\n      0x00\n      mstore\n      keccak256(0x00, 0x20)\n      swap1\n    tag_138:\n      dup2\n      sload\n      dup2\n      mstore\n      0x20\n      add\n      swap1\n      0x01\n      add\n      swap1\n      dup1\n      dup4\n      gt\n      tag_138\n      jumpi\n    tag_137:\n      pop\n      pop\n      pop\n      pop\n      pop\n      dup2\n      mstore\n      pop\n      pop\n      swap1\n      dup1\n      0x0b\n      add\n      0x00\n      swap1\n      sload\n      swap1\n      0x0100\n      exp\n      swap1\n      div\n      0xff\n      and\n      swap1\n      pop\n      dup6\n      jump\t// out\n        /* \"soljobs.sol\":2793:3617  function createApplicantProfile(... */\n    tag_29:\n        /* \"soljobs.sol\":2988:2994  _email */\n      dup6\n      dup6\n        /* \"soljobs.sol\":1032:1037  false */\n      0x00\n        /* \"soljobs.sol\":1007:1037  creatorEmails[_email] == false */\n      iszero\n      iszero\n        /* \"soljobs.sol\":1007:1020  creatorEmails */\n      0x05\n        /* \"soljobs.sol\":1021:1027  _email */\n      dup4\n      dup4\n        /* \"soljobs.sol\":1007:1028  creatorEmails[_email] */\n      mload(0x40)\n      tag_140\n      swap3\n      swap2\n      swap1\n      tag_87\n      jump\t// in\n    tag_140:\n      swap1\n      dup2\n      mstore\n      0x20\n      add\n      mload(0x40)\n      dup1\n      swap2\n      sub\n      swap1\n      keccak256\n      0x00\n      swap1\n      sload\n      swap1\n      0x0100\n      exp\n      swap1\n      div\n      0xff\n      and\n        /* \"soljobs.sol\":1007:1037  creatorEmails[_email] == false */\n      iszero\n      iszero\n      eq\n        /* \"soljobs.sol\":1007:1073  creatorEmails[_email] == false && applicantEmails[_email] == false */\n      dup1\n      iszero\n      tag_141\n      jumpi\n      pop\n        /* \"soljobs.sol\":1068:1073  false */\n      0x00\n        /* \"soljobs.sol\":1041:1073  applicantEmails[_email] == false */\n      iszero\n      iszero\n        /* \"soljobs.sol\":1041:1056  applicantEmails */\n      0x06\n        /* \"soljobs.sol\":1057:1063  _email */\n      dup4\n      dup4\n        /* \"soljobs.sol\":1041:1064  applicantEmails[_email] */\n      mload(0x40)\n      tag_142\n      swap3\n      swap2\n      swap1\n      tag_87\n      jump\t// in\n    tag_142:\n      swap1\n      dup2\n      mstore\n      0x20\n      add\n      mload(0x40)\n      dup1\n      swap2\n      sub\n      swap1\n      keccak256\n      0x00\n      swap1\n      sload\n      swap1\n      0x0100\n      exp\n      swap1\n      div\n      0xff\n      and\n        /* \"soljobs.sol\":1041:1073  applicantEmails[_email] == false */\n      iszero\n      iszero\n      eq\n        /* \"soljobs.sol\":1007:1073  creatorEmails[_email] == false && applicantEmails[_email] == false */\n    tag_141:\n        /* \"soljobs.sol\":1075:1096  emailAlreadyExistsMsg */\n      mload(0x40)\n      dup1\n      0x40\n      add\n      0x40\n      mstore\n      dup1\n      0x15\n      dup2\n      mstore\n      0x20\n      add\n      0x456d61696c20616c726561647920657869737473210000000000000000000000\n      dup2\n      mstore\n      pop\n        /* \"soljobs.sol\":999:1097  require(creatorEmails[_email] == false && applicantEmails[_email] == false, emailAlreadyExistsMsg) */\n      swap1\n      tag_143\n      jumpi\n      mload(0x40)\n      0x08c379a000000000000000000000000000000000000000000000000000000000\n      dup2\n      mstore\n      0x04\n      add\n      tag_144\n      swap2\n      swap1\n      tag_60\n      jump\t// in\n    tag_144:\n      mload(0x40)\n      dup1\n      swap2\n      sub\n      swap1\n      revert\n    tag_143:\n      pop\n        /* \"soljobs.sol\":1147:1152  false */\n      0x00\n        /* \"soljobs.sol\":1115:1152  creatorAddresses[msg.sender] == false */\n      iszero\n      iszero\n        /* \"soljobs.sol\":1115:1131  creatorAddresses */\n      0x07\n        /* \"soljobs.sol\":1115:1143  creatorAddresses[msg.sender] */\n      0x00\n        /* \"soljobs.sol\":1132:1142  msg.sender */\n      caller\n        /* \"soljobs.sol\":1115:1143  creatorAddresses[msg.sender] */\n      0xffffffffffffffffffffffffffffffffffffffff\n      and\n      0xffffffffffffffffffffffffffffffffffffffff\n      and\n      dup2\n      mstore\n      0x20\n      add\n      swap1\n      dup2\n      mstore\n      0x20\n      add\n      0x00\n      keccak256\n      0x00\n      swap1\n      sload\n      swap1\n      0x0100\n      exp\n      swap1\n      div\n      0xff\n      and\n        /* \"soljobs.sol\":1115:1152  creatorAddresses[msg.sender] == false */\n      iszero\n      iszero\n      eq\n        /* \"soljobs.sol\":1115:1195  creatorAddresses[msg.sender] == false && applicantAddresses[msg.sender] == false */\n      dup1\n      iszero\n      tag_145\n      jumpi\n      pop\n        /* \"soljobs.sol\":1190:1195  false */\n      0x00\n        /* \"soljobs.sol\":1156:1195  applicantAddresses[msg.sender] == false */\n      iszero\n      iszero\n        /* \"soljobs.sol\":1156:1174  applicantAddresses */\n      0x08\n        /* \"soljobs.sol\":1156:1186  applicantAddresses[msg.sender] */\n      0x00\n        /* \"soljobs.sol\":1175:1185  msg.sender */\n      caller\n        /* \"soljobs.sol\":1156:1186  applicantAddresses[msg.sender] */\n      0xffffffffffffffffffffffffffffffffffffffff\n      and\n      0xffffffffffffffffffffffffffffffffffffffff\n      and\n      dup2\n      mstore\n      0x20\n      add\n      swap1\n      dup2\n      mstore\n      0x20\n      add\n      0x00\n      keccak256\n      0x00\n      swap1\n      sload\n      swap1\n      0x0100\n      exp\n      swap1\n      div\n      0xff\n      and\n        /* \"soljobs.sol\":1156:1195  applicantAddresses[msg.sender] == false */\n      iszero\n      iszero\n      eq\n        /* \"soljobs.sol\":1115:1195  creatorAddresses[msg.sender] == false && applicantAddresses[msg.sender] == false */\n    tag_145:\n        /* \"soljobs.sol\":1197:1220  addressAlreadyExistsMsg */\n      mload(0x40)\n      dup1\n      0x40\n      add\n      0x40\n      mstore\n      dup1\n      0x17\n      dup2\n      mstore\n      0x20\n      add\n      0x4164647265737320616c72656164792065786973747321000000000000000000\n      dup2\n      mstore\n      pop\n        /* \"soljobs.sol\":1107:1221  require(creatorAddresses[msg.sender] == false && applicantAddresses[msg.sender] == false, addressAlreadyExistsMsg) */\n      swap1\n      tag_146\n      jumpi\n      mload(0x40)\n      0x08c379a000000000000000000000000000000000000000000000000000000000\n      dup2\n      mstore\n      0x04\n      add\n      tag_147\n      swap2\n      swap1\n      tag_60\n      jump\t// in\n    tag_147:\n      mload(0x40)\n      dup1\n      swap2\n      sub\n      swap1\n      revert\n    tag_146:\n      pop\n        /* \"soljobs.sol\":3006:3022  uint applicantID */\n      0x00\n        /* \"soljobs.sol\":3027:3052  numberOfApplicantProfiles */\n      0x04\n      0x00\n        /* \"soljobs.sol\":3025:3052  ++numberOfApplicantProfiles */\n      dup2\n      sload\n      tag_149\n      swap1\n      tag_81\n      jump\t// in\n    tag_149:\n      swap2\n      swap1\n      pop\n      dup2\n      swap1\n      sstore\n        /* \"soljobs.sol\":3006:3052  uint applicantID = ++numberOfApplicantProfiles */\n      swap1\n      pop\n        /* \"soljobs.sol\":3063:3095  ApplicantProfile storage profile */\n      0x00\n        /* \"soljobs.sol\":3098:3115  applicantProfiles */\n      0x02\n        /* \"soljobs.sol\":3098:3127  applicantProfiles[msg.sender] */\n      0x00\n        /* \"soljobs.sol\":3116:3126  msg.sender */\n      caller\n        /* \"soljobs.sol\":3098:3127  applicantProfiles[msg.sender] */\n      0xffffffffffffffffffffffffffffffffffffffff\n      and\n      0xffffffffffffffffffffffffffffffffffffffff\n      and\n      dup2\n      mstore\n      0x20\n      add\n      swap1\n      dup2\n      mstore\n      0x20\n      add\n      0x00\n      keccak256\n        /* \"soljobs.sol\":3063:3127  ApplicantProfile storage profile = applicantProfiles[msg.sender] */\n      swap1\n      pop\n        /* \"soljobs.sol\":3150:3161  applicantID */\n      dup2\n        /* \"soljobs.sol\":3137:3144  profile */\n      dup2\n        /* \"soljobs.sol\":3137:3147  profile.id */\n      0x00\n      add\n        /* \"soljobs.sol\":3137:3161  profile.id = applicantID */\n      dup2\n      swap1\n      sstore\n      pop\n        /* \"soljobs.sol\":3190:3199  _fullname */\n      dup12\n      dup12\n        /* \"soljobs.sol\":3171:3178  profile */\n      dup3\n        /* \"soljobs.sol\":3171:3187  profile.fullname */\n      0x02\n      add\n        /* \"soljobs.sol\":3171:3199  profile.fullname = _fullname */\n      swap2\n      dup3\n      tag_150\n      swap3\n      swap2\n      swap1\n      tag_98\n      jump\t// in\n    tag_150:\n      pop\n        /* \"soljobs.sol\":3225:3231  _email */\n      dup10\n      dup10\n        /* \"soljobs.sol\":3209:3216  profile */\n      dup3\n        /* \"soljobs.sol\":3209:3222  profile.email */\n      0x03\n      add\n        /* \"soljobs.sol\":3209:3231  profile.email = _email */\n      swap2\n      dup3\n      tag_151\n      swap3\n      swap2\n      swap1\n      tag_98\n      jump\t// in\n    tag_151:\n      pop\n        /* \"soljobs.sol\":3260:3269  _location */\n      dup8\n      dup8\n        /* \"soljobs.sol\":3241:3248  profile */\n      dup3\n        /* \"soljobs.sol\":3241:3257  profile.location */\n      0x04\n      add\n        /* \"soljobs.sol\":3241:3269  profile.location = _location */\n      swap2\n      dup3\n      tag_152\n      swap3\n      swap2\n      swap1\n      tag_98\n      jump\t// in\n    tag_152:\n      pop\n        /* \"soljobs.sol\":3293:3297  _bio */\n      dup6\n      dup6\n        /* \"soljobs.sol\":3279:3286  profile */\n      dup3\n        /* \"soljobs.sol\":3279:3290  profile.bio */\n      0x05\n      add\n        /* \"soljobs.sol\":3279:3297  profile.bio = _bio */\n      swap2\n      dup3\n      tag_153\n      swap3\n      swap2\n      swap1\n      tag_98\n      jump\t// in\n    tag_153:\n      pop\n        /* \"soljobs.sol\":3386:3390  true */\n      0x01\n        /* \"soljobs.sol\":3360:3375  applicantEmails */\n      0x06\n        /* \"soljobs.sol\":3376:3382  _email */\n      dup12\n      dup12\n        /* \"soljobs.sol\":3360:3383  applicantEmails[_email] */\n      mload(0x40)\n      tag_154\n      swap3\n      swap2\n      swap1\n      tag_87\n      jump\t// in\n    tag_154:\n      swap1\n      dup2\n      mstore\n      0x20\n      add\n      mload(0x40)\n      dup1\n      swap2\n      sub\n      swap1\n      keccak256\n      0x00\n        /* \"soljobs.sol\":3360:3390  applicantEmails[_email] = true */\n      0x0100\n      exp\n      dup2\n      sload\n      dup2\n      0xff\n      mul\n      not\n      and\n      swap1\n      dup4\n      iszero\n      iszero\n      mul\n      or\n      swap1\n      sstore\n      pop\n        /* \"soljobs.sol\":3433:3437  true */\n      0x01\n        /* \"soljobs.sol\":3400:3418  applicantAddresses */\n      0x08\n        /* \"soljobs.sol\":3400:3430  applicantAddresses[msg.sender] */\n      0x00\n        /* \"soljobs.sol\":3419:3429  msg.sender */\n      caller\n        /* \"soljobs.sol\":3400:3430  applicantAddresses[msg.sender] */\n      0xffffffffffffffffffffffffffffffffffffffff\n      and\n      0xffffffffffffffffffffffffffffffffffffffff\n      and\n      dup2\n      mstore\n      0x20\n      add\n      swap1\n      dup2\n      mstore\n      0x20\n      add\n      0x00\n      keccak256\n      0x00\n        /* \"soljobs.sol\":3400:3437  applicantAddresses[msg.sender] = true */\n      0x0100\n      exp\n      dup2\n      sload\n      dup2\n      0xff\n      mul\n      not\n      and\n      swap1\n      dup4\n      iszero\n      iszero\n      mul\n      or\n      swap1\n      sstore\n      pop\n        /* \"soljobs.sol\":3490:3511  ProfileType.Applicant */\n      0x01\n        /* \"soljobs.sol\":3468:3475  profile */\n      dup2\n        /* \"soljobs.sol\":3468:3487  profile.profileType */\n      0x06\n      add\n      0x00\n        /* \"soljobs.sol\":3468:3511  profile.profileType = ProfileType.Applicant */\n      0x0100\n      exp\n      dup2\n      sload\n      dup2\n      0xff\n      mul\n      not\n      and\n      swap1\n      dup4\n      0x01\n      dup2\n      gt\n      iszero\n      tag_155\n      jumpi\n      tag_156\n      tag_64\n      jump\t// in\n    tag_156:\n    tag_155:\n      mul\n      or\n      swap1\n      sstore\n      pop\n        /* \"soljobs.sol\":3548:3558  msg.sender */\n      caller\n        /* \"soljobs.sol\":3521:3528  profile */\n      dup2\n        /* \"soljobs.sol\":3521:3545  profile.applicantAddress */\n      0x01\n      add\n      0x00\n        /* \"soljobs.sol\":3521:3558  profile.applicantAddress = msg.sender */\n      0x0100\n      exp\n      dup2\n      sload\n      dup2\n      0xffffffffffffffffffffffffffffffffffffffff\n      mul\n      not\n      and\n      swap1\n      dup4\n      0xffffffffffffffffffffffffffffffffffffffff\n      and\n      mul\n      or\n      swap1\n      sstore\n      pop\n        /* \"soljobs.sol\":3574:3610  ApplicantProfileCreated(applicantID) */\n      0x7a7674d49ab4ac57338891a3e15ebdbe5e6abbb1637fc6c5cfa506e2fa360ad0\n        /* \"soljobs.sol\":3598:3609  applicantID */\n      dup3\n        /* \"soljobs.sol\":3574:3610  ApplicantProfileCreated(applicantID) */\n      mload(0x40)\n      tag_157\n      swap2\n      swap1\n      tag_106\n      jump\t// in\n    tag_157:\n      mload(0x40)\n      dup1\n      swap2\n      sub\n      swap1\n      log1\n        /* \"soljobs.sol\":2996:3617  {... */\n      pop\n      pop\n        /* \"soljobs.sol\":2793:3617  function createApplicantProfile(... */\n      pop\n      pop\n      pop\n      pop\n      pop\n      pop\n      pop\n      pop\n      pop\n      pop\n      jump\t// out\n        /* \"soljobs.sol\":328:390  mapping (address => ApplicantProfile) public applicantProfiles */\n    tag_33:\n      mstore(0x20, 0x02)\n      dup1\n      0x00\n      mstore\n      keccak256(0x00, 0x40)\n      0x00\n      swap2\n      pop\n      swap1\n      pop\n      dup1\n      0x00\n      add\n      sload\n      swap1\n      dup1\n      0x01\n      add\n      0x00\n      swap1\n      sload\n      swap1\n      0x0100\n      exp\n      swap1\n      div\n      0xffffffffffffffffffffffffffffffffffffffff\n      and\n      swap1\n      dup1\n      0x02\n      add\n      dup1\n      sload\n      tag_158\n      swap1\n      tag_108\n      jump\t// in\n    tag_158:\n      dup1\n      0x1f\n      add\n      0x20\n      dup1\n      swap2\n      div\n      mul\n      0x20\n      add\n      mload(0x40)\n      swap1\n      dup2\n      add\n      0x40\n      mstore\n      dup1\n      swap3\n      swap2\n      swap1\n      dup2\n      dup2\n      mstore\n      0x20\n      add\n      dup3\n      dup1\n      sload\n      tag_159\n      swap1\n      tag_108\n      jump\t// in\n    tag_159:\n      dup1\n      iszero\n      tag_160\n      jumpi\n      dup1\n      0x1f\n      lt\n      tag_161\n      jumpi\n      0x0100\n      dup1\n      dup4\n      sload\n      div\n      mul\n      dup4\n      mstore\n      swap2\n      0x20\n      add\n      swap2\n      jump(tag_160)\n    tag_161:\n      dup3\n      add\n      swap2\n      swap1\n      0x00\n      mstore\n      keccak256(0x00, 0x20)\n      swap1\n    tag_162:\n      dup2\n      sload\n      dup2\n      mstore\n      swap1\n      0x01\n      add\n      swap1\n      0x20\n      add\n      dup1\n      dup4\n      gt\n      tag_162\n      jumpi\n      dup3\n      swap1\n      sub\n      0x1f\n      and\n      dup3\n      add\n      swap2\n    tag_160:\n      pop\n      pop\n      pop\n      pop\n      pop\n      swap1\n      dup1\n      0x03\n      add\n      dup1\n      sload\n      tag_163\n      swap1\n      tag_108\n      jump\t// in\n    tag_163:\n      dup1\n      0x1f\n      add\n      0x20\n      dup1\n      swap2\n      div\n      mul\n      0x20\n      add\n      mload(0x40)\n      swap1\n      dup2\n      add\n      0x40\n      mstore\n      dup1\n      swap3\n      swap2\n      swap1\n      dup2\n      dup2\n      mstore\n      0x20\n      add\n      dup3\n      dup1\n      sload\n      tag_164\n      swap1\n      tag_108\n      jump\t// in\n    tag_164:\n      dup1\n      iszero\n      tag_165\n      jumpi\n      dup1\n      0x1f\n      lt\n      tag_166\n      jumpi\n      0x0100\n      dup1\n      dup4\n      sload\n      div\n      mul\n      dup4\n      mstore\n      swap2\n      0x20\n      add\n      swap2\n      jump(tag_165)\n    tag_166:\n      dup3\n      add\n      swap2\n      swap1\n      0x00\n      mstore\n      keccak256(0x00, 0x20)\n      swap1\n    tag_167:\n      dup2\n      sload\n      dup2\n      mstore\n      swap1\n      0x01\n      add\n      swap1\n      0x20\n      add\n      dup1\n      dup4\n      gt\n      tag_167\n      jumpi\n      dup3\n      swap1\n      sub\n      0x1f\n      and\n      dup3\n      add\n      swap2\n    tag_165:\n      pop\n      pop\n      pop\n      pop\n      pop\n      swap1\n      dup1\n      0x04\n      add\n      dup1\n      sload\n      tag_168\n      swap1\n      tag_108\n      jump\t// in\n    tag_168:\n      dup1\n      0x1f\n      add\n      0x20\n      dup1\n      swap2\n      div\n      mul\n      0x20\n      add\n      mload(0x40)\n      swap1\n      dup2\n      add\n      0x40\n      mstore\n      dup1\n      swap3\n      swap2\n      swap1\n      dup2\n      dup2\n      mstore\n      0x20\n      add\n      dup3\n      dup1\n      sload\n      tag_169\n      swap1\n      tag_108\n      jump\t// in\n    tag_169:\n      dup1\n      iszero\n      tag_170\n      jumpi\n      dup1\n      0x1f\n      lt\n      tag_171\n      jumpi\n      0x0100\n      dup1\n      dup4\n      sload\n      div\n      mul\n      dup4\n      mstore\n      swap2\n      0x20\n      add\n      swap2\n      jump(tag_170)\n    tag_171:\n      dup3\n      add\n      swap2\n      swap1\n      0x00\n      mstore\n      keccak256(0x00, 0x20)\n      swap1\n    tag_172:\n      dup2\n      sload\n      dup2\n      mstore\n      swap1\n      0x01\n      add\n      swap1\n      0x20\n      add\n      dup1\n      dup4\n      gt\n      tag_172\n      jumpi\n      dup3\n      swap1\n      sub\n      0x1f\n      and\n      dup3\n      add\n      swap2\n    tag_170:\n      pop\n      pop\n      pop\n      pop\n      pop\n      swap1\n      dup1\n      0x05\n      add\n      dup1\n      sload\n      tag_173\n      swap1\n      tag_108\n      jump\t// in\n    tag_173:\n      dup1\n      0x1f\n      add\n      0x20\n      dup1\n      swap2\n      div\n      mul\n      0x20\n      add\n      mload(0x40)\n      swap1\n      dup2\n      add\n      0x40\n      mstore\n      dup1\n      swap3\n      swap2\n      swap1\n      dup2\n      dup2\n      mstore\n      0x20\n      add\n      dup3\n      dup1\n      sload\n      tag_174\n      swap1\n      tag_108\n      jump\t// in\n    tag_174:\n      dup1\n      iszero\n      tag_175\n      jumpi\n      dup1\n      0x1f\n      lt\n      tag_176\n      jumpi\n      0x0100\n      dup1\n      dup4\n      sload\n      div\n      mul\n      dup4\n      mstore\n      swap2\n      0x20\n      add\n      swap2\n      jump(tag_175)\n    tag_176:\n      dup3\n      add\n      swap2\n      swap1\n      0x00\n      mstore\n      keccak256(0x00, 0x20)\n      swap1\n    tag_177:\n      dup2\n      sload\n      dup2\n      mstore\n      swap1\n      0x01\n      add\n      swap1\n      0x20\n      add\n      dup1\n      dup4\n      gt\n      tag_177\n      jumpi\n      dup3\n      swap1\n      sub\n      0x1f\n      and\n      dup3\n      add\n      swap2\n    tag_175:\n      pop\n      pop\n      pop\n      pop\n      pop\n      swap1\n      dup1\n      0x06\n      add\n      0x00\n      swap1\n      sload\n      swap1\n      0x0100\n      exp\n      swap1\n      div\n      0xff\n      and\n      swap1\n      pop\n      dup8\n      jump\t// out\n        /* \"soljobs.sol\":263:321  mapping (address => CreatorProfile) public creatorProfiles */\n    tag_38:\n      mstore(0x20, 0x01)\n      dup1\n      0x00\n      mstore\n      keccak256(0x00, 0x40)\n      0x00\n      swap2\n      pop\n      swap1\n      pop\n      dup1\n      0x00\n      add\n      sload\n      swap1\n      dup1\n      0x01\n      add\n      dup1\n      sload\n      tag_178\n      swap1\n      tag_108\n      jump\t// in\n    tag_178:\n      dup1\n      0x1f\n      add\n      0x20\n      dup1\n      swap2\n      div\n      mul\n      0x20\n      add\n      mload(0x40)\n      swap1\n      dup2\n      add\n      0x40\n      mstore\n      dup1\n      swap3\n      swap2\n      swap1\n      dup2\n      dup2\n      mstore\n      0x20\n      add\n      dup3\n      dup1\n      sload\n      tag_179\n      swap1\n      tag_108\n      jump\t// in\n    tag_179:\n      dup1\n      iszero\n      tag_180\n      jumpi\n      dup1\n      0x1f\n      lt\n      tag_181\n      jumpi\n      0x0100\n      dup1\n      dup4\n      sload\n      div\n      mul\n      dup4\n      mstore\n      swap2\n      0x20\n      add\n      swap2\n      jump(tag_180)\n    tag_181:\n      dup3\n      add\n      swap2\n      swap1\n      0x00\n      mstore\n      keccak256(0x00, 0x20)\n      swap1\n    tag_182:\n      dup2\n      sload\n      dup2\n      mstore\n      swap1\n      0x01\n      add\n      swap1\n      0x20\n      add\n      dup1\n      dup4\n      gt\n      tag_182\n      jumpi\n      dup3\n      swap1\n      sub\n      0x1f\n      and\n      dup3\n      add\n      swap2\n    tag_180:\n      pop\n      pop\n      pop\n      pop\n      pop\n      swap1\n      dup1\n      0x02\n      add\n      dup1\n      sload\n      tag_183\n      swap1\n      tag_108\n      jump\t// in\n    tag_183:\n      dup1\n      0x1f\n      add\n      0x20\n      dup1\n      swap2\n      div\n      mul\n      0x20\n      add\n      mload(0x40)\n      swap1\n      dup2\n      add\n      0x40\n      mstore\n      dup1\n      swap3\n      swap2\n      swap1\n      dup2\n      dup2\n      mstore\n      0x20\n      add\n      dup3\n      dup1\n      sload\n      tag_184\n      swap1\n      tag_108\n      jump\t// in\n    tag_184:\n      dup1\n      iszero\n      tag_185\n      jumpi\n      dup1\n      0x1f\n      lt\n      tag_186\n      jumpi\n      0x0100\n      dup1\n      dup4\n      sload\n      div\n      mul\n      dup4\n      mstore\n      swap2\n      0x20\n      add\n      swap2\n      jump(tag_185)\n    tag_186:\n      dup3\n      add\n      swap2\n      swap1\n      0x00\n      mstore\n      keccak256(0x00, 0x20)\n      swap1\n    tag_187:\n      dup2\n      sload\n      dup2\n      mstore\n      swap1\n      0x01\n      add\n      swap1\n      0x20\n      add\n      dup1\n      dup4\n      gt\n      tag_187\n      jumpi\n      dup3\n      swap1\n      sub\n      0x1f\n      and\n      dup3\n      add\n      swap2\n    tag_185:\n      pop\n      pop\n      pop\n      pop\n      pop\n      swap1\n      dup1\n      0x03\n      add\n      dup1\n      sload\n      tag_188\n      swap1\n      tag_108\n      jump\t// in\n    tag_188:\n      dup1\n      0x1f\n      add\n      0x20\n      dup1\n      swap2\n      div\n      mul\n      0x20\n      add\n      mload(0x40)\n      swap1\n      dup2\n      add\n      0x40\n      mstore\n      dup1\n      swap3\n      swap2\n      swap1\n      dup2\n      dup2\n      mstore\n      0x20\n      add\n      dup3\n      dup1\n      sload\n      tag_189\n      swap1\n      tag_108\n      jump\t// in\n    tag_189:\n      dup1\n      iszero\n      tag_190\n      jumpi\n      dup1\n      0x1f\n      lt\n      tag_191\n      jumpi\n      0x0100\n      dup1\n      dup4\n      sload\n      div\n      mul\n      dup4\n      mstore\n      swap2\n      0x20\n      add\n      swap2\n      jump(tag_190)\n    tag_191:\n      dup3\n      add\n      swap2\n      swap1\n      0x00\n      mstore\n      keccak256(0x00, 0x20)\n      swap1\n    tag_192:\n      dup2\n      sload\n      dup2\n      mstore\n      swap1\n      0x01\n      add\n      swap1\n      0x20\n      add\n      dup1\n      dup4\n      gt\n      tag_192\n      jumpi\n      dup3\n      swap1\n      sub\n      0x1f\n      and\n      dup3\n      add\n      swap2\n    tag_190:\n      pop\n      pop\n      pop\n      pop\n      pop\n      swap1\n      dup1\n      0x04\n      add\n      dup1\n      sload\n      tag_193\n      swap1\n      tag_108\n      jump\t// in\n    tag_193:\n      dup1\n      0x1f\n      add\n      0x20\n      dup1\n      swap2\n      div\n      mul\n      0x20\n      add\n      mload(0x40)\n      swap1\n      dup2\n      add\n      0x40\n      mstore\n      dup1\n      swap3\n      swap2\n      swap1\n      dup2\n      dup2\n      mstore\n      0x20\n      add\n      dup3\n      dup1\n      sload\n      tag_194\n      swap1\n      tag_108\n      jump\t// in\n    tag_194:\n      dup1\n      iszero\n      tag_195\n      jumpi\n      dup1\n      0x1f\n      lt\n      tag_196\n      jumpi\n      0x0100\n      dup1\n      dup4\n      sload\n      div\n      mul\n      dup4\n      mstore\n      swap2\n      0x20\n      add\n      swap2\n      jump(tag_195)\n    tag_196:\n      dup3\n      add\n      swap2\n      swap1\n      0x00\n      mstore\n      keccak256(0x00, 0x20)\n      swap1\n    tag_197:\n      dup2\n      sload\n      dup2\n      mstore\n      swap1\n      0x01\n      add\n      swap1\n      0x20\n      add\n      dup1\n      dup4\n      gt\n      tag_197\n      jumpi\n      dup3\n      swap1\n      sub\n      0x1f\n      and\n      dup3\n      add\n      swap2\n    tag_195:\n      pop\n      pop\n      pop\n      pop\n      pop\n      swap1\n      dup1\n      0x05\n      add\n      0x00\n      swap1\n      sload\n      swap1\n      0x0100\n      exp\n      swap1\n      div\n      0xffffffffffffffffffffffffffffffffffffffff\n      and\n      swap1\n      dup1\n      0x05\n      add\n      0x14\n      swap1\n      sload\n      swap1\n      0x0100\n      exp\n      swap1\n      div\n      0xff\n      and\n      swap1\n      dup1\n      0x05\n      add\n      0x15\n      swap1\n      sload\n      swap1\n      0x0100\n      exp\n      swap1\n      div\n      0xff\n      and\n      swap1\n      pop\n      dup9\n      jump\t// out\n        /* \"soljobs.sol\":3623:4327  function createJobOffer(... */\n    tag_44:\n        /* \"soljobs.sol\":3812:3822  msg.sender */\n      caller\n        /* \"soljobs.sol\":1345:1349  true */\n      0x01\n        /* \"soljobs.sol\":1315:1349  creatorAddresses[_address] == true */\n      iszero\n      iszero\n        /* \"soljobs.sol\":1315:1331  creatorAddresses */\n      0x07\n        /* \"soljobs.sol\":1315:1341  creatorAddresses[_address] */\n      0x00\n        /* \"soljobs.sol\":1332:1340  _address */\n      dup4\n        /* \"soljobs.sol\":1315:1341  creatorAddresses[_address] */\n      0xffffffffffffffffffffffffffffffffffffffff\n      and\n      0xffffffffffffffffffffffffffffffffffffffff\n      and\n      dup2\n      mstore\n      0x20\n      add\n      swap1\n      dup2\n      mstore\n      0x20\n      add\n      0x00\n      keccak256\n      0x00\n      swap1\n      sload\n      swap1\n      0x0100\n      exp\n      swap1\n      div\n      0xff\n      and\n        /* \"soljobs.sol\":1315:1349  creatorAddresses[_address] == true */\n      iszero\n      iszero\n      eq\n        /* \"soljobs.sol\":1351:1376  callerHasNoCreatorProfile */\n      mload(0x40)\n      dup1\n      0x60\n      add\n      0x40\n      mstore\n      dup1\n      0x2a\n      dup2\n      mstore\n      0x20\n      add\n      data_05dea7a4b749a72103fdaacfd8c830026d599fd95b58e235d7a5b87bda223903\n      0x2a\n      swap2\n      codecopy\n        /* \"soljobs.sol\":1307:1377  require(creatorAddresses[_address] == true, callerHasNoCreatorProfile) */\n      swap1\n      tag_199\n      jumpi\n      mload(0x40)\n      0x08c379a000000000000000000000000000000000000000000000000000000000\n      dup2\n      mstore\n      0x04\n      add\n      tag_200\n      swap2\n      swap1\n      tag_60\n      jump\t// in\n    tag_200:\n      mload(0x40)\n      dup1\n      swap2\n      sub\n      swap1\n      revert\n    tag_199:\n      pop\n        /* \"soljobs.sol\":3834:3844  uint jobID */\n      0x00\n        /* \"soljobs.sol\":3849:3868  numberOfJobsCreated */\n      0x09\n      0x00\n        /* \"soljobs.sol\":3847:3868  ++numberOfJobsCreated */\n      dup2\n      sload\n      tag_202\n      swap1\n      tag_81\n      jump\t// in\n    tag_202:\n      swap2\n      swap1\n      pop\n      dup2\n      swap1\n      sstore\n        /* \"soljobs.sol\":3834:3868  uint jobID = ++numberOfJobsCreated */\n      swap1\n      pop\n        /* \"soljobs.sol\":3878:3898  JobOffer storage job */\n      0x00\n        /* \"soljobs.sol\":3901:3910  jobOffers */\n      0x0a\n        /* \"soljobs.sol\":3901:3917  jobOffers[jobID] */\n      0x00\n        /* \"soljobs.sol\":3911:3916  jobID */\n      dup4\n        /* \"soljobs.sol\":3901:3917  jobOffers[jobID] */\n      dup2\n      mstore\n      0x20\n      add\n      swap1\n      dup2\n      mstore\n      0x20\n      add\n      0x00\n      keccak256\n        /* \"soljobs.sol\":3878:3917  JobOffer storage job = jobOffers[jobID] */\n      swap1\n      pop\n        /* \"soljobs.sol\":3936:3941  jobID */\n      dup2\n        /* \"soljobs.sol\":3927:3930  job */\n      dup2\n        /* \"soljobs.sol\":3927:3933  job.id */\n      0x00\n      add\n        /* \"soljobs.sol\":3927:3941  job.id = jobID */\n      dup2\n      swap1\n      sstore\n      pop\n        /* \"soljobs.sol\":3963:3968  title */\n      dup9\n      dup9\n        /* \"soljobs.sol\":3951:3954  job */\n      dup3\n        /* \"soljobs.sol\":3951:3960  job.title */\n      0x01\n      add\n        /* \"soljobs.sol\":3951:3968  job.title = title */\n      swap2\n      dup3\n      tag_203\n      swap3\n      swap2\n      swap1\n      tag_98\n      jump\t// in\n    tag_203:\n      pop\n        /* \"soljobs.sol\":3996:4007  description */\n      dup7\n      dup7\n        /* \"soljobs.sol\":3978:3981  job */\n      dup3\n        /* \"soljobs.sol\":3978:3993  job.description */\n      0x02\n      add\n        /* \"soljobs.sol\":3978:4007  job.description = description */\n      swap2\n      dup3\n      tag_204\n      swap3\n      swap2\n      swap1\n      tag_98\n      jump\t// in\n    tag_204:\n      pop\n        /* \"soljobs.sol\":4036:4048  compensation */\n      dup5\n        /* \"soljobs.sol\":4017:4020  job */\n      dup2\n        /* \"soljobs.sol\":4017:4033  job.compensation */\n      0x03\n      add\n        /* \"soljobs.sol\":4017:4048  job.compensation = compensation */\n      dup2\n      swap1\n      sstore\n      pop\n        /* \"soljobs.sol\":4081:4097  numberOfMaxHires */\n      dup4\n        /* \"soljobs.sol\":4058:4061  job */\n      dup2\n        /* \"soljobs.sol\":4058:4078  job.numberOfMaxHires */\n      0x0d\n      add\n        /* \"soljobs.sol\":4058:4097  job.numberOfMaxHires = numberOfMaxHires */\n      dup2\n      swap1\n      sstore\n      pop\n        /* \"soljobs.sol\":4116:4145  CreatorProfile memory creator */\n      0x00\n        /* \"soljobs.sol\":4148:4163  creatorProfiles */\n      0x01\n        /* \"soljobs.sol\":4148:4175  creatorProfiles[msg.sender] */\n      0x00\n        /* \"soljobs.sol\":4164:4174  msg.sender */\n      caller\n        /* \"soljobs.sol\":4148:4175  creatorProfiles[msg.sender] */\n      0xffffffffffffffffffffffffffffffffffffffff\n      and\n      0xffffffffffffffffffffffffffffffffffffffff\n      and\n      dup2\n      mstore\n      0x20\n      add\n      swap1\n      dup2\n      mstore\n      0x20\n      add\n      0x00\n      keccak256\n        /* \"soljobs.sol\":4116:4175  CreatorProfile memory creator = creatorProfiles[msg.sender] */\n      mload(0x40)\n      dup1\n      0x0120\n      add\n      0x40\n      mstore\n      swap1\n      dup2\n      0x00\n      dup3\n      add\n      sload\n      dup2\n      mstore\n      0x20\n      add\n      0x01\n      dup3\n      add\n      dup1\n      sload\n      tag_205\n      swap1\n      tag_108\n      jump\t// in\n    tag_205:\n      dup1\n      0x1f\n      add\n      0x20\n      dup1\n      swap2\n      div\n      mul\n      0x20\n      add\n      mload(0x40)\n      swap1\n      dup2\n      add\n      0x40\n      mstore\n      dup1\n      swap3\n      swap2\n      swap1\n      dup2\n      dup2\n      mstore\n      0x20\n      add\n      dup3\n      dup1\n      sload\n      tag_206\n      swap1\n      tag_108\n      jump\t// in\n    tag_206:\n      dup1\n      iszero\n      tag_207\n      jumpi\n      dup1\n      0x1f\n      lt\n      tag_208\n      jumpi\n      0x0100\n      dup1\n      dup4\n      sload\n      div\n      mul\n      dup4\n      mstore\n      swap2\n      0x20\n      add\n      swap2\n      jump(tag_207)\n    tag_208:\n      dup3\n      add\n      swap2\n      swap1\n      0x00\n      mstore\n      keccak256(0x00, 0x20)\n      swap1\n    tag_209:\n      dup2\n      sload\n      dup2\n      mstore\n      swap1\n      0x01\n      add\n      swap1\n      0x20\n      add\n      dup1\n      dup4\n      gt\n      tag_209\n      jumpi\n      dup3\n      swap1\n      sub\n      0x1f\n      and\n      dup3\n      add\n      swap2\n    tag_207:\n      pop\n      pop\n      pop\n      pop\n      pop\n      dup2\n      mstore\n      0x20\n      add\n      0x02\n      dup3\n      add\n      dup1\n      sload\n      tag_210\n      swap1\n      tag_108\n      jump\t// in\n    tag_210:\n      dup1\n      0x1f\n      add\n      0x20\n      dup1\n      swap2\n      div\n      mul\n      0x20\n      add\n      mload(0x40)\n      swap1\n      dup2\n      add\n      0x40\n      mstore\n      dup1\n      swap3\n      swap2\n      swap1\n      dup2\n      dup2\n      mstore\n      0x20\n      add\n      dup3\n      dup1\n      sload\n      tag_211\n      swap1\n      tag_108\n      jump\t// in\n    tag_211:\n      dup1\n      iszero\n      tag_212\n      jumpi\n      dup1\n      0x1f\n      lt\n      tag_213\n      jumpi\n      0x0100\n      dup1\n      dup4\n      sload\n      div\n      mul\n      dup4\n      mstore\n      swap2\n      0x20\n      add\n      swap2\n      jump(tag_212)\n    tag_213:\n      dup3\n      add\n      swap2\n      swap1\n      0x00\n      mstore\n      keccak256(0x00, 0x20)\n      swap1\n    tag_214:\n      dup2\n      sload\n      dup2\n      mstore\n      swap1\n      0x01\n      add\n      swap1\n      0x20\n      add\n      dup1\n      dup4\n      gt\n      tag_214\n      jumpi\n      dup3\n      swap1\n      sub\n      0x1f\n      and\n      dup3\n      add\n      swap2\n    tag_212:\n      pop\n      pop\n      pop\n      pop\n      pop\n      dup2\n      mstore\n      0x20\n      add\n      0x03\n      dup3\n      add\n      dup1\n      sload\n      tag_215\n      swap1\n      tag_108\n      jump\t// in\n    tag_215:\n      dup1\n      0x1f\n      add\n      0x20\n      dup1\n      swap2\n      div\n      mul\n      0x20\n      add\n      mload(0x40)\n      swap1\n      dup2\n      add\n      0x40\n      mstore\n      dup1\n      swap3\n      swap2\n      swap1\n      dup2\n      dup2\n      mstore\n      0x20\n      add\n      dup3\n      dup1\n      sload\n      tag_216\n      swap1\n      tag_108\n      jump\t// in\n    tag_216:\n      dup1\n      iszero\n      tag_217\n      jumpi\n      dup1\n      0x1f\n      lt\n      tag_218\n      jumpi\n      0x0100\n      dup1\n      dup4\n      sload\n      div\n      mul\n      dup4\n      mstore\n      swap2\n      0x20\n      add\n      swap2\n      jump(tag_217)\n    tag_218:\n      dup3\n      add\n      swap2\n      swap1\n      0x00\n      mstore\n      keccak256(0x00, 0x20)\n      swap1\n    tag_219:\n      dup2\n      sload\n      dup2\n      mstore\n      swap1\n      0x01\n      add\n      swap1\n      0x20\n      add\n      dup1\n      dup4\n      gt\n      tag_219\n      jumpi\n      dup3\n      swap1\n      sub\n      0x1f\n      and\n      dup3\n      add\n      swap2\n    tag_217:\n      pop\n      pop\n      pop\n      pop\n      pop\n      dup2\n      mstore\n      0x20\n      add\n      0x04\n      dup3\n      add\n      dup1\n      sload\n      tag_220\n      swap1\n      tag_108\n      jump\t// in\n    tag_220:\n      dup1\n      0x1f\n      add\n      0x20\n      dup1\n      swap2\n      div\n      mul\n      0x20\n      add\n      mload(0x40)\n      swap1\n      dup2\n      add\n      0x40\n      mstore\n      dup1\n      swap3\n      swap2\n      swap1\n      dup2\n      dup2\n      mstore\n      0x20\n      add\n      dup3\n      dup1\n      sload\n      tag_221\n      swap1\n      tag_108\n      jump\t// in\n    tag_221:\n      dup1\n      iszero\n      tag_222\n      jumpi\n      dup1\n      0x1f\n      lt\n      tag_223\n      jumpi\n      0x0100\n      dup1\n      dup4\n      sload\n      div\n      mul\n      dup4\n      mstore\n      swap2\n      0x20\n      add\n      swap2\n      jump(tag_222)\n    tag_223:\n      dup3\n      add\n      swap2\n      swap1\n      0x00\n      mstore\n      keccak256(0x00, 0x20)\n      swap1\n    tag_224:\n      dup2\n      sload\n      dup2\n      mstore\n      swap1\n      0x01\n      add\n      swap1\n      0x20\n      add\n      dup1\n      dup4\n      gt\n      tag_224\n      jumpi\n      dup3\n      swap1\n      sub\n      0x1f\n      and\n      dup3\n      add\n      swap2\n    tag_222:\n      pop\n      pop\n      pop\n      pop\n      pop\n      dup2\n      mstore\n      0x20\n      add\n      0x05\n      dup3\n      add\n      0x00\n      swap1\n      sload\n      swap1\n      0x0100\n      exp\n      swap1\n      div\n      0xffffffffffffffffffffffffffffffffffffffff\n      and\n      0xffffffffffffffffffffffffffffffffffffffff\n      and\n      0xffffffffffffffffffffffffffffffffffffffff\n      and\n      dup2\n      mstore\n      0x20\n      add\n      0x05\n      dup3\n      add\n      0x14\n      swap1\n      sload\n      swap1\n      0x0100\n      exp\n      swap1\n      div\n      0xff\n      and\n      iszero\n      iszero\n      iszero\n      iszero\n      dup2\n      mstore\n      0x20\n      add\n      0x05\n      dup3\n      add\n      0x15\n      swap1\n      sload\n      swap1\n      0x0100\n      exp\n      swap1\n      div\n      0xff\n      and\n      0x01\n      dup2\n      gt\n      iszero\n      tag_225\n      jumpi\n      tag_226\n      tag_64\n      jump\t// in\n    tag_226:\n    tag_225:\n      0x01\n      dup2\n      gt\n      iszero\n      tag_227\n      jumpi\n      tag_228\n      tag_64\n      jump\t// in\n    tag_228:\n    tag_227:\n      dup2\n      mstore\n      0x20\n      add\n      0x06\n      dup3\n      add\n      dup1\n      sload\n      dup1\n      0x20\n      mul\n      0x20\n      add\n      mload(0x40)\n      swap1\n      dup2\n      add\n      0x40\n      mstore\n      dup1\n      swap3\n      swap2\n      swap1\n      dup2\n      dup2\n      mstore\n      0x20\n      add\n      dup3\n      dup1\n      sload\n      dup1\n      iszero\n      tag_229\n      jumpi\n      0x20\n      mul\n      dup3\n      add\n      swap2\n      swap1\n      0x00\n      mstore\n      keccak256(0x00, 0x20)\n      swap1\n    tag_230:\n      dup2\n      sload\n      dup2\n      mstore\n      0x20\n      add\n      swap1\n      0x01\n      add\n      swap1\n      dup1\n      dup4\n      gt\n      tag_230\n      jumpi\n    tag_229:\n      pop\n      pop\n      pop\n      pop\n      pop\n      dup2\n      mstore\n      pop\n      pop\n      swap1\n      pop\n        /* \"soljobs.sol\":4199:4206  creator */\n      dup1\n        /* \"soljobs.sol\":4185:4188  job */\n      dup3\n        /* \"soljobs.sol\":4185:4196  job.creator */\n      0x04\n      add\n        /* \"soljobs.sol\":4185:4206  job.creator = creator */\n      0x00\n      dup3\n      add\n      mload\n      dup2\n      0x00\n      add\n      sstore\n      0x20\n      dup3\n      add\n      mload\n      dup2\n      0x01\n      add\n      swap1\n      dup2\n      tag_231\n      swap2\n      swap1\n      tag_232\n      jump\t// in\n    tag_231:\n      pop\n      0x40\n      dup3\n      add\n      mload\n      dup2\n      0x02\n      add\n      swap1\n      dup2\n      tag_233\n      swap2\n      swap1\n      tag_232\n      jump\t// in\n    tag_233:\n      pop\n      0x60\n      dup3\n      add\n      mload\n      dup2\n      0x03\n      add\n      swap1\n      dup2\n      tag_234\n      swap2\n      swap1\n      tag_232\n      jump\t// in\n    tag_234:\n      pop\n      0x80\n      dup3\n      add\n      mload\n      dup2\n      0x04\n      add\n      swap1\n      dup2\n      tag_235\n      swap2\n      swap1\n      tag_232\n      jump\t// in\n    tag_235:\n      pop\n      0xa0\n      dup3\n      add\n      mload\n      dup2\n      0x05\n      add\n      exp(0x0100, 0x00)\n      dup2\n      sload\n      dup2\n      0xffffffffffffffffffffffffffffffffffffffff\n      mul\n      not\n      and\n      swap1\n      dup4\n      0xffffffffffffffffffffffffffffffffffffffff\n      and\n      mul\n      or\n      swap1\n      sstore\n      pop\n      0xc0\n      dup3\n      add\n      mload\n      dup2\n      0x05\n      add\n      exp(0x0100, 0x14)\n      dup2\n      sload\n      dup2\n      0xff\n      mul\n      not\n      and\n      swap1\n      dup4\n      iszero\n      iszero\n      mul\n      or\n      swap1\n      sstore\n      pop\n      0xe0\n      dup3\n      add\n      mload\n      dup2\n      0x05\n      add\n      exp(0x0100, 0x15)\n      dup2\n      sload\n      dup2\n      0xff\n      mul\n      not\n      and\n      swap1\n      dup4\n      0x01\n      dup2\n      gt\n      iszero\n      tag_236\n      jumpi\n      tag_237\n      tag_64\n      jump\t// in\n    tag_237:\n    tag_236:\n      mul\n      or\n      swap1\n      sstore\n      pop\n      0x0100\n      dup3\n      add\n      mload\n      dup2\n      0x06\n      add\n      swap1\n      dup1\n      mload\n      swap1\n      0x20\n      add\n      swap1\n      tag_238\n      swap3\n      swap2\n      swap1\n      tag_239\n      jump\t// in\n    tag_238:\n      pop\n      swap1\n      pop\n      pop\n        /* \"soljobs.sol\":4229:4248  JobOfferStatus.Open */\n      0x00\n        /* \"soljobs.sol\":4216:4219  job */\n      dup3\n        /* \"soljobs.sol\":4216:4226  job.status */\n      0x0c\n      add\n      0x00\n        /* \"soljobs.sol\":4216:4248  job.status = JobOfferStatus.Open */\n      0x0100\n      exp\n      dup2\n      sload\n      dup2\n      0xff\n      mul\n      not\n      and\n      swap1\n      dup4\n      0x02\n      dup2\n      gt\n      iszero\n      tag_240\n      jumpi\n      tag_241\n      tag_64\n      jump\t// in\n    tag_241:\n    tag_240:\n      mul\n      or\n      swap1\n      sstore\n      pop\n        /* \"soljobs.sol\":4276:4277  0 */\n      0x00\n        /* \"soljobs.sol\":4258:4261  job */\n      dup3\n        /* \"soljobs.sol\":4258:4273  job.numberHired */\n      0x0e\n      add\n        /* \"soljobs.sol\":4258:4277  job.numberHired = 0 */\n      dup2\n      swap1\n      sstore\n      pop\n        /* \"soljobs.sol\":4303:4320  JobCreated(jobID) */\n      0x92447c6ecd808d390fb352da0dc90a05275b074c43bf302132a27fabafa6872b\n        /* \"soljobs.sol\":4314:4319  jobID */\n      dup4\n        /* \"soljobs.sol\":4303:4320  JobCreated(jobID) */\n      mload(0x40)\n      tag_242\n      swap2\n      swap1\n      tag_106\n      jump\t// in\n    tag_242:\n      mload(0x40)\n      dup1\n      swap2\n      sub\n      swap1\n      log1\n        /* \"soljobs.sol\":3824:4327  {... */\n      pop\n      pop\n      pop\n        /* \"soljobs.sol\":3623:4327  function createJobOffer(... */\n      pop\n      pop\n      pop\n      pop\n      pop\n      pop\n      pop\n      jump\t// out\n        /* \"soljobs.sol\":5797:6074  function rejectApplication(uint applicationID) external callerHasCreatorProfile(msg.sender) {... */\n    tag_47:\n        /* \"soljobs.sol\":5877:5887  msg.sender */\n      caller\n        /* \"soljobs.sol\":1345:1349  true */\n      0x01\n        /* \"soljobs.sol\":1315:1349  creatorAddresses[_address] == true */\n      iszero\n      iszero\n        /* \"soljobs.sol\":1315:1331  creatorAddresses */\n      0x07\n        /* \"soljobs.sol\":1315:1341  creatorAddresses[_address] */\n      0x00\n        /* \"soljobs.sol\":1332:1340  _address */\n      dup4\n        /* \"soljobs.sol\":1315:1341  creatorAddresses[_address] */\n      0xffffffffffffffffffffffffffffffffffffffff\n      and\n      0xffffffffffffffffffffffffffffffffffffffff\n      and\n      dup2\n      mstore\n      0x20\n      add\n      swap1\n      dup2\n      mstore\n      0x20\n      add\n      0x00\n      keccak256\n      0x00\n      swap1\n      sload\n      swap1\n      0x0100\n      exp\n      swap1\n      div\n      0xff\n      and\n        /* \"soljobs.sol\":1315:1349  creatorAddresses[_address] == true */\n      iszero\n      iszero\n      eq\n        /* \"soljobs.sol\":1351:1376  callerHasNoCreatorProfile */\n      mload(0x40)\n      dup1\n      0x60\n      add\n      0x40\n      mstore\n      dup1\n      0x2a\n      dup2\n      mstore\n      0x20\n      add\n      data_05dea7a4b749a72103fdaacfd8c830026d599fd95b58e235d7a5b87bda223903\n      0x2a\n      swap2\n      codecopy\n        /* \"soljobs.sol\":1307:1377  require(creatorAddresses[_address] == true, callerHasNoCreatorProfile) */\n      swap1\n      tag_244\n      jumpi\n      mload(0x40)\n      0x08c379a000000000000000000000000000000000000000000000000000000000\n      dup2\n      mstore\n      0x04\n      add\n      tag_245\n      swap2\n      swap1\n      tag_60\n      jump\t// in\n    tag_245:\n      mload(0x40)\n      dup1\n      swap2\n      sub\n      swap1\n      revert\n    tag_244:\n      pop\n        /* \"soljobs.sol\":5899:5936  JobApplication storage jobApplication */\n      0x00\n        /* \"soljobs.sol\":5939:5954  jobApplications */\n      0x0c\n        /* \"soljobs.sol\":5939:5969  jobApplications[applicationID] */\n      0x00\n        /* \"soljobs.sol\":5955:5968  applicationID */\n      dup5\n        /* \"soljobs.sol\":5939:5969  jobApplications[applicationID] */\n      dup2\n      mstore\n      0x20\n      add\n      swap1\n      dup2\n      mstore\n      0x20\n      add\n      0x00\n      keccak256\n        /* \"soljobs.sol\":5899:5969  JobApplication storage jobApplication = jobApplications[applicationID] */\n      swap1\n      pop\n        /* \"soljobs.sol\":6038:6067  JobApplicationStatus.Rejected */\n      0x02\n        /* \"soljobs.sol\":6014:6028  jobApplication */\n      dup2\n        /* \"soljobs.sol\":6014:6035  jobApplication.status */\n      0x0b\n      add\n      0x00\n        /* \"soljobs.sol\":6014:6067  jobApplication.status = JobApplicationStatus.Rejected */\n      0x0100\n      exp\n      dup2\n      sload\n      dup2\n      0xff\n      mul\n      not\n      and\n      swap1\n      dup4\n      0x02\n      dup2\n      gt\n      iszero\n      tag_247\n      jumpi\n      tag_248\n      tag_64\n      jump\t// in\n    tag_248:\n    tag_247:\n      mul\n      or\n      swap1\n      sstore\n      pop\n        /* \"soljobs.sol\":5889:6074  {... */\n      pop\n        /* \"soljobs.sol\":5797:6074  function rejectApplication(uint applicationID) external callerHasCreatorProfile(msg.sender) {... */\n      pop\n      pop\n      jump\t// out\n        /* \"soljobs.sol\":4333:5061  function applyForAJob(... */\n    tag_51:\n        /* \"soljobs.sol\":4453:4463  msg.sender */\n      caller\n        /* \"soljobs.sol\":1504:1508  true */\n      0x01\n        /* \"soljobs.sol\":1472:1508  applicantAddresses[_address] == true */\n      iszero\n      iszero\n        /* \"soljobs.sol\":1472:1490  applicantAddresses */\n      0x08\n        /* \"soljobs.sol\":1472:1500  applicantAddresses[_address] */\n      0x00\n        /* \"soljobs.sol\":1491:1499  _address */\n      dup4\n        /* \"soljobs.sol\":1472:1500  applicantAddresses[_address] */\n      0xffffffffffffffffffffffffffffffffffffffff\n      and\n      0xffffffffffffffffffffffffffffffffffffffff\n      and\n      dup2\n      mstore\n      0x20\n      add\n      swap1\n      dup2\n      mstore\n      0x20\n      add\n      0x00\n      keccak256\n      0x00\n      swap1\n      sload\n      swap1\n      0x0100\n      exp\n      swap1\n      div\n      0xff\n      and\n        /* \"soljobs.sol\":1472:1508  applicantAddresses[_address] == true */\n      iszero\n      iszero\n      eq\n        /* \"soljobs.sol\":1510:1537  callerHasNoApplicantProfile */\n      mload(0x40)\n      dup1\n      0x60\n      add\n      0x40\n      mstore\n      dup1\n      0x2d\n      dup2\n      mstore\n      0x20\n      add\n      data_9755ada8cad867ffa51d229fac4adc70eea3cdc0842b0add29f0fba8b4558158\n      0x2d\n      swap2\n      codecopy\n        /* \"soljobs.sol\":1464:1538  require(applicantAddresses[_address] == true, callerHasNoApplicantProfile) */\n      swap1\n      tag_250\n      jumpi\n      mload(0x40)\n      0x08c379a000000000000000000000000000000000000000000000000000000000\n      dup2\n      mstore\n      0x04\n      add\n      tag_251\n      swap2\n      swap1\n      tag_60\n      jump\t// in\n    tag_251:\n      mload(0x40)\n      dup1\n      swap2\n      sub\n      swap1\n      revert\n    tag_250:\n      pop\n        /* \"soljobs.sol\":4480:4485  jobID */\n      dup4\n        /* \"soljobs.sol\":1613:1633  JobOffer storage job */\n      0x00\n        /* \"soljobs.sol\":1637:1646  jobOffers */\n      0x0a\n        /* \"soljobs.sol\":1637:1658  jobOffers[jobOfferID] */\n      0x00\n        /* \"soljobs.sol\":1647:1657  jobOfferID */\n      dup4\n        /* \"soljobs.sol\":1637:1658  jobOffers[jobOfferID] */\n      dup2\n      mstore\n      0x20\n      add\n      swap1\n      dup2\n      mstore\n      0x20\n      add\n      0x00\n      keccak256\n        /* \"soljobs.sol\":1613:1658  JobOffer storage job  = jobOffers[jobOfferID] */\n      swap1\n      pop\n        /* \"soljobs.sol\":1690:1709  JobOfferStatus.Open */\n      0x00\n        /* \"soljobs.sol\":1676:1709  job.status == JobOfferStatus.Open */\n      0x02\n      dup2\n      gt\n      iszero\n      tag_253\n      jumpi\n      tag_254\n      tag_64\n      jump\t// in\n    tag_254:\n    tag_253:\n        /* \"soljobs.sol\":1676:1679  job */\n      dup2\n        /* \"soljobs.sol\":1676:1686  job.status */\n      0x0c\n      add\n      0x00\n      swap1\n      sload\n      swap1\n      0x0100\n      exp\n      swap1\n      div\n      0xff\n      and\n        /* \"soljobs.sol\":1676:1709  job.status == JobOfferStatus.Open */\n      0x02\n      dup2\n      gt\n      iszero\n      tag_255\n      jumpi\n      tag_256\n      tag_64\n      jump\t// in\n    tag_256:\n    tag_255:\n      eq\n        /* \"soljobs.sol\":1711:1728  jobIsNoLongerOpen */\n      mload(0x40)\n      dup1\n      0x60\n      add\n      0x40\n      mstore\n      dup1\n      0x31\n      dup2\n      mstore\n      0x20\n      add\n      data_a3605fa09f1c5c7279bc358c171f0da9ae269353595c63c3961d947ae51550d5\n      0x31\n      swap2\n      codecopy\n        /* \"soljobs.sol\":1668:1729  require(job.status == JobOfferStatus.Open, jobIsNoLongerOpen) */\n      swap1\n      tag_257\n      jumpi\n      mload(0x40)\n      0x08c379a000000000000000000000000000000000000000000000000000000000\n      dup2\n      mstore\n      0x04\n      add\n      tag_258\n      swap2\n      swap1\n      tag_60\n      jump\t// in\n    tag_258:\n      mload(0x40)\n      dup1\n      swap2\n      sub\n      swap1\n      revert\n    tag_257:\n      pop\n        /* \"soljobs.sol\":4497:4515  uint applicationID */\n      0x00\n        /* \"soljobs.sol\":4520:4540  numberOfApplications */\n      0x0b\n      0x00\n        /* \"soljobs.sol\":4518:4540  ++numberOfApplications */\n      dup2\n      sload\n      tag_260\n      swap1\n      tag_81\n      jump\t// in\n    tag_260:\n      swap2\n      swap1\n      pop\n      dup2\n      swap1\n      sstore\n        /* \"soljobs.sol\":4497:4540  uint applicationID = ++numberOfApplications */\n      swap1\n      pop\n        /* \"soljobs.sol\":4551:4576  JobOffer storage jobOffer */\n      0x00\n        /* \"soljobs.sol\":4579:4588  jobOffers */\n      0x0a\n        /* \"soljobs.sol\":4579:4595  jobOffers[jobID] */\n      0x00\n        /* \"soljobs.sol\":4589:4594  jobID */\n      dup10\n        /* \"soljobs.sol\":4579:4595  jobOffers[jobID] */\n      dup2\n      mstore\n      0x20\n      add\n      swap1\n      dup2\n      mstore\n      0x20\n      add\n      0x00\n      keccak256\n        /* \"soljobs.sol\":4551:4595  JobOffer storage jobOffer = jobOffers[jobID] */\n      swap1\n      pop\n        /* \"soljobs.sol\":4606:4643  JobApplication storage jobApplication */\n      0x00\n        /* \"soljobs.sol\":4646:4661  jobApplications */\n      0x0c\n        /* \"soljobs.sol\":4646:4676  jobApplications[applicationID] */\n      0x00\n        /* \"soljobs.sol\":4662:4675  applicationID */\n      dup5\n        /* \"soljobs.sol\":4646:4676  jobApplications[applicationID] */\n      dup2\n      mstore\n      0x20\n      add\n      swap1\n      dup2\n      mstore\n      0x20\n      add\n      0x00\n      keccak256\n        /* \"soljobs.sol\":4606:4676  JobApplication storage jobApplication = jobApplications[applicationID] */\n      swap1\n      pop\n        /* \"soljobs.sol\":4706:4719  applicationID */\n      dup3\n        /* \"soljobs.sol\":4686:4700  jobApplication */\n      dup2\n        /* \"soljobs.sol\":4686:4703  jobApplication.id */\n      0x00\n      add\n        /* \"soljobs.sol\":4686:4719  jobApplication.id = applicationID */\n      dup2\n      swap1\n      sstore\n      pop\n        /* \"soljobs.sol\":4757:4762  jobID */\n      dup9\n        /* \"soljobs.sol\":4729:4743  jobApplication */\n      dup2\n        /* \"soljobs.sol\":4729:4754  jobApplication.jobOfferId */\n      0x01\n      add\n        /* \"soljobs.sol\":4729:4762  jobApplication.jobOfferId = jobID */\n      dup2\n      swap1\n      sstore\n      pop\n        /* \"soljobs.sol\":4801:4812  coverLetter */\n      dup8\n      dup8\n        /* \"soljobs.sol\":4772:4786  jobApplication */\n      dup3\n        /* \"soljobs.sol\":4772:4798  jobApplication.coverLetter */\n      0x02\n      add\n        /* \"soljobs.sol\":4772:4812  jobApplication.coverLetter = coverLetter */\n      swap2\n      dup3\n      tag_261\n      swap3\n      swap2\n      swap1\n      tag_98\n      jump\t// in\n    tag_261:\n      pop\n        /* \"soljobs.sol\":4849:4866  applicantProfiles */\n      0x02\n        /* \"soljobs.sol\":4849:4878  applicantProfiles[msg.sender] */\n      0x00\n        /* \"soljobs.sol\":4867:4877  msg.sender */\n      caller\n        /* \"soljobs.sol\":4849:4878  applicantProfiles[msg.sender] */\n      0xffffffffffffffffffffffffffffffffffffffff\n      and\n      0xffffffffffffffffffffffffffffffffffffffff\n      and\n      dup2\n      mstore\n      0x20\n      add\n      swap1\n      dup2\n      mstore\n      0x20\n      add\n      0x00\n      keccak256\n        /* \"soljobs.sol\":4822:4836  jobApplication */\n      dup2\n        /* \"soljobs.sol\":4822:4846  jobApplication.applicant */\n      0x03\n      add\n        /* \"soljobs.sol\":4822:4878  jobApplication.applicant = applicantProfiles[msg.sender] */\n      0x00\n      dup3\n      add\n      sload\n      dup2\n      0x00\n      add\n      sstore\n      0x01\n      dup3\n      add\n      0x00\n      swap1\n      sload\n      swap1\n      0x0100\n      exp\n      swap1\n      div\n      0xffffffffffffffffffffffffffffffffffffffff\n      and\n      dup2\n      0x01\n      add\n      exp(0x0100, 0x00)\n      dup2\n      sload\n      dup2\n      0xffffffffffffffffffffffffffffffffffffffff\n      mul\n      not\n      and\n      swap1\n      dup4\n      0xffffffffffffffffffffffffffffffffffffffff\n      and\n      mul\n      or\n      swap1\n      sstore\n      pop\n      0x02\n      dup3\n      add\n      dup2\n      0x02\n      add\n      swap1\n      dup2\n      tag_262\n      swap2\n      swap1\n      tag_263\n      jump\t// in\n    tag_262:\n      pop\n      0x03\n      dup3\n      add\n      dup2\n      0x03\n      add\n      swap1\n      dup2\n      tag_264\n      swap2\n      swap1\n      tag_263\n      jump\t// in\n    tag_264:\n      pop\n      0x04\n      dup3\n      add\n      dup2\n      0x04\n      add\n      swap1\n      dup2\n      tag_265\n      swap2\n      swap1\n      tag_263\n      jump\t// in\n    tag_265:\n      pop\n      0x05\n      dup3\n      add\n      dup2\n      0x05\n      add\n      swap1\n      dup2\n      tag_266\n      swap2\n      swap1\n      tag_263\n      jump\t// in\n    tag_266:\n      pop\n      0x06\n      dup3\n      add\n      0x00\n      swap1\n      sload\n      swap1\n      0x0100\n      exp\n      swap1\n      div\n      0xff\n      and\n      dup2\n      0x06\n      add\n      exp(0x0100, 0x00)\n      dup2\n      sload\n      dup2\n      0xff\n      mul\n      not\n      and\n      swap1\n      dup4\n      0x01\n      dup2\n      gt\n      iszero\n      tag_267\n      jumpi\n      tag_268\n      tag_64\n      jump\t// in\n    tag_268:\n    tag_267:\n      mul\n      or\n      swap1\n      sstore\n      pop\n      0x07\n      dup3\n      add\n      dup2\n      0x07\n      add\n      swap1\n      dup1\n      sload\n      tag_269\n      swap3\n      swap2\n      swap1\n      tag_270\n      jump\t// in\n    tag_269:\n      pop\n      swap1\n      pop\n      pop\n        /* \"soljobs.sol\":4912:4940  JobApplicationStatus.Pending */\n      0x00\n        /* \"soljobs.sol\":4888:4902  jobApplication */\n      dup2\n        /* \"soljobs.sol\":4888:4909  jobApplication.status */\n      0x0b\n      add\n      0x00\n        /* \"soljobs.sol\":4888:4940  jobApplication.status = JobApplicationStatus.Pending */\n      0x0100\n      exp\n      dup2\n      sload\n      dup2\n      0xff\n      mul\n      not\n      and\n      swap1\n      dup4\n      0x02\n      dup2\n      gt\n      iszero\n      tag_271\n      jumpi\n      tag_272\n      tag_64\n      jump\t// in\n    tag_272:\n    tag_271:\n      mul\n      or\n      swap1\n      sstore\n      pop\n        /* \"soljobs.sol\":4951:4959  jobOffer */\n      dup2\n        /* \"soljobs.sol\":4951:4972  jobOffer.applications */\n      0x0b\n      add\n        /* \"soljobs.sol\":4978:4992  jobApplication */\n      dup2\n        /* \"soljobs.sol\":4951:4993  jobOffer.applications.push(jobApplication) */\n      swap1\n      dup1\n      0x01\n      dup2\n      sload\n      add\n      dup1\n      dup3\n      sstore\n      dup1\n      swap2\n      pop\n      pop\n      0x01\n      swap1\n      sub\n      swap1\n      0x00\n      mstore\n      keccak256(0x00, 0x20)\n      swap1\n      0x0c\n      mul\n      add\n      0x00\n      swap1\n      swap2\n      swap1\n      swap2\n      swap1\n      swap2\n      pop\n      0x00\n      dup3\n      add\n      sload\n      dup2\n      0x00\n      add\n      sstore\n      0x01\n      dup3\n      add\n      sload\n      dup2\n      0x01\n      add\n      sstore\n      0x02\n      dup3\n      add\n      dup2\n      0x02\n      add\n      swap1\n      dup2\n      tag_274\n      swap2\n      swap1\n      tag_263\n      jump\t// in\n    tag_274:\n      pop\n      0x03\n      dup3\n      add\n      dup2\n      0x03\n      add\n      0x00\n      dup3\n      add\n      sload\n      dup2\n      0x00\n      add\n      sstore\n      0x01\n      dup3\n      add\n      0x00\n      swap1\n      sload\n      swap1\n      0x0100\n      exp\n      swap1\n      div\n      0xffffffffffffffffffffffffffffffffffffffff\n      and\n      dup2\n      0x01\n      add\n      exp(0x0100, 0x00)\n      dup2\n      sload\n      dup2\n      0xffffffffffffffffffffffffffffffffffffffff\n      mul\n      not\n      and\n      swap1\n      dup4\n      0xffffffffffffffffffffffffffffffffffffffff\n      and\n      mul\n      or\n      swap1\n      sstore\n      pop\n      0x02\n      dup3\n      add\n      dup2\n      0x02\n      add\n      swap1\n      dup2\n      tag_275\n      swap2\n      swap1\n      tag_263\n      jump\t// in\n    tag_275:\n      pop\n      0x03\n      dup3\n      add\n      dup2\n      0x03\n      add\n      swap1\n      dup2\n      tag_276\n      swap2\n      swap1\n      tag_263\n      jump\t// in\n    tag_276:\n      pop\n      0x04\n      dup3\n      add\n      dup2\n      0x04\n      add\n      swap1\n      dup2\n      tag_277\n      swap2\n      swap1\n      tag_263\n      jump\t// in\n    tag_277:\n      pop\n      0x05\n      dup3\n      add\n      dup2\n      0x05\n      add\n      swap1\n      dup2\n      tag_278\n      swap2\n      swap1\n      tag_263\n      jump\t// in\n    tag_278:\n      pop\n      0x06\n      dup3\n      add\n      0x00\n      swap1\n      sload\n      swap1\n      0x0100\n      exp\n      swap1\n      div\n      0xff\n      and\n      dup2\n      0x06\n      add\n      exp(0x0100, 0x00)\n      dup2\n      sload\n      dup2\n      0xff\n      mul\n      not\n      and\n      swap1\n      dup4\n      0x01\n      dup2\n      gt\n      iszero\n      tag_279\n      jumpi\n      tag_280\n      tag_64\n      jump\t// in\n    tag_280:\n    tag_279:\n      mul\n      or\n      swap1\n      sstore\n      pop\n      0x07\n      dup3\n      add\n      dup2\n      0x07\n      add\n      swap1\n      dup1\n      sload\n      tag_281\n      swap3\n      swap2\n      swap1\n      tag_270\n      jump\t// in\n    tag_281:\n      pop\n      pop\n      pop\n      0x0b\n      dup3\n      add\n      0x00\n      swap1\n      sload\n      swap1\n      0x0100\n      exp\n      swap1\n      div\n      0xff\n      and\n      dup2\n      0x0b\n      add\n      exp(0x0100, 0x00)\n      dup2\n      sload\n      dup2\n      0xff\n      mul\n      not\n      and\n      swap1\n      dup4\n      0x02\n      dup2\n      gt\n      iszero\n      tag_282\n      jumpi\n      tag_283\n      tag_64\n      jump\t// in\n    tag_283:\n    tag_282:\n      mul\n      or\n      swap1\n      sstore\n      pop\n      pop\n      pop\n        /* \"soljobs.sol\":5017:5052  ApplicationSubmitted(applicationID) */\n      0x4b6126472f7a5c1a21fe858797a6bb6ed361c62b74d480965163d30d68576d4f\n        /* \"soljobs.sol\":5038:5051  applicationID */\n      dup4\n        /* \"soljobs.sol\":5017:5052  ApplicationSubmitted(applicationID) */\n      mload(0x40)\n      tag_284\n      swap2\n      swap1\n      tag_106\n      jump\t// in\n    tag_284:\n      mload(0x40)\n      dup1\n      swap2\n      sub\n      swap1\n      log1\n        /* \"soljobs.sol\":4487:5061  {... */\n      pop\n      pop\n      pop\n        /* \"soljobs.sol\":1603:1747  {... */\n      pop\n        /* \"soljobs.sol\":1548:1549  _ */\n      pop\n        /* \"soljobs.sol\":4333:5061  function applyForAJob(... */\n      pop\n      pop\n      pop\n      pop\n      jump\t// out\n        /* \"soljobs.sol\":738:781  mapping (uint => JobOffer) public jobOffers */\n    tag_54:\n      mstore(0x20, 0x0a)\n      dup1\n      0x00\n      mstore\n      keccak256(0x00, 0x40)\n      0x00\n      swap2\n      pop\n      swap1\n      pop\n      dup1\n      0x00\n      add\n      sload\n      swap1\n      dup1\n      0x01\n      add\n      dup1\n      sload\n      tag_285\n      swap1\n      tag_108\n      jump\t// in\n    tag_285:\n      dup1\n      0x1f\n      add\n      0x20\n      dup1\n      swap2\n      div\n      mul\n      0x20\n      add\n      mload(0x40)\n      swap1\n      dup2\n      add\n      0x40\n      mstore\n      dup1\n      swap3\n      swap2\n      swap1\n      dup2\n      dup2\n      mstore\n      0x20\n      add\n      dup3\n      dup1\n      sload\n      tag_286\n      swap1\n      tag_108\n      jump\t// in\n    tag_286:\n      dup1\n      iszero\n      tag_287\n      jumpi\n      dup1\n      0x1f\n      lt\n      tag_288\n      jumpi\n      0x0100\n      dup1\n      dup4\n      sload\n      div\n      mul\n      dup4\n      mstore\n      swap2\n      0x20\n      add\n      swap2\n      jump(tag_287)\n    tag_288:\n      dup3\n      add\n      swap2\n      swap1\n      0x00\n      mstore\n      keccak256(0x00, 0x20)\n      swap1\n    tag_289:\n      dup2\n      sload\n      dup2\n      mstore\n      swap1\n      0x01\n      add\n      swap1\n      0x20\n      add\n      dup1\n      dup4\n      gt\n      tag_289\n      jumpi\n      dup3\n      swap1\n      sub\n      0x1f\n      and\n      dup3\n      add\n      swap2\n    tag_287:\n      pop\n      pop\n      pop\n      pop\n      pop\n      swap1\n      dup1\n      0x02\n      add\n      dup1\n      sload\n      tag_290\n      swap1\n      tag_108\n      jump\t// in\n    tag_290:\n      dup1\n      0x1f\n      add\n      0x20\n      dup1\n      swap2\n      div\n      mul\n      0x20\n      add\n      mload(0x40)\n      swap1\n      dup2\n      add\n      0x40\n      mstore\n      dup1\n      swap3\n      swap2\n      swap1\n      dup2\n      dup2\n      mstore\n      0x20\n      add\n      dup3\n      dup1\n      sload\n      tag_291\n      swap1\n      tag_108\n      jump\t// in\n    tag_291:\n      dup1\n      iszero\n      tag_292\n      jumpi\n      dup1\n      0x1f\n      lt\n      tag_293\n      jumpi\n      0x0100\n      dup1\n      dup4\n      sload\n      div\n      mul\n      dup4\n      mstore\n      swap2\n      0x20\n      add\n      swap2\n      jump(tag_292)\n    tag_293:\n      dup3\n      add\n      swap2\n      swap1\n      0x00\n      mstore\n      keccak256(0x00, 0x20)\n      swap1\n    tag_294:\n      dup2\n      sload\n      dup2\n      mstore\n      swap1\n      0x01\n      add\n      swap1\n      0x20\n      add\n      dup1\n      dup4\n      gt\n      tag_294\n      jumpi\n      dup3\n      swap1\n      sub\n      0x1f\n      and\n      dup3\n      add\n      swap2\n    tag_292:\n      pop\n      pop\n      pop\n      pop\n      pop\n      swap1\n      dup1\n      0x03\n      add\n      sload\n      swap1\n      dup1\n      0x04\n      add\n      mload(0x40)\n      dup1\n      0x0120\n      add\n      0x40\n      mstore\n      swap1\n      dup2\n      0x00\n      dup3\n      add\n      sload\n      dup2\n      mstore\n      0x20\n      add\n      0x01\n      dup3\n      add\n      dup1\n      sload\n      tag_295\n      swap1\n      tag_108\n      jump\t// in\n    tag_295:\n      dup1\n      0x1f\n      add\n      0x20\n      dup1\n      swap2\n      div\n      mul\n      0x20\n      add\n      mload(0x40)\n      swap1\n      dup2\n      add\n      0x40\n      mstore\n      dup1\n      swap3\n      swap2\n      swap1\n      dup2\n      dup2\n      mstore\n      0x20\n      add\n      dup3\n      dup1\n      sload\n      tag_296\n      swap1\n      tag_108\n      jump\t// in\n    tag_296:\n      dup1\n      iszero\n      tag_297\n      jumpi\n      dup1\n      0x1f\n      lt\n      tag_298\n      jumpi\n      0x0100\n      dup1\n      dup4\n      sload\n      div\n      mul\n      dup4\n      mstore\n      swap2\n      0x20\n      add\n      swap2\n      jump(tag_297)\n    tag_298:\n      dup3\n      add\n      swap2\n      swap1\n      0x00\n      mstore\n      keccak256(0x00, 0x20)\n      swap1\n    tag_299:\n      dup2\n      sload\n      dup2\n      mstore\n      swap1\n      0x01\n      add\n      swap1\n      0x20\n      add\n      dup1\n      dup4\n      gt\n      tag_299\n      jumpi\n      dup3\n      swap1\n      sub\n      0x1f\n      and\n      dup3\n      add\n      swap2\n    tag_297:\n      pop\n      pop\n      pop\n      pop\n      pop\n      dup2\n      mstore\n      0x20\n      add\n      0x02\n      dup3\n      add\n      dup1\n      sload\n      tag_300\n      swap1\n      tag_108\n      jump\t// in\n    tag_300:\n      dup1\n      0x1f\n      add\n      0x20\n      dup1\n      swap2\n      div\n      mul\n      0x20\n      add\n      mload(0x40)\n      swap1\n      dup2\n      add\n      0x40\n      mstore\n      dup1\n      swap3\n      swap2\n      swap1\n      dup2\n      dup2\n      mstore\n      0x20\n      add\n      dup3\n      dup1\n      sload\n      tag_301\n      swap1\n      tag_108\n      jump\t// in\n    tag_301:\n      dup1\n      iszero\n      tag_302\n      jumpi\n      dup1\n      0x1f\n      lt\n      tag_303\n      jumpi\n      0x0100\n      dup1\n      dup4\n      sload\n      div\n      mul\n      dup4\n      mstore\n      swap2\n      0x20\n      add\n      swap2\n      jump(tag_302)\n    tag_303:\n      dup3\n      add\n      swap2\n      swap1\n      0x00\n      mstore\n      keccak256(0x00, 0x20)\n      swap1\n    tag_304:\n      dup2\n      sload\n      dup2\n      mstore\n      swap1\n      0x01\n      add\n      swap1\n      0x20\n      add\n      dup1\n      dup4\n      gt\n      tag_304\n      jumpi\n      dup3\n      swap1\n      sub\n      0x1f\n      and\n      dup3\n      add\n      swap2\n    tag_302:\n      pop\n      pop\n      pop\n      pop\n      pop\n      dup2\n      mstore\n      0x20\n      add\n      0x03\n      dup3\n      add\n      dup1\n      sload\n      tag_305\n      swap1\n      tag_108\n      jump\t// in\n    tag_305:\n      dup1\n      0x1f\n      add\n      0x20\n      dup1\n      swap2\n      div\n      mul\n      0x20\n      add\n      mload(0x40)\n      swap1\n      dup2\n      add\n      0x40\n      mstore\n      dup1\n      swap3\n      swap2\n      swap1\n      dup2\n      dup2\n      mstore\n      0x20\n      add\n      dup3\n      dup1\n      sload\n      tag_306\n      swap1\n      tag_108\n      jump\t// in\n    tag_306:\n      dup1\n      iszero\n      tag_307\n      jumpi\n      dup1\n      0x1f\n      lt\n      tag_308\n      jumpi\n      0x0100\n      dup1\n      dup4\n      sload\n      div\n      mul\n      dup4\n      mstore\n      swap2\n      0x20\n      add\n      swap2\n      jump(tag_307)\n    tag_308:\n      dup3\n      add\n      swap2\n      swap1\n      0x00\n      mstore\n      keccak256(0x00, 0x20)\n      swap1\n    tag_309:\n      dup2\n      sload\n      dup2\n      mstore\n      swap1\n      0x01\n      add\n      swap1\n      0x20\n      add\n      dup1\n      dup4\n      gt\n      tag_309\n      jumpi\n      dup3\n      swap1\n      sub\n      0x1f\n      and\n      dup3\n      add\n      swap2\n    tag_307:\n      pop\n      pop\n      pop\n      pop\n      pop\n      dup2\n      mstore\n      0x20\n      add\n      0x04\n      dup3\n      add\n      dup1\n      sload\n      tag_310\n      swap1\n      tag_108\n      jump\t// in\n    tag_310:\n      dup1\n      0x1f\n      add\n      0x20\n      dup1\n      swap2\n      div\n      mul\n      0x20\n      add\n      mload(0x40)\n      swap1\n      dup2\n      add\n      0x40\n      mstore\n      dup1\n      swap3\n      swap2\n      swap1\n      dup2\n      dup2\n      mstore\n      0x20\n      add\n      dup3\n      dup1\n      sload\n      tag_311\n      swap1\n      tag_108\n      jump\t// in\n    tag_311:\n      dup1\n      iszero\n      tag_312\n      jumpi\n      dup1\n      0x1f\n      lt\n      tag_313\n      jumpi\n      0x0100\n      dup1\n      dup4\n      sload\n      div\n      mul\n      dup4\n      mstore\n      swap2\n      0x20\n      add\n      swap2\n      jump(tag_312)\n    tag_313:\n      dup3\n      add\n      swap2\n      swap1\n      0x00\n      mstore\n      keccak256(0x00, 0x20)\n      swap1\n    tag_314:\n      dup2\n      sload\n      dup2\n      mstore\n      swap1\n      0x01\n      add\n      swap1\n      0x20\n      add\n      dup1\n      dup4\n      gt\n      tag_314\n      jumpi\n      dup3\n      swap1\n      sub\n      0x1f\n      and\n      dup3\n      add\n      swap2\n    tag_312:\n      pop\n      pop\n      pop\n      pop\n      pop\n      dup2\n      mstore\n      0x20\n      add\n      0x05\n      dup3\n      add\n      0x00\n      swap1\n      sload\n      swap1\n      0x0100\n      exp\n      swap1\n      div\n      0xffffffffffffffffffffffffffffffffffffffff\n      and\n      0xffffffffffffffffffffffffffffffffffffffff\n      and\n      0xffffffffffffffffffffffffffffffffffffffff\n      and\n      dup2\n      mstore\n      0x20\n      add\n      0x05\n      dup3\n      add\n      0x14\n      swap1\n      sload\n      swap1\n      0x0100\n      exp\n      swap1\n      div\n      0xff\n      and\n      iszero\n      iszero\n      iszero\n      iszero\n      dup2\n      mstore\n      0x20\n      add\n      0x05\n      dup3\n      add\n      0x15\n      swap1\n      sload\n      swap1\n      0x0100\n      exp\n      swap1\n      div\n      0xff\n      and\n      0x01\n      dup2\n      gt\n      iszero\n      tag_315\n      jumpi\n      tag_316\n      tag_64\n      jump\t// in\n    tag_316:\n    tag_315:\n      0x01\n      dup2\n      gt\n      iszero\n      tag_317\n      jumpi\n      tag_318\n      tag_64\n      jump\t// in\n    tag_318:\n    tag_317:\n      dup2\n      mstore\n      0x20\n      add\n      0x06\n      dup3\n      add\n      dup1\n      sload\n      dup1\n      0x20\n      mul\n      0x20\n      add\n      mload(0x40)\n      swap1\n      dup2\n      add\n      0x40\n      mstore\n      dup1\n      swap3\n      swap2\n      swap1\n      dup2\n      dup2\n      mstore\n      0x20\n      add\n      dup3\n      dup1\n      sload\n      dup1\n      iszero\n      tag_319\n      jumpi\n      0x20\n      mul\n      dup3\n      add\n      swap2\n      swap1\n      0x00\n      mstore\n      keccak256(0x00, 0x20)\n      swap1\n    tag_320:\n      dup2\n      sload\n      dup2\n      mstore\n      0x20\n      add\n      swap1\n      0x01\n      add\n      swap1\n      dup1\n      dup4\n      gt\n      tag_320\n      jumpi\n    tag_319:\n      pop\n      pop\n      pop\n      pop\n      pop\n      dup2\n      mstore\n      pop\n      pop\n      swap1\n      dup1\n      0x0c\n      add\n      0x00\n      swap1\n      sload\n      swap1\n      0x0100\n      exp\n      swap1\n      div\n      0xff\n      and\n      swap1\n      dup1\n      0x0d\n      add\n      sload\n      swap1\n      dup1\n      0x0e\n      add\n      sload\n      swap1\n      pop\n      dup9\n      jump\t// out\n    tag_239:\n      dup3\n      dup1\n      sload\n      dup3\n      dup3\n      sstore\n      swap1\n      0x00\n      mstore\n      keccak256(0x00, 0x20)\n      swap1\n      dup2\n      add\n      swap3\n      dup3\n      iszero\n      tag_321\n      jumpi\n      swap2\n      0x20\n      mul\n      dup3\n      add\n    tag_322:\n      dup3\n      dup2\n      gt\n      iszero\n      tag_323\n      jumpi\n      dup3\n      mload\n      dup3\n      sstore\n      swap2\n      0x20\n      add\n      swap2\n      swap1\n      0x01\n      add\n      swap1\n      jump(tag_322)\n    tag_323:\n    tag_321:\n      pop\n      swap1\n      pop\n      tag_324\n      swap2\n      swap1\n      tag_325\n      jump\t// in\n    tag_324:\n      pop\n      swap1\n      jump\t// out\n    tag_270:\n      dup3\n      dup1\n      sload\n      dup3\n      dup3\n      sstore\n      swap1\n      0x00\n      mstore\n      keccak256(0x00, 0x20)\n      swap1\n      dup2\n      add\n      swap3\n      dup3\n      iszero\n      tag_326\n      jumpi\n      0x00\n      mstore\n      keccak256(0x00, 0x20)\n      swap2\n      dup3\n      add\n    tag_327:\n      dup3\n      dup2\n      gt\n      iszero\n      tag_328\n      jumpi\n      dup3\n      sload\n      dup3\n      sstore\n      swap2\n      0x01\n      add\n      swap2\n      swap1\n      0x01\n      add\n      swap1\n      jump(tag_327)\n    tag_328:\n    tag_326:\n      pop\n      swap1\n      pop\n      tag_329\n      swap2\n      swap1\n      tag_325\n      jump\t// in\n    tag_329:\n      pop\n      swap1\n      jump\t// out\n    tag_325:\n    tag_330:\n      dup1\n      dup3\n      gt\n      iszero\n      tag_331\n      jumpi\n      0x00\n      dup2\n      0x00\n      swap1\n      sstore\n      pop\n      0x01\n      add\n      jump(tag_330)\n    tag_331:\n      pop\n      swap1\n      jump\t// out\n        /* \"#utility.yul\":88:205   */\n    tag_333:\n        /* \"#utility.yul\":197:198   */\n      0x00\n        /* \"#utility.yul\":194:195   */\n      0x00\n        /* \"#utility.yul\":187:199   */\n      revert\n        /* \"#utility.yul\":211:328   */\n    tag_334:\n        /* \"#utility.yul\":320:321   */\n      0x00\n        /* \"#utility.yul\":317:318   */\n      0x00\n        /* \"#utility.yul\":310:322   */\n      revert\n        /* \"#utility.yul\":334:411   */\n    tag_335:\n        /* \"#utility.yul\":371:378   */\n      0x00\n        /* \"#utility.yul\":400:405   */\n      dup2\n        /* \"#utility.yul\":389:405   */\n      swap1\n      pop\n        /* \"#utility.yul\":334:411   */\n      swap2\n      swap1\n      pop\n      jump\t// out\n        /* \"#utility.yul\":417:539   */\n    tag_336:\n        /* \"#utility.yul\":490:514   */\n      tag_410\n        /* \"#utility.yul\":508:513   */\n      dup2\n        /* \"#utility.yul\":490:514   */\n      tag_335\n      jump\t// in\n    tag_410:\n        /* \"#utility.yul\":483:488   */\n      dup2\n        /* \"#utility.yul\":480:515   */\n      eq\n        /* \"#utility.yul\":470:533   */\n      tag_411\n      jumpi\n        /* \"#utility.yul\":529:530   */\n      0x00\n        /* \"#utility.yul\":526:527   */\n      0x00\n        /* \"#utility.yul\":519:531   */\n      revert\n        /* \"#utility.yul\":470:533   */\n    tag_411:\n        /* \"#utility.yul\":417:539   */\n      pop\n      jump\t// out\n        /* \"#utility.yul\":545:684   */\n    tag_337:\n        /* \"#utility.yul\":591:596   */\n      0x00\n        /* \"#utility.yul\":629:635   */\n      dup2\n        /* \"#utility.yul\":616:636   */\n      calldataload\n        /* \"#utility.yul\":607:636   */\n      swap1\n      pop\n        /* \"#utility.yul\":645:678   */\n      tag_413\n        /* \"#utility.yul\":672:677   */\n      dup2\n        /* \"#utility.yul\":645:678   */\n      tag_336\n      jump\t// in\n    tag_413:\n        /* \"#utility.yul\":545:684   */\n      swap3\n      swap2\n      pop\n      pop\n      jump\t// out\n        /* \"#utility.yul\":690:1019   */\n    tag_16:\n        /* \"#utility.yul\":749:755   */\n      0x00\n        /* \"#utility.yul\":798:800   */\n      0x20\n        /* \"#utility.yul\":786:795   */\n      dup3\n        /* \"#utility.yul\":777:784   */\n      dup5\n        /* \"#utility.yul\":773:796   */\n      sub\n        /* \"#utility.yul\":769:801   */\n      slt\n        /* \"#utility.yul\":766:885   */\n      iszero\n      tag_415\n      jumpi\n        /* \"#utility.yul\":804:883   */\n      tag_416\n      tag_333\n      jump\t// in\n    tag_416:\n        /* \"#utility.yul\":766:885   */\n    tag_415:\n        /* \"#utility.yul\":924:925   */\n      0x00\n        /* \"#utility.yul\":949:1002   */\n      tag_417\n        /* \"#utility.yul\":994:1001   */\n      dup5\n        /* \"#utility.yul\":985:991   */\n      dup3\n        /* \"#utility.yul\":974:983   */\n      dup6\n        /* \"#utility.yul\":970:992   */\n      add\n        /* \"#utility.yul\":949:1002   */\n      tag_337\n      jump\t// in\n    tag_417:\n        /* \"#utility.yul\":939:1002   */\n      swap2\n      pop\n        /* \"#utility.yul\":895:1012   */\n      pop\n        /* \"#utility.yul\":690:1019   */\n      swap3\n      swap2\n      pop\n      pop\n      jump\t// out\n        /* \"#utility.yul\":1025:1142   */\n    tag_338:\n        /* \"#utility.yul\":1134:1135   */\n      0x00\n        /* \"#utility.yul\":1131:1132   */\n      0x00\n        /* \"#utility.yul\":1124:1136   */\n      revert\n        /* \"#utility.yul\":1148:1265   */\n    tag_339:\n        /* \"#utility.yul\":1257:1258   */\n      0x00\n        /* \"#utility.yul\":1254:1255   */\n      0x00\n        /* \"#utility.yul\":1247:1259   */\n      revert\n        /* \"#utility.yul\":1271:1388   */\n    tag_340:\n        /* \"#utility.yul\":1380:1381   */\n      0x00\n        /* \"#utility.yul\":1377:1378   */\n      0x00\n        /* \"#utility.yul\":1370:1382   */\n      revert\n        /* \"#utility.yul\":1408:1961   */\n    tag_341:\n        /* \"#utility.yul\":1466:1474   */\n      0x00\n        /* \"#utility.yul\":1476:1482   */\n      0x00\n        /* \"#utility.yul\":1526:1529   */\n      dup4\n        /* \"#utility.yul\":1519:1523   */\n      0x1f\n        /* \"#utility.yul\":1511:1517   */\n      dup5\n        /* \"#utility.yul\":1507:1524   */\n      add\n        /* \"#utility.yul\":1503:1530   */\n      slt\n        /* \"#utility.yul\":1493:1615   */\n      tag_422\n      jumpi\n        /* \"#utility.yul\":1534:1613   */\n      tag_423\n      tag_338\n      jump\t// in\n    tag_423:\n        /* \"#utility.yul\":1493:1615   */\n    tag_422:\n        /* \"#utility.yul\":1647:1653   */\n      dup3\n        /* \"#utility.yul\":1634:1654   */\n      calldataload\n        /* \"#utility.yul\":1624:1654   */\n      swap1\n      pop\n        /* \"#utility.yul\":1677:1695   */\n      0xffffffffffffffff\n        /* \"#utility.yul\":1669:1675   */\n      dup2\n        /* \"#utility.yul\":1666:1696   */\n      gt\n        /* \"#utility.yul\":1663:1780   */\n      iszero\n      tag_424\n      jumpi\n        /* \"#utility.yul\":1699:1778   */\n      tag_425\n      tag_339\n      jump\t// in\n    tag_425:\n        /* \"#utility.yul\":1663:1780   */\n    tag_424:\n        /* \"#utility.yul\":1813:1817   */\n      0x20\n        /* \"#utility.yul\":1805:1811   */\n      dup4\n        /* \"#utility.yul\":1801:1818   */\n      add\n        /* \"#utility.yul\":1789:1818   */\n      swap2\n      pop\n        /* \"#utility.yul\":1867:1870   */\n      dup4\n        /* \"#utility.yul\":1859:1863   */\n      0x01\n        /* \"#utility.yul\":1851:1857   */\n      dup3\n        /* \"#utility.yul\":1847:1864   */\n      mul\n        /* \"#utility.yul\":1837:1845   */\n      dup4\n        /* \"#utility.yul\":1833:1865   */\n      add\n        /* \"#utility.yul\":1830:1871   */\n      gt\n        /* \"#utility.yul\":1827:1955   */\n      iszero\n      tag_426\n      jumpi\n        /* \"#utility.yul\":1874:1953   */\n      tag_427\n      tag_340\n      jump\t// in\n    tag_427:\n        /* \"#utility.yul\":1827:1955   */\n    tag_426:\n        /* \"#utility.yul\":1408:1961   */\n      swap3\n      pop\n      swap3\n      swap1\n      pop\n      jump\t// out\n        /* \"#utility.yul\":1967:3532   */\n    tag_20:\n        /* \"#utility.yul\":2101:2107   */\n      0x00\n        /* \"#utility.yul\":2109:2115   */\n      0x00\n        /* \"#utility.yul\":2117:2123   */\n      0x00\n        /* \"#utility.yul\":2125:2131   */\n      0x00\n        /* \"#utility.yul\":2133:2139   */\n      0x00\n        /* \"#utility.yul\":2141:2147   */\n      0x00\n        /* \"#utility.yul\":2149:2155   */\n      0x00\n        /* \"#utility.yul\":2157:2163   */\n      0x00\n        /* \"#utility.yul\":2206:2209   */\n      0x80\n        /* \"#utility.yul\":2194:2203   */\n      dup10\n        /* \"#utility.yul\":2185:2192   */\n      dup12\n        /* \"#utility.yul\":2181:2204   */\n      sub\n        /* \"#utility.yul\":2177:2210   */\n      slt\n        /* \"#utility.yul\":2174:2294   */\n      iszero\n      tag_429\n      jumpi\n        /* \"#utility.yul\":2213:2292   */\n      tag_430\n      tag_333\n      jump\t// in\n    tag_430:\n        /* \"#utility.yul\":2174:2294   */\n    tag_429:\n        /* \"#utility.yul\":2361:2362   */\n      0x00\n        /* \"#utility.yul\":2350:2359   */\n      dup10\n        /* \"#utility.yul\":2346:2363   */\n      add\n        /* \"#utility.yul\":2333:2364   */\n      calldataload\n        /* \"#utility.yul\":2391:2409   */\n      0xffffffffffffffff\n        /* \"#utility.yul\":2383:2389   */\n      dup2\n        /* \"#utility.yul\":2380:2410   */\n      gt\n        /* \"#utility.yul\":2377:2494   */\n      iszero\n      tag_431\n      jumpi\n        /* \"#utility.yul\":2413:2492   */\n      tag_432\n      tag_334\n      jump\t// in\n    tag_432:\n        /* \"#utility.yul\":2377:2494   */\n    tag_431:\n        /* \"#utility.yul\":2526:2591   */\n      tag_433\n        /* \"#utility.yul\":2583:2590   */\n      dup12\n        /* \"#utility.yul\":2574:2580   */\n      dup3\n        /* \"#utility.yul\":2563:2572   */\n      dup13\n        /* \"#utility.yul\":2559:2581   */\n      add\n        /* \"#utility.yul\":2526:2591   */\n      tag_341\n      jump\t// in\n    tag_433:\n        /* \"#utility.yul\":2508:2591   */\n      swap9\n      pop\n      swap9\n      pop\n        /* \"#utility.yul\":2304:2601   */\n      pop\n        /* \"#utility.yul\":2668:2670   */\n      0x20\n        /* \"#utility.yul\":2657:2666   */\n      dup10\n        /* \"#utility.yul\":2653:2671   */\n      add\n        /* \"#utility.yul\":2640:2672   */\n      calldataload\n        /* \"#utility.yul\":2699:2717   */\n      0xffffffffffffffff\n        /* \"#utility.yul\":2691:2697   */\n      dup2\n        /* \"#utility.yul\":2688:2718   */\n      gt\n        /* \"#utility.yul\":2685:2802   */\n      iszero\n      tag_434\n      jumpi\n        /* \"#utility.yul\":2721:2800   */\n      tag_435\n      tag_334\n      jump\t// in\n    tag_435:\n        /* \"#utility.yul\":2685:2802   */\n    tag_434:\n        /* \"#utility.yul\":2834:2899   */\n      tag_436\n        /* \"#utility.yul\":2891:2898   */\n      dup12\n        /* \"#utility.yul\":2882:2888   */\n      dup3\n        /* \"#utility.yul\":2871:2880   */\n      dup13\n        /* \"#utility.yul\":2867:2889   */\n      add\n        /* \"#utility.yul\":2834:2899   */\n      tag_341\n      jump\t// in\n    tag_436:\n        /* \"#utility.yul\":2816:2899   */\n      swap7\n      pop\n      swap7\n      pop\n        /* \"#utility.yul\":2611:2909   */\n      pop\n        /* \"#utility.yul\":2976:2978   */\n      0x40\n        /* \"#utility.yul\":2965:2974   */\n      dup10\n        /* \"#utility.yul\":2961:2979   */\n      add\n        /* \"#utility.yul\":2948:2980   */\n      calldataload\n        /* \"#utility.yul\":3007:3025   */\n      0xffffffffffffffff\n        /* \"#utility.yul\":2999:3005   */\n      dup2\n        /* \"#utility.yul\":2996:3026   */\n      gt\n        /* \"#utility.yul\":2993:3110   */\n      iszero\n      tag_437\n      jumpi\n        /* \"#utility.yul\":3029:3108   */\n      tag_438\n      tag_334\n      jump\t// in\n    tag_438:\n        /* \"#utility.yul\":2993:3110   */\n    tag_437:\n        /* \"#utility.yul\":3142:3207   */\n      tag_439\n        /* \"#utility.yul\":3199:3206   */\n      dup12\n        /* \"#utility.yul\":3190:3196   */\n      dup3\n        /* \"#utility.yul\":3179:3188   */\n      dup13\n        /* \"#utility.yul\":3175:3197   */\n      add\n        /* \"#utility.yul\":3142:3207   */\n      tag_341\n      jump\t// in\n    tag_439:\n        /* \"#utility.yul\":3124:3207   */\n      swap5\n      pop\n      swap5\n      pop\n        /* \"#utility.yul\":2919:3217   */\n      pop\n        /* \"#utility.yul\":3284:3286   */\n      0x60\n        /* \"#utility.yul\":3273:3282   */\n      dup10\n        /* \"#utility.yul\":3269:3287   */\n      add\n        /* \"#utility.yul\":3256:3288   */\n      calldataload\n        /* \"#utility.yul\":3315:3333   */\n      0xffffffffffffffff\n        /* \"#utility.yul\":3307:3313   */\n      dup2\n        /* \"#utility.yul\":3304:3334   */\n      gt\n        /* \"#utility.yul\":3301:3418   */\n      iszero\n      tag_440\n      jumpi\n        /* \"#utility.yul\":3337:3416   */\n      tag_441\n      tag_334\n      jump\t// in\n    tag_441:\n        /* \"#utility.yul\":3301:3418   */\n    tag_440:\n        /* \"#utility.yul\":3450:3515   */\n      tag_442\n        /* \"#utility.yul\":3507:3514   */\n      dup12\n        /* \"#utility.yul\":3498:3504   */\n      dup3\n        /* \"#utility.yul\":3487:3496   */\n      dup13\n        /* \"#utility.yul\":3483:3505   */\n      add\n        /* \"#utility.yul\":3450:3515   */\n      tag_341\n      jump\t// in\n    tag_442:\n        /* \"#utility.yul\":3432:3515   */\n      swap3\n      pop\n      swap3\n      pop\n        /* \"#utility.yul\":3227:3525   */\n      pop\n        /* \"#utility.yul\":1967:3532   */\n      swap3\n      swap6\n      swap9\n      pop\n      swap3\n      swap6\n      swap9\n      swap1\n      swap4\n      swap7\n      pop\n      jump\t// out\n        /* \"#utility.yul\":3538:3656   */\n    tag_342:\n        /* \"#utility.yul\":3625:3649   */\n      tag_444\n        /* \"#utility.yul\":3643:3648   */\n      dup2\n        /* \"#utility.yul\":3625:3649   */\n      tag_335\n      jump\t// in\n    tag_444:\n        /* \"#utility.yul\":3620:3623   */\n      dup3\n        /* \"#utility.yul\":3613:3650   */\n      mstore\n        /* \"#utility.yul\":3538:3656   */\n      pop\n      pop\n      jump\t// out\n        /* \"#utility.yul\":3662:3761   */\n    tag_343:\n        /* \"#utility.yul\":3714:3720   */\n      0x00\n        /* \"#utility.yul\":3748:3753   */\n      dup2\n        /* \"#utility.yul\":3742:3754   */\n      mload\n        /* \"#utility.yul\":3732:3754   */\n      swap1\n      pop\n        /* \"#utility.yul\":3662:3761   */\n      swap2\n      swap1\n      pop\n      jump\t// out\n        /* \"#utility.yul\":3767:3936   */\n    tag_344:\n        /* \"#utility.yul\":3851:3862   */\n      0x00\n        /* \"#utility.yul\":3885:3891   */\n      dup3\n        /* \"#utility.yul\":3880:3883   */\n      dup3\n        /* \"#utility.yul\":3873:3892   */\n      mstore\n        /* \"#utility.yul\":3925:3929   */\n      0x20\n        /* \"#utility.yul\":3920:3923   */\n      dup3\n        /* \"#utility.yul\":3916:3930   */\n      add\n        /* \"#utility.yul\":3901:3930   */\n      swap1\n      pop\n        /* \"#utility.yul\":3767:3936   */\n      swap3\n      swap2\n      pop\n      pop\n      jump\t// out\n        /* \"#utility.yul\":3942:4081   */\n    tag_345:\n        /* \"#utility.yul\":4031:4037   */\n      dup3\n        /* \"#utility.yul\":4026:4029   */\n      dup2\n        /* \"#utility.yul\":4021:4024   */\n      dup4\n        /* \"#utility.yul\":4015:4038   */\n      mcopy\n        /* \"#utility.yul\":4072:4073   */\n      0x00\n        /* \"#utility.yul\":4063:4069   */\n      dup4\n        /* \"#utility.yul\":4058:4061   */\n      dup4\n        /* \"#utility.yul\":4054:4070   */\n      add\n        /* \"#utility.yul\":4047:4074   */\n      mstore\n        /* \"#utility.yul\":3942:4081   */\n      pop\n      pop\n      pop\n      jump\t// out\n        /* \"#utility.yul\":4087:4189   */\n    tag_346:\n        /* \"#utility.yul\":4128:4134   */\n      0x00\n        /* \"#utility.yul\":4179:4181   */\n      0x1f\n        /* \"#utility.yul\":4175:4182   */\n      not\n        /* \"#utility.yul\":4170:4172   */\n      0x1f\n        /* \"#utility.yul\":4163:4168   */\n      dup4\n        /* \"#utility.yul\":4159:4173   */\n      add\n        /* \"#utility.yul\":4155:4183   */\n      and\n        /* \"#utility.yul\":4145:4183   */\n      swap1\n      pop\n        /* \"#utility.yul\":4087:4189   */\n      swap2\n      swap1\n      pop\n      jump\t// out\n        /* \"#utility.yul\":4195:4572   */\n    tag_347:\n        /* \"#utility.yul\":4283:4286   */\n      0x00\n        /* \"#utility.yul\":4311:4350   */\n      tag_450\n        /* \"#utility.yul\":4344:4349   */\n      dup3\n        /* \"#utility.yul\":4311:4350   */\n      tag_343\n      jump\t// in\n    tag_450:\n        /* \"#utility.yul\":4366:4437   */\n      tag_451\n        /* \"#utility.yul\":4430:4436   */\n      dup2\n        /* \"#utility.yul\":4425:4428   */\n      dup6\n        /* \"#utility.yul\":4366:4437   */\n      tag_344\n      jump\t// in\n    tag_451:\n        /* \"#utility.yul\":4359:4437   */\n      swap4\n      pop\n        /* \"#utility.yul\":4446:4511   */\n      tag_452\n        /* \"#utility.yul\":4504:4510   */\n      dup2\n        /* \"#utility.yul\":4499:4502   */\n      dup6\n        /* \"#utility.yul\":4492:4496   */\n      0x20\n        /* \"#utility.yul\":4485:4490   */\n      dup7\n        /* \"#utility.yul\":4481:4497   */\n      add\n        /* \"#utility.yul\":4446:4511   */\n      tag_345\n      jump\t// in\n    tag_452:\n        /* \"#utility.yul\":4536:4565   */\n      tag_453\n        /* \"#utility.yul\":4558:4564   */\n      dup2\n        /* \"#utility.yul\":4536:4565   */\n      tag_346\n      jump\t// in\n    tag_453:\n        /* \"#utility.yul\":4531:4534   */\n      dup5\n        /* \"#utility.yul\":4527:4566   */\n      add\n        /* \"#utility.yul\":4520:4566   */\n      swap2\n      pop\n        /* \"#utility.yul\":4287:4572   */\n      pop\n        /* \"#utility.yul\":4195:4572   */\n      swap3\n      swap2\n      pop\n      pop\n      jump\t// out\n        /* \"#utility.yul\":4578:4686   */\n    tag_348:\n        /* \"#utility.yul\":4655:4679   */\n      tag_455\n        /* \"#utility.yul\":4673:4678   */\n      dup2\n        /* \"#utility.yul\":4655:4679   */\n      tag_335\n      jump\t// in\n    tag_455:\n        /* \"#utility.yul\":4650:4653   */\n      dup3\n        /* \"#utility.yul\":4643:4680   */\n      mstore\n        /* \"#utility.yul\":4578:4686   */\n      pop\n      pop\n      jump\t// out\n        /* \"#utility.yul\":4692:4818   */\n    tag_349:\n        /* \"#utility.yul\":4729:4736   */\n      0x00\n        /* \"#utility.yul\":4769:4811   */\n      0xffffffffffffffffffffffffffffffffffffffff\n        /* \"#utility.yul\":4762:4767   */\n      dup3\n        /* \"#utility.yul\":4758:4812   */\n      and\n        /* \"#utility.yul\":4747:4812   */\n      swap1\n      pop\n        /* \"#utility.yul\":4692:4818   */\n      swap2\n      swap1\n      pop\n      jump\t// out\n        /* \"#utility.yul\":4824:4920   */\n    tag_350:\n        /* \"#utility.yul\":4861:4868   */\n      0x00\n        /* \"#utility.yul\":4890:4914   */\n      tag_458\n        /* \"#utility.yul\":4908:4913   */\n      dup3\n        /* \"#utility.yul\":4890:4914   */\n      tag_349\n      jump\t// in\n    tag_458:\n        /* \"#utility.yul\":4879:4914   */\n      swap1\n      pop\n        /* \"#utility.yul\":4824:4920   */\n      swap2\n      swap1\n      pop\n      jump\t// out\n        /* \"#utility.yul\":4926:5034   */\n    tag_351:\n        /* \"#utility.yul\":5003:5027   */\n      tag_460\n        /* \"#utility.yul\":5021:5026   */\n      dup2\n        /* \"#utility.yul\":5003:5027   */\n      tag_350\n      jump\t// in\n    tag_460:\n        /* \"#utility.yul\":4998:5001   */\n      dup3\n        /* \"#utility.yul\":4991:5028   */\n      mstore\n        /* \"#utility.yul\":4926:5034   */\n      pop\n      pop\n      jump\t// out\n        /* \"#utility.yul\":5040:5199   */\n    tag_352:\n        /* \"#utility.yul\":5114:5125   */\n      0x00\n        /* \"#utility.yul\":5148:5154   */\n      dup3\n        /* \"#utility.yul\":5143:5146   */\n      dup3\n        /* \"#utility.yul\":5136:5155   */\n      mstore\n        /* \"#utility.yul\":5188:5192   */\n      0x20\n        /* \"#utility.yul\":5183:5186   */\n      dup3\n        /* \"#utility.yul\":5179:5193   */\n      add\n        /* \"#utility.yul\":5164:5193   */\n      swap1\n      pop\n        /* \"#utility.yul\":5040:5199   */\n      swap3\n      swap2\n      pop\n      pop\n      jump\t// out\n        /* \"#utility.yul\":5205:5562   */\n    tag_353:\n        /* \"#utility.yul\":5283:5286   */\n      0x00\n        /* \"#utility.yul\":5311:5350   */\n      tag_463\n        /* \"#utility.yul\":5344:5349   */\n      dup3\n        /* \"#utility.yul\":5311:5350   */\n      tag_343\n      jump\t// in\n    tag_463:\n        /* \"#utility.yul\":5366:5427   */\n      tag_464\n        /* \"#utility.yul\":5420:5426   */\n      dup2\n        /* \"#utility.yul\":5415:5418   */\n      dup6\n        /* \"#utility.yul\":5366:5427   */\n      tag_352\n      jump\t// in\n    tag_464:\n        /* \"#utility.yul\":5359:5427   */\n      swap4\n      pop\n        /* \"#utility.yul\":5436:5501   */\n      tag_465\n        /* \"#utility.yul\":5494:5500   */\n      dup2\n        /* \"#utility.yul\":5489:5492   */\n      dup6\n        /* \"#utility.yul\":5482:5486   */\n      0x20\n        /* \"#utility.yul\":5475:5480   */\n      dup7\n        /* \"#utility.yul\":5471:5487   */\n      add\n        /* \"#utility.yul\":5436:5501   */\n      tag_345\n      jump\t// in\n    tag_465:\n        /* \"#utility.yul\":5526:5555   */\n      tag_466\n        /* \"#utility.yul\":5548:5554   */\n      dup2\n        /* \"#utility.yul\":5526:5555   */\n      tag_346\n      jump\t// in\n    tag_466:\n        /* \"#utility.yul\":5521:5524   */\n      dup5\n        /* \"#utility.yul\":5517:5556   */\n      add\n        /* \"#utility.yul\":5510:5556   */\n      swap2\n      pop\n        /* \"#utility.yul\":5287:5562   */\n      pop\n        /* \"#utility.yul\":5205:5562   */\n      swap3\n      swap2\n      pop\n      pop\n      jump\t// out\n        /* \"#utility.yul\":5568:5748   */\n    tag_64:\n        /* \"#utility.yul\":5616:5693   */\n      0x4e487b7100000000000000000000000000000000000000000000000000000000\n        /* \"#utility.yul\":5613:5614   */\n      0x00\n        /* \"#utility.yul\":5606:5694   */\n      mstore\n        /* \"#utility.yul\":5713:5717   */\n      0x21\n        /* \"#utility.yul\":5710:5711   */\n      0x04\n        /* \"#utility.yul\":5703:5718   */\n      mstore\n        /* \"#utility.yul\":5737:5741   */\n      0x24\n        /* \"#utility.yul\":5734:5735   */\n      0x00\n        /* \"#utility.yul\":5727:5742   */\n      revert\n        /* \"#utility.yul\":5754:5873   */\n    tag_354:\n        /* \"#utility.yul\":5841:5842   */\n      0x02\n        /* \"#utility.yul\":5834:5839   */\n      dup2\n        /* \"#utility.yul\":5831:5843   */\n      lt\n        /* \"#utility.yul\":5821:5867   */\n      tag_469\n      jumpi\n        /* \"#utility.yul\":5847:5865   */\n      tag_470\n      tag_64\n      jump\t// in\n    tag_470:\n        /* \"#utility.yul\":5821:5867   */\n    tag_469:\n        /* \"#utility.yul\":5754:5873   */\n      pop\n      jump\t// out\n        /* \"#utility.yul\":5879:6018   */\n    tag_355:\n        /* \"#utility.yul\":5930:5937   */\n      0x00\n        /* \"#utility.yul\":5959:5964   */\n      dup2\n        /* \"#utility.yul\":5948:5964   */\n      swap1\n      pop\n        /* \"#utility.yul\":5965:6012   */\n      tag_472\n        /* \"#utility.yul\":6006:6011   */\n      dup3\n        /* \"#utility.yul\":5965:6012   */\n      tag_354\n      jump\t// in\n    tag_472:\n        /* \"#utility.yul\":5879:6018   */\n      swap2\n      swap1\n      pop\n      jump\t// out\n        /* \"#utility.yul\":6024:6163   */\n    tag_356:\n        /* \"#utility.yul\":6086:6095   */\n      0x00\n        /* \"#utility.yul\":6119:6157   */\n      tag_474\n        /* \"#utility.yul\":6151:6156   */\n      dup3\n        /* \"#utility.yul\":6119:6157   */\n      tag_355\n      jump\t// in\n    tag_474:\n        /* \"#utility.yul\":6106:6157   */\n      swap1\n      pop\n        /* \"#utility.yul\":6024:6163   */\n      swap2\n      swap1\n      pop\n      jump\t// out\n        /* \"#utility.yul\":6169:6314   */\n    tag_357:\n        /* \"#utility.yul\":6258:6307   */\n      tag_476\n        /* \"#utility.yul\":6301:6306   */\n      dup2\n        /* \"#utility.yul\":6258:6307   */\n      tag_356\n      jump\t// in\n    tag_476:\n        /* \"#utility.yul\":6253:6256   */\n      dup3\n        /* \"#utility.yul\":6246:6308   */\n      mstore\n        /* \"#utility.yul\":6169:6314   */\n      pop\n      pop\n      jump\t// out\n        /* \"#utility.yul\":6320:6434   */\n    tag_358:\n        /* \"#utility.yul\":6387:6393   */\n      0x00\n        /* \"#utility.yul\":6421:6426   */\n      dup2\n        /* \"#utility.yul\":6415:6427   */\n      mload\n        /* \"#utility.yul\":6405:6427   */\n      swap1\n      pop\n        /* \"#utility.yul\":6320:6434   */\n      swap2\n      swap1\n      pop\n      jump\t// out\n        /* \"#utility.yul\":6440:6614   */\n    tag_359:\n        /* \"#utility.yul\":6529:6540   */\n      0x00\n        /* \"#utility.yul\":6563:6569   */\n      dup3\n        /* \"#utility.yul\":6558:6561   */\n      dup3\n        /* \"#utility.yul\":6551:6570   */\n      mstore\n        /* \"#utility.yul\":6603:6607   */\n      0x20\n        /* \"#utility.yul\":6598:6601   */\n      dup3\n        /* \"#utility.yul\":6594:6608   */\n      add\n        /* \"#utility.yul\":6579:6608   */\n      swap1\n      pop\n        /* \"#utility.yul\":6440:6614   */\n      swap3\n      swap2\n      pop\n      pop\n      jump\t// out\n        /* \"#utility.yul\":6620:6752   */\n    tag_360:\n        /* \"#utility.yul\":6687:6691   */\n      0x00\n        /* \"#utility.yul\":6710:6713   */\n      dup2\n        /* \"#utility.yul\":6702:6713   */\n      swap1\n      pop\n        /* \"#utility.yul\":6740:6744   */\n      0x20\n        /* \"#utility.yul\":6735:6738   */\n      dup3\n        /* \"#utility.yul\":6731:6745   */\n      add\n        /* \"#utility.yul\":6723:6745   */\n      swap1\n      pop\n        /* \"#utility.yul\":6620:6752   */\n      swap2\n      swap1\n      pop\n      jump\t// out\n        /* \"#utility.yul\":6758:6937   */\n    tag_361:\n        /* \"#utility.yul\":6827:6837   */\n      0x00\n        /* \"#utility.yul\":6848:6894   */\n      tag_481\n        /* \"#utility.yul\":6890:6893   */\n      dup4\n        /* \"#utility.yul\":6882:6888   */\n      dup4\n        /* \"#utility.yul\":6848:6894   */\n      tag_348\n      jump\t// in\n    tag_481:\n        /* \"#utility.yul\":6926:6930   */\n      0x20\n        /* \"#utility.yul\":6921:6924   */\n      dup4\n        /* \"#utility.yul\":6917:6931   */\n      add\n        /* \"#utility.yul\":6903:6931   */\n      swap1\n      pop\n        /* \"#utility.yul\":6758:6937   */\n      swap3\n      swap2\n      pop\n      pop\n      jump\t// out\n        /* \"#utility.yul\":6943:7056   */\n    tag_362:\n        /* \"#utility.yul\":7013:7017   */\n      0x00\n        /* \"#utility.yul\":7045:7049   */\n      0x20\n        /* \"#utility.yul\":7040:7043   */\n      dup3\n        /* \"#utility.yul\":7036:7050   */\n      add\n        /* \"#utility.yul\":7028:7050   */\n      swap1\n      pop\n        /* \"#utility.yul\":6943:7056   */\n      swap2\n      swap1\n      pop\n      jump\t// out\n        /* \"#utility.yul\":7092:7804   */\n    tag_363:\n        /* \"#utility.yul\":7201:7204   */\n      0x00\n        /* \"#utility.yul\":7230:7284   */\n      tag_484\n        /* \"#utility.yul\":7278:7283   */\n      dup3\n        /* \"#utility.yul\":7230:7284   */\n      tag_358\n      jump\t// in\n    tag_484:\n        /* \"#utility.yul\":7300:7376   */\n      tag_485\n        /* \"#utility.yul\":7369:7375   */\n      dup2\n        /* \"#utility.yul\":7364:7367   */\n      dup6\n        /* \"#utility.yul\":7300:7376   */\n      tag_359\n      jump\t// in\n    tag_485:\n        /* \"#utility.yul\":7293:7376   */\n      swap4\n      pop\n        /* \"#utility.yul\":7400:7456   */\n      tag_486\n        /* \"#utility.yul\":7450:7455   */\n      dup4\n        /* \"#utility.yul\":7400:7456   */\n      tag_360\n      jump\t// in\n    tag_486:\n        /* \"#utility.yul\":7479:7486   */\n      dup1\n        /* \"#utility.yul\":7510:7511   */\n      0x00\n        /* \"#utility.yul\":7495:7779   */\n    tag_487:\n        /* \"#utility.yul\":7520:7526   */\n      dup4\n        /* \"#utility.yul\":7517:7518   */\n      dup2\n        /* \"#utility.yul\":7514:7527   */\n      lt\n        /* \"#utility.yul\":7495:7779   */\n      iszero\n      tag_489\n      jumpi\n        /* \"#utility.yul\":7596:7602   */\n      dup2\n        /* \"#utility.yul\":7590:7603   */\n      mload\n        /* \"#utility.yul\":7623:7686   */\n      tag_490\n        /* \"#utility.yul\":7682:7685   */\n      dup9\n        /* \"#utility.yul\":7667:7680   */\n      dup3\n        /* \"#utility.yul\":7623:7686   */\n      tag_361\n      jump\t// in\n    tag_490:\n        /* \"#utility.yul\":7616:7686   */\n      swap8\n      pop\n        /* \"#utility.yul\":7709:7769   */\n      tag_491\n        /* \"#utility.yul\":7762:7768   */\n      dup4\n        /* \"#utility.yul\":7709:7769   */\n      tag_362\n      jump\t// in\n    tag_491:\n        /* \"#utility.yul\":7699:7769   */\n      swap3\n      pop\n        /* \"#utility.yul\":7555:7779   */\n      pop\n        /* \"#utility.yul\":7542:7543   */\n      0x01\n        /* \"#utility.yul\":7539:7540   */\n      dup2\n        /* \"#utility.yul\":7535:7544   */\n      add\n        /* \"#utility.yul\":7530:7544   */\n      swap1\n      pop\n        /* \"#utility.yul\":7495:7779   */\n      jump(tag_487)\n    tag_489:\n        /* \"#utility.yul\":7499:7513   */\n      pop\n        /* \"#utility.yul\":7795:7798   */\n      dup6\n        /* \"#utility.yul\":7788:7798   */\n      swap4\n      pop\n        /* \"#utility.yul\":7206:7804   */\n      pop\n      pop\n      pop\n        /* \"#utility.yul\":7092:7804   */\n      swap3\n      swap2\n      pop\n      pop\n      jump\t// out\n        /* \"#utility.yul\":7868:9897   */\n    tag_364:\n        /* \"#utility.yul\":8003:8006   */\n      0x00\n        /* \"#utility.yul\":8039:8045   */\n      0x0100\n        /* \"#utility.yul\":8034:8037   */\n      dup4\n        /* \"#utility.yul\":8030:8046   */\n      add\n        /* \"#utility.yul\":8126:8130   */\n      0x00\n        /* \"#utility.yul\":8119:8124   */\n      dup4\n        /* \"#utility.yul\":8115:8131   */\n      add\n        /* \"#utility.yul\":8109:8132   */\n      mload\n        /* \"#utility.yul\":8145:8208   */\n      tag_493\n        /* \"#utility.yul\":8202:8206   */\n      0x00\n        /* \"#utility.yul\":8197:8200   */\n      dup7\n        /* \"#utility.yul\":8193:8207   */\n      add\n        /* \"#utility.yul\":8179:8191   */\n      dup3\n        /* \"#utility.yul\":8145:8208   */\n      tag_348\n      jump\t// in\n    tag_493:\n        /* \"#utility.yul\":8056:8218   */\n      pop\n        /* \"#utility.yul\":8312:8316   */\n      0x20\n        /* \"#utility.yul\":8305:8310   */\n      dup4\n        /* \"#utility.yul\":8301:8317   */\n      add\n        /* \"#utility.yul\":8295:8318   */\n      mload\n        /* \"#utility.yul\":8331:8394   */\n      tag_494\n        /* \"#utility.yul\":8388:8392   */\n      0x20\n        /* \"#utility.yul\":8383:8386   */\n      dup7\n        /* \"#utility.yul\":8379:8393   */\n      add\n        /* \"#utility.yul\":8365:8377   */\n      dup3\n        /* \"#utility.yul\":8331:8394   */\n      tag_351\n      jump\t// in\n    tag_494:\n        /* \"#utility.yul\":8228:8404   */\n      pop\n        /* \"#utility.yul\":8490:8494   */\n      0x40\n        /* \"#utility.yul\":8483:8488   */\n      dup4\n        /* \"#utility.yul\":8479:8495   */\n      add\n        /* \"#utility.yul\":8473:8496   */\n      mload\n        /* \"#utility.yul\":8543:8546   */\n      dup5\n        /* \"#utility.yul\":8537:8541   */\n      dup3\n        /* \"#utility.yul\":8533:8547   */\n      sub\n        /* \"#utility.yul\":8526:8530   */\n      0x40\n        /* \"#utility.yul\":8521:8524   */\n      dup7\n        /* \"#utility.yul\":8517:8531   */\n      add\n        /* \"#utility.yul\":8510:8548   */\n      mstore\n        /* \"#utility.yul\":8569:8642   */\n      tag_495\n        /* \"#utility.yul\":8637:8641   */\n      dup3\n        /* \"#utility.yul\":8623:8635   */\n      dup3\n        /* \"#utility.yul\":8569:8642   */\n      tag_353\n      jump\t// in\n    tag_495:\n        /* \"#utility.yul\":8561:8642   */\n      swap2\n      pop\n        /* \"#utility.yul\":8414:8653   */\n      pop\n        /* \"#utility.yul\":8736:8740   */\n      0x60\n        /* \"#utility.yul\":8729:8734   */\n      dup4\n        /* \"#utility.yul\":8725:8741   */\n      add\n        /* \"#utility.yul\":8719:8742   */\n      mload\n        /* \"#utility.yul\":8789:8792   */\n      dup5\n        /* \"#utility.yul\":8783:8787   */\n      dup3\n        /* \"#utility.yul\":8779:8793   */\n      sub\n        /* \"#utility.yul\":8772:8776   */\n      0x60\n        /* \"#utility.yul\":8767:8770   */\n      dup7\n        /* \"#utility.yul\":8763:8777   */\n      add\n        /* \"#utility.yul\":8756:8794   */\n      mstore\n        /* \"#utility.yul\":8815:8888   */\n      tag_496\n        /* \"#utility.yul\":8883:8887   */\n      dup3\n        /* \"#utility.yul\":8869:8881   */\n      dup3\n        /* \"#utility.yul\":8815:8888   */\n      tag_353\n      jump\t// in\n    tag_496:\n        /* \"#utility.yul\":8807:8888   */\n      swap2\n      pop\n        /* \"#utility.yul\":8663:8899   */\n      pop\n        /* \"#utility.yul\":8985:8989   */\n      0x80\n        /* \"#utility.yul\":8978:8983   */\n      dup4\n        /* \"#utility.yul\":8974:8990   */\n      add\n        /* \"#utility.yul\":8968:8991   */\n      mload\n        /* \"#utility.yul\":9038:9041   */\n      dup5\n        /* \"#utility.yul\":9032:9036   */\n      dup3\n        /* \"#utility.yul\":9028:9042   */\n      sub\n        /* \"#utility.yul\":9021:9025   */\n      0x80\n        /* \"#utility.yul\":9016:9019   */\n      dup7\n        /* \"#utility.yul\":9012:9026   */\n      add\n        /* \"#utility.yul\":9005:9043   */\n      mstore\n        /* \"#utility.yul\":9064:9137   */\n      tag_497\n        /* \"#utility.yul\":9132:9136   */\n      dup3\n        /* \"#utility.yul\":9118:9130   */\n      dup3\n        /* \"#utility.yul\":9064:9137   */\n      tag_353\n      jump\t// in\n    tag_497:\n        /* \"#utility.yul\":9056:9137   */\n      swap2\n      pop\n        /* \"#utility.yul\":8909:9148   */\n      pop\n        /* \"#utility.yul\":9229:9233   */\n      0xa0\n        /* \"#utility.yul\":9222:9227   */\n      dup4\n        /* \"#utility.yul\":9218:9234   */\n      add\n        /* \"#utility.yul\":9212:9235   */\n      mload\n        /* \"#utility.yul\":9282:9285   */\n      dup5\n        /* \"#utility.yul\":9276:9280   */\n      dup3\n        /* \"#utility.yul\":9272:9286   */\n      sub\n        /* \"#utility.yul\":9265:9269   */\n      0xa0\n        /* \"#utility.yul\":9260:9263   */\n      dup7\n        /* \"#utility.yul\":9256:9270   */\n      add\n        /* \"#utility.yul\":9249:9287   */\n      mstore\n        /* \"#utility.yul\":9308:9381   */\n      tag_498\n        /* \"#utility.yul\":9376:9380   */\n      dup3\n        /* \"#utility.yul\":9362:9374   */\n      dup3\n        /* \"#utility.yul\":9308:9381   */\n      tag_353\n      jump\t// in\n    tag_498:\n        /* \"#utility.yul\":9300:9381   */\n      swap2\n      pop\n        /* \"#utility.yul\":9158:9392   */\n      pop\n        /* \"#utility.yul\":9481:9485   */\n      0xc0\n        /* \"#utility.yul\":9474:9479   */\n      dup4\n        /* \"#utility.yul\":9470:9486   */\n      add\n        /* \"#utility.yul\":9464:9487   */\n      mload\n        /* \"#utility.yul\":9500:9575   */\n      tag_499\n        /* \"#utility.yul\":9569:9573   */\n      0xc0\n        /* \"#utility.yul\":9564:9567   */\n      dup7\n        /* \"#utility.yul\":9560:9574   */\n      add\n        /* \"#utility.yul\":9546:9558   */\n      dup3\n        /* \"#utility.yul\":9500:9575   */\n      tag_357\n      jump\t// in\n    tag_499:\n        /* \"#utility.yul\":9402:9585   */\n      pop\n        /* \"#utility.yul\":9677:9681   */\n      0xe0\n        /* \"#utility.yul\":9670:9675   */\n      dup4\n        /* \"#utility.yul\":9666:9682   */\n      add\n        /* \"#utility.yul\":9660:9683   */\n      mload\n        /* \"#utility.yul\":9730:9733   */\n      dup5\n        /* \"#utility.yul\":9724:9728   */\n      dup3\n        /* \"#utility.yul\":9720:9734   */\n      sub\n        /* \"#utility.yul\":9713:9717   */\n      0xe0\n        /* \"#utility.yul\":9708:9711   */\n      dup7\n        /* \"#utility.yul\":9704:9718   */\n      add\n        /* \"#utility.yul\":9697:9735   */\n      mstore\n        /* \"#utility.yul\":9756:9859   */\n      tag_500\n        /* \"#utility.yul\":9854:9858   */\n      dup3\n        /* \"#utility.yul\":9840:9852   */\n      dup3\n        /* \"#utility.yul\":9756:9859   */\n      tag_363\n      jump\t// in\n    tag_500:\n        /* \"#utility.yul\":9748:9859   */\n      swap2\n      pop\n        /* \"#utility.yul\":9595:9870   */\n      pop\n        /* \"#utility.yul\":9887:9891   */\n      dup1\n        /* \"#utility.yul\":9880:9891   */\n      swap2\n      pop\n        /* \"#utility.yul\":8008:9897   */\n      pop\n        /* \"#utility.yul\":7868:9897   */\n      swap3\n      swap2\n      pop\n      pop\n      jump\t// out\n        /* \"#utility.yul\":9903:10031   */\n    tag_365:\n        /* \"#utility.yul\":9999:10000   */\n      0x03\n        /* \"#utility.yul\":9992:9997   */\n      dup2\n        /* \"#utility.yul\":9989:10001   */\n      lt\n        /* \"#utility.yul\":9979:10025   */\n      tag_502\n      jumpi\n        /* \"#utility.yul\":10005:10023   */\n      tag_503\n      tag_64\n      jump\t// in\n    tag_503:\n        /* \"#utility.yul\":9979:10025   */\n    tag_502:\n        /* \"#utility.yul\":9903:10031   */\n      pop\n      jump\t// out\n        /* \"#utility.yul\":10037:10194   */\n    tag_366:\n        /* \"#utility.yul\":10097:10104   */\n      0x00\n        /* \"#utility.yul\":10126:10131   */\n      dup2\n        /* \"#utility.yul\":10115:10131   */\n      swap1\n      pop\n        /* \"#utility.yul\":10132:10188   */\n      tag_505\n        /* \"#utility.yul\":10182:10187   */\n      dup3\n        /* \"#utility.yul\":10132:10188   */\n      tag_365\n      jump\t// in\n    tag_505:\n        /* \"#utility.yul\":10037:10194   */\n      swap2\n      swap1\n      pop\n      jump\t// out\n        /* \"#utility.yul\":10200:10357   */\n    tag_367:\n        /* \"#utility.yul\":10271:10280   */\n      0x00\n        /* \"#utility.yul\":10304:10351   */\n      tag_507\n        /* \"#utility.yul\":10345:10350   */\n      dup3\n        /* \"#utility.yul\":10304:10351   */\n      tag_366\n      jump\t// in\n    tag_507:\n        /* \"#utility.yul\":10291:10351   */\n      swap1\n      pop\n        /* \"#utility.yul\":10200:10357   */\n      swap2\n      swap1\n      pop\n      jump\t// out\n        /* \"#utility.yul\":10363:10536   */\n    tag_368:\n        /* \"#utility.yul\":10471:10529   */\n      tag_509\n        /* \"#utility.yul\":10523:10528   */\n      dup2\n        /* \"#utility.yul\":10471:10529   */\n      tag_367\n      jump\t// in\n    tag_509:\n        /* \"#utility.yul\":10466:10469   */\n      dup3\n        /* \"#utility.yul\":10459:10530   */\n      mstore\n        /* \"#utility.yul\":10363:10536   */\n      pop\n      pop\n      jump\t// out\n        /* \"#utility.yul\":10542:11522   */\n    tag_26:\n        /* \"#utility.yul\":10854:10858   */\n      0x00\n        /* \"#utility.yul\":10892:10895   */\n      0xa0\n        /* \"#utility.yul\":10881:10890   */\n      dup3\n        /* \"#utility.yul\":10877:10896   */\n      add\n        /* \"#utility.yul\":10869:10896   */\n      swap1\n      pop\n        /* \"#utility.yul\":10906:10977   */\n      tag_511\n        /* \"#utility.yul\":10974:10975   */\n      0x00\n        /* \"#utility.yul\":10963:10972   */\n      dup4\n        /* \"#utility.yul\":10959:10976   */\n      add\n        /* \"#utility.yul\":10950:10956   */\n      dup9\n        /* \"#utility.yul\":10906:10977   */\n      tag_342\n      jump\t// in\n    tag_511:\n        /* \"#utility.yul\":10987:11059   */\n      tag_512\n        /* \"#utility.yul\":11055:11057   */\n      0x20\n        /* \"#utility.yul\":11044:11053   */\n      dup4\n        /* \"#utility.yul\":11040:11058   */\n      add\n        /* \"#utility.yul\":11031:11037   */\n      dup8\n        /* \"#utility.yul\":10987:11059   */\n      tag_342\n      jump\t// in\n    tag_512:\n        /* \"#utility.yul\":11106:11115   */\n      dup2\n        /* \"#utility.yul\":11100:11104   */\n      dup2\n        /* \"#utility.yul\":11096:11116   */\n      sub\n        /* \"#utility.yul\":11091:11093   */\n      0x40\n        /* \"#utility.yul\":11080:11089   */\n      dup4\n        /* \"#utility.yul\":11076:11094   */\n      add\n        /* \"#utility.yul\":11069:11117   */\n      mstore\n        /* \"#utility.yul\":11134:11212   */\n      tag_513\n        /* \"#utility.yul\":11207:11211   */\n      dup2\n        /* \"#utility.yul\":11198:11204   */\n      dup7\n        /* \"#utility.yul\":11134:11212   */\n      tag_347\n      jump\t// in\n    tag_513:\n        /* \"#utility.yul\":11126:11212   */\n      swap1\n      pop\n        /* \"#utility.yul\":11259:11268   */\n      dup2\n        /* \"#utility.yul\":11253:11257   */\n      dup2\n        /* \"#utility.yul\":11249:11269   */\n      sub\n        /* \"#utility.yul\":11244:11246   */\n      0x60\n        /* \"#utility.yul\":11233:11242   */\n      dup4\n        /* \"#utility.yul\":11229:11247   */\n      add\n        /* \"#utility.yul\":11222:11270   */\n      mstore\n        /* \"#utility.yul\":11287:11411   */\n      tag_514\n        /* \"#utility.yul\":11406:11410   */\n      dup2\n        /* \"#utility.yul\":11397:11403   */\n      dup6\n        /* \"#utility.yul\":11287:11411   */\n      tag_364\n      jump\t// in\n    tag_514:\n        /* \"#utility.yul\":11279:11411   */\n      swap1\n      pop\n        /* \"#utility.yul\":11421:11515   */\n      tag_515\n        /* \"#utility.yul\":11510:11513   */\n      0x80\n        /* \"#utility.yul\":11499:11508   */\n      dup4\n        /* \"#utility.yul\":11495:11514   */\n      add\n        /* \"#utility.yul\":11486:11492   */\n      dup5\n        /* \"#utility.yul\":11421:11515   */\n      tag_368\n      jump\t// in\n    tag_515:\n        /* \"#utility.yul\":10542:11522   */\n      swap7\n      swap6\n      pop\n      pop\n      pop\n      pop\n      pop\n      pop\n      jump\t// out\n        /* \"#utility.yul\":11528:11650   */\n    tag_369:\n        /* \"#utility.yul\":11601:11625   */\n      tag_517\n        /* \"#utility.yul\":11619:11624   */\n      dup2\n        /* \"#utility.yul\":11601:11625   */\n      tag_350\n      jump\t// in\n    tag_517:\n        /* \"#utility.yul\":11594:11599   */\n      dup2\n        /* \"#utility.yul\":11591:11626   */\n      eq\n        /* \"#utility.yul\":11581:11644   */\n      tag_518\n      jumpi\n        /* \"#utility.yul\":11640:11641   */\n      0x00\n        /* \"#utility.yul\":11637:11638   */\n      0x00\n        /* \"#utility.yul\":11630:11642   */\n      revert\n        /* \"#utility.yul\":11581:11644   */\n    tag_518:\n        /* \"#utility.yul\":11528:11650   */\n      pop\n      jump\t// out\n        /* \"#utility.yul\":11656:11795   */\n    tag_370:\n        /* \"#utility.yul\":11702:11707   */\n      0x00\n        /* \"#utility.yul\":11740:11746   */\n      dup2\n        /* \"#utility.yul\":11727:11747   */\n      calldataload\n        /* \"#utility.yul\":11718:11747   */\n      swap1\n      pop\n        /* \"#utility.yul\":11756:11789   */\n      tag_520\n        /* \"#utility.yul\":11783:11788   */\n      dup2\n        /* \"#utility.yul\":11756:11789   */\n      tag_369\n      jump\t// in\n    tag_520:\n        /* \"#utility.yul\":11656:11795   */\n      swap3\n      swap2\n      pop\n      pop\n      jump\t// out\n        /* \"#utility.yul\":11801:12130   */\n    tag_32:\n        /* \"#utility.yul\":11860:11866   */\n      0x00\n        /* \"#utility.yul\":11909:11911   */\n      0x20\n        /* \"#utility.yul\":11897:11906   */\n      dup3\n        /* \"#utility.yul\":11888:11895   */\n      dup5\n        /* \"#utility.yul\":11884:11907   */\n      sub\n        /* \"#utility.yul\":11880:11912   */\n      slt\n        /* \"#utility.yul\":11877:11996   */\n      iszero\n      tag_522\n      jumpi\n        /* \"#utility.yul\":11915:11994   */\n      tag_523\n      tag_333\n      jump\t// in\n    tag_523:\n        /* \"#utility.yul\":11877:11996   */\n    tag_522:\n        /* \"#utility.yul\":12035:12036   */\n      0x00\n        /* \"#utility.yul\":12060:12113   */\n      tag_524\n        /* \"#utility.yul\":12105:12112   */\n      dup5\n        /* \"#utility.yul\":12096:12102   */\n      dup3\n        /* \"#utility.yul\":12085:12094   */\n      dup6\n        /* \"#utility.yul\":12081:12103   */\n      add\n        /* \"#utility.yul\":12060:12113   */\n      tag_370\n      jump\t// in\n    tag_524:\n        /* \"#utility.yul\":12050:12113   */\n      swap2\n      pop\n        /* \"#utility.yul\":12006:12123   */\n      pop\n        /* \"#utility.yul\":11801:12130   */\n      swap3\n      swap2\n      pop\n      pop\n      jump\t// out\n        /* \"#utility.yul\":12136:12254   */\n    tag_371:\n        /* \"#utility.yul\":12223:12247   */\n      tag_526\n        /* \"#utility.yul\":12241:12246   */\n      dup2\n        /* \"#utility.yul\":12223:12247   */\n      tag_350\n      jump\t// in\n    tag_526:\n        /* \"#utility.yul\":12218:12221   */\n      dup3\n        /* \"#utility.yul\":12211:12248   */\n      mstore\n        /* \"#utility.yul\":12136:12254   */\n      pop\n      pop\n      jump\t// out\n        /* \"#utility.yul\":12260:12415   */\n    tag_372:\n        /* \"#utility.yul\":12359:12408   */\n      tag_528\n        /* \"#utility.yul\":12402:12407   */\n      dup2\n        /* \"#utility.yul\":12359:12408   */\n      tag_356\n      jump\t// in\n    tag_528:\n        /* \"#utility.yul\":12354:12357   */\n      dup3\n        /* \"#utility.yul\":12347:12409   */\n      mstore\n        /* \"#utility.yul\":12260:12415   */\n      pop\n      pop\n      jump\t// out\n        /* \"#utility.yul\":12421:13695   */\n    tag_35:\n        /* \"#utility.yul\":12774:12778   */\n      0x00\n        /* \"#utility.yul\":12812:12815   */\n      0xe0\n        /* \"#utility.yul\":12801:12810   */\n      dup3\n        /* \"#utility.yul\":12797:12816   */\n      add\n        /* \"#utility.yul\":12789:12816   */\n      swap1\n      pop\n        /* \"#utility.yul\":12826:12897   */\n      tag_530\n        /* \"#utility.yul\":12894:12895   */\n      0x00\n        /* \"#utility.yul\":12883:12892   */\n      dup4\n        /* \"#utility.yul\":12879:12896   */\n      add\n        /* \"#utility.yul\":12870:12876   */\n      dup11\n        /* \"#utility.yul\":12826:12897   */\n      tag_342\n      jump\t// in\n    tag_530:\n        /* \"#utility.yul\":12907:12979   */\n      tag_531\n        /* \"#utility.yul\":12975:12977   */\n      0x20\n        /* \"#utility.yul\":12964:12973   */\n      dup4\n        /* \"#utility.yul\":12960:12978   */\n      add\n        /* \"#utility.yul\":12951:12957   */\n      dup10\n        /* \"#utility.yul\":12907:12979   */\n      tag_371\n      jump\t// in\n    tag_531:\n        /* \"#utility.yul\":13026:13035   */\n      dup2\n        /* \"#utility.yul\":13020:13024   */\n      dup2\n        /* \"#utility.yul\":13016:13036   */\n      sub\n        /* \"#utility.yul\":13011:13013   */\n      0x40\n        /* \"#utility.yul\":13000:13009   */\n      dup4\n        /* \"#utility.yul\":12996:13014   */\n      add\n        /* \"#utility.yul\":12989:13037   */\n      mstore\n        /* \"#utility.yul\":13054:13132   */\n      tag_532\n        /* \"#utility.yul\":13127:13131   */\n      dup2\n        /* \"#utility.yul\":13118:13124   */\n      dup9\n        /* \"#utility.yul\":13054:13132   */\n      tag_347\n      jump\t// in\n    tag_532:\n        /* \"#utility.yul\":13046:13132   */\n      swap1\n      pop\n        /* \"#utility.yul\":13179:13188   */\n      dup2\n        /* \"#utility.yul\":13173:13177   */\n      dup2\n        /* \"#utility.yul\":13169:13189   */\n      sub\n        /* \"#utility.yul\":13164:13166   */\n      0x60\n        /* \"#utility.yul\":13153:13162   */\n      dup4\n        /* \"#utility.yul\":13149:13167   */\n      add\n        /* \"#utility.yul\":13142:13190   */\n      mstore\n        /* \"#utility.yul\":13207:13285   */\n      tag_533\n        /* \"#utility.yul\":13280:13284   */\n      dup2\n        /* \"#utility.yul\":13271:13277   */\n      dup8\n        /* \"#utility.yul\":13207:13285   */\n      tag_347\n      jump\t// in\n    tag_533:\n        /* \"#utility.yul\":13199:13285   */\n      swap1\n      pop\n        /* \"#utility.yul\":13333:13342   */\n      dup2\n        /* \"#utility.yul\":13327:13331   */\n      dup2\n        /* \"#utility.yul\":13323:13343   */\n      sub\n        /* \"#utility.yul\":13317:13320   */\n      0x80\n        /* \"#utility.yul\":13306:13315   */\n      dup4\n        /* \"#utility.yul\":13302:13321   */\n      add\n        /* \"#utility.yul\":13295:13344   */\n      mstore\n        /* \"#utility.yul\":13361:13439   */\n      tag_534\n        /* \"#utility.yul\":13434:13438   */\n      dup2\n        /* \"#utility.yul\":13425:13431   */\n      dup7\n        /* \"#utility.yul\":13361:13439   */\n      tag_347\n      jump\t// in\n    tag_534:\n        /* \"#utility.yul\":13353:13439   */\n      swap1\n      pop\n        /* \"#utility.yul\":13487:13496   */\n      dup2\n        /* \"#utility.yul\":13481:13485   */\n      dup2\n        /* \"#utility.yul\":13477:13497   */\n      sub\n        /* \"#utility.yul\":13471:13474   */\n      0xa0\n        /* \"#utility.yul\":13460:13469   */\n      dup4\n        /* \"#utility.yul\":13456:13475   */\n      add\n        /* \"#utility.yul\":13449:13498   */\n      mstore\n        /* \"#utility.yul\":13515:13593   */\n      tag_535\n        /* \"#utility.yul\":13588:13592   */\n      dup2\n        /* \"#utility.yul\":13579:13585   */\n      dup6\n        /* \"#utility.yul\":13515:13593   */\n      tag_347\n      jump\t// in\n    tag_535:\n        /* \"#utility.yul\":13507:13593   */\n      swap1\n      pop\n        /* \"#utility.yul\":13603:13688   */\n      tag_536\n        /* \"#utility.yul\":13683:13686   */\n      0xc0\n        /* \"#utility.yul\":13672:13681   */\n      dup4\n        /* \"#utility.yul\":13668:13687   */\n      add\n        /* \"#utility.yul\":13659:13665   */\n      dup5\n        /* \"#utility.yul\":13603:13688   */\n      tag_372\n      jump\t// in\n    tag_536:\n        /* \"#utility.yul\":12421:13695   */\n      swap9\n      swap8\n      pop\n      pop\n      pop\n      pop\n      pop\n      pop\n      pop\n      pop\n      jump\t// out\n        /* \"#utility.yul\":13701:13791   */\n    tag_373:\n        /* \"#utility.yul\":13735:13742   */\n      0x00\n        /* \"#utility.yul\":13778:13783   */\n      dup2\n        /* \"#utility.yul\":13771:13784   */\n      iszero\n        /* \"#utility.yul\":13764:13785   */\n      iszero\n        /* \"#utility.yul\":13753:13785   */\n      swap1\n      pop\n        /* \"#utility.yul\":13701:13791   */\n      swap2\n      swap1\n      pop\n      jump\t// out\n        /* \"#utility.yul\":13797:13906   */\n    tag_374:\n        /* \"#utility.yul\":13878:13899   */\n      tag_539\n        /* \"#utility.yul\":13893:13898   */\n      dup2\n        /* \"#utility.yul\":13878:13899   */\n      tag_373\n      jump\t// in\n    tag_539:\n        /* \"#utility.yul\":13873:13876   */\n      dup3\n        /* \"#utility.yul\":13866:13900   */\n      mstore\n        /* \"#utility.yul\":13797:13906   */\n      pop\n      pop\n      jump\t// out\n        /* \"#utility.yul\":13912:15285   */\n    tag_40:\n        /* \"#utility.yul\":14287:14291   */\n      0x00\n        /* \"#utility.yul\":14325:14328   */\n      0x0100\n        /* \"#utility.yul\":14314:14323   */\n      dup3\n        /* \"#utility.yul\":14310:14329   */\n      add\n        /* \"#utility.yul\":14302:14329   */\n      swap1\n      pop\n        /* \"#utility.yul\":14339:14410   */\n      tag_541\n        /* \"#utility.yul\":14407:14408   */\n      0x00\n        /* \"#utility.yul\":14396:14405   */\n      dup4\n        /* \"#utility.yul\":14392:14409   */\n      add\n        /* \"#utility.yul\":14383:14389   */\n      dup12\n        /* \"#utility.yul\":14339:14410   */\n      tag_342\n      jump\t// in\n    tag_541:\n        /* \"#utility.yul\":14457:14466   */\n      dup2\n        /* \"#utility.yul\":14451:14455   */\n      dup2\n        /* \"#utility.yul\":14447:14467   */\n      sub\n        /* \"#utility.yul\":14442:14444   */\n      0x20\n        /* \"#utility.yul\":14431:14440   */\n      dup4\n        /* \"#utility.yul\":14427:14445   */\n      add\n        /* \"#utility.yul\":14420:14468   */\n      mstore\n        /* \"#utility.yul\":14485:14563   */\n      tag_542\n        /* \"#utility.yul\":14558:14562   */\n      dup2\n        /* \"#utility.yul\":14549:14555   */\n      dup11\n        /* \"#utility.yul\":14485:14563   */\n      tag_347\n      jump\t// in\n    tag_542:\n        /* \"#utility.yul\":14477:14563   */\n      swap1\n      pop\n        /* \"#utility.yul\":14610:14619   */\n      dup2\n        /* \"#utility.yul\":14604:14608   */\n      dup2\n        /* \"#utility.yul\":14600:14620   */\n      sub\n        /* \"#utility.yul\":14595:14597   */\n      0x40\n        /* \"#utility.yul\":14584:14593   */\n      dup4\n        /* \"#utility.yul\":14580:14598   */\n      add\n        /* \"#utility.yul\":14573:14621   */\n      mstore\n        /* \"#utility.yul\":14638:14716   */\n      tag_543\n        /* \"#utility.yul\":14711:14715   */\n      dup2\n        /* \"#utility.yul\":14702:14708   */\n      dup10\n        /* \"#utility.yul\":14638:14716   */\n      tag_347\n      jump\t// in\n    tag_543:\n        /* \"#utility.yul\":14630:14716   */\n      swap1\n      pop\n        /* \"#utility.yul\":14763:14772   */\n      dup2\n        /* \"#utility.yul\":14757:14761   */\n      dup2\n        /* \"#utility.yul\":14753:14773   */\n      sub\n        /* \"#utility.yul\":14748:14750   */\n      0x60\n        /* \"#utility.yul\":14737:14746   */\n      dup4\n        /* \"#utility.yul\":14733:14751   */\n      add\n        /* \"#utility.yul\":14726:14774   */\n      mstore\n        /* \"#utility.yul\":14791:14869   */\n      tag_544\n        /* \"#utility.yul\":14864:14868   */\n      dup2\n        /* \"#utility.yul\":14855:14861   */\n      dup9\n        /* \"#utility.yul\":14791:14869   */\n      tag_347\n      jump\t// in\n    tag_544:\n        /* \"#utility.yul\":14783:14869   */\n      swap1\n      pop\n        /* \"#utility.yul\":14917:14926   */\n      dup2\n        /* \"#utility.yul\":14911:14915   */\n      dup2\n        /* \"#utility.yul\":14907:14927   */\n      sub\n        /* \"#utility.yul\":14901:14904   */\n      0x80\n        /* \"#utility.yul\":14890:14899   */\n      dup4\n        /* \"#utility.yul\":14886:14905   */\n      add\n        /* \"#utility.yul\":14879:14928   */\n      mstore\n        /* \"#utility.yul\":14945:15023   */\n      tag_545\n        /* \"#utility.yul\":15018:15022   */\n      dup2\n        /* \"#utility.yul\":15009:15015   */\n      dup8\n        /* \"#utility.yul\":14945:15023   */\n      tag_347\n      jump\t// in\n    tag_545:\n        /* \"#utility.yul\":14937:15023   */\n      swap1\n      pop\n        /* \"#utility.yul\":15033:15106   */\n      tag_546\n        /* \"#utility.yul\":15101:15104   */\n      0xa0\n        /* \"#utility.yul\":15090:15099   */\n      dup4\n        /* \"#utility.yul\":15086:15105   */\n      add\n        /* \"#utility.yul\":15077:15083   */\n      dup7\n        /* \"#utility.yul\":15033:15106   */\n      tag_371\n      jump\t// in\n    tag_546:\n        /* \"#utility.yul\":15116:15183   */\n      tag_547\n        /* \"#utility.yul\":15178:15181   */\n      0xc0\n        /* \"#utility.yul\":15167:15176   */\n      dup4\n        /* \"#utility.yul\":15163:15182   */\n      add\n        /* \"#utility.yul\":15154:15160   */\n      dup6\n        /* \"#utility.yul\":15116:15183   */\n      tag_374\n      jump\t// in\n    tag_547:\n        /* \"#utility.yul\":15193:15278   */\n      tag_548\n        /* \"#utility.yul\":15273:15276   */\n      0xe0\n        /* \"#utility.yul\":15262:15271   */\n      dup4\n        /* \"#utility.yul\":15258:15277   */\n      add\n        /* \"#utility.yul\":15249:15255   */\n      dup5\n        /* \"#utility.yul\":15193:15278   */\n      tag_372\n      jump\t// in\n    tag_548:\n        /* \"#utility.yul\":13912:15285   */\n      swap10\n      swap9\n      pop\n      pop\n      pop\n      pop\n      pop\n      pop\n      pop\n      pop\n      pop\n      jump\t// out\n        /* \"#utility.yul\":15291:16456   */\n    tag_43:\n        /* \"#utility.yul\":15401:15407   */\n      0x00\n        /* \"#utility.yul\":15409:15415   */\n      0x00\n        /* \"#utility.yul\":15417:15423   */\n      0x00\n        /* \"#utility.yul\":15425:15431   */\n      0x00\n        /* \"#utility.yul\":15433:15439   */\n      0x00\n        /* \"#utility.yul\":15441:15447   */\n      0x00\n        /* \"#utility.yul\":15490:15493   */\n      0x80\n        /* \"#utility.yul\":15478:15487   */\n      dup8\n        /* \"#utility.yul\":15469:15476   */\n      dup10\n        /* \"#utility.yul\":15465:15488   */\n      sub\n        /* \"#utility.yul\":15461:15494   */\n      slt\n        /* \"#utility.yul\":15458:15578   */\n      iszero\n      tag_550\n      jumpi\n        /* \"#utility.yul\":15497:15576   */\n      tag_551\n      tag_333\n      jump\t// in\n    tag_551:\n        /* \"#utility.yul\":15458:15578   */\n    tag_550:\n        /* \"#utility.yul\":15645:15646   */\n      0x00\n        /* \"#utility.yul\":15634:15643   */\n      dup8\n        /* \"#utility.yul\":15630:15647   */\n      add\n        /* \"#utility.yul\":15617:15648   */\n      calldataload\n        /* \"#utility.yul\":15675:15693   */\n      0xffffffffffffffff\n        /* \"#utility.yul\":15667:15673   */\n      dup2\n        /* \"#utility.yul\":15664:15694   */\n      gt\n        /* \"#utility.yul\":15661:15778   */\n      iszero\n      tag_552\n      jumpi\n        /* \"#utility.yul\":15697:15776   */\n      tag_553\n      tag_334\n      jump\t// in\n    tag_553:\n        /* \"#utility.yul\":15661:15778   */\n    tag_552:\n        /* \"#utility.yul\":15810:15875   */\n      tag_554\n        /* \"#utility.yul\":15867:15874   */\n      dup10\n        /* \"#utility.yul\":15858:15864   */\n      dup3\n        /* \"#utility.yul\":15847:15856   */\n      dup11\n        /* \"#utility.yul\":15843:15865   */\n      add\n        /* \"#utility.yul\":15810:15875   */\n      tag_341\n      jump\t// in\n    tag_554:\n        /* \"#utility.yul\":15792:15875   */\n      swap7\n      pop\n      swap7\n      pop\n        /* \"#utility.yul\":15588:15885   */\n      pop\n        /* \"#utility.yul\":15952:15954   */\n      0x20\n        /* \"#utility.yul\":15941:15950   */\n      dup8\n        /* \"#utility.yul\":15937:15955   */\n      add\n        /* \"#utility.yul\":15924:15956   */\n      calldataload\n        /* \"#utility.yul\":15983:16001   */\n      0xffffffffffffffff\n        /* \"#utility.yul\":15975:15981   */\n      dup2\n        /* \"#utility.yul\":15972:16002   */\n      gt\n        /* \"#utility.yul\":15969:16086   */\n      iszero\n      tag_555\n      jumpi\n        /* \"#utility.yul\":16005:16084   */\n      tag_556\n      tag_334\n      jump\t// in\n    tag_556:\n        /* \"#utility.yul\":15969:16086   */\n    tag_555:\n        /* \"#utility.yul\":16118:16183   */\n      tag_557\n        /* \"#utility.yul\":16175:16182   */\n      dup10\n        /* \"#utility.yul\":16166:16172   */\n      dup3\n        /* \"#utility.yul\":16155:16164   */\n      dup11\n        /* \"#utility.yul\":16151:16173   */\n      add\n        /* \"#utility.yul\":16118:16183   */\n      tag_341\n      jump\t// in\n    tag_557:\n        /* \"#utility.yul\":16100:16183   */\n      swap5\n      pop\n      swap5\n      pop\n        /* \"#utility.yul\":15895:16193   */\n      pop\n        /* \"#utility.yul\":16232:16234   */\n      0x40\n        /* \"#utility.yul\":16258:16311   */\n      tag_558\n        /* \"#utility.yul\":16303:16310   */\n      dup10\n        /* \"#utility.yul\":16294:16300   */\n      dup3\n        /* \"#utility.yul\":16283:16292   */\n      dup11\n        /* \"#utility.yul\":16279:16301   */\n      add\n        /* \"#utility.yul\":16258:16311   */\n      tag_337\n      jump\t// in\n    tag_558:\n        /* \"#utility.yul\":16248:16311   */\n      swap3\n      pop\n        /* \"#utility.yul\":16203:16321   */\n      pop\n        /* \"#utility.yul\":16360:16362   */\n      0x60\n        /* \"#utility.yul\":16386:16439   */\n      tag_559\n        /* \"#utility.yul\":16431:16438   */\n      dup10\n        /* \"#utility.yul\":16422:16428   */\n      dup3\n        /* \"#utility.yul\":16411:16420   */\n      dup11\n        /* \"#utility.yul\":16407:16429   */\n      add\n        /* \"#utility.yul\":16386:16439   */\n      tag_337\n      jump\t// in\n    tag_559:\n        /* \"#utility.yul\":16376:16439   */\n      swap2\n      pop\n        /* \"#utility.yul\":16331:16449   */\n      pop\n        /* \"#utility.yul\":15291:16456   */\n      swap3\n      swap6\n      pop\n      swap3\n      swap6\n      pop\n      swap3\n      swap6\n      jump\t// out\n        /* \"#utility.yul\":16462:17136   */\n    tag_50:\n        /* \"#utility.yul\":16542:16548   */\n      0x00\n        /* \"#utility.yul\":16550:16556   */\n      0x00\n        /* \"#utility.yul\":16558:16564   */\n      0x00\n        /* \"#utility.yul\":16607:16609   */\n      0x40\n        /* \"#utility.yul\":16595:16604   */\n      dup5\n        /* \"#utility.yul\":16586:16593   */\n      dup7\n        /* \"#utility.yul\":16582:16605   */\n      sub\n        /* \"#utility.yul\":16578:16610   */\n      slt\n        /* \"#utility.yul\":16575:16694   */\n      iszero\n      tag_561\n      jumpi\n        /* \"#utility.yul\":16613:16692   */\n      tag_562\n      tag_333\n      jump\t// in\n    tag_562:\n        /* \"#utility.yul\":16575:16694   */\n    tag_561:\n        /* \"#utility.yul\":16733:16734   */\n      0x00\n        /* \"#utility.yul\":16758:16811   */\n      tag_563\n        /* \"#utility.yul\":16803:16810   */\n      dup7\n        /* \"#utility.yul\":16794:16800   */\n      dup3\n        /* \"#utility.yul\":16783:16792   */\n      dup8\n        /* \"#utility.yul\":16779:16801   */\n      add\n        /* \"#utility.yul\":16758:16811   */\n      tag_337\n      jump\t// in\n    tag_563:\n        /* \"#utility.yul\":16748:16811   */\n      swap4\n      pop\n        /* \"#utility.yul\":16704:16821   */\n      pop\n        /* \"#utility.yul\":16888:16890   */\n      0x20\n        /* \"#utility.yul\":16877:16886   */\n      dup5\n        /* \"#utility.yul\":16873:16891   */\n      add\n        /* \"#utility.yul\":16860:16892   */\n      calldataload\n        /* \"#utility.yul\":16919:16937   */\n      0xffffffffffffffff\n        /* \"#utility.yul\":16911:16917   */\n      dup2\n        /* \"#utility.yul\":16908:16938   */\n      gt\n        /* \"#utility.yul\":16905:17022   */\n      iszero\n      tag_564\n      jumpi\n        /* \"#utility.yul\":16941:17020   */\n      tag_565\n      tag_334\n      jump\t// in\n    tag_565:\n        /* \"#utility.yul\":16905:17022   */\n    tag_564:\n        /* \"#utility.yul\":17054:17119   */\n      tag_566\n        /* \"#utility.yul\":17111:17118   */\n      dup7\n        /* \"#utility.yul\":17102:17108   */\n      dup3\n        /* \"#utility.yul\":17091:17100   */\n      dup8\n        /* \"#utility.yul\":17087:17109   */\n      add\n        /* \"#utility.yul\":17054:17119   */\n      tag_341\n      jump\t// in\n    tag_566:\n        /* \"#utility.yul\":17036:17119   */\n      swap3\n      pop\n      swap3\n      pop\n        /* \"#utility.yul\":16831:17129   */\n      pop\n        /* \"#utility.yul\":16462:17136   */\n      swap3\n      pop\n      swap3\n      pop\n      swap3\n      jump\t// out\n        /* \"#utility.yul\":17142:17241   */\n    tag_375:\n        /* \"#utility.yul\":17213:17234   */\n      tag_568\n        /* \"#utility.yul\":17228:17233   */\n      dup2\n        /* \"#utility.yul\":17213:17234   */\n      tag_373\n      jump\t// in\n    tag_568:\n        /* \"#utility.yul\":17208:17211   */\n      dup3\n        /* \"#utility.yul\":17201:17235   */\n      mstore\n        /* \"#utility.yul\":17142:17241   */\n      pop\n      pop\n      jump\t// out\n        /* \"#utility.yul\":17301:19500   */\n    tag_376:\n        /* \"#utility.yul\":17432:17435   */\n      0x00\n        /* \"#utility.yul\":17468:17474   */\n      0x0120\n        /* \"#utility.yul\":17463:17466   */\n      dup4\n        /* \"#utility.yul\":17459:17475   */\n      add\n        /* \"#utility.yul\":17555:17559   */\n      0x00\n        /* \"#utility.yul\":17548:17553   */\n      dup4\n        /* \"#utility.yul\":17544:17560   */\n      add\n        /* \"#utility.yul\":17538:17561   */\n      mload\n        /* \"#utility.yul\":17574:17637   */\n      tag_570\n        /* \"#utility.yul\":17631:17635   */\n      0x00\n        /* \"#utility.yul\":17626:17629   */\n      dup7\n        /* \"#utility.yul\":17622:17636   */\n      add\n        /* \"#utility.yul\":17608:17620   */\n      dup3\n        /* \"#utility.yul\":17574:17637   */\n      tag_348\n      jump\t// in\n    tag_570:\n        /* \"#utility.yul\":17485:17647   */\n      pop\n        /* \"#utility.yul\":17730:17734   */\n      0x20\n        /* \"#utility.yul\":17723:17728   */\n      dup4\n        /* \"#utility.yul\":17719:17735   */\n      add\n        /* \"#utility.yul\":17713:17736   */\n      mload\n        /* \"#utility.yul\":17783:17786   */\n      dup5\n        /* \"#utility.yul\":17777:17781   */\n      dup3\n        /* \"#utility.yul\":17773:17787   */\n      sub\n        /* \"#utility.yul\":17766:17770   */\n      0x20\n        /* \"#utility.yul\":17761:17764   */\n      dup7\n        /* \"#utility.yul\":17757:17771   */\n      add\n        /* \"#utility.yul\":17750:17788   */\n      mstore\n        /* \"#utility.yul\":17809:17882   */\n      tag_571\n        /* \"#utility.yul\":17877:17881   */\n      dup3\n        /* \"#utility.yul\":17863:17875   */\n      dup3\n        /* \"#utility.yul\":17809:17882   */\n      tag_353\n      jump\t// in\n    tag_571:\n        /* \"#utility.yul\":17801:17882   */\n      swap2\n      pop\n        /* \"#utility.yul\":17657:17893   */\n      pop\n        /* \"#utility.yul\":17975:17979   */\n      0x40\n        /* \"#utility.yul\":17968:17973   */\n      dup4\n        /* \"#utility.yul\":17964:17980   */\n      add\n        /* \"#utility.yul\":17958:17981   */\n      mload\n        /* \"#utility.yul\":18028:18031   */\n      dup5\n        /* \"#utility.yul\":18022:18026   */\n      dup3\n        /* \"#utility.yul\":18018:18032   */\n      sub\n        /* \"#utility.yul\":18011:18015   */\n      0x40\n        /* \"#utility.yul\":18006:18009   */\n      dup7\n        /* \"#utility.yul\":18002:18016   */\n      add\n        /* \"#utility.yul\":17995:18033   */\n      mstore\n        /* \"#utility.yul\":18054:18127   */\n      tag_572\n        /* \"#utility.yul\":18122:18126   */\n      dup3\n        /* \"#utility.yul\":18108:18120   */\n      dup3\n        /* \"#utility.yul\":18054:18127   */\n      tag_353\n      jump\t// in\n    tag_572:\n        /* \"#utility.yul\":18046:18127   */\n      swap2\n      pop\n        /* \"#utility.yul\":17903:18138   */\n      pop\n        /* \"#utility.yul\":18223:18227   */\n      0x60\n        /* \"#utility.yul\":18216:18221   */\n      dup4\n        /* \"#utility.yul\":18212:18228   */\n      add\n        /* \"#utility.yul\":18206:18229   */\n      mload\n        /* \"#utility.yul\":18276:18279   */\n      dup5\n        /* \"#utility.yul\":18270:18274   */\n      dup3\n        /* \"#utility.yul\":18266:18280   */\n      sub\n        /* \"#utility.yul\":18259:18263   */\n      0x60\n        /* \"#utility.yul\":18254:18257   */\n      dup7\n        /* \"#utility.yul\":18250:18264   */\n      add\n        /* \"#utility.yul\":18243:18281   */\n      mstore\n        /* \"#utility.yul\":18302:18375   */\n      tag_573\n        /* \"#utility.yul\":18370:18374   */\n      dup3\n        /* \"#utility.yul\":18356:18368   */\n      dup3\n        /* \"#utility.yul\":18302:18375   */\n      tag_353\n      jump\t// in\n    tag_573:\n        /* \"#utility.yul\":18294:18375   */\n      swap2\n      pop\n        /* \"#utility.yul\":18148:18386   */\n      pop\n        /* \"#utility.yul\":18475:18479   */\n      0x80\n        /* \"#utility.yul\":18468:18473   */\n      dup4\n        /* \"#utility.yul\":18464:18480   */\n      add\n        /* \"#utility.yul\":18458:18481   */\n      mload\n        /* \"#utility.yul\":18528:18531   */\n      dup5\n        /* \"#utility.yul\":18522:18526   */\n      dup3\n        /* \"#utility.yul\":18518:18532   */\n      sub\n        /* \"#utility.yul\":18511:18515   */\n      0x80\n        /* \"#utility.yul\":18506:18509   */\n      dup7\n        /* \"#utility.yul\":18502:18516   */\n      add\n        /* \"#utility.yul\":18495:18533   */\n      mstore\n        /* \"#utility.yul\":18554:18627   */\n      tag_574\n        /* \"#utility.yul\":18622:18626   */\n      dup3\n        /* \"#utility.yul\":18608:18620   */\n      dup3\n        /* \"#utility.yul\":18554:18627   */\n      tag_353\n      jump\t// in\n    tag_574:\n        /* \"#utility.yul\":18546:18627   */\n      swap2\n      pop\n        /* \"#utility.yul\":18396:18638   */\n      pop\n        /* \"#utility.yul\":18730:18734   */\n      0xa0\n        /* \"#utility.yul\":18723:18728   */\n      dup4\n        /* \"#utility.yul\":18719:18735   */\n      add\n        /* \"#utility.yul\":18713:18736   */\n      mload\n        /* \"#utility.yul\":18749:18812   */\n      tag_575\n        /* \"#utility.yul\":18806:18810   */\n      0xa0\n        /* \"#utility.yul\":18801:18804   */\n      dup7\n        /* \"#utility.yul\":18797:18811   */\n      add\n        /* \"#utility.yul\":18783:18795   */\n      dup3\n        /* \"#utility.yul\":18749:18812   */\n      tag_351\n      jump\t// in\n    tag_575:\n        /* \"#utility.yul\":18648:18822   */\n      pop\n        /* \"#utility.yul\":18908:18912   */\n      0xc0\n        /* \"#utility.yul\":18901:18906   */\n      dup4\n        /* \"#utility.yul\":18897:18913   */\n      add\n        /* \"#utility.yul\":18891:18914   */\n      mload\n        /* \"#utility.yul\":18927:18984   */\n      tag_576\n        /* \"#utility.yul\":18978:18982   */\n      0xc0\n        /* \"#utility.yul\":18973:18976   */\n      dup7\n        /* \"#utility.yul\":18969:18983   */\n      add\n        /* \"#utility.yul\":18955:18967   */\n      dup3\n        /* \"#utility.yul\":18927:18984   */\n      tag_375\n      jump\t// in\n    tag_576:\n        /* \"#utility.yul\":18832:18994   */\n      pop\n        /* \"#utility.yul\":19083:19087   */\n      0xe0\n        /* \"#utility.yul\":19076:19081   */\n      dup4\n        /* \"#utility.yul\":19072:19088   */\n      add\n        /* \"#utility.yul\":19066:19089   */\n      mload\n        /* \"#utility.yul\":19102:19177   */\n      tag_577\n        /* \"#utility.yul\":19171:19175   */\n      0xe0\n        /* \"#utility.yul\":19166:19169   */\n      dup7\n        /* \"#utility.yul\":19162:19176   */\n      add\n        /* \"#utility.yul\":19148:19160   */\n      dup3\n        /* \"#utility.yul\":19102:19177   */\n      tag_357\n      jump\t// in\n    tag_577:\n        /* \"#utility.yul\":19004:19187   */\n      pop\n        /* \"#utility.yul\":19276:19282   */\n      0x0100\n        /* \"#utility.yul\":19269:19274   */\n      dup4\n        /* \"#utility.yul\":19265:19283   */\n      add\n        /* \"#utility.yul\":19259:19284   */\n      mload\n        /* \"#utility.yul\":19333:19336   */\n      dup5\n        /* \"#utility.yul\":19327:19331   */\n      dup3\n        /* \"#utility.yul\":19323:19337   */\n      sub\n        /* \"#utility.yul\":19314:19320   */\n      0x0100\n        /* \"#utility.yul\":19309:19312   */\n      dup7\n        /* \"#utility.yul\":19305:19321   */\n      add\n        /* \"#utility.yul\":19298:19338   */\n      mstore\n        /* \"#utility.yul\":19359:19462   */\n      tag_578\n        /* \"#utility.yul\":19457:19461   */\n      dup3\n        /* \"#utility.yul\":19443:19455   */\n      dup3\n        /* \"#utility.yul\":19359:19462   */\n      tag_363\n      jump\t// in\n    tag_578:\n        /* \"#utility.yul\":19351:19462   */\n      swap2\n      pop\n        /* \"#utility.yul\":19197:19473   */\n      pop\n        /* \"#utility.yul\":19490:19494   */\n      dup1\n        /* \"#utility.yul\":19483:19494   */\n      swap2\n      pop\n        /* \"#utility.yul\":17437:19500   */\n      pop\n        /* \"#utility.yul\":17301:19500   */\n      swap3\n      swap2\n      pop\n      pop\n      jump\t// out\n        /* \"#utility.yul\":19506:19628   */\n    tag_377:\n        /* \"#utility.yul\":19596:19597   */\n      0x03\n        /* \"#utility.yul\":19589:19594   */\n      dup2\n        /* \"#utility.yul\":19586:19598   */\n      lt\n        /* \"#utility.yul\":19576:19622   */\n      tag_580\n      jumpi\n        /* \"#utility.yul\":19602:19620   */\n      tag_581\n      tag_64\n      jump\t// in\n    tag_581:\n        /* \"#utility.yul\":19576:19622   */\n    tag_580:\n        /* \"#utility.yul\":19506:19628   */\n      pop\n      jump\t// out\n        /* \"#utility.yul\":19634:19779   */\n    tag_378:\n        /* \"#utility.yul\":19688:19695   */\n      0x00\n        /* \"#utility.yul\":19717:19722   */\n      dup2\n        /* \"#utility.yul\":19706:19722   */\n      swap1\n      pop\n        /* \"#utility.yul\":19723:19773   */\n      tag_583\n        /* \"#utility.yul\":19767:19772   */\n      dup3\n        /* \"#utility.yul\":19723:19773   */\n      tag_377\n      jump\t// in\n    tag_583:\n        /* \"#utility.yul\":19634:19779   */\n      swap2\n      swap1\n      pop\n      jump\t// out\n        /* \"#utility.yul\":19785:19930   */\n    tag_379:\n        /* \"#utility.yul\":19850:19859   */\n      0x00\n        /* \"#utility.yul\":19883:19924   */\n      tag_585\n        /* \"#utility.yul\":19918:19923   */\n      dup3\n        /* \"#utility.yul\":19883:19924   */\n      tag_378\n      jump\t// in\n    tag_585:\n        /* \"#utility.yul\":19870:19924   */\n      swap1\n      pop\n        /* \"#utility.yul\":19785:19930   */\n      swap2\n      swap1\n      pop\n      jump\t// out\n        /* \"#utility.yul\":19936:20097   */\n    tag_380:\n        /* \"#utility.yul\":20038:20090   */\n      tag_587\n        /* \"#utility.yul\":20084:20089   */\n      dup2\n        /* \"#utility.yul\":20038:20090   */\n      tag_379\n      jump\t// in\n    tag_587:\n        /* \"#utility.yul\":20033:20036   */\n      dup3\n        /* \"#utility.yul\":20026:20091   */\n      mstore\n        /* \"#utility.yul\":19936:20097   */\n      pop\n      pop\n      jump\t// out\n        /* \"#utility.yul\":20103:21487   */\n    tag_56:\n        /* \"#utility.yul\":20509:20513   */\n      0x00\n        /* \"#utility.yul\":20547:20550   */\n      0x0100\n        /* \"#utility.yul\":20536:20545   */\n      dup3\n        /* \"#utility.yul\":20532:20551   */\n      add\n        /* \"#utility.yul\":20524:20551   */\n      swap1\n      pop\n        /* \"#utility.yul\":20561:20632   */\n      tag_589\n        /* \"#utility.yul\":20629:20630   */\n      0x00\n        /* \"#utility.yul\":20618:20627   */\n      dup4\n        /* \"#utility.yul\":20614:20631   */\n      add\n        /* \"#utility.yul\":20605:20611   */\n      dup12\n        /* \"#utility.yul\":20561:20632   */\n      tag_342\n      jump\t// in\n    tag_589:\n        /* \"#utility.yul\":20679:20688   */\n      dup2\n        /* \"#utility.yul\":20673:20677   */\n      dup2\n        /* \"#utility.yul\":20669:20689   */\n      sub\n        /* \"#utility.yul\":20664:20666   */\n      0x20\n        /* \"#utility.yul\":20653:20662   */\n      dup4\n        /* \"#utility.yul\":20649:20667   */\n      add\n        /* \"#utility.yul\":20642:20690   */\n      mstore\n        /* \"#utility.yul\":20707:20785   */\n      tag_590\n        /* \"#utility.yul\":20780:20784   */\n      dup2\n        /* \"#utility.yul\":20771:20777   */\n      dup11\n        /* \"#utility.yul\":20707:20785   */\n      tag_347\n      jump\t// in\n    tag_590:\n        /* \"#utility.yul\":20699:20785   */\n      swap1\n      pop\n        /* \"#utility.yul\":20832:20841   */\n      dup2\n        /* \"#utility.yul\":20826:20830   */\n      dup2\n        /* \"#utility.yul\":20822:20842   */\n      sub\n        /* \"#utility.yul\":20817:20819   */\n      0x40\n        /* \"#utility.yul\":20806:20815   */\n      dup4\n        /* \"#utility.yul\":20802:20820   */\n      add\n        /* \"#utility.yul\":20795:20843   */\n      mstore\n        /* \"#utility.yul\":20860:20938   */\n      tag_591\n        /* \"#utility.yul\":20933:20937   */\n      dup2\n        /* \"#utility.yul\":20924:20930   */\n      dup10\n        /* \"#utility.yul\":20860:20938   */\n      tag_347\n      jump\t// in\n    tag_591:\n        /* \"#utility.yul\":20852:20938   */\n      swap1\n      pop\n        /* \"#utility.yul\":20948:21020   */\n      tag_592\n        /* \"#utility.yul\":21016:21018   */\n      0x60\n        /* \"#utility.yul\":21005:21014   */\n      dup4\n        /* \"#utility.yul\":21001:21019   */\n      add\n        /* \"#utility.yul\":20992:20998   */\n      dup9\n        /* \"#utility.yul\":20948:21020   */\n      tag_342\n      jump\t// in\n    tag_592:\n        /* \"#utility.yul\":21068:21077   */\n      dup2\n        /* \"#utility.yul\":21062:21066   */\n      dup2\n        /* \"#utility.yul\":21058:21078   */\n      sub\n        /* \"#utility.yul\":21052:21055   */\n      0x80\n        /* \"#utility.yul\":21041:21050   */\n      dup4\n        /* \"#utility.yul\":21037:21056   */\n      add\n        /* \"#utility.yul\":21030:21079   */\n      mstore\n        /* \"#utility.yul\":21096:21216   */\n      tag_593\n        /* \"#utility.yul\":21211:21215   */\n      dup2\n        /* \"#utility.yul\":21202:21208   */\n      dup8\n        /* \"#utility.yul\":21096:21216   */\n      tag_376\n      jump\t// in\n    tag_593:\n        /* \"#utility.yul\":21088:21216   */\n      swap1\n      pop\n        /* \"#utility.yul\":21226:21314   */\n      tag_594\n        /* \"#utility.yul\":21309:21312   */\n      0xa0\n        /* \"#utility.yul\":21298:21307   */\n      dup4\n        /* \"#utility.yul\":21294:21313   */\n      add\n        /* \"#utility.yul\":21285:21291   */\n      dup7\n        /* \"#utility.yul\":21226:21314   */\n      tag_380\n      jump\t// in\n    tag_594:\n        /* \"#utility.yul\":21324:21397   */\n      tag_595\n        /* \"#utility.yul\":21392:21395   */\n      0xc0\n        /* \"#utility.yul\":21381:21390   */\n      dup4\n        /* \"#utility.yul\":21377:21396   */\n      add\n        /* \"#utility.yul\":21368:21374   */\n      dup6\n        /* \"#utility.yul\":21324:21397   */\n      tag_342\n      jump\t// in\n    tag_595:\n        /* \"#utility.yul\":21407:21480   */\n      tag_596\n        /* \"#utility.yul\":21475:21478   */\n      0xe0\n        /* \"#utility.yul\":21464:21473   */\n      dup4\n        /* \"#utility.yul\":21460:21479   */\n      add\n        /* \"#utility.yul\":21451:21457   */\n      dup5\n        /* \"#utility.yul\":21407:21480   */\n      tag_342\n      jump\t// in\n    tag_596:\n        /* \"#utility.yul\":20103:21487   */\n      swap10\n      swap9\n      pop\n      pop\n      pop\n      pop\n      pop\n      pop\n      pop\n      pop\n      pop\n      jump\t// out\n        /* \"#utility.yul\":21493:21806   */\n    tag_60:\n        /* \"#utility.yul\":21606:21610   */\n      0x00\n        /* \"#utility.yul\":21644:21646   */\n      0x20\n        /* \"#utility.yul\":21633:21642   */\n      dup3\n        /* \"#utility.yul\":21629:21647   */\n      add\n        /* \"#utility.yul\":21621:21647   */\n      swap1\n      pop\n        /* \"#utility.yul\":21693:21702   */\n      dup2\n        /* \"#utility.yul\":21687:21691   */\n      dup2\n        /* \"#utility.yul\":21683:21703   */\n      sub\n        /* \"#utility.yul\":21679:21680   */\n      0x00\n        /* \"#utility.yul\":21668:21677   */\n      dup4\n        /* \"#utility.yul\":21664:21681   */\n      add\n        /* \"#utility.yul\":21657:21704   */\n      mstore\n        /* \"#utility.yul\":21721:21799   */\n      tag_598\n        /* \"#utility.yul\":21794:21798   */\n      dup2\n        /* \"#utility.yul\":21785:21791   */\n      dup5\n        /* \"#utility.yul\":21721:21799   */\n      tag_347\n      jump\t// in\n    tag_598:\n        /* \"#utility.yul\":21713:21799   */\n      swap1\n      pop\n        /* \"#utility.yul\":21493:21806   */\n      swap3\n      swap2\n      pop\n      pop\n      jump\t// out\n        /* \"#utility.yul\":21812:21992   */\n    tag_381:\n        /* \"#utility.yul\":21860:21937   */\n      0x4e487b7100000000000000000000000000000000000000000000000000000000\n        /* \"#utility.yul\":21857:21858   */\n      0x00\n        /* \"#utility.yul\":21850:21938   */\n      mstore\n        /* \"#utility.yul\":21957:21961   */\n      0x11\n        /* \"#utility.yul\":21954:21955   */\n      0x04\n        /* \"#utility.yul\":21947:21962   */\n      mstore\n        /* \"#utility.yul\":21981:21985   */\n      0x24\n        /* \"#utility.yul\":21978:21979   */\n      0x00\n        /* \"#utility.yul\":21971:21986   */\n      revert\n        /* \"#utility.yul\":21998:22231   */\n    tag_81:\n        /* \"#utility.yul\":22037:22040   */\n      0x00\n        /* \"#utility.yul\":22060:22084   */\n      tag_601\n        /* \"#utility.yul\":22078:22083   */\n      dup3\n        /* \"#utility.yul\":22060:22084   */\n      tag_335\n      jump\t// in\n    tag_601:\n        /* \"#utility.yul\":22051:22084   */\n      swap2\n      pop\n        /* \"#utility.yul\":22106:22172   */\n      0xffffffffffffffffffffffffffffffffffffffffffffffffffffffffffffffff\n        /* \"#utility.yul\":22099:22104   */\n      dup3\n        /* \"#utility.yul\":22096:22173   */\n      sub\n        /* \"#utility.yul\":22093:22196   */\n      tag_602\n      jumpi\n        /* \"#utility.yul\":22176:22194   */\n      tag_603\n      tag_381\n      jump\t// in\n    tag_603:\n        /* \"#utility.yul\":22093:22196   */\n    tag_602:\n        /* \"#utility.yul\":22223:22224   */\n      0x01\n        /* \"#utility.yul\":22216:22221   */\n      dup3\n        /* \"#utility.yul\":22212:22225   */\n      add\n        /* \"#utility.yul\":22205:22225   */\n      swap1\n      pop\n        /* \"#utility.yul\":21998:22231   */\n      swap2\n      swap1\n      pop\n      jump\t// out\n        /* \"#utility.yul\":22237:22385   */\n    tag_382:\n        /* \"#utility.yul\":22339:22350   */\n      0x00\n        /* \"#utility.yul\":22376:22379   */\n      dup2\n        /* \"#utility.yul\":22361:22379   */\n      swap1\n      pop\n        /* \"#utility.yul\":22237:22385   */\n      swap3\n      swap2\n      pop\n      pop\n      jump\t// out\n        /* \"#utility.yul\":22391:22539   */\n    tag_383:\n        /* \"#utility.yul\":22489:22495   */\n      dup3\n        /* \"#utility.yul\":22484:22487   */\n      dup2\n        /* \"#utility.yul\":22479:22482   */\n      dup4\n        /* \"#utility.yul\":22466:22496   */\n      calldatacopy\n        /* \"#utility.yul\":22530:22531   */\n      0x00\n        /* \"#utility.yul\":22521:22527   */\n      dup4\n        /* \"#utility.yul\":22516:22519   */\n      dup4\n        /* \"#utility.yul\":22512:22528   */\n      add\n        /* \"#utility.yul\":22505:22532   */\n      mstore\n        /* \"#utility.yul\":22391:22539   */\n      pop\n      pop\n      pop\n      jump\t// out\n        /* \"#utility.yul\":22569:22899   */\n    tag_384:\n        /* \"#utility.yul\":22685:22688   */\n      0x00\n        /* \"#utility.yul\":22706:22795   */\n      tag_607\n        /* \"#utility.yul\":22788:22794   */\n      dup4\n        /* \"#utility.yul\":22783:22786   */\n      dup6\n        /* \"#utility.yul\":22706:22795   */\n      tag_382\n      jump\t// in\n    tag_607:\n        /* \"#utility.yul\":22699:22795   */\n      swap4\n      pop\n        /* \"#utility.yul\":22805:22861   */\n      tag_608\n        /* \"#utility.yul\":22854:22860   */\n      dup4\n        /* \"#utility.yul\":22849:22852   */\n      dup6\n        /* \"#utility.yul\":22842:22847   */\n      dup5\n        /* \"#utility.yul\":22805:22861   */\n      tag_383\n      jump\t// in\n    tag_608:\n        /* \"#utility.yul\":22886:22892   */\n      dup3\n        /* \"#utility.yul\":22881:22884   */\n      dup5\n        /* \"#utility.yul\":22877:22893   */\n      add\n        /* \"#utility.yul\":22870:22893   */\n      swap1\n      pop\n        /* \"#utility.yul\":22569:22899   */\n      swap4\n      swap3\n      pop\n      pop\n      pop\n      jump\t// out\n        /* \"#utility.yul\":22905:23200   */\n    tag_87:\n        /* \"#utility.yul\":23047:23050   */\n      0x00\n        /* \"#utility.yul\":23069:23174   */\n      tag_610\n        /* \"#utility.yul\":23170:23173   */\n      dup3\n        /* \"#utility.yul\":23161:23167   */\n      dup5\n        /* \"#utility.yul\":23153:23159   */\n      dup7\n        /* \"#utility.yul\":23069:23174   */\n      tag_384\n      jump\t// in\n    tag_610:\n        /* \"#utility.yul\":23062:23174   */\n      swap2\n      pop\n        /* \"#utility.yul\":23191:23194   */\n      dup2\n        /* \"#utility.yul\":23184:23194   */\n      swap1\n      pop\n        /* \"#utility.yul\":22905:23200   */\n      swap4\n      swap3\n      pop\n      pop\n      pop\n      jump\t// out\n        /* \"#utility.yul\":23206:23303   */\n    tag_385:\n        /* \"#utility.yul\":23265:23271   */\n      0x00\n        /* \"#utility.yul\":23293:23296   */\n      dup3\n        /* \"#utility.yul\":23283:23296   */\n      swap1\n      pop\n        /* \"#utility.yul\":23206:23303   */\n      swap3\n      swap2\n      pop\n      pop\n      jump\t// out\n        /* \"#utility.yul\":23309:23489   */\n    tag_386:\n        /* \"#utility.yul\":23357:23434   */\n      0x4e487b7100000000000000000000000000000000000000000000000000000000\n        /* \"#utility.yul\":23354:23355   */\n      0x00\n        /* \"#utility.yul\":23347:23435   */\n      mstore\n        /* \"#utility.yul\":23454:23458   */\n      0x41\n        /* \"#utility.yul\":23451:23452   */\n      0x04\n        /* \"#utility.yul\":23444:23459   */\n      mstore\n        /* \"#utility.yul\":23478:23482   */\n      0x24\n        /* \"#utility.yul\":23475:23476   */\n      0x00\n        /* \"#utility.yul\":23468:23483   */\n      revert\n        /* \"#utility.yul\":23495:23675   */\n    tag_387:\n        /* \"#utility.yul\":23543:23620   */\n      0x4e487b7100000000000000000000000000000000000000000000000000000000\n        /* \"#utility.yul\":23540:23541   */\n      0x00\n        /* \"#utility.yul\":23533:23621   */\n      mstore\n        /* \"#utility.yul\":23640:23644   */\n      0x22\n        /* \"#utility.yul\":23637:23638   */\n      0x04\n        /* \"#utility.yul\":23630:23645   */\n      mstore\n        /* \"#utility.yul\":23664:23668   */\n      0x24\n        /* \"#utility.yul\":23661:23662   */\n      0x00\n        /* \"#utility.yul\":23654:23669   */\n      revert\n        /* \"#utility.yul\":23681:24001   */\n    tag_108:\n        /* \"#utility.yul\":23725:23731   */\n      0x00\n        /* \"#utility.yul\":23762:23763   */\n      0x02\n        /* \"#utility.yul\":23756:23760   */\n      dup3\n        /* \"#utility.yul\":23752:23764   */\n      div\n        /* \"#utility.yul\":23742:23764   */\n      swap1\n      pop\n        /* \"#utility.yul\":23809:23810   */\n      0x01\n        /* \"#utility.yul\":23803:23807   */\n      dup3\n        /* \"#utility.yul\":23799:23811   */\n      and\n        /* \"#utility.yul\":23830:23848   */\n      dup1\n        /* \"#utility.yul\":23820:23901   */\n      tag_615\n      jumpi\n        /* \"#utility.yul\":23886:23890   */\n      0x7f\n        /* \"#utility.yul\":23878:23884   */\n      dup3\n        /* \"#utility.yul\":23874:23891   */\n      and\n        /* \"#utility.yul\":23864:23891   */\n      swap2\n      pop\n        /* \"#utility.yul\":23820:23901   */\n    tag_615:\n        /* \"#utility.yul\":23948:23950   */\n      0x20\n        /* \"#utility.yul\":23940:23946   */\n      dup3\n        /* \"#utility.yul\":23937:23951   */\n      lt\n        /* \"#utility.yul\":23917:23935   */\n      dup2\n        /* \"#utility.yul\":23914:23952   */\n      sub\n        /* \"#utility.yul\":23911:23995   */\n      tag_616\n      jumpi\n        /* \"#utility.yul\":23967:23985   */\n      tag_617\n      tag_387\n      jump\t// in\n    tag_617:\n        /* \"#utility.yul\":23911:23995   */\n    tag_616:\n        /* \"#utility.yul\":23732:24001   */\n      pop\n        /* \"#utility.yul\":23681:24001   */\n      swap2\n      swap1\n      pop\n      jump\t// out\n        /* \"#utility.yul\":24007:24148   */\n    tag_388:\n        /* \"#utility.yul\":24056:24060   */\n      0x00\n        /* \"#utility.yul\":24079:24082   */\n      dup2\n        /* \"#utility.yul\":24071:24082   */\n      swap1\n      pop\n        /* \"#utility.yul\":24102:24105   */\n      dup2\n        /* \"#utility.yul\":24099:24100   */\n      0x00\n        /* \"#utility.yul\":24092:24106   */\n      mstore\n        /* \"#utility.yul\":24136:24140   */\n      0x20\n        /* \"#utility.yul\":24133:24134   */\n      0x00\n        /* \"#utility.yul\":24123:24141   */\n      keccak256\n        /* \"#utility.yul\":24115:24141   */\n      swap1\n      pop\n        /* \"#utility.yul\":24007:24148   */\n      swap2\n      swap1\n      pop\n      jump\t// out\n        /* \"#utility.yul\":24154:24247   */\n    tag_389:\n        /* \"#utility.yul\":24191:24197   */\n      0x00\n        /* \"#utility.yul\":24238:24240   */\n      0x20\n        /* \"#utility.yul\":24233:24235   */\n      0x1f\n        /* \"#utility.yul\":24226:24231   */\n      dup4\n        /* \"#utility.yul\":24222:24236   */\n      add\n        /* \"#utility.yul\":24218:24241   */\n      div\n        /* \"#utility.yul\":24208:24241   */\n      swap1\n      pop\n        /* \"#utility.yul\":24154:24247   */\n      swap2\n      swap1\n      pop\n      jump\t// out\n        /* \"#utility.yul\":24253:24360   */\n    tag_390:\n        /* \"#utility.yul\":24297:24305   */\n      0x00\n        /* \"#utility.yul\":24347:24352   */\n      dup3\n        /* \"#utility.yul\":24341:24345   */\n      dup3\n        /* \"#utility.yul\":24337:24353   */\n      shl\n        /* \"#utility.yul\":24316:24353   */\n      swap1\n      pop\n        /* \"#utility.yul\":24253:24360   */\n      swap3\n      swap2\n      pop\n      pop\n      jump\t// out\n        /* \"#utility.yul\":24366:24759   */\n    tag_391:\n        /* \"#utility.yul\":24435:24441   */\n      0x00\n        /* \"#utility.yul\":24485:24486   */\n      0x08\n        /* \"#utility.yul\":24473:24483   */\n      dup4\n        /* \"#utility.yul\":24469:24487   */\n      mul\n        /* \"#utility.yul\":24508:24605   */\n      tag_622\n        /* \"#utility.yul\":24538:24604   */\n      0xffffffffffffffffffffffffffffffffffffffffffffffffffffffffffffffff\n        /* \"#utility.yul\":24527:24536   */\n      dup3\n        /* \"#utility.yul\":24508:24605   */\n      tag_390\n      jump\t// in\n    tag_622:\n        /* \"#utility.yul\":24626:24665   */\n      tag_623\n        /* \"#utility.yul\":24656:24664   */\n      dup7\n        /* \"#utility.yul\":24645:24654   */\n      dup4\n        /* \"#utility.yul\":24626:24665   */\n      tag_390\n      jump\t// in\n    tag_623:\n        /* \"#utility.yul\":24614:24665   */\n      swap6\n      pop\n        /* \"#utility.yul\":24698:24702   */\n      dup1\n        /* \"#utility.yul\":24694:24703   */\n      not\n        /* \"#utility.yul\":24687:24692   */\n      dup5\n        /* \"#utility.yul\":24683:24704   */\n      and\n        /* \"#utility.yul\":24674:24704   */\n      swap4\n      pop\n        /* \"#utility.yul\":24747:24751   */\n      dup1\n        /* \"#utility.yul\":24737:24745   */\n      dup7\n        /* \"#utility.yul\":24733:24752   */\n      and\n        /* \"#utility.yul\":24726:24731   */\n      dup5\n        /* \"#utility.yul\":24723:24753   */\n      or\n        /* \"#utility.yul\":24713:24753   */\n      swap3\n      pop\n        /* \"#utility.yul\":24442:24759   */\n      pop\n      pop\n        /* \"#utility.yul\":24366:24759   */\n      swap4\n      swap3\n      pop\n      pop\n      pop\n      jump\t// out\n        /* \"#utility.yul\":24765:24825   */\n    tag_392:\n        /* \"#utility.yul\":24793:24796   */\n      0x00\n        /* \"#utility.yul\":24814:24819   */\n      dup2\n        /* \"#utility.yul\":24807:24819   */\n      swap1\n      pop\n        /* \"#utility.yul\":24765:24825   */\n      swap2\n      swap1\n      pop\n      jump\t// out\n        /* \"#utility.yul\":24831:24973   */\n    tag_393:\n        /* \"#utility.yul\":24881:24890   */\n      0x00\n        /* \"#utility.yul\":24914:24967   */\n      tag_626\n        /* \"#utility.yul\":24932:24966   */\n      tag_627\n        /* \"#utility.yul\":24941:24965   */\n      tag_628\n        /* \"#utility.yul\":24959:24964   */\n      dup5\n        /* \"#utility.yul\":24941:24965   */\n      tag_335\n      jump\t// in\n    tag_628:\n        /* \"#utility.yul\":24932:24966   */\n      tag_392\n      jump\t// in\n    tag_627:\n        /* \"#utility.yul\":24914:24967   */\n      tag_335\n      jump\t// in\n    tag_626:\n        /* \"#utility.yul\":24901:24967   */\n      swap1\n      pop\n        /* \"#utility.yul\":24831:24973   */\n      swap2\n      swap1\n      pop\n      jump\t// out\n        /* \"#utility.yul\":24979:25054   */\n    tag_394:\n        /* \"#utility.yul\":25022:25025   */\n      0x00\n        /* \"#utility.yul\":25043:25048   */\n      dup2\n        /* \"#utility.yul\":25036:25048   */\n      swap1\n      pop\n        /* \"#utility.yul\":24979:25054   */\n      swap2\n      swap1\n      pop\n      jump\t// out\n        /* \"#utility.yul\":25060:25329   */\n    tag_395:\n        /* \"#utility.yul\":25170:25209   */\n      tag_631\n        /* \"#utility.yul\":25201:25208   */\n      dup4\n        /* \"#utility.yul\":25170:25209   */\n      tag_393\n      jump\t// in\n    tag_631:\n        /* \"#utility.yul\":25231:25322   */\n      tag_632\n        /* \"#utility.yul\":25280:25321   */\n      tag_633\n        /* \"#utility.yul\":25304:25320   */\n      dup3\n        /* \"#utility.yul\":25280:25321   */\n      tag_394\n      jump\t// in\n    tag_633:\n        /* \"#utility.yul\":25272:25278   */\n      dup5\n        /* \"#utility.yul\":25265:25269   */\n      dup5\n        /* \"#utility.yul\":25259:25270   */\n      sload\n        /* \"#utility.yul\":25231:25322   */\n      tag_391\n      jump\t// in\n    tag_632:\n        /* \"#utility.yul\":25225:25229   */\n      dup3\n        /* \"#utility.yul\":25218:25323   */\n      sstore\n        /* \"#utility.yul\":25136:25329   */\n      pop\n        /* \"#utility.yul\":25060:25329   */\n      pop\n      pop\n      pop\n      jump\t// out\n        /* \"#utility.yul\":25335:25408   */\n    tag_396:\n        /* \"#utility.yul\":25380:25383   */\n      0x00\n        /* \"#utility.yul\":25401:25402   */\n      0x00\n        /* \"#utility.yul\":25394:25402   */\n      swap1\n      pop\n        /* \"#utility.yul\":25335:25408   */\n      swap1\n      jump\t// out\n        /* \"#utility.yul\":25414:25603   */\n    tag_397:\n        /* \"#utility.yul\":25491:25523   */\n      tag_636\n      tag_396\n      jump\t// in\n    tag_636:\n        /* \"#utility.yul\":25532:25597   */\n      tag_637\n        /* \"#utility.yul\":25590:25596   */\n      dup2\n        /* \"#utility.yul\":25582:25588   */\n      dup5\n        /* \"#utility.yul\":25576:25580   */\n      dup5\n        /* \"#utility.yul\":25532:25597   */\n      tag_395\n      jump\t// in\n    tag_637:\n        /* \"#utility.yul\":25467:25603   */\n      pop\n        /* \"#utility.yul\":25414:25603   */\n      pop\n      pop\n      jump\t// out\n        /* \"#utility.yul\":25609:25795   */\n    tag_398:\n        /* \"#utility.yul\":25669:25789   */\n    tag_639:\n        /* \"#utility.yul\":25686:25689   */\n      dup2\n        /* \"#utility.yul\":25679:25684   */\n      dup2\n        /* \"#utility.yul\":25676:25690   */\n      lt\n        /* \"#utility.yul\":25669:25789   */\n      iszero\n      tag_641\n      jumpi\n        /* \"#utility.yul\":25740:25779   */\n      tag_642\n        /* \"#utility.yul\":25777:25778   */\n      0x00\n        /* \"#utility.yul\":25770:25775   */\n      dup3\n        /* \"#utility.yul\":25740:25779   */\n      tag_397\n      jump\t// in\n    tag_642:\n        /* \"#utility.yul\":25713:25714   */\n      0x01\n        /* \"#utility.yul\":25706:25711   */\n      dup2\n        /* \"#utility.yul\":25702:25715   */\n      add\n        /* \"#utility.yul\":25693:25715   */\n      swap1\n      pop\n        /* \"#utility.yul\":25669:25789   */\n      jump(tag_639)\n    tag_641:\n        /* \"#utility.yul\":25609:25795   */\n      pop\n      pop\n      jump\t// out\n        /* \"#utility.yul\":25801:26344   */\n    tag_399:\n        /* \"#utility.yul\":25902:25904   */\n      0x1f\n        /* \"#utility.yul\":25897:25900   */\n      dup3\n        /* \"#utility.yul\":25894:25905   */\n      gt\n        /* \"#utility.yul\":25891:26337   */\n      iszero\n      tag_644\n      jumpi\n        /* \"#utility.yul\":25936:25974   */\n      tag_645\n        /* \"#utility.yul\":25968:25973   */\n      dup2\n        /* \"#utility.yul\":25936:25974   */\n      tag_388\n      jump\t// in\n    tag_645:\n        /* \"#utility.yul\":26020:26049   */\n      tag_646\n        /* \"#utility.yul\":26038:26048   */\n      dup5\n        /* \"#utility.yul\":26020:26049   */\n      tag_389\n      jump\t// in\n    tag_646:\n        /* \"#utility.yul\":26010:26018   */\n      dup2\n        /* \"#utility.yul\":26006:26050   */\n      add\n        /* \"#utility.yul\":26203:26205   */\n      0x20\n        /* \"#utility.yul\":26191:26201   */\n      dup6\n        /* \"#utility.yul\":26188:26206   */\n      lt\n        /* \"#utility.yul\":26185:26234   */\n      iszero\n      tag_647\n      jumpi\n        /* \"#utility.yul\":26224:26232   */\n      dup2\n        /* \"#utility.yul\":26209:26232   */\n      swap1\n      pop\n        /* \"#utility.yul\":26185:26234   */\n    tag_647:\n        /* \"#utility.yul\":26247:26327   */\n      tag_648\n        /* \"#utility.yul\":26303:26325   */\n      tag_649\n        /* \"#utility.yul\":26321:26324   */\n      dup6\n        /* \"#utility.yul\":26303:26325   */\n      tag_389\n      jump\t// in\n    tag_649:\n        /* \"#utility.yul\":26293:26301   */\n      dup4\n        /* \"#utility.yul\":26289:26326   */\n      add\n        /* \"#utility.yul\":26276:26287   */\n      dup3\n        /* \"#utility.yul\":26247:26327   */\n      tag_398\n      jump\t// in\n    tag_648:\n        /* \"#utility.yul\":25906:26337   */\n      pop\n      pop\n        /* \"#utility.yul\":25891:26337   */\n    tag_644:\n        /* \"#utility.yul\":25801:26344   */\n      pop\n      pop\n      pop\n      jump\t// out\n        /* \"#utility.yul\":26350:26467   */\n    tag_400:\n        /* \"#utility.yul\":26404:26412   */\n      0x00\n        /* \"#utility.yul\":26454:26459   */\n      dup3\n        /* \"#utility.yul\":26448:26452   */\n      dup3\n        /* \"#utility.yul\":26444:26460   */\n      shr\n        /* \"#utility.yul\":26423:26460   */\n      swap1\n      pop\n        /* \"#utility.yul\":26350:26467   */\n      swap3\n      swap2\n      pop\n      pop\n      jump\t// out\n        /* \"#utility.yul\":26473:26642   */\n    tag_401:\n        /* \"#utility.yul\":26517:26523   */\n      0x00\n        /* \"#utility.yul\":26550:26601   */\n      tag_652\n        /* \"#utility.yul\":26598:26599   */\n      0x00\n        /* \"#utility.yul\":26594:26600   */\n      not\n        /* \"#utility.yul\":26586:26591   */\n      dup5\n        /* \"#utility.yul\":26583:26584   */\n      0x08\n        /* \"#utility.yul\":26579:26592   */\n      mul\n        /* \"#utility.yul\":26550:26601   */\n      tag_400\n      jump\t// in\n    tag_652:\n        /* \"#utility.yul\":26546:26602   */\n      not\n        /* \"#utility.yul\":26631:26635   */\n      dup1\n        /* \"#utility.yul\":26625:26629   */\n      dup4\n        /* \"#utility.yul\":26621:26636   */\n      and\n        /* \"#utility.yul\":26611:26636   */\n      swap2\n      pop\n        /* \"#utility.yul\":26524:26642   */\n      pop\n        /* \"#utility.yul\":26473:26642   */\n      swap3\n      swap2\n      pop\n      pop\n      jump\t// out\n        /* \"#utility.yul\":26647:26942   */\n    tag_402:\n        /* \"#utility.yul\":26723:26727   */\n      0x00\n        /* \"#utility.yul\":26869:26898   */\n      tag_654\n        /* \"#utility.yul\":26894:26897   */\n      dup4\n        /* \"#utility.yul\":26888:26892   */\n      dup4\n        /* \"#utility.yul\":26869:26898   */\n      tag_401\n      jump\t// in\n    tag_654:\n        /* \"#utility.yul\":26861:26898   */\n      swap2\n      pop\n        /* \"#utility.yul\":26931:26934   */\n      dup3\n        /* \"#utility.yul\":26928:26929   */\n      0x02\n        /* \"#utility.yul\":26924:26935   */\n      mul\n        /* \"#utility.yul\":26918:26922   */\n      dup3\n        /* \"#utility.yul\":26915:26936   */\n      or\n        /* \"#utility.yul\":26907:26936   */\n      swap1\n      pop\n        /* \"#utility.yul\":26647:26942   */\n      swap3\n      swap2\n      pop\n      pop\n      jump\t// out\n        /* \"#utility.yul\":26947:28350   */\n    tag_98:\n        /* \"#utility.yul\":27071:27115   */\n      tag_656\n        /* \"#utility.yul\":27111:27114   */\n      dup4\n        /* \"#utility.yul\":27106:27109   */\n      dup4\n        /* \"#utility.yul\":27071:27115   */\n      tag_385\n      jump\t// in\n    tag_656:\n        /* \"#utility.yul\":27180:27198   */\n      0xffffffffffffffff\n        /* \"#utility.yul\":27172:27178   */\n      dup2\n        /* \"#utility.yul\":27169:27199   */\n      gt\n        /* \"#utility.yul\":27166:27222   */\n      iszero\n      tag_657\n      jumpi\n        /* \"#utility.yul\":27202:27220   */\n      tag_658\n      tag_386\n      jump\t// in\n    tag_658:\n        /* \"#utility.yul\":27166:27222   */\n    tag_657:\n        /* \"#utility.yul\":27246:27284   */\n      tag_659\n        /* \"#utility.yul\":27278:27282   */\n      dup3\n        /* \"#utility.yul\":27272:27283   */\n      sload\n        /* \"#utility.yul\":27246:27284   */\n      tag_108\n      jump\t// in\n    tag_659:\n        /* \"#utility.yul\":27331:27398   */\n      tag_660\n        /* \"#utility.yul\":27391:27397   */\n      dup3\n        /* \"#utility.yul\":27383:27389   */\n      dup3\n        /* \"#utility.yul\":27377:27381   */\n      dup6\n        /* \"#utility.yul\":27331:27398   */\n      tag_399\n      jump\t// in\n    tag_660:\n        /* \"#utility.yul\":27425:27426   */\n      0x00\n        /* \"#utility.yul\":27454:27456   */\n      0x1f\n        /* \"#utility.yul\":27446:27452   */\n      dup4\n        /* \"#utility.yul\":27443:27457   */\n      gt\n        /* \"#utility.yul\":27471:27472   */\n      0x01\n        /* \"#utility.yul\":27466:28098   */\n      dup2\n      eq\n      tag_662\n      jumpi\n        /* \"#utility.yul\":28142:28143   */\n      0x00\n        /* \"#utility.yul\":28159:28165   */\n      dup5\n        /* \"#utility.yul\":28156:28240   */\n      iszero\n      tag_663\n      jumpi\n        /* \"#utility.yul\":28215:28224   */\n      dup3\n        /* \"#utility.yul\":28210:28213   */\n      dup8\n        /* \"#utility.yul\":28206:28225   */\n      add\n        /* \"#utility.yul\":28193:28226   */\n      calldataload\n        /* \"#utility.yul\":28184:28226   */\n      swap1\n      pop\n        /* \"#utility.yul\":28156:28240   */\n    tag_663:\n        /* \"#utility.yul\":28266:28333   */\n      tag_664\n        /* \"#utility.yul\":28326:28332   */\n      dup6\n        /* \"#utility.yul\":28319:28324   */\n      dup3\n        /* \"#utility.yul\":28266:28333   */\n      tag_402\n      jump\t// in\n    tag_664:\n        /* \"#utility.yul\":28260:28264   */\n      dup7\n        /* \"#utility.yul\":28253:28334   */\n      sstore\n        /* \"#utility.yul\":28115:28344   */\n      pop\n        /* \"#utility.yul\":27436:28344   */\n      jump(tag_661)\n        /* \"#utility.yul\":27466:28098   */\n    tag_662:\n        /* \"#utility.yul\":27518:27522   */\n      0x1f\n        /* \"#utility.yul\":27514:27523   */\n      not\n        /* \"#utility.yul\":27506:27512   */\n      dup5\n        /* \"#utility.yul\":27502:27524   */\n      and\n        /* \"#utility.yul\":27552:27589   */\n      tag_665\n        /* \"#utility.yul\":27584:27588   */\n      dup7\n        /* \"#utility.yul\":27552:27589   */\n      tag_388\n      jump\t// in\n    tag_665:\n        /* \"#utility.yul\":27611:27612   */\n      0x00\n        /* \"#utility.yul\":27625:27840   */\n    tag_666:\n        /* \"#utility.yul\":27639:27646   */\n      dup3\n        /* \"#utility.yul\":27636:27637   */\n      dup2\n        /* \"#utility.yul\":27633:27647   */\n      lt\n        /* \"#utility.yul\":27625:27840   */\n      iszero\n      tag_668\n      jumpi\n        /* \"#utility.yul\":27725:27734   */\n      dup5\n        /* \"#utility.yul\":27720:27723   */\n      dup10\n        /* \"#utility.yul\":27716:27735   */\n      add\n        /* \"#utility.yul\":27703:27736   */\n      calldataload\n        /* \"#utility.yul\":27695:27701   */\n      dup3\n        /* \"#utility.yul\":27688:27737   */\n      sstore\n        /* \"#utility.yul\":27776:27777   */\n      0x01\n        /* \"#utility.yul\":27768:27774   */\n      dup3\n        /* \"#utility.yul\":27764:27778   */\n      add\n        /* \"#utility.yul\":27754:27778   */\n      swap2\n      pop\n        /* \"#utility.yul\":27823:27825   */\n      0x20\n        /* \"#utility.yul\":27812:27821   */\n      dup6\n        /* \"#utility.yul\":27808:27826   */\n      add\n        /* \"#utility.yul\":27795:27826   */\n      swap5\n      pop\n        /* \"#utility.yul\":27662:27666   */\n      0x20\n        /* \"#utility.yul\":27659:27660   */\n      dup2\n        /* \"#utility.yul\":27655:27667   */\n      add\n        /* \"#utility.yul\":27650:27667   */\n      swap1\n      pop\n        /* \"#utility.yul\":27625:27840   */\n      jump(tag_666)\n    tag_668:\n        /* \"#utility.yul\":27868:27874   */\n      dup7\n        /* \"#utility.yul\":27859:27866   */\n      dup4\n        /* \"#utility.yul\":27856:27875   */\n      lt\n        /* \"#utility.yul\":27853:28039   */\n      iszero\n      tag_669\n      jumpi\n        /* \"#utility.yul\":27933:27942   */\n      dup5\n        /* \"#utility.yul\":27928:27931   */\n      dup10\n        /* \"#utility.yul\":27924:27943   */\n      add\n        /* \"#utility.yul\":27911:27944   */\n      calldataload\n        /* \"#utility.yul\":27976:28024   */\n      tag_670\n        /* \"#utility.yul\":28018:28022   */\n      0x1f\n        /* \"#utility.yul\":28010:28016   */\n      dup10\n        /* \"#utility.yul\":28006:28023   */\n      and\n        /* \"#utility.yul\":27995:28004   */\n      dup3\n        /* \"#utility.yul\":27976:28024   */\n      tag_401\n      jump\t// in\n    tag_670:\n        /* \"#utility.yul\":27968:27974   */\n      dup4\n        /* \"#utility.yul\":27961:28025   */\n      sstore\n        /* \"#utility.yul\":27876:28039   */\n      pop\n        /* \"#utility.yul\":27853:28039   */\n    tag_669:\n        /* \"#utility.yul\":28085:28086   */\n      0x01\n        /* \"#utility.yul\":28081:28082   */\n      0x02\n        /* \"#utility.yul\":28073:28079   */\n      dup9\n        /* \"#utility.yul\":28069:28083   */\n      mul\n        /* \"#utility.yul\":28065:28087   */\n      add\n        /* \"#utility.yul\":28059:28063   */\n      dup9\n        /* \"#utility.yul\":28052:28088   */\n      sstore\n        /* \"#utility.yul\":27473:28098   */\n      pop\n      pop\n      pop\n        /* \"#utility.yul\":27436:28344   */\n    tag_661:\n      pop\n        /* \"#utility.yul\":27046:28350   */\n      pop\n      pop\n      pop\n        /* \"#utility.yul\":26947:28350   */\n      pop\n      pop\n      pop\n      jump\t// out\n        /* \"#utility.yul\":28356:28578   */\n    tag_106:\n        /* \"#utility.yul\":28449:28453   */\n      0x00\n        /* \"#utility.yul\":28487:28489   */\n      0x20\n        /* \"#utility.yul\":28476:28485   */\n      dup3\n        /* \"#utility.yul\":28472:28490   */\n      add\n        /* \"#utility.yul\":28464:28490   */\n      swap1\n      pop\n        /* \"#utility.yul\":28500:28571   */\n      tag_672\n        /* \"#utility.yul\":28568:28569   */\n      0x00\n        /* \"#utility.yul\":28557:28566   */\n      dup4\n        /* \"#utility.yul\":28553:28570   */\n      add\n        /* \"#utility.yul\":28544:28550   */\n      dup5\n        /* \"#utility.yul\":28500:28571   */\n      tag_342\n      jump\t// in\n    tag_672:\n        /* \"#utility.yul\":28356:28578   */\n      swap3\n      swap2\n      pop\n      pop\n      jump\t// out\n        /* \"#utility.yul\":28584:29979   */\n    tag_232:\n        /* \"#utility.yul\":28701:28738   */\n      tag_674\n        /* \"#utility.yul\":28734:28737   */\n      dup3\n        /* \"#utility.yul\":28701:28738   */\n      tag_343\n      jump\t// in\n    tag_674:\n        /* \"#utility.yul\":28803:28821   */\n      0xffffffffffffffff\n        /* \"#utility.yul\":28795:28801   */\n      dup2\n        /* \"#utility.yul\":28792:28822   */\n      gt\n        /* \"#utility.yul\":28789:28845   */\n      iszero\n      tag_675\n      jumpi\n        /* \"#utility.yul\":28825:28843   */\n      tag_676\n      tag_386\n      jump\t// in\n    tag_676:\n        /* \"#utility.yul\":28789:28845   */\n    tag_675:\n        /* \"#utility.yul\":28869:28907   */\n      tag_677\n        /* \"#utility.yul\":28901:28905   */\n      dup3\n        /* \"#utility.yul\":28895:28906   */\n      sload\n        /* \"#utility.yul\":28869:28907   */\n      tag_108\n      jump\t// in\n    tag_677:\n        /* \"#utility.yul\":28954:29021   */\n      tag_678\n        /* \"#utility.yul\":29014:29020   */\n      dup3\n        /* \"#utility.yul\":29006:29012   */\n      dup3\n        /* \"#utility.yul\":29000:29004   */\n      dup6\n        /* \"#utility.yul\":28954:29021   */\n      tag_399\n      jump\t// in\n    tag_678:\n        /* \"#utility.yul\":29048:29049   */\n      0x00\n        /* \"#utility.yul\":29072:29076   */\n      0x20\n        /* \"#utility.yul\":29059:29076   */\n      swap1\n      pop\n        /* \"#utility.yul\":29104:29106   */\n      0x1f\n        /* \"#utility.yul\":29096:29102   */\n      dup4\n        /* \"#utility.yul\":29093:29107   */\n      gt\n        /* \"#utility.yul\":29121:29122   */\n      0x01\n        /* \"#utility.yul\":29116:29734   */\n      dup2\n      eq\n      tag_680\n      jumpi\n        /* \"#utility.yul\":29778:29779   */\n      0x00\n        /* \"#utility.yul\":29795:29801   */\n      dup5\n        /* \"#utility.yul\":29792:29869   */\n      iszero\n      tag_681\n      jumpi\n        /* \"#utility.yul\":29844:29853   */\n      dup3\n        /* \"#utility.yul\":29839:29842   */\n      dup8\n        /* \"#utility.yul\":29835:29854   */\n      add\n        /* \"#utility.yul\":29829:29855   */\n      mload\n        /* \"#utility.yul\":29820:29855   */\n      swap1\n      pop\n        /* \"#utility.yul\":29792:29869   */\n    tag_681:\n        /* \"#utility.yul\":29895:29962   */\n      tag_682\n        /* \"#utility.yul\":29955:29961   */\n      dup6\n        /* \"#utility.yul\":29948:29953   */\n      dup3\n        /* \"#utility.yul\":29895:29962   */\n      tag_402\n      jump\t// in\n    tag_682:\n        /* \"#utility.yul\":29889:29893   */\n      dup7\n        /* \"#utility.yul\":29882:29963   */\n      sstore\n        /* \"#utility.yul\":29751:29973   */\n      pop\n        /* \"#utility.yul\":29086:29973   */\n      jump(tag_679)\n        /* \"#utility.yul\":29116:29734   */\n    tag_680:\n        /* \"#utility.yul\":29168:29172   */\n      0x1f\n        /* \"#utility.yul\":29164:29173   */\n      not\n        /* \"#utility.yul\":29156:29162   */\n      dup5\n        /* \"#utility.yul\":29152:29174   */\n      and\n        /* \"#utility.yul\":29202:29239   */\n      tag_683\n        /* \"#utility.yul\":29234:29238   */\n      dup7\n        /* \"#utility.yul\":29202:29239   */\n      tag_388\n      jump\t// in\n    tag_683:\n        /* \"#utility.yul\":29261:29262   */\n      0x00\n        /* \"#utility.yul\":29275:29483   */\n    tag_684:\n        /* \"#utility.yul\":29289:29296   */\n      dup3\n        /* \"#utility.yul\":29286:29287   */\n      dup2\n        /* \"#utility.yul\":29283:29297   */\n      lt\n        /* \"#utility.yul\":29275:29483   */\n      iszero\n      tag_686\n      jumpi\n        /* \"#utility.yul\":29368:29377   */\n      dup5\n        /* \"#utility.yul\":29363:29366   */\n      dup10\n        /* \"#utility.yul\":29359:29378   */\n      add\n        /* \"#utility.yul\":29353:29379   */\n      mload\n        /* \"#utility.yul\":29345:29351   */\n      dup3\n        /* \"#utility.yul\":29338:29380   */\n      sstore\n        /* \"#utility.yul\":29419:29420   */\n      0x01\n        /* \"#utility.yul\":29411:29417   */\n      dup3\n        /* \"#utility.yul\":29407:29421   */\n      add\n        /* \"#utility.yul\":29397:29421   */\n      swap2\n      pop\n        /* \"#utility.yul\":29466:29468   */\n      0x20\n        /* \"#utility.yul\":29455:29464   */\n      dup6\n        /* \"#utility.yul\":29451:29469   */\n      add\n        /* \"#utility.yul\":29438:29469   */\n      swap5\n      pop\n        /* \"#utility.yul\":29312:29316   */\n      0x20\n        /* \"#utility.yul\":29309:29310   */\n      dup2\n        /* \"#utility.yul\":29305:29317   */\n      add\n        /* \"#utility.yul\":29300:29317   */\n      swap1\n      pop\n        /* \"#utility.yul\":29275:29483   */\n      jump(tag_684)\n    tag_686:\n        /* \"#utility.yul\":29511:29517   */\n      dup7\n        /* \"#utility.yul\":29502:29509   */\n      dup4\n        /* \"#utility.yul\":29499:29518   */\n      lt\n        /* \"#utility.yul\":29496:29675   */\n      iszero\n      tag_687\n      jumpi\n        /* \"#utility.yul\":29569:29578   */\n      dup5\n        /* \"#utility.yul\":29564:29567   */\n      dup10\n        /* \"#utility.yul\":29560:29579   */\n      add\n        /* \"#utility.yul\":29554:29580   */\n      mload\n        /* \"#utility.yul\":29612:29660   */\n      tag_688\n        /* \"#utility.yul\":29654:29658   */\n      0x1f\n        /* \"#utility.yul\":29646:29652   */\n      dup10\n        /* \"#utility.yul\":29642:29659   */\n      and\n        /* \"#utility.yul\":29631:29640   */\n      dup3\n        /* \"#utility.yul\":29612:29660   */\n      tag_401\n      jump\t// in\n    tag_688:\n        /* \"#utility.yul\":29604:29610   */\n      dup4\n        /* \"#utility.yul\":29597:29661   */\n      sstore\n        /* \"#utility.yul\":29519:29675   */\n      pop\n        /* \"#utility.yul\":29496:29675   */\n    tag_687:\n        /* \"#utility.yul\":29721:29722   */\n      0x01\n        /* \"#utility.yul\":29717:29718   */\n      0x02\n        /* \"#utility.yul\":29709:29715   */\n      dup9\n        /* \"#utility.yul\":29705:29719   */\n      mul\n        /* \"#utility.yul\":29701:29723   */\n      add\n        /* \"#utility.yul\":29695:29699   */\n      dup9\n        /* \"#utility.yul\":29688:29724   */\n      sstore\n        /* \"#utility.yul\":29123:29734   */\n      pop\n      pop\n      pop\n        /* \"#utility.yul\":29086:29973   */\n    tag_679:\n      pop\n        /* \"#utility.yul\":28676:29979   */\n      pop\n      pop\n      pop\n        /* \"#utility.yul\":28584:29979   */\n      pop\n      pop\n      jump\t// out\n        /* \"#utility.yul\":29985:30134   */\n    tag_403:\n        /* \"#utility.yul\":30034:30040   */\n      0x00\n        /* \"#utility.yul\":30068:30073   */\n      dup2\n        /* \"#utility.yul\":30062:30074   */\n      sload\n        /* \"#utility.yul\":30052:30074   */\n      swap1\n      pop\n        /* \"#utility.yul\":30094:30127   */\n      tag_690\n        /* \"#utility.yul\":30120:30126   */\n      dup2\n        /* \"#utility.yul\":30094:30127   */\n      tag_108\n      jump\t// in\n    tag_690:\n        /* \"#utility.yul\":30084:30127   */\n      swap1\n      pop\n        /* \"#utility.yul\":29985:30134   */\n      swap2\n      swap1\n      pop\n      jump\t// out\n        /* \"#utility.yul\":30140:31591   */\n    tag_263:\n        /* \"#utility.yul\":30251:30254   */\n      dup2\n        /* \"#utility.yul\":30245:30249   */\n      dup2\n        /* \"#utility.yul\":30242:30255   */\n      sub\n        /* \"#utility.yul\":30239:30265   */\n      tag_692\n      jumpi\n        /* \"#utility.yul\":30258:30263   */\n      pop\n      pop\n      jump(tag_691)\n        /* \"#utility.yul\":30239:30265   */\n    tag_692:\n        /* \"#utility.yul\":30289:30323   */\n      tag_693\n        /* \"#utility.yul\":30319:30322   */\n      dup3\n        /* \"#utility.yul\":30289:30323   */\n      tag_403\n      jump\t// in\n    tag_693:\n        /* \"#utility.yul\":30388:30406   */\n      0xffffffffffffffff\n        /* \"#utility.yul\":30380:30386   */\n      dup2\n        /* \"#utility.yul\":30377:30407   */\n      gt\n        /* \"#utility.yul\":30374:30430   */\n      iszero\n      tag_694\n      jumpi\n        /* \"#utility.yul\":30410:30428   */\n      tag_695\n      tag_386\n      jump\t// in\n    tag_695:\n        /* \"#utility.yul\":30374:30430   */\n    tag_694:\n        /* \"#utility.yul\":30454:30492   */\n      tag_696\n        /* \"#utility.yul\":30486:30490   */\n      dup3\n        /* \"#utility.yul\":30480:30491   */\n      sload\n        /* \"#utility.yul\":30454:30492   */\n      tag_108\n      jump\t// in\n    tag_696:\n        /* \"#utility.yul\":30539:30606   */\n      tag_697\n        /* \"#utility.yul\":30599:30605   */\n      dup3\n        /* \"#utility.yul\":30591:30597   */\n      dup3\n        /* \"#utility.yul\":30585:30589   */\n      dup6\n        /* \"#utility.yul\":30539:30606   */\n      tag_399\n      jump\t// in\n    tag_697:\n        /* \"#utility.yul\":30633:30634   */\n      0x00\n        /* \"#utility.yul\":30662:30664   */\n      0x1f\n        /* \"#utility.yul\":30654:30660   */\n      dup4\n        /* \"#utility.yul\":30651:30665   */\n      gt\n        /* \"#utility.yul\":30679:30680   */\n      0x01\n        /* \"#utility.yul\":30674:31346   */\n      dup2\n      eq\n      tag_699\n      jumpi\n        /* \"#utility.yul\":31390:31391   */\n      0x00\n        /* \"#utility.yul\":31407:31413   */\n      dup5\n        /* \"#utility.yul\":31404:31481   */\n      iszero\n      tag_700\n      jumpi\n        /* \"#utility.yul\":31456:31465   */\n      dup3\n        /* \"#utility.yul\":31451:31454   */\n      dup8\n        /* \"#utility.yul\":31447:31466   */\n      add\n        /* \"#utility.yul\":31441:31467   */\n      sload\n        /* \"#utility.yul\":31432:31467   */\n      swap1\n      pop\n        /* \"#utility.yul\":31404:31481   */\n    tag_700:\n        /* \"#utility.yul\":31507:31574   */\n      tag_701\n        /* \"#utility.yul\":31567:31573   */\n      dup6\n        /* \"#utility.yul\":31560:31565   */\n      dup3\n        /* \"#utility.yul\":31507:31574   */\n      tag_402\n      jump\t// in\n    tag_701:\n        /* \"#utility.yul\":31501:31505   */\n      dup7\n        /* \"#utility.yul\":31494:31575   */\n      sstore\n        /* \"#utility.yul\":31363:31585   */\n      pop\n        /* \"#utility.yul\":30644:31585   */\n      jump(tag_698)\n        /* \"#utility.yul\":30674:31346   */\n    tag_699:\n        /* \"#utility.yul\":30726:30730   */\n      0x1f\n        /* \"#utility.yul\":30722:30731   */\n      not\n        /* \"#utility.yul\":30714:30720   */\n      dup5\n        /* \"#utility.yul\":30710:30732   */\n      and\n        /* \"#utility.yul\":30752:30788   */\n      tag_702\n        /* \"#utility.yul\":30784:30787   */\n      dup8\n        /* \"#utility.yul\":30752:30788   */\n      tag_388\n      jump\t// in\n    tag_702:\n        /* \"#utility.yul\":30745:30788   */\n      swap7\n      pop\n        /* \"#utility.yul\":30815:30852   */\n      tag_703\n        /* \"#utility.yul\":30847:30851   */\n      dup7\n        /* \"#utility.yul\":30815:30852   */\n      tag_388\n      jump\t// in\n    tag_703:\n        /* \"#utility.yul\":30874:30875   */\n      0x00\n        /* \"#utility.yul\":30888:31095   */\n    tag_704:\n        /* \"#utility.yul\":30902:30909   */\n      dup3\n        /* \"#utility.yul\":30899:30900   */\n      dup2\n        /* \"#utility.yul\":30896:30910   */\n      lt\n        /* \"#utility.yul\":30888:31095   */\n      iszero\n      tag_706\n      jumpi\n        /* \"#utility.yul\":30981:30990   */\n      dup5\n        /* \"#utility.yul\":30976:30979   */\n      dup10\n        /* \"#utility.yul\":30972:30991   */\n      add\n        /* \"#utility.yul\":30966:30992   */\n      sload\n        /* \"#utility.yul\":30958:30964   */\n      dup3\n        /* \"#utility.yul\":30951:30993   */\n      sstore\n        /* \"#utility.yul\":31032:31033   */\n      0x01\n        /* \"#utility.yul\":31024:31030   */\n      dup3\n        /* \"#utility.yul\":31020:31034   */\n      add\n        /* \"#utility.yul\":31010:31034   */\n      swap2\n      pop\n        /* \"#utility.yul\":31079:31080   */\n      0x01\n        /* \"#utility.yul\":31068:31077   */\n      dup6\n        /* \"#utility.yul\":31064:31081   */\n      add\n        /* \"#utility.yul\":31051:31081   */\n      swap5\n      pop\n        /* \"#utility.yul\":30925:30929   */\n      0x20\n        /* \"#utility.yul\":30922:30923   */\n      dup2\n        /* \"#utility.yul\":30918:30930   */\n      add\n        /* \"#utility.yul\":30913:30930   */\n      swap1\n      pop\n        /* \"#utility.yul\":30888:31095   */\n      jump(tag_704)\n    tag_706:\n        /* \"#utility.yul\":31123:31129   */\n      dup7\n        /* \"#utility.yul\":31114:31121   */\n      dup4\n        /* \"#utility.yul\":31111:31130   */\n      lt\n        /* \"#utility.yul\":31108:31287   */\n      iszero\n      tag_707\n      jumpi\n        /* \"#utility.yul\":31181:31190   */\n      dup5\n        /* \"#utility.yul\":31176:31179   */\n      dup10\n        /* \"#utility.yul\":31172:31191   */\n      add\n        /* \"#utility.yul\":31166:31192   */\n      sload\n        /* \"#utility.yul\":31224:31272   */\n      tag_708\n        /* \"#utility.yul\":31266:31270   */\n      0x1f\n        /* \"#utility.yul\":31258:31264   */\n      dup10\n        /* \"#utility.yul\":31254:31271   */\n      and\n        /* \"#utility.yul\":31243:31252   */\n      dup3\n        /* \"#utility.yul\":31224:31272   */\n      tag_401\n      jump\t// in\n    tag_708:\n        /* \"#utility.yul\":31216:31222   */\n      dup4\n        /* \"#utility.yul\":31209:31273   */\n      sstore\n        /* \"#utility.yul\":31131:31287   */\n      pop\n        /* \"#utility.yul\":31108:31287   */\n    tag_707:\n        /* \"#utility.yul\":31333:31334   */\n      0x01\n        /* \"#utility.yul\":31329:31330   */\n      0x02\n        /* \"#utility.yul\":31321:31327   */\n      dup9\n        /* \"#utility.yul\":31317:31331   */\n      mul\n        /* \"#utility.yul\":31313:31335   */\n      add\n        /* \"#utility.yul\":31307:31311   */\n      dup9\n        /* \"#utility.yul\":31300:31336   */\n      sstore\n        /* \"#utility.yul\":30681:31346   */\n      pop\n      pop\n      pop\n        /* \"#utility.yul\":30644:31585   */\n    tag_698:\n      pop\n        /* \"#utility.yul\":30229:31591   */\n      pop\n      pop\n      pop\n        /* \"#utility.yul\":30140:31591   */\n      pop\n      pop\n    tag_691:\n      jump\t// out\n    stop\n    data_05dea7a4b749a72103fdaacfd8c830026d599fd95b58e235d7a5b87bda223903 5468652063616c6c657220646f6573206e6f74206861766520612063726561746f722070726f66696c65\n    data_9755ada8cad867ffa51d229fac4adc70eea3cdc0842b0add29f0fba8b4558158 5468652063616c6c657220646f6573206e6f74206861766520616e206170706c6963616e742070726f66696c65\n    data_a3605fa09f1c5c7279bc358c171f0da9ae269353595c63c3961d947ae51550d5 546865206a6f62206f66666572206973206e6f206c6f6e67657220616363657074696e67206170706c69636174696f6e73\n    data_fe2a88889d6dd3ff780a2cd9ed26142d2f7b31e1e6b76f2312861d399975bc4f 546865206a6f62206f6666657220686173207265616368656420746865206d6178696d756d206e756d626572206f66206869726573\n\n    auxdata: 0xa264697066735822122095a592646a7213db46780d9c109d2b88aca71eb8e106ef32c0d8220fc1e2c55664736f6c634300081e0033\n}\n",
				"bytecode": {
					"linkReferences": {},
					"object": "6080604052348015600e575f5ffd5b50335f5f6101000a81548173ffffffffffffffffffffffffffffffffffffffff021916908373ffffffffffffffffffffffffffffffffffffffff1602179055506138aa8061005b5f395ff3fe608060405234801561000f575f5ffd5b506004361061009c575f3560e01c806395b04be21161006457806395b04be21461015e578063a7f718a014610195578063c5e83e97146101b1578063d4bb7d2e146101cd578063e06f7484146101e95761009c565b8063213fbf1b146100a05780632ae4bc55146100bc578063699687cf146100d857806387e6446f1461010c57806392b2a79114610128575b5f5ffd5b6100ba60048036038101906100b5919061286c565b610220565b005b6100d660048036038101906100d191906128f8565b610552565b005b6100f260048036038101906100ed919061286c565b610965565b604051610103959493929190612d1b565b60405180910390f35b610126600480360381019061012191906128f8565b610d62565b005b610142600480360381019061013d9190612da4565b611159565b6040516101559796959493929190612ded565b60405180910390f35b61017860048036038101906101739190612da4565b6113da565b60405161018c989796959493929190612e90565b60405180910390f35b6101af60048036038101906101aa9190612f28565b61166f565b005b6101cb60048036038101906101c6919061286c565b611cb2565b005b6101e760048036038101906101e29190612fcb565b611da4565b005b61020360048036038101906101fe919061286c565b6122cc565b60405161021798979695949392919061315b565b60405180910390f35b336001151560075f8373ffffffffffffffffffffffffffffffffffffffff1673ffffffffffffffffffffffffffffffffffffffff1681526020019081526020015f205f9054906101000a900460ff161515146040518060600160405280602a81526020016137b8602a9139906102cc576040517f08c379a00000000000000000000000000000000000000000000000000000000081526004016102c391906131ec565b60405180910390fd5b50600c5f8381526020019081526020015f20600101545f600a5f8381526020019081526020015f2090505f600281111561030957610308612af1565b5b81600c015f9054906101000a900460ff16600281111561032c5761032b612af1565b5b1460405180606001604052806031815260200161380f6031913990610387576040517f08c379a000000000000000000000000000000000000000000000000000000000815260040161037e91906131ec565b60405180910390fd5b505f600c5f8681526020019081526020015f2090505f600a5f836001015481526020019081526020015f20905080600d015481600e0154106040518060600160405280603581526020016138406035913990610419576040517f08c379a000000000000000000000000000000000000000000000000000000000815260040161041091906131ec565b60405180910390fd5b505f600281111561042d5761042c612af1565b5b82600b015f9054906101000a900460ff1660028111156104505761044f612af1565b5b146040518060400160405280601b81526020017f546865206170706c69636174696f6e206973206e6f74206f70656e0000000000815250906104c8576040517f08c379a00000000000000000000000000000000000000000000000000000000081526004016104bf91906131ec565b60405180910390fd5b50600182600b015f6101000a81548160ff021916908360028111156104f0576104ef612af1565b5b021790555080600e015f81548092919061050990613239565b919050555080600d015481600e01540361054a57600281600c015f6101000a81548160ff0219169083600281111561054457610543612af1565b5b02179055505b505050505050565b85855f1515600583836040516105699291906132bc565b90815260200160405180910390205f9054906101000a900460ff1615151480156105c257505f1515600683836040516105a39291906132bc565b90815260200160405180910390205f9054906101000a900460ff161515145b6040518060400160405280601581526020017f456d61696c20616c72656164792065786973747321000000000000000000000081525090610639576040517f08c379a000000000000000000000000000000000000000000000000000000000815260040161063091906131ec565b60405180910390fd5b505f151560075f3373ffffffffffffffffffffffffffffffffffffffff1673ffffffffffffffffffffffffffffffffffffffff1681526020019081526020015f205f9054906101000a900460ff1615151480156106e257505f151560085f3373ffffffffffffffffffffffffffffffffffffffff1673ffffffffffffffffffffffffffffffffffffffff1681526020019081526020015f205f9054906101000a900460ff161515145b6040518060400160405280601781526020017f4164647265737320616c7265616479206578697374732100000000000000000081525090610759576040517f08c379a000000000000000000000000000000000000000000000000000000000815260040161075091906131ec565b60405180910390fd5b505f60035f815461076990613239565b91905081905590505f60015f3373ffffffffffffffffffffffffffffffffffffffff1673ffffffffffffffffffffffffffffffffffffffff1681526020019081526020015f20905081815f01819055508b8b8260020191826107cc929190613508565b5089898260010191826107e0929190613508565b5087878260040191826107f4929190613508565b508585826003019182610808929190613508565b50600160058b8b60405161081d9291906132bc565b90815260200160405180910390205f6101000a81548160ff021916908315150217905550600160075f3373ffffffffffffffffffffffffffffffffffffffff1673ffffffffffffffffffffffffffffffffffffffff1681526020019081526020015f205f6101000a81548160ff0219169083151502179055505f8160050160146101000a81548160ff0219169083151502179055505f8160050160156101000a81548160ff021916908360018111156108d9576108d8612af1565b5b021790555033816005015f6101000a81548173ffffffffffffffffffffffffffffffffffffffff021916908373ffffffffffffffffffffffffffffffffffffffff1602179055507fd1a7c154123ed5a80a1f9c4596757daf4b73c53e8bc15299d58a4be0ca5058148260405161094f91906135d5565b60405180910390a1505050505050505050505050565b600c602052805f5260405f205f91509050805f01549080600101549080600201805461099090613338565b80601f01602080910402602001604051908101604052809291908181526020018280546109bc90613338565b8015610a075780601f106109de57610100808354040283529160200191610a07565b820191905f5260205f20905b8154815290600101906020018083116109ea57829003601f168201915b50505050509080600301604051806101000160405290815f8201548152602001600182015f9054906101000a900473ffffffffffffffffffffffffffffffffffffffff1673ffffffffffffffffffffffffffffffffffffffff1673ffffffffffffffffffffffffffffffffffffffff168152602001600282018054610a8b90613338565b80601f0160208091040260200160405190810160405280929190818152602001828054610ab790613338565b8015610b025780601f10610ad957610100808354040283529160200191610b02565b820191905f5260205f20905b815481529060010190602001808311610ae557829003601f168201915b50505050508152602001600382018054610b1b90613338565b80601f0160208091040260200160405190810160405280929190818152602001828054610b4790613338565b8015610b925780601f10610b6957610100808354040283529160200191610b92565b820191905f5260205f20905b815481529060010190602001808311610b7557829003601f168201915b50505050508152602001600482018054610bab90613338565b80601f0160208091040260200160405190810160405280929190818152602001828054610bd790613338565b8015610c225780601f10610bf957610100808354040283529160200191610c22565b820191905f5260205f20905b815481529060010190602001808311610c0557829003601f168201915b50505050508152602001600582018054610c3b90613338565b80601f0160208091040260200160405190810160405280929190818152602001828054610c6790613338565b8015610cb25780601f10610c8957610100808354040283529160200191610cb2565b820191905f5260205f20905b815481529060010190602001808311610c9557829003601f168201915b50505050508152602001600682015f9054906101000a900460ff166001811115610cdf57610cde612af1565b5b6001811115610cf157610cf0612af1565b5b815260200160078201805480602002602001604051908101604052809291908181526020018280548015610d4257602002820191905f5260205f20905b815481526020019060010190808311610d2e575b5050505050815250509080600b015f9054906101000a900460ff16905085565b85855f151560058383604051610d799291906132bc565b90815260200160405180910390205f9054906101000a900460ff161515148015610dd257505f151560068383604051610db39291906132bc565b90815260200160405180910390205f9054906101000a900460ff161515145b6040518060400160405280601581526020017f456d61696c20616c72656164792065786973747321000000000000000000000081525090610e49576040517f08c379a0000000000000000000000000000000000000000000000000000000008152600401610e4091906131ec565b60405180910390fd5b505f151560075f3373ffffffffffffffffffffffffffffffffffffffff1673ffffffffffffffffffffffffffffffffffffffff1681526020019081526020015f205f9054906101000a900460ff161515148015610ef257505f151560085f3373ffffffffffffffffffffffffffffffffffffffff1673ffffffffffffffffffffffffffffffffffffffff1681526020019081526020015f205f9054906101000a900460ff161515145b6040518060400160405280601781526020017f4164647265737320616c7265616479206578697374732100000000000000000081525090610f69576040517f08c379a0000000000000000000000000000000000000000000000000000000008152600401610f6091906131ec565b60405180910390fd5b505f60045f8154610f7990613239565b91905081905590505f60025f3373ffffffffffffffffffffffffffffffffffffffff1673ffffffffffffffffffffffffffffffffffffffff1681526020019081526020015f20905081815f01819055508b8b826002019182610fdc929190613508565b508989826003019182610ff0929190613508565b508787826004019182611004929190613508565b508585826005019182611018929190613508565b50600160068b8b60405161102d9291906132bc565b90815260200160405180910390205f6101000a81548160ff021916908315150217905550600160085f3373ffffffffffffffffffffffffffffffffffffffff1673ffffffffffffffffffffffffffffffffffffffff1681526020019081526020015f205f6101000a81548160ff0219169083151502179055506001816006015f6101000a81548160ff021916908360018111156110cd576110cc612af1565b5b021790555033816001015f6101000a81548173ffffffffffffffffffffffffffffffffffffffff021916908373ffffffffffffffffffffffffffffffffffffffff1602179055507f7a7674d49ab4ac57338891a3e15ebdbe5e6abbb1637fc6c5cfa506e2fa360ad08260405161114391906135d5565b60405180910390a1505050505050505050505050565b6002602052805f5260405f205f91509050805f015490806001015f9054906101000a900473ffffffffffffffffffffffffffffffffffffffff16908060020180546111a390613338565b80601f01602080910402602001604051908101604052809291908181526020018280546111cf90613338565b801561121a5780601f106111f15761010080835404028352916020019161121a565b820191905f5260205f20905b8154815290600101906020018083116111fd57829003601f168201915b50505050509080600301805461122f90613338565b80601f016020809104026020016040519081016040528092919081815260200182805461125b90613338565b80156112a65780601f1061127d576101008083540402835291602001916112a6565b820191905f5260205f20905b81548152906001019060200180831161128957829003601f168201915b5050505050908060040180546112bb90613338565b80601f01602080910402602001604051908101604052809291908181526020018280546112e790613338565b80156113325780601f1061130957610100808354040283529160200191611332565b820191905f5260205f20905b81548152906001019060200180831161131557829003601f168201915b50505050509080600501805461134790613338565b80601f016020809104026020016040519081016040528092919081815260200182805461137390613338565b80156113be5780601f10611395576101008083540402835291602001916113be565b820191905f5260205f20905b8154815290600101906020018083116113a157829003601f168201915b505050505090806006015f9054906101000a900460ff16905087565b6001602052805f5260405f205f91509050805f0154908060010180546113ff90613338565b80601f016020809104026020016040519081016040528092919081815260200182805461142b90613338565b80156114765780601f1061144d57610100808354040283529160200191611476565b820191905f5260205f20905b81548152906001019060200180831161145957829003601f168201915b50505050509080600201805461148b90613338565b80601f01602080910402602001604051908101604052809291908181526020018280546114b790613338565b80156115025780601f106114d957610100808354040283529160200191611502565b820191905f5260205f20905b8154815290600101906020018083116114e557829003601f168201915b50505050509080600301805461151790613338565b80601f016020809104026020016040519081016040528092919081815260200182805461154390613338565b801561158e5780601f106115655761010080835404028352916020019161158e565b820191905f5260205f20905b81548152906001019060200180831161157157829003601f168201915b5050505050908060040180546115a390613338565b80601f01602080910402602001604051908101604052809291908181526020018280546115cf90613338565b801561161a5780601f106115f15761010080835404028352916020019161161a565b820191905f5260205f20905b8154815290600101906020018083116115fd57829003601f168201915b505050505090806005015f9054906101000a900473ffffffffffffffffffffffffffffffffffffffff16908060050160149054906101000a900460ff16908060050160159054906101000a900460ff16905088565b336001151560075f8373ffffffffffffffffffffffffffffffffffffffff1673ffffffffffffffffffffffffffffffffffffffff1681526020019081526020015f205f9054906101000a900460ff161515146040518060600160405280602a81526020016137b8602a91399061171b576040517f08c379a000000000000000000000000000000000000000000000000000000000815260040161171291906131ec565b60405180910390fd5b505f60095f815461172b90613239565b91905081905590505f600a5f8381526020019081526020015f20905081815f01819055508888826001019182611762929190613508565b508686826002019182611776929190613508565b508481600301819055508381600d01819055505f60015f3373ffffffffffffffffffffffffffffffffffffffff1673ffffffffffffffffffffffffffffffffffffffff1681526020019081526020015f20604051806101200160405290815f82015481526020016001820180546117ec90613338565b80601f016020809104026020016040519081016040528092919081815260200182805461181890613338565b80156118635780601f1061183a57610100808354040283529160200191611863565b820191905f5260205f20905b81548152906001019060200180831161184657829003601f168201915b5050505050815260200160028201805461187c90613338565b80601f01602080910402602001604051908101604052809291908181526020018280546118a890613338565b80156118f35780601f106118ca576101008083540402835291602001916118f3565b820191905f5260205f20905b8154815290600101906020018083116118d657829003601f168201915b5050505050815260200160038201805461190c90613338565b80601f016020809104026020016040519081016040528092919081815260200182805461193890613338565b80156119835780601f1061195a57610100808354040283529160200191611983565b820191905f5260205f20905b81548152906001019060200180831161196657829003601f168201915b5050505050815260200160048201805461199c90613338565b80601f01602080910402602001604051908101604052809291908181526020018280546119c890613338565b8015611a135780601f106119ea57610100808354040283529160200191611a13565b820191905f5260205f20905b8154815290600101906020018083116119f657829003601f168201915b50505050508152602001600582015f9054906101000a900473ffffffffffffffffffffffffffffffffffffffff1673ffffffffffffffffffffffffffffffffffffffff1673ffffffffffffffffffffffffffffffffffffffff1681526020016005820160149054906101000a900460ff161515151581526020016005820160159054906101000a900460ff166001811115611ab157611ab0612af1565b5b6001811115611ac357611ac2612af1565b5b815260200160068201805480602002602001604051908101604052809291908181526020018280548015611b1457602002820191905f5260205f20905b815481526020019060010190808311611b00575b505050505081525050905080826004015f820151815f01556020820151816001019081611b4191906135ee565b506040820151816002019081611b5791906135ee565b506060820151816003019081611b6d91906135ee565b506080820151816004019081611b8391906135ee565b5060a0820151816005015f6101000a81548173ffffffffffffffffffffffffffffffffffffffff021916908373ffffffffffffffffffffffffffffffffffffffff16021790555060c08201518160050160146101000a81548160ff02191690831515021790555060e08201518160050160156101000a81548160ff02191690836001811115611c1557611c14612af1565b5b0217905550610100820151816006019080519060200190611c3792919061277d565b509050505f82600c015f6101000a81548160ff02191690836002811115611c6157611c60612af1565b5b02179055505f82600e01819055507f92447c6ecd808d390fb352da0dc90a05275b074c43bf302132a27fabafa6872b83604051611c9e91906135d5565b60405180910390a150505050505050505050565b336001151560075f8373ffffffffffffffffffffffffffffffffffffffff1673ffffffffffffffffffffffffffffffffffffffff1681526020019081526020015f205f9054906101000a900460ff161515146040518060600160405280602a81526020016137b8602a913990611d5e576040517f08c379a0000000000000000000000000000000000000000000000000000000008152600401611d5591906131ec565b60405180910390fd5b505f600c5f8481526020019081526020015f209050600281600b015f6101000a81548160ff02191690836002811115611d9a57611d99612af1565b5b0217905550505050565b336001151560085f8373ffffffffffffffffffffffffffffffffffffffff1673ffffffffffffffffffffffffffffffffffffffff1681526020019081526020015f205f9054906101000a900460ff161515146040518060600160405280602d81526020016137e2602d913990611e50576040517f08c379a0000000000000000000000000000000000000000000000000000000008152600401611e4791906131ec565b60405180910390fd5b50835f600a5f8381526020019081526020015f2090505f6002811115611e7957611e78612af1565b5b81600c015f9054906101000a900460ff166002811115611e9c57611e9b612af1565b5b1460405180606001604052806031815260200161380f6031913990611ef7576040517f08c379a0000000000000000000000000000000000000000000000000000000008152600401611eee91906131ec565b60405180910390fd5b505f600b5f8154611f0790613239565b91905081905590505f600a5f8981526020019081526020015f2090505f600c5f8481526020019081526020015f20905082815f01819055508881600101819055508787826002019182611f5b929190613508565b5060025f3373ffffffffffffffffffffffffffffffffffffffff1673ffffffffffffffffffffffffffffffffffffffff1681526020019081526020015f20816003015f820154815f0155600182015f9054906101000a900473ffffffffffffffffffffffffffffffffffffffff16816001015f6101000a81548173ffffffffffffffffffffffffffffffffffffffff021916908373ffffffffffffffffffffffffffffffffffffffff1602179055506002820181600201908161201e91906136d2565b506003820181600301908161203391906136d2565b506004820181600401908161204891906136d2565b506005820181600501908161205d91906136d2565b50600682015f9054906101000a900460ff16816006015f6101000a81548160ff0219169083600181111561209457612093612af1565b5b021790555060078201816007019080546120af9291906127c8565b509050505f81600b015f6101000a81548160ff021916908360028111156120d9576120d8612af1565b5b021790555081600b0181908060018154018082558091505060019003905f5260205f2090600c02015f909190919091505f820154815f0155600182015481600101556002820181600201908161212f91906136d2565b5060038201816003015f820154815f0155600182015f9054906101000a900473ffffffffffffffffffffffffffffffffffffffff16816001015f6101000a81548173ffffffffffffffffffffffffffffffffffffffff021916908373ffffffffffffffffffffffffffffffffffffffff160217905550600282018160020190816121b991906136d2565b50600382018160030190816121ce91906136d2565b50600482018160040190816121e391906136d2565b50600582018160050190816121f891906136d2565b50600682015f9054906101000a900460ff16816006015f6101000a81548160ff0219169083600181111561222f5761222e612af1565b5b0217905550600782018160070190805461224a9291906127c8565b505050600b82015f9054906101000a900460ff1681600b015f6101000a81548160ff0219169083600281111561228357612282612af1565b5b021790555050507f4b6126472f7a5c1a21fe858797a6bb6ed361c62b74d480965163d30d68576d4f836040516122b991906135d5565b60405180910390a1505050505050505050565b600a602052805f5260405f205f91509050805f0154908060010180546122f190613338565b80601f016020809104026020016040519081016040528092919081815260200182805461231d90613338565b80156123685780601f1061233f57610100808354040283529160200191612368565b820191905f5260205f20905b81548152906001019060200180831161234b57829003601f168201915b50505050509080600201805461237d90613338565b80601f01602080910402602001604051908101604052809291908181526020018280546123a990613338565b80156123f45780601f106123cb576101008083540402835291602001916123f4565b820191905f5260205f20905b8154815290600101906020018083116123d757829003601f168201915b50505050509080600301549080600401604051806101200160405290815f820154815260200160018201805461242990613338565b80601f016020809104026020016040519081016040528092919081815260200182805461245590613338565b80156124a05780601f10612477576101008083540402835291602001916124a0565b820191905f5260205f20905b81548152906001019060200180831161248357829003601f168201915b505050505081526020016002820180546124b990613338565b80601f01602080910402602001604051908101604052809291908181526020018280546124e590613338565b80156125305780601f1061250757610100808354040283529160200191612530565b820191905f5260205f20905b81548152906001019060200180831161251357829003601f168201915b5050505050815260200160038201805461254990613338565b80601f016020809104026020016040519081016040528092919081815260200182805461257590613338565b80156125c05780601f10612597576101008083540402835291602001916125c0565b820191905f5260205f20905b8154815290600101906020018083116125a357829003601f168201915b505050505081526020016004820180546125d990613338565b80601f016020809104026020016040519081016040528092919081815260200182805461260590613338565b80156126505780601f1061262757610100808354040283529160200191612650565b820191905f5260205f20905b81548152906001019060200180831161263357829003601f168201915b50505050508152602001600582015f9054906101000a900473ffffffffffffffffffffffffffffffffffffffff1673ffffffffffffffffffffffffffffffffffffffff1673ffffffffffffffffffffffffffffffffffffffff1681526020016005820160149054906101000a900460ff161515151581526020016005820160159054906101000a900460ff1660018111156126ee576126ed612af1565b5b6001811115612700576126ff612af1565b5b81526020016006820180548060200260200160405190810160405280929190818152602001828054801561275157602002820191905f5260205f20905b81548152602001906001019080831161273d575b5050505050815250509080600c015f9054906101000a900460ff169080600d01549080600e0154905088565b828054828255905f5260205f209081019282156127b7579160200282015b828111156127b657825182559160200191906001019061279b565b5b5090506127c49190612816565b5090565b828054828255905f5260205f20908101928215612805575f5260205f209182015b828111156128045782548255916001019190600101906127e9565b5b5090506128129190612816565b5090565b5b8082111561282d575f815f905550600101612817565b5090565b5f5ffd5b5f5ffd5b5f819050919050565b61284b81612839565b8114612855575f5ffd5b50565b5f8135905061286681612842565b92915050565b5f6020828403121561288157612880612831565b5b5f61288e84828501612858565b91505092915050565b5f5ffd5b5f5ffd5b5f5ffd5b5f5f83601f8401126128b8576128b7612897565b5b8235905067ffffffffffffffff8111156128d5576128d461289b565b5b6020830191508360018202830111156128f1576128f061289f565b5b9250929050565b5f5f5f5f5f5f5f5f6080898b03121561291457612913612831565b5b5f89013567ffffffffffffffff81111561293157612930612835565b5b61293d8b828c016128a3565b9850985050602089013567ffffffffffffffff8111156129605761295f612835565b5b61296c8b828c016128a3565b9650965050604089013567ffffffffffffffff81111561298f5761298e612835565b5b61299b8b828c016128a3565b9450945050606089013567ffffffffffffffff8111156129be576129bd612835565b5b6129ca8b828c016128a3565b92509250509295985092959890939650565b6129e581612839565b82525050565b5f81519050919050565b5f82825260208201905092915050565b8281835e5f83830152505050565b5f601f19601f8301169050919050565b5f612a2d826129eb565b612a3781856129f5565b9350612a47818560208601612a05565b612a5081612a13565b840191505092915050565b612a6481612839565b82525050565b5f73ffffffffffffffffffffffffffffffffffffffff82169050919050565b5f612a9382612a6a565b9050919050565b612aa381612a89565b82525050565b5f82825260208201905092915050565b5f612ac3826129eb565b612acd8185612aa9565b9350612add818560208601612a05565b612ae681612a13565b840191505092915050565b7f4e487b71000000000000000000000000000000000000000000000000000000005f52602160045260245ffd5b60028110612b2f57612b2e612af1565b5b50565b5f819050612b3f82612b1e565b919050565b5f612b4e82612b32565b9050919050565b612b5e81612b44565b82525050565b5f81519050919050565b5f82825260208201905092915050565b5f819050602082019050919050565b5f612b988383612a5b565b60208301905092915050565b5f602082019050919050565b5f612bba82612b64565b612bc48185612b6e565b9350612bcf83612b7e565b805f5b83811015612bff578151612be68882612b8d565b9750612bf183612ba4565b925050600181019050612bd2565b5085935050505092915050565b5f61010083015f830151612c225f860182612a5b565b506020830151612c356020860182612a9a565b5060408301518482036040860152612c4d8282612ab9565b91505060608301518482036060860152612c678282612ab9565b91505060808301518482036080860152612c818282612ab9565b91505060a083015184820360a0860152612c9b8282612ab9565b91505060c0830151612cb060c0860182612b55565b5060e083015184820360e0860152612cc88282612bb0565b9150508091505092915050565b60038110612ce657612ce5612af1565b5b50565b5f819050612cf682612cd5565b919050565b5f612d0582612ce9565b9050919050565b612d1581612cfb565b82525050565b5f60a082019050612d2e5f8301886129dc565b612d3b60208301876129dc565b8181036040830152612d4d8186612a23565b90508181036060830152612d618185612c0c565b9050612d706080830184612d0c565b9695505050505050565b612d8381612a89565b8114612d8d575f5ffd5b50565b5f81359050612d9e81612d7a565b92915050565b5f60208284031215612db957612db8612831565b5b5f612dc684828501612d90565b91505092915050565b612dd881612a89565b82525050565b612de781612b44565b82525050565b5f60e082019050612e005f83018a6129dc565b612e0d6020830189612dcf565b8181036040830152612e1f8188612a23565b90508181036060830152612e338187612a23565b90508181036080830152612e478186612a23565b905081810360a0830152612e5b8185612a23565b9050612e6a60c0830184612dde565b98975050505050505050565b5f8115159050919050565b612e8a81612e76565b82525050565b5f61010082019050612ea45f83018b6129dc565b8181036020830152612eb6818a612a23565b90508181036040830152612eca8189612a23565b90508181036060830152612ede8188612a23565b90508181036080830152612ef28187612a23565b9050612f0160a0830186612dcf565b612f0e60c0830185612e81565b612f1b60e0830184612dde565b9998505050505050505050565b5f5f5f5f5f5f60808789031215612f4257612f41612831565b5b5f87013567ffffffffffffffff811115612f5f57612f5e612835565b5b612f6b89828a016128a3565b9650965050602087013567ffffffffffffffff811115612f8e57612f8d612835565b5b612f9a89828a016128a3565b94509450506040612fad89828a01612858565b9250506060612fbe89828a01612858565b9150509295509295509295565b5f5f5f60408486031215612fe257612fe1612831565b5b5f612fef86828701612858565b935050602084013567ffffffffffffffff8111156130105761300f612835565b5b61301c868287016128a3565b92509250509250925092565b61303181612e76565b82525050565b5f61012083015f83015161304d5f860182612a5b565b50602083015184820360208601526130658282612ab9565b9150506040830151848203604086015261307f8282612ab9565b915050606083015184820360608601526130998282612ab9565b915050608083015184820360808601526130b38282612ab9565b91505060a08301516130c860a0860182612a9a565b5060c08301516130db60c0860182613028565b5060e08301516130ee60e0860182612b55565b506101008301518482036101008601526131088282612bb0565b9150508091505092915050565b6003811061312657613125612af1565b5b50565b5f81905061313682613115565b919050565b5f61314582613129565b9050919050565b6131558161313b565b82525050565b5f6101008201905061316f5f83018b6129dc565b8181036020830152613181818a612a23565b905081810360408301526131958189612a23565b90506131a460608301886129dc565b81810360808301526131b68187613037565b90506131c560a083018661314c565b6131d260c08301856129dc565b6131df60e08301846129dc565b9998505050505050505050565b5f6020820190508181035f8301526132048184612a23565b905092915050565b7f4e487b71000000000000000000000000000000000000000000000000000000005f52601160045260245ffd5b5f61324382612839565b91507fffffffffffffffffffffffffffffffffffffffffffffffffffffffffffffffff82036132755761327461320c565b5b600182019050919050565b5f81905092915050565b828183375f83830152505050565b5f6132a38385613280565b93506132b083858461328a565b82840190509392505050565b5f6132c8828486613298565b91508190509392505050565b5f82905092915050565b7f4e487b71000000000000000000000000000000000000000000000000000000005f52604160045260245ffd5b7f4e487b71000000000000000000000000000000000000000000000000000000005f52602260045260245ffd5b5f600282049050600182168061334f57607f821691505b6020821081036133625761336161330b565b5b50919050565b5f819050815f5260205f209050919050565b5f6020601f8301049050919050565b5f82821b905092915050565b5f600883026133c47fffffffffffffffffffffffffffffffffffffffffffffffffffffffffffffffff82613389565b6133ce8683613389565b95508019841693508086168417925050509392505050565b5f819050919050565b5f6134096134046133ff84612839565b6133e6565b612839565b9050919050565b5f819050919050565b613422836133ef565b61343661342e82613410565b848454613395565b825550505050565b5f5f905090565b61344d61343e565b613458818484613419565b505050565b5b8181101561347b576134705f82613445565b60018101905061345e565b5050565b601f8211156134c05761349181613368565b61349a8461337a565b810160208510156134a9578190505b6134bd6134b58561337a565b83018261345d565b50505b505050565b5f82821c905092915050565b5f6134e05f19846008026134c5565b1980831691505092915050565b5f6134f883836134d1565b9150826002028217905092915050565b61351283836132d4565b67ffffffffffffffff81111561352b5761352a6132de565b5b6135358254613338565b61354082828561347f565b5f601f83116001811461356d575f841561355b578287013590505b61356585826134ed565b8655506135cc565b601f19841661357b86613368565b5f5b828110156135a25784890135825560018201915060208501945060208101905061357d565b868310156135bf57848901356135bb601f8916826134d1565b8355505b6001600288020188555050505b50505050505050565b5f6020820190506135e85f8301846129dc565b92915050565b6135f7826129eb565b67ffffffffffffffff8111156136105761360f6132de565b5b61361a8254613338565b61362582828561347f565b5f60209050601f831160018114613656575f8415613644578287015190505b61364e85826134ed565b8655506136b5565b601f19841661366486613368565b5f5b8281101561368b57848901518255600182019150602085019450602081019050613666565b868310156136a857848901516136a4601f8916826134d1565b8355505b6001600288020188555050505b505050505050565b5f815490506136cb81613338565b9050919050565b8181036136e05750506137b5565b6136e9826136bd565b67ffffffffffffffff811115613702576137016132de565b5b61370c8254613338565b61371782828561347f565b5f601f831160018114613744575f8415613732578287015490505b61373c85826134ed565b8655506137ae565b601f19841661375287613368565b965061375d86613368565b5f5b828110156137845784890154825560018201915060018501945060208101905061375f565b868310156137a1578489015461379d601f8916826134d1565b8355505b6001600288020188555050505b5050505050505b56fe5468652063616c6c657220646f6573206e6f74206861766520612063726561746f722070726f66696c655468652063616c6c657220646f6573206e6f74206861766520616e206170706c6963616e742070726f66696c65546865206a6f62206f66666572206973206e6f206c6f6e67657220616363657074696e67206170706c69636174696f6e73546865206a6f62206f6666657220686173207265616368656420746865206d6178696d756d206e756d626572206f66206869726573a264697066735822122095a592646a7213db46780d9c109d2b88aca71eb8e106ef32c0d8220fc1e2c55664736f6c634300081e0033",
					"opcodes": "PUSH1 0x80 PUSH1 0x40 MSTORE CALLVALUE DUP1 ISZERO PUSH1 0xE JUMPI PUSH0 PUSH0 REVERT JUMPDEST POP CALLER PUSH0 PUSH0 PUSH2 0x100 EXP DUP2 SLOAD DUP2 PUSH20 0xFFFFFFFFFFFFFFFFFFFFFFFFFFFFFFFFFFFFFFFF MUL NOT AND SWAP1 DUP4 PUSH20 0xFFFFFFFFFFFFFFFFFFFFFFFFFFFFFFFFFFFFFFFF AND MUL OR SWAP1 SSTORE POP PUSH2 0x38AA DUP1 PUSH2 0x5B PUSH0 CODECOPY PUSH0 RETURN INVALID PUSH1 0x80 PUSH1 0x40 MSTORE CALLVALUE DUP1 ISZERO PUSH2 0xF JUMPI PUSH0 PUSH0 REVERT JUMPDEST POP PUSH1 0x4 CALLDATASIZE LT PUSH2 0x9C JUMPI PUSH0 CALLDATALOAD PUSH1 0xE0 SHR DUP1 PUSH4 0x95B04BE2 GT PUSH2 0x64 JUMPI DUP1 PUSH4 0x95B04BE2 EQ PUSH2 0x15E JUMPI DUP1 PUSH4 0xA7F718A0 EQ PUSH2 0x195 JUMPI DUP1 PUSH4 0xC5E83E97 EQ PUSH2 0x1B1 JUMPI DUP1 PUSH4 0xD4BB7D2E EQ PUSH2 0x1CD JUMPI DUP1 PUSH4 0xE06F7484 EQ PUSH2 0x1E9 JUMPI PUSH2 0x9C JUMP JUMPDEST DUP1 PUSH4 0x213FBF1B EQ PUSH2 0xA0 JUMPI DUP1 PUSH4 0x2AE4BC55 EQ PUSH2 0xBC JUMPI DUP1 PUSH4 0x699687CF EQ PUSH2 0xD8 JUMPI DUP1 PUSH4 0x87E6446F EQ PUSH2 0x10C JUMPI DUP1 PUSH4 0x92B2A791 EQ PUSH2 0x128 JUMPI JUMPDEST PUSH0 PUSH0 REVERT JUMPDEST PUSH2 0xBA PUSH1 0x4 DUP1 CALLDATASIZE SUB DUP2 ADD SWAP1 PUSH2 0xB5 SWAP2 SWAP1 PUSH2 0x286C JUMP JUMPDEST PUSH2 0x220 JUMP JUMPDEST STOP JUMPDEST PUSH2 0xD6 PUSH1 0x4 DUP1 CALLDATASIZE SUB DUP2 ADD SWAP1 PUSH2 0xD1 SWAP2 SWAP1 PUSH2 0x28F8 JUMP JUMPDEST PUSH2 0x552 JUMP JUMPDEST STOP JUMPDEST PUSH2 0xF2 PUSH1 0x4 DUP1 CALLDATASIZE SUB DUP2 ADD SWAP1 PUSH2 0xED SWAP2 SWAP1 PUSH2 0x286C JUMP JUMPDEST PUSH2 0x965 JUMP JUMPDEST PUSH1 0x40 MLOAD PUSH2 0x103 SWAP6 SWAP5 SWAP4 SWAP3 SWAP2 SWAP1 PUSH2 0x2D1B JUMP JUMPDEST PUSH1 0x40 MLOAD DUP1 SWAP2 SUB SWAP1 RETURN JUMPDEST PUSH2 0x126 PUSH1 0x4 DUP1 CALLDATASIZE SUB DUP2 ADD SWAP1 PUSH2 0x121 SWAP2 SWAP1 PUSH2 0x28F8 JUMP JUMPDEST PUSH2 0xD62 JUMP JUMPDEST STOP JUMPDEST PUSH2 0x142 PUSH1 0x4 DUP1 CALLDATASIZE SUB DUP2 ADD SWAP1 PUSH2 0x13D SWAP2 SWAP1 PUSH2 0x2DA4 JUMP JUMPDEST PUSH2 0x1159 JUMP JUMPDEST PUSH1 0x40 MLOAD PUSH2 0x155 SWAP8 SWAP7 SWAP6 SWAP5 SWAP4 SWAP3 SWAP2 SWAP1 PUSH2 0x2DED JUMP JUMPDEST PUSH1 0x40 MLOAD DUP1 SWAP2 SUB SWAP1 RETURN JUMPDEST PUSH2 0x178 PUSH1 0x4 DUP1 CALLDATASIZE SUB DUP2 ADD SWAP1 PUSH2 0x173 SWAP2 SWAP1 PUSH2 0x2DA4 JUMP JUMPDEST PUSH2 0x13DA JUMP JUMPDEST PUSH1 0x40 MLOAD PUSH2 0x18C SWAP9 SWAP8 SWAP7 SWAP6 SWAP5 SWAP4 SWAP3 SWAP2 SWAP1 PUSH2 0x2E90 JUMP JUMPDEST PUSH1 0x40 MLOAD DUP1 SWAP2 SUB SWAP1 RETURN JUMPDEST PUSH2 0x1AF PUSH1 0x4 DUP1 CALLDATASIZE SUB DUP2 ADD SWAP1 PUSH2 0x1AA SWAP2 SWAP1 PUSH2 0x2F28 JUMP JUMPDEST PUSH2 0x166F JUMP JUMPDEST STOP JUMPDEST PUSH2 0x1CB PUSH1 0x4 DUP1 CALLDATASIZE SUB DUP2 ADD SWAP1 PUSH2 0x1C6 SWAP2 SWAP1 PUSH2 0x286C JUMP JUMPDEST PUSH2 0x1CB2 JUMP JUMPDEST STOP JUMPDEST PUSH2 0x1E7 PUSH1 0x4 DUP1 CALLDATASIZE SUB DUP2 ADD SWAP1 PUSH2 0x1E2 SWAP2 SWAP1 PUSH2 0x2FCB JUMP JUMPDEST PUSH2 0x1DA4 JUMP JUMPDEST STOP JUMPDEST PUSH2 0x203 PUSH1 0x4 DUP1 CALLDATASIZE SUB DUP2 ADD SWAP1 PUSH2 0x1FE SWAP2 SWAP1 PUSH2 0x286C JUMP JUMPDEST PUSH2 0x22CC JUMP JUMPDEST PUSH1 0x40 MLOAD PUSH2 0x217 SWAP9 SWAP8 SWAP7 SWAP6 SWAP5 SWAP4 SWAP3 SWAP2 SWAP1 PUSH2 0x315B JUMP JUMPDEST PUSH1 0x40 MLOAD DUP1 SWAP2 SUB SWAP1 RETURN JUMPDEST CALLER PUSH1 0x1 ISZERO ISZERO PUSH1 0x7 PUSH0 DUP4 PUSH20 0xFFFFFFFFFFFFFFFFFFFFFFFFFFFFFFFFFFFFFFFF AND PUSH20 0xFFFFFFFFFFFFFFFFFFFFFFFFFFFFFFFFFFFFFFFF AND DUP2 MSTORE PUSH1 0x20 ADD SWAP1 DUP2 MSTORE PUSH1 0x20 ADD PUSH0 KECCAK256 PUSH0 SWAP1 SLOAD SWAP1 PUSH2 0x100 EXP SWAP1 DIV PUSH1 0xFF AND ISZERO ISZERO EQ PUSH1 0x40 MLOAD DUP1 PUSH1 0x60 ADD PUSH1 0x40 MSTORE DUP1 PUSH1 0x2A DUP2 MSTORE PUSH1 0x20 ADD PUSH2 0x37B8 PUSH1 0x2A SWAP2 CODECOPY SWAP1 PUSH2 0x2CC JUMPI PUSH1 0x40 MLOAD PUSH32 0x8C379A000000000000000000000000000000000000000000000000000000000 DUP2 MSTORE PUSH1 0x4 ADD PUSH2 0x2C3 SWAP2 SWAP1 PUSH2 0x31EC JUMP JUMPDEST PUSH1 0x40 MLOAD DUP1 SWAP2 SUB SWAP1 REVERT JUMPDEST POP PUSH1 0xC PUSH0 DUP4 DUP2 MSTORE PUSH1 0x20 ADD SWAP1 DUP2 MSTORE PUSH1 0x20 ADD PUSH0 KECCAK256 PUSH1 0x1 ADD SLOAD PUSH0 PUSH1 0xA PUSH0 DUP4 DUP2 MSTORE PUSH1 0x20 ADD SWAP1 DUP2 MSTORE PUSH1 0x20 ADD PUSH0 KECCAK256 SWAP1 POP PUSH0 PUSH1 0x2 DUP2 GT ISZERO PUSH2 0x309 JUMPI PUSH2 0x308 PUSH2 0x2AF1 JUMP JUMPDEST JUMPDEST DUP2 PUSH1 0xC ADD PUSH0 SWAP1 SLOAD SWAP1 PUSH2 0x100 EXP SWAP1 DIV PUSH1 0xFF AND PUSH1 0x2 DUP2 GT ISZERO PUSH2 0x32C JUMPI PUSH2 0x32B PUSH2 0x2AF1 JUMP JUMPDEST JUMPDEST EQ PUSH1 0x40 MLOAD DUP1 PUSH1 0x60 ADD PUSH1 0x40 MSTORE DUP1 PUSH1 0x31 DUP2 MSTORE PUSH1 0x20 ADD PUSH2 0x380F PUSH1 0x31 SWAP2 CODECOPY SWAP1 PUSH2 0x387 JUMPI PUSH1 0x40 MLOAD PUSH32 0x8C379A000000000000000000000000000000000000000000000000000000000 DUP2 MSTORE PUSH1 0x4 ADD PUSH2 0x37E SWAP2 SWAP1 PUSH2 0x31EC JUMP JUMPDEST PUSH1 0x40 MLOAD DUP1 SWAP2 SUB SWAP1 REVERT JUMPDEST POP PUSH0 PUSH1 0xC PUSH0 DUP7 DUP2 MSTORE PUSH1 0x20 ADD SWAP1 DUP2 MSTORE PUSH1 0x20 ADD PUSH0 KECCAK256 SWAP1 POP PUSH0 PUSH1 0xA PUSH0 DUP4 PUSH1 0x1 ADD SLOAD DUP2 MSTORE PUSH1 0x20 ADD SWAP1 DUP2 MSTORE PUSH1 0x20 ADD PUSH0 KECCAK256 SWAP1 POP DUP1 PUSH1 0xD ADD SLOAD DUP2 PUSH1 0xE ADD SLOAD LT PUSH1 0x40 MLOAD DUP1 PUSH1 0x60 ADD PUSH1 0x40 MSTORE DUP1 PUSH1 0x35 DUP2 MSTORE PUSH1 0x20 ADD PUSH2 0x3840 PUSH1 0x35 SWAP2 CODECOPY SWAP1 PUSH2 0x419 JUMPI PUSH1 0x40 MLOAD PUSH32 0x8C379A000000000000000000000000000000000000000000000000000000000 DUP2 MSTORE PUSH1 0x4 ADD PUSH2 0x410 SWAP2 SWAP1 PUSH2 0x31EC JUMP JUMPDEST PUSH1 0x40 MLOAD DUP1 SWAP2 SUB SWAP1 REVERT JUMPDEST POP PUSH0 PUSH1 0x2 DUP2 GT ISZERO PUSH2 0x42D JUMPI PUSH2 0x42C PUSH2 0x2AF1 JUMP JUMPDEST JUMPDEST DUP3 PUSH1 0xB ADD PUSH0 SWAP1 SLOAD SWAP1 PUSH2 0x100 EXP SWAP1 DIV PUSH1 0xFF AND PUSH1 0x2 DUP2 GT ISZERO PUSH2 0x450 JUMPI PUSH2 0x44F PUSH2 0x2AF1 JUMP JUMPDEST JUMPDEST EQ PUSH1 0x40 MLOAD DUP1 PUSH1 0x40 ADD PUSH1 0x40 MSTORE DUP1 PUSH1 0x1B DUP2 MSTORE PUSH1 0x20 ADD PUSH32 0x546865206170706C69636174696F6E206973206E6F74206F70656E0000000000 DUP2 MSTORE POP SWAP1 PUSH2 0x4C8 JUMPI PUSH1 0x40 MLOAD PUSH32 0x8C379A000000000000000000000000000000000000000000000000000000000 DUP2 MSTORE PUSH1 0x4 ADD PUSH2 0x4BF SWAP2 SWAP1 PUSH2 0x31EC JUMP JUMPDEST PUSH1 0x40 MLOAD DUP1 SWAP2 SUB SWAP1 REVERT JUMPDEST POP PUSH1 0x1 DUP3 PUSH1 0xB ADD PUSH0 PUSH2 0x100 EXP DUP2 SLOAD DUP2 PUSH1 0xFF MUL NOT AND SWAP1 DUP4 PUSH1 0x2 DUP2 GT ISZERO PUSH2 0x4F0 JUMPI PUSH2 0x4EF PUSH2 0x2AF1 JUMP JUMPDEST JUMPDEST MUL OR SWAP1 SSTORE POP DUP1 PUSH1 0xE ADD PUSH0 DUP2 SLOAD DUP1 SWAP3 SWAP2 SWAP1 PUSH2 0x509 SWAP1 PUSH2 0x3239 JUMP JUMPDEST SWAP2 SWAP1 POP SSTORE POP DUP1 PUSH1 0xD ADD SLOAD DUP2 PUSH1 0xE ADD SLOAD SUB PUSH2 0x54A JUMPI PUSH1 0x2 DUP2 PUSH1 0xC ADD PUSH0 PUSH2 0x100 EXP DUP2 SLOAD DUP2 PUSH1 0xFF MUL NOT AND SWAP1 DUP4 PUSH1 0x2 DUP2 GT ISZERO PUSH2 0x544 JUMPI PUSH2 0x543 PUSH2 0x2AF1 JUMP JUMPDEST JUMPDEST MUL OR SWAP1 SSTORE POP JUMPDEST POP POP POP POP POP POP JUMP JUMPDEST DUP6 DUP6 PUSH0 ISZERO ISZERO PUSH1 0x5 DUP4 DUP4 PUSH1 0x40 MLOAD PUSH2 0x569 SWAP3 SWAP2 SWAP1 PUSH2 0x32BC JUMP JUMPDEST SWAP1 DUP2 MSTORE PUSH1 0x20 ADD PUSH1 0x40 MLOAD DUP1 SWAP2 SUB SWAP1 KECCAK256 PUSH0 SWAP1 SLOAD SWAP1 PUSH2 0x100 EXP SWAP1 DIV PUSH1 0xFF AND ISZERO ISZERO EQ DUP1 ISZERO PUSH2 0x5C2 JUMPI POP PUSH0 ISZERO ISZERO PUSH1 0x6 DUP4 DUP4 PUSH1 0x40 MLOAD PUSH2 0x5A3 SWAP3 SWAP2 SWAP1 PUSH2 0x32BC JUMP JUMPDEST SWAP1 DUP2 MSTORE PUSH1 0x20 ADD PUSH1 0x40 MLOAD DUP1 SWAP2 SUB SWAP1 KECCAK256 PUSH0 SWAP1 SLOAD SWAP1 PUSH2 0x100 EXP SWAP1 DIV PUSH1 0xFF AND ISZERO ISZERO EQ JUMPDEST PUSH1 0x40 MLOAD DUP1 PUSH1 0x40 ADD PUSH1 0x40 MSTORE DUP1 PUSH1 0x15 DUP2 MSTORE PUSH1 0x20 ADD PUSH32 0x456D61696C20616C726561647920657869737473210000000000000000000000 DUP2 MSTORE POP SWAP1 PUSH2 0x639 JUMPI PUSH1 0x40 MLOAD PUSH32 0x8C379A000000000000000000000000000000000000000000000000000000000 DUP2 MSTORE PUSH1 0x4 ADD PUSH2 0x630 SWAP2 SWAP1 PUSH2 0x31EC JUMP JUMPDEST PUSH1 0x40 MLOAD DUP1 SWAP2 SUB SWAP1 REVERT JUMPDEST POP PUSH0 ISZERO ISZERO PUSH1 0x7 PUSH0 CALLER PUSH20 0xFFFFFFFFFFFFFFFFFFFFFFFFFFFFFFFFFFFFFFFF AND PUSH20 0xFFFFFFFFFFFFFFFFFFFFFFFFFFFFFFFFFFFFFFFF AND DUP2 MSTORE PUSH1 0x20 ADD SWAP1 DUP2 MSTORE PUSH1 0x20 ADD PUSH0 KECCAK256 PUSH0 SWAP1 SLOAD SWAP1 PUSH2 0x100 EXP SWAP1 DIV PUSH1 0xFF AND ISZERO ISZERO EQ DUP1 ISZERO PUSH2 0x6E2 JUMPI POP PUSH0 ISZERO ISZERO PUSH1 0x8 PUSH0 CALLER PUSH20 0xFFFFFFFFFFFFFFFFFFFFFFFFFFFFFFFFFFFFFFFF AND PUSH20 0xFFFFFFFFFFFFFFFFFFFFFFFFFFFFFFFFFFFFFFFF AND DUP2 MSTORE PUSH1 0x20 ADD SWAP1 DUP2 MSTORE PUSH1 0x20 ADD PUSH0 KECCAK256 PUSH0 SWAP1 SLOAD SWAP1 PUSH2 0x100 EXP SWAP1 DIV PUSH1 0xFF AND ISZERO ISZERO EQ JUMPDEST PUSH1 0x40 MLOAD DUP1 PUSH1 0x40 ADD PUSH1 0x40 MSTORE DUP1 PUSH1 0x17 DUP2 MSTORE PUSH1 0x20 ADD PUSH32 0x4164647265737320616C72656164792065786973747321000000000000000000 DUP2 MSTORE POP SWAP1 PUSH2 0x759 JUMPI PUSH1 0x40 MLOAD PUSH32 0x8C379A000000000000000000000000000000000000000000000000000000000 DUP2 MSTORE PUSH1 0x4 ADD PUSH2 0x750 SWAP2 SWAP1 PUSH2 0x31EC JUMP JUMPDEST PUSH1 0x40 MLOAD DUP1 SWAP2 SUB SWAP1 REVERT JUMPDEST POP PUSH0 PUSH1 0x3 PUSH0 DUP2 SLOAD PUSH2 0x769 SWAP1 PUSH2 0x3239 JUMP JUMPDEST SWAP2 SWAP1 POP DUP2 SWAP1 SSTORE SWAP1 POP PUSH0 PUSH1 0x1 PUSH0 CALLER PUSH20 0xFFFFFFFFFFFFFFFFFFFFFFFFFFFFFFFFFFFFFFFF AND PUSH20 0xFFFFFFFFFFFFFFFFFFFFFFFFFFFFFFFFFFFFFFFF AND DUP2 MSTORE PUSH1 0x20 ADD SWAP1 DUP2 MSTORE PUSH1 0x20 ADD PUSH0 KECCAK256 SWAP1 POP DUP2 DUP2 PUSH0 ADD DUP2 SWAP1 SSTORE POP DUP12 DUP12 DUP3 PUSH1 0x2 ADD SWAP2 DUP3 PUSH2 0x7CC SWAP3 SWAP2 SWAP1 PUSH2 0x3508 JUMP JUMPDEST POP DUP10 DUP10 DUP3 PUSH1 0x1 ADD SWAP2 DUP3 PUSH2 0x7E0 SWAP3 SWAP2 SWAP1 PUSH2 0x3508 JUMP JUMPDEST POP DUP8 DUP8 DUP3 PUSH1 0x4 ADD SWAP2 DUP3 PUSH2 0x7F4 SWAP3 SWAP2 SWAP1 PUSH2 0x3508 JUMP JUMPDEST POP DUP6 DUP6 DUP3 PUSH1 0x3 ADD SWAP2 DUP3 PUSH2 0x808 SWAP3 SWAP2 SWAP1 PUSH2 0x3508 JUMP JUMPDEST POP PUSH1 0x1 PUSH1 0x5 DUP12 DUP12 PUSH1 0x40 MLOAD PUSH2 0x81D SWAP3 SWAP2 SWAP1 PUSH2 0x32BC JUMP JUMPDEST SWAP1 DUP2 MSTORE PUSH1 0x20 ADD PUSH1 0x40 MLOAD DUP1 SWAP2 SUB SWAP1 KECCAK256 PUSH0 PUSH2 0x100 EXP DUP2 SLOAD DUP2 PUSH1 0xFF MUL NOT AND SWAP1 DUP4 ISZERO ISZERO MUL OR SWAP1 SSTORE POP PUSH1 0x1 PUSH1 0x7 PUSH0 CALLER PUSH20 0xFFFFFFFFFFFFFFFFFFFFFFFFFFFFFFFFFFFFFFFF AND PUSH20 0xFFFFFFFFFFFFFFFFFFFFFFFFFFFFFFFFFFFFFFFF AND DUP2 MSTORE PUSH1 0x20 ADD SWAP1 DUP2 MSTORE PUSH1 0x20 ADD PUSH0 KECCAK256 PUSH0 PUSH2 0x100 EXP DUP2 SLOAD DUP2 PUSH1 0xFF MUL NOT AND SWAP1 DUP4 ISZERO ISZERO MUL OR SWAP1 SSTORE POP PUSH0 DUP2 PUSH1 0x5 ADD PUSH1 0x14 PUSH2 0x100 EXP DUP2 SLOAD DUP2 PUSH1 0xFF MUL NOT AND SWAP1 DUP4 ISZERO ISZERO MUL OR SWAP1 SSTORE POP PUSH0 DUP2 PUSH1 0x5 ADD PUSH1 0x15 PUSH2 0x100 EXP DUP2 SLOAD DUP2 PUSH1 0xFF MUL NOT AND SWAP1 DUP4 PUSH1 0x1 DUP2 GT ISZERO PUSH2 0x8D9 JUMPI PUSH2 0x8D8 PUSH2 0x2AF1 JUMP JUMPDEST JUMPDEST MUL OR SWAP1 SSTORE POP CALLER DUP2 PUSH1 0x5 ADD PUSH0 PUSH2 0x100 EXP DUP2 SLOAD DUP2 PUSH20 0xFFFFFFFFFFFFFFFFFFFFFFFFFFFFFFFFFFFFFFFF MUL NOT AND SWAP1 DUP4 PUSH20 0xFFFFFFFFFFFFFFFFFFFFFFFFFFFFFFFFFFFFFFFF AND MUL OR SWAP1 SSTORE POP PUSH32 0xD1A7C154123ED5A80A1F9C4596757DAF4B73C53E8BC15299D58A4BE0CA505814 DUP3 PUSH1 0x40 MLOAD PUSH2 0x94F SWAP2 SWAP1 PUSH2 0x35D5 JUMP JUMPDEST PUSH1 0x40 MLOAD DUP1 SWAP2 SUB SWAP1 LOG1 POP POP POP POP POP POP POP POP POP POP POP POP JUMP JUMPDEST PUSH1 0xC PUSH1 0x20 MSTORE DUP1 PUSH0 MSTORE PUSH1 0x40 PUSH0 KECCAK256 PUSH0 SWAP2 POP SWAP1 POP DUP1 PUSH0 ADD SLOAD SWAP1 DUP1 PUSH1 0x1 ADD SLOAD SWAP1 DUP1 PUSH1 0x2 ADD DUP1 SLOAD PUSH2 0x990 SWAP1 PUSH2 0x3338 JUMP JUMPDEST DUP1 PUSH1 0x1F ADD PUSH1 0x20 DUP1 SWAP2 DIV MUL PUSH1 0x20 ADD PUSH1 0x40 MLOAD SWAP1 DUP2 ADD PUSH1 0x40 MSTORE DUP1 SWAP3 SWAP2 SWAP1 DUP2 DUP2 MSTORE PUSH1 0x20 ADD DUP3 DUP1 SLOAD PUSH2 0x9BC SWAP1 PUSH2 0x3338 JUMP JUMPDEST DUP1 ISZERO PUSH2 0xA07 JUMPI DUP1 PUSH1 0x1F LT PUSH2 0x9DE JUMPI PUSH2 0x100 DUP1 DUP4 SLOAD DIV MUL DUP4 MSTORE SWAP2 PUSH1 0x20 ADD SWAP2 PUSH2 0xA07 JUMP JUMPDEST DUP3 ADD SWAP2 SWAP1 PUSH0 MSTORE PUSH1 0x20 PUSH0 KECCAK256 SWAP1 JUMPDEST DUP2 SLOAD DUP2 MSTORE SWAP1 PUSH1 0x1 ADD SWAP1 PUSH1 0x20 ADD DUP1 DUP4 GT PUSH2 0x9EA JUMPI DUP3 SWAP1 SUB PUSH1 0x1F AND DUP3 ADD SWAP2 JUMPDEST POP POP POP POP POP SWAP1 DUP1 PUSH1 0x3 ADD PUSH1 0x40 MLOAD DUP1 PUSH2 0x100 ADD PUSH1 0x40 MSTORE SWAP1 DUP2 PUSH0 DUP3 ADD SLOAD DUP2 MSTORE PUSH1 0x20 ADD PUSH1 0x1 DUP3 ADD PUSH0 SWAP1 SLOAD SWAP1 PUSH2 0x100 EXP SWAP1 DIV PUSH20 0xFFFFFFFFFFFFFFFFFFFFFFFFFFFFFFFFFFFFFFFF AND PUSH20 0xFFFFFFFFFFFFFFFFFFFFFFFFFFFFFFFFFFFFFFFF AND PUSH20 0xFFFFFFFFFFFFFFFFFFFFFFFFFFFFFFFFFFFFFFFF AND DUP2 MSTORE PUSH1 0x20 ADD PUSH1 0x2 DUP3 ADD DUP1 SLOAD PUSH2 0xA8B SWAP1 PUSH2 0x3338 JUMP JUMPDEST DUP1 PUSH1 0x1F ADD PUSH1 0x20 DUP1 SWAP2 DIV MUL PUSH1 0x20 ADD PUSH1 0x40 MLOAD SWAP1 DUP2 ADD PUSH1 0x40 MSTORE DUP1 SWAP3 SWAP2 SWAP1 DUP2 DUP2 MSTORE PUSH1 0x20 ADD DUP3 DUP1 SLOAD PUSH2 0xAB7 SWAP1 PUSH2 0x3338 JUMP JUMPDEST DUP1 ISZERO PUSH2 0xB02 JUMPI DUP1 PUSH1 0x1F LT PUSH2 0xAD9 JUMPI PUSH2 0x100 DUP1 DUP4 SLOAD DIV MUL DUP4 MSTORE SWAP2 PUSH1 0x20 ADD SWAP2 PUSH2 0xB02 JUMP JUMPDEST DUP3 ADD SWAP2 SWAP1 PUSH0 MSTORE PUSH1 0x20 PUSH0 KECCAK256 SWAP1 JUMPDEST DUP2 SLOAD DUP2 MSTORE SWAP1 PUSH1 0x1 ADD SWAP1 PUSH1 0x20 ADD DUP1 DUP4 GT PUSH2 0xAE5 JUMPI DUP3 SWAP1 SUB PUSH1 0x1F AND DUP3 ADD SWAP2 JUMPDEST POP POP POP POP POP DUP2 MSTORE PUSH1 0x20 ADD PUSH1 0x3 DUP3 ADD DUP1 SLOAD PUSH2 0xB1B SWAP1 PUSH2 0x3338 JUMP JUMPDEST DUP1 PUSH1 0x1F ADD PUSH1 0x20 DUP1 SWAP2 DIV MUL PUSH1 0x20 ADD PUSH1 0x40 MLOAD SWAP1 DUP2 ADD PUSH1 0x40 MSTORE DUP1 SWAP3 SWAP2 SWAP1 DUP2 DUP2 MSTORE PUSH1 0x20 ADD DUP3 DUP1 SLOAD PUSH2 0xB47 SWAP1 PUSH2 0x3338 JUMP JUMPDEST DUP1 ISZERO PUSH2 0xB92 JUMPI DUP1 PUSH1 0x1F LT PUSH2 0xB69 JUMPI PUSH2 0x100 DUP1 DUP4 SLOAD DIV MUL DUP4 MSTORE SWAP2 PUSH1 0x20 ADD SWAP2 PUSH2 0xB92 JUMP JUMPDEST DUP3 ADD SWAP2 SWAP1 PUSH0 MSTORE PUSH1 0x20 PUSH0 KECCAK256 SWAP1 JUMPDEST DUP2 SLOAD DUP2 MSTORE SWAP1 PUSH1 0x1 ADD SWAP1 PUSH1 0x20 ADD DUP1 DUP4 GT PUSH2 0xB75 JUMPI DUP3 SWAP1 SUB PUSH1 0x1F AND DUP3 ADD SWAP2 JUMPDEST POP POP POP POP POP DUP2 MSTORE PUSH1 0x20 ADD PUSH1 0x4 DUP3 ADD DUP1 SLOAD PUSH2 0xBAB SWAP1 PUSH2 0x3338 JUMP JUMPDEST DUP1 PUSH1 0x1F ADD PUSH1 0x20 DUP1 SWAP2 DIV MUL PUSH1 0x20 ADD PUSH1 0x40 MLOAD SWAP1 DUP2 ADD PUSH1 0x40 MSTORE DUP1 SWAP3 SWAP2 SWAP1 DUP2 DUP2 MSTORE PUSH1 0x20 ADD DUP3 DUP1 SLOAD PUSH2 0xBD7 SWAP1 PUSH2 0x3338 JUMP JUMPDEST DUP1 ISZERO PUSH2 0xC22 JUMPI DUP1 PUSH1 0x1F LT PUSH2 0xBF9 JUMPI PUSH2 0x100 DUP1 DUP4 SLOAD DIV MUL DUP4 MSTORE SWAP2 PUSH1 0x20 ADD SWAP2 PUSH2 0xC22 JUMP JUMPDEST DUP3 ADD SWAP2 SWAP1 PUSH0 MSTORE PUSH1 0x20 PUSH0 KECCAK256 SWAP1 JUMPDEST DUP2 SLOAD DUP2 MSTORE SWAP1 PUSH1 0x1 ADD SWAP1 PUSH1 0x20 ADD DUP1 DUP4 GT PUSH2 0xC05 JUMPI DUP3 SWAP1 SUB PUSH1 0x1F AND DUP3 ADD SWAP2 JUMPDEST POP POP POP POP POP DUP2 MSTORE PUSH1 0x20 ADD PUSH1 0x5 DUP3 ADD DUP1 SLOAD PUSH2 0xC3B SWAP1 PUSH2 0x3338 JUMP JUMPDEST DUP1 PUSH1 0x1F ADD PUSH1 0x20 DUP1 SWAP2 DIV MUL PUSH1 0x20 ADD PUSH1 0x40 MLOAD SWAP1 DUP2 ADD PUSH1 0x40 MSTORE DUP1 SWAP3 SWAP2 SWAP1 DUP2 DUP2 MSTORE PUSH1 0x20 ADD DUP3 DUP1 SLOAD PUSH2 0xC67 SWAP1 PUSH2 0x3338 JUMP JUMPDEST DUP1 ISZERO PUSH2 0xCB2 JUMPI DUP1 PUSH1 0x1F LT PUSH2 0xC89 JUMPI PUSH2 0x100 DUP1 DUP4 SLOAD DIV MUL DUP4 MSTORE SWAP2 PUSH1 0x20 ADD SWAP2 PUSH2 0xCB2 JUMP JUMPDEST DUP3 ADD SWAP2 SWAP1 PUSH0 MSTORE PUSH1 0x20 PUSH0 KECCAK256 SWAP1 JUMPDEST DUP2 SLOAD DUP2 MSTORE SWAP1 PUSH1 0x1 ADD SWAP1 PUSH1 0x20 ADD DUP1 DUP4 GT PUSH2 0xC95 JUMPI DUP3 SWAP1 SUB PUSH1 0x1F AND DUP3 ADD SWAP2 JUMPDEST POP POP POP POP POP DUP2 MSTORE PUSH1 0x20 ADD PUSH1 0x6 DUP3 ADD PUSH0 SWAP1 SLOAD SWAP1 PUSH2 0x100 EXP SWAP1 DIV PUSH1 0xFF AND PUSH1 0x1 DUP2 GT ISZERO PUSH2 0xCDF JUMPI PUSH2 0xCDE PUSH2 0x2AF1 JUMP JUMPDEST JUMPDEST PUSH1 0x1 DUP2 GT ISZERO PUSH2 0xCF1 JUMPI PUSH2 0xCF0 PUSH2 0x2AF1 JUMP JUMPDEST JUMPDEST DUP2 MSTORE PUSH1 0x20 ADD PUSH1 0x7 DUP3 ADD DUP1 SLOAD DUP1 PUSH1 0x20 MUL PUSH1 0x20 ADD PUSH1 0x40 MLOAD SWAP1 DUP2 ADD PUSH1 0x40 MSTORE DUP1 SWAP3 SWAP2 SWAP1 DUP2 DUP2 MSTORE PUSH1 0x20 ADD DUP3 DUP1 SLOAD DUP1 ISZERO PUSH2 0xD42 JUMPI PUSH1 0x20 MUL DUP3 ADD SWAP2 SWAP1 PUSH0 MSTORE PUSH1 0x20 PUSH0 KECCAK256 SWAP1 JUMPDEST DUP2 SLOAD DUP2 MSTORE PUSH1 0x20 ADD SWAP1 PUSH1 0x1 ADD SWAP1 DUP1 DUP4 GT PUSH2 0xD2E JUMPI JUMPDEST POP POP POP POP POP DUP2 MSTORE POP POP SWAP1 DUP1 PUSH1 0xB ADD PUSH0 SWAP1 SLOAD SWAP1 PUSH2 0x100 EXP SWAP1 DIV PUSH1 0xFF AND SWAP1 POP DUP6 JUMP JUMPDEST DUP6 DUP6 PUSH0 ISZERO ISZERO PUSH1 0x5 DUP4 DUP4 PUSH1 0x40 MLOAD PUSH2 0xD79 SWAP3 SWAP2 SWAP1 PUSH2 0x32BC JUMP JUMPDEST SWAP1 DUP2 MSTORE PUSH1 0x20 ADD PUSH1 0x40 MLOAD DUP1 SWAP2 SUB SWAP1 KECCAK256 PUSH0 SWAP1 SLOAD SWAP1 PUSH2 0x100 EXP SWAP1 DIV PUSH1 0xFF AND ISZERO ISZERO EQ DUP1 ISZERO PUSH2 0xDD2 JUMPI POP PUSH0 ISZERO ISZERO PUSH1 0x6 DUP4 DUP4 PUSH1 0x40 MLOAD PUSH2 0xDB3 SWAP3 SWAP2 SWAP1 PUSH2 0x32BC JUMP JUMPDEST SWAP1 DUP2 MSTORE PUSH1 0x20 ADD PUSH1 0x40 MLOAD DUP1 SWAP2 SUB SWAP1 KECCAK256 PUSH0 SWAP1 SLOAD SWAP1 PUSH2 0x100 EXP SWAP1 DIV PUSH1 0xFF AND ISZERO ISZERO EQ JUMPDEST PUSH1 0x40 MLOAD DUP1 PUSH1 0x40 ADD PUSH1 0x40 MSTORE DUP1 PUSH1 0x15 DUP2 MSTORE PUSH1 0x20 ADD PUSH32 0x456D61696C20616C726561647920657869737473210000000000000000000000 DUP2 MSTORE POP SWAP1 PUSH2 0xE49 JUMPI PUSH1 0x40 MLOAD PUSH32 0x8C379A000000000000000000000000000000000000000000000000000000000 DUP2 MSTORE PUSH1 0x4 ADD PUSH2 0xE40 SWAP2 SWAP1 PUSH2 0x31EC JUMP JUMPDEST PUSH1 0x40 MLOAD DUP1 SWAP2 SUB SWAP1 REVERT JUMPDEST POP PUSH0 ISZERO ISZERO PUSH1 0x7 PUSH0 CALLER PUSH20 0xFFFFFFFFFFFFFFFFFFFFFFFFFFFFFFFFFFFFFFFF AND PUSH20 0xFFFFFFFFFFFFFFFFFFFFFFFFFFFFFFFFFFFFFFFF AND DUP2 MSTORE PUSH1 0x20 ADD SWAP1 DUP2 MSTORE PUSH1 0x20 ADD PUSH0 KECCAK256 PUSH0 SWAP1 SLOAD SWAP1 PUSH2 0x100 EXP SWAP1 DIV PUSH1 0xFF AND ISZERO ISZERO EQ DUP1 ISZERO PUSH2 0xEF2 JUMPI POP PUSH0 ISZERO ISZERO PUSH1 0x8 PUSH0 CALLER PUSH20 0xFFFFFFFFFFFFFFFFFFFFFFFFFFFFFFFFFFFFFFFF AND PUSH20 0xFFFFFFFFFFFFFFFFFFFFFFFFFFFFFFFFFFFFFFFF AND DUP2 MSTORE PUSH1 0x20 ADD SWAP1 DUP2 MSTORE PUSH1 0x20 ADD PUSH0 KECCAK256 PUSH0 SWAP1 SLOAD SWAP1 PUSH2 0x100 EXP SWAP1 DIV PUSH1 0xFF AND ISZERO ISZERO EQ JUMPDEST PUSH1 0x40 MLOAD DUP1 PUSH1 0x40 ADD PUSH1 0x40 MSTORE DUP1 PUSH1 0x17 DUP2 MSTORE PUSH1 0x20 ADD PUSH32 0x4164647265737320616C72656164792065786973747321000000000000000000 DUP2 MSTORE POP SWAP1 PUSH2 0xF69 JUMPI PUSH1 0x40 MLOAD PUSH32 0x8C379A000000000000000000000000000000000000000000000000000000000 DUP2 MSTORE PUSH1 0x4 ADD PUSH2 0xF60 SWAP2 SWAP1 PUSH2 0x31EC JUMP JUMPDEST PUSH1 0x40 MLOAD DUP1 SWAP2 SUB SWAP1 REVERT JUMPDEST POP PUSH0 PUSH1 0x4 PUSH0 DUP2 SLOAD PUSH2 0xF79 SWAP1 PUSH2 0x3239 JUMP JUMPDEST SWAP2 SWAP1 POP DUP2 SWAP1 SSTORE SWAP1 POP PUSH0 PUSH1 0x2 PUSH0 CALLER PUSH20 0xFFFFFFFFFFFFFFFFFFFFFFFFFFFFFFFFFFFFFFFF AND PUSH20 0xFFFFFFFFFFFFFFFFFFFFFFFFFFFFFFFFFFFFFFFF AND DUP2 MSTORE PUSH1 0x20 ADD SWAP1 DUP2 MSTORE PUSH1 0x20 ADD PUSH0 KECCAK256 SWAP1 POP DUP2 DUP2 PUSH0 ADD DUP2 SWAP1 SSTORE POP DUP12 DUP12 DUP3 PUSH1 0x2 ADD SWAP2 DUP3 PUSH2 0xFDC SWAP3 SWAP2 SWAP1 PUSH2 0x3508 JUMP JUMPDEST POP DUP10 DUP10 DUP3 PUSH1 0x3 ADD SWAP2 DUP3 PUSH2 0xFF0 SWAP3 SWAP2 SWAP1 PUSH2 0x3508 JUMP JUMPDEST POP DUP8 DUP8 DUP3 PUSH1 0x4 ADD SWAP2 DUP3 PUSH2 0x1004 SWAP3 SWAP2 SWAP1 PUSH2 0x3508 JUMP JUMPDEST POP DUP6 DUP6 DUP3 PUSH1 0x5 ADD SWAP2 DUP3 PUSH2 0x1018 SWAP3 SWAP2 SWAP1 PUSH2 0x3508 JUMP JUMPDEST POP PUSH1 0x1 PUSH1 0x6 DUP12 DUP12 PUSH1 0x40 MLOAD PUSH2 0x102D SWAP3 SWAP2 SWAP1 PUSH2 0x32BC JUMP JUMPDEST SWAP1 DUP2 MSTORE PUSH1 0x20 ADD PUSH1 0x40 MLOAD DUP1 SWAP2 SUB SWAP1 KECCAK256 PUSH0 PUSH2 0x100 EXP DUP2 SLOAD DUP2 PUSH1 0xFF MUL NOT AND SWAP1 DUP4 ISZERO ISZERO MUL OR SWAP1 SSTORE POP PUSH1 0x1 PUSH1 0x8 PUSH0 CALLER PUSH20 0xFFFFFFFFFFFFFFFFFFFFFFFFFFFFFFFFFFFFFFFF AND PUSH20 0xFFFFFFFFFFFFFFFFFFFFFFFFFFFFFFFFFFFFFFFF AND DUP2 MSTORE PUSH1 0x20 ADD SWAP1 DUP2 MSTORE PUSH1 0x20 ADD PUSH0 KECCAK256 PUSH0 PUSH2 0x100 EXP DUP2 SLOAD DUP2 PUSH1 0xFF MUL NOT AND SWAP1 DUP4 ISZERO ISZERO MUL OR SWAP1 SSTORE POP PUSH1 0x1 DUP2 PUSH1 0x6 ADD PUSH0 PUSH2 0x100 EXP DUP2 SLOAD DUP2 PUSH1 0xFF MUL NOT AND SWAP1 DUP4 PUSH1 0x1 DUP2 GT ISZERO PUSH2 0x10CD JUMPI PUSH2 0x10CC PUSH2 0x2AF1 JUMP JUMPDEST JUMPDEST MUL OR SWAP1 SSTORE POP CALLER DUP2 PUSH1 0x1 ADD PUSH0 PUSH2 0x100 EXP DUP2 SLOAD DUP2 PUSH20 0xFFFFFFFFFFFFFFFFFFFFFFFFFFFFFFFFFFFFFFFF MUL NOT AND SWAP1 DUP4 PUSH20 0xFFFFFFFFFFFFFFFFFFFFFFFFFFFFFFFFFFFFFFFF AND MUL OR SWAP1 SSTORE POP PUSH32 0x7A7674D49AB4AC57338891A3E15EBDBE5E6ABBB1637FC6C5CFA506E2FA360AD0 DUP3 PUSH1 0x40 MLOAD PUSH2 0x1143 SWAP2 SWAP1 PUSH2 0x35D5 JUMP JUMPDEST PUSH1 0x40 MLOAD DUP1 SWAP2 SUB SWAP1 LOG1 POP POP POP POP POP POP POP POP POP POP POP POP JUMP JUMPDEST PUSH1 0x2 PUSH1 0x20 MSTORE DUP1 PUSH0 MSTORE PUSH1 0x40 PUSH0 KECCAK256 PUSH0 SWAP2 POP SWAP1 POP DUP1 PUSH0 ADD SLOAD SWAP1 DUP1 PUSH1 0x1 ADD PUSH0 SWAP1 SLOAD SWAP1 PUSH2 0x100 EXP SWAP1 DIV PUSH20 0xFFFFFFFFFFFFFFFFFFFFFFFFFFFFFFFFFFFFFFFF AND SWAP1 DUP1 PUSH1 0x2 ADD DUP1 SLOAD PUSH2 0x11A3 SWAP1 PUSH2 0x3338 JUMP JUMPDEST DUP1 PUSH1 0x1F ADD PUSH1 0x20 DUP1 SWAP2 DIV MUL PUSH1 0x20 ADD PUSH1 0x40 MLOAD SWAP1 DUP2 ADD PUSH1 0x40 MSTORE DUP1 SWAP3 SWAP2 SWAP1 DUP2 DUP2 MSTORE PUSH1 0x20 ADD DUP3 DUP1 SLOAD PUSH2 0x11CF SWAP1 PUSH2 0x3338 JUMP JUMPDEST DUP1 ISZERO PUSH2 0x121A JUMPI DUP1 PUSH1 0x1F LT PUSH2 0x11F1 JUMPI PUSH2 0x100 DUP1 DUP4 SLOAD DIV MUL DUP4 MSTORE SWAP2 PUSH1 0x20 ADD SWAP2 PUSH2 0x121A JUMP JUMPDEST DUP3 ADD SWAP2 SWAP1 PUSH0 MSTORE PUSH1 0x20 PUSH0 KECCAK256 SWAP1 JUMPDEST DUP2 SLOAD DUP2 MSTORE SWAP1 PUSH1 0x1 ADD SWAP1 PUSH1 0x20 ADD DUP1 DUP4 GT PUSH2 0x11FD JUMPI DUP3 SWAP1 SUB PUSH1 0x1F AND DUP3 ADD SWAP2 JUMPDEST POP POP POP POP POP SWAP1 DUP1 PUSH1 0x3 ADD DUP1 SLOAD PUSH2 0x122F SWAP1 PUSH2 0x3338 JUMP JUMPDEST DUP1 PUSH1 0x1F ADD PUSH1 0x20 DUP1 SWAP2 DIV MUL PUSH1 0x20 ADD PUSH1 0x40 MLOAD SWAP1 DUP2 ADD PUSH1 0x40 MSTORE DUP1 SWAP3 SWAP2 SWAP1 DUP2 DUP2 MSTORE PUSH1 0x20 ADD DUP3 DUP1 SLOAD PUSH2 0x125B SWAP1 PUSH2 0x3338 JUMP JUMPDEST DUP1 ISZERO PUSH2 0x12A6 JUMPI DUP1 PUSH1 0x1F LT PUSH2 0x127D JUMPI PUSH2 0x100 DUP1 DUP4 SLOAD DIV MUL DUP4 MSTORE SWAP2 PUSH1 0x20 ADD SWAP2 PUSH2 0x12A6 JUMP JUMPDEST DUP3 ADD SWAP2 SWAP1 PUSH0 MSTORE PUSH1 0x20 PUSH0 KECCAK256 SWAP1 JUMPDEST DUP2 SLOAD DUP2 MSTORE SWAP1 PUSH1 0x1 ADD SWAP1 PUSH1 0x20 ADD DUP1 DUP4 GT PUSH2 0x1289 JUMPI DUP3 SWAP1 SUB PUSH1 0x1F AND DUP3 ADD SWAP2 JUMPDEST POP POP POP POP POP SWAP1 DUP1 PUSH1 0x4 ADD DUP1 SLOAD PUSH2 0x12BB SWAP1 PUSH2 0x3338 JUMP JUMPDEST DUP1 PUSH1 0x1F ADD PUSH1 0x20 DUP1 SWAP2 DIV MUL PUSH1 0x20 ADD PUSH1 0x40 MLOAD SWAP1 DUP2 ADD PUSH1 0x40 MSTORE DUP1 SWAP3 SWAP2 SWAP1 DUP2 DUP2 MSTORE PUSH1 0x20 ADD DUP3 DUP1 SLOAD PUSH2 0x12E7 SWAP1 PUSH2 0x3338 JUMP JUMPDEST DUP1 ISZERO PUSH2 0x1332 JUMPI DUP1 PUSH1 0x1F LT PUSH2 0x1309 JUMPI PUSH2 0x100 DUP1 DUP4 SLOAD DIV MUL DUP4 MSTORE SWAP2 PUSH1 0x20 ADD SWAP2 PUSH2 0x1332 JUMP JUMPDEST DUP3 ADD SWAP2 SWAP1 PUSH0 MSTORE PUSH1 0x20 PUSH0 KECCAK256 SWAP1 JUMPDEST DUP2 SLOAD DUP2 MSTORE SWAP1 PUSH1 0x1 ADD SWAP1 PUSH1 0x20 ADD DUP1 DUP4 GT PUSH2 0x1315 JUMPI DUP3 SWAP1 SUB PUSH1 0x1F AND DUP3 ADD SWAP2 JUMPDEST POP POP POP POP POP SWAP1 DUP1 PUSH1 0x5 ADD DUP1 SLOAD PUSH2 0x1347 SWAP1 PUSH2 0x3338 JUMP JUMPDEST DUP1 PUSH1 0x1F ADD PUSH1 0x20 DUP1 SWAP2 DIV MUL PUSH1 0x20 ADD PUSH1 0x40 MLOAD SWAP1 DUP2 ADD PUSH1 0x40 MSTORE DUP1 SWAP3 SWAP2 SWAP1 DUP2 DUP2 MSTORE PUSH1 0x20 ADD DUP3 DUP1 SLOAD PUSH2 0x1373 SWAP1 PUSH2 0x3338 JUMP JUMPDEST DUP1 ISZERO PUSH2 0x13BE JUMPI DUP1 PUSH1 0x1F LT PUSH2 0x1395 JUMPI PUSH2 0x100 DUP1 DUP4 SLOAD DIV MUL DUP4 MSTORE SWAP2 PUSH1 0x20 ADD SWAP2 PUSH2 0x13BE JUMP JUMPDEST DUP3 ADD SWAP2 SWAP1 PUSH0 MSTORE PUSH1 0x20 PUSH0 KECCAK256 SWAP1 JUMPDEST DUP2 SLOAD DUP2 MSTORE SWAP1 PUSH1 0x1 ADD SWAP1 PUSH1 0x20 ADD DUP1 DUP4 GT PUSH2 0x13A1 JUMPI DUP3 SWAP1 SUB PUSH1 0x1F AND DUP3 ADD SWAP2 JUMPDEST POP POP POP POP POP SWAP1 DUP1 PUSH1 0x6 ADD PUSH0 SWAP1 SLOAD SWAP1 PUSH2 0x100 EXP SWAP1 DIV PUSH1 0xFF AND SWAP1 POP DUP8 JUMP JUMPDEST PUSH1 0x1 PUSH1 0x20 MSTORE DUP1 PUSH0 MSTORE PUSH1 0x40 PUSH0 KECCAK256 PUSH0 SWAP2 POP SWAP1 POP DUP1 PUSH0 ADD SLOAD SWAP1 DUP1 PUSH1 0x1 ADD DUP1 SLOAD PUSH2 0x13FF SWAP1 PUSH2 0x3338 JUMP JUMPDEST DUP1 PUSH1 0x1F ADD PUSH1 0x20 DUP1 SWAP2 DIV MUL PUSH1 0x20 ADD PUSH1 0x40 MLOAD SWAP1 DUP2 ADD PUSH1 0x40 MSTORE DUP1 SWAP3 SWAP2 SWAP1 DUP2 DUP2 MSTORE PUSH1 0x20 ADD DUP3 DUP1 SLOAD PUSH2 0x142B SWAP1 PUSH2 0x3338 JUMP JUMPDEST DUP1 ISZERO PUSH2 0x1476 JUMPI DUP1 PUSH1 0x1F LT PUSH2 0x144D JUMPI PUSH2 0x100 DUP1 DUP4 SLOAD DIV MUL DUP4 MSTORE SWAP2 PUSH1 0x20 ADD SWAP2 PUSH2 0x1476 JUMP JUMPDEST DUP3 ADD SWAP2 SWAP1 PUSH0 MSTORE PUSH1 0x20 PUSH0 KECCAK256 SWAP1 JUMPDEST DUP2 SLOAD DUP2 MSTORE SWAP1 PUSH1 0x1 ADD SWAP1 PUSH1 0x20 ADD DUP1 DUP4 GT PUSH2 0x1459 JUMPI DUP3 SWAP1 SUB PUSH1 0x1F AND DUP3 ADD SWAP2 JUMPDEST POP POP POP POP POP SWAP1 DUP1 PUSH1 0x2 ADD DUP1 SLOAD PUSH2 0x148B SWAP1 PUSH2 0x3338 JUMP JUMPDEST DUP1 PUSH1 0x1F ADD PUSH1 0x20 DUP1 SWAP2 DIV MUL PUSH1 0x20 ADD PUSH1 0x40 MLOAD SWAP1 DUP2 ADD PUSH1 0x40 MSTORE DUP1 SWAP3 SWAP2 SWAP1 DUP2 DUP2 MSTORE PUSH1 0x20 ADD DUP3 DUP1 SLOAD PUSH2 0x14B7 SWAP1 PUSH2 0x3338 JUMP JUMPDEST DUP1 ISZERO PUSH2 0x1502 JUMPI DUP1 PUSH1 0x1F LT PUSH2 0x14D9 JUMPI PUSH2 0x100 DUP1 DUP4 SLOAD DIV MUL DUP4 MSTORE SWAP2 PUSH1 0x20 ADD SWAP2 PUSH2 0x1502 JUMP JUMPDEST DUP3 ADD SWAP2 SWAP1 PUSH0 MSTORE PUSH1 0x20 PUSH0 KECCAK256 SWAP1 JUMPDEST DUP2 SLOAD DUP2 MSTORE SWAP1 PUSH1 0x1 ADD SWAP1 PUSH1 0x20 ADD DUP1 DUP4 GT PUSH2 0x14E5 JUMPI DUP3 SWAP1 SUB PUSH1 0x1F AND DUP3 ADD SWAP2 JUMPDEST POP POP POP POP POP SWAP1 DUP1 PUSH1 0x3 ADD DUP1 SLOAD PUSH2 0x1517 SWAP1 PUSH2 0x3338 JUMP JUMPDEST DUP1 PUSH1 0x1F ADD PUSH1 0x20 DUP1 SWAP2 DIV MUL PUSH1 0x20 ADD PUSH1 0x40 MLOAD SWAP1 DUP2 ADD PUSH1 0x40 MSTORE DUP1 SWAP3 SWAP2 SWAP1 DUP2 DUP2 MSTORE PUSH1 0x20 ADD DUP3 DUP1 SLOAD PUSH2 0x1543 SWAP1 PUSH2 0x3338 JUMP JUMPDEST DUP1 ISZERO PUSH2 0x158E JUMPI DUP1 PUSH1 0x1F LT PUSH2 0x1565 JUMPI PUSH2 0x100 DUP1 DUP4 SLOAD DIV MUL DUP4 MSTORE SWAP2 PUSH1 0x20 ADD SWAP2 PUSH2 0x158E JUMP JUMPDEST DUP3 ADD SWAP2 SWAP1 PUSH0 MSTORE PUSH1 0x20 PUSH0 KECCAK256 SWAP1 JUMPDEST DUP2 SLOAD DUP2 MSTORE SWAP1 PUSH1 0x1 ADD SWAP1 PUSH1 0x20 ADD DUP1 DUP4 GT PUSH2 0x1571 JUMPI DUP3 SWAP1 SUB PUSH1 0x1F AND DUP3 ADD SWAP2 JUMPDEST POP POP POP POP POP SWAP1 DUP1 PUSH1 0x4 ADD DUP1 SLOAD PUSH2 0x15A3 SWAP1 PUSH2 0x3338 JUMP JUMPDEST DUP1 PUSH1 0x1F ADD PUSH1 0x20 DUP1 SWAP2 DIV MUL PUSH1 0x20 ADD PUSH1 0x40 MLOAD SWAP1 DUP2 ADD PUSH1 0x40 MSTORE DUP1 SWAP3 SWAP2 SWAP1 DUP2 DUP2 MSTORE PUSH1 0x20 ADD DUP3 DUP1 SLOAD PUSH2 0x15CF SWAP1 PUSH2 0x3338 JUMP JUMPDEST DUP1 ISZERO PUSH2 0x161A JUMPI DUP1 PUSH1 0x1F LT PUSH2 0x15F1 JUMPI PUSH2 0x100 DUP1 DUP4 SLOAD DIV MUL DUP4 MSTORE SWAP2 PUSH1 0x20 ADD SWAP2 PUSH2 0x161A JUMP JUMPDEST DUP3 ADD SWAP2 SWAP1 PUSH0 MSTORE PUSH1 0x20 PUSH0 KECCAK256 SWAP1 JUMPDEST DUP2 SLOAD DUP2 MSTORE SWAP1 PUSH1 0x1 ADD SWAP1 PUSH1 0x20 ADD DUP1 DUP4 GT PUSH2 0x15FD JUMPI DUP3 SWAP1 SUB PUSH1 0x1F AND DUP3 ADD SWAP2 JUMPDEST POP POP POP POP POP SWAP1 DUP1 PUSH1 0x5 ADD PUSH0 SWAP1 SLOAD SWAP1 PUSH2 0x100 EXP SWAP1 DIV PUSH20 0xFFFFFFFFFFFFFFFFFFFFFFFFFFFFFFFFFFFFFFFF AND SWAP1 DUP1 PUSH1 0x5 ADD PUSH1 0x14 SWAP1 SLOAD SWAP1 PUSH2 0x100 EXP SWAP1 DIV PUSH1 0xFF AND SWAP1 DUP1 PUSH1 0x5 ADD PUSH1 0x15 SWAP1 SLOAD SWAP1 PUSH2 0x100 EXP SWAP1 DIV PUSH1 0xFF AND SWAP1 POP DUP9 JUMP JUMPDEST CALLER PUSH1 0x1 ISZERO ISZERO PUSH1 0x7 PUSH0 DUP4 PUSH20 0xFFFFFFFFFFFFFFFFFFFFFFFFFFFFFFFFFFFFFFFF AND PUSH20 0xFFFFFFFFFFFFFFFFFFFFFFFFFFFFFFFFFFFFFFFF AND DUP2 MSTORE PUSH1 0x20 ADD SWAP1 DUP2 MSTORE PUSH1 0x20 ADD PUSH0 KECCAK256 PUSH0 SWAP1 SLOAD SWAP1 PUSH2 0x100 EXP SWAP1 DIV PUSH1 0xFF AND ISZERO ISZERO EQ PUSH1 0x40 MLOAD DUP1 PUSH1 0x60 ADD PUSH1 0x40 MSTORE DUP1 PUSH1 0x2A DUP2 MSTORE PUSH1 0x20 ADD PUSH2 0x37B8 PUSH1 0x2A SWAP2 CODECOPY SWAP1 PUSH2 0x171B JUMPI PUSH1 0x40 MLOAD PUSH32 0x8C379A000000000000000000000000000000000000000000000000000000000 DUP2 MSTORE PUSH1 0x4 ADD PUSH2 0x1712 SWAP2 SWAP1 PUSH2 0x31EC JUMP JUMPDEST PUSH1 0x40 MLOAD DUP1 SWAP2 SUB SWAP1 REVERT JUMPDEST POP PUSH0 PUSH1 0x9 PUSH0 DUP2 SLOAD PUSH2 0x172B SWAP1 PUSH2 0x3239 JUMP JUMPDEST SWAP2 SWAP1 POP DUP2 SWAP1 SSTORE SWAP1 POP PUSH0 PUSH1 0xA PUSH0 DUP4 DUP2 MSTORE PUSH1 0x20 ADD SWAP1 DUP2 MSTORE PUSH1 0x20 ADD PUSH0 KECCAK256 SWAP1 POP DUP2 DUP2 PUSH0 ADD DUP2 SWAP1 SSTORE POP DUP9 DUP9 DUP3 PUSH1 0x1 ADD SWAP2 DUP3 PUSH2 0x1762 SWAP3 SWAP2 SWAP1 PUSH2 0x3508 JUMP JUMPDEST POP DUP7 DUP7 DUP3 PUSH1 0x2 ADD SWAP2 DUP3 PUSH2 0x1776 SWAP3 SWAP2 SWAP1 PUSH2 0x3508 JUMP JUMPDEST POP DUP5 DUP2 PUSH1 0x3 ADD DUP2 SWAP1 SSTORE POP DUP4 DUP2 PUSH1 0xD ADD DUP2 SWAP1 SSTORE POP PUSH0 PUSH1 0x1 PUSH0 CALLER PUSH20 0xFFFFFFFFFFFFFFFFFFFFFFFFFFFFFFFFFFFFFFFF AND PUSH20 0xFFFFFFFFFFFFFFFFFFFFFFFFFFFFFFFFFFFFFFFF AND DUP2 MSTORE PUSH1 0x20 ADD SWAP1 DUP2 MSTORE PUSH1 0x20 ADD PUSH0 KECCAK256 PUSH1 0x40 MLOAD DUP1 PUSH2 0x120 ADD PUSH1 0x40 MSTORE SWAP1 DUP2 PUSH0 DUP3 ADD SLOAD DUP2 MSTORE PUSH1 0x20 ADD PUSH1 0x1 DUP3 ADD DUP1 SLOAD PUSH2 0x17EC SWAP1 PUSH2 0x3338 JUMP JUMPDEST DUP1 PUSH1 0x1F ADD PUSH1 0x20 DUP1 SWAP2 DIV MUL PUSH1 0x20 ADD PUSH1 0x40 MLOAD SWAP1 DUP2 ADD PUSH1 0x40 MSTORE DUP1 SWAP3 SWAP2 SWAP1 DUP2 DUP2 MSTORE PUSH1 0x20 ADD DUP3 DUP1 SLOAD PUSH2 0x1818 SWAP1 PUSH2 0x3338 JUMP JUMPDEST DUP1 ISZERO PUSH2 0x1863 JUMPI DUP1 PUSH1 0x1F LT PUSH2 0x183A JUMPI PUSH2 0x100 DUP1 DUP4 SLOAD DIV MUL DUP4 MSTORE SWAP2 PUSH1 0x20 ADD SWAP2 PUSH2 0x1863 JUMP JUMPDEST DUP3 ADD SWAP2 SWAP1 PUSH0 MSTORE PUSH1 0x20 PUSH0 KECCAK256 SWAP1 JUMPDEST DUP2 SLOAD DUP2 MSTORE SWAP1 PUSH1 0x1 ADD SWAP1 PUSH1 0x20 ADD DUP1 DUP4 GT PUSH2 0x1846 JUMPI DUP3 SWAP1 SUB PUSH1 0x1F AND DUP3 ADD SWAP2 JUMPDEST POP POP POP POP POP DUP2 MSTORE PUSH1 0x20 ADD PUSH1 0x2 DUP3 ADD DUP1 SLOAD PUSH2 0x187C SWAP1 PUSH2 0x3338 JUMP JUMPDEST DUP1 PUSH1 0x1F ADD PUSH1 0x20 DUP1 SWAP2 DIV MUL PUSH1 0x20 ADD PUSH1 0x40 MLOAD SWAP1 DUP2 ADD PUSH1 0x40 MSTORE DUP1 SWAP3 SWAP2 SWAP1 DUP2 DUP2 MSTORE PUSH1 0x20 ADD DUP3 DUP1 SLOAD PUSH2 0x18A8 SWAP1 PUSH2 0x3338 JUMP JUMPDEST DUP1 ISZERO PUSH2 0x18F3 JUMPI DUP1 PUSH1 0x1F LT PUSH2 0x18CA JUMPI PUSH2 0x100 DUP1 DUP4 SLOAD DIV MUL DUP4 MSTORE SWAP2 PUSH1 0x20 ADD SWAP2 PUSH2 0x18F3 JUMP JUMPDEST DUP3 ADD SWAP2 SWAP1 PUSH0 MSTORE PUSH1 0x20 PUSH0 KECCAK256 SWAP1 JUMPDEST DUP2 SLOAD DUP2 MSTORE SWAP1 PUSH1 0x1 ADD SWAP1 PUSH1 0x20 ADD DUP1 DUP4 GT PUSH2 0x18D6 JUMPI DUP3 SWAP1 SUB PUSH1 0x1F AND DUP3 ADD SWAP2 JUMPDEST POP POP POP POP POP DUP2 MSTORE PUSH1 0x20 ADD PUSH1 0x3 DUP3 ADD DUP1 SLOAD PUSH2 0x190C SWAP1 PUSH2 0x3338 JUMP JUMPDEST DUP1 PUSH1 0x1F ADD PUSH1 0x20 DUP1 SWAP2 DIV MUL PUSH1 0x20 ADD PUSH1 0x40 MLOAD SWAP1 DUP2 ADD PUSH1 0x40 MSTORE DUP1 SWAP3 SWAP2 SWAP1 DUP2 DUP2 MSTORE PUSH1 0x20 ADD DUP3 DUP1 SLOAD PUSH2 0x1938 SWAP1 PUSH2 0x3338 JUMP JUMPDEST DUP1 ISZERO PUSH2 0x1983 JUMPI DUP1 PUSH1 0x1F LT PUSH2 0x195A JUMPI PUSH2 0x100 DUP1 DUP4 SLOAD DIV MUL DUP4 MSTORE SWAP2 PUSH1 0x20 ADD SWAP2 PUSH2 0x1983 JUMP JUMPDEST DUP3 ADD SWAP2 SWAP1 PUSH0 MSTORE PUSH1 0x20 PUSH0 KECCAK256 SWAP1 JUMPDEST DUP2 SLOAD DUP2 MSTORE SWAP1 PUSH1 0x1 ADD SWAP1 PUSH1 0x20 ADD DUP1 DUP4 GT PUSH2 0x1966 JUMPI DUP3 SWAP1 SUB PUSH1 0x1F AND DUP3 ADD SWAP2 JUMPDEST POP POP POP POP POP DUP2 MSTORE PUSH1 0x20 ADD PUSH1 0x4 DUP3 ADD DUP1 SLOAD PUSH2 0x199C SWAP1 PUSH2 0x3338 JUMP JUMPDEST DUP1 PUSH1 0x1F ADD PUSH1 0x20 DUP1 SWAP2 DIV MUL PUSH1 0x20 ADD PUSH1 0x40 MLOAD SWAP1 DUP2 ADD PUSH1 0x40 MSTORE DUP1 SWAP3 SWAP2 SWAP1 DUP2 DUP2 MSTORE PUSH1 0x20 ADD DUP3 DUP1 SLOAD PUSH2 0x19C8 SWAP1 PUSH2 0x3338 JUMP JUMPDEST DUP1 ISZERO PUSH2 0x1A13 JUMPI DUP1 PUSH1 0x1F LT PUSH2 0x19EA JUMPI PUSH2 0x100 DUP1 DUP4 SLOAD DIV MUL DUP4 MSTORE SWAP2 PUSH1 0x20 ADD SWAP2 PUSH2 0x1A13 JUMP JUMPDEST DUP3 ADD SWAP2 SWAP1 PUSH0 MSTORE PUSH1 0x20 PUSH0 KECCAK256 SWAP1 JUMPDEST DUP2 SLOAD DUP2 MSTORE SWAP1 PUSH1 0x1 ADD SWAP1 PUSH1 0x20 ADD DUP1 DUP4 GT PUSH2 0x19F6 JUMPI DUP3 SWAP1 SUB PUSH1 0x1F AND DUP3 ADD SWAP2 JUMPDEST POP POP POP POP POP DUP2 MSTORE PUSH1 0x20 ADD PUSH1 0x5 DUP3 ADD PUSH0 SWAP1 SLOAD SWAP1 PUSH2 0x100 EXP SWAP1 DIV PUSH20 0xFFFFFFFFFFFFFFFFFFFFFFFFFFFFFFFFFFFFFFFF AND PUSH20 0xFFFFFFFFFFFFFFFFFFFFFFFFFFFFFFFFFFFFFFFF AND PUSH20 0xFFFFFFFFFFFFFFFFFFFFFFFFFFFFFFFFFFFFFFFF AND DUP2 MSTORE PUSH1 0x20 ADD PUSH1 0x5 DUP3 ADD PUSH1 0x14 SWAP1 SLOAD SWAP1 PUSH2 0x100 EXP SWAP1 DIV PUSH1 0xFF AND ISZERO ISZERO ISZERO ISZERO DUP2 MSTORE PUSH1 0x20 ADD PUSH1 0x5 DUP3 ADD PUSH1 0x15 SWAP1 SLOAD SWAP1 PUSH2 0x100 EXP SWAP1 DIV PUSH1 0xFF AND PUSH1 0x1 DUP2 GT ISZERO PUSH2 0x1AB1 JUMPI PUSH2 0x1AB0 PUSH2 0x2AF1 JUMP JUMPDEST JUMPDEST PUSH1 0x1 DUP2 GT ISZERO PUSH2 0x1AC3 JUMPI PUSH2 0x1AC2 PUSH2 0x2AF1 JUMP JUMPDEST JUMPDEST DUP2 MSTORE PUSH1 0x20 ADD PUSH1 0x6 DUP3 ADD DUP1 SLOAD DUP1 PUSH1 0x20 MUL PUSH1 0x20 ADD PUSH1 0x40 MLOAD SWAP1 DUP2 ADD PUSH1 0x40 MSTORE DUP1 SWAP3 SWAP2 SWAP1 DUP2 DUP2 MSTORE PUSH1 0x20 ADD DUP3 DUP1 SLOAD DUP1 ISZERO PUSH2 0x1B14 JUMPI PUSH1 0x20 MUL DUP3 ADD SWAP2 SWAP1 PUSH0 MSTORE PUSH1 0x20 PUSH0 KECCAK256 SWAP1 JUMPDEST DUP2 SLOAD DUP2 MSTORE PUSH1 0x20 ADD SWAP1 PUSH1 0x1 ADD SWAP1 DUP1 DUP4 GT PUSH2 0x1B00 JUMPI JUMPDEST POP POP POP POP POP DUP2 MSTORE POP POP SWAP1 POP DUP1 DUP3 PUSH1 0x4 ADD PUSH0 DUP3 ADD MLOAD DUP2 PUSH0 ADD SSTORE PUSH1 0x20 DUP3 ADD MLOAD DUP2 PUSH1 0x1 ADD SWAP1 DUP2 PUSH2 0x1B41 SWAP2 SWAP1 PUSH2 0x35EE JUMP JUMPDEST POP PUSH1 0x40 DUP3 ADD MLOAD DUP2 PUSH1 0x2 ADD SWAP1 DUP2 PUSH2 0x1B57 SWAP2 SWAP1 PUSH2 0x35EE JUMP JUMPDEST POP PUSH1 0x60 DUP3 ADD MLOAD DUP2 PUSH1 0x3 ADD SWAP1 DUP2 PUSH2 0x1B6D SWAP2 SWAP1 PUSH2 0x35EE JUMP JUMPDEST POP PUSH1 0x80 DUP3 ADD MLOAD DUP2 PUSH1 0x4 ADD SWAP1 DUP2 PUSH2 0x1B83 SWAP2 SWAP1 PUSH2 0x35EE JUMP JUMPDEST POP PUSH1 0xA0 DUP3 ADD MLOAD DUP2 PUSH1 0x5 ADD PUSH0 PUSH2 0x100 EXP DUP2 SLOAD DUP2 PUSH20 0xFFFFFFFFFFFFFFFFFFFFFFFFFFFFFFFFFFFFFFFF MUL NOT AND SWAP1 DUP4 PUSH20 0xFFFFFFFFFFFFFFFFFFFFFFFFFFFFFFFFFFFFFFFF AND MUL OR SWAP1 SSTORE POP PUSH1 0xC0 DUP3 ADD MLOAD DUP2 PUSH1 0x5 ADD PUSH1 0x14 PUSH2 0x100 EXP DUP2 SLOAD DUP2 PUSH1 0xFF MUL NOT AND SWAP1 DUP4 ISZERO ISZERO MUL OR SWAP1 SSTORE POP PUSH1 0xE0 DUP3 ADD MLOAD DUP2 PUSH1 0x5 ADD PUSH1 0x15 PUSH2 0x100 EXP DUP2 SLOAD DUP2 PUSH1 0xFF MUL NOT AND SWAP1 DUP4 PUSH1 0x1 DUP2 GT ISZERO PUSH2 0x1C15 JUMPI PUSH2 0x1C14 PUSH2 0x2AF1 JUMP JUMPDEST JUMPDEST MUL OR SWAP1 SSTORE POP PUSH2 0x100 DUP3 ADD MLOAD DUP2 PUSH1 0x6 ADD SWAP1 DUP1 MLOAD SWAP1 PUSH1 0x20 ADD SWAP1 PUSH2 0x1C37 SWAP3 SWAP2 SWAP1 PUSH2 0x277D JUMP JUMPDEST POP SWAP1 POP POP PUSH0 DUP3 PUSH1 0xC ADD PUSH0 PUSH2 0x100 EXP DUP2 SLOAD DUP2 PUSH1 0xFF MUL NOT AND SWAP1 DUP4 PUSH1 0x2 DUP2 GT ISZERO PUSH2 0x1C61 JUMPI PUSH2 0x1C60 PUSH2 0x2AF1 JUMP JUMPDEST JUMPDEST MUL OR SWAP1 SSTORE POP PUSH0 DUP3 PUSH1 0xE ADD DUP2 SWAP1 SSTORE POP PUSH32 0x92447C6ECD808D390FB352DA0DC90A05275B074C43BF302132A27FABAFA6872B DUP4 PUSH1 0x40 MLOAD PUSH2 0x1C9E SWAP2 SWAP1 PUSH2 0x35D5 JUMP JUMPDEST PUSH1 0x40 MLOAD DUP1 SWAP2 SUB SWAP1 LOG1 POP POP POP POP POP POP POP POP POP POP JUMP JUMPDEST CALLER PUSH1 0x1 ISZERO ISZERO PUSH1 0x7 PUSH0 DUP4 PUSH20 0xFFFFFFFFFFFFFFFFFFFFFFFFFFFFFFFFFFFFFFFF AND PUSH20 0xFFFFFFFFFFFFFFFFFFFFFFFFFFFFFFFFFFFFFFFF AND DUP2 MSTORE PUSH1 0x20 ADD SWAP1 DUP2 MSTORE PUSH1 0x20 ADD PUSH0 KECCAK256 PUSH0 SWAP1 SLOAD SWAP1 PUSH2 0x100 EXP SWAP1 DIV PUSH1 0xFF AND ISZERO ISZERO EQ PUSH1 0x40 MLOAD DUP1 PUSH1 0x60 ADD PUSH1 0x40 MSTORE DUP1 PUSH1 0x2A DUP2 MSTORE PUSH1 0x20 ADD PUSH2 0x37B8 PUSH1 0x2A SWAP2 CODECOPY SWAP1 PUSH2 0x1D5E JUMPI PUSH1 0x40 MLOAD PUSH32 0x8C379A000000000000000000000000000000000000000000000000000000000 DUP2 MSTORE PUSH1 0x4 ADD PUSH2 0x1D55 SWAP2 SWAP1 PUSH2 0x31EC JUMP JUMPDEST PUSH1 0x40 MLOAD DUP1 SWAP2 SUB SWAP1 REVERT JUMPDEST POP PUSH0 PUSH1 0xC PUSH0 DUP5 DUP2 MSTORE PUSH1 0x20 ADD SWAP1 DUP2 MSTORE PUSH1 0x20 ADD PUSH0 KECCAK256 SWAP1 POP PUSH1 0x2 DUP2 PUSH1 0xB ADD PUSH0 PUSH2 0x100 EXP DUP2 SLOAD DUP2 PUSH1 0xFF MUL NOT AND SWAP1 DUP4 PUSH1 0x2 DUP2 GT ISZERO PUSH2 0x1D9A JUMPI PUSH2 0x1D99 PUSH2 0x2AF1 JUMP JUMPDEST JUMPDEST MUL OR SWAP1 SSTORE POP POP POP POP JUMP JUMPDEST CALLER PUSH1 0x1 ISZERO ISZERO PUSH1 0x8 PUSH0 DUP4 PUSH20 0xFFFFFFFFFFFFFFFFFFFFFFFFFFFFFFFFFFFFFFFF AND PUSH20 0xFFFFFFFFFFFFFFFFFFFFFFFFFFFFFFFFFFFFFFFF AND DUP2 MSTORE PUSH1 0x20 ADD SWAP1 DUP2 MSTORE PUSH1 0x20 ADD PUSH0 KECCAK256 PUSH0 SWAP1 SLOAD SWAP1 PUSH2 0x100 EXP SWAP1 DIV PUSH1 0xFF AND ISZERO ISZERO EQ PUSH1 0x40 MLOAD DUP1 PUSH1 0x60 ADD PUSH1 0x40 MSTORE DUP1 PUSH1 0x2D DUP2 MSTORE PUSH1 0x20 ADD PUSH2 0x37E2 PUSH1 0x2D SWAP2 CODECOPY SWAP1 PUSH2 0x1E50 JUMPI PUSH1 0x40 MLOAD PUSH32 0x8C379A000000000000000000000000000000000000000000000000000000000 DUP2 MSTORE PUSH1 0x4 ADD PUSH2 0x1E47 SWAP2 SWAP1 PUSH2 0x31EC JUMP JUMPDEST PUSH1 0x40 MLOAD DUP1 SWAP2 SUB SWAP1 REVERT JUMPDEST POP DUP4 PUSH0 PUSH1 0xA PUSH0 DUP4 DUP2 MSTORE PUSH1 0x20 ADD SWAP1 DUP2 MSTORE PUSH1 0x20 ADD PUSH0 KECCAK256 SWAP1 POP PUSH0 PUSH1 0x2 DUP2 GT ISZERO PUSH2 0x1E79 JUMPI PUSH2 0x1E78 PUSH2 0x2AF1 JUMP JUMPDEST JUMPDEST DUP2 PUSH1 0xC ADD PUSH0 SWAP1 SLOAD SWAP1 PUSH2 0x100 EXP SWAP1 DIV PUSH1 0xFF AND PUSH1 0x2 DUP2 GT ISZERO PUSH2 0x1E9C JUMPI PUSH2 0x1E9B PUSH2 0x2AF1 JUMP JUMPDEST JUMPDEST EQ PUSH1 0x40 MLOAD DUP1 PUSH1 0x60 ADD PUSH1 0x40 MSTORE DUP1 PUSH1 0x31 DUP2 MSTORE PUSH1 0x20 ADD PUSH2 0x380F PUSH1 0x31 SWAP2 CODECOPY SWAP1 PUSH2 0x1EF7 JUMPI PUSH1 0x40 MLOAD PUSH32 0x8C379A000000000000000000000000000000000000000000000000000000000 DUP2 MSTORE PUSH1 0x4 ADD PUSH2 0x1EEE SWAP2 SWAP1 PUSH2 0x31EC JUMP JUMPDEST PUSH1 0x40 MLOAD DUP1 SWAP2 SUB SWAP1 REVERT JUMPDEST POP PUSH0 PUSH1 0xB PUSH0 DUP2 SLOAD PUSH2 0x1F07 SWAP1 PUSH2 0x3239 JUMP JUMPDEST SWAP2 SWAP1 POP DUP2 SWAP1 SSTORE SWAP1 POP PUSH0 PUSH1 0xA PUSH0 DUP10 DUP2 MSTORE PUSH1 0x20 ADD SWAP1 DUP2 MSTORE PUSH1 0x20 ADD PUSH0 KECCAK256 SWAP1 POP PUSH0 PUSH1 0xC PUSH0 DUP5 DUP2 MSTORE PUSH1 0x20 ADD SWAP1 DUP2 MSTORE PUSH1 0x20 ADD PUSH0 KECCAK256 SWAP1 POP DUP3 DUP2 PUSH0 ADD DUP2 SWAP1 SSTORE POP DUP9 DUP2 PUSH1 0x1 ADD DUP2 SWAP1 SSTORE POP DUP8 DUP8 DUP3 PUSH1 0x2 ADD SWAP2 DUP3 PUSH2 0x1F5B SWAP3 SWAP2 SWAP1 PUSH2 0x3508 JUMP JUMPDEST POP PUSH1 0x2 PUSH0 CALLER PUSH20 0xFFFFFFFFFFFFFFFFFFFFFFFFFFFFFFFFFFFFFFFF AND PUSH20 0xFFFFFFFFFFFFFFFFFFFFFFFFFFFFFFFFFFFFFFFF AND DUP2 MSTORE PUSH1 0x20 ADD SWAP1 DUP2 MSTORE PUSH1 0x20 ADD PUSH0 KECCAK256 DUP2 PUSH1 0x3 ADD PUSH0 DUP3 ADD SLOAD DUP2 PUSH0 ADD SSTORE PUSH1 0x1 DUP3 ADD PUSH0 SWAP1 SLOAD SWAP1 PUSH2 0x100 EXP SWAP1 DIV PUSH20 0xFFFFFFFFFFFFFFFFFFFFFFFFFFFFFFFFFFFFFFFF AND DUP2 PUSH1 0x1 ADD PUSH0 PUSH2 0x100 EXP DUP2 SLOAD DUP2 PUSH20 0xFFFFFFFFFFFFFFFFFFFFFFFFFFFFFFFFFFFFFFFF MUL NOT AND SWAP1 DUP4 PUSH20 0xFFFFFFFFFFFFFFFFFFFFFFFFFFFFFFFFFFFFFFFF AND MUL OR SWAP1 SSTORE POP PUSH1 0x2 DUP3 ADD DUP2 PUSH1 0x2 ADD SWAP1 DUP2 PUSH2 0x201E SWAP2 SWAP1 PUSH2 0x36D2 JUMP JUMPDEST POP PUSH1 0x3 DUP3 ADD DUP2 PUSH1 0x3 ADD SWAP1 DUP2 PUSH2 0x2033 SWAP2 SWAP1 PUSH2 0x36D2 JUMP JUMPDEST POP PUSH1 0x4 DUP3 ADD DUP2 PUSH1 0x4 ADD SWAP1 DUP2 PUSH2 0x2048 SWAP2 SWAP1 PUSH2 0x36D2 JUMP JUMPDEST POP PUSH1 0x5 DUP3 ADD DUP2 PUSH1 0x5 ADD SWAP1 DUP2 PUSH2 0x205D SWAP2 SWAP1 PUSH2 0x36D2 JUMP JUMPDEST POP PUSH1 0x6 DUP3 ADD PUSH0 SWAP1 SLOAD SWAP1 PUSH2 0x100 EXP SWAP1 DIV PUSH1 0xFF AND DUP2 PUSH1 0x6 ADD PUSH0 PUSH2 0x100 EXP DUP2 SLOAD DUP2 PUSH1 0xFF MUL NOT AND SWAP1 DUP4 PUSH1 0x1 DUP2 GT ISZERO PUSH2 0x2094 JUMPI PUSH2 0x2093 PUSH2 0x2AF1 JUMP JUMPDEST JUMPDEST MUL OR SWAP1 SSTORE POP PUSH1 0x7 DUP3 ADD DUP2 PUSH1 0x7 ADD SWAP1 DUP1 SLOAD PUSH2 0x20AF SWAP3 SWAP2 SWAP1 PUSH2 0x27C8 JUMP JUMPDEST POP SWAP1 POP POP PUSH0 DUP2 PUSH1 0xB ADD PUSH0 PUSH2 0x100 EXP DUP2 SLOAD DUP2 PUSH1 0xFF MUL NOT AND SWAP1 DUP4 PUSH1 0x2 DUP2 GT ISZERO PUSH2 0x20D9 JUMPI PUSH2 0x20D8 PUSH2 0x2AF1 JUMP JUMPDEST JUMPDEST MUL OR SWAP1 SSTORE POP DUP2 PUSH1 0xB ADD DUP2 SWAP1 DUP1 PUSH1 0x1 DUP2 SLOAD ADD DUP1 DUP3 SSTORE DUP1 SWAP2 POP POP PUSH1 0x1 SWAP1 SUB SWAP1 PUSH0 MSTORE PUSH1 0x20 PUSH0 KECCAK256 SWAP1 PUSH1 0xC MUL ADD PUSH0 SWAP1 SWAP2 SWAP1 SWAP2 SWAP1 SWAP2 POP PUSH0 DUP3 ADD SLOAD DUP2 PUSH0 ADD SSTORE PUSH1 0x1 DUP3 ADD SLOAD DUP2 PUSH1 0x1 ADD SSTORE PUSH1 0x2 DUP3 ADD DUP2 PUSH1 0x2 ADD SWAP1 DUP2 PUSH2 0x212F SWAP2 SWAP1 PUSH2 0x36D2 JUMP JUMPDEST POP PUSH1 0x3 DUP3 ADD DUP2 PUSH1 0x3 ADD PUSH0 DUP3 ADD SLOAD DUP2 PUSH0 ADD SSTORE PUSH1 0x1 DUP3 ADD PUSH0 SWAP1 SLOAD SWAP1 PUSH2 0x100 EXP SWAP1 DIV PUSH20 0xFFFFFFFFFFFFFFFFFFFFFFFFFFFFFFFFFFFFFFFF AND DUP2 PUSH1 0x1 ADD PUSH0 PUSH2 0x100 EXP DUP2 SLOAD DUP2 PUSH20 0xFFFFFFFFFFFFFFFFFFFFFFFFFFFFFFFFFFFFFFFF MUL NOT AND SWAP1 DUP4 PUSH20 0xFFFFFFFFFFFFFFFFFFFFFFFFFFFFFFFFFFFFFFFF AND MUL OR SWAP1 SSTORE POP PUSH1 0x2 DUP3 ADD DUP2 PUSH1 0x2 ADD SWAP1 DUP2 PUSH2 0x21B9 SWAP2 SWAP1 PUSH2 0x36D2 JUMP JUMPDEST POP PUSH1 0x3 DUP3 ADD DUP2 PUSH1 0x3 ADD SWAP1 DUP2 PUSH2 0x21CE SWAP2 SWAP1 PUSH2 0x36D2 JUMP JUMPDEST POP PUSH1 0x4 DUP3 ADD DUP2 PUSH1 0x4 ADD SWAP1 DUP2 PUSH2 0x21E3 SWAP2 SWAP1 PUSH2 0x36D2 JUMP JUMPDEST POP PUSH1 0x5 DUP3 ADD DUP2 PUSH1 0x5 ADD SWAP1 DUP2 PUSH2 0x21F8 SWAP2 SWAP1 PUSH2 0x36D2 JUMP JUMPDEST POP PUSH1 0x6 DUP3 ADD PUSH0 SWAP1 SLOAD SWAP1 PUSH2 0x100 EXP SWAP1 DIV PUSH1 0xFF AND DUP2 PUSH1 0x6 ADD PUSH0 PUSH2 0x100 EXP DUP2 SLOAD DUP2 PUSH1 0xFF MUL NOT AND SWAP1 DUP4 PUSH1 0x1 DUP2 GT ISZERO PUSH2 0x222F JUMPI PUSH2 0x222E PUSH2 0x2AF1 JUMP JUMPDEST JUMPDEST MUL OR SWAP1 SSTORE POP PUSH1 0x7 DUP3 ADD DUP2 PUSH1 0x7 ADD SWAP1 DUP1 SLOAD PUSH2 0x224A SWAP3 SWAP2 SWAP1 PUSH2 0x27C8 JUMP JUMPDEST POP POP POP PUSH1 0xB DUP3 ADD PUSH0 SWAP1 SLOAD SWAP1 PUSH2 0x100 EXP SWAP1 DIV PUSH1 0xFF AND DUP2 PUSH1 0xB ADD PUSH0 PUSH2 0x100 EXP DUP2 SLOAD DUP2 PUSH1 0xFF MUL NOT AND SWAP1 DUP4 PUSH1 0x2 DUP2 GT ISZERO PUSH2 0x2283 JUMPI PUSH2 0x2282 PUSH2 0x2AF1 JUMP JUMPDEST JUMPDEST MUL OR SWAP1 SSTORE POP POP POP PUSH32 0x4B6126472F7A5C1A21FE858797A6BB6ED361C62B74D480965163D30D68576D4F DUP4 PUSH1 0x40 MLOAD PUSH2 0x22B9 SWAP2 SWAP1 PUSH2 0x35D5 JUMP JUMPDEST PUSH1 0x40 MLOAD DUP1 SWAP2 SUB SWAP1 LOG1 POP POP POP POP POP POP POP POP POP JUMP JUMPDEST PUSH1 0xA PUSH1 0x20 MSTORE DUP1 PUSH0 MSTORE PUSH1 0x40 PUSH0 KECCAK256 PUSH0 SWAP2 POP SWAP1 POP DUP1 PUSH0 ADD SLOAD SWAP1 DUP1 PUSH1 0x1 ADD DUP1 SLOAD PUSH2 0x22F1 SWAP1 PUSH2 0x3338 JUMP JUMPDEST DUP1 PUSH1 0x1F ADD PUSH1 0x20 DUP1 SWAP2 DIV MUL PUSH1 0x20 ADD PUSH1 0x40 MLOAD SWAP1 DUP2 ADD PUSH1 0x40 MSTORE DUP1 SWAP3 SWAP2 SWAP1 DUP2 DUP2 MSTORE PUSH1 0x20 ADD DUP3 DUP1 SLOAD PUSH2 0x231D SWAP1 PUSH2 0x3338 JUMP JUMPDEST DUP1 ISZERO PUSH2 0x2368 JUMPI DUP1 PUSH1 0x1F LT PUSH2 0x233F JUMPI PUSH2 0x100 DUP1 DUP4 SLOAD DIV MUL DUP4 MSTORE SWAP2 PUSH1 0x20 ADD SWAP2 PUSH2 0x2368 JUMP JUMPDEST DUP3 ADD SWAP2 SWAP1 PUSH0 MSTORE PUSH1 0x20 PUSH0 KECCAK256 SWAP1 JUMPDEST DUP2 SLOAD DUP2 MSTORE SWAP1 PUSH1 0x1 ADD SWAP1 PUSH1 0x20 ADD DUP1 DUP4 GT PUSH2 0x234B JUMPI DUP3 SWAP1 SUB PUSH1 0x1F AND DUP3 ADD SWAP2 JUMPDEST POP POP POP POP POP SWAP1 DUP1 PUSH1 0x2 ADD DUP1 SLOAD PUSH2 0x237D SWAP1 PUSH2 0x3338 JUMP JUMPDEST DUP1 PUSH1 0x1F ADD PUSH1 0x20 DUP1 SWAP2 DIV MUL PUSH1 0x20 ADD PUSH1 0x40 MLOAD SWAP1 DUP2 ADD PUSH1 0x40 MSTORE DUP1 SWAP3 SWAP2 SWAP1 DUP2 DUP2 MSTORE PUSH1 0x20 ADD DUP3 DUP1 SLOAD PUSH2 0x23A9 SWAP1 PUSH2 0x3338 JUMP JUMPDEST DUP1 ISZERO PUSH2 0x23F4 JUMPI DUP1 PUSH1 0x1F LT PUSH2 0x23CB JUMPI PUSH2 0x100 DUP1 DUP4 SLOAD DIV MUL DUP4 MSTORE SWAP2 PUSH1 0x20 ADD SWAP2 PUSH2 0x23F4 JUMP JUMPDEST DUP3 ADD SWAP2 SWAP1 PUSH0 MSTORE PUSH1 0x20 PUSH0 KECCAK256 SWAP1 JUMPDEST DUP2 SLOAD DUP2 MSTORE SWAP1 PUSH1 0x1 ADD SWAP1 PUSH1 0x20 ADD DUP1 DUP4 GT PUSH2 0x23D7 JUMPI DUP3 SWAP1 SUB PUSH1 0x1F AND DUP3 ADD SWAP2 JUMPDEST POP POP POP POP POP SWAP1 DUP1 PUSH1 0x3 ADD SLOAD SWAP1 DUP1 PUSH1 0x4 ADD PUSH1 0x40 MLOAD DUP1 PUSH2 0x120 ADD PUSH1 0x40 MSTORE SWAP1 DUP2 PUSH0 DUP3 ADD SLOAD DUP2 MSTORE PUSH1 0x20 ADD PUSH1 0x1 DUP3 ADD DUP1 SLOAD PUSH2 0x2429 SWAP1 PUSH2 0x3338 JUMP JUMPDEST DUP1 PUSH1 0x1F ADD PUSH1 0x20 DUP1 SWAP2 DIV MUL PUSH1 0x20 ADD PUSH1 0x40 MLOAD SWAP1 DUP2 ADD PUSH1 0x40 MSTORE DUP1 SWAP3 SWAP2 SWAP1 DUP2 DUP2 MSTORE PUSH1 0x20 ADD DUP3 DUP1 SLOAD PUSH2 0x2455 SWAP1 PUSH2 0x3338 JUMP JUMPDEST DUP1 ISZERO PUSH2 0x24A0 JUMPI DUP1 PUSH1 0x1F LT PUSH2 0x2477 JUMPI PUSH2 0x100 DUP1 DUP4 SLOAD DIV MUL DUP4 MSTORE SWAP2 PUSH1 0x20 ADD SWAP2 PUSH2 0x24A0 JUMP JUMPDEST DUP3 ADD SWAP2 SWAP1 PUSH0 MSTORE PUSH1 0x20 PUSH0 KECCAK256 SWAP1 JUMPDEST DUP2 SLOAD DUP2 MSTORE SWAP1 PUSH1 0x1 ADD SWAP1 PUSH1 0x20 ADD DUP1 DUP4 GT PUSH2 0x2483 JUMPI DUP3 SWAP1 SUB PUSH1 0x1F AND DUP3 ADD SWAP2 JUMPDEST POP POP POP POP POP DUP2 MSTORE PUSH1 0x20 ADD PUSH1 0x2 DUP3 ADD DUP1 SLOAD PUSH2 0x24B9 SWAP1 PUSH2 0x3338 JUMP JUMPDEST DUP1 PUSH1 0x1F ADD PUSH1 0x20 DUP1 SWAP2 DIV MUL PUSH1 0x20 ADD PUSH1 0x40 MLOAD SWAP1 DUP2 ADD PUSH1 0x40 MSTORE DUP1 SWAP3 SWAP2 SWAP1 DUP2 DUP2 MSTORE PUSH1 0x20 ADD DUP3 DUP1 SLOAD PUSH2 0x24E5 SWAP1 PUSH2 0x3338 JUMP JUMPDEST DUP1 ISZERO PUSH2 0x2530 JUMPI DUP1 PUSH1 0x1F LT PUSH2 0x2507 JUMPI PUSH2 0x100 DUP1 DUP4 SLOAD DIV MUL DUP4 MSTORE SWAP2 PUSH1 0x20 ADD SWAP2 PUSH2 0x2530 JUMP JUMPDEST DUP3 ADD SWAP2 SWAP1 PUSH0 MSTORE PUSH1 0x20 PUSH0 KECCAK256 SWAP1 JUMPDEST DUP2 SLOAD DUP2 MSTORE SWAP1 PUSH1 0x1 ADD SWAP1 PUSH1 0x20 ADD DUP1 DUP4 GT PUSH2 0x2513 JUMPI DUP3 SWAP1 SUB PUSH1 0x1F AND DUP3 ADD SWAP2 JUMPDEST POP POP POP POP POP DUP2 MSTORE PUSH1 0x20 ADD PUSH1 0x3 DUP3 ADD DUP1 SLOAD PUSH2 0x2549 SWAP1 PUSH2 0x3338 JUMP JUMPDEST DUP1 PUSH1 0x1F ADD PUSH1 0x20 DUP1 SWAP2 DIV MUL PUSH1 0x20 ADD PUSH1 0x40 MLOAD SWAP1 DUP2 ADD PUSH1 0x40 MSTORE DUP1 SWAP3 SWAP2 SWAP1 DUP2 DUP2 MSTORE PUSH1 0x20 ADD DUP3 DUP1 SLOAD PUSH2 0x2575 SWAP1 PUSH2 0x3338 JUMP JUMPDEST DUP1 ISZERO PUSH2 0x25C0 JUMPI DUP1 PUSH1 0x1F LT PUSH2 0x2597 JUMPI PUSH2 0x100 DUP1 DUP4 SLOAD DIV MUL DUP4 MSTORE SWAP2 PUSH1 0x20 ADD SWAP2 PUSH2 0x25C0 JUMP JUMPDEST DUP3 ADD SWAP2 SWAP1 PUSH0 MSTORE PUSH1 0x20 PUSH0 KECCAK256 SWAP1 JUMPDEST DUP2 SLOAD DUP2 MSTORE SWAP1 PUSH1 0x1 ADD SWAP1 PUSH1 0x20 ADD DUP1 DUP4 GT PUSH2 0x25A3 JUMPI DUP3 SWAP1 SUB PUSH1 0x1F AND DUP3 ADD SWAP2 JUMPDEST POP POP POP POP POP DUP2 MSTORE PUSH1 0x20 ADD PUSH1 0x4 DUP3 ADD DUP1 SLOAD PUSH2 0x25D9 SWAP1 PUSH2 0x3338 JUMP JUMPDEST DUP1 PUSH1 0x1F ADD PUSH1 0x20 DUP1 SWAP2 DIV MUL PUSH1 0x20 ADD PUSH1 0x40 MLOAD SWAP1 DUP2 ADD PUSH1 0x40 MSTORE DUP1 SWAP3 SWAP2 SWAP1 DUP2 DUP2 MSTORE PUSH1 0x20 ADD DUP3 DUP1 SLOAD PUSH2 0x2605 SWAP1 PUSH2 0x3338 JUMP JUMPDEST DUP1 ISZERO PUSH2 0x2650 JUMPI DUP1 PUSH1 0x1F LT PUSH2 0x2627 JUMPI PUSH2 0x100 DUP1 DUP4 SLOAD DIV MUL DUP4 MSTORE SWAP2 PUSH1 0x20 ADD SWAP2 PUSH2 0x2650 JUMP JUMPDEST DUP3 ADD SWAP2 SWAP1 PUSH0 MSTORE PUSH1 0x20 PUSH0 KECCAK256 SWAP1 JUMPDEST DUP2 SLOAD DUP2 MSTORE SWAP1 PUSH1 0x1 ADD SWAP1 PUSH1 0x20 ADD DUP1 DUP4 GT PUSH2 0x2633 JUMPI DUP3 SWAP1 SUB PUSH1 0x1F AND DUP3 ADD SWAP2 JUMPDEST POP POP POP POP POP DUP2 MSTORE PUSH1 0x20 ADD PUSH1 0x5 DUP3 ADD PUSH0 SWAP1 SLOAD SWAP1 PUSH2 0x100 EXP SWAP1 DIV PUSH20 0xFFFFFFFFFFFFFFFFFFFFFFFFFFFFFFFFFFFFFFFF AND PUSH20 0xFFFFFFFFFFFFFFFFFFFFFFFFFFFFFFFFFFFFFFFF AND PUSH20 0xFFFFFFFFFFFFFFFFFFFFFFFFFFFFFFFFFFFFFFFF AND DUP2 MSTORE PUSH1 0x20 ADD PUSH1 0x5 DUP3 ADD PUSH1 0x14 SWAP1 SLOAD SWAP1 PUSH2 0x100 EXP SWAP1 DIV PUSH1 0xFF AND ISZERO ISZERO ISZERO ISZERO DUP2 MSTORE PUSH1 0x20 ADD PUSH1 0x5 DUP3 ADD PUSH1 0x15 SWAP1 SLOAD SWAP1 PUSH2 0x100 EXP SWAP1 DIV PUSH1 0xFF AND PUSH1 0x1 DUP2 GT ISZERO PUSH2 0x26EE JUMPI PUSH2 0x26ED PUSH2 0x2AF1 JUMP JUMPDEST JUMPDEST PUSH1 0x1 DUP2 GT ISZERO PUSH2 0x2700 JUMPI PUSH2 0x26FF PUSH2 0x2AF1 JUMP JUMPDEST JUMPDEST DUP2 MSTORE PUSH1 0x20 ADD PUSH1 0x6 DUP3 ADD DUP1 SLOAD DUP1 PUSH1 0x20 MUL PUSH1 0x20 ADD PUSH1 0x40 MLOAD SWAP1 DUP2 ADD PUSH1 0x40 MSTORE DUP1 SWAP3 SWAP2 SWAP1 DUP2 DUP2 MSTORE PUSH1 0x20 ADD DUP3 DUP1 SLOAD DUP1 ISZERO PUSH2 0x2751 JUMPI PUSH1 0x20 MUL DUP3 ADD SWAP2 SWAP1 PUSH0 MSTORE PUSH1 0x20 PUSH0 KECCAK256 SWAP1 JUMPDEST DUP2 SLOAD DUP2 MSTORE PUSH1 0x20 ADD SWAP1 PUSH1 0x1 ADD SWAP1 DUP1 DUP4 GT PUSH2 0x273D JUMPI JUMPDEST POP POP POP POP POP DUP2 MSTORE POP POP SWAP1 DUP1 PUSH1 0xC ADD PUSH0 SWAP1 SLOAD SWAP1 PUSH2 0x100 EXP SWAP1 DIV PUSH1 0xFF AND SWAP1 DUP1 PUSH1 0xD ADD SLOAD SWAP1 DUP1 PUSH1 0xE ADD SLOAD SWAP1 POP DUP9 JUMP JUMPDEST DUP3 DUP1 SLOAD DUP3 DUP3 SSTORE SWAP1 PUSH0 MSTORE PUSH1 0x20 PUSH0 KECCAK256 SWAP1 DUP2 ADD SWAP3 DUP3 ISZERO PUSH2 0x27B7 JUMPI SWAP2 PUSH1 0x20 MUL DUP3 ADD JUMPDEST DUP3 DUP2 GT ISZERO PUSH2 0x27B6 JUMPI DUP3 MLOAD DUP3 SSTORE SWAP2 PUSH1 0x20 ADD SWAP2 SWAP1 PUSH1 0x1 ADD SWAP1 PUSH2 0x279B JUMP JUMPDEST JUMPDEST POP SWAP1 POP PUSH2 0x27C4 SWAP2 SWAP1 PUSH2 0x2816 JUMP JUMPDEST POP SWAP1 JUMP JUMPDEST DUP3 DUP1 SLOAD DUP3 DUP3 SSTORE SWAP1 PUSH0 MSTORE PUSH1 0x20 PUSH0 KECCAK256 SWAP1 DUP2 ADD SWAP3 DUP3 ISZERO PUSH2 0x2805 JUMPI PUSH0 MSTORE PUSH1 0x20 PUSH0 KECCAK256 SWAP2 DUP3 ADD JUMPDEST DUP3 DUP2 GT ISZERO PUSH2 0x2804 JUMPI DUP3 SLOAD DUP3 SSTORE SWAP2 PUSH1 0x1 ADD SWAP2 SWAP1 PUSH1 0x1 ADD SWAP1 PUSH2 0x27E9 JUMP JUMPDEST JUMPDEST POP SWAP1 POP PUSH2 0x2812 SWAP2 SWAP1 PUSH2 0x2816 JUMP JUMPDEST POP SWAP1 JUMP JUMPDEST JUMPDEST DUP1 DUP3 GT ISZERO PUSH2 0x282D JUMPI PUSH0 DUP2 PUSH0 SWAP1 SSTORE POP PUSH1 0x1 ADD PUSH2 0x2817 JUMP JUMPDEST POP SWAP1 JUMP JUMPDEST PUSH0 PUSH0 REVERT JUMPDEST PUSH0 PUSH0 REVERT JUMPDEST PUSH0 DUP2 SWAP1 POP SWAP2 SWAP1 POP JUMP JUMPDEST PUSH2 0x284B DUP2 PUSH2 0x2839 JUMP JUMPDEST DUP2 EQ PUSH2 0x2855 JUMPI PUSH0 PUSH0 REVERT JUMPDEST POP JUMP JUMPDEST PUSH0 DUP2 CALLDATALOAD SWAP1 POP PUSH2 0x2866 DUP2 PUSH2 0x2842 JUMP JUMPDEST SWAP3 SWAP2 POP POP JUMP JUMPDEST PUSH0 PUSH1 0x20 DUP3 DUP5 SUB SLT ISZERO PUSH2 0x2881 JUMPI PUSH2 0x2880 PUSH2 0x2831 JUMP JUMPDEST JUMPDEST PUSH0 PUSH2 0x288E DUP5 DUP3 DUP6 ADD PUSH2 0x2858 JUMP JUMPDEST SWAP2 POP POP SWAP3 SWAP2 POP POP JUMP JUMPDEST PUSH0 PUSH0 REVERT JUMPDEST PUSH0 PUSH0 REVERT JUMPDEST PUSH0 PUSH0 REVERT JUMPDEST PUSH0 PUSH0 DUP4 PUSH1 0x1F DUP5 ADD SLT PUSH2 0x28B8 JUMPI PUSH2 0x28B7 PUSH2 0x2897 JUMP JUMPDEST JUMPDEST DUP3 CALLDATALOAD SWAP1 POP PUSH8 0xFFFFFFFFFFFFFFFF DUP2 GT ISZERO PUSH2 0x28D5 JUMPI PUSH2 0x28D4 PUSH2 0x289B JUMP JUMPDEST JUMPDEST PUSH1 0x20 DUP4 ADD SWAP2 POP DUP4 PUSH1 0x1 DUP3 MUL DUP4 ADD GT ISZERO PUSH2 0x28F1 JUMPI PUSH2 0x28F0 PUSH2 0x289F JUMP JUMPDEST JUMPDEST SWAP3 POP SWAP3 SWAP1 POP JUMP JUMPDEST PUSH0 PUSH0 PUSH0 PUSH0 PUSH0 PUSH0 PUSH0 PUSH0 PUSH1 0x80 DUP10 DUP12 SUB SLT ISZERO PUSH2 0x2914 JUMPI PUSH2 0x2913 PUSH2 0x2831 JUMP JUMPDEST JUMPDEST PUSH0 DUP10 ADD CALLDATALOAD PUSH8 0xFFFFFFFFFFFFFFFF DUP2 GT ISZERO PUSH2 0x2931 JUMPI PUSH2 0x2930 PUSH2 0x2835 JUMP JUMPDEST JUMPDEST PUSH2 0x293D DUP12 DUP3 DUP13 ADD PUSH2 0x28A3 JUMP JUMPDEST SWAP9 POP SWAP9 POP POP PUSH1 0x20 DUP10 ADD CALLDATALOAD PUSH8 0xFFFFFFFFFFFFFFFF DUP2 GT ISZERO PUSH2 0x2960 JUMPI PUSH2 0x295F PUSH2 0x2835 JUMP JUMPDEST JUMPDEST PUSH2 0x296C DUP12 DUP3 DUP13 ADD PUSH2 0x28A3 JUMP JUMPDEST SWAP7 POP SWAP7 POP POP PUSH1 0x40 DUP10 ADD CALLDATALOAD PUSH8 0xFFFFFFFFFFFFFFFF DUP2 GT ISZERO PUSH2 0x298F JUMPI PUSH2 0x298E PUSH2 0x2835 JUMP JUMPDEST JUMPDEST PUSH2 0x299B DUP12 DUP3 DUP13 ADD PUSH2 0x28A3 JUMP JUMPDEST SWAP5 POP SWAP5 POP POP PUSH1 0x60 DUP10 ADD CALLDATALOAD PUSH8 0xFFFFFFFFFFFFFFFF DUP2 GT ISZERO PUSH2 0x29BE JUMPI PUSH2 0x29BD PUSH2 0x2835 JUMP JUMPDEST JUMPDEST PUSH2 0x29CA DUP12 DUP3 DUP13 ADD PUSH2 0x28A3 JUMP JUMPDEST SWAP3 POP SWAP3 POP POP SWAP3 SWAP6 SWAP9 POP SWAP3 SWAP6 SWAP9 SWAP1 SWAP4 SWAP7 POP JUMP JUMPDEST PUSH2 0x29E5 DUP2 PUSH2 0x2839 JUMP JUMPDEST DUP3 MSTORE POP POP JUMP JUMPDEST PUSH0 DUP2 MLOAD SWAP1 POP SWAP2 SWAP1 POP JUMP JUMPDEST PUSH0 DUP3 DUP3 MSTORE PUSH1 0x20 DUP3 ADD SWAP1 POP SWAP3 SWAP2 POP POP JUMP JUMPDEST DUP3 DUP2 DUP4 MCOPY PUSH0 DUP4 DUP4 ADD MSTORE POP POP POP JUMP JUMPDEST PUSH0 PUSH1 0x1F NOT PUSH1 0x1F DUP4 ADD AND SWAP1 POP SWAP2 SWAP1 POP JUMP JUMPDEST PUSH0 PUSH2 0x2A2D DUP3 PUSH2 0x29EB JUMP JUMPDEST PUSH2 0x2A37 DUP2 DUP6 PUSH2 0x29F5 JUMP JUMPDEST SWAP4 POP PUSH2 0x2A47 DUP2 DUP6 PUSH1 0x20 DUP7 ADD PUSH2 0x2A05 JUMP JUMPDEST PUSH2 0x2A50 DUP2 PUSH2 0x2A13 JUMP JUMPDEST DUP5 ADD SWAP2 POP POP SWAP3 SWAP2 POP POP JUMP JUMPDEST PUSH2 0x2A64 DUP2 PUSH2 0x2839 JUMP JUMPDEST DUP3 MSTORE POP POP JUMP JUMPDEST PUSH0 PUSH20 0xFFFFFFFFFFFFFFFFFFFFFFFFFFFFFFFFFFFFFFFF DUP3 AND SWAP1 POP SWAP2 SWAP1 POP JUMP JUMPDEST PUSH0 PUSH2 0x2A93 DUP3 PUSH2 0x2A6A JUMP JUMPDEST SWAP1 POP SWAP2 SWAP1 POP JUMP JUMPDEST PUSH2 0x2AA3 DUP2 PUSH2 0x2A89 JUMP JUMPDEST DUP3 MSTORE POP POP JUMP JUMPDEST PUSH0 DUP3 DUP3 MSTORE PUSH1 0x20 DUP3 ADD SWAP1 POP SWAP3 SWAP2 POP POP JUMP JUMPDEST PUSH0 PUSH2 0x2AC3 DUP3 PUSH2 0x29EB JUMP JUMPDEST PUSH2 0x2ACD DUP2 DUP6 PUSH2 0x2AA9 JUMP JUMPDEST SWAP4 POP PUSH2 0x2ADD DUP2 DUP6 PUSH1 0x20 DUP7 ADD PUSH2 0x2A05 JUMP JUMPDEST PUSH2 0x2AE6 DUP2 PUSH2 0x2A13 JUMP JUMPDEST DUP5 ADD SWAP2 POP POP SWAP3 SWAP2 POP POP JUMP JUMPDEST PUSH32 0x4E487B7100000000000000000000000000000000000000000000000000000000 PUSH0 MSTORE PUSH1 0x21 PUSH1 0x4 MSTORE PUSH1 0x24 PUSH0 REVERT JUMPDEST PUSH1 0x2 DUP2 LT PUSH2 0x2B2F JUMPI PUSH2 0x2B2E PUSH2 0x2AF1 JUMP JUMPDEST JUMPDEST POP JUMP JUMPDEST PUSH0 DUP2 SWAP1 POP PUSH2 0x2B3F DUP3 PUSH2 0x2B1E JUMP JUMPDEST SWAP2 SWAP1 POP JUMP JUMPDEST PUSH0 PUSH2 0x2B4E DUP3 PUSH2 0x2B32 JUMP JUMPDEST SWAP1 POP SWAP2 SWAP1 POP JUMP JUMPDEST PUSH2 0x2B5E DUP2 PUSH2 0x2B44 JUMP JUMPDEST DUP3 MSTORE POP POP JUMP JUMPDEST PUSH0 DUP2 MLOAD SWAP1 POP SWAP2 SWAP1 POP JUMP JUMPDEST PUSH0 DUP3 DUP3 MSTORE PUSH1 0x20 DUP3 ADD SWAP1 POP SWAP3 SWAP2 POP POP JUMP JUMPDEST PUSH0 DUP2 SWAP1 POP PUSH1 0x20 DUP3 ADD SWAP1 POP SWAP2 SWAP1 POP JUMP JUMPDEST PUSH0 PUSH2 0x2B98 DUP4 DUP4 PUSH2 0x2A5B JUMP JUMPDEST PUSH1 0x20 DUP4 ADD SWAP1 POP SWAP3 SWAP2 POP POP JUMP JUMPDEST PUSH0 PUSH1 0x20 DUP3 ADD SWAP1 POP SWAP2 SWAP1 POP JUMP JUMPDEST PUSH0 PUSH2 0x2BBA DUP3 PUSH2 0x2B64 JUMP JUMPDEST PUSH2 0x2BC4 DUP2 DUP6 PUSH2 0x2B6E JUMP JUMPDEST SWAP4 POP PUSH2 0x2BCF DUP4 PUSH2 0x2B7E JUMP JUMPDEST DUP1 PUSH0 JUMPDEST DUP4 DUP2 LT ISZERO PUSH2 0x2BFF JUMPI DUP2 MLOAD PUSH2 0x2BE6 DUP9 DUP3 PUSH2 0x2B8D JUMP JUMPDEST SWAP8 POP PUSH2 0x2BF1 DUP4 PUSH2 0x2BA4 JUMP JUMPDEST SWAP3 POP POP PUSH1 0x1 DUP2 ADD SWAP1 POP PUSH2 0x2BD2 JUMP JUMPDEST POP DUP6 SWAP4 POP POP POP POP SWAP3 SWAP2 POP POP JUMP JUMPDEST PUSH0 PUSH2 0x100 DUP4 ADD PUSH0 DUP4 ADD MLOAD PUSH2 0x2C22 PUSH0 DUP7 ADD DUP3 PUSH2 0x2A5B JUMP JUMPDEST POP PUSH1 0x20 DUP4 ADD MLOAD PUSH2 0x2C35 PUSH1 0x20 DUP7 ADD DUP3 PUSH2 0x2A9A JUMP JUMPDEST POP PUSH1 0x40 DUP4 ADD MLOAD DUP5 DUP3 SUB PUSH1 0x40 DUP7 ADD MSTORE PUSH2 0x2C4D DUP3 DUP3 PUSH2 0x2AB9 JUMP JUMPDEST SWAP2 POP POP PUSH1 0x60 DUP4 ADD MLOAD DUP5 DUP3 SUB PUSH1 0x60 DUP7 ADD MSTORE PUSH2 0x2C67 DUP3 DUP3 PUSH2 0x2AB9 JUMP JUMPDEST SWAP2 POP POP PUSH1 0x80 DUP4 ADD MLOAD DUP5 DUP3 SUB PUSH1 0x80 DUP7 ADD MSTORE PUSH2 0x2C81 DUP3 DUP3 PUSH2 0x2AB9 JUMP JUMPDEST SWAP2 POP POP PUSH1 0xA0 DUP4 ADD MLOAD DUP5 DUP3 SUB PUSH1 0xA0 DUP7 ADD MSTORE PUSH2 0x2C9B DUP3 DUP3 PUSH2 0x2AB9 JUMP JUMPDEST SWAP2 POP POP PUSH1 0xC0 DUP4 ADD MLOAD PUSH2 0x2CB0 PUSH1 0xC0 DUP7 ADD DUP3 PUSH2 0x2B55 JUMP JUMPDEST POP PUSH1 0xE0 DUP4 ADD MLOAD DUP5 DUP3 SUB PUSH1 0xE0 DUP7 ADD MSTORE PUSH2 0x2CC8 DUP3 DUP3 PUSH2 0x2BB0 JUMP JUMPDEST SWAP2 POP POP DUP1 SWAP2 POP POP SWAP3 SWAP2 POP POP JUMP JUMPDEST PUSH1 0x3 DUP2 LT PUSH2 0x2CE6 JUMPI PUSH2 0x2CE5 PUSH2 0x2AF1 JUMP JUMPDEST JUMPDEST POP JUMP JUMPDEST PUSH0 DUP2 SWAP1 POP PUSH2 0x2CF6 DUP3 PUSH2 0x2CD5 JUMP JUMPDEST SWAP2 SWAP1 POP JUMP JUMPDEST PUSH0 PUSH2 0x2D05 DUP3 PUSH2 0x2CE9 JUMP JUMPDEST SWAP1 POP SWAP2 SWAP1 POP JUMP JUMPDEST PUSH2 0x2D15 DUP2 PUSH2 0x2CFB JUMP JUMPDEST DUP3 MSTORE POP POP JUMP JUMPDEST PUSH0 PUSH1 0xA0 DUP3 ADD SWAP1 POP PUSH2 0x2D2E PUSH0 DUP4 ADD DUP9 PUSH2 0x29DC JUMP JUMPDEST PUSH2 0x2D3B PUSH1 0x20 DUP4 ADD DUP8 PUSH2 0x29DC JUMP JUMPDEST DUP2 DUP2 SUB PUSH1 0x40 DUP4 ADD MSTORE PUSH2 0x2D4D DUP2 DUP7 PUSH2 0x2A23 JUMP JUMPDEST SWAP1 POP DUP2 DUP2 SUB PUSH1 0x60 DUP4 ADD MSTORE PUSH2 0x2D61 DUP2 DUP6 PUSH2 0x2C0C JUMP JUMPDEST SWAP1 POP PUSH2 0x2D70 PUSH1 0x80 DUP4 ADD DUP5 PUSH2 0x2D0C JUMP JUMPDEST SWAP7 SWAP6 POP POP POP POP POP POP JUMP JUMPDEST PUSH2 0x2D83 DUP2 PUSH2 0x2A89 JUMP JUMPDEST DUP2 EQ PUSH2 0x2D8D JUMPI PUSH0 PUSH0 REVERT JUMPDEST POP JUMP JUMPDEST PUSH0 DUP2 CALLDATALOAD SWAP1 POP PUSH2 0x2D9E DUP2 PUSH2 0x2D7A JUMP JUMPDEST SWAP3 SWAP2 POP POP JUMP JUMPDEST PUSH0 PUSH1 0x20 DUP3 DUP5 SUB SLT ISZERO PUSH2 0x2DB9 JUMPI PUSH2 0x2DB8 PUSH2 0x2831 JUMP JUMPDEST JUMPDEST PUSH0 PUSH2 0x2DC6 DUP5 DUP3 DUP6 ADD PUSH2 0x2D90 JUMP JUMPDEST SWAP2 POP POP SWAP3 SWAP2 POP POP JUMP JUMPDEST PUSH2 0x2DD8 DUP2 PUSH2 0x2A89 JUMP JUMPDEST DUP3 MSTORE POP POP JUMP JUMPDEST PUSH2 0x2DE7 DUP2 PUSH2 0x2B44 JUMP JUMPDEST DUP3 MSTORE POP POP JUMP JUMPDEST PUSH0 PUSH1 0xE0 DUP3 ADD SWAP1 POP PUSH2 0x2E00 PUSH0 DUP4 ADD DUP11 PUSH2 0x29DC JUMP JUMPDEST PUSH2 0x2E0D PUSH1 0x20 DUP4 ADD DUP10 PUSH2 0x2DCF JUMP JUMPDEST DUP2 DUP2 SUB PUSH1 0x40 DUP4 ADD MSTORE PUSH2 0x2E1F DUP2 DUP9 PUSH2 0x2A23 JUMP JUMPDEST SWAP1 POP DUP2 DUP2 SUB PUSH1 0x60 DUP4 ADD MSTORE PUSH2 0x2E33 DUP2 DUP8 PUSH2 0x2A23 JUMP JUMPDEST SWAP1 POP DUP2 DUP2 SUB PUSH1 0x80 DUP4 ADD MSTORE PUSH2 0x2E47 DUP2 DUP7 PUSH2 0x2A23 JUMP JUMPDEST SWAP1 POP DUP2 DUP2 SUB PUSH1 0xA0 DUP4 ADD MSTORE PUSH2 0x2E5B DUP2 DUP6 PUSH2 0x2A23 JUMP JUMPDEST SWAP1 POP PUSH2 0x2E6A PUSH1 0xC0 DUP4 ADD DUP5 PUSH2 0x2DDE JUMP JUMPDEST SWAP9 SWAP8 POP POP POP POP POP POP POP POP JUMP JUMPDEST PUSH0 DUP2 ISZERO ISZERO SWAP1 POP SWAP2 SWAP1 POP JUMP JUMPDEST PUSH2 0x2E8A DUP2 PUSH2 0x2E76 JUMP JUMPDEST DUP3 MSTORE POP POP JUMP JUMPDEST PUSH0 PUSH2 0x100 DUP3 ADD SWAP1 POP PUSH2 0x2EA4 PUSH0 DUP4 ADD DUP12 PUSH2 0x29DC JUMP JUMPDEST DUP2 DUP2 SUB PUSH1 0x20 DUP4 ADD MSTORE PUSH2 0x2EB6 DUP2 DUP11 PUSH2 0x2A23 JUMP JUMPDEST SWAP1 POP DUP2 DUP2 SUB PUSH1 0x40 DUP4 ADD MSTORE PUSH2 0x2ECA DUP2 DUP10 PUSH2 0x2A23 JUMP JUMPDEST SWAP1 POP DUP2 DUP2 SUB PUSH1 0x60 DUP4 ADD MSTORE PUSH2 0x2EDE DUP2 DUP9 PUSH2 0x2A23 JUMP JUMPDEST SWAP1 POP DUP2 DUP2 SUB PUSH1 0x80 DUP4 ADD MSTORE PUSH2 0x2EF2 DUP2 DUP8 PUSH2 0x2A23 JUMP JUMPDEST SWAP1 POP PUSH2 0x2F01 PUSH1 0xA0 DUP4 ADD DUP7 PUSH2 0x2DCF JUMP JUMPDEST PUSH2 0x2F0E PUSH1 0xC0 DUP4 ADD DUP6 PUSH2 0x2E81 JUMP JUMPDEST PUSH2 0x2F1B PUSH1 0xE0 DUP4 ADD DUP5 PUSH2 0x2DDE JUMP JUMPDEST SWAP10 SWAP9 POP POP POP POP POP POP POP POP POP JUMP JUMPDEST PUSH0 PUSH0 PUSH0 PUSH0 PUSH0 PUSH0 PUSH1 0x80 DUP8 DUP10 SUB SLT ISZERO PUSH2 0x2F42 JUMPI PUSH2 0x2F41 PUSH2 0x2831 JUMP JUMPDEST JUMPDEST PUSH0 DUP8 ADD CALLDATALOAD PUSH8 0xFFFFFFFFFFFFFFFF DUP2 GT ISZERO PUSH2 0x2F5F JUMPI PUSH2 0x2F5E PUSH2 0x2835 JUMP JUMPDEST JUMPDEST PUSH2 0x2F6B DUP10 DUP3 DUP11 ADD PUSH2 0x28A3 JUMP JUMPDEST SWAP7 POP SWAP7 POP POP PUSH1 0x20 DUP8 ADD CALLDATALOAD PUSH8 0xFFFFFFFFFFFFFFFF DUP2 GT ISZERO PUSH2 0x2F8E JUMPI PUSH2 0x2F8D PUSH2 0x2835 JUMP JUMPDEST JUMPDEST PUSH2 0x2F9A DUP10 DUP3 DUP11 ADD PUSH2 0x28A3 JUMP JUMPDEST SWAP5 POP SWAP5 POP POP PUSH1 0x40 PUSH2 0x2FAD DUP10 DUP3 DUP11 ADD PUSH2 0x2858 JUMP JUMPDEST SWAP3 POP POP PUSH1 0x60 PUSH2 0x2FBE DUP10 DUP3 DUP11 ADD PUSH2 0x2858 JUMP JUMPDEST SWAP2 POP POP SWAP3 SWAP6 POP SWAP3 SWAP6 POP SWAP3 SWAP6 JUMP JUMPDEST PUSH0 PUSH0 PUSH0 PUSH1 0x40 DUP5 DUP7 SUB SLT ISZERO PUSH2 0x2FE2 JUMPI PUSH2 0x2FE1 PUSH2 0x2831 JUMP JUMPDEST JUMPDEST PUSH0 PUSH2 0x2FEF DUP7 DUP3 DUP8 ADD PUSH2 0x2858 JUMP JUMPDEST SWAP4 POP POP PUSH1 0x20 DUP5 ADD CALLDATALOAD PUSH8 0xFFFFFFFFFFFFFFFF DUP2 GT ISZERO PUSH2 0x3010 JUMPI PUSH2 0x300F PUSH2 0x2835 JUMP JUMPDEST JUMPDEST PUSH2 0x301C DUP7 DUP3 DUP8 ADD PUSH2 0x28A3 JUMP JUMPDEST SWAP3 POP SWAP3 POP POP SWAP3 POP SWAP3 POP SWAP3 JUMP JUMPDEST PUSH2 0x3031 DUP2 PUSH2 0x2E76 JUMP JUMPDEST DUP3 MSTORE POP POP JUMP JUMPDEST PUSH0 PUSH2 0x120 DUP4 ADD PUSH0 DUP4 ADD MLOAD PUSH2 0x304D PUSH0 DUP7 ADD DUP3 PUSH2 0x2A5B JUMP JUMPDEST POP PUSH1 0x20 DUP4 ADD MLOAD DUP5 DUP3 SUB PUSH1 0x20 DUP7 ADD MSTORE PUSH2 0x3065 DUP3 DUP3 PUSH2 0x2AB9 JUMP JUMPDEST SWAP2 POP POP PUSH1 0x40 DUP4 ADD MLOAD DUP5 DUP3 SUB PUSH1 0x40 DUP7 ADD MSTORE PUSH2 0x307F DUP3 DUP3 PUSH2 0x2AB9 JUMP JUMPDEST SWAP2 POP POP PUSH1 0x60 DUP4 ADD MLOAD DUP5 DUP3 SUB PUSH1 0x60 DUP7 ADD MSTORE PUSH2 0x3099 DUP3 DUP3 PUSH2 0x2AB9 JUMP JUMPDEST SWAP2 POP POP PUSH1 0x80 DUP4 ADD MLOAD DUP5 DUP3 SUB PUSH1 0x80 DUP7 ADD MSTORE PUSH2 0x30B3 DUP3 DUP3 PUSH2 0x2AB9 JUMP JUMPDEST SWAP2 POP POP PUSH1 0xA0 DUP4 ADD MLOAD PUSH2 0x30C8 PUSH1 0xA0 DUP7 ADD DUP3 PUSH2 0x2A9A JUMP JUMPDEST POP PUSH1 0xC0 DUP4 ADD MLOAD PUSH2 0x30DB PUSH1 0xC0 DUP7 ADD DUP3 PUSH2 0x3028 JUMP JUMPDEST POP PUSH1 0xE0 DUP4 ADD MLOAD PUSH2 0x30EE PUSH1 0xE0 DUP7 ADD DUP3 PUSH2 0x2B55 JUMP JUMPDEST POP PUSH2 0x100 DUP4 ADD MLOAD DUP5 DUP3 SUB PUSH2 0x100 DUP7 ADD MSTORE PUSH2 0x3108 DUP3 DUP3 PUSH2 0x2BB0 JUMP JUMPDEST SWAP2 POP POP DUP1 SWAP2 POP POP SWAP3 SWAP2 POP POP JUMP JUMPDEST PUSH1 0x3 DUP2 LT PUSH2 0x3126 JUMPI PUSH2 0x3125 PUSH2 0x2AF1 JUMP JUMPDEST JUMPDEST POP JUMP JUMPDEST PUSH0 DUP2 SWAP1 POP PUSH2 0x3136 DUP3 PUSH2 0x3115 JUMP JUMPDEST SWAP2 SWAP1 POP JUMP JUMPDEST PUSH0 PUSH2 0x3145 DUP3 PUSH2 0x3129 JUMP JUMPDEST SWAP1 POP SWAP2 SWAP1 POP JUMP JUMPDEST PUSH2 0x3155 DUP2 PUSH2 0x313B JUMP JUMPDEST DUP3 MSTORE POP POP JUMP JUMPDEST PUSH0 PUSH2 0x100 DUP3 ADD SWAP1 POP PUSH2 0x316F PUSH0 DUP4 ADD DUP12 PUSH2 0x29DC JUMP JUMPDEST DUP2 DUP2 SUB PUSH1 0x20 DUP4 ADD MSTORE PUSH2 0x3181 DUP2 DUP11 PUSH2 0x2A23 JUMP JUMPDEST SWAP1 POP DUP2 DUP2 SUB PUSH1 0x40 DUP4 ADD MSTORE PUSH2 0x3195 DUP2 DUP10 PUSH2 0x2A23 JUMP JUMPDEST SWAP1 POP PUSH2 0x31A4 PUSH1 0x60 DUP4 ADD DUP9 PUSH2 0x29DC JUMP JUMPDEST DUP2 DUP2 SUB PUSH1 0x80 DUP4 ADD MSTORE PUSH2 0x31B6 DUP2 DUP8 PUSH2 0x3037 JUMP JUMPDEST SWAP1 POP PUSH2 0x31C5 PUSH1 0xA0 DUP4 ADD DUP7 PUSH2 0x314C JUMP JUMPDEST PUSH2 0x31D2 PUSH1 0xC0 DUP4 ADD DUP6 PUSH2 0x29DC JUMP JUMPDEST PUSH2 0x31DF PUSH1 0xE0 DUP4 ADD DUP5 PUSH2 0x29DC JUMP JUMPDEST SWAP10 SWAP9 POP POP POP POP POP POP POP POP POP JUMP JUMPDEST PUSH0 PUSH1 0x20 DUP3 ADD SWAP1 POP DUP2 DUP2 SUB PUSH0 DUP4 ADD MSTORE PUSH2 0x3204 DUP2 DUP5 PUSH2 0x2A23 JUMP JUMPDEST SWAP1 POP SWAP3 SWAP2 POP POP JUMP JUMPDEST PUSH32 0x4E487B7100000000000000000000000000000000000000000000000000000000 PUSH0 MSTORE PUSH1 0x11 PUSH1 0x4 MSTORE PUSH1 0x24 PUSH0 REVERT JUMPDEST PUSH0 PUSH2 0x3243 DUP3 PUSH2 0x2839 JUMP JUMPDEST SWAP2 POP PUSH32 0xFFFFFFFFFFFFFFFFFFFFFFFFFFFFFFFFFFFFFFFFFFFFFFFFFFFFFFFFFFFFFFFF DUP3 SUB PUSH2 0x3275 JUMPI PUSH2 0x3274 PUSH2 0x320C JUMP JUMPDEST JUMPDEST PUSH1 0x1 DUP3 ADD SWAP1 POP SWAP2 SWAP1 POP JUMP JUMPDEST PUSH0 DUP2 SWAP1 POP SWAP3 SWAP2 POP POP JUMP JUMPDEST DUP3 DUP2 DUP4 CALLDATACOPY PUSH0 DUP4 DUP4 ADD MSTORE POP POP POP JUMP JUMPDEST PUSH0 PUSH2 0x32A3 DUP4 DUP6 PUSH2 0x3280 JUMP JUMPDEST SWAP4 POP PUSH2 0x32B0 DUP4 DUP6 DUP5 PUSH2 0x328A JUMP JUMPDEST DUP3 DUP5 ADD SWAP1 POP SWAP4 SWAP3 POP POP POP JUMP JUMPDEST PUSH0 PUSH2 0x32C8 DUP3 DUP5 DUP7 PUSH2 0x3298 JUMP JUMPDEST SWAP2 POP DUP2 SWAP1 POP SWAP4 SWAP3 POP POP POP JUMP JUMPDEST PUSH0 DUP3 SWAP1 POP SWAP3 SWAP2 POP POP JUMP JUMPDEST PUSH32 0x4E487B7100000000000000000000000000000000000000000000000000000000 PUSH0 MSTORE PUSH1 0x41 PUSH1 0x4 MSTORE PUSH1 0x24 PUSH0 REVERT JUMPDEST PUSH32 0x4E487B7100000000000000000000000000000000000000000000000000000000 PUSH0 MSTORE PUSH1 0x22 PUSH1 0x4 MSTORE PUSH1 0x24 PUSH0 REVERT JUMPDEST PUSH0 PUSH1 0x2 DUP3 DIV SWAP1 POP PUSH1 0x1 DUP3 AND DUP1 PUSH2 0x334F JUMPI PUSH1 0x7F DUP3 AND SWAP2 POP JUMPDEST PUSH1 0x20 DUP3 LT DUP2 SUB PUSH2 0x3362 JUMPI PUSH2 0x3361 PUSH2 0x330B JUMP JUMPDEST JUMPDEST POP SWAP2 SWAP1 POP JUMP JUMPDEST PUSH0 DUP2 SWAP1 POP DUP2 PUSH0 MSTORE PUSH1 0x20 PUSH0 KECCAK256 SWAP1 POP SWAP2 SWAP1 POP JUMP JUMPDEST PUSH0 PUSH1 0x20 PUSH1 0x1F DUP4 ADD DIV SWAP1 POP SWAP2 SWAP1 POP JUMP JUMPDEST PUSH0 DUP3 DUP3 SHL SWAP1 POP SWAP3 SWAP2 POP POP JUMP JUMPDEST PUSH0 PUSH1 0x8 DUP4 MUL PUSH2 0x33C4 PUSH32 0xFFFFFFFFFFFFFFFFFFFFFFFFFFFFFFFFFFFFFFFFFFFFFFFFFFFFFFFFFFFFFFFF DUP3 PUSH2 0x3389 JUMP JUMPDEST PUSH2 0x33CE DUP7 DUP4 PUSH2 0x3389 JUMP JUMPDEST SWAP6 POP DUP1 NOT DUP5 AND SWAP4 POP DUP1 DUP7 AND DUP5 OR SWAP3 POP POP POP SWAP4 SWAP3 POP POP POP JUMP JUMPDEST PUSH0 DUP2 SWAP1 POP SWAP2 SWAP1 POP JUMP JUMPDEST PUSH0 PUSH2 0x3409 PUSH2 0x3404 PUSH2 0x33FF DUP5 PUSH2 0x2839 JUMP JUMPDEST PUSH2 0x33E6 JUMP JUMPDEST PUSH2 0x2839 JUMP JUMPDEST SWAP1 POP SWAP2 SWAP1 POP JUMP JUMPDEST PUSH0 DUP2 SWAP1 POP SWAP2 SWAP1 POP JUMP JUMPDEST PUSH2 0x3422 DUP4 PUSH2 0x33EF JUMP JUMPDEST PUSH2 0x3436 PUSH2 0x342E DUP3 PUSH2 0x3410 JUMP JUMPDEST DUP5 DUP5 SLOAD PUSH2 0x3395 JUMP JUMPDEST DUP3 SSTORE POP POP POP POP JUMP JUMPDEST PUSH0 PUSH0 SWAP1 POP SWAP1 JUMP JUMPDEST PUSH2 0x344D PUSH2 0x343E JUMP JUMPDEST PUSH2 0x3458 DUP2 DUP5 DUP5 PUSH2 0x3419 JUMP JUMPDEST POP POP POP JUMP JUMPDEST JUMPDEST DUP2 DUP2 LT ISZERO PUSH2 0x347B JUMPI PUSH2 0x3470 PUSH0 DUP3 PUSH2 0x3445 JUMP JUMPDEST PUSH1 0x1 DUP2 ADD SWAP1 POP PUSH2 0x345E JUMP JUMPDEST POP POP JUMP JUMPDEST PUSH1 0x1F DUP3 GT ISZERO PUSH2 0x34C0 JUMPI PUSH2 0x3491 DUP2 PUSH2 0x3368 JUMP JUMPDEST PUSH2 0x349A DUP5 PUSH2 0x337A JUMP JUMPDEST DUP2 ADD PUSH1 0x20 DUP6 LT ISZERO PUSH2 0x34A9 JUMPI DUP2 SWAP1 POP JUMPDEST PUSH2 0x34BD PUSH2 0x34B5 DUP6 PUSH2 0x337A JUMP JUMPDEST DUP4 ADD DUP3 PUSH2 0x345D JUMP JUMPDEST POP POP JUMPDEST POP POP POP JUMP JUMPDEST PUSH0 DUP3 DUP3 SHR SWAP1 POP SWAP3 SWAP2 POP POP JUMP JUMPDEST PUSH0 PUSH2 0x34E0 PUSH0 NOT DUP5 PUSH1 0x8 MUL PUSH2 0x34C5 JUMP JUMPDEST NOT DUP1 DUP4 AND SWAP2 POP POP SWAP3 SWAP2 POP POP JUMP JUMPDEST PUSH0 PUSH2 0x34F8 DUP4 DUP4 PUSH2 0x34D1 JUMP JUMPDEST SWAP2 POP DUP3 PUSH1 0x2 MUL DUP3 OR SWAP1 POP SWAP3 SWAP2 POP POP JUMP JUMPDEST PUSH2 0x3512 DUP4 DUP4 PUSH2 0x32D4 JUMP JUMPDEST PUSH8 0xFFFFFFFFFFFFFFFF DUP2 GT ISZERO PUSH2 0x352B JUMPI PUSH2 0x352A PUSH2 0x32DE JUMP JUMPDEST JUMPDEST PUSH2 0x3535 DUP3 SLOAD PUSH2 0x3338 JUMP JUMPDEST PUSH2 0x3540 DUP3 DUP3 DUP6 PUSH2 0x347F JUMP JUMPDEST PUSH0 PUSH1 0x1F DUP4 GT PUSH1 0x1 DUP2 EQ PUSH2 0x356D JUMPI PUSH0 DUP5 ISZERO PUSH2 0x355B JUMPI DUP3 DUP8 ADD CALLDATALOAD SWAP1 POP JUMPDEST PUSH2 0x3565 DUP6 DUP3 PUSH2 0x34ED JUMP JUMPDEST DUP7 SSTORE POP PUSH2 0x35CC JUMP JUMPDEST PUSH1 0x1F NOT DUP5 AND PUSH2 0x357B DUP7 PUSH2 0x3368 JUMP JUMPDEST PUSH0 JUMPDEST DUP3 DUP2 LT ISZERO PUSH2 0x35A2 JUMPI DUP5 DUP10 ADD CALLDATALOAD DUP3 SSTORE PUSH1 0x1 DUP3 ADD SWAP2 POP PUSH1 0x20 DUP6 ADD SWAP5 POP PUSH1 0x20 DUP2 ADD SWAP1 POP PUSH2 0x357D JUMP JUMPDEST DUP7 DUP4 LT ISZERO PUSH2 0x35BF JUMPI DUP5 DUP10 ADD CALLDATALOAD PUSH2 0x35BB PUSH1 0x1F DUP10 AND DUP3 PUSH2 0x34D1 JUMP JUMPDEST DUP4 SSTORE POP JUMPDEST PUSH1 0x1 PUSH1 0x2 DUP9 MUL ADD DUP9 SSTORE POP POP POP JUMPDEST POP POP POP POP POP POP POP JUMP JUMPDEST PUSH0 PUSH1 0x20 DUP3 ADD SWAP1 POP PUSH2 0x35E8 PUSH0 DUP4 ADD DUP5 PUSH2 0x29DC JUMP JUMPDEST SWAP3 SWAP2 POP POP JUMP JUMPDEST PUSH2 0x35F7 DUP3 PUSH2 0x29EB JUMP JUMPDEST PUSH8 0xFFFFFFFFFFFFFFFF DUP2 GT ISZERO PUSH2 0x3610 JUMPI PUSH2 0x360F PUSH2 0x32DE JUMP JUMPDEST JUMPDEST PUSH2 0x361A DUP3 SLOAD PUSH2 0x3338 JUMP JUMPDEST PUSH2 0x3625 DUP3 DUP3 DUP6 PUSH2 0x347F JUMP JUMPDEST PUSH0 PUSH1 0x20 SWAP1 POP PUSH1 0x1F DUP4 GT PUSH1 0x1 DUP2 EQ PUSH2 0x3656 JUMPI PUSH0 DUP5 ISZERO PUSH2 0x3644 JUMPI DUP3 DUP8 ADD MLOAD SWAP1 POP JUMPDEST PUSH2 0x364E DUP6 DUP3 PUSH2 0x34ED JUMP JUMPDEST DUP7 SSTORE POP PUSH2 0x36B5 JUMP JUMPDEST PUSH1 0x1F NOT DUP5 AND PUSH2 0x3664 DUP7 PUSH2 0x3368 JUMP JUMPDEST PUSH0 JUMPDEST DUP3 DUP2 LT ISZERO PUSH2 0x368B JUMPI DUP5 DUP10 ADD MLOAD DUP3 SSTORE PUSH1 0x1 DUP3 ADD SWAP2 POP PUSH1 0x20 DUP6 ADD SWAP5 POP PUSH1 0x20 DUP2 ADD SWAP1 POP PUSH2 0x3666 JUMP JUMPDEST DUP7 DUP4 LT ISZERO PUSH2 0x36A8 JUMPI DUP5 DUP10 ADD MLOAD PUSH2 0x36A4 PUSH1 0x1F DUP10 AND DUP3 PUSH2 0x34D1 JUMP JUMPDEST DUP4 SSTORE POP JUMPDEST PUSH1 0x1 PUSH1 0x2 DUP9 MUL ADD DUP9 SSTORE POP POP POP JUMPDEST POP POP POP POP POP POP JUMP JUMPDEST PUSH0 DUP2 SLOAD SWAP1 POP PUSH2 0x36CB DUP2 PUSH2 0x3338 JUMP JUMPDEST SWAP1 POP SWAP2 SWAP1 POP JUMP JUMPDEST DUP2 DUP2 SUB PUSH2 0x36E0 JUMPI POP POP PUSH2 0x37B5 JUMP JUMPDEST PUSH2 0x36E9 DUP3 PUSH2 0x36BD JUMP JUMPDEST PUSH8 0xFFFFFFFFFFFFFFFF DUP2 GT ISZERO PUSH2 0x3702 JUMPI PUSH2 0x3701 PUSH2 0x32DE JUMP JUMPDEST JUMPDEST PUSH2 0x370C DUP3 SLOAD PUSH2 0x3338 JUMP JUMPDEST PUSH2 0x3717 DUP3 DUP3 DUP6 PUSH2 0x347F JUMP JUMPDEST PUSH0 PUSH1 0x1F DUP4 GT PUSH1 0x1 DUP2 EQ PUSH2 0x3744 JUMPI PUSH0 DUP5 ISZERO PUSH2 0x3732 JUMPI DUP3 DUP8 ADD SLOAD SWAP1 POP JUMPDEST PUSH2 0x373C DUP6 DUP3 PUSH2 0x34ED JUMP JUMPDEST DUP7 SSTORE POP PUSH2 0x37AE JUMP JUMPDEST PUSH1 0x1F NOT DUP5 AND PUSH2 0x3752 DUP8 PUSH2 0x3368 JUMP JUMPDEST SWAP7 POP PUSH2 0x375D DUP7 PUSH2 0x3368 JUMP JUMPDEST PUSH0 JUMPDEST DUP3 DUP2 LT ISZERO PUSH2 0x3784 JUMPI DUP5 DUP10 ADD SLOAD DUP3 SSTORE PUSH1 0x1 DUP3 ADD SWAP2 POP PUSH1 0x1 DUP6 ADD SWAP5 POP PUSH1 0x20 DUP2 ADD SWAP1 POP PUSH2 0x375F JUMP JUMPDEST DUP7 DUP4 LT ISZERO PUSH2 0x37A1 JUMPI DUP5 DUP10 ADD SLOAD PUSH2 0x379D PUSH1 0x1F DUP10 AND DUP3 PUSH2 0x34D1 JUMP JUMPDEST DUP4 SSTORE POP JUMPDEST PUSH1 0x1 PUSH1 0x2 DUP9 MUL ADD DUP9 SSTORE POP POP POP JUMPDEST POP POP POP POP POP POP JUMPDEST JUMP INVALID SLOAD PUSH9 0x652063616C6C657220 PUSH5 0x6F6573206E PUSH16 0x74206861766520612063726561746F72 KECCAK256 PUSH17 0x726F66696C655468652063616C6C657220 PUSH5 0x6F6573206E PUSH16 0x74206861766520616E206170706C6963 PUSH2 0x6E74 KECCAK256 PUSH17 0x726F66696C65546865206A6F62206F6666 PUSH6 0x72206973206E PUSH16 0x206C6F6E67657220616363657074696E PUSH8 0x206170706C696361 PUSH21 0x696F6E73546865206A6F62206F6666657220686173 KECCAK256 PUSH19 0x65616368656420746865206D6178696D756D20 PUSH15 0x756D626572206F66206869726573A2 PUSH5 0x6970667358 0x22 SLT KECCAK256 SWAP6 0xA5 SWAP3 PUSH5 0x6A7213DB46 PUSH25 0xD9C109D2B88ACA71EB8E106EF32C0D8220FC1E2C55664736F PUSH13 0x634300081E0033000000000000 "
				},
				"gasEstimates": {
					"creation": {
						"codeDepositCost": "2901200",
						"executionCost": "27439",
						"totalCost": "2928639"
					},
					"external": {
						"applicantProfiles(address)": "infinite",
						"applyForAJob(uint256,string)": "infinite",
						"approveApplication(uint256)": "infinite",
						"createApplicantProfile(string,string,string,string)": "infinite",
						"createCreatorProfile(string,string,string,string)": "infinite",
						"createJobOffer(string,string,uint256,uint256)": "infinite",
						"creatorProfiles(address)": "infinite",
						"jobApplications(uint256)": "infinite",
						"jobOffers(uint256)": "infinite",
						"rejectApplication(uint256)": "infinite"
					}
				},
				"methodIdentifiers": {
					"applicantProfiles(address)": "92b2a791",
					"applyForAJob(uint256,string)": "d4bb7d2e",
					"approveApplication(uint256)": "213fbf1b",
					"createApplicantProfile(string,string,string,string)": "87e6446f",
					"createCreatorProfile(string,string,string,string)": "2ae4bc55",
					"createJobOffer(string,string,uint256,uint256)": "a7f718a0",
					"creatorProfiles(address)": "95b04be2",
					"jobApplications(uint256)": "699687cf",
					"jobOffers(uint256)": "e06f7484",
					"rejectApplication(uint256)": "c5e83e97"
				}
			},
			"storageLayout": {
				"storage": [
					{
						"astId": 42,
						"contract": "soljobs.sol:SolJobs",
						"label": "manager",
						"offset": 0,
						"slot": "0",
						"type": "t_address"
					},
					{
						"astId": 47,
						"contract": "soljobs.sol:SolJobs",
						"label": "creatorProfiles",
						"offset": 0,
						"slot": "1",
						"type": "t_mapping(t_address,t_struct(CreatorProfile)678_storage)"
					},
					{
						"astId": 52,
						"contract": "soljobs.sol:SolJobs",
						"label": "applicantProfiles",
						"offset": 0,
						"slot": "2",
						"type": "t_mapping(t_address,t_struct(ApplicantProfile)697_storage)"
					},
					{
						"astId": 54,
						"contract": "soljobs.sol:SolJobs",
						"label": "numberOfCreatorProfiles",
						"offset": 0,
						"slot": "3",
						"type": "t_uint256"
					},
					{
						"astId": 56,
						"contract": "soljobs.sol:SolJobs",
						"label": "numberOfApplicantProfiles",
						"offset": 0,
						"slot": "4",
						"type": "t_uint256"
					},
					{
						"astId": 60,
						"contract": "soljobs.sol:SolJobs",
						"label": "creatorEmails",
						"offset": 0,
						"slot": "5",
						"type": "t_mapping(t_string_memory_ptr,t_bool)"
					},
					{
						"astId": 64,
						"contract": "soljobs.sol:SolJobs",
						"label": "applicantEmails",
						"offset": 0,
						"slot": "6",
						"type": "t_mapping(t_string_memory_ptr,t_bool)"
					},
					{
						"astId": 68,
						"contract": "soljobs.sol:SolJobs",
						"label": "creatorAddresses",
						"offset": 0,
						"slot": "7",
						"type": "t_mapping(t_address,t_bool)"
					},
					{
						"astId": 72,
						"contract": "soljobs.sol:SolJobs",
						"label": "applicantAddresses",
						"offset": 0,
						"slot": "8",
						"type": "t_mapping(t_address,t_bool)"
					},
					{
						"astId": 74,
						"contract": "soljobs.sol:SolJobs",
						"label": "numberOfJobsCreated",
						"offset": 0,
						"slot": "9",
						"type": "t_uint256"
					},
					{
						"astId": 79,
						"contract": "soljobs.sol:SolJobs",
						"label": "jobOffers",
						"offset": 0,
						"slot": "10",
						"type": "t_mapping(t_uint256,t_struct(JobOffer)720_storage)"
					},
					{
						"astId": 81,
						"contract": "soljobs.sol:SolJobs",
						"label": "numberOfApplications",
						"offset": 0,
						"slot": "11",
						"type": "t_uint256"
					},
					{
						"astId": 86,
						"contract": "soljobs.sol:SolJobs",
						"label": "jobApplications",
						"offset": 0,
						"slot": "12",
						"type": "t_mapping(t_uint256,t_struct(JobApplication)733_storage)"
					}
				],
				"types": {
					"t_address": {
						"encoding": "inplace",
						"label": "address",
						"numberOfBytes": "20"
					},
					"t_array(t_struct(JobApplication)733_storage)dyn_storage": {
						"base": "t_struct(JobApplication)733_storage",
						"encoding": "dynamic_array",
						"label": "struct JobApplication[]",
						"numberOfBytes": "32"
					},
					"t_array(t_uint256)dyn_storage": {
						"base": "t_uint256",
						"encoding": "dynamic_array",
						"label": "uint256[]",
						"numberOfBytes": "32"
					},
					"t_bool": {
						"encoding": "inplace",
						"label": "bool",
						"numberOfBytes": "1"
					},
					"t_enum(JobApplicationStatus)31": {
						"encoding": "inplace",
						"label": "enum JobApplicationStatus",
						"numberOfBytes": "1"
					},
					"t_enum(JobOfferStatus)35": {
						"encoding": "inplace",
						"label": "enum JobOfferStatus",
						"numberOfBytes": "1"
					},
					"t_enum(ProfileType)27": {
						"encoding": "inplace",
						"label": "enum ProfileType",
						"numberOfBytes": "1"
					},
					"t_mapping(t_address,t_bool)": {
						"encoding": "mapping",
						"key": "t_address",
						"label": "mapping(address => bool)",
						"numberOfBytes": "32",
						"value": "t_bool"
					},
					"t_mapping(t_address,t_struct(ApplicantProfile)697_storage)": {
						"encoding": "mapping",
						"key": "t_address",
						"label": "mapping(address => struct ApplicantProfile)",
						"numberOfBytes": "32",
						"value": "t_struct(ApplicantProfile)697_storage"
					},
					"t_mapping(t_address,t_struct(CreatorProfile)678_storage)": {
						"encoding": "mapping",
						"key": "t_address",
						"label": "mapping(address => struct CreatorProfile)",
						"numberOfBytes": "32",
						"value": "t_struct(CreatorProfile)678_storage"
					},
					"t_mapping(t_string_memory_ptr,t_bool)": {
						"encoding": "mapping",
						"key": "t_string_memory_ptr",
						"label": "mapping(string => bool)",
						"numberOfBytes": "32",
						"value": "t_bool"
					},
					"t_mapping(t_uint256,t_struct(JobApplication)733_storage)": {
						"encoding": "mapping",
						"key": "t_uint256",
						"label": "mapping(uint256 => struct JobApplication)",
						"numberOfBytes": "32",
						"value": "t_struct(JobApplication)733_storage"
					},
					"t_mapping(t_uint256,t_struct(JobOffer)720_storage)": {
						"encoding": "mapping",
						"key": "t_uint256",
						"label": "mapping(uint256 => struct JobOffer)",
						"numberOfBytes": "32",
						"value": "t_struct(JobOffer)720_storage"
					},
					"t_string_memory_ptr": {
						"encoding": "bytes",
						"label": "string",
						"numberOfBytes": "32"
					},
					"t_string_storage": {
						"encoding": "bytes",
						"label": "string",
						"numberOfBytes": "32"
					},
					"t_struct(ApplicantProfile)697_storage": {
						"encoding": "inplace",
						"label": "struct ApplicantProfile",
						"members": [
							{
								"astId": 680,
								"contract": "soljobs.sol:SolJobs",
								"label": "id",
								"offset": 0,
								"slot": "0",
								"type": "t_uint256"
							},
							{
								"astId": 682,
								"contract": "soljobs.sol:SolJobs",
								"label": "applicantAddress",
								"offset": 0,
								"slot": "1",
								"type": "t_address"
							},
							{
								"astId": 684,
								"contract": "soljobs.sol:SolJobs",
								"label": "fullname",
								"offset": 0,
								"slot": "2",
								"type": "t_string_storage"
							},
							{
								"astId": 686,
								"contract": "soljobs.sol:SolJobs",
								"label": "email",
								"offset": 0,
								"slot": "3",
								"type": "t_string_storage"
							},
							{
								"astId": 688,
								"contract": "soljobs.sol:SolJobs",
								"label": "location",
								"offset": 0,
								"slot": "4",
								"type": "t_string_storage"
							},
							{
								"astId": 690,
								"contract": "soljobs.sol:SolJobs",
								"label": "bio",
								"offset": 0,
								"slot": "5",
								"type": "t_string_storage"
							},
							{
								"astId": 693,
								"contract": "soljobs.sol:SolJobs",
								"label": "profileType",
								"offset": 0,
								"slot": "6",
								"type": "t_enum(ProfileType)27"
							},
							{
								"astId": 696,
								"contract": "soljobs.sol:SolJobs",
								"label": "applicationIDs",
								"offset": 0,
								"slot": "7",
								"type": "t_array(t_uint256)dyn_storage"
							}
						],
						"numberOfBytes": "256"
					},
					"t_struct(CreatorProfile)678_storage": {
						"encoding": "inplace",
						"label": "struct CreatorProfile",
						"members": [
							{
								"astId": 659,
								"contract": "soljobs.sol:SolJobs",
								"label": "id",
								"offset": 0,
								"slot": "0",
								"type": "t_uint256"
							},
							{
								"astId": 661,
								"contract": "soljobs.sol:SolJobs",
								"label": "email",
								"offset": 0,
								"slot": "1",
								"type": "t_string_storage"
							},
							{
								"astId": 663,
								"contract": "soljobs.sol:SolJobs",
								"label": "name",
								"offset": 0,
								"slot": "2",
								"type": "t_string_storage"
							},
							{
								"astId": 665,
								"contract": "soljobs.sol:SolJobs",
								"label": "tagline",
								"offset": 0,
								"slot": "3",
								"type": "t_string_storage"
							},
							{
								"astId": 667,
								"contract": "soljobs.sol:SolJobs",
								"label": "description",
								"offset": 0,
								"slot": "4",
								"type": "t_string_storage"
							},
							{
								"astId": 669,
								"contract": "soljobs.sol:SolJobs",
								"label": "creatorAddress",
								"offset": 0,
								"slot": "5",
								"type": "t_address"
							},
							{
								"astId": 671,
								"contract": "soljobs.sol:SolJobs",
								"label": "verified",
								"offset": 20,
								"slot": "5",
								"type": "t_bool"
							},
							{
								"astId": 674,
								"contract": "soljobs.sol:SolJobs",
								"label": "profileType",
								"offset": 21,
								"slot": "5",
								"type": "t_enum(ProfileType)27"
							},
							{
								"astId": 677,
								"contract": "soljobs.sol:SolJobs",
								"label": "jobOfferIDs",
								"offset": 0,
								"slot": "6",
								"type": "t_array(t_uint256)dyn_storage"
							}
						],
						"numberOfBytes": "224"
					},
					"t_struct(JobApplication)733_storage": {
						"encoding": "inplace",
						"label": "struct JobApplication",
						"members": [
							{
								"astId": 722,
								"contract": "soljobs.sol:SolJobs",
								"label": "id",
								"offset": 0,
								"slot": "0",
								"type": "t_uint256"
							},
							{
								"astId": 724,
								"contract": "soljobs.sol:SolJobs",
								"label": "jobOfferId",
								"offset": 0,
								"slot": "1",
								"type": "t_uint256"
							},
							{
								"astId": 726,
								"contract": "soljobs.sol:SolJobs",
								"label": "coverLetter",
								"offset": 0,
								"slot": "2",
								"type": "t_string_storage"
							},
							{
								"astId": 729,
								"contract": "soljobs.sol:SolJobs",
								"label": "applicant",
								"offset": 0,
								"slot": "3",
								"type": "t_struct(ApplicantProfile)697_storage"
							},
							{
								"astId": 732,
								"contract": "soljobs.sol:SolJobs",
								"label": "status",
								"offset": 0,
								"slot": "11",
								"type": "t_enum(JobApplicationStatus)31"
							}
						],
						"numberOfBytes": "384"
					},
					"t_struct(JobOffer)720_storage": {
						"encoding": "inplace",
						"label": "struct JobOffer",
						"members": [
							{
								"astId": 699,
								"contract": "soljobs.sol:SolJobs",
								"label": "id",
								"offset": 0,
								"slot": "0",
								"type": "t_uint256"
							},
							{
								"astId": 701,
								"contract": "soljobs.sol:SolJobs",
								"label": "title",
								"offset": 0,
								"slot": "1",
								"type": "t_string_storage"
							},
							{
								"astId": 703,
								"contract": "soljobs.sol:SolJobs",
								"label": "description",
								"offset": 0,
								"slot": "2",
								"type": "t_string_storage"
							},
							{
								"astId": 705,
								"contract": "soljobs.sol:SolJobs",
								"label": "compensation",
								"offset": 0,
								"slot": "3",
								"type": "t_uint256"
							},
							{
								"astId": 708,
								"contract": "soljobs.sol:SolJobs",
								"label": "creator",
								"offset": 0,
								"slot": "4",
								"type": "t_struct(CreatorProfile)678_storage"
							},
							{
								"astId": 712,
								"contract": "soljobs.sol:SolJobs",
								"label": "applications",
								"offset": 0,
								"slot": "11",
								"type": "t_array(t_struct(JobApplication)733_storage)dyn_storage"
							},
							{
								"astId": 715,
								"contract": "soljobs.sol:SolJobs",
								"label": "status",
								"offset": 0,
								"slot": "12",
								"type": "t_enum(JobOfferStatus)35"
							},
							{
								"astId": 717,
								"contract": "soljobs.sol:SolJobs",
								"label": "numberOfMaxHires",
								"offset": 0,
								"slot": "13",
								"type": "t_uint256"
							},
							{
								"astId": 719,
								"contract": "soljobs.sol:SolJobs",
								"label": "numberHired",
								"offset": 0,
								"slot": "14",
								"type": "t_uint256"
							}
						],
						"numberOfBytes": "480"
					},
					"t_uint256": {
						"encoding": "inplace",
						"label": "uint256",
						"numberOfBytes": "32"
					}
				}
			},
			"userdoc": {
				"kind": "user",
				"methods": {},
				"version": 1
			}
		}
	}
}